{
  "contractName": "Admin",
  "abi": [
    {
      "constant": true,
      "inputs": [],
      "name": "adminCounts",
      "outputs": [
        {
          "internalType": "uint256",
          "name": "",
          "type": "uint256"
        }
      ],
      "payable": false,
      "stateMutability": "view",
      "type": "function"
    },
    {
      "constant": true,
      "inputs": [
        {
          "internalType": "uint256",
          "name": "",
          "type": "uint256"
        }
      ],
      "name": "adminSelfs",
      "outputs": [
        {
          "internalType": "uint256",
          "name": "adminId",
          "type": "uint256"
        },
        {
          "internalType": "string",
          "name": "adminName",
          "type": "string"
        },
        {
          "internalType": "address",
          "name": "adminBlockAddress",
          "type": "address"
        },
        {
          "internalType": "uint256",
          "name": "adminAuthorization",
          "type": "uint256"
        }
      ],
      "payable": false,
      "stateMutability": "view",
      "type": "function"
    },
    {
      "constant": true,
      "inputs": [],
      "name": "courseCounts",
      "outputs": [
        {
          "internalType": "uint256",
          "name": "",
          "type": "uint256"
        }
      ],
      "payable": false,
      "stateMutability": "view",
      "type": "function"
    },
    {
      "constant": true,
      "inputs": [
        {
          "internalType": "uint256",
          "name": "",
          "type": "uint256"
        }
      ],
      "name": "courseInfs",
      "outputs": [
        {
          "internalType": "uint256",
          "name": "courseId",
          "type": "uint256"
        },
        {
          "internalType": "string",
          "name": "courseName",
          "type": "string"
        },
        {
          "internalType": "address",
          "name": "proBlockAddress",
          "type": "address"
        },
        {
          "internalType": "bool",
          "name": "canApply",
          "type": "bool"
        },
        {
          "internalType": "uint256",
          "name": "courseStudentCounts",
          "type": "uint256"
        }
      ],
      "payable": false,
      "stateMutability": "view",
      "type": "function"
    },
    {
      "constant": true,
      "inputs": [
        {
          "internalType": "address",
          "name": "_adminBlockAddress",
          "type": "address"
        }
      ],
      "name": "getAdminIndexByAddress",
      "outputs": [
        {
          "internalType": "uint256",
          "name": "",
          "type": "uint256"
        }
      ],
      "payable": false,
      "stateMutability": "view",
      "type": "function"
    },
    {
      "constant": true,
      "inputs": [],
      "name": "getAllCourseId",
      "outputs": [
        {
          "internalType": "uint256[]",
          "name": "",
          "type": "uint256[]"
        }
      ],
      "payable": false,
      "stateMutability": "view",
      "type": "function"
    },
    {
      "constant": true,
      "inputs": [],
      "name": "getAllStudentAddress",
      "outputs": [
        {
          "internalType": "address[]",
          "name": "",
          "type": "address[]"
        }
      ],
      "payable": false,
      "stateMutability": "view",
      "type": "function"
    },
    {
      "constant": true,
      "inputs": [
        {
          "internalType": "address",
          "name": "_address",
          "type": "address"
        }
      ],
      "name": "getAuthorizationByAddress",
      "outputs": [
        {
          "internalType": "uint256",
          "name": "",
          "type": "uint256"
        }
      ],
      "payable": false,
      "stateMutability": "view",
      "type": "function"
    },
    {
      "constant": true,
      "inputs": [],
      "name": "getCourseCounts",
      "outputs": [
        {
          "internalType": "uint256",
          "name": "",
          "type": "uint256"
        }
      ],
      "payable": false,
      "stateMutability": "view",
      "type": "function"
    },
    {
      "constant": true,
      "inputs": [
        {
          "internalType": "address",
          "name": "_proBlockAddress",
          "type": "address"
        }
      ],
      "name": "getCourseCountsByProAddress",
      "outputs": [
        {
          "internalType": "uint256",
          "name": "",
          "type": "uint256"
        }
      ],
      "payable": false,
      "stateMutability": "view",
      "type": "function"
    },
    {
      "constant": true,
      "inputs": [
        {
          "internalType": "address",
          "name": "_proBlockAddress",
          "type": "address"
        }
      ],
      "name": "getCourseIdByProAddress",
      "outputs": [
        {
          "internalType": "uint256[]",
          "name": "",
          "type": "uint256[]"
        }
      ],
      "payable": false,
      "stateMutability": "view",
      "type": "function"
    },
    {
      "constant": true,
      "inputs": [
        {
          "internalType": "uint256",
          "name": "_courseid",
          "type": "uint256"
        }
      ],
      "name": "getCourseInfByCourseId",
      "outputs": [
        {
          "internalType": "uint256",
          "name": "",
          "type": "uint256"
        },
        {
          "internalType": "string",
          "name": "",
          "type": "string"
        },
        {
          "internalType": "address",
          "name": "",
          "type": "address"
        },
        {
          "internalType": "uint256",
          "name": "",
          "type": "uint256"
        },
        {
          "internalType": "address[]",
          "name": "",
          "type": "address[]"
        },
        {
          "internalType": "uint256[]",
          "name": "",
          "type": "uint256[]"
        }
      ],
      "payable": false,
      "stateMutability": "view",
      "type": "function"
    },
    {
      "constant": true,
      "inputs": [
        {
          "internalType": "address",
          "name": "_address",
          "type": "address"
        }
      ],
      "name": "getIdByAddress",
      "outputs": [
        {
          "internalType": "uint256",
          "name": "",
          "type": "uint256"
        }
      ],
      "payable": false,
      "stateMutability": "view",
      "type": "function"
    },
    {
      "constant": true,
      "inputs": [
        {
          "internalType": "uint256",
          "name": "_courseId",
          "type": "uint256"
        }
      ],
      "name": "getIndexByCourseId",
      "outputs": [
        {
          "internalType": "uint256",
          "name": "",
          "type": "uint256"
        }
      ],
      "payable": false,
      "stateMutability": "view",
      "type": "function"
    },
    {
      "constant": true,
      "inputs": [],
      "name": "getMsgSender",
      "outputs": [
        {
          "internalType": "address",
          "name": "",
          "type": "address"
        }
      ],
      "payable": false,
      "stateMutability": "view",
      "type": "function"
    },
    {
      "constant": true,
      "inputs": [
        {
          "internalType": "address",
          "name": "_proBlockAddress",
          "type": "address"
        }
      ],
      "name": "getProfessorIndexByAddress",
      "outputs": [
        {
          "internalType": "uint256",
          "name": "",
          "type": "uint256"
        }
      ],
      "payable": false,
      "stateMutability": "view",
      "type": "function"
    },
    {
      "constant": true,
      "inputs": [
        {
          "internalType": "address",
          "name": "_stuBlockAddress",
          "type": "address"
        }
      ],
      "name": "getStudentIndexByAddress",
      "outputs": [
        {
          "internalType": "uint256",
          "name": "",
          "type": "uint256"
        }
      ],
      "payable": false,
      "stateMutability": "view",
      "type": "function"
    },
    {
      "constant": true,
      "inputs": [
        {
          "internalType": "address",
          "name": "_stuBlockAddress",
          "type": "address"
        }
      ],
      "name": "getStudentInfByStuAddress",
      "outputs": [
        {
          "internalType": "uint256",
          "name": "",
          "type": "uint256"
        },
        {
          "internalType": "string",
          "name": "",
          "type": "string"
        },
        {
          "internalType": "address",
          "name": "",
          "type": "address"
        },
        {
          "internalType": "uint256",
          "name": "",
          "type": "uint256"
        },
        {
          "internalType": "uint256[]",
          "name": "",
          "type": "uint256[]"
        },
        {
          "internalType": "uint256[]",
          "name": "",
          "type": "uint256[]"
        }
      ],
      "payable": false,
      "stateMutability": "view",
      "type": "function"
    },
    {
      "constant": true,
      "inputs": [
        {
          "internalType": "uint256",
          "name": "_courseid",
          "type": "uint256"
        },
        {
          "internalType": "uint256",
          "name": "_getTops",
          "type": "uint256"
        }
      ],
      "name": "getTopStudentsByCourseId",
      "outputs": [
        {
          "internalType": "uint256",
          "name": "",
          "type": "uint256"
        },
        {
          "internalType": "string",
          "name": "",
          "type": "string"
        },
        {
          "internalType": "address",
          "name": "",
          "type": "address"
        },
        {
          "internalType": "uint256",
          "name": "",
          "type": "uint256"
        },
        {
          "internalType": "address[]",
          "name": "",
          "type": "address[]"
        },
        {
          "internalType": "uint256[]",
          "name": "",
          "type": "uint256[]"
        }
      ],
      "payable": false,
      "stateMutability": "view",
      "type": "function"
    },
    {
      "constant": true,
      "inputs": [
        {
          "internalType": "uint256",
          "name": "_courseid",
          "type": "uint256"
        }
      ],
      "name": "getcourseStudentCounts",
      "outputs": [
        {
          "internalType": "uint256",
          "name": "courseStudentCounts_",
          "type": "uint256"
        }
      ],
      "payable": false,
      "stateMutability": "view",
      "type": "function"
    },
    {
      "constant": true,
      "inputs": [],
      "name": "modifiersOwner",
      "outputs": [
        {
          "internalType": "address",
          "name": "",
          "type": "address"
        }
      ],
      "payable": false,
      "stateMutability": "view",
      "type": "function"
    },
    {
      "constant": true,
      "inputs": [],
      "name": "personCounts",
      "outputs": [
        {
          "internalType": "uint256",
          "name": "",
          "type": "uint256"
        }
      ],
      "payable": false,
      "stateMutability": "view",
      "type": "function"
    },
    {
      "constant": true,
      "inputs": [],
      "name": "professorCounts",
      "outputs": [
        {
          "internalType": "uint256",
          "name": "",
          "type": "uint256"
        }
      ],
      "payable": false,
      "stateMutability": "view",
      "type": "function"
    },
    {
      "constant": true,
      "inputs": [
        {
          "internalType": "uint256",
          "name": "",
          "type": "uint256"
        }
      ],
      "name": "professorSelfs",
      "outputs": [
        {
          "internalType": "uint256",
          "name": "proId",
          "type": "uint256"
        },
        {
          "internalType": "string",
          "name": "proName",
          "type": "string"
        },
        {
          "internalType": "address",
          "name": "proBlockAddress",
          "type": "address"
        },
        {
          "internalType": "uint256",
          "name": "proAuthorization",
          "type": "uint256"
        },
        {
          "internalType": "uint256",
          "name": "isTeachingPeopleSum",
          "type": "uint256"
        }
      ],
      "payable": false,
      "stateMutability": "view",
      "type": "function"
    },
    {
      "constant": true,
      "inputs": [],
      "name": "studentCounts",
      "outputs": [
        {
          "internalType": "uint256",
          "name": "",
          "type": "uint256"
        }
      ],
      "payable": false,
      "stateMutability": "view",
      "type": "function"
    },
    {
      "constant": true,
      "inputs": [
        {
          "internalType": "uint256",
          "name": "",
          "type": "uint256"
        }
      ],
      "name": "studentSelfs",
      "outputs": [
        {
          "internalType": "uint256",
          "name": "stuId",
          "type": "uint256"
        },
        {
          "internalType": "string",
          "name": "stuName",
          "type": "string"
        },
        {
          "internalType": "address",
          "name": "stuBlockAddress",
          "type": "address"
        },
        {
          "internalType": "uint256",
          "name": "stuAuthorization",
          "type": "uint256"
        },
        {
          "internalType": "uint256",
          "name": "isLearningSum",
          "type": "uint256"
        }
      ],
      "payable": false,
      "stateMutability": "view",
      "type": "function"
    },
    {
      "constant": false,
      "inputs": [
        {
          "internalType": "address",
          "name": "_blockAddress",
          "type": "address"
        },
        {
          "internalType": "uint256",
          "name": "_authorization",
          "type": "uint256"
        }
      ],
      "name": "setPermission",
      "outputs": [
        {
          "internalType": "bool",
          "name": "",
          "type": "bool"
        }
      ],
      "payable": false,
      "stateMutability": "nonpayable",
      "type": "function"
    },
    {
      "constant": false,
      "inputs": [
        {
          "internalType": "address",
          "name": "_blockAddress",
          "type": "address"
        }
      ],
      "name": "removePermission",
      "outputs": [
        {
          "internalType": "bool",
          "name": "",
          "type": "bool"
        }
      ],
      "payable": false,
      "stateMutability": "nonpayable",
      "type": "function"
    }
  ],
  "bytecode": "0x6080604052600060015560006003556000600555600060075560016009556001600a556064600b556103e8600c55336000806101000a81548173ffffffffffffffffffffffffffffffffffffffff021916908373ffffffffffffffffffffffffffffffffffffffff1602179055506040518060800160405280600181526020016040518060400160405280600481526020017f526f6f740000000000000000000000000000000000000000000000000000000081525081526020016000809054906101000a900473ffffffffffffffffffffffffffffffffffffffff1673ffffffffffffffffffffffffffffffffffffffff1681526020016003815250600260006001815260200190815260200160002060008201518160000155602082015181600101908051906020019062000138929190620001a5565b5060408201518160020160006101000a81548173ffffffffffffffffffffffffffffffffffffffff021916908373ffffffffffffffffffffffffffffffffffffffff1602179055506060820151816003015590505060016000815480929190600101919050555062000254565b828054600181600116156101000203166002900490600052602060002090601f016020900481019282601f10620001e857805160ff191683800117855562000219565b8280016001018555821562000219579182015b8281111562000218578251825591602001919060010190620001fb565b5b5090506200022891906200022c565b5090565b6200025191905b808211156200024d57600081600090555060010162000233565b5090565b90565b613bfa80620002646000396000f3fe608060405234801561001057600080fd5b50600436106101c35760003560e01c80637a6ce2e1116100f9578063bf01b07511610097578063e074bb4711610071578063e074bb4714610f07578063f6aa09e414610f63578063fb3189e814610fc2578063fc0c1f3914610fe0576101c3565b8063bf01b07514610e2b578063d8ded14b14610e49578063dff3b49714610eaf576101c3565b806398aede55116100d357806398aede5514610ce85780639fde094314610d32578063a5cc464d14610d91578063ad9e42d914610de9576101c3565b80637a6ce2e114610ac457806390eab7a214610b0e57806394e48ece14610b66576101c3565b80632454a939116101665780634d64e5ee116101405780634d64e5ee146107e757806358a42065146108d65780635e719a4914610a645780637860a06914610aa6576101c3565b80632454a939146105bf57806330e94711146106175780634d4fb0d71461078f576101c3565b80630d9382fc116101a25780630d9382fc146104435780630e3bfd6c1461046157806310d756dd1461047f5780631643c8db146104d7576101c3565b80624255a6146101c8578063043022fa146102b75780630c1596b4146103aa575b600080fd5b6101f4600480360360208110156101de57600080fd5b8101908080359060200190929190505050610ffe565b60405180868152602001806020018573ffffffffffffffffffffffffffffffffffffffff1673ffffffffffffffffffffffffffffffffffffffff168152602001848152602001838152602001828103825286818151815260200191508051906020019080838360005b8381101561027857808201518184015260208101905061025d565b50505050905090810190601f1680156102a55780820380516001836020036101000a031916815260200191505b50965050505050505060405180910390f35b6102e3600480360360208110156102cd57600080fd5b81019080803590602001909291905050506110ec565b60405180868152602001806020018573ffffffffffffffffffffffffffffffffffffffff1673ffffffffffffffffffffffffffffffffffffffff16815260200184151515158152602001838152602001828103825286818151815260200191508051906020019080838360005b8381101561036b578082015181840152602081019050610350565b50505050905090810190601f1680156103985780820380516001836020036101000a031916815260200191505b50965050505050505060405180910390f35b6103ec600480360360208110156103c057600080fd5b81019080803573ffffffffffffffffffffffffffffffffffffffff1690602001909291905050506111e7565b6040518080602001828103825283818151815260200191508051906020019060200280838360005b8381101561042f578082015181840152602081019050610414565b505050509050019250505060405180910390f35b61044b6112a2565b6040518082815260200191505060405180910390f35b6104696112a8565b6040518082815260200191505060405180910390f35b6104c16004803603602081101561049557600080fd5b81019080803573ffffffffffffffffffffffffffffffffffffffff1690602001909291905050506112ae565b6040518082815260200191505060405180910390f35b610503600480360360208110156104ed57600080fd5b810190808035906020019092919050505061134a565b60405180858152602001806020018473ffffffffffffffffffffffffffffffffffffffff1673ffffffffffffffffffffffffffffffffffffffff168152602001838152602001828103825285818151815260200191508051906020019080838360005b83811015610581578082015181840152602081019050610566565b50505050905090810190601f1680156105ae5780820380516001836020036101000a031916815260200191505b509550505050505060405180910390f35b610601600480360360208110156105d557600080fd5b81019080803573ffffffffffffffffffffffffffffffffffffffff169060200190929190505050611432565b6040518082815260200191505060405180910390f35b6106436004803603602081101561062d57600080fd5b81019080803590602001909291905050506114ce565b60405180878152602001806020018673ffffffffffffffffffffffffffffffffffffffff1673ffffffffffffffffffffffffffffffffffffffff1681526020018581526020018060200180602001848103845289818151815260200191508051906020019080838360005b838110156106c95780820151818401526020810190506106ae565b50505050905090810190601f1680156106f65780820380516001836020036101000a031916815260200191505b50848103835286818151815260200191508051906020019060200280838360005b83811015610732578082015181840152602081019050610717565b50505050905001848103825285818151815260200191508051906020019060200280838360005b83811015610774578082015181840152602081019050610759565b50505050905001995050505050505050505060405180910390f35b6107d1600480360360208110156107a557600080fd5b81019080803573ffffffffffffffffffffffffffffffffffffffff169060200190929190505050611789565b6040518082815260200191505060405180910390f35b610813600480360360208110156107fd57600080fd5b81019080803590602001909291905050506117b9565b60405180868152602001806020018573ffffffffffffffffffffffffffffffffffffffff1673ffffffffffffffffffffffffffffffffffffffff168152602001848152602001838152602001828103825286818151815260200191508051906020019080838360005b8381101561089757808201518184015260208101905061087c565b50505050905090810190601f1680156108c45780820380516001836020036101000a031916815260200191505b50965050505050505060405180910390f35b610918600480360360208110156108ec57600080fd5b81019080803573ffffffffffffffffffffffffffffffffffffffff1690602001909291905050506118a7565b60405180878152602001806020018673ffffffffffffffffffffffffffffffffffffffff1673ffffffffffffffffffffffffffffffffffffffff1681526020018581526020018060200180602001848103845289818151815260200191508051906020019080838360005b8381101561099e578082015181840152602081019050610983565b50505050905090810190601f1680156109cb5780820380516001836020036101000a031916815260200191505b50848103835286818151815260200191508051906020019060200280838360005b83811015610a075780820151818401526020810190506109ec565b50505050905001848103825285818151815260200191508051906020019060200280838360005b83811015610a49578082015181840152602081019050610a2e565b50505050905001995050505050505050505060405180910390f35b610a9060048036036020811015610a7a57600080fd5b8101908080359060200190929190505050611af4565b6040518082815260200191505060405180910390f35b610aae611b56565b6040518082815260200191505060405180910390f35b610acc611b5c565b604051808273ffffffffffffffffffffffffffffffffffffffff1673ffffffffffffffffffffffffffffffffffffffff16815260200191505060405180910390f35b610b5060048036036020811015610b2457600080fd5b81019080803573ffffffffffffffffffffffffffffffffffffffff169060200190929190505050611b64565b6040518082815260200191505060405180910390f35b610b9c60048036036040811015610b7c57600080fd5b810190808035906020019092919080359060200190929190505050611d64565b60405180878152602001806020018673ffffffffffffffffffffffffffffffffffffffff1673ffffffffffffffffffffffffffffffffffffffff1681526020018581526020018060200180602001848103845289818151815260200191508051906020019080838360005b83811015610c22578082015181840152602081019050610c07565b50505050905090810190601f168015610c4f5780820380516001836020036101000a031916815260200191505b50848103835286818151815260200191508051906020019060200280838360005b83811015610c8b578082015181840152602081019050610c70565b50505050905001848103825285818151815260200191508051906020019060200280838360005b83811015610ccd578082015181840152602081019050610cb2565b50505050905001995050505050505050505060405180910390f35b610cf06121f8565b604051808273ffffffffffffffffffffffffffffffffffffffff1673ffffffffffffffffffffffffffffffffffffffff16815260200191505060405180910390f35b610d3a61221d565b6040518080602001828103825283818151815260200191508051906020019060200280838360005b83811015610d7d578082015181840152602081019050610d62565b505050509050019250505060405180910390f35b610dd360048036036020811015610da757600080fd5b81019080803573ffffffffffffffffffffffffffffffffffffffff1690602001909291905050506122f9565b6040518082815260200191505060405180910390f35b610e1560048036036020811015610dff57600080fd5b8101908080359060200190929190505050612395565b6040518082815260200191505060405180910390f35b610e336123f0565b6040518082815260200191505060405180910390f35b610e9560048036036040811015610e5f57600080fd5b81019080803573ffffffffffffffffffffffffffffffffffffffff169060200190929190803590602001909291905050506123fa565b604051808215151515815260200191505060405180910390f35b610ef160048036036020811015610ec557600080fd5b81019080803573ffffffffffffffffffffffffffffffffffffffff1690602001909291905050506129c9565b6040518082815260200191505060405180910390f35b610f4960048036036020811015610f1d57600080fd5b81019080803573ffffffffffffffffffffffffffffffffffffffff169060200190929190505050612bc9565b604051808215151515815260200191505060405180910390f35b610f6b613531565b6040518080602001828103825283818151815260200191508051906020019060200280838360005b83811015610fae578082015181840152602081019050610f93565b505050509050019250505060405180910390f35b610fca6135bf565b6040518082815260200191505060405180910390f35b610fe86135c5565b6040518082815260200191505060405180910390f35b6006602052806000526040600020600091509050806000015490806001018054600181600116156101000203166002900480601f0160208091040260200160405190810160405280929190818152602001828054600181600116156101000203166002900480156110b05780601f10611085576101008083540402835291602001916110b0565b820191906000526020600020905b81548152906001019060200180831161109357829003601f168201915b5050505050908060020160009054906101000a900473ffffffffffffffffffffffffffffffffffffffff16908060030154908060050154905085565b6008602052806000526040600020600091509050806000015490806001018054600181600116156101000203166002900480601f01602080910402602001604051908101604052809291908181526020018280546001816001161561010002031660029004801561119e5780601f106111735761010080835404028352916020019161119e565b820191906000526020600020905b81548152906001019060200180831161118157829003601f168201915b5050505050908060020160009054906101000a900473ffffffffffffffffffffffffffffffffffffffff16908060020160149054906101000a900460ff16908060030154905085565b606060006111f4836122f9565b9050600061120184611789565b90506060816040519080825280602002602001820160405280156112345781602001602082028038833980820191505090505b50905060008090505b828110156112965760046000858152602001908152602001600020600401818154811061126657fe5b906000526020600020015482828151811061127d57fe5b602002602001018181525050808060010191505061123d565b50809350505050919050565b60095481565b60075481565b600080600190505b600154811161133f578273ffffffffffffffffffffffffffffffffffffffff166002600083815260200190815260200160002060020160009054906101000a900473ffffffffffffffffffffffffffffffffffffffff1673ffffffffffffffffffffffffffffffffffffffff1614156113325780915050611345565b80806001019150506112b6565b50600090505b919050565b6002602052806000526040600020600091509050806000015490806001018054600181600116156101000203166002900480601f0160208091040260200160405190810160405280929190818152602001828054600181600116156101000203166002900480156113fc5780601f106113d1576101008083540402835291602001916113fc565b820191906000526020600020905b8154815290600101906020018083116113df57829003601f168201915b5050505050908060020160009054906101000a900473ffffffffffffffffffffffffffffffffffffffff16908060030154905084565b600080600190505b60055481116114c3578273ffffffffffffffffffffffffffffffffffffffff166006600083815260200190815260200160002060020160009054906101000a900473ffffffffffffffffffffffffffffffffffffffff1673ffffffffffffffffffffffffffffffffffffffff1614156114b657809150506114c9565b808060010191505061143a565b50600090505b919050565b6000606060008060608060006114e388612395565b90506000600860008381526020019081526020016000206000015490506060600860008481526020019081526020016000206001018054600181600116156101000203166002900480601f0160208091040260200160405190810160405280929190818152602001828054600181600116156101000203166002900480156115ac5780601f10611581576101008083540402835291602001916115ac565b820191906000526020600020905b81548152906001019060200180831161158f57829003601f168201915b5050505050905060006008600085815260200190815260200160002060020160009054906101000a900473ffffffffffffffffffffffffffffffffffffffff16905060006008600086815260200190815260200160002060030154905060608160405190808252806020026020018201604052801561163a5781602001602082028038833980820191505090505b50905060608260405190808252806020026020018201604052801561166e5781602001602082028038833980820191505090505b5090506000600190505b8381116117665760086000898152602001908152602001600020600401600082815260200190815260200160002060000160009054906101000a900473ffffffffffffffffffffffffffffffffffffffff168360018303815181106116d957fe5b602002602001019073ffffffffffffffffffffffffffffffffffffffff16908173ffffffffffffffffffffffffffffffffffffffff16815250506008600089815260200190815260200160002060040160008281526020019081526020016000206001015482600183038151811061174d57fe5b6020026020010181815250508080600101915050611678565b508585858585859c509c509c509c509c509c505050505050505091939550919395565b600080611795836122f9565b90506004600082815260200190815260200160002060040180549050915050919050565b6004602052806000526040600020600091509050806000015490806001018054600181600116156101000203166002900480601f01602080910402602001604051908101604052809291908181526020018280546001816001161561010002031660029004801561186b5780601f106118405761010080835404028352916020019161186b565b820191906000526020600020905b81548152906001019060200180831161184e57829003601f168201915b5050505050908060020160009054906101000a900473ffffffffffffffffffffffffffffffffffffffff16908060030154908060050154905085565b6000606060008060608060006118bc88611432565b90506000600660008381526020019081526020016000206000015490506060600660008481526020019081526020016000206001018054600181600116156101000203166002900480601f0160208091040260200160405190810160405280929190818152602001828054600181600116156101000203166002900480156119855780601f1061195a57610100808354040283529160200191611985565b820191906000526020600020905b81548152906001019060200180831161196857829003601f168201915b5050505050905060006006600085815260200190815260200160002060020160009054906101000a900473ffffffffffffffffffffffffffffffffffffffff169050600060066000868152602001908152602001600020600301549050606060066000878152602001908152602001600020600401805480602002602001604051908101604052809291908181526020018280548015611a4457602002820191906000526020600020905b815481526020019060010190808311611a30575b5050505050905060608151604051908082528060200260200182016040528015611a7d5781602001602082028038833980820191505090505b50905060008090505b8251811015611ad157611aac8f848381518110611a9f57fe5b60200260200101516135cb565b828281518110611ab857fe5b6020026020010181815250508080600101915050611a86565b508585858585859c509c509c509c509c509c505050505050505091939550919395565b600080600190505b6007548111611b4f578260086000838152602001908152602001600020600001541415611b42576008600082815260200190815260200160002060030154915050611b51565b8080600101915050611afc565b505b919050565b60035481565b600033905090565b600080600190505b6001548111611c0b578273ffffffffffffffffffffffffffffffffffffffff166002600083815260200190815260200160002060020160009054906101000a900473ffffffffffffffffffffffffffffffffffffffff1673ffffffffffffffffffffffffffffffffffffffff161415611bfe576002600082815260200190815260200160002060030154915050611d5f565b8080600101915050611b6c565b506000600190505b6003548111611cb2578273ffffffffffffffffffffffffffffffffffffffff166004600083815260200190815260200160002060020160009054906101000a900473ffffffffffffffffffffffffffffffffffffffff1673ffffffffffffffffffffffffffffffffffffffff161415611ca5576004600082815260200190815260200160002060030154915050611d5f565b8080600101915050611c13565b506000600190505b6005548111611d59578273ffffffffffffffffffffffffffffffffffffffff166006600083815260200190815260200160002060020160009054906101000a900473ffffffffffffffffffffffffffffffffffffffff1673ffffffffffffffffffffffffffffffffffffffff161415611d4c576006600082815260200190815260200160002060030154915050611d5f565b8080600101915050611cba565b50600090505b919050565b6000606060008060608060008790506000611d7e8a612395565b90506000600860008381526020019081526020016000206000015490506060600860008481526020019081526020016000206001018054600181600116156101000203166002900480601f016020809104026020016040519081016040528092919081815260200182805460018160011615610100020316600290048015611e475780601f10611e1c57610100808354040283529160200191611e47565b820191906000526020600020905b815481529060010190602001808311611e2a57829003601f168201915b5050505050905060006008600085815260200190815260200160002060020160009054906101000a900473ffffffffffffffffffffffffffffffffffffffff16905060006008600086815260200190815260200160002060030154905085811015611eb0578095505b606086604051908082528060200260200182016040528015611ee15781602001602082028038833980820191505090505b509050606087604051908082528060200260200182016040528015611f155781602001602082028038833980820191505090505b509050606083604051908082528060200260200182016040528015611f495781602001602082028038833980820191505090505b5090506000600190505b848111611fad57600860008a8152602001908152602001600020600401600082815260200190815260200160002060010154826001830381518110611f9457fe5b6020026020010181815250508080600101915050611f53565b5060008090505b8481101561207c576000600190505b8581101561206e57826001820381518110611fda57fe5b6020026020010151838281518110611fee57fe5b6020026020010151111561206157600083600183038151811061200d57fe5b6020026020010151905083828151811061202357fe5b602002602001015184600184038151811061203a57fe5b6020026020010181815250508084838151811061205357fe5b602002602001018181525050505b8080600101915050611fc3565b508080600101915050611fb4565b50600080905060008090505b858110156121d1578a82141561209d576121d1565b8281815181106120a957fe5b60200260200101518482815181106120bd57fe5b6020026020010181815250506000600190505b8681116121bb57600860008c815260200190815260200160002060040160008281526020019081526020016000206001015485838151811061210e57fe5b602002602001015114156121ae57600860008c8152602001908152602001600020600401600082815260200190815260200160002060000160009054906101000a900473ffffffffffffffffffffffffffffffffffffffff1686838151811061217357fe5b602002602001019073ffffffffffffffffffffffffffffffffffffffff16908173ffffffffffffffffffffffffffffffffffffffff16815250505b80806001019150506120d0565b5081806001019250508080600101915050612088565b508787878787879f509f509f509f509f509f50505050505050505050509295509295509295565b6000809054906101000a900473ffffffffffffffffffffffffffffffffffffffff1681565b6060806005546040519080825280602002602001820160405280156122515781602001602082028038833980820191505090505b5090506000600190505b60055481116122f1576006600082815260200190815260200160002060020160009054906101000a900473ffffffffffffffffffffffffffffffffffffffff168260018303815181106122aa57fe5b602002602001019073ffffffffffffffffffffffffffffffffffffffff16908173ffffffffffffffffffffffffffffffffffffffff1681525050808060010191505061225b565b508091505090565b600080600190505b600354811161238a578273ffffffffffffffffffffffffffffffffffffffff166004600083815260200190815260200160002060020160009054906101000a900473ffffffffffffffffffffffffffffffffffffffff1673ffffffffffffffffffffffffffffffffffffffff16141561237d5780915050612390565b8080600101915050612301565b50600090505b919050565b600080600090506000600190505b60075481116123e45783600860008381526020019081526020016000206000015414156123d75780915081925050506123eb565b80806001019150506123a3565b5060009150505b919050565b6000600754905090565b6000806000905060008090505b600154811161248c576002600082815260200190815260200160002060020160009054906101000a900473ffffffffffffffffffffffffffffffffffffffff1673ffffffffffffffffffffffffffffffffffffffff163373ffffffffffffffffffffffffffffffffffffffff16141561247f57600191505b8080600101915050612407565b5080612500576040517f08c379a00000000000000000000000000000000000000000000000000000000081526004018080602001828103825260158152602001807f3e3e3e3e3e3e697341646d696e203d2066616c7365000000000000000000000081525060200191505060405180910390fd5b600183148061250f5750600283145b8061251a5750600383145b61258c576040517f08c379a000000000000000000000000000000000000000000000000000000000815260040180806020018281038252600c8152602001807f756e617574686f72697a6564000000000000000000000000000000000000000081525060200191505060405180910390fd5b60001515612599856136d0565b1515146125f1576040517f08c379a000000000000000000000000000000000000000000000000000000000815260040180806020018281038252602d815260200180613af9602d913960400191505060405180910390fd5b600960008154809291906001019190505550600183141561274957600560008154809291906001019190505550600c60008154809291906001019190505550600c54600660006005548152602001908152602001600020600001819055506040518060400160405280600881526020017f7374752d6e616d6500000000000000000000000000000000000000000000000081525060066000600554815260200190815260200160002060010190805190602001906126b0929190613891565b508360066000600554815260200190815260200160002060020160006101000a81548173ffffffffffffffffffffffffffffffffffffffff021916908373ffffffffffffffffffffffffffffffffffffffff1602179055506001600660006005548152602001908152602001600020600301819055506000600660006005548152602001908152602001600020600501819055506129be565b600283141561288f57600360008154809291906001019190505550600b60008154809291906001019190505550600b54600460006003548152602001908152602001600020600001819055506040518060400160405280600881526020017f70726f2d6e616d6500000000000000000000000000000000000000000000000081525060046000600354815260200190815260200160002060010190805190602001906127f6929190613891565b508360046000600354815260200190815260200160002060020160006101000a81548173ffffffffffffffffffffffffffffffffffffffff021916908373ffffffffffffffffffffffffffffffffffffffff1602179055506002600460006003548152602001908152602001600020600301819055506000600460006003548152602001908152602001600020600501819055506129bd565b60038314156129bc57600160008154809291906001019190505550600a600081548092919060010191905055506040518060800160405280600a5481526020016040518060400160405280600881526020017f61646d2d6e616d6500000000000000000000000000000000000000000000000081525081526020018573ffffffffffffffffffffffffffffffffffffffff1681526020016003815250600260006001548152602001908152602001600020600082015181600001556020820151816001019080519060200190612966929190613911565b5060408201518160020160006101000a81548173ffffffffffffffffffffffffffffffffffffffff021916908373ffffffffffffffffffffffffffffffffffffffff160217905550606082015181600301559050505b5b5b600191505092915050565b600080600190505b6001548111612a70578273ffffffffffffffffffffffffffffffffffffffff166002600083815260200190815260200160002060020160009054906101000a900473ffffffffffffffffffffffffffffffffffffffff1673ffffffffffffffffffffffffffffffffffffffff161415612a63576002600082815260200190815260200160002060000154915050612bc4565b80806001019150506129d1565b506000600190505b6003548111612b17578273ffffffffffffffffffffffffffffffffffffffff166004600083815260200190815260200160002060020160009054906101000a900473ffffffffffffffffffffffffffffffffffffffff1673ffffffffffffffffffffffffffffffffffffffff161415612b0a576004600082815260200190815260200160002060000154915050612bc4565b8080600101915050612a78565b506000600190505b6005548111612bbe578273ffffffffffffffffffffffffffffffffffffffff166006600083815260200190815260200160002060020160009054906101000a900473ffffffffffffffffffffffffffffffffffffffff1673ffffffffffffffffffffffffffffffffffffffff161415612bb1576006600082815260200190815260200160002060000154915050612bc4565b8080600101915050612b1f565b50600090505b919050565b6000806000905060008090505b6001548111612c5b576002600082815260200190815260200160002060020160009054906101000a900473ffffffffffffffffffffffffffffffffffffffff1673ffffffffffffffffffffffffffffffffffffffff163373ffffffffffffffffffffffffffffffffffffffff161415612c4e57600191505b8080600101915050612bd6565b5080612ccf576040517f08c379a00000000000000000000000000000000000000000000000000000000081526004018080602001828103825260158152602001807f3e3e3e3e3e3e697341646d696e203d2066616c7365000000000000000000000081525060200191505060405180910390fd5b60011515612cdc846136d0565b151514612d51576040517f08c379a00000000000000000000000000000000000000000000000000000000081526004018080602001828103825260188152602001807f3e3e3e546869732061646472657373206e6f206578697374000000000000000081525060200191505060405180910390fd5b6000612d5c84611b64565b90506000811415612db8576040517f08c379a0000000000000000000000000000000000000000000000000000000008152600401808060200182810382526032815260200180613b946032913960400191505060405180910390fd5b600181141561306e576000612dcc85611432565b90506000600660008381526020019081526020016000206005015414612e3d576040517f08c379a0000000000000000000000000000000000000000000000000000000008152600401808060200182810382526036815260200180613b5e6036913960400191505060405180910390fd5b60008190505b600554811015612fdd576006600060018301815260200190815260200160002060000154600660008381526020019081526020016000206000018190555060066000600183018152602001908152602001600020600101600660008381526020019081526020016000206001019080546001816001161561010002031660029004612ecf929190613991565b506006600060018301815260200190815260200160002060020160009054906101000a900473ffffffffffffffffffffffffffffffffffffffff166006600083815260200190815260200160002060020160006101000a81548173ffffffffffffffffffffffffffffffffffffffff021916908373ffffffffffffffffffffffffffffffffffffffff160217905550600660006001830181526020019081526020016000206003015460066000838152602001908152602001600020600301819055506006600060018301815260200190815260200160002060040160066000838152602001908152602001600020600401908054612fcf929190613a18565b508080600101915050612e43565b5060066000600554815260200190815260200160002060008082016000905560018201600061300c9190613a6a565b6002820160006101000a81549073ffffffffffffffffffffffffffffffffffffffff0219169055600382016000905560048201600061304b9190613ab2565b600582016000905550506005600081548092919060019003919050555050613513565b6002811415613324576000613082856122f9565b905060006004600083815260200190815260200160002060050154146130f3576040517f08c379a0000000000000000000000000000000000000000000000000000000008152600401808060200182810382526038815260200180613b266038913960400191505060405180910390fd5b60008190505b600354811015613293576004600060018301815260200190815260200160002060000154600460008381526020019081526020016000206000018190555060046000600183018152602001908152602001600020600101600460008381526020019081526020016000206001019080546001816001161561010002031660029004613185929190613991565b506004600060018301815260200190815260200160002060020160009054906101000a900473ffffffffffffffffffffffffffffffffffffffff166004600083815260200190815260200160002060020160006101000a81548173ffffffffffffffffffffffffffffffffffffffff021916908373ffffffffffffffffffffffffffffffffffffffff160217905550600460006001830181526020019081526020016000206003015460046000838152602001908152602001600020600301819055506004600060018301815260200190815260200160002060040160046000838152602001908152602001600020600401908054613285929190613a18565b5080806001019150506130f9565b506004600060035481526020019081526020016000206000808201600090556001820160006132c29190613a6a565b6002820160006101000a81549073ffffffffffffffffffffffffffffffffffffffff021916905560038201600090556004820160006133019190613ab2565b600582016000905550506003600081548092919060019003919050555050613512565b6003811415613511576000613338856112ae565b905060008190505b60015481101561349c5760026000600183018152602001908152602001600020600001546002600083815260200190815260200160002060000181905550600260006001830181526020019081526020016000206001016002600083815260200190815260200160002060010190805460018160011615610100020316600290046133cc929190613991565b506002600060018301815260200190815260200160002060020160009054906101000a900473ffffffffffffffffffffffffffffffffffffffff166002600083815260200190815260200160002060020160006101000a81548173ffffffffffffffffffffffffffffffffffffffff021916908373ffffffffffffffffffffffffffffffffffffffff160217905550600260006001830181526020019081526020016000206003015460026000838152602001908152602001600020600301819055508080600101915050613340565b506002600060015481526020019081526020016000206000808201600090556001820160006134cb9190613a6a565b6002820160006101000a81549073ffffffffffffffffffffffffffffffffffffffff02191690556003820160009055505060016000815480929190600190039190505550505b5b5b60096000815480929190600190039190505550600192505050919050565b6060806007546040519080825280602002602001820160405280156135655781602001602082028038833980820191505090505b5090506000600190505b60075481116135b757600860008281526020019081526020016000206000015482600183038151811061359e57fe5b602002602001018181525050808060010191505061356f565b508091505090565b60055481565b60015481565b6000806135d783612395565b90506000600190505b600860008381526020019081526020016000206003015481116136c357600060086000848152602001908152602001600020600401600083815260200190815260200160002060000160009054906101000a900473ffffffffffffffffffffffffffffffffffffffff1690508573ffffffffffffffffffffffffffffffffffffffff168173ffffffffffffffffffffffffffffffffffffffff1614156136b5576008600084815260200190815260200160002060040160008381526020019081526020016000206001015493505050506136ca565b5080806001019150506135e0565b5060009150505b92915050565b600080600190505b6001548111613762578273ffffffffffffffffffffffffffffffffffffffff166002600083815260200190815260200160002060020160009054906101000a900473ffffffffffffffffffffffffffffffffffffffff1673ffffffffffffffffffffffffffffffffffffffff16141561375557600191505061388c565b80806001019150506136d8565b506000600190505b60035481116137f4578273ffffffffffffffffffffffffffffffffffffffff166004600083815260200190815260200160002060020160009054906101000a900473ffffffffffffffffffffffffffffffffffffffff1673ffffffffffffffffffffffffffffffffffffffff1614156137e757600191505061388c565b808060010191505061376a565b506000600190505b6005548111613886578273ffffffffffffffffffffffffffffffffffffffff166006600083815260200190815260200160002060020160009054906101000a900473ffffffffffffffffffffffffffffffffffffffff1673ffffffffffffffffffffffffffffffffffffffff16141561387957600191505061388c565b80806001019150506137fc565b50600090505b919050565b828054600181600116156101000203166002900490600052602060002090601f016020900481019282601f106138d257805160ff1916838001178555613900565b82800160010185558215613900579182015b828111156138ff5782518255916020019190600101906138e4565b5b50905061390d9190613ad3565b5090565b828054600181600116156101000203166002900490600052602060002090601f016020900481019282601f1061395257805160ff1916838001178555613980565b82800160010185558215613980579182015b8281111561397f578251825591602001919060010190613964565b5b50905061398d9190613ad3565b5090565b828054600181600116156101000203166002900490600052602060002090601f016020900481019282601f106139ca5780548555613a07565b82800160010185558215613a0757600052602060002091601f016020900482015b82811115613a065782548255916001019190600101906139eb565b5b509050613a149190613ad3565b5090565b828054828255906000526020600020908101928215613a595760005260206000209182015b82811115613a58578254825591600101919060010190613a3d565b5b509050613a669190613ad3565b5090565b50805460018160011615610100020316600290046000825580601f10613a905750613aaf565b601f016020900490600052602060002090810190613aae9190613ad3565b5b50565b5080546000825590600052602060002090810190613ad09190613ad3565b50565b613af591905b80821115613af1576000816000905550600101613ad9565b5090565b9056fe5468697320616464726573732068617320616c7265616479206265656e20736574207065726d697373696f6e733e3e3e546869732070726f666573736f72206973207465616368696e672c2063616e742072656d6f7665207065726d697373696f6e2121213e3e3e546869732073747564656e74206973206c6561726e696e672c2063616e742072656d6f7665207065726d697373696f6e2121213e3e3e5468697320626c6f636b4164647265737320776173206f726967696e616c6c79206e6f7420617574686f72697a6564a265627a7a72315820744a92f830bc7527acd8f289cfd31141689f3333a0a2001cc18fa5468051fa4564736f6c63430005100032",
  "source": "// SPDX-License-Identifier: MIT\r\npragma solidity >=0.4.22 <0.9.0;\r\n\r\n/*\r\n// admin   StructAndModifiers\r\n\r\n1. setPermission()   ==>  0=student; 1=professor; 2=admin\r\n    1 , modifierstudent ,student\r\n    2 , modifierprofessor ,professor\r\n    3 , modifieradmin ,admin\r\n\r\n    If it is set to 1, call the function in the modifier class to add it to the student array and to the student contract at the same time\r\n    If it is set to 2, call the function in the modifier class to add it to the professor array and to the professor contract at the same time\r\n    If it is set to 3, call the function in the modifier class to add it to the admin array and add it to the admin contract at the same time\r\n\r\n2. removePermission() \r\n    professor, student\r\n    Professors need to be allowed to be deprived of permission without teaching tasks and students need to take classes\r\n\r\n\r\n//  : 3. getGradeByAdminId()  You can view the student scores of any course\r\n\r\n\r\n*/\r\n\r\nimport \"./StructAndModifiers.sol\";\r\n\r\ncontract Admin is StructAndModifiers{\r\n\r\n    // onwer +1 1 root   Initialized to 1 because root is automatically added\r\n    uint public personCounts = 1;   //  Record the current number of people\r\n    // id  id  id value, initialize the id value, automatically accumulate\r\n    uint setadmId = 1; // root = 1\r\n    uint setproId = 100;    // proId100\r\n    uint setstuId = 1000;    \r\n    \r\n     ////////////////////////////////////////////////////////////////////////////////////////////////////////////// \r\n    //  Set permission function\r\n    function setPermission(address _blockAddress,uint _authorization) public onlyAdmin returns(bool){\r\n        \r\n        //   Check whether the set permission value is legal\r\n        require(_authorization == 1 || _authorization == 2 || _authorization == 3, \"unauthorized\");\r\n        \r\n        // address  shuo ming yi jing she zhi guo le\r\n        // true ==> \r\n        require(checkAddressExisted(_blockAddress) == false,\"This address has already been set permissions\");\r\n        \r\n        // Record person[]\r\n        //  Self increasing\r\n        personCounts++;\r\n\r\n        if(_authorization == 1){ // \r\n            //   Add him directly to the students\r\n            studentCounts++;\r\n            setstuId++;\r\n            //  \r\n            // Since the course array cannot be assigned at this time, it is assigned one by one\r\n            studentSelfs[studentCounts].stuId = setstuId;\r\n            studentSelfs[studentCounts].stuName = \"stu-name\";\r\n            studentSelfs[studentCounts].stuBlockAddress = _blockAddress;\r\n            studentSelfs[studentCounts].stuAuthorization = 1;\r\n            studentSelfs[studentCounts].isLearningSum = 0; //  Initialize to no class in progress\r\n            \r\n        }\r\n        else if(_authorization == 2){ // professor\r\n            professorCounts++;\r\n            setproId++;\r\n            // \r\n            // Since the course array cannot be assigned at this time, it is assigned one by one\r\n            professorSelfs[professorCounts].proId = setproId;\r\n            professorSelfs[professorCounts].proName = \"pro-name\";\r\n            professorSelfs[professorCounts].proBlockAddress = _blockAddress;\r\n            professorSelfs[professorCounts].proAuthorization = 2;\r\n            professorSelfs[professorCounts].isTeachingPeopleSum = 0; //  Initialize to no teaching in progress\r\n\r\n        }\r\n        else if(_authorization == 3){ // Admin\r\n            adminCounts++;\r\n            setadmId++;\r\n            adminSelfs[adminCounts] = AdminSelf(setadmId,\"adm-name\",_blockAddress,3);\r\n\r\n        }\r\n        //   Setup succeeded\r\n        return true;\r\n       \r\n        \r\n    }\r\n    \r\n    ////////////////////////////////////////////////////////////////////////////////////////////////////////////// \r\n    // , 100 , person  ;  Remove the permission relative to, and set it to 100, that is, person\r\n    function removePermission(address _blockAddress) public onlyAdmin returns(bool){\r\n\r\n        // ID                                     First find out if this ID exists\r\n        require(checkAddressExisted(_blockAddress) == true,\">>>This address no exist\");\r\n        \r\n        // ID                             Then check the permission before this ID\r\n        uint _authorization  = getAuthorizationByAddress(_blockAddress); // index       Call function to get index\r\n        require(_authorization != 0,\">>>This blockAddress was originally not authorized\");\r\n        \r\n        \r\n        //   ;   Remove him from the corresponding permission database according to his permissions\r\n        if(_authorization == 1){ // \r\n            uint studentIndex = getStudentIndexByAddress(_blockAddress);\r\n            // ID  Check if this ID is learning\r\n            require(studentSelfs[studentIndex].isLearningSum == 0,\">>>This student is learning, cant remove permission!!!\"); \r\n            \r\n            //   Direct deletion will leave an empty space\r\n            //   So the latter element overwrites the previous element\r\n            for(uint i=studentIndex;i<studentCounts;i++){\r\n                studentSelfs[i].stuId = studentSelfs[i+1].stuId;\r\n                studentSelfs[i].stuName = studentSelfs[i+1].stuName;\r\n                studentSelfs[i].stuBlockAddress = studentSelfs[i+1].stuBlockAddress;\r\n                studentSelfs[i].stuAuthorization = studentSelfs[i+1].stuAuthorization;\r\n                studentSelfs[i].myStuCourses = studentSelfs[i+1].myStuCourses;\r\n            }\r\n            \r\n            //   Then remove the last element\r\n            delete studentSelfs[studentCounts];\r\n            studentCounts--; \r\n        }\r\n        else if(_authorization == 2){  // professor\r\n            uint professorIndex = getProfessorIndexByAddress(_blockAddress);\r\n            // ID  Check if this ID is in class\r\n            require(professorSelfs[professorIndex].isTeachingPeopleSum == 0,\">>>This professor is teaching, cant remove permission!!!\"); \r\n            \r\n            //   Direct deletion will leave an empty space\r\n            //  So the latter element overrides the previous element\r\n            for(uint i=professorIndex;i<professorCounts;i++){\r\n                professorSelfs[i].proId = professorSelfs[i+1].proId;\r\n                professorSelfs[i].proName = professorSelfs[i+1].proName;\r\n                professorSelfs[i].proBlockAddress = professorSelfs[i+1].proBlockAddress;\r\n                professorSelfs[i].proAuthorization = professorSelfs[i+1].proAuthorization;\r\n                professorSelfs[i].myProCourses = professorSelfs[i+1].myProCourses;\r\n            }\r\n            \r\n            //  Then remove the last element\r\n            delete professorSelfs[professorCounts];\r\n            professorCounts--; \r\n \r\n        }\r\n        else if(_authorization == 3){ // Admin\r\n            uint adminIndex = getAdminIndexByAddress(_blockAddress);\r\n            //   Direct deletion will leave an empty space\r\n            //   So the latter element overrides the previous element\r\n            for(uint i=adminIndex;i<adminCounts;i++){\r\n                adminSelfs[i].adminId = adminSelfs[i+1].adminId;\r\n                adminSelfs[i].adminName = adminSelfs[i+1].adminName;\r\n                adminSelfs[i].adminBlockAddress = adminSelfs[i+1].adminBlockAddress;\r\n                adminSelfs[i].adminAuthorization = adminSelfs[i+1].adminAuthorization;\r\n            }\r\n            \r\n            //   Then remove the last element\r\n            delete adminSelfs[adminCounts];\r\n            adminCounts--; \r\n\r\n        }\r\n        // person\r\n        personCounts--; \r\n\r\n        return true;\r\n        \r\n    }\r\n    \r\n/*    \r\n    //////////////////////////////////////////////////////////////////////////////////////////////////////////////\r\n    //   View results\r\n    // admin,  \r\n    // If it is admin, it can view the scores of all students in all courses\r\n\r\n    function getGradeByAdminAddr(uint _courseId,address _adminBlockAddress) public view onlyAdmin returns(address[] memory, uint[] memory){\r\n        \r\n        // pid Check whether the PID matches the address\r\n        require(_adminBlockAddress == msg.sender,\">>>The Id no match the current address!!!\");\r\n        \r\n        //  Check whether the course information exists\r\n        bool isExisted = checkCourseExisted(_courseId); \r\n        require(isExisted == true,\">>>_courseId no existed!!!\");\r\n        \r\n        ///\r\n        //  The results of all students under the course will be listed\r\n        \r\n        //  Find the course first\r\n        uint indexOfCourseID = getIndexByCourseId(_courseId);\r\n        // ,  \r\n        // Find the length of the array of students stored in this course, that is, the number of students taking this course\r\n        uint courseStudentCounts_ = getcourseStudentCounts(_courseId);\r\n        \r\n        address[] memory studentAddress = new address[](courseStudentCounts_);\r\n        uint[] memory studentsGrade  = new uint[](courseStudentCounts_);\r\n        \r\n        // , 0, courseStudentCounts_1\r\n        // There will be a problem here. The newly created array starts from 0 and coursestudentcounts_ It starts with 1\r\n        for(uint j=1;j<=courseStudentCounts_;j++){\r\n            studentAddress[j-1] = courseInfs[indexOfCourseID].courseStudents[j].stuBlockAddress;\r\n            studentsGrade[j-1] = courseInfs[indexOfCourseID].courseStudents[j].stuGrade;\r\n        }\r\n        \r\n        return (studentAddress,studentsGrade) ;  //  complete\r\n     \r\n    }\r\n\r\n*/\r\n\r\n}\r\n",
  "sourcePath": "D:\\UNIV\\year 4\\capstone\\scouter2\\contracts\\Admin.sol",
  "compiler": {
    "name": "solc",
    "version": "0.5.16+commit.9c3226ce.Emscripten.clang"
  },
  "schemaVersion": "3.4.3",
  "updatedAt": "2021-12-03T17:13:40.177Z",
  "devdoc": {
    "methods": {}
  },
  "userdoc": {
    "methods": {
      "getAdminIndexByAddress(address)": {
        "notice": "//////////////////////////////////////////////////////////////////////////////////////////////////////////////"
      },
      "getIndexByCourseId(uint256)": {
        "notice": "//////////////////////////////////////////////////////////////////////////////////////////////////////////////"
      },
      "getMsgSender()": {
        "notice": "///////////////////////////////////////////////////////////   ///////////////////////////////////////////////////////////   ////////////////////////////  4.2. getter function"
      },
      "getProfessorIndexByAddress(address)": {
        "notice": "//////////////////////////////////////////////////////////////////////////////////////////////////////////////"
      },
      "getStudentIndexByAddress(address)": {
        "notice": "//////////////////////////////////////////////////////////////////////////////////////////////////////////////"
      },
      "removePermission(address)": {
        "notice": "/////////////////////////////////////////////////////////////////////////////////////////////////////////// "
      },
      "setPermission(address,uint256)": {
        "notice": "/////////////////////////////////////////////////////////////////////////////////////////////////////////// "
      }
    }
  }
}