{
  "contractName": "Admin",
  "abi": [
    {
      "inputs": [],
      "name": "adminCounts",
      "outputs": [
        {
          "internalType": "uint256",
          "name": "",
          "type": "uint256"
        }
      ],
      "stateMutability": "view",
      "type": "function"
    },
    {
      "inputs": [
        {
          "internalType": "uint256",
          "name": "",
          "type": "uint256"
        }
      ],
      "name": "adminSelfs",
      "outputs": [
        {
          "internalType": "uint256",
          "name": "adminId",
          "type": "uint256"
        },
        {
          "internalType": "string",
          "name": "adminName",
          "type": "string"
        },
        {
          "internalType": "address",
          "name": "adminBlockAddress",
          "type": "address"
        },
        {
          "internalType": "uint256",
          "name": "adminAuthorization",
          "type": "uint256"
        }
      ],
      "stateMutability": "view",
      "type": "function"
    },
    {
      "inputs": [],
      "name": "courseCounts",
      "outputs": [
        {
          "internalType": "uint256",
          "name": "",
          "type": "uint256"
        }
      ],
      "stateMutability": "view",
      "type": "function"
    },
    {
      "inputs": [
        {
          "internalType": "uint256",
          "name": "",
          "type": "uint256"
        }
      ],
      "name": "courseInfs",
      "outputs": [
        {
          "internalType": "uint256",
          "name": "courseId",
          "type": "uint256"
        },
        {
          "internalType": "string",
          "name": "courseName",
          "type": "string"
        },
        {
          "internalType": "string",
          "name": "profName",
          "type": "string"
        },
        {
          "internalType": "address",
          "name": "proBlockAddress",
          "type": "address"
        },
        {
          "internalType": "bool",
          "name": "canApply",
          "type": "bool"
        },
        {
          "internalType": "uint256",
          "name": "gotStudentGradeCounts",
          "type": "uint256"
        },
        {
          "internalType": "uint256",
          "name": "courseStudentCounts",
          "type": "uint256"
        }
      ],
      "stateMutability": "view",
      "type": "function"
    },
    {
      "inputs": [
        {
          "internalType": "address",
          "name": "_adminBlockAddress",
          "type": "address"
        }
      ],
      "name": "getAdminIndexByAddress",
      "outputs": [
        {
          "internalType": "uint256",
          "name": "",
          "type": "uint256"
        }
      ],
      "stateMutability": "view",
      "type": "function"
    },
    {
      "inputs": [],
      "name": "getAllCourseId",
      "outputs": [
        {
          "internalType": "uint256[]",
          "name": "",
          "type": "uint256[]"
        }
      ],
      "stateMutability": "view",
      "type": "function"
    },
    {
      "inputs": [],
      "name": "getAllStudentAddress",
      "outputs": [
        {
          "internalType": "address[]",
          "name": "",
          "type": "address[]"
        }
      ],
      "stateMutability": "view",
      "type": "function"
    },
    {
      "inputs": [
        {
          "internalType": "address",
          "name": "_address",
          "type": "address"
        }
      ],
      "name": "getAuthorizationByAddress",
      "outputs": [
        {
          "internalType": "uint256",
          "name": "",
          "type": "uint256"
        }
      ],
      "stateMutability": "view",
      "type": "function"
    },
    {
      "inputs": [
        {
          "internalType": "address",
          "name": "_proBlockAddress",
          "type": "address"
        }
      ],
      "name": "getCourseIdByProAddress",
      "outputs": [
        {
          "internalType": "uint256[]",
          "name": "",
          "type": "uint256[]"
        }
      ],
      "stateMutability": "view",
      "type": "function"
    },
    {
      "inputs": [
        {
          "internalType": "uint256",
          "name": "_courseid",
          "type": "uint256"
        }
      ],
      "name": "getCourseInfByCourseId",
      "outputs": [
        {
          "internalType": "uint256",
          "name": "",
          "type": "uint256"
        },
        {
          "internalType": "string",
          "name": "",
          "type": "string"
        },
        {
          "internalType": "string",
          "name": "",
          "type": "string"
        },
        {
          "internalType": "address",
          "name": "",
          "type": "address"
        },
        {
          "internalType": "uint256",
          "name": "",
          "type": "uint256"
        }
      ],
      "stateMutability": "view",
      "type": "function"
    },
    {
      "inputs": [
        {
          "internalType": "uint256",
          "name": "_courseId",
          "type": "uint256"
        }
      ],
      "name": "getCourseNameStatusById",
      "outputs": [
        {
          "internalType": "string",
          "name": "",
          "type": "string"
        },
        {
          "internalType": "bool",
          "name": "",
          "type": "bool"
        }
      ],
      "stateMutability": "view",
      "type": "function"
    },
    {
      "inputs": [
        {
          "internalType": "uint256",
          "name": "_courseid",
          "type": "uint256"
        }
      ],
      "name": "getCourseStudentInfByCourseId",
      "outputs": [
        {
          "internalType": "uint256[]",
          "name": "",
          "type": "uint256[]"
        },
        {
          "internalType": "address[]",
          "name": "",
          "type": "address[]"
        },
        {
          "internalType": "uint256[]",
          "name": "",
          "type": "uint256[]"
        }
      ],
      "stateMutability": "view",
      "type": "function"
    },
    {
      "inputs": [
        {
          "internalType": "address",
          "name": "_address",
          "type": "address"
        }
      ],
      "name": "getIdByAddress",
      "outputs": [
        {
          "internalType": "uint256",
          "name": "",
          "type": "uint256"
        }
      ],
      "stateMutability": "view",
      "type": "function"
    },
    {
      "inputs": [
        {
          "internalType": "uint256",
          "name": "_courseId",
          "type": "uint256"
        }
      ],
      "name": "getIndexByCourseId",
      "outputs": [
        {
          "internalType": "uint256",
          "name": "",
          "type": "uint256"
        }
      ],
      "stateMutability": "view",
      "type": "function"
    },
    {
      "inputs": [
        {
          "internalType": "uint256",
          "name": "_stuId",
          "type": "uint256"
        }
      ],
      "name": "getStuAddressByStuId",
      "outputs": [
        {
          "internalType": "address",
          "name": "",
          "type": "address"
        }
      ],
      "stateMutability": "view",
      "type": "function"
    },
    {
      "inputs": [
        {
          "internalType": "uint256",
          "name": "_courseId",
          "type": "uint256"
        },
        {
          "internalType": "address",
          "name": "_stuAddress",
          "type": "address"
        }
      ],
      "name": "getStudentGradeByCourseIdAndStuAddr",
      "outputs": [
        {
          "internalType": "uint256",
          "name": "",
          "type": "uint256"
        }
      ],
      "stateMutability": "view",
      "type": "function"
    },
    {
      "inputs": [
        {
          "internalType": "address",
          "name": "_stuBlockAddress",
          "type": "address"
        }
      ],
      "name": "getStudentInfByStuAddress",
      "outputs": [
        {
          "internalType": "uint256",
          "name": "",
          "type": "uint256"
        },
        {
          "internalType": "string",
          "name": "",
          "type": "string"
        },
        {
          "internalType": "address",
          "name": "",
          "type": "address"
        },
        {
          "internalType": "uint256",
          "name": "",
          "type": "uint256"
        },
        {
          "internalType": "uint256[]",
          "name": "",
          "type": "uint256[]"
        },
        {
          "internalType": "uint256[]",
          "name": "",
          "type": "uint256[]"
        }
      ],
      "stateMutability": "view",
      "type": "function"
    },
    {
      "inputs": [
        {
          "internalType": "uint256",
          "name": "_stuId",
          "type": "uint256"
        }
      ],
      "name": "getStudentNameById",
      "outputs": [
        {
          "internalType": "string",
          "name": "",
          "type": "string"
        }
      ],
      "stateMutability": "view",
      "type": "function"
    },
    {
      "inputs": [
        {
          "internalType": "uint256",
          "name": "_courseid",
          "type": "uint256"
        },
        {
          "internalType": "uint256",
          "name": "_getTops",
          "type": "uint256"
        }
      ],
      "name": "getTopStudentsByCourseId",
      "outputs": [
        {
          "internalType": "uint256",
          "name": "",
          "type": "uint256"
        },
        {
          "internalType": "uint256[]",
          "name": "",
          "type": "uint256[]"
        },
        {
          "internalType": "address[]",
          "name": "",
          "type": "address[]"
        },
        {
          "internalType": "uint256[]",
          "name": "",
          "type": "uint256[]"
        }
      ],
      "stateMutability": "view",
      "type": "function"
    },
    {
      "inputs": [
        {
          "internalType": "uint256",
          "name": "_courseid",
          "type": "uint256"
        }
      ],
      "name": "getcourseStudentCounts",
      "outputs": [
        {
          "internalType": "uint256",
          "name": "courseStudentCounts_",
          "type": "uint256"
        }
      ],
      "stateMutability": "view",
      "type": "function"
    },
    {
      "inputs": [],
      "name": "modifiersOwner",
      "outputs": [
        {
          "internalType": "address",
          "name": "",
          "type": "address"
        }
      ],
      "stateMutability": "view",
      "type": "function"
    },
    {
      "inputs": [],
      "name": "personCounts",
      "outputs": [
        {
          "internalType": "uint256",
          "name": "",
          "type": "uint256"
        }
      ],
      "stateMutability": "view",
      "type": "function"
    },
    {
      "inputs": [],
      "name": "professorCounts",
      "outputs": [
        {
          "internalType": "uint256",
          "name": "",
          "type": "uint256"
        }
      ],
      "stateMutability": "view",
      "type": "function"
    },
    {
      "inputs": [
        {
          "internalType": "uint256",
          "name": "",
          "type": "uint256"
        }
      ],
      "name": "professorSelfs",
      "outputs": [
        {
          "internalType": "uint256",
          "name": "proId",
          "type": "uint256"
        },
        {
          "internalType": "string",
          "name": "proName",
          "type": "string"
        },
        {
          "internalType": "address",
          "name": "proBlockAddress",
          "type": "address"
        },
        {
          "internalType": "uint256",
          "name": "proAuthorization",
          "type": "uint256"
        },
        {
          "internalType": "uint256",
          "name": "isTeachingPeopleSum",
          "type": "uint256"
        }
      ],
      "stateMutability": "view",
      "type": "function"
    },
    {
      "inputs": [],
      "name": "studentCounts",
      "outputs": [
        {
          "internalType": "uint256",
          "name": "",
          "type": "uint256"
        }
      ],
      "stateMutability": "view",
      "type": "function"
    },
    {
      "inputs": [
        {
          "internalType": "uint256",
          "name": "",
          "type": "uint256"
        }
      ],
      "name": "studentSelfs",
      "outputs": [
        {
          "internalType": "uint256",
          "name": "stuId",
          "type": "uint256"
        },
        {
          "internalType": "string",
          "name": "stuName",
          "type": "string"
        },
        {
          "internalType": "address",
          "name": "stuBlockAddress",
          "type": "address"
        },
        {
          "internalType": "uint256",
          "name": "stuAuthorization",
          "type": "uint256"
        },
        {
          "internalType": "uint256",
          "name": "isLearningSum",
          "type": "uint256"
        }
      ],
      "stateMutability": "view",
      "type": "function"
    },
    {
      "inputs": [
        {
          "internalType": "address",
          "name": "_blockAddress",
          "type": "address"
        },
        {
          "internalType": "string",
          "name": "_name",
          "type": "string"
        },
        {
          "internalType": "uint256",
          "name": "_authorization",
          "type": "uint256"
        }
      ],
      "name": "setPermission",
      "outputs": [
        {
          "internalType": "bool",
          "name": "",
          "type": "bool"
        }
      ],
      "stateMutability": "nonpayable",
      "type": "function"
    },
    {
      "inputs": [
        {
          "internalType": "address",
          "name": "_blockAddress",
          "type": "address"
        }
      ],
      "name": "removePermission",
      "outputs": [
        {
          "internalType": "bool",
          "name": "",
          "type": "bool"
        }
      ],
      "stateMutability": "nonpayable",
      "type": "function"
    }
  ],
  "bytecode": "0x6080604052600060015560006003556000600555600060075560016009556001600a556064600b556103e8600c553480156200003a57600080fd5b50336000806101000a81548173ffffffffffffffffffffffffffffffffffffffff021916908373ffffffffffffffffffffffffffffffffffffffff1602179055506040518060800160405280600181526020016040518060400160405280600481526020017f526f6f7400000000000000000000000000000000000000000000000000000000815250815260200160008054906101000a900473ffffffffffffffffffffffffffffffffffffffff1673ffffffffffffffffffffffffffffffffffffffff1681526020016003815250600260006001815260200190815260200160002060008201518160000155602082015181600101908051906020019062000145929190620001ba565b5060408201518160020160006101000a81548173ffffffffffffffffffffffffffffffffffffffff021916908373ffffffffffffffffffffffffffffffffffffffff1602179055506060820151816003015590505060016000815480929190620001af90620002aa565b919050555062000356565b828054620001c89062000274565b90600052602060002090601f016020900481019282620001ec576000855562000238565b82601f106200020757805160ff191683800117855562000238565b8280016001018555821562000238579182015b82811115620002375782518255916020019190600101906200021a565b5b5090506200024791906200024b565b5090565b5b80821115620002665760008160009055506001016200024c565b5090565b6000819050919050565b600060028204905060018216806200028d57607f821691505b60208210811415620002a457620002a362000327565b5b50919050565b6000620002b7826200026a565b91507fffffffffffffffffffffffffffffffffffffffffffffffffffffffffffffffff821415620002ed57620002ec620002f8565b5b600182019050919050565b7f4e487b7100000000000000000000000000000000000000000000000000000000600052601160045260246000fd5b7f4e487b7100000000000000000000000000000000000000000000000000000000600052602260045260246000fd5b6144a380620003666000396000f3fe608060405234801561001057600080fd5b50600436106101c35760003560e01c80637860a069116100f9578063ad9e42d911610097578063e074bb4711610071578063e074bb471461060e578063f6aa09e41461063e578063fb3189e81461065c578063fc0c1f391461067a576101c3565b8063ad9e42d91461057e578063ced3ae61146105ae578063dff3b497146105de576101c3565b806394e48ece116100d357806394e48ece146104df578063982203be1461051257806398aede55146105425780639fde094314610560576101c3565b80637860a06914610461578063901419401461047f57806390eab7a2146104af576101c3565b80632b81bd8d116101665780634d64e5ee116101405780634d64e5ee1461039657806358a42065146103ca5780635e719a49146103ff578063606870da1461042f576101c3565b80632b81bd8d1461030157806330e66b431461033157806330e9471114610362576101c3565b80630d9382fc116101a25780630d9382fc146102625780630e3bfd6c1461028057806310d756dd1461029e5780631643c8db146102ce576101c3565b80624255a6146101c8578063043022fa146101fc5780630c1596b414610232575b600080fd5b6101e260048036038101906101dd9190613760565b610698565b6040516101f3959493929190613da1565b60405180910390f35b61021660048036038101906102119190613760565b610776565b6040516102299796959493929190613dfb565b60405180910390f35b61024c600480360381019061024791906136c4565b6108f5565b6040516102599190613aaf565b60405180910390f35b61026a6109eb565b6040516102779190613c6a565b60405180910390f35b6102886109f1565b6040516102959190613c6a565b60405180910390f35b6102b860048036038101906102b391906136c4565b6109f7565b6040516102c59190613c6a565b60405180910390f35b6102e860048036038101906102e39190613760565b610a99565b6040516102f89493929190613cdf565b60405180910390f35b61031b60048036038101906103169190613760565b610b71565b6040516103289190613b38565b60405180910390f35b61034b60048036038101906103469190613760565b610c9a565b604051610359929190613b5a565b60405180910390f35b61037c60048036038101906103779190613760565b610db5565b60405161038d959493929190613e78565b60405180910390f35b6103b060048036038101906103ab9190613760565b610f9f565b6040516103c1959493929190613da1565b60405180910390f35b6103e460048036038101906103df91906136c4565b61107d565b6040516103f696959493929190613d2b565b60405180910390f35b61041960048036038101906104149190613760565b6112a8565b6040516104269190613c6a565b60405180910390f35b61044960048036038101906104449190613760565b611310565b60405161045893929190613ad1565b60405180910390f35b6104696115ab565b6040516104769190613c6a565b60405180910390f35b610499600480360381019061049491906136f1565b6115b1565b6040516104a69190613b1d565b60405180910390f35b6104c960048036038101906104c491906136c4565b611a93565b6040516104d69190613c6a565b60405180910390f35b6104f960048036038101906104f491906137cd565b611ca5565b6040516105099493929190613c85565b60405180910390f35b61052c60048036038101906105279190613760565b6121e4565b6040516105399190613a72565b60405180910390f35b61054a612270565b6040516105579190613a72565b60405180910390f35b610568612294565b6040516105759190613a8d565b60405180910390f35b61059860048036038101906105939190613760565b6123a0565b6040516105a59190613c6a565b60405180910390f35b6105c860048036038101906105c3919061378d565b612401565b6040516105d59190613c6a565b60405180910390f35b6105f860048036038101906105f391906136c4565b612505565b6040516106059190613c6a565b60405180910390f35b610628600480360381019061062391906136c4565b612717565b6040516106359190613b1d565b60405180910390f35b610646613066565b6040516106539190613aaf565b60405180910390f35b610664613124565b6040516106719190613c6a565b60405180910390f35b61068261312a565b60405161068f9190613c6a565b60405180910390f35b60066020528060005260406000206000915090508060000154908060010180546106c1906140fb565b80601f01602080910402602001604051908101604052809291908181526020018280546106ed906140fb565b801561073a5780601f1061070f5761010080835404028352916020019161073a565b820191906000526020600020905b81548152906001019060200180831161071d57829003601f168201915b5050505050908060020160009054906101000a900473ffffffffffffffffffffffffffffffffffffffff16908060030154908060050154905085565b600860205280600052604060002060009150905080600001549080600101805461079f906140fb565b80601f01602080910402602001604051908101604052809291908181526020018280546107cb906140fb565b80156108185780601f106107ed57610100808354040283529160200191610818565b820191906000526020600020905b8154815290600101906020018083116107fb57829003601f168201915b50505050509080600201805461082d906140fb565b80601f0160208091040260200160405190810160405280929190818152602001828054610859906140fb565b80156108a65780601f1061087b576101008083540402835291602001916108a6565b820191906000526020600020905b81548152906001019060200180831161088957829003601f168201915b5050505050908060030160009054906101000a900473ffffffffffffffffffffffffffffffffffffffff16908060030160149054906101000a900460ff16908060040154908060050154905087565b6060600061090283613130565b905060006004600083815260200190815260200160002060040180549050905060008167ffffffffffffffff81111561093e5761093d614234565b5b60405190808252806020026020018201604052801561096c5781602001602082028036833780820191505090505b50905060005b828110156109df576004600085815260200190815260200160002060040181815481106109a2576109a1614205565b5b90600052602060002001548282815181106109c0576109bf614205565b5b60200260200101818152505080806109d79061415e565b915050610972565b50809350505050919050565b60095481565b60075481565b600080600190505b6001548111610a8e578273ffffffffffffffffffffffffffffffffffffffff166002600083815260200190815260200160002060020160009054906101000a900473ffffffffffffffffffffffffffffffffffffffff1673ffffffffffffffffffffffffffffffffffffffff161415610a7b5780915050610a94565b8080610a869061415e565b9150506109ff565b50600090505b919050565b6002602052806000526040600020600091509050806000015490806001018054610ac2906140fb565b80601f0160208091040260200160405190810160405280929190818152602001828054610aee906140fb565b8015610b3b5780601f10610b1057610100808354040283529160200191610b3b565b820191906000526020600020905b815481529060010190602001808311610b1e57829003601f168201915b5050505050908060020160009054906101000a900473ffffffffffffffffffffffffffffffffffffffff16908060030154905084565b60606000600190505b6005548111610c5b578260066000838152602001908152602001600020600001541415610c4857600660008281526020019081526020016000206001018054610bc2906140fb565b80601f0160208091040260200160405190810160405280929190818152602001828054610bee906140fb565b8015610c3b5780601f10610c1057610100808354040283529160200191610c3b565b820191906000526020600020905b815481529060010190602001808311610c1e57829003601f168201915b5050505050915050610c95565b8080610c539061415e565b915050610b7a565b506040518060400160405280600481526020017f6e756c6c0000000000000000000000000000000000000000000000000000000081525090505b919050565b6060600080610ca8846123a0565b9050600080600860008481526020019081526020016000206005015414158015610cfd575060086000838152602001908152602001600020600401546008600084815260200190815260200160002060050154145b15610d0757600190505b6008600083815260200190815260200160002060010181818054610d2a906140fb565b80601f0160208091040260200160405190810160405280929190818152602001828054610d56906140fb565b8015610da35780601f10610d7857610100808354040283529160200191610da3565b820191906000526020600020905b815481529060010190602001808311610d8657829003601f168201915b50505050509150935093505050915091565b60006060806000806000610dc8876123a0565b90506000600860008381526020019081526020016000206000015490506000600860008481526020019081526020016000206001018054610e08906140fb565b80601f0160208091040260200160405190810160405280929190818152602001828054610e34906140fb565b8015610e815780601f10610e5657610100808354040283529160200191610e81565b820191906000526020600020905b815481529060010190602001808311610e6457829003601f168201915b505050505090506000600860008581526020019081526020016000206002018054610eab906140fb565b80601f0160208091040260200160405190810160405280929190818152602001828054610ed7906140fb565b8015610f245780601f10610ef957610100808354040283529160200191610f24565b820191906000526020600020905b815481529060010190602001808311610f0757829003601f168201915b5050505050905060006008600086815260200190815260200160002060030160009054906101000a900473ffffffffffffffffffffffffffffffffffffffff16905060006008600087815260200190815260200160002060050154905084848484849a509a509a509a509a5050505050505091939590929450565b6004602052806000526040600020600091509050806000015490806001018054610fc8906140fb565b80601f0160208091040260200160405190810160405280929190818152602001828054610ff4906140fb565b80156110415780601f1061101657610100808354040283529160200191611041565b820191906000526020600020905b81548152906001019060200180831161102457829003601f168201915b5050505050908060020160009054906101000a900473ffffffffffffffffffffffffffffffffffffffff16908060030154908060050154905085565b600060606000806060806000611092886131d2565b905060006006600083815260200190815260200160002060000154905060006006600084815260200190815260200160002060010180546110d2906140fb565b80601f01602080910402602001604051908101604052809291908181526020018280546110fe906140fb565b801561114b5780601f106111205761010080835404028352916020019161114b565b820191906000526020600020905b81548152906001019060200180831161112e57829003601f168201915b505050505090506000600660008581526020019081526020016000206003015490506000600660008681526020019081526020016000206004018054806020026020016040519081016040528092919081815260200182805480156111cf57602002820191906000526020600020905b8154815260200190600101908083116111bb575b505050505090506000815167ffffffffffffffff8111156111f3576111f2614234565b5b6040519080825280602002602001820160405280156112215781602001602082028036833780820191505090505b50905060005b82518110156112865761125483828151811061124657611245614205565b5b60200260200101518f612401565b82828151811061126757611266614205565b5b602002602001018181525050808061127e9061415e565b915050611227565b5084848e8585859b509b509b509b509b509b5050505050505091939550919395565b600080600190505b60075481116113095782600860008381526020019081526020016000206000015414156112f657600860008281526020019081526020016000206005015491505061130b565b80806113019061415e565b9150506112b0565b505b919050565b60608060606000611320856123a0565b905060006008600083815260200190815260200160002060050154905060008167ffffffffffffffff81111561135957611358614234565b5b6040519080825280602002602001820160405280156113875781602001602082028036833780820191505090505b50905060008267ffffffffffffffff8111156113a6576113a5614234565b5b6040519080825280602002602001820160405280156113d45781602001602082028036833780820191505090505b50905060008367ffffffffffffffff8111156113f3576113f2614234565b5b6040519080825280602002602001820160405280156114215781602001602082028036833780820191505090505b5090506000600190505b8481116115955760086000878152602001908152602001600020600601600082815260200190815260200160002060000160009054906101000a900473ffffffffffffffffffffffffffffffffffffffff168460018361148b9190614013565b8151811061149c5761149b614205565b5b602002602001019073ffffffffffffffffffffffffffffffffffffffff16908173ffffffffffffffffffffffffffffffffffffffff1681525050600860008781526020019081526020016000206006016000828152602001908152602001600020600101548360018361150f9190614013565b815181106115205761151f614205565b5b60200260200101818152505060086000878152602001908152602001600020600601600082815260200190815260200160002060020154826001836115659190614013565b8151811061157657611575614205565b5b602002602001018181525050808061158d9061415e565b91505061142b565b5081838297509750975050505050509193909250565b60035481565b6000806000905060005b6001548111611646576002600082815260200190815260200160002060020160009054906101000a900473ffffffffffffffffffffffffffffffffffffffff1673ffffffffffffffffffffffffffffffffffffffff163373ffffffffffffffffffffffffffffffffffffffff16141561163357600191505b808061163e9061415e565b9150506115bb565b5080611687576040517f08c379a000000000000000000000000000000000000000000000000000000000815260040161167e90613bca565b60405180910390fd5b60018314806116965750600283145b806116a15750600383145b6116e0576040517f08c379a00000000000000000000000000000000000000000000000000000000081526004016116d790613c0a565b60405180910390fd5b600015156116ed86613274565b15151461172f576040517f08c379a000000000000000000000000000000000000000000000000000000000815260040161172690613b8a565b60405180910390fd5b600960008154809291906117429061415e565b9190505550600183141561186457600560008154809291906117639061415e565b9190505550600c600081548092919061177b9061415e565b9190505550600c54600660006005548152602001908152602001600020600001819055508360066000600554815260200190815260200160002060010190805190602001906117cb929190613447565b508460066000600554815260200190815260200160002060020160006101000a81548173ffffffffffffffffffffffffffffffffffffffff021916908373ffffffffffffffffffffffffffffffffffffffff160217905550600160066000600554815260200190815260200160002060030181905550600060066000600554815260200190815260200160002060050181905550611a87565b600283141561198157600360008154809291906118809061415e565b9190505550600b60008154809291906118989061415e565b9190505550600b54600460006003548152602001908152602001600020600001819055508360046000600354815260200190815260200160002060010190805190602001906118e8929190613447565b508460046000600354815260200190815260200160002060020160006101000a81548173ffffffffffffffffffffffffffffffffffffffff021916908373ffffffffffffffffffffffffffffffffffffffff160217905550600260046000600354815260200190815260200160002060030181905550600060046000600354815260200190815260200160002060050181905550611a86565b6003831415611a85576001600081548092919061199d9061415e565b9190505550600a60008154809291906119b59061415e565b91905055506040518060800160405280600a5481526020018581526020018673ffffffffffffffffffffffffffffffffffffffff1681526020016003815250600260006001548152602001908152602001600020600082015181600001556020820151816001019080519060200190611a2f929190613447565b5060408201518160020160006101000a81548173ffffffffffffffffffffffffffffffffffffffff021916908373ffffffffffffffffffffffffffffffffffffffff160217905550606082015181600301559050505b5b5b60019150509392505050565b600080600190505b6001548111611b40578273ffffffffffffffffffffffffffffffffffffffff166002600083815260200190815260200160002060020160009054906101000a900473ffffffffffffffffffffffffffffffffffffffff1673ffffffffffffffffffffffffffffffffffffffff161415611b2d576002600082815260200190815260200160002060030154915050611ca0565b8080611b389061415e565b915050611a9b565b506000600190505b6003548111611bed578273ffffffffffffffffffffffffffffffffffffffff166004600083815260200190815260200160002060020160009054906101000a900473ffffffffffffffffffffffffffffffffffffffff1673ffffffffffffffffffffffffffffffffffffffff161415611bda576004600082815260200190815260200160002060030154915050611ca0565b8080611be59061415e565b915050611b48565b506000600190505b6005548111611c9a578273ffffffffffffffffffffffffffffffffffffffff166006600083815260200190815260200160002060020160009054906101000a900473ffffffffffffffffffffffffffffffffffffffff1673ffffffffffffffffffffffffffffffffffffffff161415611c87576006600082815260200190815260200160002060030154915050611ca0565b8080611c929061415e565b915050611bf5565b50600090505b919050565b600060608060606000859050600080611cbd896123a0565b905060006008600083815260200190815260200160002060050154905083811015611ce6578093505b60008167ffffffffffffffff811115611d0257611d01614234565b5b604051908082528060200260200182016040528015611d305781602001602082028036833780820191505090505b5090506000600190505b828111611dec576000600860008681526020019081526020016000206006016000838152602001908152602001600020600201541115611dd9576008600085815260200190815260200160002060060160008281526020019081526020016000206002015482600183611dad9190614013565b81518110611dbe57611dbd614205565b5b6020026020010181815250508480611dd59061415e565b9550505b8080611de49061415e565b915050611d3a565b5084841015611df9578394505b60005b8151811015611f17576000600190505b8251811015611f035782600182611e239190614013565b81518110611e3457611e33614205565b5b6020026020010151838281518110611e4f57611e4e614205565b5b60200260200101511115611ef057600083600183611e6d9190614013565b81518110611e7e57611e7d614205565b5b60200260200101519050838281518110611e9b57611e9a614205565b5b602002602001015184600184611eb19190614013565b81518110611ec257611ec1614205565b5b60200260200101818152505080848381518110611ee257611ee1614205565b5b602002602001018181525050505b8080611efb9061415e565b915050611e0c565b508080611f0f9061415e565b915050611dfc565b5060008567ffffffffffffffff811115611f3457611f33614234565b5b604051908082528060200260200182016040528015611f625781602001602082028036833780820191505090505b50905060008667ffffffffffffffff811115611f8157611f80614234565b5b604051908082528060200260200182016040528015611faf5781602001602082028036833780820191505090505b50905060008767ffffffffffffffff811115611fce57611fcd614234565b5b604051908082528060200260200182016040528015611ffc5781602001602082028036833780820191505090505b5090506000805b85518110156121c55789821415612019576121c5565b85818151811061202c5761202b614205565b5b602002602001015183828151811061204757612046614205565b5b6020026020010181815250506000600190505b8781116121a357600860008a815260200190815260200160002060060160008281526020019081526020016000206002015484838151811061209f5761209e614205565b5b6020026020010151141561219057600860008a81526020019081526020016000206006016000828152602001908152602001600020600101548583815181106120eb576120ea614205565b5b602002602001018181525050600860008a8152602001908152602001600020600601600082815260200190815260200160002060000160009054906101000a900473ffffffffffffffffffffffffffffffffffffffff1686838151811061215557612154614205565b5b602002602001019073ffffffffffffffffffffffffffffffffffffffff16908173ffffffffffffffffffffffffffffffffffffffff16815250505b808061219b9061415e565b91505061205a565b5081806121af9061415e565b92505080806121bd9061415e565b915050612003565b50888385849c509c509c509c5050505050505050505092959194509250565b600080600190505b6005548111612265578260066000838152602001908152602001600020600001541415612252576006600082815260200190815260200160002060020160009054906101000a900473ffffffffffffffffffffffffffffffffffffffff1691505061226b565b808061225d9061415e565b9150506121ec565b50600090505b919050565b60008054906101000a900473ffffffffffffffffffffffffffffffffffffffff1681565b6060600060055467ffffffffffffffff8111156122b4576122b3614234565b5b6040519080825280602002602001820160405280156122e25781602001602082028036833780820191505090505b5090506000600190505b6005548111612398576006600082815260200190815260200160002060020160009054906101000a900473ffffffffffffffffffffffffffffffffffffffff168260018361233a9190614013565b8151811061234b5761234a614205565b5b602002602001019073ffffffffffffffffffffffffffffffffffffffff16908173ffffffffffffffffffffffffffffffffffffffff168152505080806123909061415e565b9150506122ec565b508091505090565b600080600090506000600190505b60075481116123f55783600860008381526020019081526020016000206000015414156123e25780915081925050506123fc565b80806123ed9061415e565b9150506123ae565b5060009150505b919050565b60008061240d846123a0565b90506000600190505b600860008381526020019081526020016000206005015481116124f8578373ffffffffffffffffffffffffffffffffffffffff1660086000848152602001908152602001600020600601600083815260200190815260200160002060000160009054906101000a900473ffffffffffffffffffffffffffffffffffffffff1673ffffffffffffffffffffffffffffffffffffffff1614156124e55760086000838152602001908152602001600020600601600082815260200190815260200160002060020154925050506124ff565b80806124f09061415e565b915050612416565b5060009150505b92915050565b600080600190505b60015481116125b2578273ffffffffffffffffffffffffffffffffffffffff166002600083815260200190815260200160002060020160009054906101000a900473ffffffffffffffffffffffffffffffffffffffff1673ffffffffffffffffffffffffffffffffffffffff16141561259f576002600082815260200190815260200160002060000154915050612712565b80806125aa9061415e565b91505061250d565b506000600190505b600354811161265f578273ffffffffffffffffffffffffffffffffffffffff166004600083815260200190815260200160002060020160009054906101000a900473ffffffffffffffffffffffffffffffffffffffff1673ffffffffffffffffffffffffffffffffffffffff16141561264c576004600082815260200190815260200160002060000154915050612712565b80806126579061415e565b9150506125ba565b506000600190505b600554811161270c578273ffffffffffffffffffffffffffffffffffffffff166006600083815260200190815260200160002060020160009054906101000a900473ffffffffffffffffffffffffffffffffffffffff1673ffffffffffffffffffffffffffffffffffffffff1614156126f9576006600082815260200190815260200160002060000154915050612712565b80806127049061415e565b915050612667565b50600090505b919050565b6000806000905060005b60015481116127ac576002600082815260200190815260200160002060020160009054906101000a900473ffffffffffffffffffffffffffffffffffffffff1673ffffffffffffffffffffffffffffffffffffffff163373ffffffffffffffffffffffffffffffffffffffff16141561279957600191505b80806127a49061415e565b915050612721565b50806127ed576040517f08c379a00000000000000000000000000000000000000000000000000000000081526004016127e490613bca565b60405180910390fd5b600115156127fa84613274565b15151461283c576040517f08c379a000000000000000000000000000000000000000000000000000000000815260040161283390613bea565b60405180910390fd5b600061284784611a93565b9050600081141561288d576040517f08c379a000000000000000000000000000000000000000000000000000000000815260040161288490613c4a565b60405180910390fd5b6001811415612b5d5760006128a1856131d2565b905060006006600083815260200190815260200160002060050154146128fc576040517f08c379a00000000000000000000000000000000000000000000000000000000081526004016128f390613c2a565b60405180910390fd5b60008190505b600554811015612ac7576006600060018361291d9190613fbd565b81526020019081526020016000206000015460066000838152602001908152602001600020600001819055506006600060018361295a9190613fbd565b81526020019081526020016000206001016006600083815260200190815260200160002060010190805461298d906140fb565b6129989291906134cd565b50600660006001836129aa9190613fbd565b815260200190815260200160002060020160009054906101000a900473ffffffffffffffffffffffffffffffffffffffff166006600083815260200190815260200160002060020160006101000a81548173ffffffffffffffffffffffffffffffffffffffff021916908373ffffffffffffffffffffffffffffffffffffffff16021790555060066000600183612a419190613fbd565b815260200190815260200160002060030154600660008381526020019081526020016000206003018190555060066000600183612a7e9190613fbd565b815260200190815260200160002060040160066000838152602001908152602001600020600401908054612ab392919061355a565b508080612abf9061415e565b915050612902565b50600660006005548152602001908152602001600020600080820160009055600182016000612af691906135ac565b6002820160006101000a81549073ffffffffffffffffffffffffffffffffffffffff02191690556003820160009055600482016000612b3591906135ec565b6005820160009055505060056000815480929190612b52906140d1565b919050555050613043565b6002811415612e2d576000612b7185613130565b90506000600460008381526020019081526020016000206005015414612bcc576040517f08c379a0000000000000000000000000000000000000000000000000000000008152600401612bc390613baa565b60405180910390fd5b60008190505b600354811015612d975760046000600183612bed9190613fbd565b815260200190815260200160002060000154600460008381526020019081526020016000206000018190555060046000600183612c2a9190613fbd565b815260200190815260200160002060010160046000838152602001908152602001600020600101908054612c5d906140fb565b612c689291906134cd565b5060046000600183612c7a9190613fbd565b815260200190815260200160002060020160009054906101000a900473ffffffffffffffffffffffffffffffffffffffff166004600083815260200190815260200160002060020160006101000a81548173ffffffffffffffffffffffffffffffffffffffff021916908373ffffffffffffffffffffffffffffffffffffffff16021790555060046000600183612d119190613fbd565b815260200190815260200160002060030154600460008381526020019081526020016000206003018190555060046000600183612d4e9190613fbd565b815260200190815260200160002060040160046000838152602001908152602001600020600401908054612d8392919061355a565b508080612d8f9061415e565b915050612bd2565b50600460006003548152602001908152602001600020600080820160009055600182016000612dc691906135ac565b6002820160006101000a81549073ffffffffffffffffffffffffffffffffffffffff02191690556003820160009055600482016000612e0591906135ec565b6005820160009055505060036000815480929190612e22906140d1565b919050555050613042565b6003811415613041576000612e41856109f7565b905060008190505b600154811015612fc75760026000600183612e649190613fbd565b815260200190815260200160002060000154600260008381526020019081526020016000206000018190555060026000600183612ea19190613fbd565b815260200190815260200160002060010160026000838152602001908152602001600020600101908054612ed4906140fb565b612edf9291906134cd565b5060026000600183612ef19190613fbd565b815260200190815260200160002060020160009054906101000a900473ffffffffffffffffffffffffffffffffffffffff166002600083815260200190815260200160002060020160006101000a81548173ffffffffffffffffffffffffffffffffffffffff021916908373ffffffffffffffffffffffffffffffffffffffff16021790555060026000600183612f889190613fbd565b81526020019081526020016000206003015460026000838152602001908152602001600020600301819055508080612fbf9061415e565b915050612e49565b50600260006001548152602001908152602001600020600080820160009055600182016000612ff691906135ac565b6002820160006101000a81549073ffffffffffffffffffffffffffffffffffffffff0219169055600382016000905550506001600081548092919061303a906140d1565b9190505550505b5b5b60096000815480929190613056906140d1565b9190505550600192505050919050565b6060600060075467ffffffffffffffff81111561308657613085614234565b5b6040519080825280602002602001820160405280156130b45781602001602082028036833780820191505090505b5090506000600190505b600754811161311c576008600082815260200190815260200160002060000154826001836130ec9190614013565b815181106130fd576130fc614205565b5b60200260200101818152505080806131149061415e565b9150506130be565b508091505090565b60055481565b60015481565b600080600190505b60035481116131c7578273ffffffffffffffffffffffffffffffffffffffff166004600083815260200190815260200160002060020160009054906101000a900473ffffffffffffffffffffffffffffffffffffffff1673ffffffffffffffffffffffffffffffffffffffff1614156131b457809150506131cd565b80806131bf9061415e565b915050613138565b50600090505b919050565b600080600190505b6005548111613269578273ffffffffffffffffffffffffffffffffffffffff166006600083815260200190815260200160002060020160009054906101000a900473ffffffffffffffffffffffffffffffffffffffff1673ffffffffffffffffffffffffffffffffffffffff161415613256578091505061326f565b80806132619061415e565b9150506131da565b50600090505b919050565b600080600190505b600154811161330c578273ffffffffffffffffffffffffffffffffffffffff166002600083815260200190815260200160002060020160009054906101000a900473ffffffffffffffffffffffffffffffffffffffff1673ffffffffffffffffffffffffffffffffffffffff1614156132f9576001915050613442565b80806133049061415e565b91505061327c565b506000600190505b60035481116133a4578273ffffffffffffffffffffffffffffffffffffffff166004600083815260200190815260200160002060020160009054906101000a900473ffffffffffffffffffffffffffffffffffffffff1673ffffffffffffffffffffffffffffffffffffffff161415613391576001915050613442565b808061339c9061415e565b915050613314565b506000600190505b600554811161343c578273ffffffffffffffffffffffffffffffffffffffff166006600083815260200190815260200160002060020160009054906101000a900473ffffffffffffffffffffffffffffffffffffffff1673ffffffffffffffffffffffffffffffffffffffff161415613429576001915050613442565b80806134349061415e565b9150506133ac565b50600090505b919050565b828054613453906140fb565b90600052602060002090601f01602090048101928261347557600085556134bc565b82601f1061348e57805160ff19168380011785556134bc565b828001600101855582156134bc579182015b828111156134bb5782518255916020019190600101906134a0565b5b5090506134c9919061360d565b5090565b8280546134d9906140fb565b90600052602060002090601f0160209004810192826134fb5760008555613549565b82601f1061350c5780548555613549565b8280016001018555821561354957600052602060002091601f016020900482015b8281111561354857825482559160010191906001019061352d565b5b509050613556919061360d565b5090565b82805482825590600052602060002090810192821561359b5760005260206000209182015b8281111561359a57825482559160010191906001019061357f565b5b5090506135a8919061360d565b5090565b5080546135b8906140fb565b6000825580601f106135ca57506135e9565b601f0160209004906000526020600020908101906135e8919061360d565b5b50565b508054600082559060005260206000209081019061360a919061360d565b50565b5b8082111561362657600081600090555060010161360e565b5090565b600061363d61363884613efe565b613ed9565b90508281526020810184848401111561365957613658614268565b5b61366484828561408f565b509392505050565b60008135905061367b8161443f565b92915050565b600082601f83011261369657613695614263565b5b81356136a684826020860161362a565b91505092915050565b6000813590506136be81614456565b92915050565b6000602082840312156136da576136d9614272565b5b60006136e88482850161366c565b91505092915050565b60008060006060848603121561370a57613709614272565b5b60006137188682870161366c565b935050602084013567ffffffffffffffff8111156137395761373861426d565b5b61374586828701613681565b9250506040613756868287016136af565b9150509250925092565b60006020828403121561377657613775614272565b5b6000613784848285016136af565b91505092915050565b600080604083850312156137a4576137a3614272565b5b60006137b2858286016136af565b92505060206137c38582860161366c565b9150509250929050565b600080604083850312156137e4576137e3614272565b5b60006137f2858286016136af565b9250506020613803858286016136af565b9150509250929050565b6000613819838361383d565b60208301905092915050565b60006138318383613a54565b60208301905092915050565b61384681614047565b82525050565b61385581614047565b82525050565b600061386682613f4f565b6138708185613f8a565b935061387b83613f2f565b8060005b838110156138ac578151613893888261380d565b975061389e83613f70565b92505060018101905061387f565b5085935050505092915050565b60006138c482613f5a565b6138ce8185613f9b565b93506138d983613f3f565b8060005b8381101561390a5781516138f18882613825565b97506138fc83613f7d565b9250506001810190506138dd565b5085935050505092915050565b61392081614059565b82525050565b600061393182613f65565b61393b8185613fac565b935061394b81856020860161409e565b61395481614277565b840191505092915050565b600061396c602d83613fac565b915061397782614288565b604082019050919050565b600061398f603883613fac565b915061399a826142d7565b604082019050919050565b60006139b2601583613fac565b91506139bd82614326565b602082019050919050565b60006139d5601883613fac565b91506139e08261434f565b602082019050919050565b60006139f8600c83613fac565b9150613a0382614378565b602082019050919050565b6000613a1b603683613fac565b9150613a26826143a1565b604082019050919050565b6000613a3e603283613fac565b9150613a49826143f0565b604082019050919050565b613a5d81614085565b82525050565b613a6c81614085565b82525050565b6000602082019050613a87600083018461384c565b92915050565b60006020820190508181036000830152613aa7818461385b565b905092915050565b60006020820190508181036000830152613ac981846138b9565b905092915050565b60006060820190508181036000830152613aeb81866138b9565b90508181036020830152613aff818561385b565b90508181036040830152613b1381846138b9565b9050949350505050565b6000602082019050613b326000830184613917565b92915050565b60006020820190508181036000830152613b528184613926565b905092915050565b60006040820190508181036000830152613b748185613926565b9050613b836020830184613917565b9392505050565b60006020820190508181036000830152613ba38161395f565b9050919050565b60006020820190508181036000830152613bc381613982565b9050919050565b60006020820190508181036000830152613be3816139a5565b9050919050565b60006020820190508181036000830152613c03816139c8565b9050919050565b60006020820190508181036000830152613c23816139eb565b9050919050565b60006020820190508181036000830152613c4381613a0e565b9050919050565b60006020820190508181036000830152613c6381613a31565b9050919050565b6000602082019050613c7f6000830184613a63565b92915050565b6000608082019050613c9a6000830187613a63565b8181036020830152613cac81866138b9565b90508181036040830152613cc0818561385b565b90508181036060830152613cd481846138b9565b905095945050505050565b6000608082019050613cf46000830187613a63565b8181036020830152613d068186613926565b9050613d15604083018561384c565b613d226060830184613a63565b95945050505050565b600060c082019050613d406000830189613a63565b8181036020830152613d528188613926565b9050613d61604083018761384c565b613d6e6060830186613a63565b8181036080830152613d8081856138b9565b905081810360a0830152613d9481846138b9565b9050979650505050505050565b600060a082019050613db66000830188613a63565b8181036020830152613dc88187613926565b9050613dd7604083018661384c565b613de46060830185613a63565b613df16080830184613a63565b9695505050505050565b600060e082019050613e10600083018a613a63565b8181036020830152613e228189613926565b90508181036040830152613e368188613926565b9050613e45606083018761384c565b613e526080830186613917565b613e5f60a0830185613a63565b613e6c60c0830184613a63565b98975050505050505050565b600060a082019050613e8d6000830188613a63565b8181036020830152613e9f8187613926565b90508181036040830152613eb38186613926565b9050613ec2606083018561384c565b613ecf6080830184613a63565b9695505050505050565b6000613ee3613ef4565b9050613eef828261412d565b919050565b6000604051905090565b600067ffffffffffffffff821115613f1957613f18614234565b5b613f2282614277565b9050602081019050919050565b6000819050602082019050919050565b6000819050602082019050919050565b600081519050919050565b600081519050919050565b600081519050919050565b6000602082019050919050565b6000602082019050919050565b600082825260208201905092915050565b600082825260208201905092915050565b600082825260208201905092915050565b6000613fc882614085565b9150613fd383614085565b9250827fffffffffffffffffffffffffffffffffffffffffffffffffffffffffffffffff03821115614008576140076141a7565b5b828201905092915050565b600061401e82614085565b915061402983614085565b92508282101561403c5761403b6141a7565b5b828203905092915050565b600061405282614065565b9050919050565b60008115159050919050565b600073ffffffffffffffffffffffffffffffffffffffff82169050919050565b6000819050919050565b82818337600083830152505050565b60005b838110156140bc5780820151818401526020810190506140a1565b838111156140cb576000848401525b50505050565b60006140dc82614085565b915060008214156140f0576140ef6141a7565b5b600182039050919050565b6000600282049050600182168061411357607f821691505b60208210811415614127576141266141d6565b5b50919050565b61413682614277565b810181811067ffffffffffffffff8211171561415557614154614234565b5b80604052505050565b600061416982614085565b91507fffffffffffffffffffffffffffffffffffffffffffffffffffffffffffffffff82141561419c5761419b6141a7565b5b600182019050919050565b7f4e487b7100000000000000000000000000000000000000000000000000000000600052601160045260246000fd5b7f4e487b7100000000000000000000000000000000000000000000000000000000600052602260045260246000fd5b7f4e487b7100000000000000000000000000000000000000000000000000000000600052603260045260246000fd5b7f4e487b7100000000000000000000000000000000000000000000000000000000600052604160045260246000fd5b600080fd5b600080fd5b600080fd5b600080fd5b6000601f19601f8301169050919050565b7f5468697320616464726573732068617320616c7265616479206265656e20736560008201527f74207065726d697373696f6e7300000000000000000000000000000000000000602082015250565b7f3e3e3e546869732070726f666573736f72206973207465616368696e672c206360008201527f616e742072656d6f7665207065726d697373696f6e2121210000000000000000602082015250565b7f3e3e3e3e3e3e697341646d696e203d2066616c73650000000000000000000000600082015250565b7f3e3e3e546869732061646472657373206e6f2065786973740000000000000000600082015250565b7f756e617574686f72697a65640000000000000000000000000000000000000000600082015250565b7f3e3e3e546869732073747564656e74206973206c6561726e696e672c2063616e60008201527f742072656d6f7665207065726d697373696f6e21212100000000000000000000602082015250565b7f3e3e3e5468697320626c6f636b4164647265737320776173206f726967696e6160008201527f6c6c79206e6f7420617574686f72697a65640000000000000000000000000000602082015250565b61444881614047565b811461445357600080fd5b50565b61445f81614085565b811461446a57600080fd5b5056fea26469706673582212204060c9e72d66ee54f93f613f9364cf54cb7fbd16544dd9c1568684e9a0ad49a764736f6c63430008070033",
  "immutableReferences": {},
  "source": "// SPDX-License-Identifier: MIT\npragma solidity >=0.4.22 <0.9.0;\n\n/*\n// admin   StructAndModifiers\n\n1. setPermission()   ==>  0=student; 1=professor; 2=admin\n    1 , modifierstudent ,student\n    2 , modifierprofessor ,professor\n    3 , modifieradmin ,admin\n\n    If it is set to 1, call the function in the modifier class to add it to the student array and to the student contract at the same time\n    If it is set to 2, call the function in the modifier class to add it to the professor array and to the professor contract at the same time\n    If it is set to 3, call the function in the modifier class to add it to the admin array and add it to the admin contract at the same time\n\n2. removePermission() \n    professor, student\n    Professors need to be allowed to be deprived of permission without teaching tasks and students need to take classes\n\n\n//  : 3. getGradeByAdminId()  You can view the student scores of any course\n\n\n*/\n\nimport \"./StructAndModifiers.sol\";\n\ncontract Admin is StructAndModifiers{\n\n    // onwer +1 1 root   Initialized to 1 because root is automatically added\n    uint public personCounts = 1;   //  Record the current number of people\n    // id  id  id value, initialize the id value, automatically accumulate\n    uint setadmId = 1; // root = 1\n    uint setproId = 100;    // proId100\n    uint setstuId = 1000;    \n    \n     ////////////////////////////////////////////////////////////////////////////////////////////////////////////// \n    //  Set permission function\n    function setPermission(address _blockAddress,string memory _name,uint _authorization) public onlyAdmin returns(bool){\n        \n        //   Check whether the set permission value is legal\n        require(_authorization == 1 || _authorization == 2 || _authorization == 3, \"unauthorized\");\n        \n        // address  shuo ming yi jing she zhi guo le\n        // true ==> \n        require(checkAddressExisted(_blockAddress) == false,\"This address has already been set permissions\");\n        \n        // Record person[]\n        //  Self increasing\n        personCounts++;\n\n        if(_authorization == 1){ // \n            //   Add him directly to the students\n            studentCounts++;\n            setstuId++;\n            //  \n            // Since the course array cannot be assigned at this time, it is assigned one by one\n            studentSelfs[studentCounts].stuId = setstuId;\n            studentSelfs[studentCounts].stuName = _name;\n            studentSelfs[studentCounts].stuBlockAddress = _blockAddress;\n            studentSelfs[studentCounts].stuAuthorization = 1;\n            studentSelfs[studentCounts].isLearningSum = 0; //  Initialize to no class in progress\n            \n        }\n        else if(_authorization == 2){ // professor\n            professorCounts++;\n            setproId++;\n            // \n            // Since the course array cannot be assigned at this time, it is assigned one by one\n            professorSelfs[professorCounts].proId = setproId;\n            professorSelfs[professorCounts].proName = _name;\n            professorSelfs[professorCounts].proBlockAddress = _blockAddress;\n            professorSelfs[professorCounts].proAuthorization = 2;\n            professorSelfs[professorCounts].isTeachingPeopleSum = 0; //  Initialize to no teaching in progress\n\n        }\n        else if(_authorization == 3){ // Admin\n            adminCounts++;\n            setadmId++;\n            adminSelfs[adminCounts] = AdminSelf(setadmId,_name,_blockAddress,3);\n\n        }\n        //   Setup succeeded\n        return true;\n       \n        \n    }\n    \n    ////////////////////////////////////////////////////////////////////////////////////////////////////////////// \n    // , 100 , person  ;  Remove the permission relative to, and set it to 100, that is, person\n    function removePermission(address _blockAddress) public onlyAdmin returns(bool){\n\n        // ID                                     First find out if this ID exists\n        require(checkAddressExisted(_blockAddress) == true,\">>>This address no exist\");\n        \n        // ID                             Then check the permission before this ID\n        uint _authorization  = getAuthorizationByAddress(_blockAddress); // index       Call function to get index\n        require(_authorization != 0,\">>>This blockAddress was originally not authorized\");\n        \n        \n        //   ;   Remove him from the corresponding permission database according to his permissions\n        if(_authorization == 1){ // \n            uint studentIndex = getStudentIndexByAddress(_blockAddress);\n            // ID  Check if this ID is learning\n            require(studentSelfs[studentIndex].isLearningSum == 0,\">>>This student is learning, cant remove permission!!!\"); \n            \n            //   Direct deletion will leave an empty space\n            //   So the latter element overwrites the previous element\n            for(uint i=studentIndex;i<studentCounts;i++){\n                studentSelfs[i].stuId = studentSelfs[i+1].stuId;\n                studentSelfs[i].stuName = studentSelfs[i+1].stuName;\n                studentSelfs[i].stuBlockAddress = studentSelfs[i+1].stuBlockAddress;\n                studentSelfs[i].stuAuthorization = studentSelfs[i+1].stuAuthorization;\n                studentSelfs[i].myStuCourses = studentSelfs[i+1].myStuCourses;\n            }\n            \n            //   Then remove the last element\n            delete studentSelfs[studentCounts];\n            studentCounts--; \n        }\n        else if(_authorization == 2){  // professor\n            uint professorIndex = getProfessorIndexByAddress(_blockAddress);\n            // ID  Check if this ID is in class\n            require(professorSelfs[professorIndex].isTeachingPeopleSum == 0,\">>>This professor is teaching, cant remove permission!!!\"); \n            \n            //   Direct deletion will leave an empty space\n            //  So the latter element overrides the previous element\n            for(uint i=professorIndex;i<professorCounts;i++){\n                professorSelfs[i].proId = professorSelfs[i+1].proId;\n                professorSelfs[i].proName = professorSelfs[i+1].proName;\n                professorSelfs[i].proBlockAddress = professorSelfs[i+1].proBlockAddress;\n                professorSelfs[i].proAuthorization = professorSelfs[i+1].proAuthorization;\n                professorSelfs[i].myProCourses = professorSelfs[i+1].myProCourses;\n            }\n            \n            //  Then remove the last element\n            delete professorSelfs[professorCounts];\n            professorCounts--; \n \n        }\n        else if(_authorization == 3){ // Admin\n            uint adminIndex = getAdminIndexByAddress(_blockAddress);\n            //   Direct deletion will leave an empty space\n            //   So the latter element overrides the previous element\n            for(uint i=adminIndex;i<adminCounts;i++){\n                adminSelfs[i].adminId = adminSelfs[i+1].adminId;\n                adminSelfs[i].adminName = adminSelfs[i+1].adminName;\n                adminSelfs[i].adminBlockAddress = adminSelfs[i+1].adminBlockAddress;\n                adminSelfs[i].adminAuthorization = adminSelfs[i+1].adminAuthorization;\n            }\n            \n            //   Then remove the last element\n            delete adminSelfs[adminCounts];\n            adminCounts--; \n\n        }\n        // person\n        personCounts--; \n\n        return true;\n        \n    }\n    \n/*    \n    //////////////////////////////////////////////////////////////////////////////////////////////////////////////\n    //   View results\n    // admin,  \n    // If it is admin, it can view the scores of all students in all courses\n\n    function getGradeByAdminAddr(uint _courseId,address _adminBlockAddress) public view onlyAdmin returns(address[] memory, uint[] memory){\n        \n        // pid Check whether the PID matches the address\n        require(_adminBlockAddress == msg.sender,\">>>The Id no match the current address!!!\");\n        \n        //  Check whether the course information exists\n        bool isExisted = checkCourseExisted(_courseId); \n        require(isExisted == true,\">>>_courseId no existed!!!\");\n        \n        ///\n        //  The results of all students under the course will be listed\n        \n        //  Find the course first\n        uint indexOfCourseID = getIndexByCourseId(_courseId);\n        // ,  \n        // Find the length of the array of students stored in this course, that is, the number of students taking this course\n        uint courseStudentCounts_ = getcourseStudentCounts(_courseId);\n        \n        address[] memory studentAddress = new address[](courseStudentCounts_);\n        uint[] memory studentsGrade  = new uint[](courseStudentCounts_);\n        \n        // , 0, courseStudentCounts_1\n        // There will be a problem here. The newly created array starts from 0 and coursestudentcounts_ It starts with 1\n        for(uint j=1;j<=courseStudentCounts_;j++){\n            studentAddress[j-1] = courseInfs[indexOfCourseID].courseStudents[j].stuBlockAddress;\n            studentsGrade[j-1] = courseInfs[indexOfCourseID].courseStudents[j].stuGrade;\n        }\n        \n        return (studentAddress,studentsGrade) ;  //  complete\n     \n    }\n\n*/\n\n}\n",
  "sourcePath": "/Users/sophotky/Computer-Science/blockchain/capstone/scouter2/contracts/Admin.sol",
  "compiler": {
    "name": "solc",
    "version": "0.8.7+commit.e28d00a7.Emscripten.clang"
  },
  "schemaVersion": "3.4.3",
  "updatedAt": "2021-12-06T11:05:42.404Z",
  "devdoc": {
    "kind": "dev",
    "methods": {},
    "version": 1
  },
  "userdoc": {
    "kind": "user",
    "methods": {},
    "version": 1
  }
}