{
  "contractName": "Admin",
  "abi": [
    {
      "inputs": [],
      "name": "adminCounts",
      "outputs": [
        {
          "internalType": "uint256",
          "name": "",
          "type": "uint256"
        }
      ],
      "stateMutability": "view",
      "type": "function"
    },
    {
      "inputs": [
        {
          "internalType": "uint256",
          "name": "",
          "type": "uint256"
        }
      ],
      "name": "adminSelfs",
      "outputs": [
        {
          "internalType": "uint256",
          "name": "adminId",
          "type": "uint256"
        },
        {
          "internalType": "string",
          "name": "adminName",
          "type": "string"
        },
        {
          "internalType": "address",
          "name": "adminBlockAddress",
          "type": "address"
        },
        {
          "internalType": "uint256",
          "name": "adminAuthorization",
          "type": "uint256"
        }
      ],
      "stateMutability": "view",
      "type": "function"
    },
    {
      "inputs": [],
      "name": "courseCounts",
      "outputs": [
        {
          "internalType": "uint256",
          "name": "",
          "type": "uint256"
        }
      ],
      "stateMutability": "view",
      "type": "function"
    },
    {
      "inputs": [
        {
          "internalType": "uint256",
          "name": "",
          "type": "uint256"
        }
      ],
      "name": "courseInfs",
      "outputs": [
        {
          "internalType": "uint256",
          "name": "courseId",
          "type": "uint256"
        },
        {
          "internalType": "string",
          "name": "courseName",
          "type": "string"
        },
        {
          "internalType": "address",
          "name": "proBlockAddress",
          "type": "address"
        },
        {
          "internalType": "bool",
          "name": "canApply",
          "type": "bool"
        },
        {
          "internalType": "uint256",
          "name": "courseStudentCounts",
          "type": "uint256"
        }
      ],
      "stateMutability": "view",
      "type": "function"
    },
    {
      "inputs": [
        {
          "internalType": "address",
          "name": "_adminBlockAddress",
          "type": "address"
        }
      ],
      "name": "getAdminIndexByAddress",
      "outputs": [
        {
          "internalType": "uint256",
          "name": "",
          "type": "uint256"
        }
      ],
      "stateMutability": "view",
      "type": "function"
    },
    {
      "inputs": [],
      "name": "getAllCourseId",
      "outputs": [
        {
          "internalType": "uint256[]",
          "name": "",
          "type": "uint256[]"
        }
      ],
      "stateMutability": "view",
      "type": "function"
    },
    {
      "inputs": [],
      "name": "getAllStudentAddress",
      "outputs": [
        {
          "internalType": "address[]",
          "name": "",
          "type": "address[]"
        }
      ],
      "stateMutability": "view",
      "type": "function"
    },
    {
      "inputs": [
        {
          "internalType": "address",
          "name": "_address",
          "type": "address"
        }
      ],
      "name": "getAuthorizationByAddress",
      "outputs": [
        {
          "internalType": "uint256",
          "name": "",
          "type": "uint256"
        }
      ],
      "stateMutability": "view",
      "type": "function"
    },
    {
      "inputs": [
        {
          "internalType": "address",
          "name": "_proBlockAddress",
          "type": "address"
        }
      ],
      "name": "getCourseCountsByProAddress",
      "outputs": [
        {
          "internalType": "uint256",
          "name": "",
          "type": "uint256"
        }
      ],
      "stateMutability": "view",
      "type": "function"
    },
    {
      "inputs": [
        {
          "internalType": "address",
          "name": "_proBlockAddress",
          "type": "address"
        }
      ],
      "name": "getCourseIdByProAddress",
      "outputs": [
        {
          "internalType": "uint256[]",
          "name": "",
          "type": "uint256[]"
        }
      ],
      "stateMutability": "view",
      "type": "function"
    },
    {
      "inputs": [
        {
          "internalType": "uint256",
          "name": "_courseid",
          "type": "uint256"
        }
      ],
      "name": "getCourseInfByCourseId",
      "outputs": [
        {
          "internalType": "uint256",
          "name": "",
          "type": "uint256"
        },
        {
          "internalType": "string",
          "name": "",
          "type": "string"
        },
        {
          "internalType": "address",
          "name": "",
          "type": "address"
        },
        {
          "internalType": "uint256",
          "name": "",
          "type": "uint256"
        }
      ],
      "stateMutability": "view",
      "type": "function"
    },
    {
      "inputs": [
        {
          "internalType": "uint256",
          "name": "_courseId",
          "type": "uint256"
        }
      ],
      "name": "getCourseNameByCourseId",
      "outputs": [
        {
          "internalType": "string",
          "name": "",
          "type": "string"
        }
      ],
      "stateMutability": "view",
      "type": "function"
    },
    {
      "inputs": [
        {
          "internalType": "uint256",
          "name": "_courseid",
          "type": "uint256"
        }
      ],
      "name": "getCourseStudentInfByCourseId",
      "outputs": [
        {
          "internalType": "uint256[]",
          "name": "",
          "type": "uint256[]"
        },
        {
          "internalType": "address[]",
          "name": "",
          "type": "address[]"
        },
        {
          "internalType": "uint256[]",
          "name": "",
          "type": "uint256[]"
        }
      ],
      "stateMutability": "view",
      "type": "function"
    },
    {
      "inputs": [
        {
          "internalType": "address",
          "name": "_address",
          "type": "address"
        }
      ],
      "name": "getIdByAddress",
      "outputs": [
        {
          "internalType": "uint256",
          "name": "",
          "type": "uint256"
        }
      ],
      "stateMutability": "view",
      "type": "function"
    },
    {
      "inputs": [
        {
          "internalType": "uint256",
          "name": "_courseId",
          "type": "uint256"
        }
      ],
      "name": "getIndexByCourseId",
      "outputs": [
        {
          "internalType": "uint256",
          "name": "",
          "type": "uint256"
        }
      ],
      "stateMutability": "view",
      "type": "function"
    },
    {
      "inputs": [
        {
          "internalType": "address",
          "name": "_proBlockAddress",
          "type": "address"
        }
      ],
      "name": "getProfessorIndexByAddress",
      "outputs": [
        {
          "internalType": "uint256",
          "name": "",
          "type": "uint256"
        }
      ],
      "stateMutability": "view",
      "type": "function"
    },
    {
      "inputs": [
        {
          "internalType": "uint256",
          "name": "_stuId",
          "type": "uint256"
        }
      ],
      "name": "getStuAddressByStuId",
      "outputs": [
        {
          "internalType": "address",
          "name": "",
          "type": "address"
        }
      ],
      "stateMutability": "view",
      "type": "function"
    },
    {
      "inputs": [
        {
          "internalType": "uint256",
          "name": "_courseId",
          "type": "uint256"
        },
        {
          "internalType": "address",
          "name": "_stuAddress",
          "type": "address"
        }
      ],
      "name": "getStudentGradeByCourseIdAndStuAddr",
      "outputs": [
        {
          "internalType": "uint256",
          "name": "",
          "type": "uint256"
        }
      ],
      "stateMutability": "view",
      "type": "function"
    },
    {
      "inputs": [
        {
          "internalType": "address",
          "name": "_stuBlockAddress",
          "type": "address"
        }
      ],
      "name": "getStudentIndexByAddress",
      "outputs": [
        {
          "internalType": "uint256",
          "name": "",
          "type": "uint256"
        }
      ],
      "stateMutability": "view",
      "type": "function"
    },
    {
      "inputs": [
        {
          "internalType": "address",
          "name": "_stuBlockAddress",
          "type": "address"
        }
      ],
      "name": "getStudentInfByStuAddress",
      "outputs": [
        {
          "internalType": "uint256",
          "name": "",
          "type": "uint256"
        },
        {
          "internalType": "string",
          "name": "",
          "type": "string"
        },
        {
          "internalType": "address",
          "name": "",
          "type": "address"
        },
        {
          "internalType": "uint256",
          "name": "",
          "type": "uint256"
        },
        {
          "internalType": "uint256[]",
          "name": "",
          "type": "uint256[]"
        },
        {
          "internalType": "uint256[]",
          "name": "",
          "type": "uint256[]"
        }
      ],
      "stateMutability": "view",
      "type": "function"
    },
    {
      "inputs": [
        {
          "internalType": "uint256",
          "name": "_stuId",
          "type": "uint256"
        }
      ],
      "name": "getStudentNameById",
      "outputs": [
        {
          "internalType": "string",
          "name": "",
          "type": "string"
        }
      ],
      "stateMutability": "view",
      "type": "function"
    },
    {
      "inputs": [
        {
          "internalType": "uint256",
          "name": "_courseid",
          "type": "uint256"
        },
        {
          "internalType": "uint256",
          "name": "_getTops",
          "type": "uint256"
        }
      ],
      "name": "getTopStudentsByCourseId",
      "outputs": [
        {
          "internalType": "uint256",
          "name": "",
          "type": "uint256"
        },
        {
          "internalType": "uint256[]",
          "name": "",
          "type": "uint256[]"
        },
        {
          "internalType": "address[]",
          "name": "",
          "type": "address[]"
        },
        {
          "internalType": "uint256[]",
          "name": "",
          "type": "uint256[]"
        }
      ],
      "stateMutability": "view",
      "type": "function"
    },
    {
      "inputs": [
        {
          "internalType": "uint256",
          "name": "_courseid",
          "type": "uint256"
        }
      ],
      "name": "getcourseStudentCounts",
      "outputs": [
        {
          "internalType": "uint256",
          "name": "courseStudentCounts_",
          "type": "uint256"
        }
      ],
      "stateMutability": "view",
      "type": "function"
    },
    {
      "inputs": [],
      "name": "modifiersOwner",
      "outputs": [
        {
          "internalType": "address",
          "name": "",
          "type": "address"
        }
      ],
      "stateMutability": "view",
      "type": "function"
    },
    {
      "inputs": [],
      "name": "personCounts",
      "outputs": [
        {
          "internalType": "uint256",
          "name": "",
          "type": "uint256"
        }
      ],
      "stateMutability": "view",
      "type": "function"
    },
    {
      "inputs": [],
      "name": "professorCounts",
      "outputs": [
        {
          "internalType": "uint256",
          "name": "",
          "type": "uint256"
        }
      ],
      "stateMutability": "view",
      "type": "function"
    },
    {
      "inputs": [
        {
          "internalType": "uint256",
          "name": "",
          "type": "uint256"
        }
      ],
      "name": "professorSelfs",
      "outputs": [
        {
          "internalType": "uint256",
          "name": "proId",
          "type": "uint256"
        },
        {
          "internalType": "string",
          "name": "proName",
          "type": "string"
        },
        {
          "internalType": "address",
          "name": "proBlockAddress",
          "type": "address"
        },
        {
          "internalType": "uint256",
          "name": "proAuthorization",
          "type": "uint256"
        },
        {
          "internalType": "uint256",
          "name": "isTeachingPeopleSum",
          "type": "uint256"
        }
      ],
      "stateMutability": "view",
      "type": "function"
    },
    {
      "inputs": [],
      "name": "studentCounts",
      "outputs": [
        {
          "internalType": "uint256",
          "name": "",
          "type": "uint256"
        }
      ],
      "stateMutability": "view",
      "type": "function"
    },
    {
      "inputs": [
        {
          "internalType": "uint256",
          "name": "",
          "type": "uint256"
        }
      ],
      "name": "studentSelfs",
      "outputs": [
        {
          "internalType": "uint256",
          "name": "stuId",
          "type": "uint256"
        },
        {
          "internalType": "string",
          "name": "stuName",
          "type": "string"
        },
        {
          "internalType": "address",
          "name": "stuBlockAddress",
          "type": "address"
        },
        {
          "internalType": "uint256",
          "name": "stuAuthorization",
          "type": "uint256"
        },
        {
          "internalType": "uint256",
          "name": "isLearningSum",
          "type": "uint256"
        }
      ],
      "stateMutability": "view",
      "type": "function"
    },
    {
      "inputs": [
        {
          "internalType": "address",
          "name": "_blockAddress",
          "type": "address"
        },
        {
          "internalType": "string",
          "name": "_name",
          "type": "string"
        },
        {
          "internalType": "uint256",
          "name": "_authorization",
          "type": "uint256"
        }
      ],
      "name": "setPermission",
      "outputs": [
        {
          "internalType": "bool",
          "name": "",
          "type": "bool"
        }
      ],
      "stateMutability": "nonpayable",
      "type": "function"
    },
    {
      "inputs": [
        {
          "internalType": "address",
          "name": "_blockAddress",
          "type": "address"
        }
      ],
      "name": "removePermission",
      "outputs": [
        {
          "internalType": "bool",
          "name": "",
          "type": "bool"
        }
      ],
      "stateMutability": "nonpayable",
      "type": "function"
    }
  ],
  "bytecode": "0x6080604052600060015560006003556000600555600060075560016009556001600a556064600b556103e8600c553480156200003a57600080fd5b50336000806101000a81548173ffffffffffffffffffffffffffffffffffffffff021916908373ffffffffffffffffffffffffffffffffffffffff1602179055506040518060800160405280600181526020016040518060400160405280600481526020017f526f6f7400000000000000000000000000000000000000000000000000000000815250815260200160008054906101000a900473ffffffffffffffffffffffffffffffffffffffff1673ffffffffffffffffffffffffffffffffffffffff1681526020016003815250600260006001815260200190815260200160002060008201518160000155602082015181600101908051906020019062000145929190620001ba565b5060408201518160020160006101000a81548173ffffffffffffffffffffffffffffffffffffffff021916908373ffffffffffffffffffffffffffffffffffffffff1602179055506060820151816003015590505060016000815480929190620001af90620002aa565b919050555062000356565b828054620001c89062000274565b90600052602060002090601f016020900481019282620001ec576000855562000238565b82601f106200020757805160ff191683800117855562000238565b8280016001018555821562000238579182015b82811115620002375782518255916020019190600101906200021a565b5b5090506200024791906200024b565b5090565b5b80821115620002665760008160009055506001016200024c565b5090565b6000819050919050565b600060028204905060018216806200028d57607f821691505b60208210811415620002a457620002a362000327565b5b50919050565b6000620002b7826200026a565b91507fffffffffffffffffffffffffffffffffffffffffffffffffffffffffffffffff821415620002ed57620002ec620002f8565b5b600182019050919050565b7f4e487b7100000000000000000000000000000000000000000000000000000000600052601160045260246000fd5b7f4e487b7100000000000000000000000000000000000000000000000000000000600052602260045260246000fd5b61431880620003666000396000f3fe608060405234801561001057600080fd5b50600436106101e45760003560e01c80637860a0691161010f578063ad9e42d9116100a2578063e074bb4711610071578063e074bb47146106bb578063f6aa09e4146106eb578063fb3189e814610709578063fc0c1f3914610727576101e4565b8063ad9e42d9146105fb578063c5ad81de1461062b578063ced3ae611461065b578063dff3b4971461068b576101e4565b8063982203be116100de578063982203be1461055f57806398aede551461058f5780639fde0943146105ad578063a5cc464d146105cb576101e4565b80637860a069146104ae57806390141940146104cc57806390eab7a2146104fc57806394e48ece1461052c576101e4565b80632454a939116101875780634d64e5ee116101565780634d64e5ee146103e357806358a42065146104175780635e719a491461044c578063606870da1461047c576101e4565b80632454a939146103205780632b81bd8d1461035057806330e94711146103805780634d4fb0d7146103b3576101e4565b80630d9382fc116101c35780630d9382fc146102815780630e3bfd6c1461029f57806310d756dd146102bd5780631643c8db146102ed576101e4565b80624255a6146101e9578063043022fa1461021d5780630c1596b414610251575b600080fd5b61020360048036038101906101fe9190613689565b610745565b604051610214959493929190613cf4565b60405180910390f35b61023760048036038101906102329190613689565b610823565b604051610248959493929190613bd8565b60405180910390f35b61026b600480360381019061026691906135ed565b61090e565b60405161027891906139d8565b60405180910390f35b6102896109f3565b6040516102969190613b63565b60405180910390f35b6102a76109f9565b6040516102b49190613b63565b60405180910390f35b6102d760048036038101906102d291906135ed565b6109ff565b6040516102e49190613b63565b60405180910390f35b61030760048036038101906103029190613689565b610aa1565b6040516103179493929190613c32565b60405180910390f35b61033a600480360381019061033591906135ed565b610b79565b6040516103479190613b63565b60405180910390f35b61036a60048036038101906103659190613689565b610c1b565b6040516103779190613a61565b60405180910390f35b61039a60048036038101906103959190613689565b610d44565b6040516103aa9493929190613c32565b60405180910390f35b6103cd60048036038101906103c891906135ed565b610e84565b6040516103da9190613b63565b60405180910390f35b6103fd60048036038101906103f89190613689565b610eb4565b60405161040e959493929190613cf4565b60405180910390f35b610431600480360381019061042c91906135ed565b610f92565b60405161044396959493929190613c7e565b60405180910390f35b61046660048036038101906104619190613689565b6111bd565b6040516104739190613b63565b60405180910390f35b61049660048036038101906104919190613689565b611225565b6040516104a5939291906139fa565b60405180910390f35b6104b66114c0565b6040516104c39190613b63565b60405180910390f35b6104e660048036038101906104e1919061361a565b6114c6565b6040516104f39190613a46565b60405180910390f35b610516600480360381019061051191906135ed565b6119a8565b6040516105239190613b63565b60405180910390f35b610546600480360381019061054191906136f6565b611bba565b6040516105569493929190613b7e565b60405180910390f35b61057960048036038101906105749190613689565b6120f9565b604051610586919061399b565b60405180910390f35b610597612185565b6040516105a4919061399b565b60405180910390f35b6105b56121a9565b6040516105c291906139b6565b60405180910390f35b6105e560048036038101906105e091906135ed565b6122b5565b6040516105f29190613b63565b60405180910390f35b61061560048036038101906106109190613689565b612357565b6040516106229190613b63565b60405180910390f35b61064560048036038101906106409190613689565b6123b8565b6040516106529190613a61565b60405180910390f35b610675600480360381019061067091906136b6565b61246e565b6040516106829190613b63565b60405180910390f35b6106a560048036038101906106a091906135ed565b612572565b6040516106b29190613b63565b60405180910390f35b6106d560048036038101906106d091906135ed565b612784565b6040516106e29190613a46565b60405180910390f35b6106f36130d3565b60405161070091906139d8565b60405180910390f35b610711613191565b60405161071e9190613b63565b60405180910390f35b61072f613197565b60405161073c9190613b63565b60405180910390f35b600660205280600052604060002060009150905080600001549080600101805461076e90613f70565b80601f016020809104026020016040519081016040528092919081815260200182805461079a90613f70565b80156107e75780601f106107bc576101008083540402835291602001916107e7565b820191906000526020600020905b8154815290600101906020018083116107ca57829003601f168201915b5050505050908060020160009054906101000a900473ffffffffffffffffffffffffffffffffffffffff16908060030154908060050154905085565b600860205280600052604060002060009150905080600001549080600101805461084c90613f70565b80601f016020809104026020016040519081016040528092919081815260200182805461087890613f70565b80156108c55780601f1061089a576101008083540402835291602001916108c5565b820191906000526020600020905b8154815290600101906020018083116108a857829003601f168201915b5050505050908060020160009054906101000a900473ffffffffffffffffffffffffffffffffffffffff16908060020160149054906101000a900460ff16908060030154905085565b6060600061091b836122b5565b9050600061092884610e84565b905060008167ffffffffffffffff811115610946576109456140a9565b5b6040519080825280602002602001820160405280156109745781602001602082028036833780820191505090505b50905060005b828110156109e7576004600085815260200190815260200160002060040181815481106109aa576109a961407a565b5b90600052602060002001548282815181106109c8576109c761407a565b5b60200260200101818152505080806109df90613fd3565b91505061097a565b50809350505050919050565b60095481565b60075481565b600080600190505b6001548111610a96578273ffffffffffffffffffffffffffffffffffffffff166002600083815260200190815260200160002060020160009054906101000a900473ffffffffffffffffffffffffffffffffffffffff1673ffffffffffffffffffffffffffffffffffffffff161415610a835780915050610a9c565b8080610a8e90613fd3565b915050610a07565b50600090505b919050565b6002602052806000526040600020600091509050806000015490806001018054610aca90613f70565b80601f0160208091040260200160405190810160405280929190818152602001828054610af690613f70565b8015610b435780601f10610b1857610100808354040283529160200191610b43565b820191906000526020600020905b815481529060010190602001808311610b2657829003601f168201915b5050505050908060020160009054906101000a900473ffffffffffffffffffffffffffffffffffffffff16908060030154905084565b600080600190505b6005548111610c10578273ffffffffffffffffffffffffffffffffffffffff166006600083815260200190815260200160002060020160009054906101000a900473ffffffffffffffffffffffffffffffffffffffff1673ffffffffffffffffffffffffffffffffffffffff161415610bfd5780915050610c16565b8080610c0890613fd3565b915050610b81565b50600090505b919050565b60606000600190505b6005548111610d05578260066000838152602001908152602001600020600001541415610cf257600660008281526020019081526020016000206001018054610c6c90613f70565b80601f0160208091040260200160405190810160405280929190818152602001828054610c9890613f70565b8015610ce55780601f10610cba57610100808354040283529160200191610ce5565b820191906000526020600020905b815481529060010190602001808311610cc857829003601f168201915b5050505050915050610d3f565b8080610cfd90613fd3565b915050610c24565b506040518060400160405280600481526020017f6e756c6c0000000000000000000000000000000000000000000000000000000081525090505b919050565b600060606000806000610d5686612357565b90506000600860008381526020019081526020016000206000015490506000600860008481526020019081526020016000206001018054610d9690613f70565b80601f0160208091040260200160405190810160405280929190818152602001828054610dc290613f70565b8015610e0f5780601f10610de457610100808354040283529160200191610e0f565b820191906000526020600020905b815481529060010190602001808311610df257829003601f168201915b5050505050905060006008600085815260200190815260200160002060020160009054906101000a900473ffffffffffffffffffffffffffffffffffffffff16905060006008600086815260200190815260200160002060030154905083838383985098509850985050505050509193509193565b600080610e90836122b5565b90506004600082815260200190815260200160002060040180549050915050919050565b6004602052806000526040600020600091509050806000015490806001018054610edd90613f70565b80601f0160208091040260200160405190810160405280929190818152602001828054610f0990613f70565b8015610f565780601f10610f2b57610100808354040283529160200191610f56565b820191906000526020600020905b815481529060010190602001808311610f3957829003601f168201915b5050505050908060020160009054906101000a900473ffffffffffffffffffffffffffffffffffffffff16908060030154908060050154905085565b600060606000806060806000610fa788610b79565b90506000600660008381526020019081526020016000206000015490506000600660008481526020019081526020016000206001018054610fe790613f70565b80601f016020809104026020016040519081016040528092919081815260200182805461101390613f70565b80156110605780601f1061103557610100808354040283529160200191611060565b820191906000526020600020905b81548152906001019060200180831161104357829003601f168201915b505050505090506000600660008581526020019081526020016000206003015490506000600660008681526020019081526020016000206004018054806020026020016040519081016040528092919081815260200182805480156110e457602002820191906000526020600020905b8154815260200190600101908083116110d0575b505050505090506000815167ffffffffffffffff811115611108576111076140a9565b5b6040519080825280602002602001820160405280156111365781602001602082028036833780820191505090505b50905060005b825181101561119b5761116983828151811061115b5761115a61407a565b5b60200260200101518f61246e565b82828151811061117c5761117b61407a565b5b602002602001018181525050808061119390613fd3565b91505061113c565b5084848e8585859b509b509b509b509b509b5050505050505091939550919395565b600080600190505b600754811161121e57826008600083815260200190815260200160002060000154141561120b576008600082815260200190815260200160002060030154915050611220565b808061121690613fd3565b9150506111c5565b505b919050565b6060806060600061123585612357565b905060006008600083815260200190815260200160002060030154905060008167ffffffffffffffff81111561126e5761126d6140a9565b5b60405190808252806020026020018201604052801561129c5781602001602082028036833780820191505090505b50905060008267ffffffffffffffff8111156112bb576112ba6140a9565b5b6040519080825280602002602001820160405280156112e95781602001602082028036833780820191505090505b50905060008367ffffffffffffffff811115611308576113076140a9565b5b6040519080825280602002602001820160405280156113365781602001602082028036833780820191505090505b5090506000600190505b8481116114aa5760086000878152602001908152602001600020600401600082815260200190815260200160002060000160009054906101000a900473ffffffffffffffffffffffffffffffffffffffff16846001836113a09190613e88565b815181106113b1576113b061407a565b5b602002602001019073ffffffffffffffffffffffffffffffffffffffff16908173ffffffffffffffffffffffffffffffffffffffff168152505060086000878152602001908152602001600020600401600082815260200190815260200160002060010154836001836114249190613e88565b815181106114355761143461407a565b5b602002602001018181525050600860008781526020019081526020016000206004016000828152602001908152602001600020600201548260018361147a9190613e88565b8151811061148b5761148a61407a565b5b60200260200101818152505080806114a290613fd3565b915050611340565b5081838297509750975050505050509193909250565b60035481565b6000806000905060005b600154811161155b576002600082815260200190815260200160002060020160009054906101000a900473ffffffffffffffffffffffffffffffffffffffff1673ffffffffffffffffffffffffffffffffffffffff163373ffffffffffffffffffffffffffffffffffffffff16141561154857600191505b808061155390613fd3565b9150506114d0565b508061159c576040517f08c379a000000000000000000000000000000000000000000000000000000000815260040161159390613ac3565b60405180910390fd5b60018314806115ab5750600283145b806115b65750600383145b6115f5576040517f08c379a00000000000000000000000000000000000000000000000000000000081526004016115ec90613b03565b60405180910390fd5b600015156116028661319d565b151514611644576040517f08c379a000000000000000000000000000000000000000000000000000000000815260040161163b90613a83565b60405180910390fd5b6009600081548092919061165790613fd3565b91905055506001831415611779576005600081548092919061167890613fd3565b9190505550600c600081548092919061169090613fd3565b9190505550600c54600660006005548152602001908152602001600020600001819055508360066000600554815260200190815260200160002060010190805190602001906116e0929190613370565b508460066000600554815260200190815260200160002060020160006101000a81548173ffffffffffffffffffffffffffffffffffffffff021916908373ffffffffffffffffffffffffffffffffffffffff16021790555060016006600060055481526020019081526020016000206003018190555060006006600060055481526020019081526020016000206005018190555061199c565b6002831415611896576003600081548092919061179590613fd3565b9190505550600b60008154809291906117ad90613fd3565b9190505550600b54600460006003548152602001908152602001600020600001819055508360046000600354815260200190815260200160002060010190805190602001906117fd929190613370565b508460046000600354815260200190815260200160002060020160006101000a81548173ffffffffffffffffffffffffffffffffffffffff021916908373ffffffffffffffffffffffffffffffffffffffff16021790555060026004600060035481526020019081526020016000206003018190555060006004600060035481526020019081526020016000206005018190555061199b565b600383141561199a57600160008154809291906118b290613fd3565b9190505550600a60008154809291906118ca90613fd3565b91905055506040518060800160405280600a5481526020018581526020018673ffffffffffffffffffffffffffffffffffffffff1681526020016003815250600260006001548152602001908152602001600020600082015181600001556020820151816001019080519060200190611944929190613370565b5060408201518160020160006101000a81548173ffffffffffffffffffffffffffffffffffffffff021916908373ffffffffffffffffffffffffffffffffffffffff160217905550606082015181600301559050505b5b5b60019150509392505050565b600080600190505b6001548111611a55578273ffffffffffffffffffffffffffffffffffffffff166002600083815260200190815260200160002060020160009054906101000a900473ffffffffffffffffffffffffffffffffffffffff1673ffffffffffffffffffffffffffffffffffffffff161415611a42576002600082815260200190815260200160002060030154915050611bb5565b8080611a4d90613fd3565b9150506119b0565b506000600190505b6003548111611b02578273ffffffffffffffffffffffffffffffffffffffff166004600083815260200190815260200160002060020160009054906101000a900473ffffffffffffffffffffffffffffffffffffffff1673ffffffffffffffffffffffffffffffffffffffff161415611aef576004600082815260200190815260200160002060030154915050611bb5565b8080611afa90613fd3565b915050611a5d565b506000600190505b6005548111611baf578273ffffffffffffffffffffffffffffffffffffffff166006600083815260200190815260200160002060020160009054906101000a900473ffffffffffffffffffffffffffffffffffffffff1673ffffffffffffffffffffffffffffffffffffffff161415611b9c576006600082815260200190815260200160002060030154915050611bb5565b8080611ba790613fd3565b915050611b0a565b50600090505b919050565b600060608060606000859050600080611bd289612357565b905060006008600083815260200190815260200160002060030154905083811015611bfb578093505b60008167ffffffffffffffff811115611c1757611c166140a9565b5b604051908082528060200260200182016040528015611c455781602001602082028036833780820191505090505b5090506000600190505b828111611d01576000600860008681526020019081526020016000206004016000838152602001908152602001600020600201541115611cee576008600085815260200190815260200160002060040160008281526020019081526020016000206002015482600183611cc29190613e88565b81518110611cd357611cd261407a565b5b6020026020010181815250508480611cea90613fd3565b9550505b8080611cf990613fd3565b915050611c4f565b5084841015611d0e578394505b60005b8151811015611e2c576000600190505b8251811015611e185782600182611d389190613e88565b81518110611d4957611d4861407a565b5b6020026020010151838281518110611d6457611d6361407a565b5b60200260200101511115611e0557600083600183611d829190613e88565b81518110611d9357611d9261407a565b5b60200260200101519050838281518110611db057611daf61407a565b5b602002602001015184600184611dc69190613e88565b81518110611dd757611dd661407a565b5b60200260200101818152505080848381518110611df757611df661407a565b5b602002602001018181525050505b8080611e1090613fd3565b915050611d21565b508080611e2490613fd3565b915050611d11565b5060008567ffffffffffffffff811115611e4957611e486140a9565b5b604051908082528060200260200182016040528015611e775781602001602082028036833780820191505090505b50905060008667ffffffffffffffff811115611e9657611e956140a9565b5b604051908082528060200260200182016040528015611ec45781602001602082028036833780820191505090505b50905060008767ffffffffffffffff811115611ee357611ee26140a9565b5b604051908082528060200260200182016040528015611f115781602001602082028036833780820191505090505b5090506000805b85518110156120da5789821415611f2e576120da565b858181518110611f4157611f4061407a565b5b6020026020010151838281518110611f5c57611f5b61407a565b5b6020026020010181815250506000600190505b8781116120b857600860008a8152602001908152602001600020600401600082815260200190815260200160002060020154848381518110611fb457611fb361407a565b5b602002602001015114156120a557600860008a815260200190815260200160002060040160008281526020019081526020016000206001015485838151811061200057611fff61407a565b5b602002602001018181525050600860008a8152602001908152602001600020600401600082815260200190815260200160002060000160009054906101000a900473ffffffffffffffffffffffffffffffffffffffff1686838151811061206a5761206961407a565b5b602002602001019073ffffffffffffffffffffffffffffffffffffffff16908173ffffffffffffffffffffffffffffffffffffffff16815250505b80806120b090613fd3565b915050611f6f565b5081806120c490613fd3565b92505080806120d290613fd3565b915050611f18565b50888385849c509c509c509c5050505050505050505092959194509250565b600080600190505b600554811161217a578260066000838152602001908152602001600020600001541415612167576006600082815260200190815260200160002060020160009054906101000a900473ffffffffffffffffffffffffffffffffffffffff16915050612180565b808061217290613fd3565b915050612101565b50600090505b919050565b60008054906101000a900473ffffffffffffffffffffffffffffffffffffffff1681565b6060600060055467ffffffffffffffff8111156121c9576121c86140a9565b5b6040519080825280602002602001820160405280156121f75781602001602082028036833780820191505090505b5090506000600190505b60055481116122ad576006600082815260200190815260200160002060020160009054906101000a900473ffffffffffffffffffffffffffffffffffffffff168260018361224f9190613e88565b815181106122605761225f61407a565b5b602002602001019073ffffffffffffffffffffffffffffffffffffffff16908173ffffffffffffffffffffffffffffffffffffffff168152505080806122a590613fd3565b915050612201565b508091505090565b600080600190505b600354811161234c578273ffffffffffffffffffffffffffffffffffffffff166004600083815260200190815260200160002060020160009054906101000a900473ffffffffffffffffffffffffffffffffffffffff1673ffffffffffffffffffffffffffffffffffffffff1614156123395780915050612352565b808061234490613fd3565b9150506122bd565b50600090505b919050565b600080600090506000600190505b60075481116123ac5783600860008381526020019081526020016000206000015414156123995780915081925050506123b3565b80806123a490613fd3565b915050612365565b5060009150505b919050565b606060006123c583612357565b90506008600082815260200190815260200160002060010180546123e890613f70565b80601f016020809104026020016040519081016040528092919081815260200182805461241490613f70565b80156124615780601f1061243657610100808354040283529160200191612461565b820191906000526020600020905b81548152906001019060200180831161244457829003601f168201915b5050505050915050919050565b60008061247a84612357565b90506000600190505b60086000838152602001908152602001600020600301548111612565578373ffffffffffffffffffffffffffffffffffffffff1660086000848152602001908152602001600020600401600083815260200190815260200160002060000160009054906101000a900473ffffffffffffffffffffffffffffffffffffffff1673ffffffffffffffffffffffffffffffffffffffff16141561255257600860008381526020019081526020016000206004016000828152602001908152602001600020600201549250505061256c565b808061255d90613fd3565b915050612483565b5060009150505b92915050565b600080600190505b600154811161261f578273ffffffffffffffffffffffffffffffffffffffff166002600083815260200190815260200160002060020160009054906101000a900473ffffffffffffffffffffffffffffffffffffffff1673ffffffffffffffffffffffffffffffffffffffff16141561260c57600260008281526020019081526020016000206000015491505061277f565b808061261790613fd3565b91505061257a565b506000600190505b60035481116126cc578273ffffffffffffffffffffffffffffffffffffffff166004600083815260200190815260200160002060020160009054906101000a900473ffffffffffffffffffffffffffffffffffffffff1673ffffffffffffffffffffffffffffffffffffffff1614156126b957600460008281526020019081526020016000206000015491505061277f565b80806126c490613fd3565b915050612627565b506000600190505b6005548111612779578273ffffffffffffffffffffffffffffffffffffffff166006600083815260200190815260200160002060020160009054906101000a900473ffffffffffffffffffffffffffffffffffffffff1673ffffffffffffffffffffffffffffffffffffffff16141561276657600660008281526020019081526020016000206000015491505061277f565b808061277190613fd3565b9150506126d4565b50600090505b919050565b6000806000905060005b6001548111612819576002600082815260200190815260200160002060020160009054906101000a900473ffffffffffffffffffffffffffffffffffffffff1673ffffffffffffffffffffffffffffffffffffffff163373ffffffffffffffffffffffffffffffffffffffff16141561280657600191505b808061281190613fd3565b91505061278e565b508061285a576040517f08c379a000000000000000000000000000000000000000000000000000000000815260040161285190613ac3565b60405180910390fd5b600115156128678461319d565b1515146128a9576040517f08c379a00000000000000000000000000000000000000000000000000000000081526004016128a090613ae3565b60405180910390fd5b60006128b4846119a8565b905060008114156128fa576040517f08c379a00000000000000000000000000000000000000000000000000000000081526004016128f190613b43565b60405180910390fd5b6001811415612bca57600061290e85610b79565b90506000600660008381526020019081526020016000206005015414612969576040517f08c379a000000000000000000000000000000000000000000000000000000000815260040161296090613b23565b60405180910390fd5b60008190505b600554811015612b34576006600060018361298a9190613e32565b8152602001908152602001600020600001546006600083815260200190815260200160002060000181905550600660006001836129c79190613e32565b8152602001908152602001600020600101600660008381526020019081526020016000206001019080546129fa90613f70565b612a059291906133f6565b5060066000600183612a179190613e32565b815260200190815260200160002060020160009054906101000a900473ffffffffffffffffffffffffffffffffffffffff166006600083815260200190815260200160002060020160006101000a81548173ffffffffffffffffffffffffffffffffffffffff021916908373ffffffffffffffffffffffffffffffffffffffff16021790555060066000600183612aae9190613e32565b815260200190815260200160002060030154600660008381526020019081526020016000206003018190555060066000600183612aeb9190613e32565b815260200190815260200160002060040160066000838152602001908152602001600020600401908054612b20929190613483565b508080612b2c90613fd3565b91505061296f565b50600660006005548152602001908152602001600020600080820160009055600182016000612b6391906134d5565b6002820160006101000a81549073ffffffffffffffffffffffffffffffffffffffff02191690556003820160009055600482016000612ba29190613515565b6005820160009055505060056000815480929190612bbf90613f46565b9190505550506130b0565b6002811415612e9a576000612bde856122b5565b90506000600460008381526020019081526020016000206005015414612c39576040517f08c379a0000000000000000000000000000000000000000000000000000000008152600401612c3090613aa3565b60405180910390fd5b60008190505b600354811015612e045760046000600183612c5a9190613e32565b815260200190815260200160002060000154600460008381526020019081526020016000206000018190555060046000600183612c979190613e32565b815260200190815260200160002060010160046000838152602001908152602001600020600101908054612cca90613f70565b612cd59291906133f6565b5060046000600183612ce79190613e32565b815260200190815260200160002060020160009054906101000a900473ffffffffffffffffffffffffffffffffffffffff166004600083815260200190815260200160002060020160006101000a81548173ffffffffffffffffffffffffffffffffffffffff021916908373ffffffffffffffffffffffffffffffffffffffff16021790555060046000600183612d7e9190613e32565b815260200190815260200160002060030154600460008381526020019081526020016000206003018190555060046000600183612dbb9190613e32565b815260200190815260200160002060040160046000838152602001908152602001600020600401908054612df0929190613483565b508080612dfc90613fd3565b915050612c3f565b50600460006003548152602001908152602001600020600080820160009055600182016000612e3391906134d5565b6002820160006101000a81549073ffffffffffffffffffffffffffffffffffffffff02191690556003820160009055600482016000612e729190613515565b6005820160009055505060036000815480929190612e8f90613f46565b9190505550506130af565b60038114156130ae576000612eae856109ff565b905060008190505b6001548110156130345760026000600183612ed19190613e32565b815260200190815260200160002060000154600260008381526020019081526020016000206000018190555060026000600183612f0e9190613e32565b815260200190815260200160002060010160026000838152602001908152602001600020600101908054612f4190613f70565b612f4c9291906133f6565b5060026000600183612f5e9190613e32565b815260200190815260200160002060020160009054906101000a900473ffffffffffffffffffffffffffffffffffffffff166002600083815260200190815260200160002060020160006101000a81548173ffffffffffffffffffffffffffffffffffffffff021916908373ffffffffffffffffffffffffffffffffffffffff16021790555060026000600183612ff59190613e32565b8152602001908152602001600020600301546002600083815260200190815260200160002060030181905550808061302c90613fd3565b915050612eb6565b5060026000600154815260200190815260200160002060008082016000905560018201600061306391906134d5565b6002820160006101000a81549073ffffffffffffffffffffffffffffffffffffffff021916905560038201600090555050600160008154809291906130a790613f46565b9190505550505b5b5b600960008154809291906130c390613f46565b9190505550600192505050919050565b6060600060075467ffffffffffffffff8111156130f3576130f26140a9565b5b6040519080825280602002602001820160405280156131215781602001602082028036833780820191505090505b5090506000600190505b6007548111613189576008600082815260200190815260200160002060000154826001836131599190613e88565b8151811061316a5761316961407a565b5b602002602001018181525050808061318190613fd3565b91505061312b565b508091505090565b60055481565b60015481565b600080600190505b6001548111613235578273ffffffffffffffffffffffffffffffffffffffff166002600083815260200190815260200160002060020160009054906101000a900473ffffffffffffffffffffffffffffffffffffffff1673ffffffffffffffffffffffffffffffffffffffff16141561322257600191505061336b565b808061322d90613fd3565b9150506131a5565b506000600190505b60035481116132cd578273ffffffffffffffffffffffffffffffffffffffff166004600083815260200190815260200160002060020160009054906101000a900473ffffffffffffffffffffffffffffffffffffffff1673ffffffffffffffffffffffffffffffffffffffff1614156132ba57600191505061336b565b80806132c590613fd3565b91505061323d565b506000600190505b6005548111613365578273ffffffffffffffffffffffffffffffffffffffff166006600083815260200190815260200160002060020160009054906101000a900473ffffffffffffffffffffffffffffffffffffffff1673ffffffffffffffffffffffffffffffffffffffff16141561335257600191505061336b565b808061335d90613fd3565b9150506132d5565b50600090505b919050565b82805461337c90613f70565b90600052602060002090601f01602090048101928261339e57600085556133e5565b82601f106133b757805160ff19168380011785556133e5565b828001600101855582156133e5579182015b828111156133e45782518255916020019190600101906133c9565b5b5090506133f29190613536565b5090565b82805461340290613f70565b90600052602060002090601f0160209004810192826134245760008555613472565b82601f106134355780548555613472565b8280016001018555821561347257600052602060002091601f016020900482015b82811115613471578254825591600101919060010190613456565b5b50905061347f9190613536565b5090565b8280548282559060005260206000209081019282156134c45760005260206000209182015b828111156134c35782548255916001019190600101906134a8565b5b5090506134d19190613536565b5090565b5080546134e190613f70565b6000825580601f106134f35750613512565b601f0160209004906000526020600020908101906135119190613536565b5b50565b50805460008255906000526020600020908101906135339190613536565b50565b5b8082111561354f576000816000905550600101613537565b5090565b600061356661356184613d73565b613d4e565b905082815260208101848484011115613582576135816140dd565b5b61358d848285613f04565b509392505050565b6000813590506135a4816142b4565b92915050565b600082601f8301126135bf576135be6140d8565b5b81356135cf848260208601613553565b91505092915050565b6000813590506135e7816142cb565b92915050565b600060208284031215613603576136026140e7565b5b600061361184828501613595565b91505092915050565b600080600060608486031215613633576136326140e7565b5b600061364186828701613595565b935050602084013567ffffffffffffffff811115613662576136616140e2565b5b61366e868287016135aa565b925050604061367f868287016135d8565b9150509250925092565b60006020828403121561369f5761369e6140e7565b5b60006136ad848285016135d8565b91505092915050565b600080604083850312156136cd576136cc6140e7565b5b60006136db858286016135d8565b92505060206136ec85828601613595565b9150509250929050565b6000806040838503121561370d5761370c6140e7565b5b600061371b858286016135d8565b925050602061372c858286016135d8565b9150509250929050565b60006137428383613766565b60208301905092915050565b600061375a838361397d565b60208301905092915050565b61376f81613ebc565b82525050565b61377e81613ebc565b82525050565b600061378f82613dc4565b6137998185613dff565b93506137a483613da4565b8060005b838110156137d55781516137bc8882613736565b97506137c783613de5565b9250506001810190506137a8565b5085935050505092915050565b60006137ed82613dcf565b6137f78185613e10565b935061380283613db4565b8060005b8381101561383357815161381a888261374e565b975061382583613df2565b925050600181019050613806565b5085935050505092915050565b61384981613ece565b82525050565b600061385a82613dda565b6138648185613e21565b9350613874818560208601613f13565b61387d816140ec565b840191505092915050565b6000613895602d83613e21565b91506138a0826140fd565b604082019050919050565b60006138b8603883613e21565b91506138c38261414c565b604082019050919050565b60006138db601583613e21565b91506138e68261419b565b602082019050919050565b60006138fe601883613e21565b9150613909826141c4565b602082019050919050565b6000613921600c83613e21565b915061392c826141ed565b602082019050919050565b6000613944603683613e21565b915061394f82614216565b604082019050919050565b6000613967603283613e21565b915061397282614265565b604082019050919050565b61398681613efa565b82525050565b61399581613efa565b82525050565b60006020820190506139b06000830184613775565b92915050565b600060208201905081810360008301526139d08184613784565b905092915050565b600060208201905081810360008301526139f281846137e2565b905092915050565b60006060820190508181036000830152613a1481866137e2565b90508181036020830152613a288185613784565b90508181036040830152613a3c81846137e2565b9050949350505050565b6000602082019050613a5b6000830184613840565b92915050565b60006020820190508181036000830152613a7b818461384f565b905092915050565b60006020820190508181036000830152613a9c81613888565b9050919050565b60006020820190508181036000830152613abc816138ab565b9050919050565b60006020820190508181036000830152613adc816138ce565b9050919050565b60006020820190508181036000830152613afc816138f1565b9050919050565b60006020820190508181036000830152613b1c81613914565b9050919050565b60006020820190508181036000830152613b3c81613937565b9050919050565b60006020820190508181036000830152613b5c8161395a565b9050919050565b6000602082019050613b78600083018461398c565b92915050565b6000608082019050613b93600083018761398c565b8181036020830152613ba581866137e2565b90508181036040830152613bb98185613784565b90508181036060830152613bcd81846137e2565b905095945050505050565b600060a082019050613bed600083018861398c565b8181036020830152613bff818761384f565b9050613c0e6040830186613775565b613c1b6060830185613840565b613c28608083018461398c565b9695505050505050565b6000608082019050613c47600083018761398c565b8181036020830152613c59818661384f565b9050613c686040830185613775565b613c75606083018461398c565b95945050505050565b600060c082019050613c93600083018961398c565b8181036020830152613ca5818861384f565b9050613cb46040830187613775565b613cc1606083018661398c565b8181036080830152613cd381856137e2565b905081810360a0830152613ce781846137e2565b9050979650505050505050565b600060a082019050613d09600083018861398c565b8181036020830152613d1b818761384f565b9050613d2a6040830186613775565b613d37606083018561398c565b613d44608083018461398c565b9695505050505050565b6000613d58613d69565b9050613d648282613fa2565b919050565b6000604051905090565b600067ffffffffffffffff821115613d8e57613d8d6140a9565b5b613d97826140ec565b9050602081019050919050565b6000819050602082019050919050565b6000819050602082019050919050565b600081519050919050565b600081519050919050565b600081519050919050565b6000602082019050919050565b6000602082019050919050565b600082825260208201905092915050565b600082825260208201905092915050565b600082825260208201905092915050565b6000613e3d82613efa565b9150613e4883613efa565b9250827fffffffffffffffffffffffffffffffffffffffffffffffffffffffffffffffff03821115613e7d57613e7c61401c565b5b828201905092915050565b6000613e9382613efa565b9150613e9e83613efa565b925082821015613eb157613eb061401c565b5b828203905092915050565b6000613ec782613eda565b9050919050565b60008115159050919050565b600073ffffffffffffffffffffffffffffffffffffffff82169050919050565b6000819050919050565b82818337600083830152505050565b60005b83811015613f31578082015181840152602081019050613f16565b83811115613f40576000848401525b50505050565b6000613f5182613efa565b91506000821415613f6557613f6461401c565b5b600182039050919050565b60006002820490506001821680613f8857607f821691505b60208210811415613f9c57613f9b61404b565b5b50919050565b613fab826140ec565b810181811067ffffffffffffffff82111715613fca57613fc96140a9565b5b80604052505050565b6000613fde82613efa565b91507fffffffffffffffffffffffffffffffffffffffffffffffffffffffffffffffff8214156140115761401061401c565b5b600182019050919050565b7f4e487b7100000000000000000000000000000000000000000000000000000000600052601160045260246000fd5b7f4e487b7100000000000000000000000000000000000000000000000000000000600052602260045260246000fd5b7f4e487b7100000000000000000000000000000000000000000000000000000000600052603260045260246000fd5b7f4e487b7100000000000000000000000000000000000000000000000000000000600052604160045260246000fd5b600080fd5b600080fd5b600080fd5b600080fd5b6000601f19601f8301169050919050565b7f5468697320616464726573732068617320616c7265616479206265656e20736560008201527f74207065726d697373696f6e7300000000000000000000000000000000000000602082015250565b7f3e3e3e546869732070726f666573736f72206973207465616368696e672c206360008201527f616e742072656d6f7665207065726d697373696f6e2121210000000000000000602082015250565b7f3e3e3e3e3e3e697341646d696e203d2066616c73650000000000000000000000600082015250565b7f3e3e3e546869732061646472657373206e6f2065786973740000000000000000600082015250565b7f756e617574686f72697a65640000000000000000000000000000000000000000600082015250565b7f3e3e3e546869732073747564656e74206973206c6561726e696e672c2063616e60008201527f742072656d6f7665207065726d697373696f6e21212100000000000000000000602082015250565b7f3e3e3e5468697320626c6f636b4164647265737320776173206f726967696e6160008201527f6c6c79206e6f7420617574686f72697a65640000000000000000000000000000602082015250565b6142bd81613ebc565b81146142c857600080fd5b50565b6142d481613efa565b81146142df57600080fd5b5056fea2646970667358221220120d23299ee08214892de7ca7c735f9c2761736384479e1d8ce41797549fbb0364736f6c63430008070033",
  "immutableReferences": {},
  "source": "// SPDX-License-Identifier: MIT\r\npragma solidity >=0.4.22 <0.9.0;\r\n\r\n/*\r\n// admin   StructAndModifiers\r\n\r\n1. setPermission()   ==>  0=student; 1=professor; 2=admin\r\n    1 , modifierstudent ,student\r\n    2 , modifierprofessor ,professor\r\n    3 , modifieradmin ,admin\r\n\r\n    If it is set to 1, call the function in the modifier class to add it to the student array and to the student contract at the same time\r\n    If it is set to 2, call the function in the modifier class to add it to the professor array and to the professor contract at the same time\r\n    If it is set to 3, call the function in the modifier class to add it to the admin array and add it to the admin contract at the same time\r\n\r\n2. removePermission() \r\n    professor, student\r\n    Professors need to be allowed to be deprived of permission without teaching tasks and students need to take classes\r\n\r\n\r\n//  : 3. getGradeByAdminId()  You can view the student scores of any course\r\n\r\n\r\n*/\r\n\r\nimport \"./StructAndModifiers.sol\";\r\n\r\ncontract Admin is StructAndModifiers{\r\n\r\n    // onwer +1 1 root   Initialized to 1 because root is automatically added\r\n    uint public personCounts = 1;   //  Record the current number of people\r\n    // id  id  id value, initialize the id value, automatically accumulate\r\n    uint setadmId = 1; // root = 1\r\n    uint setproId = 100;    // proId100\r\n    uint setstuId = 1000;    \r\n    \r\n     ////////////////////////////////////////////////////////////////////////////////////////////////////////////// \r\n    //  Set permission function\r\n    function setPermission(address _blockAddress,string memory _name,uint _authorization) public onlyAdmin returns(bool){\r\n        \r\n        //   Check whether the set permission value is legal\r\n        require(_authorization == 1 || _authorization == 2 || _authorization == 3, \"unauthorized\");\r\n        \r\n        // address  shuo ming yi jing she zhi guo le\r\n        // true ==> \r\n        require(checkAddressExisted(_blockAddress) == false,\"This address has already been set permissions\");\r\n        \r\n        // Record person[]\r\n        //  Self increasing\r\n        personCounts++;\r\n\r\n        if(_authorization == 1){ // \r\n            //   Add him directly to the students\r\n            studentCounts++;\r\n            setstuId++;\r\n            //  \r\n            // Since the course array cannot be assigned at this time, it is assigned one by one\r\n            studentSelfs[studentCounts].stuId = setstuId;\r\n            studentSelfs[studentCounts].stuName = _name;\r\n            studentSelfs[studentCounts].stuBlockAddress = _blockAddress;\r\n            studentSelfs[studentCounts].stuAuthorization = 1;\r\n            studentSelfs[studentCounts].isLearningSum = 0; //  Initialize to no class in progress\r\n            \r\n        }\r\n        else if(_authorization == 2){ // professor\r\n            professorCounts++;\r\n            setproId++;\r\n            // \r\n            // Since the course array cannot be assigned at this time, it is assigned one by one\r\n            professorSelfs[professorCounts].proId = setproId;\r\n            professorSelfs[professorCounts].proName = _name;\r\n            professorSelfs[professorCounts].proBlockAddress = _blockAddress;\r\n            professorSelfs[professorCounts].proAuthorization = 2;\r\n            professorSelfs[professorCounts].isTeachingPeopleSum = 0; //  Initialize to no teaching in progress\r\n\r\n        }\r\n        else if(_authorization == 3){ // Admin\r\n            adminCounts++;\r\n            setadmId++;\r\n            adminSelfs[adminCounts] = AdminSelf(setadmId,_name,_blockAddress,3);\r\n\r\n        }\r\n        //   Setup succeeded\r\n        return true;\r\n       \r\n        \r\n    }\r\n    \r\n    ////////////////////////////////////////////////////////////////////////////////////////////////////////////// \r\n    // , 100 , person  ;  Remove the permission relative to, and set it to 100, that is, person\r\n    function removePermission(address _blockAddress) public onlyAdmin returns(bool){\r\n\r\n        // ID                                     First find out if this ID exists\r\n        require(checkAddressExisted(_blockAddress) == true,\">>>This address no exist\");\r\n        \r\n        // ID                             Then check the permission before this ID\r\n        uint _authorization  = getAuthorizationByAddress(_blockAddress); // index       Call function to get index\r\n        require(_authorization != 0,\">>>This blockAddress was originally not authorized\");\r\n        \r\n        \r\n        //   ;   Remove him from the corresponding permission database according to his permissions\r\n        if(_authorization == 1){ // \r\n            uint studentIndex = getStudentIndexByAddress(_blockAddress);\r\n            // ID  Check if this ID is learning\r\n            require(studentSelfs[studentIndex].isLearningSum == 0,\">>>This student is learning, cant remove permission!!!\"); \r\n            \r\n            //   Direct deletion will leave an empty space\r\n            //   So the latter element overwrites the previous element\r\n            for(uint i=studentIndex;i<studentCounts;i++){\r\n                studentSelfs[i].stuId = studentSelfs[i+1].stuId;\r\n                studentSelfs[i].stuName = studentSelfs[i+1].stuName;\r\n                studentSelfs[i].stuBlockAddress = studentSelfs[i+1].stuBlockAddress;\r\n                studentSelfs[i].stuAuthorization = studentSelfs[i+1].stuAuthorization;\r\n                studentSelfs[i].myStuCourses = studentSelfs[i+1].myStuCourses;\r\n            }\r\n            \r\n            //   Then remove the last element\r\n            delete studentSelfs[studentCounts];\r\n            studentCounts--; \r\n        }\r\n        else if(_authorization == 2){  // professor\r\n            uint professorIndex = getProfessorIndexByAddress(_blockAddress);\r\n            // ID  Check if this ID is in class\r\n            require(professorSelfs[professorIndex].isTeachingPeopleSum == 0,\">>>This professor is teaching, cant remove permission!!!\"); \r\n            \r\n            //   Direct deletion will leave an empty space\r\n            //  So the latter element overrides the previous element\r\n            for(uint i=professorIndex;i<professorCounts;i++){\r\n                professorSelfs[i].proId = professorSelfs[i+1].proId;\r\n                professorSelfs[i].proName = professorSelfs[i+1].proName;\r\n                professorSelfs[i].proBlockAddress = professorSelfs[i+1].proBlockAddress;\r\n                professorSelfs[i].proAuthorization = professorSelfs[i+1].proAuthorization;\r\n                professorSelfs[i].myProCourses = professorSelfs[i+1].myProCourses;\r\n            }\r\n            \r\n            //  Then remove the last element\r\n            delete professorSelfs[professorCounts];\r\n            professorCounts--; \r\n \r\n        }\r\n        else if(_authorization == 3){ // Admin\r\n            uint adminIndex = getAdminIndexByAddress(_blockAddress);\r\n            //   Direct deletion will leave an empty space\r\n            //   So the latter element overrides the previous element\r\n            for(uint i=adminIndex;i<adminCounts;i++){\r\n                adminSelfs[i].adminId = adminSelfs[i+1].adminId;\r\n                adminSelfs[i].adminName = adminSelfs[i+1].adminName;\r\n                adminSelfs[i].adminBlockAddress = adminSelfs[i+1].adminBlockAddress;\r\n                adminSelfs[i].adminAuthorization = adminSelfs[i+1].adminAuthorization;\r\n            }\r\n            \r\n            //   Then remove the last element\r\n            delete adminSelfs[adminCounts];\r\n            adminCounts--; \r\n\r\n        }\r\n        // person\r\n        personCounts--; \r\n\r\n        return true;\r\n        \r\n    }\r\n    \r\n/*    \r\n    //////////////////////////////////////////////////////////////////////////////////////////////////////////////\r\n    //   View results\r\n    // admin,  \r\n    // If it is admin, it can view the scores of all students in all courses\r\n\r\n    function getGradeByAdminAddr(uint _courseId,address _adminBlockAddress) public view onlyAdmin returns(address[] memory, uint[] memory){\r\n        \r\n        // pid Check whether the PID matches the address\r\n        require(_adminBlockAddress == msg.sender,\">>>The Id no match the current address!!!\");\r\n        \r\n        //  Check whether the course information exists\r\n        bool isExisted = checkCourseExisted(_courseId); \r\n        require(isExisted == true,\">>>_courseId no existed!!!\");\r\n        \r\n        ///\r\n        //  The results of all students under the course will be listed\r\n        \r\n        //  Find the course first\r\n        uint indexOfCourseID = getIndexByCourseId(_courseId);\r\n        // ,  \r\n        // Find the length of the array of students stored in this course, that is, the number of students taking this course\r\n        uint courseStudentCounts_ = getcourseStudentCounts(_courseId);\r\n        \r\n        address[] memory studentAddress = new address[](courseStudentCounts_);\r\n        uint[] memory studentsGrade  = new uint[](courseStudentCounts_);\r\n        \r\n        // , 0, courseStudentCounts_1\r\n        // There will be a problem here. The newly created array starts from 0 and coursestudentcounts_ It starts with 1\r\n        for(uint j=1;j<=courseStudentCounts_;j++){\r\n            studentAddress[j-1] = courseInfs[indexOfCourseID].courseStudents[j].stuBlockAddress;\r\n            studentsGrade[j-1] = courseInfs[indexOfCourseID].courseStudents[j].stuGrade;\r\n        }\r\n        \r\n        return (studentAddress,studentsGrade) ;  //  complete\r\n     \r\n    }\r\n\r\n*/\r\n\r\n}\r\n",
  "sourcePath": "D:\\UNIV\\year 4\\capstone\\scouter2\\contracts\\Admin.sol",
  "compiler": {
    "name": "solc",
    "version": "0.8.7+commit.e28d00a7.Emscripten.clang"
  },
  "schemaVersion": "3.4.3",
  "updatedAt": "2021-12-04T19:37:27.373Z",
  "devdoc": {
    "kind": "dev",
    "methods": {},
    "version": 1
  },
  "userdoc": {
    "kind": "user",
    "methods": {},
    "version": 1
  }
}