{
  "contractName": "Admin",
  "abi": [
    {
      "inputs": [],
      "name": "adminCounts",
      "outputs": [
        {
          "internalType": "uint256",
          "name": "",
          "type": "uint256"
        }
      ],
      "stateMutability": "view",
      "type": "function"
    },
    {
      "inputs": [
        {
          "internalType": "uint256",
          "name": "",
          "type": "uint256"
        }
      ],
      "name": "adminSelfs",
      "outputs": [
        {
          "internalType": "uint256",
          "name": "adminId",
          "type": "uint256"
        },
        {
          "internalType": "string",
          "name": "adminName",
          "type": "string"
        },
        {
          "internalType": "address",
          "name": "adminBlockAddress",
          "type": "address"
        },
        {
          "internalType": "uint256",
          "name": "adminAuthorization",
          "type": "uint256"
        }
      ],
      "stateMutability": "view",
      "type": "function"
    },
    {
      "inputs": [],
      "name": "courseCounts",
      "outputs": [
        {
          "internalType": "uint256",
          "name": "",
          "type": "uint256"
        }
      ],
      "stateMutability": "view",
      "type": "function"
    },
    {
      "inputs": [
        {
          "internalType": "uint256",
          "name": "",
          "type": "uint256"
        }
      ],
      "name": "courseInfs",
      "outputs": [
        {
          "internalType": "uint256",
          "name": "courseId",
          "type": "uint256"
        },
        {
          "internalType": "string",
          "name": "courseName",
          "type": "string"
        },
        {
          "internalType": "address",
          "name": "proBlockAddress",
          "type": "address"
        },
        {
          "internalType": "bool",
          "name": "canApply",
          "type": "bool"
        },
        {
          "internalType": "uint256",
          "name": "courseStudentCounts",
          "type": "uint256"
        }
      ],
      "stateMutability": "view",
      "type": "function"
    },
    {
      "inputs": [
        {
          "internalType": "address",
          "name": "_adminBlockAddress",
          "type": "address"
        }
      ],
      "name": "getAdminIndexByAddress",
      "outputs": [
        {
          "internalType": "uint256",
          "name": "",
          "type": "uint256"
        }
      ],
      "stateMutability": "view",
      "type": "function"
    },
    {
      "inputs": [],
      "name": "getAllCourseId",
      "outputs": [
        {
          "internalType": "uint256[]",
          "name": "",
          "type": "uint256[]"
        }
      ],
      "stateMutability": "view",
      "type": "function"
    },
    {
      "inputs": [],
      "name": "getAllStudentAddress",
      "outputs": [
        {
          "internalType": "address[]",
          "name": "",
          "type": "address[]"
        }
      ],
      "stateMutability": "view",
      "type": "function"
    },
    {
      "inputs": [
        {
          "internalType": "address",
          "name": "_address",
          "type": "address"
        }
      ],
      "name": "getAuthorizationByAddress",
      "outputs": [
        {
          "internalType": "uint256",
          "name": "",
          "type": "uint256"
        }
      ],
      "stateMutability": "view",
      "type": "function"
    },
    {
      "inputs": [
        {
          "internalType": "address",
          "name": "_proBlockAddress",
          "type": "address"
        }
      ],
      "name": "getCourseCountsByProAddress",
      "outputs": [
        {
          "internalType": "uint256",
          "name": "",
          "type": "uint256"
        }
      ],
      "stateMutability": "view",
      "type": "function"
    },
    {
      "inputs": [
        {
          "internalType": "address",
          "name": "_proBlockAddress",
          "type": "address"
        }
      ],
      "name": "getCourseIdByProAddress",
      "outputs": [
        {
          "internalType": "uint256[]",
          "name": "",
          "type": "uint256[]"
        }
      ],
      "stateMutability": "view",
      "type": "function"
    },
    {
      "inputs": [
        {
          "internalType": "uint256",
          "name": "_courseid",
          "type": "uint256"
        }
      ],
      "name": "getCourseInfByCourseId",
      "outputs": [
        {
          "internalType": "uint256",
          "name": "",
          "type": "uint256"
        },
        {
          "internalType": "string",
          "name": "",
          "type": "string"
        },
        {
          "internalType": "address",
          "name": "",
          "type": "address"
        },
        {
          "internalType": "uint256",
          "name": "",
          "type": "uint256"
        }
      ],
      "stateMutability": "view",
      "type": "function"
    },
    {
      "inputs": [
        {
          "internalType": "uint256",
          "name": "_courseId",
          "type": "uint256"
        }
      ],
      "name": "getCourseNameByCourseId",
      "outputs": [
        {
          "internalType": "string",
          "name": "",
          "type": "string"
        }
      ],
      "stateMutability": "view",
      "type": "function"
    },
    {
      "inputs": [
        {
          "internalType": "uint256",
          "name": "_courseid",
          "type": "uint256"
        }
      ],
      "name": "getCourseStudentInfByCourseId",
      "outputs": [
        {
          "internalType": "uint256[]",
          "name": "",
          "type": "uint256[]"
        },
        {
          "internalType": "address[]",
          "name": "",
          "type": "address[]"
        },
        {
          "internalType": "uint256[]",
          "name": "",
          "type": "uint256[]"
        }
      ],
      "stateMutability": "view",
      "type": "function"
    },
    {
      "inputs": [
        {
          "internalType": "address",
          "name": "_address",
          "type": "address"
        }
      ],
      "name": "getIdByAddress",
      "outputs": [
        {
          "internalType": "uint256",
          "name": "",
          "type": "uint256"
        }
      ],
      "stateMutability": "view",
      "type": "function"
    },
    {
      "inputs": [
        {
          "internalType": "uint256",
          "name": "_courseId",
          "type": "uint256"
        }
      ],
      "name": "getIndexByCourseId",
      "outputs": [
        {
          "internalType": "uint256",
          "name": "",
          "type": "uint256"
        }
      ],
      "stateMutability": "view",
      "type": "function"
    },
    {
      "inputs": [
        {
          "internalType": "address",
          "name": "_proBlockAddress",
          "type": "address"
        }
      ],
      "name": "getProfessorIndexByAddress",
      "outputs": [
        {
          "internalType": "uint256",
          "name": "",
          "type": "uint256"
        }
      ],
      "stateMutability": "view",
      "type": "function"
    },
    {
      "inputs": [
        {
          "internalType": "address",
          "name": "_profAddr",
          "type": "address"
        }
      ],
      "name": "getProfessorNameByAddress",
      "outputs": [
        {
          "internalType": "string",
          "name": "",
          "type": "string"
        }
      ],
      "stateMutability": "view",
      "type": "function"
    },
    {
      "inputs": [
        {
          "internalType": "uint256",
          "name": "_stuId",
          "type": "uint256"
        }
      ],
      "name": "getStuAddressByStuId",
      "outputs": [
        {
          "internalType": "address",
          "name": "",
          "type": "address"
        }
      ],
      "stateMutability": "view",
      "type": "function"
    },
    {
      "inputs": [
        {
          "internalType": "uint256",
          "name": "_courseId",
          "type": "uint256"
        },
        {
          "internalType": "address",
          "name": "_stuAddress",
          "type": "address"
        }
      ],
      "name": "getStudentGradeByCourseIdAndStuAddr",
      "outputs": [
        {
          "internalType": "uint256",
          "name": "",
          "type": "uint256"
        }
      ],
      "stateMutability": "view",
      "type": "function"
    },
    {
      "inputs": [
        {
          "internalType": "address",
          "name": "_stuBlockAddress",
          "type": "address"
        }
      ],
      "name": "getStudentIndexByAddress",
      "outputs": [
        {
          "internalType": "uint256",
          "name": "",
          "type": "uint256"
        }
      ],
      "stateMutability": "view",
      "type": "function"
    },
    {
      "inputs": [
        {
          "internalType": "address",
          "name": "_stuBlockAddress",
          "type": "address"
        }
      ],
      "name": "getStudentInfByStuAddress",
      "outputs": [
        {
          "internalType": "uint256",
          "name": "",
          "type": "uint256"
        },
        {
          "internalType": "string",
          "name": "",
          "type": "string"
        },
        {
          "internalType": "address",
          "name": "",
          "type": "address"
        },
        {
          "internalType": "uint256",
          "name": "",
          "type": "uint256"
        },
        {
          "internalType": "uint256[]",
          "name": "",
          "type": "uint256[]"
        },
        {
          "internalType": "uint256[]",
          "name": "",
          "type": "uint256[]"
        }
      ],
      "stateMutability": "view",
      "type": "function"
    },
    {
      "inputs": [
        {
          "internalType": "uint256",
          "name": "_stuId",
          "type": "uint256"
        }
      ],
      "name": "getStudentNameById",
      "outputs": [
        {
          "internalType": "string",
          "name": "",
          "type": "string"
        }
      ],
      "stateMutability": "view",
      "type": "function"
    },
    {
      "inputs": [
        {
          "internalType": "uint256",
          "name": "_courseid",
          "type": "uint256"
        },
        {
          "internalType": "uint256",
          "name": "_getTops",
          "type": "uint256"
        }
      ],
      "name": "getTopStudentsByCourseId",
      "outputs": [
        {
          "internalType": "uint256",
          "name": "",
          "type": "uint256"
        },
        {
          "internalType": "uint256[]",
          "name": "",
          "type": "uint256[]"
        },
        {
          "internalType": "address[]",
          "name": "",
          "type": "address[]"
        },
        {
          "internalType": "uint256[]",
          "name": "",
          "type": "uint256[]"
        }
      ],
      "stateMutability": "view",
      "type": "function"
    },
    {
      "inputs": [
        {
          "internalType": "uint256",
          "name": "_courseid",
          "type": "uint256"
        }
      ],
      "name": "getcourseStudentCounts",
      "outputs": [
        {
          "internalType": "uint256",
          "name": "courseStudentCounts_",
          "type": "uint256"
        }
      ],
      "stateMutability": "view",
      "type": "function"
    },
    {
      "inputs": [],
      "name": "modifiersOwner",
      "outputs": [
        {
          "internalType": "address",
          "name": "",
          "type": "address"
        }
      ],
      "stateMutability": "view",
      "type": "function"
    },
    {
      "inputs": [],
      "name": "personCounts",
      "outputs": [
        {
          "internalType": "uint256",
          "name": "",
          "type": "uint256"
        }
      ],
      "stateMutability": "view",
      "type": "function"
    },
    {
      "inputs": [],
      "name": "professorCounts",
      "outputs": [
        {
          "internalType": "uint256",
          "name": "",
          "type": "uint256"
        }
      ],
      "stateMutability": "view",
      "type": "function"
    },
    {
      "inputs": [
        {
          "internalType": "uint256",
          "name": "",
          "type": "uint256"
        }
      ],
      "name": "professorSelfs",
      "outputs": [
        {
          "internalType": "uint256",
          "name": "proId",
          "type": "uint256"
        },
        {
          "internalType": "string",
          "name": "proName",
          "type": "string"
        },
        {
          "internalType": "address",
          "name": "proBlockAddress",
          "type": "address"
        },
        {
          "internalType": "uint256",
          "name": "proAuthorization",
          "type": "uint256"
        },
        {
          "internalType": "uint256",
          "name": "isTeachingPeopleSum",
          "type": "uint256"
        }
      ],
      "stateMutability": "view",
      "type": "function"
    },
    {
      "inputs": [],
      "name": "studentCounts",
      "outputs": [
        {
          "internalType": "uint256",
          "name": "",
          "type": "uint256"
        }
      ],
      "stateMutability": "view",
      "type": "function"
    },
    {
      "inputs": [
        {
          "internalType": "uint256",
          "name": "",
          "type": "uint256"
        }
      ],
      "name": "studentSelfs",
      "outputs": [
        {
          "internalType": "uint256",
          "name": "stuId",
          "type": "uint256"
        },
        {
          "internalType": "string",
          "name": "stuName",
          "type": "string"
        },
        {
          "internalType": "address",
          "name": "stuBlockAddress",
          "type": "address"
        },
        {
          "internalType": "uint256",
          "name": "stuAuthorization",
          "type": "uint256"
        },
        {
          "internalType": "uint256",
          "name": "isLearningSum",
          "type": "uint256"
        }
      ],
      "stateMutability": "view",
      "type": "function"
    },
    {
      "inputs": [
        {
          "internalType": "address",
          "name": "_blockAddress",
          "type": "address"
        },
        {
          "internalType": "string",
          "name": "_name",
          "type": "string"
        },
        {
          "internalType": "uint256",
          "name": "_authorization",
          "type": "uint256"
        }
      ],
      "name": "setPermission",
      "outputs": [
        {
          "internalType": "bool",
          "name": "",
          "type": "bool"
        }
      ],
      "stateMutability": "nonpayable",
      "type": "function"
    },
    {
      "inputs": [
        {
          "internalType": "address",
          "name": "_blockAddress",
          "type": "address"
        }
      ],
      "name": "removePermission",
      "outputs": [
        {
          "internalType": "bool",
          "name": "",
          "type": "bool"
        }
      ],
      "stateMutability": "nonpayable",
      "type": "function"
    }
  ],
  "bytecode": "0x6080604052600060015560006003556000600555600060075560016009556001600a556064600b556103e8600c553480156200003a57600080fd5b50336000806101000a81548173ffffffffffffffffffffffffffffffffffffffff021916908373ffffffffffffffffffffffffffffffffffffffff1602179055506040518060800160405280600181526020016040518060400160405280600481526020017f526f6f7400000000000000000000000000000000000000000000000000000000815250815260200160008054906101000a900473ffffffffffffffffffffffffffffffffffffffff1673ffffffffffffffffffffffffffffffffffffffff1681526020016003815250600260006001815260200190815260200160002060008201518160000155602082015181600101908051906020019062000145929190620001ba565b5060408201518160020160006101000a81548173ffffffffffffffffffffffffffffffffffffffff021916908373ffffffffffffffffffffffffffffffffffffffff1602179055506060820151816003015590505060016000815480929190620001af90620002aa565b919050555062000356565b828054620001c89062000274565b90600052602060002090601f016020900481019282620001ec576000855562000238565b82601f106200020757805160ff191683800117855562000238565b8280016001018555821562000238579182015b82811115620002375782518255916020019190600101906200021a565b5b5090506200024791906200024b565b5090565b5b80821115620002665760008160009055506001016200024c565b5090565b6000819050919050565b600060028204905060018216806200028d57607f821691505b60208210811415620002a457620002a362000327565b5b50919050565b6000620002b7826200026a565b91507fffffffffffffffffffffffffffffffffffffffffffffffffffffffffffffffff821415620002ed57620002ec620002f8565b5b600182019050919050565b7f4e487b7100000000000000000000000000000000000000000000000000000000600052601160045260246000fd5b7f4e487b7100000000000000000000000000000000000000000000000000000000600052602260045260246000fd5b6144c880620003666000396000f3fe608060405234801561001057600080fd5b50600436106101ef5760003560e01c80637860a0691161010f578063ad9e42d9116100a2578063e074bb4711610071578063e074bb47146106f6578063f6aa09e414610726578063fb3189e814610744578063fc0c1f3914610762576101ef565b8063ad9e42d914610636578063c5ad81de14610666578063ced3ae6114610696578063dff3b497146106c6576101ef565b8063982203be116100de578063982203be1461059a57806398aede55146105ca5780639fde0943146105e8578063a5cc464d14610606576101ef565b80637860a069146104e9578063901419401461050757806390eab7a21461053757806394e48ece14610567576101ef565b80632b81bd8d116101875780634d953abb116101565780634d953abb1461042257806358a42065146104525780635e719a4914610487578063606870da146104b7576101ef565b80632b81bd8d1461035b57806330e947111461038b5780634d4fb0d7146103be5780634d64e5ee146103ee576101ef565b80630e3bfd6c116101c35780630e3bfd6c146102aa57806310d756dd146102c85780631643c8db146102f85780632454a9391461032b576101ef565b80624255a6146101f4578063043022fa146102285780630c1596b41461025c5780630d9382fc1461028c575b600080fd5b61020e60048036038101906102099190613839565b610780565b60405161021f959493929190613ea4565b60405180910390f35b610242600480360381019061023d9190613839565b61085e565b604051610253959493929190613d88565b60405180910390f35b6102766004803603810190610271919061379d565b610949565b6040516102839190613b88565b60405180910390f35b610294610a2e565b6040516102a19190613d13565b60405180910390f35b6102b2610a34565b6040516102bf9190613d13565b60405180910390f35b6102e260048036038101906102dd919061379d565b610a3a565b6040516102ef9190613d13565b60405180910390f35b610312600480360381019061030d9190613839565b610adc565b6040516103229493929190613de2565b60405180910390f35b6103456004803603810190610340919061379d565b610bb4565b6040516103529190613d13565b60405180910390f35b61037560048036038101906103709190613839565b610c56565b6040516103829190613c11565b60405180910390f35b6103a560048036038101906103a09190613839565b610d7f565b6040516103b59493929190613de2565b60405180910390f35b6103d860048036038101906103d3919061379d565b610ebf565b6040516103e59190613d13565b60405180910390f35b61040860048036038101906104039190613839565b610eef565b604051610419959493929190613ea4565b60405180910390f35b61043c6004803603810190610437919061379d565b610fcd565b6040516104499190613c11565b60405180910390f35b61046c6004803603810190610467919061379d565b611142565b60405161047e96959493929190613e2e565b60405180910390f35b6104a1600480360381019061049c9190613839565b61136d565b6040516104ae9190613d13565b60405180910390f35b6104d160048036038101906104cc9190613839565b6113d5565b6040516104e093929190613baa565b60405180910390f35b6104f1611670565b6040516104fe9190613d13565b60405180910390f35b610521600480360381019061051c91906137ca565b611676565b60405161052e9190613bf6565b60405180910390f35b610551600480360381019061054c919061379d565b611b58565b60405161055e9190613d13565b60405180910390f35b610581600480360381019061057c91906138a6565b611d6a565b6040516105919493929190613d2e565b60405180910390f35b6105b460048036038101906105af9190613839565b6122a9565b6040516105c19190613b4b565b60405180910390f35b6105d2612335565b6040516105df9190613b4b565b60405180910390f35b6105f0612359565b6040516105fd9190613b66565b60405180910390f35b610620600480360381019061061b919061379d565b612465565b60405161062d9190613d13565b60405180910390f35b610650600480360381019061064b9190613839565b612507565b60405161065d9190613d13565b60405180910390f35b610680600480360381019061067b9190613839565b612568565b60405161068d9190613c11565b60405180910390f35b6106b060048036038101906106ab9190613866565b61261e565b6040516106bd9190613d13565b60405180910390f35b6106e060048036038101906106db919061379d565b612722565b6040516106ed9190613d13565b60405180910390f35b610710600480360381019061070b919061379d565b612934565b60405161071d9190613bf6565b60405180910390f35b61072e613283565b60405161073b9190613b88565b60405180910390f35b61074c613341565b6040516107599190613d13565b60405180910390f35b61076a613347565b6040516107779190613d13565b60405180910390f35b60066020528060005260406000206000915090508060000154908060010180546107a990614120565b80601f01602080910402602001604051908101604052809291908181526020018280546107d590614120565b80156108225780601f106107f757610100808354040283529160200191610822565b820191906000526020600020905b81548152906001019060200180831161080557829003601f168201915b5050505050908060020160009054906101000a900473ffffffffffffffffffffffffffffffffffffffff16908060030154908060050154905085565b600860205280600052604060002060009150905080600001549080600101805461088790614120565b80601f01602080910402602001604051908101604052809291908181526020018280546108b390614120565b80156109005780601f106108d557610100808354040283529160200191610900565b820191906000526020600020905b8154815290600101906020018083116108e357829003601f168201915b5050505050908060020160009054906101000a900473ffffffffffffffffffffffffffffffffffffffff16908060020160149054906101000a900460ff16908060030154905085565b6060600061095683612465565b9050600061096384610ebf565b905060008167ffffffffffffffff81111561098157610980614259565b5b6040519080825280602002602001820160405280156109af5781602001602082028036833780820191505090505b50905060005b82811015610a22576004600085815260200190815260200160002060040181815481106109e5576109e461422a565b5b9060005260206000200154828281518110610a0357610a0261422a565b5b6020026020010181815250508080610a1a90614183565b9150506109b5565b50809350505050919050565b60095481565b60075481565b600080600190505b6001548111610ad1578273ffffffffffffffffffffffffffffffffffffffff166002600083815260200190815260200160002060020160009054906101000a900473ffffffffffffffffffffffffffffffffffffffff1673ffffffffffffffffffffffffffffffffffffffff161415610abe5780915050610ad7565b8080610ac990614183565b915050610a42565b50600090505b919050565b6002602052806000526040600020600091509050806000015490806001018054610b0590614120565b80601f0160208091040260200160405190810160405280929190818152602001828054610b3190614120565b8015610b7e5780601f10610b5357610100808354040283529160200191610b7e565b820191906000526020600020905b815481529060010190602001808311610b6157829003601f168201915b5050505050908060020160009054906101000a900473ffffffffffffffffffffffffffffffffffffffff16908060030154905084565b600080600190505b6005548111610c4b578273ffffffffffffffffffffffffffffffffffffffff166006600083815260200190815260200160002060020160009054906101000a900473ffffffffffffffffffffffffffffffffffffffff1673ffffffffffffffffffffffffffffffffffffffff161415610c385780915050610c51565b8080610c4390614183565b915050610bbc565b50600090505b919050565b60606000600190505b6005548111610d40578260066000838152602001908152602001600020600001541415610d2d57600660008281526020019081526020016000206001018054610ca790614120565b80601f0160208091040260200160405190810160405280929190818152602001828054610cd390614120565b8015610d205780601f10610cf557610100808354040283529160200191610d20565b820191906000526020600020905b815481529060010190602001808311610d0357829003601f168201915b5050505050915050610d7a565b8080610d3890614183565b915050610c5f565b506040518060400160405280600481526020017f6e756c6c0000000000000000000000000000000000000000000000000000000081525090505b919050565b600060606000806000610d9186612507565b90506000600860008381526020019081526020016000206000015490506000600860008481526020019081526020016000206001018054610dd190614120565b80601f0160208091040260200160405190810160405280929190818152602001828054610dfd90614120565b8015610e4a5780601f10610e1f57610100808354040283529160200191610e4a565b820191906000526020600020905b815481529060010190602001808311610e2d57829003601f168201915b5050505050905060006008600085815260200190815260200160002060020160009054906101000a900473ffffffffffffffffffffffffffffffffffffffff16905060006008600086815260200190815260200160002060030154905083838383985098509850985050505050509193509193565b600080610ecb83612465565b90506004600082815260200190815260200160002060040180549050915050919050565b6004602052806000526040600020600091509050806000015490806001018054610f1890614120565b80601f0160208091040260200160405190810160405280929190818152602001828054610f4490614120565b8015610f915780601f10610f6657610100808354040283529160200191610f91565b820191906000526020600020905b815481529060010190602001808311610f7457829003601f168201915b5050505050908060020160009054906101000a900473ffffffffffffffffffffffffffffffffffffffff16908060030154908060050154905085565b60606000600190505b6003548111611103578273ffffffffffffffffffffffffffffffffffffffff166004600083815260200190815260200160002060020160009054906101000a900473ffffffffffffffffffffffffffffffffffffffff1673ffffffffffffffffffffffffffffffffffffffff1614156110f05760046000828152602001908152602001600020600101805461106a90614120565b80601f016020809104026020016040519081016040528092919081815260200182805461109690614120565b80156110e35780601f106110b8576101008083540402835291602001916110e3565b820191906000526020600020905b8154815290600101906020018083116110c657829003601f168201915b505050505091505061113d565b80806110fb90614183565b915050610fd6565b506040518060400160405280600481526020017f6e756c6c0000000000000000000000000000000000000000000000000000000081525090505b919050565b60006060600080606080600061115788610bb4565b9050600060066000838152602001908152602001600020600001549050600060066000848152602001908152602001600020600101805461119790614120565b80601f01602080910402602001604051908101604052809291908181526020018280546111c390614120565b80156112105780601f106111e557610100808354040283529160200191611210565b820191906000526020600020905b8154815290600101906020018083116111f357829003601f168201915b5050505050905060006006600085815260200190815260200160002060030154905060006006600086815260200190815260200160002060040180548060200260200160405190810160405280929190818152602001828054801561129457602002820191906000526020600020905b815481526020019060010190808311611280575b505050505090506000815167ffffffffffffffff8111156112b8576112b7614259565b5b6040519080825280602002602001820160405280156112e65781602001602082028036833780820191505090505b50905060005b825181101561134b5761131983828151811061130b5761130a61422a565b5b60200260200101518f61261e565b82828151811061132c5761132b61422a565b5b602002602001018181525050808061134390614183565b9150506112ec565b5084848e8585859b509b509b509b509b509b5050505050505091939550919395565b600080600190505b60075481116113ce5782600860008381526020019081526020016000206000015414156113bb5760086000828152602001908152602001600020600301549150506113d0565b80806113c690614183565b915050611375565b505b919050565b606080606060006113e585612507565b905060006008600083815260200190815260200160002060030154905060008167ffffffffffffffff81111561141e5761141d614259565b5b60405190808252806020026020018201604052801561144c5781602001602082028036833780820191505090505b50905060008267ffffffffffffffff81111561146b5761146a614259565b5b6040519080825280602002602001820160405280156114995781602001602082028036833780820191505090505b50905060008367ffffffffffffffff8111156114b8576114b7614259565b5b6040519080825280602002602001820160405280156114e65781602001602082028036833780820191505090505b5090506000600190505b84811161165a5760086000878152602001908152602001600020600401600082815260200190815260200160002060000160009054906101000a900473ffffffffffffffffffffffffffffffffffffffff16846001836115509190614038565b815181106115615761156061422a565b5b602002602001019073ffffffffffffffffffffffffffffffffffffffff16908173ffffffffffffffffffffffffffffffffffffffff168152505060086000878152602001908152602001600020600401600082815260200190815260200160002060010154836001836115d49190614038565b815181106115e5576115e461422a565b5b602002602001018181525050600860008781526020019081526020016000206004016000828152602001908152602001600020600201548260018361162a9190614038565b8151811061163b5761163a61422a565b5b602002602001018181525050808061165290614183565b9150506114f0565b5081838297509750975050505050509193909250565b60035481565b6000806000905060005b600154811161170b576002600082815260200190815260200160002060020160009054906101000a900473ffffffffffffffffffffffffffffffffffffffff1673ffffffffffffffffffffffffffffffffffffffff163373ffffffffffffffffffffffffffffffffffffffff1614156116f857600191505b808061170390614183565b915050611680565b508061174c576040517f08c379a000000000000000000000000000000000000000000000000000000000815260040161174390613c73565b60405180910390fd5b600183148061175b5750600283145b806117665750600383145b6117a5576040517f08c379a000000000000000000000000000000000000000000000000000000000815260040161179c90613cb3565b60405180910390fd5b600015156117b28661334d565b1515146117f4576040517f08c379a00000000000000000000000000000000000000000000000000000000081526004016117eb90613c33565b60405180910390fd5b6009600081548092919061180790614183565b91905055506001831415611929576005600081548092919061182890614183565b9190505550600c600081548092919061184090614183565b9190505550600c5460066000600554815260200190815260200160002060000181905550836006600060055481526020019081526020016000206001019080519060200190611890929190613520565b508460066000600554815260200190815260200160002060020160006101000a81548173ffffffffffffffffffffffffffffffffffffffff021916908373ffffffffffffffffffffffffffffffffffffffff160217905550600160066000600554815260200190815260200160002060030181905550600060066000600554815260200190815260200160002060050181905550611b4c565b6002831415611a46576003600081548092919061194590614183565b9190505550600b600081548092919061195d90614183565b9190505550600b54600460006003548152602001908152602001600020600001819055508360046000600354815260200190815260200160002060010190805190602001906119ad929190613520565b508460046000600354815260200190815260200160002060020160006101000a81548173ffffffffffffffffffffffffffffffffffffffff021916908373ffffffffffffffffffffffffffffffffffffffff160217905550600260046000600354815260200190815260200160002060030181905550600060046000600354815260200190815260200160002060050181905550611b4b565b6003831415611b4a5760016000815480929190611a6290614183565b9190505550600a6000815480929190611a7a90614183565b91905055506040518060800160405280600a5481526020018581526020018673ffffffffffffffffffffffffffffffffffffffff1681526020016003815250600260006001548152602001908152602001600020600082015181600001556020820151816001019080519060200190611af4929190613520565b5060408201518160020160006101000a81548173ffffffffffffffffffffffffffffffffffffffff021916908373ffffffffffffffffffffffffffffffffffffffff160217905550606082015181600301559050505b5b5b60019150509392505050565b600080600190505b6001548111611c05578273ffffffffffffffffffffffffffffffffffffffff166002600083815260200190815260200160002060020160009054906101000a900473ffffffffffffffffffffffffffffffffffffffff1673ffffffffffffffffffffffffffffffffffffffff161415611bf2576002600082815260200190815260200160002060030154915050611d65565b8080611bfd90614183565b915050611b60565b506000600190505b6003548111611cb2578273ffffffffffffffffffffffffffffffffffffffff166004600083815260200190815260200160002060020160009054906101000a900473ffffffffffffffffffffffffffffffffffffffff1673ffffffffffffffffffffffffffffffffffffffff161415611c9f576004600082815260200190815260200160002060030154915050611d65565b8080611caa90614183565b915050611c0d565b506000600190505b6005548111611d5f578273ffffffffffffffffffffffffffffffffffffffff166006600083815260200190815260200160002060020160009054906101000a900473ffffffffffffffffffffffffffffffffffffffff1673ffffffffffffffffffffffffffffffffffffffff161415611d4c576006600082815260200190815260200160002060030154915050611d65565b8080611d5790614183565b915050611cba565b50600090505b919050565b600060608060606000859050600080611d8289612507565b905060006008600083815260200190815260200160002060030154905083811015611dab578093505b60008167ffffffffffffffff811115611dc757611dc6614259565b5b604051908082528060200260200182016040528015611df55781602001602082028036833780820191505090505b5090506000600190505b828111611eb1576000600860008681526020019081526020016000206004016000838152602001908152602001600020600201541115611e9e576008600085815260200190815260200160002060040160008281526020019081526020016000206002015482600183611e729190614038565b81518110611e8357611e8261422a565b5b6020026020010181815250508480611e9a90614183565b9550505b8080611ea990614183565b915050611dff565b5084841015611ebe578394505b60005b8151811015611fdc576000600190505b8251811015611fc85782600182611ee89190614038565b81518110611ef957611ef861422a565b5b6020026020010151838281518110611f1457611f1361422a565b5b60200260200101511115611fb557600083600183611f329190614038565b81518110611f4357611f4261422a565b5b60200260200101519050838281518110611f6057611f5f61422a565b5b602002602001015184600184611f769190614038565b81518110611f8757611f8661422a565b5b60200260200101818152505080848381518110611fa757611fa661422a565b5b602002602001018181525050505b8080611fc090614183565b915050611ed1565b508080611fd490614183565b915050611ec1565b5060008567ffffffffffffffff811115611ff957611ff8614259565b5b6040519080825280602002602001820160405280156120275781602001602082028036833780820191505090505b50905060008667ffffffffffffffff81111561204657612045614259565b5b6040519080825280602002602001820160405280156120745781602001602082028036833780820191505090505b50905060008767ffffffffffffffff81111561209357612092614259565b5b6040519080825280602002602001820160405280156120c15781602001602082028036833780820191505090505b5090506000805b855181101561228a57898214156120de5761228a565b8581815181106120f1576120f061422a565b5b602002602001015183828151811061210c5761210b61422a565b5b6020026020010181815250506000600190505b87811161226857600860008a81526020019081526020016000206004016000828152602001908152602001600020600201548483815181106121645761216361422a565b5b6020026020010151141561225557600860008a81526020019081526020016000206004016000828152602001908152602001600020600101548583815181106121b0576121af61422a565b5b602002602001018181525050600860008a8152602001908152602001600020600401600082815260200190815260200160002060000160009054906101000a900473ffffffffffffffffffffffffffffffffffffffff1686838151811061221a5761221961422a565b5b602002602001019073ffffffffffffffffffffffffffffffffffffffff16908173ffffffffffffffffffffffffffffffffffffffff16815250505b808061226090614183565b91505061211f565b50818061227490614183565b925050808061228290614183565b9150506120c8565b50888385849c509c509c509c5050505050505050505092959194509250565b600080600190505b600554811161232a578260066000838152602001908152602001600020600001541415612317576006600082815260200190815260200160002060020160009054906101000a900473ffffffffffffffffffffffffffffffffffffffff16915050612330565b808061232290614183565b9150506122b1565b50600090505b919050565b60008054906101000a900473ffffffffffffffffffffffffffffffffffffffff1681565b6060600060055467ffffffffffffffff81111561237957612378614259565b5b6040519080825280602002602001820160405280156123a75781602001602082028036833780820191505090505b5090506000600190505b600554811161245d576006600082815260200190815260200160002060020160009054906101000a900473ffffffffffffffffffffffffffffffffffffffff16826001836123ff9190614038565b815181106124105761240f61422a565b5b602002602001019073ffffffffffffffffffffffffffffffffffffffff16908173ffffffffffffffffffffffffffffffffffffffff1681525050808061245590614183565b9150506123b1565b508091505090565b600080600190505b60035481116124fc578273ffffffffffffffffffffffffffffffffffffffff166004600083815260200190815260200160002060020160009054906101000a900473ffffffffffffffffffffffffffffffffffffffff1673ffffffffffffffffffffffffffffffffffffffff1614156124e95780915050612502565b80806124f490614183565b91505061246d565b50600090505b919050565b600080600090506000600190505b600754811161255c578360086000838152602001908152602001600020600001541415612549578091508192505050612563565b808061255490614183565b915050612515565b5060009150505b919050565b6060600061257583612507565b905060086000828152602001908152602001600020600101805461259890614120565b80601f01602080910402602001604051908101604052809291908181526020018280546125c490614120565b80156126115780601f106125e657610100808354040283529160200191612611565b820191906000526020600020905b8154815290600101906020018083116125f457829003601f168201915b5050505050915050919050565b60008061262a84612507565b90506000600190505b60086000838152602001908152602001600020600301548111612715578373ffffffffffffffffffffffffffffffffffffffff1660086000848152602001908152602001600020600401600083815260200190815260200160002060000160009054906101000a900473ffffffffffffffffffffffffffffffffffffffff1673ffffffffffffffffffffffffffffffffffffffff16141561270257600860008381526020019081526020016000206004016000828152602001908152602001600020600201549250505061271c565b808061270d90614183565b915050612633565b5060009150505b92915050565b600080600190505b60015481116127cf578273ffffffffffffffffffffffffffffffffffffffff166002600083815260200190815260200160002060020160009054906101000a900473ffffffffffffffffffffffffffffffffffffffff1673ffffffffffffffffffffffffffffffffffffffff1614156127bc57600260008281526020019081526020016000206000015491505061292f565b80806127c790614183565b91505061272a565b506000600190505b600354811161287c578273ffffffffffffffffffffffffffffffffffffffff166004600083815260200190815260200160002060020160009054906101000a900473ffffffffffffffffffffffffffffffffffffffff1673ffffffffffffffffffffffffffffffffffffffff16141561286957600460008281526020019081526020016000206000015491505061292f565b808061287490614183565b9150506127d7565b506000600190505b6005548111612929578273ffffffffffffffffffffffffffffffffffffffff166006600083815260200190815260200160002060020160009054906101000a900473ffffffffffffffffffffffffffffffffffffffff1673ffffffffffffffffffffffffffffffffffffffff16141561291657600660008281526020019081526020016000206000015491505061292f565b808061292190614183565b915050612884565b50600090505b919050565b6000806000905060005b60015481116129c9576002600082815260200190815260200160002060020160009054906101000a900473ffffffffffffffffffffffffffffffffffffffff1673ffffffffffffffffffffffffffffffffffffffff163373ffffffffffffffffffffffffffffffffffffffff1614156129b657600191505b80806129c190614183565b91505061293e565b5080612a0a576040517f08c379a0000000000000000000000000000000000000000000000000000000008152600401612a0190613c73565b60405180910390fd5b60011515612a178461334d565b151514612a59576040517f08c379a0000000000000000000000000000000000000000000000000000000008152600401612a5090613c93565b60405180910390fd5b6000612a6484611b58565b90506000811415612aaa576040517f08c379a0000000000000000000000000000000000000000000000000000000008152600401612aa190613cf3565b60405180910390fd5b6001811415612d7a576000612abe85610bb4565b90506000600660008381526020019081526020016000206005015414612b19576040517f08c379a0000000000000000000000000000000000000000000000000000000008152600401612b1090613cd3565b60405180910390fd5b60008190505b600554811015612ce45760066000600183612b3a9190613fe2565b815260200190815260200160002060000154600660008381526020019081526020016000206000018190555060066000600183612b779190613fe2565b815260200190815260200160002060010160066000838152602001908152602001600020600101908054612baa90614120565b612bb59291906135a6565b5060066000600183612bc79190613fe2565b815260200190815260200160002060020160009054906101000a900473ffffffffffffffffffffffffffffffffffffffff166006600083815260200190815260200160002060020160006101000a81548173ffffffffffffffffffffffffffffffffffffffff021916908373ffffffffffffffffffffffffffffffffffffffff16021790555060066000600183612c5e9190613fe2565b815260200190815260200160002060030154600660008381526020019081526020016000206003018190555060066000600183612c9b9190613fe2565b815260200190815260200160002060040160066000838152602001908152602001600020600401908054612cd0929190613633565b508080612cdc90614183565b915050612b1f565b50600660006005548152602001908152602001600020600080820160009055600182016000612d139190613685565b6002820160006101000a81549073ffffffffffffffffffffffffffffffffffffffff02191690556003820160009055600482016000612d5291906136c5565b6005820160009055505060056000815480929190612d6f906140f6565b919050555050613260565b600281141561304a576000612d8e85612465565b90506000600460008381526020019081526020016000206005015414612de9576040517f08c379a0000000000000000000000000000000000000000000000000000000008152600401612de090613c53565b60405180910390fd5b60008190505b600354811015612fb45760046000600183612e0a9190613fe2565b815260200190815260200160002060000154600460008381526020019081526020016000206000018190555060046000600183612e479190613fe2565b815260200190815260200160002060010160046000838152602001908152602001600020600101908054612e7a90614120565b612e859291906135a6565b5060046000600183612e979190613fe2565b815260200190815260200160002060020160009054906101000a900473ffffffffffffffffffffffffffffffffffffffff166004600083815260200190815260200160002060020160006101000a81548173ffffffffffffffffffffffffffffffffffffffff021916908373ffffffffffffffffffffffffffffffffffffffff16021790555060046000600183612f2e9190613fe2565b815260200190815260200160002060030154600460008381526020019081526020016000206003018190555060046000600183612f6b9190613fe2565b815260200190815260200160002060040160046000838152602001908152602001600020600401908054612fa0929190613633565b508080612fac90614183565b915050612def565b50600460006003548152602001908152602001600020600080820160009055600182016000612fe39190613685565b6002820160006101000a81549073ffffffffffffffffffffffffffffffffffffffff0219169055600382016000905560048201600061302291906136c5565b600582016000905550506003600081548092919061303f906140f6565b91905055505061325f565b600381141561325e57600061305e85610a3a565b905060008190505b6001548110156131e457600260006001836130819190613fe2565b8152602001908152602001600020600001546002600083815260200190815260200160002060000181905550600260006001836130be9190613fe2565b8152602001908152602001600020600101600260008381526020019081526020016000206001019080546130f190614120565b6130fc9291906135a6565b506002600060018361310e9190613fe2565b815260200190815260200160002060020160009054906101000a900473ffffffffffffffffffffffffffffffffffffffff166002600083815260200190815260200160002060020160006101000a81548173ffffffffffffffffffffffffffffffffffffffff021916908373ffffffffffffffffffffffffffffffffffffffff160217905550600260006001836131a59190613fe2565b815260200190815260200160002060030154600260008381526020019081526020016000206003018190555080806131dc90614183565b915050613066565b506002600060015481526020019081526020016000206000808201600090556001820160006132139190613685565b6002820160006101000a81549073ffffffffffffffffffffffffffffffffffffffff02191690556003820160009055505060016000815480929190613257906140f6565b9190505550505b5b5b60096000815480929190613273906140f6565b9190505550600192505050919050565b6060600060075467ffffffffffffffff8111156132a3576132a2614259565b5b6040519080825280602002602001820160405280156132d15781602001602082028036833780820191505090505b5090506000600190505b6007548111613339576008600082815260200190815260200160002060000154826001836133099190614038565b8151811061331a5761331961422a565b5b602002602001018181525050808061333190614183565b9150506132db565b508091505090565b60055481565b60015481565b600080600190505b60015481116133e5578273ffffffffffffffffffffffffffffffffffffffff166002600083815260200190815260200160002060020160009054906101000a900473ffffffffffffffffffffffffffffffffffffffff1673ffffffffffffffffffffffffffffffffffffffff1614156133d257600191505061351b565b80806133dd90614183565b915050613355565b506000600190505b600354811161347d578273ffffffffffffffffffffffffffffffffffffffff166004600083815260200190815260200160002060020160009054906101000a900473ffffffffffffffffffffffffffffffffffffffff1673ffffffffffffffffffffffffffffffffffffffff16141561346a57600191505061351b565b808061347590614183565b9150506133ed565b506000600190505b6005548111613515578273ffffffffffffffffffffffffffffffffffffffff166006600083815260200190815260200160002060020160009054906101000a900473ffffffffffffffffffffffffffffffffffffffff1673ffffffffffffffffffffffffffffffffffffffff16141561350257600191505061351b565b808061350d90614183565b915050613485565b50600090505b919050565b82805461352c90614120565b90600052602060002090601f01602090048101928261354e5760008555613595565b82601f1061356757805160ff1916838001178555613595565b82800160010185558215613595579182015b82811115613594578251825591602001919060010190613579565b5b5090506135a291906136e6565b5090565b8280546135b290614120565b90600052602060002090601f0160209004810192826135d45760008555613622565b82601f106135e55780548555613622565b8280016001018555821561362257600052602060002091601f016020900482015b82811115613621578254825591600101919060010190613606565b5b50905061362f91906136e6565b5090565b8280548282559060005260206000209081019282156136745760005260206000209182015b82811115613673578254825591600101919060010190613658565b5b50905061368191906136e6565b5090565b50805461369190614120565b6000825580601f106136a357506136c2565b601f0160209004906000526020600020908101906136c191906136e6565b5b50565b50805460008255906000526020600020908101906136e391906136e6565b50565b5b808211156136ff5760008160009055506001016136e7565b5090565b600061371661371184613f23565b613efe565b9050828152602081018484840111156137325761373161428d565b5b61373d8482856140b4565b509392505050565b60008135905061375481614464565b92915050565b600082601f83011261376f5761376e614288565b5b813561377f848260208601613703565b91505092915050565b6000813590506137978161447b565b92915050565b6000602082840312156137b3576137b2614297565b5b60006137c184828501613745565b91505092915050565b6000806000606084860312156137e3576137e2614297565b5b60006137f186828701613745565b935050602084013567ffffffffffffffff81111561381257613811614292565b5b61381e8682870161375a565b925050604061382f86828701613788565b9150509250925092565b60006020828403121561384f5761384e614297565b5b600061385d84828501613788565b91505092915050565b6000806040838503121561387d5761387c614297565b5b600061388b85828601613788565b925050602061389c85828601613745565b9150509250929050565b600080604083850312156138bd576138bc614297565b5b60006138cb85828601613788565b92505060206138dc85828601613788565b9150509250929050565b60006138f28383613916565b60208301905092915050565b600061390a8383613b2d565b60208301905092915050565b61391f8161406c565b82525050565b61392e8161406c565b82525050565b600061393f82613f74565b6139498185613faf565b935061395483613f54565b8060005b8381101561398557815161396c88826138e6565b975061397783613f95565b925050600181019050613958565b5085935050505092915050565b600061399d82613f7f565b6139a78185613fc0565b93506139b283613f64565b8060005b838110156139e35781516139ca88826138fe565b97506139d583613fa2565b9250506001810190506139b6565b5085935050505092915050565b6139f98161407e565b82525050565b6000613a0a82613f8a565b613a148185613fd1565b9350613a248185602086016140c3565b613a2d8161429c565b840191505092915050565b6000613a45602d83613fd1565b9150613a50826142ad565b604082019050919050565b6000613a68603883613fd1565b9150613a73826142fc565b604082019050919050565b6000613a8b601583613fd1565b9150613a968261434b565b602082019050919050565b6000613aae601883613fd1565b9150613ab982614374565b602082019050919050565b6000613ad1600c83613fd1565b9150613adc8261439d565b602082019050919050565b6000613af4603683613fd1565b9150613aff826143c6565b604082019050919050565b6000613b17603283613fd1565b9150613b2282614415565b604082019050919050565b613b36816140aa565b82525050565b613b45816140aa565b82525050565b6000602082019050613b606000830184613925565b92915050565b60006020820190508181036000830152613b808184613934565b905092915050565b60006020820190508181036000830152613ba28184613992565b905092915050565b60006060820190508181036000830152613bc48186613992565b90508181036020830152613bd88185613934565b90508181036040830152613bec8184613992565b9050949350505050565b6000602082019050613c0b60008301846139f0565b92915050565b60006020820190508181036000830152613c2b81846139ff565b905092915050565b60006020820190508181036000830152613c4c81613a38565b9050919050565b60006020820190508181036000830152613c6c81613a5b565b9050919050565b60006020820190508181036000830152613c8c81613a7e565b9050919050565b60006020820190508181036000830152613cac81613aa1565b9050919050565b60006020820190508181036000830152613ccc81613ac4565b9050919050565b60006020820190508181036000830152613cec81613ae7565b9050919050565b60006020820190508181036000830152613d0c81613b0a565b9050919050565b6000602082019050613d286000830184613b3c565b92915050565b6000608082019050613d436000830187613b3c565b8181036020830152613d558186613992565b90508181036040830152613d698185613934565b90508181036060830152613d7d8184613992565b905095945050505050565b600060a082019050613d9d6000830188613b3c565b8181036020830152613daf81876139ff565b9050613dbe6040830186613925565b613dcb60608301856139f0565b613dd86080830184613b3c565b9695505050505050565b6000608082019050613df76000830187613b3c565b8181036020830152613e0981866139ff565b9050613e186040830185613925565b613e256060830184613b3c565b95945050505050565b600060c082019050613e436000830189613b3c565b8181036020830152613e5581886139ff565b9050613e646040830187613925565b613e716060830186613b3c565b8181036080830152613e838185613992565b905081810360a0830152613e978184613992565b9050979650505050505050565b600060a082019050613eb96000830188613b3c565b8181036020830152613ecb81876139ff565b9050613eda6040830186613925565b613ee76060830185613b3c565b613ef46080830184613b3c565b9695505050505050565b6000613f08613f19565b9050613f148282614152565b919050565b6000604051905090565b600067ffffffffffffffff821115613f3e57613f3d614259565b5b613f478261429c565b9050602081019050919050565b6000819050602082019050919050565b6000819050602082019050919050565b600081519050919050565b600081519050919050565b600081519050919050565b6000602082019050919050565b6000602082019050919050565b600082825260208201905092915050565b600082825260208201905092915050565b600082825260208201905092915050565b6000613fed826140aa565b9150613ff8836140aa565b9250827fffffffffffffffffffffffffffffffffffffffffffffffffffffffffffffffff0382111561402d5761402c6141cc565b5b828201905092915050565b6000614043826140aa565b915061404e836140aa565b925082821015614061576140606141cc565b5b828203905092915050565b60006140778261408a565b9050919050565b60008115159050919050565b600073ffffffffffffffffffffffffffffffffffffffff82169050919050565b6000819050919050565b82818337600083830152505050565b60005b838110156140e15780820151818401526020810190506140c6565b838111156140f0576000848401525b50505050565b6000614101826140aa565b91506000821415614115576141146141cc565b5b600182039050919050565b6000600282049050600182168061413857607f821691505b6020821081141561414c5761414b6141fb565b5b50919050565b61415b8261429c565b810181811067ffffffffffffffff8211171561417a57614179614259565b5b80604052505050565b600061418e826140aa565b91507fffffffffffffffffffffffffffffffffffffffffffffffffffffffffffffffff8214156141c1576141c06141cc565b5b600182019050919050565b7f4e487b7100000000000000000000000000000000000000000000000000000000600052601160045260246000fd5b7f4e487b7100000000000000000000000000000000000000000000000000000000600052602260045260246000fd5b7f4e487b7100000000000000000000000000000000000000000000000000000000600052603260045260246000fd5b7f4e487b7100000000000000000000000000000000000000000000000000000000600052604160045260246000fd5b600080fd5b600080fd5b600080fd5b600080fd5b6000601f19601f8301169050919050565b7f5468697320616464726573732068617320616c7265616479206265656e20736560008201527f74207065726d697373696f6e7300000000000000000000000000000000000000602082015250565b7f3e3e3e546869732070726f666573736f72206973207465616368696e672c206360008201527f616e742072656d6f7665207065726d697373696f6e2121210000000000000000602082015250565b7f3e3e3e3e3e3e697341646d696e203d2066616c73650000000000000000000000600082015250565b7f3e3e3e546869732061646472657373206e6f2065786973740000000000000000600082015250565b7f756e617574686f72697a65640000000000000000000000000000000000000000600082015250565b7f3e3e3e546869732073747564656e74206973206c6561726e696e672c2063616e60008201527f742072656d6f7665207065726d697373696f6e21212100000000000000000000602082015250565b7f3e3e3e5468697320626c6f636b4164647265737320776173206f726967696e6160008201527f6c6c79206e6f7420617574686f72697a65640000000000000000000000000000602082015250565b61446d8161406c565b811461447857600080fd5b50565b614484816140aa565b811461448f57600080fd5b5056fea2646970667358221220d28276344e6e2570f83d70f152620622b7e7862024c35b1bbdea5b21a15ca1b864736f6c63430008070033",
  "immutableReferences": {},
  "source": "// SPDX-License-Identifier: MIT\npragma solidity >=0.4.22 <0.9.0;\n\n/*\n// admin   StructAndModifiers\n\n1. setPermission()   ==>  0=student; 1=professor; 2=admin\n    1 , modifierstudent ,student\n    2 , modifierprofessor ,professor\n    3 , modifieradmin ,admin\n\n    If it is set to 1, call the function in the modifier class to add it to the student array and to the student contract at the same time\n    If it is set to 2, call the function in the modifier class to add it to the professor array and to the professor contract at the same time\n    If it is set to 3, call the function in the modifier class to add it to the admin array and add it to the admin contract at the same time\n\n2. removePermission() \n    professor, student\n    Professors need to be allowed to be deprived of permission without teaching tasks and students need to take classes\n\n\n//  : 3. getGradeByAdminId()  You can view the student scores of any course\n\n\n*/\n\nimport \"./StructAndModifiers.sol\";\n\ncontract Admin is StructAndModifiers{\n\n    // onwer +1 1 root   Initialized to 1 because root is automatically added\n    uint public personCounts = 1;   //  Record the current number of people\n    // id  id  id value, initialize the id value, automatically accumulate\n    uint setadmId = 1; // root = 1\n    uint setproId = 100;    // proId100\n    uint setstuId = 1000;    \n    \n     ////////////////////////////////////////////////////////////////////////////////////////////////////////////// \n    //  Set permission function\n    function setPermission(address _blockAddress,string memory _name,uint _authorization) public onlyAdmin returns(bool){\n        \n        //   Check whether the set permission value is legal\n        require(_authorization == 1 || _authorization == 2 || _authorization == 3, \"unauthorized\");\n        \n        // address  shuo ming yi jing she zhi guo le\n        // true ==> \n        require(checkAddressExisted(_blockAddress) == false,\"This address has already been set permissions\");\n        \n        // Record person[]\n        //  Self increasing\n        personCounts++;\n\n        if(_authorization == 1){ // \n            //   Add him directly to the students\n            studentCounts++;\n            setstuId++;\n            //  \n            // Since the course array cannot be assigned at this time, it is assigned one by one\n            studentSelfs[studentCounts].stuId = setstuId;\n            studentSelfs[studentCounts].stuName = _name;\n            studentSelfs[studentCounts].stuBlockAddress = _blockAddress;\n            studentSelfs[studentCounts].stuAuthorization = 1;\n            studentSelfs[studentCounts].isLearningSum = 0; //  Initialize to no class in progress\n            \n        }\n        else if(_authorization == 2){ // professor\n            professorCounts++;\n            setproId++;\n            // \n            // Since the course array cannot be assigned at this time, it is assigned one by one\n            professorSelfs[professorCounts].proId = setproId;\n            professorSelfs[professorCounts].proName = _name;\n            professorSelfs[professorCounts].proBlockAddress = _blockAddress;\n            professorSelfs[professorCounts].proAuthorization = 2;\n            professorSelfs[professorCounts].isTeachingPeopleSum = 0; //  Initialize to no teaching in progress\n\n        }\n        else if(_authorization == 3){ // Admin\n            adminCounts++;\n            setadmId++;\n            adminSelfs[adminCounts] = AdminSelf(setadmId,_name,_blockAddress,3);\n\n        }\n        //   Setup succeeded\n        return true;\n       \n        \n    }\n    \n    ////////////////////////////////////////////////////////////////////////////////////////////////////////////// \n    // , 100 , person  ;  Remove the permission relative to, and set it to 100, that is, person\n    function removePermission(address _blockAddress) public onlyAdmin returns(bool){\n\n        // ID                                     First find out if this ID exists\n        require(checkAddressExisted(_blockAddress) == true,\">>>This address no exist\");\n        \n        // ID                             Then check the permission before this ID\n        uint _authorization  = getAuthorizationByAddress(_blockAddress); // index       Call function to get index\n        require(_authorization != 0,\">>>This blockAddress was originally not authorized\");\n        \n        \n        //   ;   Remove him from the corresponding permission database according to his permissions\n        if(_authorization == 1){ // \n            uint studentIndex = getStudentIndexByAddress(_blockAddress);\n            // ID  Check if this ID is learning\n            require(studentSelfs[studentIndex].isLearningSum == 0,\">>>This student is learning, cant remove permission!!!\"); \n            \n            //   Direct deletion will leave an empty space\n            //   So the latter element overwrites the previous element\n            for(uint i=studentIndex;i<studentCounts;i++){\n                studentSelfs[i].stuId = studentSelfs[i+1].stuId;\n                studentSelfs[i].stuName = studentSelfs[i+1].stuName;\n                studentSelfs[i].stuBlockAddress = studentSelfs[i+1].stuBlockAddress;\n                studentSelfs[i].stuAuthorization = studentSelfs[i+1].stuAuthorization;\n                studentSelfs[i].myStuCourses = studentSelfs[i+1].myStuCourses;\n            }\n            \n            //   Then remove the last element\n            delete studentSelfs[studentCounts];\n            studentCounts--; \n        }\n        else if(_authorization == 2){  // professor\n            uint professorIndex = getProfessorIndexByAddress(_blockAddress);\n            // ID  Check if this ID is in class\n            require(professorSelfs[professorIndex].isTeachingPeopleSum == 0,\">>>This professor is teaching, cant remove permission!!!\"); \n            \n            //   Direct deletion will leave an empty space\n            //  So the latter element overrides the previous element\n            for(uint i=professorIndex;i<professorCounts;i++){\n                professorSelfs[i].proId = professorSelfs[i+1].proId;\n                professorSelfs[i].proName = professorSelfs[i+1].proName;\n                professorSelfs[i].proBlockAddress = professorSelfs[i+1].proBlockAddress;\n                professorSelfs[i].proAuthorization = professorSelfs[i+1].proAuthorization;\n                professorSelfs[i].myProCourses = professorSelfs[i+1].myProCourses;\n            }\n            \n            //  Then remove the last element\n            delete professorSelfs[professorCounts];\n            professorCounts--; \n \n        }\n        else if(_authorization == 3){ // Admin\n            uint adminIndex = getAdminIndexByAddress(_blockAddress);\n            //   Direct deletion will leave an empty space\n            //   So the latter element overrides the previous element\n            for(uint i=adminIndex;i<adminCounts;i++){\n                adminSelfs[i].adminId = adminSelfs[i+1].adminId;\n                adminSelfs[i].adminName = adminSelfs[i+1].adminName;\n                adminSelfs[i].adminBlockAddress = adminSelfs[i+1].adminBlockAddress;\n                adminSelfs[i].adminAuthorization = adminSelfs[i+1].adminAuthorization;\n            }\n            \n            //   Then remove the last element\n            delete adminSelfs[adminCounts];\n            adminCounts--; \n\n        }\n        // person\n        personCounts--; \n\n        return true;\n        \n    }\n    \n/*    \n    //////////////////////////////////////////////////////////////////////////////////////////////////////////////\n    //   View results\n    // admin,  \n    // If it is admin, it can view the scores of all students in all courses\n\n    function getGradeByAdminAddr(uint _courseId,address _adminBlockAddress) public view onlyAdmin returns(address[] memory, uint[] memory){\n        \n        // pid Check whether the PID matches the address\n        require(_adminBlockAddress == msg.sender,\">>>The Id no match the current address!!!\");\n        \n        //  Check whether the course information exists\n        bool isExisted = checkCourseExisted(_courseId); \n        require(isExisted == true,\">>>_courseId no existed!!!\");\n        \n        ///\n        //  The results of all students under the course will be listed\n        \n        //  Find the course first\n        uint indexOfCourseID = getIndexByCourseId(_courseId);\n        // ,  \n        // Find the length of the array of students stored in this course, that is, the number of students taking this course\n        uint courseStudentCounts_ = getcourseStudentCounts(_courseId);\n        \n        address[] memory studentAddress = new address[](courseStudentCounts_);\n        uint[] memory studentsGrade  = new uint[](courseStudentCounts_);\n        \n        // , 0, courseStudentCounts_1\n        // There will be a problem here. The newly created array starts from 0 and coursestudentcounts_ It starts with 1\n        for(uint j=1;j<=courseStudentCounts_;j++){\n            studentAddress[j-1] = courseInfs[indexOfCourseID].courseStudents[j].stuBlockAddress;\n            studentsGrade[j-1] = courseInfs[indexOfCourseID].courseStudents[j].stuGrade;\n        }\n        \n        return (studentAddress,studentsGrade) ;  //  complete\n     \n    }\n\n*/\n\n}\n",
  "sourcePath": "/Users/sophotky/Computer-Science/blockchain/capstone/scouter2/contracts/Admin.sol",
  "compiler": {
    "name": "solc",
    "version": "0.8.7+commit.e28d00a7.Emscripten.clang"
  },
  "schemaVersion": "3.4.3",
  "updatedAt": "2021-12-05T05:13:15.645Z",
  "devdoc": {
    "kind": "dev",
    "methods": {},
    "version": 1
  },
  "userdoc": {
    "kind": "user",
    "methods": {},
    "version": 1
  }
}