{
  "contractName": "Admin",
  "abi": [
    {
      "inputs": [],
      "name": "adminCounts",
      "outputs": [
        {
          "internalType": "uint256",
          "name": "",
          "type": "uint256"
        }
      ],
      "stateMutability": "view",
      "type": "function"
    },
    {
      "inputs": [
        {
          "internalType": "uint256",
          "name": "",
          "type": "uint256"
        }
      ],
      "name": "adminSelfs",
      "outputs": [
        {
          "internalType": "uint256",
          "name": "adminId",
          "type": "uint256"
        },
        {
          "internalType": "string",
          "name": "adminName",
          "type": "string"
        },
        {
          "internalType": "address",
          "name": "adminBlockAddress",
          "type": "address"
        },
        {
          "internalType": "uint256",
          "name": "adminAuthorization",
          "type": "uint256"
        }
      ],
      "stateMutability": "view",
      "type": "function"
    },
    {
      "inputs": [],
      "name": "courseCounts",
      "outputs": [
        {
          "internalType": "uint256",
          "name": "",
          "type": "uint256"
        }
      ],
      "stateMutability": "view",
      "type": "function"
    },
    {
      "inputs": [
        {
          "internalType": "uint256",
          "name": "",
          "type": "uint256"
        }
      ],
      "name": "courseInfs",
      "outputs": [
        {
          "internalType": "uint256",
          "name": "courseId",
          "type": "uint256"
        },
        {
          "internalType": "string",
          "name": "courseName",
          "type": "string"
        },
        {
          "internalType": "address",
          "name": "proBlockAddress",
          "type": "address"
        },
        {
          "internalType": "bool",
          "name": "canApply",
          "type": "bool"
        },
        {
          "internalType": "uint256",
          "name": "gotStudentGradeCounts",
          "type": "uint256"
        },
        {
          "internalType": "uint256",
          "name": "courseStudentCounts",
          "type": "uint256"
        }
      ],
      "stateMutability": "view",
      "type": "function"
    },
    {
      "inputs": [
        {
          "internalType": "address",
          "name": "_adminBlockAddress",
          "type": "address"
        }
      ],
      "name": "getAdminIndexByAddress",
      "outputs": [
        {
          "internalType": "uint256",
          "name": "",
          "type": "uint256"
        }
      ],
      "stateMutability": "view",
      "type": "function"
    },
    {
      "inputs": [],
      "name": "getAllCourseId",
      "outputs": [
        {
          "internalType": "uint256[]",
          "name": "",
          "type": "uint256[]"
        },
        {
          "internalType": "bool[]",
          "name": "",
          "type": "bool[]"
        }
      ],
      "stateMutability": "view",
      "type": "function"
    },
    {
      "inputs": [],
      "name": "getAllStudentAddress",
      "outputs": [
        {
          "internalType": "address[]",
          "name": "",
          "type": "address[]"
        }
      ],
      "stateMutability": "view",
      "type": "function"
    },
    {
      "inputs": [
        {
          "internalType": "address",
          "name": "_address",
          "type": "address"
        }
      ],
      "name": "getAuthorizationByAddress",
      "outputs": [
        {
          "internalType": "uint256",
          "name": "",
          "type": "uint256"
        }
      ],
      "stateMutability": "view",
      "type": "function"
    },
    {
      "inputs": [
        {
          "internalType": "address",
          "name": "_proBlockAddress",
          "type": "address"
        }
      ],
      "name": "getCourseIdByProAddress",
      "outputs": [
        {
          "internalType": "uint256[]",
          "name": "",
          "type": "uint256[]"
        },
        {
          "internalType": "bool[]",
          "name": "",
          "type": "bool[]"
        }
      ],
      "stateMutability": "view",
      "type": "function"
    },
    {
      "inputs": [
        {
          "internalType": "uint256",
          "name": "_courseid",
          "type": "uint256"
        }
      ],
      "name": "getCourseInfByCourseId",
      "outputs": [
        {
          "internalType": "uint256",
          "name": "",
          "type": "uint256"
        },
        {
          "internalType": "string",
          "name": "",
          "type": "string"
        },
        {
          "internalType": "address",
          "name": "",
          "type": "address"
        },
        {
          "internalType": "uint256",
          "name": "",
          "type": "uint256"
        }
      ],
      "stateMutability": "view",
      "type": "function"
    },
    {
      "inputs": [
        {
          "internalType": "uint256",
          "name": "_courseId",
          "type": "uint256"
        }
      ],
      "name": "getCourseNameByCourseId",
      "outputs": [
        {
          "internalType": "string",
          "name": "",
          "type": "string"
        }
      ],
      "stateMutability": "view",
      "type": "function"
    },
    {
      "inputs": [
        {
          "internalType": "uint256",
          "name": "_courseid",
          "type": "uint256"
        }
      ],
      "name": "getCourseStudentInfByCourseId",
      "outputs": [
        {
          "internalType": "uint256[]",
          "name": "",
          "type": "uint256[]"
        },
        {
          "internalType": "address[]",
          "name": "",
          "type": "address[]"
        },
        {
          "internalType": "uint256[]",
          "name": "",
          "type": "uint256[]"
        }
      ],
      "stateMutability": "view",
      "type": "function"
    },
    {
      "inputs": [
        {
          "internalType": "address",
          "name": "_address",
          "type": "address"
        }
      ],
      "name": "getIdByAddress",
      "outputs": [
        {
          "internalType": "uint256",
          "name": "",
          "type": "uint256"
        }
      ],
      "stateMutability": "view",
      "type": "function"
    },
    {
      "inputs": [
        {
          "internalType": "uint256",
          "name": "_courseId",
          "type": "uint256"
        }
      ],
      "name": "getIndexByCourseId",
      "outputs": [
        {
          "internalType": "uint256",
          "name": "",
          "type": "uint256"
        }
      ],
      "stateMutability": "view",
      "type": "function"
    },
    {
      "inputs": [
        {
          "internalType": "address",
          "name": "_proBlockAddress",
          "type": "address"
        }
      ],
      "name": "getProfessorIndexByAddress",
      "outputs": [
        {
          "internalType": "uint256",
          "name": "",
          "type": "uint256"
        }
      ],
      "stateMutability": "view",
      "type": "function"
    },
    {
      "inputs": [
        {
          "internalType": "address",
          "name": "_profAddr",
          "type": "address"
        }
      ],
      "name": "getProfessorNameByAddress",
      "outputs": [
        {
          "internalType": "string",
          "name": "",
          "type": "string"
        }
      ],
      "stateMutability": "view",
      "type": "function"
    },
    {
      "inputs": [
        {
          "internalType": "uint256",
          "name": "_stuId",
          "type": "uint256"
        }
      ],
      "name": "getStuAddressByStuId",
      "outputs": [
        {
          "internalType": "address",
          "name": "",
          "type": "address"
        }
      ],
      "stateMutability": "view",
      "type": "function"
    },
    {
      "inputs": [
        {
          "internalType": "uint256",
          "name": "_courseId",
          "type": "uint256"
        },
        {
          "internalType": "address",
          "name": "_stuAddress",
          "type": "address"
        }
      ],
      "name": "getStudentGradeByCourseIdAndStuAddr",
      "outputs": [
        {
          "internalType": "uint256",
          "name": "",
          "type": "uint256"
        }
      ],
      "stateMutability": "view",
      "type": "function"
    },
    {
      "inputs": [
        {
          "internalType": "address",
          "name": "_stuBlockAddress",
          "type": "address"
        }
      ],
      "name": "getStudentIndexByAddress",
      "outputs": [
        {
          "internalType": "uint256",
          "name": "",
          "type": "uint256"
        }
      ],
      "stateMutability": "view",
      "type": "function"
    },
    {
      "inputs": [
        {
          "internalType": "address",
          "name": "_stuBlockAddress",
          "type": "address"
        }
      ],
      "name": "getStudentInfByStuAddress",
      "outputs": [
        {
          "internalType": "uint256",
          "name": "",
          "type": "uint256"
        },
        {
          "internalType": "string",
          "name": "",
          "type": "string"
        },
        {
          "internalType": "address",
          "name": "",
          "type": "address"
        },
        {
          "internalType": "uint256",
          "name": "",
          "type": "uint256"
        },
        {
          "internalType": "uint256[]",
          "name": "",
          "type": "uint256[]"
        },
        {
          "internalType": "uint256[]",
          "name": "",
          "type": "uint256[]"
        }
      ],
      "stateMutability": "view",
      "type": "function"
    },
    {
      "inputs": [
        {
          "internalType": "uint256",
          "name": "_stuId",
          "type": "uint256"
        }
      ],
      "name": "getStudentNameById",
      "outputs": [
        {
          "internalType": "string",
          "name": "",
          "type": "string"
        }
      ],
      "stateMutability": "view",
      "type": "function"
    },
    {
      "inputs": [
        {
          "internalType": "uint256",
          "name": "_courseid",
          "type": "uint256"
        },
        {
          "internalType": "uint256",
          "name": "_getTops",
          "type": "uint256"
        }
      ],
      "name": "getTopStudentsByCourseId",
      "outputs": [
        {
          "internalType": "uint256",
          "name": "",
          "type": "uint256"
        },
        {
          "internalType": "uint256[]",
          "name": "",
          "type": "uint256[]"
        },
        {
          "internalType": "address[]",
          "name": "",
          "type": "address[]"
        },
        {
          "internalType": "uint256[]",
          "name": "",
          "type": "uint256[]"
        }
      ],
      "stateMutability": "view",
      "type": "function"
    },
    {
      "inputs": [
        {
          "internalType": "uint256",
          "name": "_courseid",
          "type": "uint256"
        }
      ],
      "name": "getcourseStudentCounts",
      "outputs": [
        {
          "internalType": "uint256",
          "name": "courseStudentCounts_",
          "type": "uint256"
        }
      ],
      "stateMutability": "view",
      "type": "function"
    },
    {
      "inputs": [],
      "name": "modifiersOwner",
      "outputs": [
        {
          "internalType": "address",
          "name": "",
          "type": "address"
        }
      ],
      "stateMutability": "view",
      "type": "function"
    },
    {
      "inputs": [],
      "name": "personCounts",
      "outputs": [
        {
          "internalType": "uint256",
          "name": "",
          "type": "uint256"
        }
      ],
      "stateMutability": "view",
      "type": "function"
    },
    {
      "inputs": [],
      "name": "professorCounts",
      "outputs": [
        {
          "internalType": "uint256",
          "name": "",
          "type": "uint256"
        }
      ],
      "stateMutability": "view",
      "type": "function"
    },
    {
      "inputs": [
        {
          "internalType": "uint256",
          "name": "",
          "type": "uint256"
        }
      ],
      "name": "professorSelfs",
      "outputs": [
        {
          "internalType": "uint256",
          "name": "proId",
          "type": "uint256"
        },
        {
          "internalType": "string",
          "name": "proName",
          "type": "string"
        },
        {
          "internalType": "address",
          "name": "proBlockAddress",
          "type": "address"
        },
        {
          "internalType": "uint256",
          "name": "proAuthorization",
          "type": "uint256"
        },
        {
          "internalType": "uint256",
          "name": "isTeachingPeopleSum",
          "type": "uint256"
        }
      ],
      "stateMutability": "view",
      "type": "function"
    },
    {
      "inputs": [],
      "name": "studentCounts",
      "outputs": [
        {
          "internalType": "uint256",
          "name": "",
          "type": "uint256"
        }
      ],
      "stateMutability": "view",
      "type": "function"
    },
    {
      "inputs": [
        {
          "internalType": "uint256",
          "name": "",
          "type": "uint256"
        }
      ],
      "name": "studentSelfs",
      "outputs": [
        {
          "internalType": "uint256",
          "name": "stuId",
          "type": "uint256"
        },
        {
          "internalType": "string",
          "name": "stuName",
          "type": "string"
        },
        {
          "internalType": "address",
          "name": "stuBlockAddress",
          "type": "address"
        },
        {
          "internalType": "uint256",
          "name": "stuAuthorization",
          "type": "uint256"
        },
        {
          "internalType": "uint256",
          "name": "isLearningSum",
          "type": "uint256"
        }
      ],
      "stateMutability": "view",
      "type": "function"
    },
    {
      "inputs": [
        {
          "internalType": "address",
          "name": "_blockAddress",
          "type": "address"
        },
        {
          "internalType": "string",
          "name": "_name",
          "type": "string"
        },
        {
          "internalType": "uint256",
          "name": "_authorization",
          "type": "uint256"
        }
      ],
      "name": "setPermission",
      "outputs": [
        {
          "internalType": "bool",
          "name": "",
          "type": "bool"
        }
      ],
      "stateMutability": "nonpayable",
      "type": "function"
    },
    {
      "inputs": [
        {
          "internalType": "address",
          "name": "_blockAddress",
          "type": "address"
        }
      ],
      "name": "removePermission",
      "outputs": [
        {
          "internalType": "bool",
          "name": "",
          "type": "bool"
        }
      ],
      "stateMutability": "nonpayable",
      "type": "function"
    }
  ],
  "bytecode": "0x6080604052600060015560006003556000600555600060075560016009556001600a556064600b556103e8600c553480156200003a57600080fd5b50336000806101000a81548173ffffffffffffffffffffffffffffffffffffffff021916908373ffffffffffffffffffffffffffffffffffffffff1602179055506040518060800160405280600181526020016040518060400160405280600481526020017f526f6f7400000000000000000000000000000000000000000000000000000000815250815260200160008054906101000a900473ffffffffffffffffffffffffffffffffffffffff1673ffffffffffffffffffffffffffffffffffffffff1681526020016003815250600260006001815260200190815260200160002060008201518160000155602082015181600101908051906020019062000145929190620001ba565b5060408201518160020160006101000a81548173ffffffffffffffffffffffffffffffffffffffff021916908373ffffffffffffffffffffffffffffffffffffffff1602179055506060820151816003015590505060016000815480929190620001af90620002aa565b919050555062000356565b828054620001c89062000274565b90600052602060002090601f016020900481019282620001ec576000855562000238565b82601f106200020757805160ff191683800117855562000238565b8280016001018555821562000238579182015b82811115620002375782518255916020019190600101906200021a565b5b5090506200024791906200024b565b5090565b5b80821115620002665760008160009055506001016200024c565b5090565b6000819050919050565b600060028204905060018216806200028d57607f821691505b60208210811415620002a457620002a362000327565b5b50919050565b6000620002b7826200026a565b91507fffffffffffffffffffffffffffffffffffffffffffffffffffffffffffffffff821415620002ed57620002ec620002f8565b5b600182019050919050565b7f4e487b7100000000000000000000000000000000000000000000000000000000600052601160045260246000fd5b7f4e487b7100000000000000000000000000000000000000000000000000000000600052602260045260246000fd5b61474580620003666000396000f3fe608060405234801561001057600080fd5b50600436106101e45760003560e01c80637860a0691161010f578063ad9e42d9116100a2578063e074bb4711610071578063e074bb47146106bd578063f6aa09e4146106ed578063fb3189e81461070c578063fc0c1f391461072a576101e4565b8063ad9e42d9146105fd578063c5ad81de1461062d578063ced3ae611461065d578063dff3b4971461068d576101e4565b8063982203be116100de578063982203be1461056157806398aede55146105915780639fde0943146105af578063a5cc464d146105cd576101e4565b80637860a069146104b057806390141940146104ce57806390eab7a2146104fe57806394e48ece1461052e576101e4565b80632454a939116101875780634d953abb116101565780634d953abb146103e957806358a42065146104195780635e719a491461044e578063606870da1461047e576101e4565b80632454a939146103225780632b81bd8d1461035257806330e94711146103825780634d64e5ee146103b5576101e4565b80630d9382fc116101c35780630d9382fc146102835780630e3bfd6c146102a157806310d756dd146102bf5780631643c8db146102ef576101e4565b80624255a6146101e9578063043022fa1461021d5780630c1596b414610252575b600080fd5b61020360048036038101906101fe91906139d5565b610748565b6040516102149594939291906140e8565b60405180910390f35b610237600480360381019061023291906139d5565b610826565b60405161024996959493929190613fbe565b60405180910390f35b61026c60048036038101906102679190613939565b610917565b60405161027a929190613df5565b60405180910390f35b61028b610b0a565b6040516102989190613f49565b60405180910390f35b6102a9610b10565b6040516102b69190613f49565b60405180910390f35b6102d960048036038101906102d49190613939565b610b16565b6040516102e69190613f49565b60405180910390f35b610309600480360381019061030491906139d5565b610bb8565b6040516103199493929190614026565b60405180910390f35b61033c60048036038101906103379190613939565b610c90565b6040516103499190613f49565b60405180910390f35b61036c600480360381019061036791906139d5565b610d32565b6040516103799190613e47565b60405180910390f35b61039c600480360381019061039791906139d5565b610e5b565b6040516103ac9493929190614026565b60405180910390f35b6103cf60048036038101906103ca91906139d5565b610f9b565b6040516103e09594939291906140e8565b60405180910390f35b61040360048036038101906103fe9190613939565b611079565b6040516104109190613e47565b60405180910390f35b610433600480360381019061042e9190613939565b6111ee565b60405161044596959493929190614072565b60405180910390f35b610468600480360381019061046391906139d5565b611419565b6040516104759190613f49565b60405180910390f35b610498600480360381019061049391906139d5565b611481565b6040516104a793929190613da9565b60405180910390f35b6104b861171c565b6040516104c59190613f49565b60405180910390f35b6104e860048036038101906104e39190613966565b611722565b6040516104f59190613e2c565b60405180910390f35b61051860048036038101906105139190613939565b611c04565b6040516105259190613f49565b60405180910390f35b61054860048036038101906105439190613a42565b611e16565b6040516105589493929190613f64565b60405180910390f35b61057b600480360381019061057691906139d5565b612355565b6040516105889190613d6c565b60405180910390f35b6105996123e1565b6040516105a69190613d6c565b60405180910390f35b6105b7612405565b6040516105c49190613d87565b60405180910390f35b6105e760048036038101906105e29190613939565b612511565b6040516105f49190613f49565b60405180910390f35b610617600480360381019061061291906139d5565b6125b3565b6040516106249190613f49565b60405180910390f35b610647600480360381019061064291906139d5565b612614565b6040516106549190613e47565b60405180910390f35b61067760048036038101906106729190613a02565b6126ca565b6040516106849190613f49565b60405180910390f35b6106a760048036038101906106a29190613939565b6127ce565b6040516106b49190613f49565b60405180910390f35b6106d760048036038101906106d29190613939565b6129e0565b6040516106e49190613e2c565b60405180910390f35b6106f561332f565b604051610703929190613df5565b60405180910390f35b6107146134dd565b6040516107219190613f49565b60405180910390f35b6107326134e3565b60405161073f9190613f49565b60405180910390f35b60066020528060005260406000206000915090508060000154908060010180546107719061439d565b80601f016020809104026020016040519081016040528092919081815260200182805461079d9061439d565b80156107ea5780601f106107bf576101008083540402835291602001916107ea565b820191906000526020600020905b8154815290600101906020018083116107cd57829003601f168201915b5050505050908060020160009054906101000a900473ffffffffffffffffffffffffffffffffffffffff16908060030154908060050154905085565b600860205280600052604060002060009150905080600001549080600101805461084f9061439d565b80601f016020809104026020016040519081016040528092919081815260200182805461087b9061439d565b80156108c85780601f1061089d576101008083540402835291602001916108c8565b820191906000526020600020905b8154815290600101906020018083116108ab57829003601f168201915b5050505050908060020160009054906101000a900473ffffffffffffffffffffffffffffffffffffffff16908060020160149054906101000a900460ff16908060030154908060040154905086565b606080600061092584612511565b905060006004600083815260200190815260200160002060040180549050905060008167ffffffffffffffff811115610961576109606144d6565b5b60405190808252806020026020018201604052801561098f5781602001602082028036833780820191505090505b50905060008267ffffffffffffffff8111156109ae576109ad6144d6565b5b6040519080825280602002602001820160405280156109dc5781602001602082028036833780820191505090505b50905060005b83811015610afa57600460008681526020019081526020016000206004018181548110610a1257610a116144a7565b5b9060005260206000200154838281518110610a3057610a2f6144a7565b5b6020026020010181815250506000610a61848381518110610a5457610a536144a7565b5b60200260200101516125b3565b90506000838381518110610a7857610a776144a7565b5b602002602001019015159081151581525050600860008281526020019081526020016000206003015460086000838152602001908152602001600020600401541415610ae6576001838381518110610ad357610ad26144a7565b5b6020026020010190151590811515815250505b508080610af290614400565b9150506109e2565b5081819550955050505050915091565b60095481565b60075481565b600080600190505b6001548111610bad578273ffffffffffffffffffffffffffffffffffffffff166002600083815260200190815260200160002060020160009054906101000a900473ffffffffffffffffffffffffffffffffffffffff1673ffffffffffffffffffffffffffffffffffffffff161415610b9a5780915050610bb3565b8080610ba590614400565b915050610b1e565b50600090505b919050565b6002602052806000526040600020600091509050806000015490806001018054610be19061439d565b80601f0160208091040260200160405190810160405280929190818152602001828054610c0d9061439d565b8015610c5a5780601f10610c2f57610100808354040283529160200191610c5a565b820191906000526020600020905b815481529060010190602001808311610c3d57829003601f168201915b5050505050908060020160009054906101000a900473ffffffffffffffffffffffffffffffffffffffff16908060030154905084565b600080600190505b6005548111610d27578273ffffffffffffffffffffffffffffffffffffffff166006600083815260200190815260200160002060020160009054906101000a900473ffffffffffffffffffffffffffffffffffffffff1673ffffffffffffffffffffffffffffffffffffffff161415610d145780915050610d2d565b8080610d1f90614400565b915050610c98565b50600090505b919050565b60606000600190505b6005548111610e1c578260066000838152602001908152602001600020600001541415610e0957600660008281526020019081526020016000206001018054610d839061439d565b80601f0160208091040260200160405190810160405280929190818152602001828054610daf9061439d565b8015610dfc5780601f10610dd157610100808354040283529160200191610dfc565b820191906000526020600020905b815481529060010190602001808311610ddf57829003601f168201915b5050505050915050610e56565b8080610e1490614400565b915050610d3b565b506040518060400160405280600481526020017f6e756c6c0000000000000000000000000000000000000000000000000000000081525090505b919050565b600060606000806000610e6d866125b3565b90506000600860008381526020019081526020016000206000015490506000600860008481526020019081526020016000206001018054610ead9061439d565b80601f0160208091040260200160405190810160405280929190818152602001828054610ed99061439d565b8015610f265780601f10610efb57610100808354040283529160200191610f26565b820191906000526020600020905b815481529060010190602001808311610f0957829003601f168201915b5050505050905060006008600085815260200190815260200160002060020160009054906101000a900473ffffffffffffffffffffffffffffffffffffffff16905060006008600086815260200190815260200160002060040154905083838383985098509850985050505050509193509193565b6004602052806000526040600020600091509050806000015490806001018054610fc49061439d565b80601f0160208091040260200160405190810160405280929190818152602001828054610ff09061439d565b801561103d5780601f106110125761010080835404028352916020019161103d565b820191906000526020600020905b81548152906001019060200180831161102057829003601f168201915b5050505050908060020160009054906101000a900473ffffffffffffffffffffffffffffffffffffffff16908060030154908060050154905085565b60606000600190505b60035481116111af578273ffffffffffffffffffffffffffffffffffffffff166004600083815260200190815260200160002060020160009054906101000a900473ffffffffffffffffffffffffffffffffffffffff1673ffffffffffffffffffffffffffffffffffffffff16141561119c576004600082815260200190815260200160002060010180546111169061439d565b80601f01602080910402602001604051908101604052809291908181526020018280546111429061439d565b801561118f5780601f106111645761010080835404028352916020019161118f565b820191906000526020600020905b81548152906001019060200180831161117257829003601f168201915b50505050509150506111e9565b80806111a790614400565b915050611082565b506040518060400160405280600481526020017f6e756c6c0000000000000000000000000000000000000000000000000000000081525090505b919050565b60006060600080606080600061120388610c90565b905060006006600083815260200190815260200160002060000154905060006006600084815260200190815260200160002060010180546112439061439d565b80601f016020809104026020016040519081016040528092919081815260200182805461126f9061439d565b80156112bc5780601f10611291576101008083540402835291602001916112bc565b820191906000526020600020905b81548152906001019060200180831161129f57829003601f168201915b5050505050905060006006600085815260200190815260200160002060030154905060006006600086815260200190815260200160002060040180548060200260200160405190810160405280929190818152602001828054801561134057602002820191906000526020600020905b81548152602001906001019080831161132c575b505050505090506000815167ffffffffffffffff811115611364576113636144d6565b5b6040519080825280602002602001820160405280156113925781602001602082028036833780820191505090505b50905060005b82518110156113f7576113c58382815181106113b7576113b66144a7565b5b60200260200101518f6126ca565b8282815181106113d8576113d76144a7565b5b60200260200101818152505080806113ef90614400565b915050611398565b5084848e8585859b509b509b509b509b509b5050505050505091939550919395565b600080600190505b600754811161147a57826008600083815260200190815260200160002060000154141561146757600860008281526020019081526020016000206004015491505061147c565b808061147290614400565b915050611421565b505b919050565b60608060606000611491856125b3565b905060006008600083815260200190815260200160002060040154905060008167ffffffffffffffff8111156114ca576114c96144d6565b5b6040519080825280602002602001820160405280156114f85781602001602082028036833780820191505090505b50905060008267ffffffffffffffff811115611517576115166144d6565b5b6040519080825280602002602001820160405280156115455781602001602082028036833780820191505090505b50905060008367ffffffffffffffff811115611564576115636144d6565b5b6040519080825280602002602001820160405280156115925781602001602082028036833780820191505090505b5090506000600190505b8481116117065760086000878152602001908152602001600020600501600082815260200190815260200160002060000160009054906101000a900473ffffffffffffffffffffffffffffffffffffffff16846001836115fc91906142b5565b8151811061160d5761160c6144a7565b5b602002602001019073ffffffffffffffffffffffffffffffffffffffff16908173ffffffffffffffffffffffffffffffffffffffff1681525050600860008781526020019081526020016000206005016000828152602001908152602001600020600101548360018361168091906142b5565b81518110611691576116906144a7565b5b60200260200101818152505060086000878152602001908152602001600020600501600082815260200190815260200160002060020154826001836116d691906142b5565b815181106116e7576116e66144a7565b5b60200260200101818152505080806116fe90614400565b91505061159c565b5081838297509750975050505050509193909250565b60035481565b6000806000905060005b60015481116117b7576002600082815260200190815260200160002060020160009054906101000a900473ffffffffffffffffffffffffffffffffffffffff1673ffffffffffffffffffffffffffffffffffffffff163373ffffffffffffffffffffffffffffffffffffffff1614156117a457600191505b80806117af90614400565b91505061172c565b50806117f8576040517f08c379a00000000000000000000000000000000000000000000000000000000081526004016117ef90613ea9565b60405180910390fd5b60018314806118075750600283145b806118125750600383145b611851576040517f08c379a000000000000000000000000000000000000000000000000000000000815260040161184890613ee9565b60405180910390fd5b6000151561185e866134e9565b1515146118a0576040517f08c379a000000000000000000000000000000000000000000000000000000000815260040161189790613e69565b60405180910390fd5b600960008154809291906118b390614400565b919050555060018314156119d557600560008154809291906118d490614400565b9190505550600c60008154809291906118ec90614400565b9190505550600c546006600060055481526020019081526020016000206000018190555083600660006005548152602001908152602001600020600101908051906020019061193c9291906136bc565b508460066000600554815260200190815260200160002060020160006101000a81548173ffffffffffffffffffffffffffffffffffffffff021916908373ffffffffffffffffffffffffffffffffffffffff160217905550600160066000600554815260200190815260200160002060030181905550600060066000600554815260200190815260200160002060050181905550611bf8565b6002831415611af257600360008154809291906119f190614400565b9190505550600b6000815480929190611a0990614400565b9190505550600b5460046000600354815260200190815260200160002060000181905550836004600060035481526020019081526020016000206001019080519060200190611a599291906136bc565b508460046000600354815260200190815260200160002060020160006101000a81548173ffffffffffffffffffffffffffffffffffffffff021916908373ffffffffffffffffffffffffffffffffffffffff160217905550600260046000600354815260200190815260200160002060030181905550600060046000600354815260200190815260200160002060050181905550611bf7565b6003831415611bf65760016000815480929190611b0e90614400565b9190505550600a6000815480929190611b2690614400565b91905055506040518060800160405280600a5481526020018581526020018673ffffffffffffffffffffffffffffffffffffffff1681526020016003815250600260006001548152602001908152602001600020600082015181600001556020820151816001019080519060200190611ba09291906136bc565b5060408201518160020160006101000a81548173ffffffffffffffffffffffffffffffffffffffff021916908373ffffffffffffffffffffffffffffffffffffffff160217905550606082015181600301559050505b5b5b60019150509392505050565b600080600190505b6001548111611cb1578273ffffffffffffffffffffffffffffffffffffffff166002600083815260200190815260200160002060020160009054906101000a900473ffffffffffffffffffffffffffffffffffffffff1673ffffffffffffffffffffffffffffffffffffffff161415611c9e576002600082815260200190815260200160002060030154915050611e11565b8080611ca990614400565b915050611c0c565b506000600190505b6003548111611d5e578273ffffffffffffffffffffffffffffffffffffffff166004600083815260200190815260200160002060020160009054906101000a900473ffffffffffffffffffffffffffffffffffffffff1673ffffffffffffffffffffffffffffffffffffffff161415611d4b576004600082815260200190815260200160002060030154915050611e11565b8080611d5690614400565b915050611cb9565b506000600190505b6005548111611e0b578273ffffffffffffffffffffffffffffffffffffffff166006600083815260200190815260200160002060020160009054906101000a900473ffffffffffffffffffffffffffffffffffffffff1673ffffffffffffffffffffffffffffffffffffffff161415611df8576006600082815260200190815260200160002060030154915050611e11565b8080611e0390614400565b915050611d66565b50600090505b919050565b600060608060606000859050600080611e2e896125b3565b905060006008600083815260200190815260200160002060040154905083811015611e57578093505b60008167ffffffffffffffff811115611e7357611e726144d6565b5b604051908082528060200260200182016040528015611ea15781602001602082028036833780820191505090505b5090506000600190505b828111611f5d576000600860008681526020019081526020016000206005016000838152602001908152602001600020600201541115611f4a576008600085815260200190815260200160002060050160008281526020019081526020016000206002015482600183611f1e91906142b5565b81518110611f2f57611f2e6144a7565b5b6020026020010181815250508480611f4690614400565b9550505b8080611f5590614400565b915050611eab565b5084841015611f6a578394505b60005b8151811015612088576000600190505b82518110156120745782600182611f9491906142b5565b81518110611fa557611fa46144a7565b5b6020026020010151838281518110611fc057611fbf6144a7565b5b6020026020010151111561206157600083600183611fde91906142b5565b81518110611fef57611fee6144a7565b5b6020026020010151905083828151811061200c5761200b6144a7565b5b60200260200101518460018461202291906142b5565b81518110612033576120326144a7565b5b60200260200101818152505080848381518110612053576120526144a7565b5b602002602001018181525050505b808061206c90614400565b915050611f7d565b50808061208090614400565b915050611f6d565b5060008567ffffffffffffffff8111156120a5576120a46144d6565b5b6040519080825280602002602001820160405280156120d35781602001602082028036833780820191505090505b50905060008667ffffffffffffffff8111156120f2576120f16144d6565b5b6040519080825280602002602001820160405280156121205781602001602082028036833780820191505090505b50905060008767ffffffffffffffff81111561213f5761213e6144d6565b5b60405190808252806020026020018201604052801561216d5781602001602082028036833780820191505090505b5090506000805b8551811015612336578982141561218a57612336565b85818151811061219d5761219c6144a7565b5b60200260200101518382815181106121b8576121b76144a7565b5b6020026020010181815250506000600190505b87811161231457600860008a81526020019081526020016000206005016000828152602001908152602001600020600201548483815181106122105761220f6144a7565b5b6020026020010151141561230157600860008a815260200190815260200160002060050160008281526020019081526020016000206001015485838151811061225c5761225b6144a7565b5b602002602001018181525050600860008a8152602001908152602001600020600501600082815260200190815260200160002060000160009054906101000a900473ffffffffffffffffffffffffffffffffffffffff168683815181106122c6576122c56144a7565b5b602002602001019073ffffffffffffffffffffffffffffffffffffffff16908173ffffffffffffffffffffffffffffffffffffffff16815250505b808061230c90614400565b9150506121cb565b50818061232090614400565b925050808061232e90614400565b915050612174565b50888385849c509c509c509c5050505050505050505092959194509250565b600080600190505b60055481116123d65782600660008381526020019081526020016000206000015414156123c3576006600082815260200190815260200160002060020160009054906101000a900473ffffffffffffffffffffffffffffffffffffffff169150506123dc565b80806123ce90614400565b91505061235d565b50600090505b919050565b60008054906101000a900473ffffffffffffffffffffffffffffffffffffffff1681565b6060600060055467ffffffffffffffff811115612425576124246144d6565b5b6040519080825280602002602001820160405280156124535781602001602082028036833780820191505090505b5090506000600190505b6005548111612509576006600082815260200190815260200160002060020160009054906101000a900473ffffffffffffffffffffffffffffffffffffffff16826001836124ab91906142b5565b815181106124bc576124bb6144a7565b5b602002602001019073ffffffffffffffffffffffffffffffffffffffff16908173ffffffffffffffffffffffffffffffffffffffff1681525050808061250190614400565b91505061245d565b508091505090565b600080600190505b60035481116125a8578273ffffffffffffffffffffffffffffffffffffffff166004600083815260200190815260200160002060020160009054906101000a900473ffffffffffffffffffffffffffffffffffffffff1673ffffffffffffffffffffffffffffffffffffffff16141561259557809150506125ae565b80806125a090614400565b915050612519565b50600090505b919050565b600080600090506000600190505b60075481116126085783600860008381526020019081526020016000206000015414156125f557809150819250505061260f565b808061260090614400565b9150506125c1565b5060009150505b919050565b60606000612621836125b3565b90506008600082815260200190815260200160002060010180546126449061439d565b80601f01602080910402602001604051908101604052809291908181526020018280546126709061439d565b80156126bd5780601f10612692576101008083540402835291602001916126bd565b820191906000526020600020905b8154815290600101906020018083116126a057829003601f168201915b5050505050915050919050565b6000806126d6846125b3565b90506000600190505b600860008381526020019081526020016000206004015481116127c1578373ffffffffffffffffffffffffffffffffffffffff1660086000848152602001908152602001600020600501600083815260200190815260200160002060000160009054906101000a900473ffffffffffffffffffffffffffffffffffffffff1673ffffffffffffffffffffffffffffffffffffffff1614156127ae5760086000838152602001908152602001600020600501600082815260200190815260200160002060020154925050506127c8565b80806127b990614400565b9150506126df565b5060009150505b92915050565b600080600190505b600154811161287b578273ffffffffffffffffffffffffffffffffffffffff166002600083815260200190815260200160002060020160009054906101000a900473ffffffffffffffffffffffffffffffffffffffff1673ffffffffffffffffffffffffffffffffffffffff1614156128685760026000828152602001908152602001600020600001549150506129db565b808061287390614400565b9150506127d6565b506000600190505b6003548111612928578273ffffffffffffffffffffffffffffffffffffffff166004600083815260200190815260200160002060020160009054906101000a900473ffffffffffffffffffffffffffffffffffffffff1673ffffffffffffffffffffffffffffffffffffffff1614156129155760046000828152602001908152602001600020600001549150506129db565b808061292090614400565b915050612883565b506000600190505b60055481116129d5578273ffffffffffffffffffffffffffffffffffffffff166006600083815260200190815260200160002060020160009054906101000a900473ffffffffffffffffffffffffffffffffffffffff1673ffffffffffffffffffffffffffffffffffffffff1614156129c25760066000828152602001908152602001600020600001549150506129db565b80806129cd90614400565b915050612930565b50600090505b919050565b6000806000905060005b6001548111612a75576002600082815260200190815260200160002060020160009054906101000a900473ffffffffffffffffffffffffffffffffffffffff1673ffffffffffffffffffffffffffffffffffffffff163373ffffffffffffffffffffffffffffffffffffffff161415612a6257600191505b8080612a6d90614400565b9150506129ea565b5080612ab6576040517f08c379a0000000000000000000000000000000000000000000000000000000008152600401612aad90613ea9565b60405180910390fd5b60011515612ac3846134e9565b151514612b05576040517f08c379a0000000000000000000000000000000000000000000000000000000008152600401612afc90613ec9565b60405180910390fd5b6000612b1084611c04565b90506000811415612b56576040517f08c379a0000000000000000000000000000000000000000000000000000000008152600401612b4d90613f29565b60405180910390fd5b6001811415612e26576000612b6a85610c90565b90506000600660008381526020019081526020016000206005015414612bc5576040517f08c379a0000000000000000000000000000000000000000000000000000000008152600401612bbc90613f09565b60405180910390fd5b60008190505b600554811015612d905760066000600183612be6919061425f565b815260200190815260200160002060000154600660008381526020019081526020016000206000018190555060066000600183612c23919061425f565b815260200190815260200160002060010160066000838152602001908152602001600020600101908054612c569061439d565b612c61929190613742565b5060066000600183612c73919061425f565b815260200190815260200160002060020160009054906101000a900473ffffffffffffffffffffffffffffffffffffffff166006600083815260200190815260200160002060020160006101000a81548173ffffffffffffffffffffffffffffffffffffffff021916908373ffffffffffffffffffffffffffffffffffffffff16021790555060066000600183612d0a919061425f565b815260200190815260200160002060030154600660008381526020019081526020016000206003018190555060066000600183612d47919061425f565b815260200190815260200160002060040160066000838152602001908152602001600020600401908054612d7c9291906137cf565b508080612d8890614400565b915050612bcb565b50600660006005548152602001908152602001600020600080820160009055600182016000612dbf9190613821565b6002820160006101000a81549073ffffffffffffffffffffffffffffffffffffffff02191690556003820160009055600482016000612dfe9190613861565b6005820160009055505060056000815480929190612e1b90614373565b91905055505061330c565b60028114156130f6576000612e3a85612511565b90506000600460008381526020019081526020016000206005015414612e95576040517f08c379a0000000000000000000000000000000000000000000000000000000008152600401612e8c90613e89565b60405180910390fd5b60008190505b6003548110156130605760046000600183612eb6919061425f565b815260200190815260200160002060000154600460008381526020019081526020016000206000018190555060046000600183612ef3919061425f565b815260200190815260200160002060010160046000838152602001908152602001600020600101908054612f269061439d565b612f31929190613742565b5060046000600183612f43919061425f565b815260200190815260200160002060020160009054906101000a900473ffffffffffffffffffffffffffffffffffffffff166004600083815260200190815260200160002060020160006101000a81548173ffffffffffffffffffffffffffffffffffffffff021916908373ffffffffffffffffffffffffffffffffffffffff16021790555060046000600183612fda919061425f565b815260200190815260200160002060030154600460008381526020019081526020016000206003018190555060046000600183613017919061425f565b81526020019081526020016000206004016004600083815260200190815260200160002060040190805461304c9291906137cf565b50808061305890614400565b915050612e9b565b5060046000600354815260200190815260200160002060008082016000905560018201600061308f9190613821565b6002820160006101000a81549073ffffffffffffffffffffffffffffffffffffffff021916905560038201600090556004820160006130ce9190613861565b60058201600090555050600360008154809291906130eb90614373565b91905055505061330b565b600381141561330a57600061310a85610b16565b905060008190505b600154811015613290576002600060018361312d919061425f565b81526020019081526020016000206000015460026000838152602001908152602001600020600001819055506002600060018361316a919061425f565b81526020019081526020016000206001016002600083815260200190815260200160002060010190805461319d9061439d565b6131a8929190613742565b50600260006001836131ba919061425f565b815260200190815260200160002060020160009054906101000a900473ffffffffffffffffffffffffffffffffffffffff166002600083815260200190815260200160002060020160006101000a81548173ffffffffffffffffffffffffffffffffffffffff021916908373ffffffffffffffffffffffffffffffffffffffff16021790555060026000600183613251919061425f565b8152602001908152602001600020600301546002600083815260200190815260200160002060030181905550808061328890614400565b915050613112565b506002600060015481526020019081526020016000206000808201600090556001820160006132bf9190613821565b6002820160006101000a81549073ffffffffffffffffffffffffffffffffffffffff0219169055600382016000905550506001600081548092919061330390614373565b9190505550505b5b5b6009600081548092919061331f90614373565b9190505550600192505050919050565b606080600060075467ffffffffffffffff8111156133505761334f6144d6565b5b60405190808252806020026020018201604052801561337e5781602001602082028036833780820191505090505b509050600060075467ffffffffffffffff81111561339f5761339e6144d6565b5b6040519080825280602002602001820160405280156133cd5781602001602082028036833780820191505090505b5090506000600190505b60075481116134d05760086000828152602001908152602001600020600001548360018361340591906142b5565b81518110613416576134156144a7565b5b60200260200101818152505060008260018361343291906142b5565b81518110613443576134426144a7565b5b6020026020010190151590811515815250506008600082815260200190815260200160002060030154600860008381526020019081526020016000206004015414156134bd5760018260018361349991906142b5565b815181106134aa576134a96144a7565b5b6020026020010190151590811515815250505b80806134c890614400565b9150506133d7565b5081819350935050509091565b60055481565b60015481565b600080600190505b6001548111613581578273ffffffffffffffffffffffffffffffffffffffff166002600083815260200190815260200160002060020160009054906101000a900473ffffffffffffffffffffffffffffffffffffffff1673ffffffffffffffffffffffffffffffffffffffff16141561356e5760019150506136b7565b808061357990614400565b9150506134f1565b506000600190505b6003548111613619578273ffffffffffffffffffffffffffffffffffffffff166004600083815260200190815260200160002060020160009054906101000a900473ffffffffffffffffffffffffffffffffffffffff1673ffffffffffffffffffffffffffffffffffffffff1614156136065760019150506136b7565b808061361190614400565b915050613589565b506000600190505b60055481116136b1578273ffffffffffffffffffffffffffffffffffffffff166006600083815260200190815260200160002060020160009054906101000a900473ffffffffffffffffffffffffffffffffffffffff1673ffffffffffffffffffffffffffffffffffffffff16141561369e5760019150506136b7565b80806136a990614400565b915050613621565b50600090505b919050565b8280546136c89061439d565b90600052602060002090601f0160209004810192826136ea5760008555613731565b82601f1061370357805160ff1916838001178555613731565b82800160010185558215613731579182015b82811115613730578251825591602001919060010190613715565b5b50905061373e9190613882565b5090565b82805461374e9061439d565b90600052602060002090601f01602090048101928261377057600085556137be565b82601f1061378157805485556137be565b828001600101855582156137be57600052602060002091601f016020900482015b828111156137bd5782548255916001019190600101906137a2565b5b5090506137cb9190613882565b5090565b8280548282559060005260206000209081019282156138105760005260206000209182015b8281111561380f5782548255916001019190600101906137f4565b5b50905061381d9190613882565b5090565b50805461382d9061439d565b6000825580601f1061383f575061385e565b601f01602090049060005260206000209081019061385d9190613882565b5b50565b508054600082559060005260206000209081019061387f9190613882565b50565b5b8082111561389b576000816000905550600101613883565b5090565b60006138b26138ad84614167565b614142565b9050828152602081018484840111156138ce576138cd61450a565b5b6138d9848285614331565b509392505050565b6000813590506138f0816146e1565b92915050565b600082601f83011261390b5761390a614505565b5b813561391b84826020860161389f565b91505092915050565b600081359050613933816146f8565b92915050565b60006020828403121561394f5761394e614514565b5b600061395d848285016138e1565b91505092915050565b60008060006060848603121561397f5761397e614514565b5b600061398d868287016138e1565b935050602084013567ffffffffffffffff8111156139ae576139ad61450f565b5b6139ba868287016138f6565b92505060406139cb86828701613924565b9150509250925092565b6000602082840312156139eb576139ea614514565b5b60006139f984828501613924565b91505092915050565b60008060408385031215613a1957613a18614514565b5b6000613a2785828601613924565b9250506020613a38858286016138e1565b9150509250929050565b60008060408385031215613a5957613a58614514565b5b6000613a6785828601613924565b9250506020613a7885828601613924565b9150509250929050565b6000613a8e8383613aca565b60208301905092915050565b6000613aa68383613c02565b60208301905092915050565b6000613abe8383613d4e565b60208301905092915050565b613ad3816142e9565b82525050565b613ae2816142e9565b82525050565b6000613af3826141c8565b613afd818561421b565b9350613b0883614198565b8060005b83811015613b39578151613b208882613a82565b9750613b2b836141f4565b925050600181019050613b0c565b5085935050505092915050565b6000613b51826141d3565b613b5b818561422c565b9350613b66836141a8565b8060005b83811015613b97578151613b7e8882613a9a565b9750613b8983614201565b925050600181019050613b6a565b5085935050505092915050565b6000613baf826141de565b613bb9818561423d565b9350613bc4836141b8565b8060005b83811015613bf5578151613bdc8882613ab2565b9750613be78361420e565b925050600181019050613bc8565b5085935050505092915050565b613c0b816142fb565b82525050565b613c1a816142fb565b82525050565b6000613c2b826141e9565b613c35818561424e565b9350613c45818560208601614340565b613c4e81614519565b840191505092915050565b6000613c66602d8361424e565b9150613c718261452a565b604082019050919050565b6000613c8960388361424e565b9150613c9482614579565b604082019050919050565b6000613cac60158361424e565b9150613cb7826145c8565b602082019050919050565b6000613ccf60188361424e565b9150613cda826145f1565b602082019050919050565b6000613cf2600c8361424e565b9150613cfd8261461a565b602082019050919050565b6000613d1560368361424e565b9150613d2082614643565b604082019050919050565b6000613d3860328361424e565b9150613d4382614692565b604082019050919050565b613d5781614327565b82525050565b613d6681614327565b82525050565b6000602082019050613d816000830184613ad9565b92915050565b60006020820190508181036000830152613da18184613ae8565b905092915050565b60006060820190508181036000830152613dc38186613ba4565b90508181036020830152613dd78185613ae8565b90508181036040830152613deb8184613ba4565b9050949350505050565b60006040820190508181036000830152613e0f8185613ba4565b90508181036020830152613e238184613b46565b90509392505050565b6000602082019050613e416000830184613c11565b92915050565b60006020820190508181036000830152613e618184613c20565b905092915050565b60006020820190508181036000830152613e8281613c59565b9050919050565b60006020820190508181036000830152613ea281613c7c565b9050919050565b60006020820190508181036000830152613ec281613c9f565b9050919050565b60006020820190508181036000830152613ee281613cc2565b9050919050565b60006020820190508181036000830152613f0281613ce5565b9050919050565b60006020820190508181036000830152613f2281613d08565b9050919050565b60006020820190508181036000830152613f4281613d2b565b9050919050565b6000602082019050613f5e6000830184613d5d565b92915050565b6000608082019050613f796000830187613d5d565b8181036020830152613f8b8186613ba4565b90508181036040830152613f9f8185613ae8565b90508181036060830152613fb38184613ba4565b905095945050505050565b600060c082019050613fd36000830189613d5d565b8181036020830152613fe58188613c20565b9050613ff46040830187613ad9565b6140016060830186613c11565b61400e6080830185613d5d565b61401b60a0830184613d5d565b979650505050505050565b600060808201905061403b6000830187613d5d565b818103602083015261404d8186613c20565b905061405c6040830185613ad9565b6140696060830184613d5d565b95945050505050565b600060c0820190506140876000830189613d5d565b81810360208301526140998188613c20565b90506140a86040830187613ad9565b6140b56060830186613d5d565b81810360808301526140c78185613ba4565b905081810360a08301526140db8184613ba4565b9050979650505050505050565b600060a0820190506140fd6000830188613d5d565b818103602083015261410f8187613c20565b905061411e6040830186613ad9565b61412b6060830185613d5d565b6141386080830184613d5d565b9695505050505050565b600061414c61415d565b905061415882826143cf565b919050565b6000604051905090565b600067ffffffffffffffff821115614182576141816144d6565b5b61418b82614519565b9050602081019050919050565b6000819050602082019050919050565b6000819050602082019050919050565b6000819050602082019050919050565b600081519050919050565b600081519050919050565b600081519050919050565b600081519050919050565b6000602082019050919050565b6000602082019050919050565b6000602082019050919050565b600082825260208201905092915050565b600082825260208201905092915050565b600082825260208201905092915050565b600082825260208201905092915050565b600061426a82614327565b915061427583614327565b9250827fffffffffffffffffffffffffffffffffffffffffffffffffffffffffffffffff038211156142aa576142a9614449565b5b828201905092915050565b60006142c082614327565b91506142cb83614327565b9250828210156142de576142dd614449565b5b828203905092915050565b60006142f482614307565b9050919050565b60008115159050919050565b600073ffffffffffffffffffffffffffffffffffffffff82169050919050565b6000819050919050565b82818337600083830152505050565b60005b8381101561435e578082015181840152602081019050614343565b8381111561436d576000848401525b50505050565b600061437e82614327565b9150600082141561439257614391614449565b5b600182039050919050565b600060028204905060018216806143b557607f821691505b602082108114156143c9576143c8614478565b5b50919050565b6143d882614519565b810181811067ffffffffffffffff821117156143f7576143f66144d6565b5b80604052505050565b600061440b82614327565b91507fffffffffffffffffffffffffffffffffffffffffffffffffffffffffffffffff82141561443e5761443d614449565b5b600182019050919050565b7f4e487b7100000000000000000000000000000000000000000000000000000000600052601160045260246000fd5b7f4e487b7100000000000000000000000000000000000000000000000000000000600052602260045260246000fd5b7f4e487b7100000000000000000000000000000000000000000000000000000000600052603260045260246000fd5b7f4e487b7100000000000000000000000000000000000000000000000000000000600052604160045260246000fd5b600080fd5b600080fd5b600080fd5b600080fd5b6000601f19601f8301169050919050565b7f5468697320616464726573732068617320616c7265616479206265656e20736560008201527f74207065726d697373696f6e7300000000000000000000000000000000000000602082015250565b7f3e3e3e546869732070726f666573736f72206973207465616368696e672c206360008201527f616e742072656d6f7665207065726d697373696f6e2121210000000000000000602082015250565b7f3e3e3e3e3e3e697341646d696e203d2066616c73650000000000000000000000600082015250565b7f3e3e3e546869732061646472657373206e6f2065786973740000000000000000600082015250565b7f756e617574686f72697a65640000000000000000000000000000000000000000600082015250565b7f3e3e3e546869732073747564656e74206973206c6561726e696e672c2063616e60008201527f742072656d6f7665207065726d697373696f6e21212100000000000000000000602082015250565b7f3e3e3e5468697320626c6f636b4164647265737320776173206f726967696e6160008201527f6c6c79206e6f7420617574686f72697a65640000000000000000000000000000602082015250565b6146ea816142e9565b81146146f557600080fd5b50565b61470181614327565b811461470c57600080fd5b5056fea26469706673582212204d4e2ee17f8d42c78169226033b7a1d94cab2bfc836f6ffef1ab17a3192147f964736f6c63430008070033",
  "immutableReferences": {},
  "source": "// SPDX-License-Identifier: MIT\npragma solidity >=0.4.22 <0.9.0;\n\n/*\n// admin   StructAndModifiers\n\n1. setPermission()   ==>  0=student; 1=professor; 2=admin\n    1 , modifierstudent ,student\n    2 , modifierprofessor ,professor\n    3 , modifieradmin ,admin\n\n    If it is set to 1, call the function in the modifier class to add it to the student array and to the student contract at the same time\n    If it is set to 2, call the function in the modifier class to add it to the professor array and to the professor contract at the same time\n    If it is set to 3, call the function in the modifier class to add it to the admin array and add it to the admin contract at the same time\n\n2. removePermission() \n    professor, student\n    Professors need to be allowed to be deprived of permission without teaching tasks and students need to take classes\n\n\n//  : 3. getGradeByAdminId()  You can view the student scores of any course\n\n\n*/\n\nimport \"./StructAndModifiers.sol\";\n\ncontract Admin is StructAndModifiers{\n\n    // onwer +1 1 root   Initialized to 1 because root is automatically added\n    uint public personCounts = 1;   //  Record the current number of people\n    // id  id  id value, initialize the id value, automatically accumulate\n    uint setadmId = 1; // root = 1\n    uint setproId = 100;    // proId100\n    uint setstuId = 1000;    \n    \n     ////////////////////////////////////////////////////////////////////////////////////////////////////////////// \n    //  Set permission function\n    function setPermission(address _blockAddress,string memory _name,uint _authorization) public onlyAdmin returns(bool){\n        \n        //   Check whether the set permission value is legal\n        require(_authorization == 1 || _authorization == 2 || _authorization == 3, \"unauthorized\");\n        \n        // address  shuo ming yi jing she zhi guo le\n        // true ==> \n        require(checkAddressExisted(_blockAddress) == false,\"This address has already been set permissions\");\n        \n        // Record person[]\n        //  Self increasing\n        personCounts++;\n\n        if(_authorization == 1){ // \n            //   Add him directly to the students\n            studentCounts++;\n            setstuId++;\n            //  \n            // Since the course array cannot be assigned at this time, it is assigned one by one\n            studentSelfs[studentCounts].stuId = setstuId;\n            studentSelfs[studentCounts].stuName = _name;\n            studentSelfs[studentCounts].stuBlockAddress = _blockAddress;\n            studentSelfs[studentCounts].stuAuthorization = 1;\n            studentSelfs[studentCounts].isLearningSum = 0; //  Initialize to no class in progress\n            \n        }\n        else if(_authorization == 2){ // professor\n            professorCounts++;\n            setproId++;\n            // \n            // Since the course array cannot be assigned at this time, it is assigned one by one\n            professorSelfs[professorCounts].proId = setproId;\n            professorSelfs[professorCounts].proName = _name;\n            professorSelfs[professorCounts].proBlockAddress = _blockAddress;\n            professorSelfs[professorCounts].proAuthorization = 2;\n            professorSelfs[professorCounts].isTeachingPeopleSum = 0; //  Initialize to no teaching in progress\n\n        }\n        else if(_authorization == 3){ // Admin\n            adminCounts++;\n            setadmId++;\n            adminSelfs[adminCounts] = AdminSelf(setadmId,_name,_blockAddress,3);\n\n        }\n        //   Setup succeeded\n        return true;\n       \n        \n    }\n    \n    ////////////////////////////////////////////////////////////////////////////////////////////////////////////// \n    // , 100 , person  ;  Remove the permission relative to, and set it to 100, that is, person\n    function removePermission(address _blockAddress) public onlyAdmin returns(bool){\n\n        // ID                                     First find out if this ID exists\n        require(checkAddressExisted(_blockAddress) == true,\">>>This address no exist\");\n        \n        // ID                             Then check the permission before this ID\n        uint _authorization  = getAuthorizationByAddress(_blockAddress); // index       Call function to get index\n        require(_authorization != 0,\">>>This blockAddress was originally not authorized\");\n        \n        \n        //   ;   Remove him from the corresponding permission database according to his permissions\n        if(_authorization == 1){ // \n            uint studentIndex = getStudentIndexByAddress(_blockAddress);\n            // ID  Check if this ID is learning\n            require(studentSelfs[studentIndex].isLearningSum == 0,\">>>This student is learning, cant remove permission!!!\"); \n            \n            //   Direct deletion will leave an empty space\n            //   So the latter element overwrites the previous element\n            for(uint i=studentIndex;i<studentCounts;i++){\n                studentSelfs[i].stuId = studentSelfs[i+1].stuId;\n                studentSelfs[i].stuName = studentSelfs[i+1].stuName;\n                studentSelfs[i].stuBlockAddress = studentSelfs[i+1].stuBlockAddress;\n                studentSelfs[i].stuAuthorization = studentSelfs[i+1].stuAuthorization;\n                studentSelfs[i].myStuCourses = studentSelfs[i+1].myStuCourses;\n            }\n            \n            //   Then remove the last element\n            delete studentSelfs[studentCounts];\n            studentCounts--; \n        }\n        else if(_authorization == 2){  // professor\n            uint professorIndex = getProfessorIndexByAddress(_blockAddress);\n            // ID  Check if this ID is in class\n            require(professorSelfs[professorIndex].isTeachingPeopleSum == 0,\">>>This professor is teaching, cant remove permission!!!\"); \n            \n            //   Direct deletion will leave an empty space\n            //  So the latter element overrides the previous element\n            for(uint i=professorIndex;i<professorCounts;i++){\n                professorSelfs[i].proId = professorSelfs[i+1].proId;\n                professorSelfs[i].proName = professorSelfs[i+1].proName;\n                professorSelfs[i].proBlockAddress = professorSelfs[i+1].proBlockAddress;\n                professorSelfs[i].proAuthorization = professorSelfs[i+1].proAuthorization;\n                professorSelfs[i].myProCourses = professorSelfs[i+1].myProCourses;\n            }\n            \n            //  Then remove the last element\n            delete professorSelfs[professorCounts];\n            professorCounts--; \n \n        }\n        else if(_authorization == 3){ // Admin\n            uint adminIndex = getAdminIndexByAddress(_blockAddress);\n            //   Direct deletion will leave an empty space\n            //   So the latter element overrides the previous element\n            for(uint i=adminIndex;i<adminCounts;i++){\n                adminSelfs[i].adminId = adminSelfs[i+1].adminId;\n                adminSelfs[i].adminName = adminSelfs[i+1].adminName;\n                adminSelfs[i].adminBlockAddress = adminSelfs[i+1].adminBlockAddress;\n                adminSelfs[i].adminAuthorization = adminSelfs[i+1].adminAuthorization;\n            }\n            \n            //   Then remove the last element\n            delete adminSelfs[adminCounts];\n            adminCounts--; \n\n        }\n        // person\n        personCounts--; \n\n        return true;\n        \n    }\n    \n/*    \n    //////////////////////////////////////////////////////////////////////////////////////////////////////////////\n    //   View results\n    // admin,  \n    // If it is admin, it can view the scores of all students in all courses\n\n    function getGradeByAdminAddr(uint _courseId,address _adminBlockAddress) public view onlyAdmin returns(address[] memory, uint[] memory){\n        \n        // pid Check whether the PID matches the address\n        require(_adminBlockAddress == msg.sender,\">>>The Id no match the current address!!!\");\n        \n        //  Check whether the course information exists\n        bool isExisted = checkCourseExisted(_courseId); \n        require(isExisted == true,\">>>_courseId no existed!!!\");\n        \n        ///\n        //  The results of all students under the course will be listed\n        \n        //  Find the course first\n        uint indexOfCourseID = getIndexByCourseId(_courseId);\n        // ,  \n        // Find the length of the array of students stored in this course, that is, the number of students taking this course\n        uint courseStudentCounts_ = getcourseStudentCounts(_courseId);\n        \n        address[] memory studentAddress = new address[](courseStudentCounts_);\n        uint[] memory studentsGrade  = new uint[](courseStudentCounts_);\n        \n        // , 0, courseStudentCounts_1\n        // There will be a problem here. The newly created array starts from 0 and coursestudentcounts_ It starts with 1\n        for(uint j=1;j<=courseStudentCounts_;j++){\n            studentAddress[j-1] = courseInfs[indexOfCourseID].courseStudents[j].stuBlockAddress;\n            studentsGrade[j-1] = courseInfs[indexOfCourseID].courseStudents[j].stuGrade;\n        }\n        \n        return (studentAddress,studentsGrade) ;  //  complete\n     \n    }\n\n*/\n\n}\n",
  "sourcePath": "/Users/sophotky/Computer-Science/blockchain/capstone/scouter2/contracts/Admin.sol",
  "compiler": {
    "name": "solc",
    "version": "0.8.7+commit.e28d00a7.Emscripten.clang"
  },
  "schemaVersion": "3.4.3",
  "updatedAt": "2021-12-05T07:58:40.250Z",
  "devdoc": {
    "kind": "dev",
    "methods": {},
    "version": 1
  },
  "userdoc": {
    "kind": "user",
    "methods": {},
    "version": 1
  }
}