{
  "contractName": "Admin",
  "abi": [
    {
      "constant": true,
      "inputs": [],
      "name": "adminCounts",
      "outputs": [
        {
          "internalType": "uint256",
          "name": "",
          "type": "uint256"
        }
      ],
      "payable": false,
      "stateMutability": "view",
      "type": "function"
    },
    {
      "constant": true,
      "inputs": [
        {
          "internalType": "uint256",
          "name": "",
          "type": "uint256"
        }
      ],
      "name": "adminSelfs",
      "outputs": [
        {
          "internalType": "uint256",
          "name": "adminId",
          "type": "uint256"
        },
        {
          "internalType": "string",
          "name": "adminName",
          "type": "string"
        },
        {
          "internalType": "address",
          "name": "adminBlockAddress",
          "type": "address"
        },
        {
          "internalType": "uint256",
          "name": "adminAuthorization",
          "type": "uint256"
        }
      ],
      "payable": false,
      "stateMutability": "view",
      "type": "function"
    },
    {
      "constant": true,
      "inputs": [],
      "name": "courseCounts",
      "outputs": [
        {
          "internalType": "uint256",
          "name": "",
          "type": "uint256"
        }
      ],
      "payable": false,
      "stateMutability": "view",
      "type": "function"
    },
    {
      "constant": true,
      "inputs": [
        {
          "internalType": "uint256",
          "name": "",
          "type": "uint256"
        }
      ],
      "name": "courseInfs",
      "outputs": [
        {
          "internalType": "uint256",
          "name": "courseId",
          "type": "uint256"
        },
        {
          "internalType": "string",
          "name": "courseName",
          "type": "string"
        },
        {
          "internalType": "address",
          "name": "proBlockAddress",
          "type": "address"
        },
        {
          "internalType": "bool",
          "name": "canApply",
          "type": "bool"
        },
        {
          "internalType": "uint256",
          "name": "courseStudentCounts",
          "type": "uint256"
        }
      ],
      "payable": false,
      "stateMutability": "view",
      "type": "function"
    },
    {
      "constant": true,
      "inputs": [
        {
          "internalType": "uint256",
          "name": "_id",
          "type": "uint256"
        }
      ],
      "name": "getAddressById",
      "outputs": [
        {
          "internalType": "address",
          "name": "",
          "type": "address"
        }
      ],
      "payable": false,
      "stateMutability": "view",
      "type": "function"
    },
    {
      "constant": true,
      "inputs": [],
      "name": "getAdminCounts",
      "outputs": [
        {
          "internalType": "uint256",
          "name": "",
          "type": "uint256"
        }
      ],
      "payable": false,
      "stateMutability": "view",
      "type": "function"
    },
    {
      "constant": true,
      "inputs": [
        {
          "internalType": "address",
          "name": "_adminBlockAddress",
          "type": "address"
        }
      ],
      "name": "getAdminIndexByAddress",
      "outputs": [
        {
          "internalType": "uint256",
          "name": "",
          "type": "uint256"
        }
      ],
      "payable": false,
      "stateMutability": "view",
      "type": "function"
    },
    {
      "constant": true,
      "inputs": [],
      "name": "getAllCourseId",
      "outputs": [
        {
          "internalType": "uint256[]",
          "name": "",
          "type": "uint256[]"
        }
      ],
      "payable": false,
      "stateMutability": "view",
      "type": "function"
    },
    {
      "constant": true,
      "inputs": [],
      "name": "getAllProfessorAddress",
      "outputs": [
        {
          "internalType": "address[]",
          "name": "",
          "type": "address[]"
        }
      ],
      "payable": false,
      "stateMutability": "view",
      "type": "function"
    },
    {
      "constant": true,
      "inputs": [],
      "name": "getAllProfessorId",
      "outputs": [
        {
          "internalType": "uint256[]",
          "name": "",
          "type": "uint256[]"
        }
      ],
      "payable": false,
      "stateMutability": "view",
      "type": "function"
    },
    {
      "constant": true,
      "inputs": [],
      "name": "getAllStudentAddress",
      "outputs": [
        {
          "internalType": "address[]",
          "name": "",
          "type": "address[]"
        }
      ],
      "payable": false,
      "stateMutability": "view",
      "type": "function"
    },
    {
      "constant": true,
      "inputs": [],
      "name": "getAllStudentId",
      "outputs": [
        {
          "internalType": "uint256[]",
          "name": "",
          "type": "uint256[]"
        }
      ],
      "payable": false,
      "stateMutability": "view",
      "type": "function"
    },
    {
      "constant": true,
      "inputs": [
        {
          "internalType": "address",
          "name": "_address",
          "type": "address"
        }
      ],
      "name": "getAuthorizationByAddress",
      "outputs": [
        {
          "internalType": "uint256",
          "name": "",
          "type": "uint256"
        }
      ],
      "payable": false,
      "stateMutability": "view",
      "type": "function"
    },
    {
      "constant": true,
      "inputs": [],
      "name": "getCourseCounts",
      "outputs": [
        {
          "internalType": "uint256",
          "name": "",
          "type": "uint256"
        }
      ],
      "payable": false,
      "stateMutability": "view",
      "type": "function"
    },
    {
      "constant": true,
      "inputs": [
        {
          "internalType": "address",
          "name": "_proBlockAddress",
          "type": "address"
        }
      ],
      "name": "getCourseCountsByProAddress",
      "outputs": [
        {
          "internalType": "uint256",
          "name": "",
          "type": "uint256"
        }
      ],
      "payable": false,
      "stateMutability": "view",
      "type": "function"
    },
    {
      "constant": true,
      "inputs": [
        {
          "internalType": "address",
          "name": "_stuBlockAddress",
          "type": "address"
        }
      ],
      "name": "getCourseCountsByStuAddress",
      "outputs": [
        {
          "internalType": "uint256",
          "name": "",
          "type": "uint256"
        }
      ],
      "payable": false,
      "stateMutability": "view",
      "type": "function"
    },
    {
      "constant": true,
      "inputs": [
        {
          "internalType": "address",
          "name": "_proBlockAddress",
          "type": "address"
        }
      ],
      "name": "getCourseIdByProAddress",
      "outputs": [
        {
          "internalType": "uint256[]",
          "name": "",
          "type": "uint256[]"
        }
      ],
      "payable": false,
      "stateMutability": "view",
      "type": "function"
    },
    {
      "constant": true,
      "inputs": [
        {
          "internalType": "address",
          "name": "_stuBlockAddress",
          "type": "address"
        }
      ],
      "name": "getCourseIdByStuAddress",
      "outputs": [
        {
          "internalType": "uint256[]",
          "name": "",
          "type": "uint256[]"
        }
      ],
      "payable": false,
      "stateMutability": "view",
      "type": "function"
    },
    {
      "constant": true,
      "inputs": [
        {
          "internalType": "uint256",
          "name": "_courseid",
          "type": "uint256"
        }
      ],
      "name": "getCourseInfByCourseId",
      "outputs": [
        {
          "internalType": "uint256",
          "name": "",
          "type": "uint256"
        },
        {
          "internalType": "string",
          "name": "",
          "type": "string"
        },
        {
          "internalType": "address",
          "name": "",
          "type": "address"
        },
        {
          "internalType": "uint256",
          "name": "",
          "type": "uint256"
        },
        {
          "internalType": "address[]",
          "name": "",
          "type": "address[]"
        },
        {
          "internalType": "uint256[]",
          "name": "",
          "type": "uint256[]"
        }
      ],
      "payable": false,
      "stateMutability": "view",
      "type": "function"
    },
    {
      "constant": true,
      "inputs": [
        {
          "internalType": "uint256",
          "name": "_courseid",
          "type": "uint256"
        }
      ],
      "name": "getCourseStudentsByCourseId",
      "outputs": [
        {
          "internalType": "address[]",
          "name": "",
          "type": "address[]"
        },
        {
          "internalType": "uint256[]",
          "name": "",
          "type": "uint256[]"
        }
      ],
      "payable": false,
      "stateMutability": "view",
      "type": "function"
    },
    {
      "constant": true,
      "inputs": [
        {
          "internalType": "address",
          "name": "_address",
          "type": "address"
        }
      ],
      "name": "getIdByAddress",
      "outputs": [
        {
          "internalType": "uint256",
          "name": "",
          "type": "uint256"
        }
      ],
      "payable": false,
      "stateMutability": "view",
      "type": "function"
    },
    {
      "constant": true,
      "inputs": [
        {
          "internalType": "uint256",
          "name": "_courseId",
          "type": "uint256"
        }
      ],
      "name": "getIndexByCourseId",
      "outputs": [
        {
          "internalType": "uint256",
          "name": "",
          "type": "uint256"
        }
      ],
      "payable": false,
      "stateMutability": "view",
      "type": "function"
    },
    {
      "constant": true,
      "inputs": [],
      "name": "getMsgSender",
      "outputs": [
        {
          "internalType": "address",
          "name": "",
          "type": "address"
        }
      ],
      "payable": false,
      "stateMutability": "view",
      "type": "function"
    },
    {
      "constant": true,
      "inputs": [],
      "name": "getMsgSenderAuthorization",
      "outputs": [
        {
          "internalType": "uint256",
          "name": "",
          "type": "uint256"
        }
      ],
      "payable": false,
      "stateMutability": "view",
      "type": "function"
    },
    {
      "constant": true,
      "inputs": [],
      "name": "getProfessorCounts",
      "outputs": [
        {
          "internalType": "uint256",
          "name": "",
          "type": "uint256"
        }
      ],
      "payable": false,
      "stateMutability": "view",
      "type": "function"
    },
    {
      "constant": true,
      "inputs": [
        {
          "internalType": "address",
          "name": "_proBlockAddress",
          "type": "address"
        }
      ],
      "name": "getProfessorIndexByAddress",
      "outputs": [
        {
          "internalType": "uint256",
          "name": "",
          "type": "uint256"
        }
      ],
      "payable": false,
      "stateMutability": "view",
      "type": "function"
    },
    {
      "constant": true,
      "inputs": [
        {
          "internalType": "address",
          "name": "_proBlockAddress",
          "type": "address"
        }
      ],
      "name": "getProfessorInfByProAddress",
      "outputs": [
        {
          "internalType": "uint256",
          "name": "",
          "type": "uint256"
        },
        {
          "internalType": "string",
          "name": "",
          "type": "string"
        },
        {
          "internalType": "address",
          "name": "",
          "type": "address"
        },
        {
          "internalType": "uint256",
          "name": "",
          "type": "uint256"
        },
        {
          "internalType": "uint256[]",
          "name": "",
          "type": "uint256[]"
        }
      ],
      "payable": false,
      "stateMutability": "view",
      "type": "function"
    },
    {
      "constant": true,
      "inputs": [],
      "name": "getStudentCounts",
      "outputs": [
        {
          "internalType": "uint256",
          "name": "",
          "type": "uint256"
        }
      ],
      "payable": false,
      "stateMutability": "view",
      "type": "function"
    },
    {
      "constant": true,
      "inputs": [
        {
          "internalType": "address",
          "name": "_stuBlockAddress",
          "type": "address"
        }
      ],
      "name": "getStudentIndexByAddress",
      "outputs": [
        {
          "internalType": "uint256",
          "name": "",
          "type": "uint256"
        }
      ],
      "payable": false,
      "stateMutability": "view",
      "type": "function"
    },
    {
      "constant": true,
      "inputs": [
        {
          "internalType": "address",
          "name": "_stuBlockAddress",
          "type": "address"
        }
      ],
      "name": "getStudentInfByStuAddress",
      "outputs": [
        {
          "internalType": "uint256",
          "name": "",
          "type": "uint256"
        },
        {
          "internalType": "string",
          "name": "",
          "type": "string"
        },
        {
          "internalType": "address",
          "name": "",
          "type": "address"
        },
        {
          "internalType": "uint256",
          "name": "",
          "type": "uint256"
        },
        {
          "internalType": "uint256[]",
          "name": "",
          "type": "uint256[]"
        }
      ],
      "payable": false,
      "stateMutability": "view",
      "type": "function"
    },
    {
      "constant": true,
      "inputs": [
        {
          "internalType": "uint256",
          "name": "_courseid",
          "type": "uint256"
        },
        {
          "internalType": "uint256",
          "name": "_getTops",
          "type": "uint256"
        }
      ],
      "name": "getTopStudentsByCourseId",
      "outputs": [
        {
          "internalType": "uint256",
          "name": "",
          "type": "uint256"
        },
        {
          "internalType": "string",
          "name": "",
          "type": "string"
        },
        {
          "internalType": "address",
          "name": "",
          "type": "address"
        },
        {
          "internalType": "uint256",
          "name": "",
          "type": "uint256"
        },
        {
          "internalType": "address[]",
          "name": "",
          "type": "address[]"
        },
        {
          "internalType": "uint256[]",
          "name": "",
          "type": "uint256[]"
        }
      ],
      "payable": false,
      "stateMutability": "view",
      "type": "function"
    },
    {
      "constant": true,
      "inputs": [
        {
          "internalType": "uint256",
          "name": "_courseid",
          "type": "uint256"
        }
      ],
      "name": "getcourseStudentCounts",
      "outputs": [
        {
          "internalType": "uint256",
          "name": "courseStudentCounts_",
          "type": "uint256"
        }
      ],
      "payable": false,
      "stateMutability": "view",
      "type": "function"
    },
    {
      "constant": true,
      "inputs": [],
      "name": "modifiersOwner",
      "outputs": [
        {
          "internalType": "address",
          "name": "",
          "type": "address"
        }
      ],
      "payable": false,
      "stateMutability": "view",
      "type": "function"
    },
    {
      "constant": true,
      "inputs": [],
      "name": "personCounts",
      "outputs": [
        {
          "internalType": "uint256",
          "name": "",
          "type": "uint256"
        }
      ],
      "payable": false,
      "stateMutability": "view",
      "type": "function"
    },
    {
      "constant": true,
      "inputs": [],
      "name": "professorCounts",
      "outputs": [
        {
          "internalType": "uint256",
          "name": "",
          "type": "uint256"
        }
      ],
      "payable": false,
      "stateMutability": "view",
      "type": "function"
    },
    {
      "constant": true,
      "inputs": [
        {
          "internalType": "uint256",
          "name": "",
          "type": "uint256"
        }
      ],
      "name": "professorSelfs",
      "outputs": [
        {
          "internalType": "uint256",
          "name": "proId",
          "type": "uint256"
        },
        {
          "internalType": "string",
          "name": "proName",
          "type": "string"
        },
        {
          "internalType": "address",
          "name": "proBlockAddress",
          "type": "address"
        },
        {
          "internalType": "uint256",
          "name": "proAuthorization",
          "type": "uint256"
        },
        {
          "internalType": "uint256",
          "name": "isTeachingPeopleSum",
          "type": "uint256"
        }
      ],
      "payable": false,
      "stateMutability": "view",
      "type": "function"
    },
    {
      "constant": false,
      "inputs": [
        {
          "internalType": "address",
          "name": "_address",
          "type": "address"
        },
        {
          "internalType": "string",
          "name": "_name",
          "type": "string"
        }
      ],
      "name": "setNameByAddress",
      "outputs": [
        {
          "internalType": "bool",
          "name": "",
          "type": "bool"
        }
      ],
      "payable": false,
      "stateMutability": "nonpayable",
      "type": "function"
    },
    {
      "constant": true,
      "inputs": [],
      "name": "studentCounts",
      "outputs": [
        {
          "internalType": "uint256",
          "name": "",
          "type": "uint256"
        }
      ],
      "payable": false,
      "stateMutability": "view",
      "type": "function"
    },
    {
      "constant": true,
      "inputs": [
        {
          "internalType": "uint256",
          "name": "",
          "type": "uint256"
        }
      ],
      "name": "studentSelfs",
      "outputs": [
        {
          "internalType": "uint256",
          "name": "stuId",
          "type": "uint256"
        },
        {
          "internalType": "string",
          "name": "stuName",
          "type": "string"
        },
        {
          "internalType": "address",
          "name": "stuBlockAddress",
          "type": "address"
        },
        {
          "internalType": "uint256",
          "name": "stuAuthorization",
          "type": "uint256"
        },
        {
          "internalType": "uint256",
          "name": "isLearningSum",
          "type": "uint256"
        }
      ],
      "payable": false,
      "stateMutability": "view",
      "type": "function"
    },
    {
      "constant": false,
      "inputs": [
        {
          "internalType": "address",
          "name": "_blockAddress",
          "type": "address"
        },
        {
          "internalType": "uint256",
          "name": "_authorization",
          "type": "uint256"
        }
      ],
      "name": "setPermission",
      "outputs": [
        {
          "internalType": "bool",
          "name": "",
          "type": "bool"
        }
      ],
      "payable": false,
      "stateMutability": "nonpayable",
      "type": "function"
    },
    {
      "constant": false,
      "inputs": [
        {
          "internalType": "address",
          "name": "_blockAddress",
          "type": "address"
        }
      ],
      "name": "removePermission",
      "outputs": [
        {
          "internalType": "bool",
          "name": "",
          "type": "bool"
        }
      ],
      "payable": false,
      "stateMutability": "nonpayable",
      "type": "function"
    }
  ],
  "bytecode": "0x6080604052600060015560006003556000600555600060075560016009556001600a556064600b556103e8600c55336000806101000a81548173ffffffffffffffffffffffffffffffffffffffff021916908373ffffffffffffffffffffffffffffffffffffffff1602179055506040518060800160405280600181526020016040518060400160405280600481526020017f526f6f740000000000000000000000000000000000000000000000000000000081525081526020016000809054906101000a900473ffffffffffffffffffffffffffffffffffffffff1673ffffffffffffffffffffffffffffffffffffffff1681526020016003815250600260006001815260200190815260200160002060008201518160000155602082015181600101908051906020019062000138929190620001a5565b5060408201518160020160006101000a81548173ffffffffffffffffffffffffffffffffffffffff021916908373ffffffffffffffffffffffffffffffffffffffff1602179055506060820151816003015590505060016000815480929190600101919050555062000254565b828054600181600116156101000203166002900490600052602060002090601f016020900481019282601f10620001e857805160ff191683800117855562000219565b8280016001018555821562000219579182015b8281111562000218578251825591602001919060010190620001fb565b5b5090506200022891906200022c565b5090565b6200025191905b808211156200024d57600081600090555060010162000233565b5090565b90565b614aaf80620002646000396000f3fe608060405234801561001057600080fd5b50600436106102525760003560e01c80638d80c92211610146578063bf01b075116100c3578063e074bb4711610087578063e074bb47146113a1578063f6aa09e4146113fd578063f7d9394d1461145c578063fb3189e8146114bb578063fb6b990a146114d9578063fc0c1f391461161f57610252565b8063bf01b07514611248578063c3caf9db14611266578063d8ded14b14611284578063db7e803e146112ea578063dff3b4971461134957610252565b806398aede551161010a57806398aede551461103a5780639fde094314611084578063a5cc464d146110e3578063ac0303361461113b578063ad9e42d91461120657610252565b80638d80c92214610db657806390eab7a214610e24578063948e32b614610e7c57806394e48ece14610e9a57806396621ec81461101c57610252565b80632f02ca0b116101d457806358a420651161019857806358a4206514610b675780635e719a4914610cad5780637860a06914610cef578063792109be14610d0d5780637a6ce2e114610d6c57610252565b80632f02ca0b1461075d57806330e94711146107b5578063404846381461092d5780634d4fb0d714610a205780634d64e5ee14610a7857610252565b80630d9382fc1161021b5780630d9382fc146105895780630e3bfd6c146105a757806310d756dd146105c55780631643c8db1461061d5780632454a9391461070557610252565b80624255a614610257578063043022fa146103465780630560c2e7146104395780630c1596b4146104575780630d69951d146104f0575b600080fd5b6102836004803603602081101561026d57600080fd5b810190808035906020019092919050505061163d565b60405180868152602001806020018573ffffffffffffffffffffffffffffffffffffffff1673ffffffffffffffffffffffffffffffffffffffff168152602001848152602001838152602001828103825286818151815260200191508051906020019080838360005b838110156103075780820151818401526020810190506102ec565b50505050905090810190601f1680156103345780820380516001836020036101000a031916815260200191505b50965050505050505060405180910390f35b6103726004803603602081101561035c57600080fd5b810190808035906020019092919050505061172b565b60405180868152602001806020018573ffffffffffffffffffffffffffffffffffffffff1673ffffffffffffffffffffffffffffffffffffffff16815260200184151515158152602001838152602001828103825286818151815260200191508051906020019080838360005b838110156103fa5780820151818401526020810190506103df565b50505050905090810190601f1680156104275780820380516001836020036101000a031916815260200191505b50965050505050505060405180910390f35b610441611826565b6040518082815260200191505060405180910390f35b6104996004803603602081101561046d57600080fd5b81019080803573ffffffffffffffffffffffffffffffffffffffff169060200190929190505050611a24565b6040518080602001828103825283818151815260200191508051906020019060200280838360005b838110156104dc5780820151818401526020810190506104c1565b505050509050019250505060405180910390f35b6105326004803603602081101561050657600080fd5b81019080803573ffffffffffffffffffffffffffffffffffffffff169060200190929190505050611adf565b6040518080602001828103825283818151815260200191508051906020019060200280838360005b8381101561057557808201518184015260208101905061055a565b505050509050019250505060405180910390f35b610591611b9a565b6040518082815260200191505060405180910390f35b6105af611ba0565b6040518082815260200191505060405180910390f35b610607600480360360208110156105db57600080fd5b81019080803573ffffffffffffffffffffffffffffffffffffffff169060200190929190505050611ba6565b6040518082815260200191505060405180910390f35b6106496004803603602081101561063357600080fd5b8101908080359060200190929190505050611c42565b60405180858152602001806020018473ffffffffffffffffffffffffffffffffffffffff1673ffffffffffffffffffffffffffffffffffffffff168152602001838152602001828103825285818151815260200191508051906020019080838360005b838110156106c75780820151818401526020810190506106ac565b50505050905090810190601f1680156106f45780820380516001836020036101000a031916815260200191505b509550505050505060405180910390f35b6107476004803603602081101561071b57600080fd5b81019080803573ffffffffffffffffffffffffffffffffffffffff169060200190929190505050611d2a565b6040518082815260200191505060405180910390f35b61079f6004803603602081101561077357600080fd5b81019080803573ffffffffffffffffffffffffffffffffffffffff169060200190929190505050611dc6565b6040518082815260200191505060405180910390f35b6107e1600480360360208110156107cb57600080fd5b8101908080359060200190929190505050611df6565b60405180878152602001806020018673ffffffffffffffffffffffffffffffffffffffff1673ffffffffffffffffffffffffffffffffffffffff1681526020018581526020018060200180602001848103845289818151815260200191508051906020019080838360005b8381101561086757808201518184015260208101905061084c565b50505050905090810190601f1680156108945780820380516001836020036101000a031916815260200191505b50848103835286818151815260200191508051906020019060200280838360005b838110156108d05780820151818401526020810190506108b5565b50505050905001848103825285818151815260200191508051906020019060200280838360005b838110156109125780820151818401526020810190506108f7565b50505050905001995050505050505050505060405180910390f35b610a066004803603604081101561094357600080fd5b81019080803573ffffffffffffffffffffffffffffffffffffffff1690602001909291908035906020019064010000000081111561098057600080fd5b82018360208201111561099257600080fd5b803590602001918460018302840111640100000000831117156109b457600080fd5b91908080601f016020809104026020016040519081016040528093929190818152602001838380828437600081840152601f19601f8201169050808301925050505050505091929192905050506120b1565b604051808215151515815260200191505060405180910390f35b610a6260048036036020811015610a3657600080fd5b81019080803573ffffffffffffffffffffffffffffffffffffffff16906020019092919050505061219c565b6040518082815260200191505060405180910390f35b610aa460048036036020811015610a8e57600080fd5b81019080803590602001909291905050506121cc565b60405180868152602001806020018573ffffffffffffffffffffffffffffffffffffffff1673ffffffffffffffffffffffffffffffffffffffff168152602001848152602001838152602001828103825286818151815260200191508051906020019080838360005b83811015610b28578082015181840152602081019050610b0d565b50505050905090810190601f168015610b555780820380516001836020036101000a031916815260200191505b50965050505050505060405180910390f35b610ba960048036036020811015610b7d57600080fd5b81019080803573ffffffffffffffffffffffffffffffffffffffff1690602001909291905050506122ba565b60405180868152602001806020018573ffffffffffffffffffffffffffffffffffffffff1673ffffffffffffffffffffffffffffffffffffffff16815260200184815260200180602001838103835287818151815260200191508051906020019080838360005b83811015610c2b578082015181840152602081019050610c10565b50505050905090810190601f168015610c585780820380516001836020036101000a031916815260200191505b50838103825284818151815260200191508051906020019060200280838360005b83811015610c94578082015181840152602081019050610c79565b5050505090500197505050505050505060405180910390f35b610cd960048036036020811015610cc357600080fd5b810190808035906020019092919050505061241f565b6040518082815260200191505060405180910390f35b610cf7612481565b6040518082815260200191505060405180910390f35b610d15612487565b6040518080602001828103825283818151815260200191508051906020019060200280838360005b83811015610d58578082015181840152602081019050610d3d565b505050509050019250505060405180910390f35b610d74612515565b604051808273ffffffffffffffffffffffffffffffffffffffff1673ffffffffffffffffffffffffffffffffffffffff16815260200191505060405180910390f35b610de260048036036020811015610dcc57600080fd5b810190808035906020019092919050505061251d565b604051808273ffffffffffffffffffffffffffffffffffffffff1673ffffffffffffffffffffffffffffffffffffffff16815260200191505060405180910390f35b610e6660048036036020811015610e3a57600080fd5b81019080803573ffffffffffffffffffffffffffffffffffffffff169060200190929190505050612699565b6040518082815260200191505060405180910390f35b610e84612899565b6040518082815260200191505060405180910390f35b610ed060048036036040811015610eb057600080fd5b8101908080359060200190929190803590602001909291905050506128a3565b60405180878152602001806020018673ffffffffffffffffffffffffffffffffffffffff1673ffffffffffffffffffffffffffffffffffffffff1681526020018581526020018060200180602001848103845289818151815260200191508051906020019080838360005b83811015610f56578082015181840152602081019050610f3b565b50505050905090810190601f168015610f835780820380516001836020036101000a031916815260200191505b50848103835286818151815260200191508051906020019060200280838360005b83811015610fbf578082015181840152602081019050610fa4565b50505050905001848103825285818151815260200191508051906020019060200280838360005b83811015611001578082015181840152602081019050610fe6565b50505050905001995050505050505050505060405180910390f35b611024612d37565b6040518082815260200191505060405180910390f35b611042612d41565b604051808273ffffffffffffffffffffffffffffffffffffffff1673ffffffffffffffffffffffffffffffffffffffff16815260200191505060405180910390f35b61108c612d66565b6040518080602001828103825283818151815260200191508051906020019060200280838360005b838110156110cf5780820151818401526020810190506110b4565b505050509050019250505060405180910390f35b611125600480360360208110156110f957600080fd5b81019080803573ffffffffffffffffffffffffffffffffffffffff169060200190929190505050612e42565b6040518082815260200191505060405180910390f35b6111676004803603602081101561115157600080fd5b8101908080359060200190929190505050612ede565b604051808060200180602001838103835285818151815260200191508051906020019060200280838360005b838110156111ae578082015181840152602081019050611193565b50505050905001838103825284818151815260200191508051906020019060200280838360005b838110156111f05780820151818401526020810190506111d5565b5050505090500194505050505060405180910390f35b6112326004803603602081101561121c57600080fd5b8101908080359060200190929190505050613076565b6040518082815260200191505060405180910390f35b6112506130d1565b6040518082815260200191505060405180910390f35b61126e6130db565b6040518082815260200191505060405180910390f35b6112d06004803603604081101561129a57600080fd5b81019080803573ffffffffffffffffffffffffffffffffffffffff169060200190929190803590602001909291905050506130e5565b604051808215151515815260200191505060405180910390f35b6112f26136b4565b6040518080602001828103825283818151815260200191508051906020019060200280838360005b8381101561133557808201518184015260208101905061131a565b505050509050019250505060405180910390f35b61138b6004803603602081101561135f57600080fd5b81019080803573ffffffffffffffffffffffffffffffffffffffff169060200190929190505050613742565b6040518082815260200191505060405180910390f35b6113e3600480360360208110156113b757600080fd5b81019080803573ffffffffffffffffffffffffffffffffffffffff169060200190929190505050613942565b604051808215151515815260200191505060405180910390f35b6114056142aa565b6040518080602001828103825283818151815260200191508051906020019060200280838360005b8381101561144857808201518184015260208101905061142d565b505050509050019250505060405180910390f35b611464614338565b6040518080602001828103825283818151815260200191508051906020019060200280838360005b838110156114a757808201518184015260208101905061148c565b505050509050019250505060405180910390f35b6114c3614414565b6040518082815260200191505060405180910390f35b61151b600480360360208110156114ef57600080fd5b81019080803573ffffffffffffffffffffffffffffffffffffffff16906020019092919050505061441a565b60405180868152602001806020018573ffffffffffffffffffffffffffffffffffffffff1673ffffffffffffffffffffffffffffffffffffffff16815260200184815260200180602001838103835287818151815260200191508051906020019080838360005b8381101561159d578082015181840152602081019050611582565b50505050905090810190601f1680156115ca5780820380516001836020036101000a031916815260200191505b50838103825284818151815260200191508051906020019060200280838360005b838110156116065780820151818401526020810190506115eb565b5050505090500197505050505050505060405180910390f35b61162761457f565b6040518082815260200191505060405180910390f35b6006602052806000526040600020600091509050806000015490806001018054600181600116156101000203166002900480601f0160208091040260200160405190810160405280929190818152602001828054600181600116156101000203166002900480156116ef5780601f106116c4576101008083540402835291602001916116ef565b820191906000526020600020905b8154815290600101906020018083116116d257829003601f168201915b5050505050908060020160009054906101000a900473ffffffffffffffffffffffffffffffffffffffff16908060030154908060050154905085565b6008602052806000526040600020600091509050806000015490806001018054600181600116156101000203166002900480601f0160208091040260200160405190810160405280929190818152602001828054600181600116156101000203166002900480156117dd5780601f106117b2576101008083540402835291602001916117dd565b820191906000526020600020905b8154815290600101906020018083116117c057829003601f168201915b5050505050908060020160009054906101000a900473ffffffffffffffffffffffffffffffffffffffff16908060020160149054906101000a900460ff16908060030154905085565b600080600190505b60015481116118cd573373ffffffffffffffffffffffffffffffffffffffff166002600083815260200190815260200160002060020160009054906101000a900473ffffffffffffffffffffffffffffffffffffffff1673ffffffffffffffffffffffffffffffffffffffff1614156118c0576002600082815260200190815260200160002060030154915050611a21565b808060010191505061182e565b506000600190505b6003548111611974573373ffffffffffffffffffffffffffffffffffffffff166004600083815260200190815260200160002060020160009054906101000a900473ffffffffffffffffffffffffffffffffffffffff1673ffffffffffffffffffffffffffffffffffffffff161415611967576004600082815260200190815260200160002060030154915050611a21565b80806001019150506118d5565b506000600190505b6005548111611a1b573373ffffffffffffffffffffffffffffffffffffffff166006600083815260200190815260200160002060020160009054906101000a900473ffffffffffffffffffffffffffffffffffffffff1673ffffffffffffffffffffffffffffffffffffffff161415611a0e576006600082815260200190815260200160002060030154915050611a21565b808060010191505061197c565b50600090505b90565b60606000611a3183612e42565b90506000611a3e8461219c565b9050606081604051908082528060200260200182016040528015611a715781602001602082028038833980820191505090505b50905060008090505b82811015611ad357600460008581526020019081526020016000206004018181548110611aa357fe5b9060005260206000200154828281518110611aba57fe5b6020026020010181815250508080600101915050611a7a565b50809350505050919050565b60606000611aec83611d2a565b90506000611af984611dc6565b9050606081604051908082528060200260200182016040528015611b2c5781602001602082028038833980820191505090505b50905060008090505b82811015611b8e57600660008581526020019081526020016000206004018181548110611b5e57fe5b9060005260206000200154828281518110611b7557fe5b6020026020010181815250508080600101915050611b35565b50809350505050919050565b60095481565b60075481565b600080600190505b6001548111611c37578273ffffffffffffffffffffffffffffffffffffffff166002600083815260200190815260200160002060020160009054906101000a900473ffffffffffffffffffffffffffffffffffffffff1673ffffffffffffffffffffffffffffffffffffffff161415611c2a5780915050611c3d565b8080600101915050611bae565b50600090505b919050565b6002602052806000526040600020600091509050806000015490806001018054600181600116156101000203166002900480601f016020809104026020016040519081016040528092919081815260200182805460018160011615610100020316600290048015611cf45780601f10611cc957610100808354040283529160200191611cf4565b820191906000526020600020905b815481529060010190602001808311611cd757829003601f168201915b5050505050908060020160009054906101000a900473ffffffffffffffffffffffffffffffffffffffff16908060030154905084565b600080600190505b6005548111611dbb578273ffffffffffffffffffffffffffffffffffffffff166006600083815260200190815260200160002060020160009054906101000a900473ffffffffffffffffffffffffffffffffffffffff1673ffffffffffffffffffffffffffffffffffffffff161415611dae5780915050611dc1565b8080600101915050611d32565b50600090505b919050565b600080611dd283611d2a565b90506006600082815260200190815260200160002060040180549050915050919050565b600060606000806060806000611e0b88613076565b90506000600860008381526020019081526020016000206000015490506060600860008481526020019081526020016000206001018054600181600116156101000203166002900480601f016020809104026020016040519081016040528092919081815260200182805460018160011615610100020316600290048015611ed45780601f10611ea957610100808354040283529160200191611ed4565b820191906000526020600020905b815481529060010190602001808311611eb757829003601f168201915b5050505050905060006008600085815260200190815260200160002060020160009054906101000a900473ffffffffffffffffffffffffffffffffffffffff169050600060086000868152602001908152602001600020600301549050606081604051908082528060200260200182016040528015611f625781602001602082028038833980820191505090505b509050606082604051908082528060200260200182016040528015611f965781602001602082028038833980820191505090505b5090506000600190505b83811161208e5760086000898152602001908152602001600020600401600082815260200190815260200160002060000160009054906101000a900473ffffffffffffffffffffffffffffffffffffffff1683600183038151811061200157fe5b602002602001019073ffffffffffffffffffffffffffffffffffffffff16908173ffffffffffffffffffffffffffffffffffffffff16815250506008600089815260200190815260200160002060040160008281526020019081526020016000206001015482600183038151811061207557fe5b6020026020010181815250508080600101915050611fa0565b508585858585859c509c509c509c509c509c505050505050505091939550919395565b600080600090506120c184611ba6565b90506000811461210057826002600083815260200190815260200160002060010190805190602001906120f5929190614746565b506001915050612196565b61210984612e42565b905060008114612148578260046000838152602001908152602001600020600101908051906020019061213d929190614746565b506001915050612196565b61215184611d2a565b9050600081146121905782600660008381526020019081526020016000206001019080519060200190612185929190614746565b506001915050612196565b60009150505b92915050565b6000806121a883612e42565b90506004600082815260200190815260200160002060040180549050915050919050565b6004602052806000526040600020600091509050806000015490806001018054600181600116156101000203166002900480601f01602080910402602001604051908101604052809291908181526020018280546001816001161561010002031660029004801561227e5780601f106122535761010080835404028352916020019161227e565b820191906000526020600020905b81548152906001019060200180831161226157829003601f168201915b5050505050908060020160009054906101000a900473ffffffffffffffffffffffffffffffffffffffff16908060030154908060050154905085565b60006060600080606060006122ce87611d2a565b90506000600660008381526020019081526020016000206000015490506060600660008481526020019081526020016000206001018054600181600116156101000203166002900480601f0160208091040260200160405190810160405280929190818152602001828054600181600116156101000203166002900480156123975780601f1061236c57610100808354040283529160200191612397565b820191906000526020600020905b81548152906001019060200180831161237a57829003601f168201915b5050505050905060006006600085815260200190815260200160002060020160009054906101000a900473ffffffffffffffffffffffffffffffffffffffff16905060006006600086815260200190815260200160002060030154905060606123ff8c611adf565b905084848484849a509a509a509a509a5050505050505091939590929450565b600080600190505b600754811161247a57826008600083815260200190815260200160002060000154141561246d57600860008281526020019081526020016000206003015491505061247c565b8080600101915050612427565b505b919050565b60035481565b6060806005546040519080825280602002602001820160405280156124bb5781602001602082028038833980820191505090505b5090506000600190505b600554811161250d5760066000828152602001908152602001600020600001548260018303815181106124f457fe5b60200260200101818152505080806001019150506124c5565b508091505090565b600033905090565b600080600190505b600154811161259857826002600083815260200190815260200160002060000154141561258b576002600082815260200190815260200160002060020160009054906101000a900473ffffffffffffffffffffffffffffffffffffffff16915050612694565b8080600101915050612525565b506000600190505b6003548111612613578260046000838152602001908152602001600020600001541415612606576004600082815260200190815260200160002060020160009054906101000a900473ffffffffffffffffffffffffffffffffffffffff16915050612694565b80806001019150506125a0565b506000600190505b600554811161268e578260066000838152602001908152602001600020600001541415612681576006600082815260200190815260200160002060020160009054906101000a900473ffffffffffffffffffffffffffffffffffffffff16915050612694565b808060010191505061261b565b50600090505b919050565b600080600190505b6001548111612740578273ffffffffffffffffffffffffffffffffffffffff166002600083815260200190815260200160002060020160009054906101000a900473ffffffffffffffffffffffffffffffffffffffff1673ffffffffffffffffffffffffffffffffffffffff161415612733576002600082815260200190815260200160002060030154915050612894565b80806001019150506126a1565b506000600190505b60035481116127e7578273ffffffffffffffffffffffffffffffffffffffff166004600083815260200190815260200160002060020160009054906101000a900473ffffffffffffffffffffffffffffffffffffffff1673ffffffffffffffffffffffffffffffffffffffff1614156127da576004600082815260200190815260200160002060030154915050612894565b8080600101915050612748565b506000600190505b600554811161288e578273ffffffffffffffffffffffffffffffffffffffff166006600083815260200190815260200160002060020160009054906101000a900473ffffffffffffffffffffffffffffffffffffffff1673ffffffffffffffffffffffffffffffffffffffff161415612881576006600082815260200190815260200160002060030154915050612894565b80806001019150506127ef565b50600090505b919050565b6000600554905090565b60006060600080606080600087905060006128bd8a613076565b90506000600860008381526020019081526020016000206000015490506060600860008481526020019081526020016000206001018054600181600116156101000203166002900480601f0160208091040260200160405190810160405280929190818152602001828054600181600116156101000203166002900480156129865780601f1061295b57610100808354040283529160200191612986565b820191906000526020600020905b81548152906001019060200180831161296957829003601f168201915b5050505050905060006008600085815260200190815260200160002060020160009054906101000a900473ffffffffffffffffffffffffffffffffffffffff169050600060086000868152602001908152602001600020600301549050858110156129ef578095505b606086604051908082528060200260200182016040528015612a205781602001602082028038833980820191505090505b509050606087604051908082528060200260200182016040528015612a545781602001602082028038833980820191505090505b509050606083604051908082528060200260200182016040528015612a885781602001602082028038833980820191505090505b5090506000600190505b848111612aec57600860008a8152602001908152602001600020600401600082815260200190815260200160002060010154826001830381518110612ad357fe5b6020026020010181815250508080600101915050612a92565b5060008090505b84811015612bbb576000600190505b85811015612bad57826001820381518110612b1957fe5b6020026020010151838281518110612b2d57fe5b60200260200101511115612ba0576000836001830381518110612b4c57fe5b60200260200101519050838281518110612b6257fe5b6020026020010151846001840381518110612b7957fe5b60200260200101818152505080848381518110612b9257fe5b602002602001018181525050505b8080600101915050612b02565b508080600101915050612af3565b50600080905060008090505b85811015612d10578a821415612bdc57612d10565b828181518110612be857fe5b6020026020010151848281518110612bfc57fe5b6020026020010181815250506000600190505b868111612cfa57600860008c8152602001908152602001600020600401600082815260200190815260200160002060010154858381518110612c4d57fe5b60200260200101511415612ced57600860008c8152602001908152602001600020600401600082815260200190815260200160002060000160009054906101000a900473ffffffffffffffffffffffffffffffffffffffff16868381518110612cb257fe5b602002602001019073ffffffffffffffffffffffffffffffffffffffff16908173ffffffffffffffffffffffffffffffffffffffff16815250505b8080600101915050612c0f565b5081806001019250508080600101915050612bc7565b508787878787879f509f509f509f509f509f50505050505050505050509295509295509295565b6000600154905090565b6000809054906101000a900473ffffffffffffffffffffffffffffffffffffffff1681565b606080600554604051908082528060200260200182016040528015612d9a5781602001602082028038833980820191505090505b5090506000600190505b6005548111612e3a576006600082815260200190815260200160002060020160009054906101000a900473ffffffffffffffffffffffffffffffffffffffff16826001830381518110612df357fe5b602002602001019073ffffffffffffffffffffffffffffffffffffffff16908173ffffffffffffffffffffffffffffffffffffffff16815250508080600101915050612da4565b508091505090565b600080600190505b6003548111612ed3578273ffffffffffffffffffffffffffffffffffffffff166004600083815260200190815260200160002060020160009054906101000a900473ffffffffffffffffffffffffffffffffffffffff1673ffffffffffffffffffffffffffffffffffffffff161415612ec65780915050612ed9565b8080600101915050612e4a565b50600090505b919050565b6060806000612eec84613076565b9050600060086000838152602001908152602001600020600301549050606081604051908082528060200260200182016040528015612f3a5781602001602082028038833980820191505090505b509050606082604051908082528060200260200182016040528015612f6e5781602001602082028038833980820191505090505b5090506000600190505b8381116130665760086000868152602001908152602001600020600401600082815260200190815260200160002060000160009054906101000a900473ffffffffffffffffffffffffffffffffffffffff16836001830381518110612fd957fe5b602002602001019073ffffffffffffffffffffffffffffffffffffffff16908173ffffffffffffffffffffffffffffffffffffffff16815250506008600086815260200190815260200160002060040160008281526020019081526020016000206001015482600183038151811061304d57fe5b6020026020010181815250508080600101915050612f78565b5081819550955050505050915091565b600080600090506000600190505b60075481116130c55783600860008381526020019081526020016000206000015414156130b85780915081925050506130cc565b8080600101915050613084565b5060009150505b919050565b6000600754905090565b6000600354905090565b6000806000905060008090505b6001548111613177576002600082815260200190815260200160002060020160009054906101000a900473ffffffffffffffffffffffffffffffffffffffff1673ffffffffffffffffffffffffffffffffffffffff163373ffffffffffffffffffffffffffffffffffffffff16141561316a57600191505b80806001019150506130f2565b50806131eb576040517f08c379a00000000000000000000000000000000000000000000000000000000081526004018080602001828103825260158152602001807f3e3e3e3e3e3e697341646d696e203d2066616c7365000000000000000000000081525060200191505060405180910390fd5b60018314806131fa5750600283145b806132055750600383145b613277576040517f08c379a000000000000000000000000000000000000000000000000000000000815260040180806020018281038252600c8152602001807f756e617574686f72697a6564000000000000000000000000000000000000000081525060200191505060405180910390fd5b6000151561328485614585565b1515146132dc576040517f08c379a000000000000000000000000000000000000000000000000000000000815260040180806020018281038252602d8152602001806149ae602d913960400191505060405180910390fd5b600960008154809291906001019190505550600183141561343457600560008154809291906001019190505550600c60008154809291906001019190505550600c54600660006005548152602001908152602001600020600001819055506040518060400160405280600881526020017f7374752d6e616d65000000000000000000000000000000000000000000000000815250600660006005548152602001908152602001600020600101908051906020019061339b929190614746565b508360066000600554815260200190815260200160002060020160006101000a81548173ffffffffffffffffffffffffffffffffffffffff021916908373ffffffffffffffffffffffffffffffffffffffff1602179055506001600660006005548152602001908152602001600020600301819055506000600660006005548152602001908152602001600020600501819055506136a9565b600283141561357a57600360008154809291906001019190505550600b60008154809291906001019190505550600b54600460006003548152602001908152602001600020600001819055506040518060400160405280600881526020017f70726f2d6e616d6500000000000000000000000000000000000000000000000081525060046000600354815260200190815260200160002060010190805190602001906134e1929190614746565b508360046000600354815260200190815260200160002060020160006101000a81548173ffffffffffffffffffffffffffffffffffffffff021916908373ffffffffffffffffffffffffffffffffffffffff1602179055506002600460006003548152602001908152602001600020600301819055506000600460006003548152602001908152602001600020600501819055506136a8565b60038314156136a757600160008154809291906001019190505550600a600081548092919060010191905055506040518060800160405280600a5481526020016040518060400160405280600881526020017f61646d2d6e616d6500000000000000000000000000000000000000000000000081525081526020018573ffffffffffffffffffffffffffffffffffffffff16815260200160038152506002600060015481526020019081526020016000206000820151816000015560208201518160010190805190602001906136519291906147c6565b5060408201518160020160006101000a81548173ffffffffffffffffffffffffffffffffffffffff021916908373ffffffffffffffffffffffffffffffffffffffff160217905550606082015181600301559050505b5b5b600191505092915050565b6060806003546040519080825280602002602001820160405280156136e85781602001602082028038833980820191505090505b5090506000600190505b600354811161373a57600460008281526020019081526020016000206000015482600183038151811061372157fe5b60200260200101818152505080806001019150506136f2565b508091505090565b600080600190505b60015481116137e9578273ffffffffffffffffffffffffffffffffffffffff166002600083815260200190815260200160002060020160009054906101000a900473ffffffffffffffffffffffffffffffffffffffff1673ffffffffffffffffffffffffffffffffffffffff1614156137dc57600260008281526020019081526020016000206000015491505061393d565b808060010191505061374a565b506000600190505b6003548111613890578273ffffffffffffffffffffffffffffffffffffffff166004600083815260200190815260200160002060020160009054906101000a900473ffffffffffffffffffffffffffffffffffffffff1673ffffffffffffffffffffffffffffffffffffffff16141561388357600460008281526020019081526020016000206000015491505061393d565b80806001019150506137f1565b506000600190505b6005548111613937578273ffffffffffffffffffffffffffffffffffffffff166006600083815260200190815260200160002060020160009054906101000a900473ffffffffffffffffffffffffffffffffffffffff1673ffffffffffffffffffffffffffffffffffffffff16141561392a57600660008281526020019081526020016000206000015491505061393d565b8080600101915050613898565b50600090505b919050565b6000806000905060008090505b60015481116139d4576002600082815260200190815260200160002060020160009054906101000a900473ffffffffffffffffffffffffffffffffffffffff1673ffffffffffffffffffffffffffffffffffffffff163373ffffffffffffffffffffffffffffffffffffffff1614156139c757600191505b808060010191505061394f565b5080613a48576040517f08c379a00000000000000000000000000000000000000000000000000000000081526004018080602001828103825260158152602001807f3e3e3e3e3e3e697341646d696e203d2066616c7365000000000000000000000081525060200191505060405180910390fd5b60011515613a5584614585565b151514613aca576040517f08c379a00000000000000000000000000000000000000000000000000000000081526004018080602001828103825260188152602001807f3e3e3e546869732061646472657373206e6f206578697374000000000000000081525060200191505060405180910390fd5b6000613ad584612699565b90506000811415613b31576040517f08c379a0000000000000000000000000000000000000000000000000000000008152600401808060200182810382526032815260200180614a496032913960400191505060405180910390fd5b6001811415613de7576000613b4585611d2a565b90506000600660008381526020019081526020016000206005015414613bb6576040517f08c379a0000000000000000000000000000000000000000000000000000000008152600401808060200182810382526036815260200180614a136036913960400191505060405180910390fd5b60008190505b600554811015613d56576006600060018301815260200190815260200160002060000154600660008381526020019081526020016000206000018190555060066000600183018152602001908152602001600020600101600660008381526020019081526020016000206001019080546001816001161561010002031660029004613c48929190614846565b506006600060018301815260200190815260200160002060020160009054906101000a900473ffffffffffffffffffffffffffffffffffffffff166006600083815260200190815260200160002060020160006101000a81548173ffffffffffffffffffffffffffffffffffffffff021916908373ffffffffffffffffffffffffffffffffffffffff160217905550600660006001830181526020019081526020016000206003015460066000838152602001908152602001600020600301819055506006600060018301815260200190815260200160002060040160066000838152602001908152602001600020600401908054613d489291906148cd565b508080600101915050613bbc565b50600660006005548152602001908152602001600020600080820160009055600182016000613d85919061491f565b6002820160006101000a81549073ffffffffffffffffffffffffffffffffffffffff02191690556003820160009055600482016000613dc49190614967565b60058201600090555050600560008154809291906001900391905055505061428c565b600281141561409d576000613dfb85612e42565b90506000600460008381526020019081526020016000206005015414613e6c576040517f08c379a00000000000000000000000000000000000000000000000000000000081526004018080602001828103825260388152602001806149db6038913960400191505060405180910390fd5b60008190505b60035481101561400c576004600060018301815260200190815260200160002060000154600460008381526020019081526020016000206000018190555060046000600183018152602001908152602001600020600101600460008381526020019081526020016000206001019080546001816001161561010002031660029004613efe929190614846565b506004600060018301815260200190815260200160002060020160009054906101000a900473ffffffffffffffffffffffffffffffffffffffff166004600083815260200190815260200160002060020160006101000a81548173ffffffffffffffffffffffffffffffffffffffff021916908373ffffffffffffffffffffffffffffffffffffffff160217905550600460006001830181526020019081526020016000206003015460046000838152602001908152602001600020600301819055506004600060018301815260200190815260200160002060040160046000838152602001908152602001600020600401908054613ffe9291906148cd565b508080600101915050613e72565b5060046000600354815260200190815260200160002060008082016000905560018201600061403b919061491f565b6002820160006101000a81549073ffffffffffffffffffffffffffffffffffffffff0219169055600382016000905560048201600061407a9190614967565b60058201600090555050600360008154809291906001900391905055505061428b565b600381141561428a5760006140b185611ba6565b905060008190505b600154811015614215576002600060018301815260200190815260200160002060000154600260008381526020019081526020016000206000018190555060026000600183018152602001908152602001600020600101600260008381526020019081526020016000206001019080546001816001161561010002031660029004614145929190614846565b506002600060018301815260200190815260200160002060020160009054906101000a900473ffffffffffffffffffffffffffffffffffffffff166002600083815260200190815260200160002060020160006101000a81548173ffffffffffffffffffffffffffffffffffffffff021916908373ffffffffffffffffffffffffffffffffffffffff1602179055506002600060018301815260200190815260200160002060030154600260008381526020019081526020016000206003018190555080806001019150506140b9565b50600260006001548152602001908152602001600020600080820160009055600182016000614244919061491f565b6002820160006101000a81549073ffffffffffffffffffffffffffffffffffffffff02191690556003820160009055505060016000815480929190600190039190505550505b5b5b60096000815480929190600190039190505550600192505050919050565b6060806007546040519080825280602002602001820160405280156142de5781602001602082028038833980820191505090505b5090506000600190505b600754811161433057600860008281526020019081526020016000206000015482600183038151811061431757fe5b60200260200101818152505080806001019150506142e8565b508091505090565b60608060035460405190808252806020026020018201604052801561436c5781602001602082028038833980820191505090505b5090506000600190505b600354811161440c576004600082815260200190815260200160002060020160009054906101000a900473ffffffffffffffffffffffffffffffffffffffff168260018303815181106143c557fe5b602002602001019073ffffffffffffffffffffffffffffffffffffffff16908173ffffffffffffffffffffffffffffffffffffffff16815250508080600101915050614376565b508091505090565b60055481565b600060606000806060600061442e87612e42565b90506000600460008381526020019081526020016000206000015490506060600460008481526020019081526020016000206001018054600181600116156101000203166002900480601f0160208091040260200160405190810160405280929190818152602001828054600181600116156101000203166002900480156144f75780601f106144cc576101008083540402835291602001916144f7565b820191906000526020600020905b8154815290600101906020018083116144da57829003601f168201915b5050505050905060006004600085815260200190815260200160002060020160009054906101000a900473ffffffffffffffffffffffffffffffffffffffff169050600060046000868152602001908152602001600020600301549050606061455f8c611a24565b905084848484849a509a509a509a509a5050505050505091939590929450565b60015481565b600080600190505b6001548111614617578273ffffffffffffffffffffffffffffffffffffffff166002600083815260200190815260200160002060020160009054906101000a900473ffffffffffffffffffffffffffffffffffffffff1673ffffffffffffffffffffffffffffffffffffffff16141561460a576001915050614741565b808060010191505061458d565b506000600190505b60035481116146a9578273ffffffffffffffffffffffffffffffffffffffff166004600083815260200190815260200160002060020160009054906101000a900473ffffffffffffffffffffffffffffffffffffffff1673ffffffffffffffffffffffffffffffffffffffff16141561469c576001915050614741565b808060010191505061461f565b506000600190505b600554811161473b578273ffffffffffffffffffffffffffffffffffffffff166006600083815260200190815260200160002060020160009054906101000a900473ffffffffffffffffffffffffffffffffffffffff1673ffffffffffffffffffffffffffffffffffffffff16141561472e576001915050614741565b80806001019150506146b1565b50600090505b919050565b828054600181600116156101000203166002900490600052602060002090601f016020900481019282601f1061478757805160ff19168380011785556147b5565b828001600101855582156147b5579182015b828111156147b4578251825591602001919060010190614799565b5b5090506147c29190614988565b5090565b828054600181600116156101000203166002900490600052602060002090601f016020900481019282601f1061480757805160ff1916838001178555614835565b82800160010185558215614835579182015b82811115614834578251825591602001919060010190614819565b5b5090506148429190614988565b5090565b828054600181600116156101000203166002900490600052602060002090601f016020900481019282601f1061487f57805485556148bc565b828001600101855582156148bc57600052602060002091601f016020900482015b828111156148bb5782548255916001019190600101906148a0565b5b5090506148c99190614988565b5090565b82805482825590600052602060002090810192821561490e5760005260206000209182015b8281111561490d5782548255916001019190600101906148f2565b5b50905061491b9190614988565b5090565b50805460018160011615610100020316600290046000825580601f106149455750614964565b601f0160209004906000526020600020908101906149639190614988565b5b50565b50805460008255906000526020600020908101906149859190614988565b50565b6149aa91905b808211156149a657600081600090555060010161498e565b5090565b9056fe5468697320616464726573732068617320616c7265616479206265656e20736574207065726d697373696f6e733e3e3e546869732070726f666573736f72206973207465616368696e672c2063616e742072656d6f7665207065726d697373696f6e2121213e3e3e546869732073747564656e74206973206c6561726e696e672c2063616e742072656d6f7665207065726d697373696f6e2121213e3e3e5468697320626c6f636b4164647265737320776173206f726967696e616c6c79206e6f7420617574686f72697a6564a265627a7a72315820850493b8484c1608c68cbe434d5502d50730113eb48f1bbf7c6b4326fd6e31f764736f6c63430005100032",
  "source": "// SPDX-License-Identifier: MIT\r\npragma solidity >=0.4.22 <0.9.0;\r\n\r\n/*\r\n// admin   StructAndModifiers\r\n\r\n1. setPermission()   ==>  0=student; 1=professor; 2=admin\r\n    1 , modifierstudent ,student\r\n    2 , modifierprofessor ,professor\r\n    3 , modifieradmin ,admin\r\n\r\n    If it is set to 1, call the function in the modifier class to add it to the student array and to the student contract at the same time\r\n    If it is set to 2, call the function in the modifier class to add it to the professor array and to the professor contract at the same time\r\n    If it is set to 3, call the function in the modifier class to add it to the admin array and add it to the admin contract at the same time\r\n\r\n2. removePermission() \r\n    professor, student\r\n    Professors need to be allowed to be deprived of permission without teaching tasks and students need to take classes\r\n\r\n\r\n//  : 3. getGradeByAdminId()  You can view the student scores of any course\r\n\r\n\r\n*/\r\n\r\nimport \"./StructAndModifiers.sol\";\r\n\r\ncontract Admin is StructAndModifiers{\r\n\r\n    // onwer +1 1 root   Initialized to 1 because root is automatically added\r\n    uint public personCounts = 1;   //  Record the current number of people\r\n    // id  id  id value, initialize the id value, automatically accumulate\r\n    uint setadmId = 1; // root = 1\r\n    uint setproId = 100;    // proId100\r\n    uint setstuId = 1000;    \r\n    \r\n     ////////////////////////////////////////////////////////////////////////////////////////////////////////////// \r\n    //  Set permission function\r\n    function setPermission(address _blockAddress,uint _authorization) public onlyAdmin returns(bool){\r\n        \r\n        //   Check whether the set permission value is legal\r\n        require(_authorization == 1 || _authorization == 2 || _authorization == 3, \"unauthorized\");\r\n        \r\n        // address  shuo ming yi jing she zhi guo le\r\n        // true ==> \r\n        require(checkAddressExisted(_blockAddress) == false,\"This address has already been set permissions\");\r\n        \r\n        // Record person[]\r\n        //  Self increasing\r\n        personCounts++;\r\n\r\n        if(_authorization == 1){ // \r\n            //   Add him directly to the students\r\n            studentCounts++;\r\n            setstuId++;\r\n            //  \r\n            // Since the course array cannot be assigned at this time, it is assigned one by one\r\n            studentSelfs[studentCounts].stuId = setstuId;\r\n            studentSelfs[studentCounts].stuName = \"stu-name\";\r\n            studentSelfs[studentCounts].stuBlockAddress = _blockAddress;\r\n            studentSelfs[studentCounts].stuAuthorization = 1;\r\n            studentSelfs[studentCounts].isLearningSum = 0; //  Initialize to no class in progress\r\n            \r\n        }\r\n        else if(_authorization == 2){ // professor\r\n            professorCounts++;\r\n            setproId++;\r\n            // \r\n            // Since the course array cannot be assigned at this time, it is assigned one by one\r\n            professorSelfs[professorCounts].proId = setproId;\r\n            professorSelfs[professorCounts].proName = \"pro-name\";\r\n            professorSelfs[professorCounts].proBlockAddress = _blockAddress;\r\n            professorSelfs[professorCounts].proAuthorization = 2;\r\n            professorSelfs[professorCounts].isTeachingPeopleSum = 0; //  Initialize to no teaching in progress\r\n\r\n        }\r\n        else if(_authorization == 3){ // Admin\r\n            adminCounts++;\r\n            setadmId++;\r\n            adminSelfs[adminCounts] = AdminSelf(setadmId,\"adm-name\",_blockAddress,3);\r\n\r\n        }\r\n        //   Setup succeeded\r\n        return true;\r\n       \r\n        \r\n    }\r\n    \r\n    ////////////////////////////////////////////////////////////////////////////////////////////////////////////// \r\n    // , 100 , person  ;  Remove the permission relative to, and set it to 100, that is, person\r\n    function removePermission(address _blockAddress) public onlyAdmin returns(bool){\r\n\r\n        // ID                                     First find out if this ID exists\r\n        require(checkAddressExisted(_blockAddress) == true,\">>>This address no exist\");\r\n        \r\n        // ID                             Then check the permission before this ID\r\n        uint _authorization  = getAuthorizationByAddress(_blockAddress); // index       Call function to get index\r\n        require(_authorization != 0,\">>>This blockAddress was originally not authorized\");\r\n        \r\n        \r\n        //   ;   Remove him from the corresponding permission database according to his permissions\r\n        if(_authorization == 1){ // \r\n            uint studentIndex = getStudentIndexByAddress(_blockAddress);\r\n            // ID  Check if this ID is learning\r\n            require(studentSelfs[studentIndex].isLearningSum == 0,\">>>This student is learning, cant remove permission!!!\"); \r\n            \r\n            //   Direct deletion will leave an empty space\r\n            //   So the latter element overwrites the previous element\r\n            for(uint i=studentIndex;i<studentCounts;i++){\r\n                studentSelfs[i].stuId = studentSelfs[i+1].stuId;\r\n                studentSelfs[i].stuName = studentSelfs[i+1].stuName;\r\n                studentSelfs[i].stuBlockAddress = studentSelfs[i+1].stuBlockAddress;\r\n                studentSelfs[i].stuAuthorization = studentSelfs[i+1].stuAuthorization;\r\n                studentSelfs[i].myStuCourses = studentSelfs[i+1].myStuCourses;\r\n            }\r\n            \r\n            //   Then remove the last element\r\n            delete studentSelfs[studentCounts];\r\n            studentCounts--; \r\n        }\r\n        else if(_authorization == 2){  // professor\r\n            uint professorIndex = getProfessorIndexByAddress(_blockAddress);\r\n            // ID  Check if this ID is in class\r\n            require(professorSelfs[professorIndex].isTeachingPeopleSum == 0,\">>>This professor is teaching, cant remove permission!!!\"); \r\n            \r\n            //   Direct deletion will leave an empty space\r\n            //  So the latter element overrides the previous element\r\n            for(uint i=professorIndex;i<professorCounts;i++){\r\n                professorSelfs[i].proId = professorSelfs[i+1].proId;\r\n                professorSelfs[i].proName = professorSelfs[i+1].proName;\r\n                professorSelfs[i].proBlockAddress = professorSelfs[i+1].proBlockAddress;\r\n                professorSelfs[i].proAuthorization = professorSelfs[i+1].proAuthorization;\r\n                professorSelfs[i].myProCourses = professorSelfs[i+1].myProCourses;\r\n            }\r\n            \r\n            //  Then remove the last element\r\n            delete professorSelfs[professorCounts];\r\n            professorCounts--; \r\n \r\n        }\r\n        else if(_authorization == 3){ // Admin\r\n            uint adminIndex = getAdminIndexByAddress(_blockAddress);\r\n            //   Direct deletion will leave an empty space\r\n            //   So the latter element overrides the previous element\r\n            for(uint i=adminIndex;i<adminCounts;i++){\r\n                adminSelfs[i].adminId = adminSelfs[i+1].adminId;\r\n                adminSelfs[i].adminName = adminSelfs[i+1].adminName;\r\n                adminSelfs[i].adminBlockAddress = adminSelfs[i+1].adminBlockAddress;\r\n                adminSelfs[i].adminAuthorization = adminSelfs[i+1].adminAuthorization;\r\n            }\r\n            \r\n            //   Then remove the last element\r\n            delete adminSelfs[adminCounts];\r\n            adminCounts--; \r\n\r\n        }\r\n        // person\r\n        personCounts--; \r\n\r\n        return true;\r\n        \r\n    }\r\n    \r\n/*    \r\n    //////////////////////////////////////////////////////////////////////////////////////////////////////////////\r\n    //   View results\r\n    // admin,  \r\n    // If it is admin, it can view the scores of all students in all courses\r\n\r\n    function getGradeByAdminAddr(uint _courseId,address _adminBlockAddress) public view onlyAdmin returns(address[] memory, uint[] memory){\r\n        \r\n        // pid Check whether the PID matches the address\r\n        require(_adminBlockAddress == msg.sender,\">>>The Id no match the current address!!!\");\r\n        \r\n        //  Check whether the course information exists\r\n        bool isExisted = checkCourseExisted(_courseId); \r\n        require(isExisted == true,\">>>_courseId no existed!!!\");\r\n        \r\n        ///\r\n        //  The results of all students under the course will be listed\r\n        \r\n        //  Find the course first\r\n        uint indexOfCourseID = getIndexByCourseId(_courseId);\r\n        // ,  \r\n        // Find the length of the array of students stored in this course, that is, the number of students taking this course\r\n        uint courseStudentCounts_ = getcourseStudentCounts(_courseId);\r\n        \r\n        address[] memory studentAddress = new address[](courseStudentCounts_);\r\n        uint[] memory studentsGrade  = new uint[](courseStudentCounts_);\r\n        \r\n        // , 0, courseStudentCounts_1\r\n        // There will be a problem here. The newly created array starts from 0 and coursestudentcounts_ It starts with 1\r\n        for(uint j=1;j<=courseStudentCounts_;j++){\r\n            studentAddress[j-1] = courseInfs[indexOfCourseID].courseStudents[j].stuBlockAddress;\r\n            studentsGrade[j-1] = courseInfs[indexOfCourseID].courseStudents[j].stuGrade;\r\n        }\r\n        \r\n        return (studentAddress,studentsGrade) ;  //  complete\r\n     \r\n    }\r\n\r\n*/\r\n\r\n}\r\n",
  "sourcePath": "D:\\desktop\\truffle_v3.9.2\\contracts\\Admin.sol",
  "compiler": {
    "name": "solc",
    "version": "0.5.16+commit.9c3226ce.Emscripten.clang"
  },
  "schemaVersion": "3.4.3",
  "updatedAt": "2021-12-02T22:08:08.951Z",
  "devdoc": {
    "methods": {}
  },
  "userdoc": {
    "methods": {
      "getAdminCounts()": {
        "notice": "//////////////////////////////////////////////////////////////////////////////////////////////////////////////"
      },
      "getIndexByCourseId(uint256)": {
        "notice": "//////////////////////////////////////////////////////////////////////////////////////////////////////////////"
      },
      "getMsgSender()": {
        "notice": "///////////////////////////////////////////////////////////   ///////////////////////////////////////////////////////////   ////////////////////////////  4.2. getter function"
      },
      "getProfessorCounts()": {
        "notice": "//////////////////////////////////////////////////////////////////////////////////////////////////////////////"
      },
      "getStudentCounts()": {
        "notice": "//////////////////////////////////////////////////////////////////////////////////////////////////////////////"
      },
      "removePermission(address)": {
        "notice": "/////////////////////////////////////////////////////////////////////////////////////////////////////////// "
      },
      "setPermission(address,uint256)": {
        "notice": "/////////////////////////////////////////////////////////////////////////////////////////////////////////// "
      }
    }
  }
}