{
  "contractName": "Admin",
  "abi": [
    {
      "inputs": [],
      "name": "adminCounts",
      "outputs": [
        {
          "internalType": "uint256",
          "name": "",
          "type": "uint256"
        }
      ],
      "stateMutability": "view",
      "type": "function"
    },
    {
      "inputs": [
        {
          "internalType": "uint256",
          "name": "",
          "type": "uint256"
        }
      ],
      "name": "adminSelfs",
      "outputs": [
        {
          "internalType": "uint256",
          "name": "adminId",
          "type": "uint256"
        },
        {
          "internalType": "string",
          "name": "adminName",
          "type": "string"
        },
        {
          "internalType": "address",
          "name": "adminBlockAddress",
          "type": "address"
        },
        {
          "internalType": "uint256",
          "name": "adminAuthorization",
          "type": "uint256"
        }
      ],
      "stateMutability": "view",
      "type": "function"
    },
    {
      "inputs": [],
      "name": "courseCounts",
      "outputs": [
        {
          "internalType": "uint256",
          "name": "",
          "type": "uint256"
        }
      ],
      "stateMutability": "view",
      "type": "function"
    },
    {
      "inputs": [
        {
          "internalType": "uint256",
          "name": "",
          "type": "uint256"
        }
      ],
      "name": "courseInfs",
      "outputs": [
        {
          "internalType": "uint256",
          "name": "courseId",
          "type": "uint256"
        },
        {
          "internalType": "string",
          "name": "courseName",
          "type": "string"
        },
        {
          "internalType": "address",
          "name": "proBlockAddress",
          "type": "address"
        },
        {
          "internalType": "bool",
          "name": "canApply",
          "type": "bool"
        },
        {
          "internalType": "uint256",
          "name": "courseStudentCounts",
          "type": "uint256"
        }
      ],
      "stateMutability": "view",
      "type": "function"
    },
    {
      "inputs": [
        {
          "internalType": "address",
          "name": "_adminBlockAddress",
          "type": "address"
        }
      ],
      "name": "getAdminIndexByAddress",
      "outputs": [
        {
          "internalType": "uint256",
          "name": "",
          "type": "uint256"
        }
      ],
      "stateMutability": "view",
      "type": "function"
    },
    {
      "inputs": [],
      "name": "getAllCourseId",
      "outputs": [
        {
          "internalType": "uint256[]",
          "name": "",
          "type": "uint256[]"
        }
      ],
      "stateMutability": "view",
      "type": "function"
    },
    {
      "inputs": [],
      "name": "getAllStudentAddress",
      "outputs": [
        {
          "internalType": "address[]",
          "name": "",
          "type": "address[]"
        }
      ],
      "stateMutability": "view",
      "type": "function"
    },
    {
      "inputs": [
        {
          "internalType": "address",
          "name": "_address",
          "type": "address"
        }
      ],
      "name": "getAuthorizationByAddress",
      "outputs": [
        {
          "internalType": "uint256",
          "name": "",
          "type": "uint256"
        }
      ],
      "stateMutability": "view",
      "type": "function"
    },
    {
      "inputs": [
        {
          "internalType": "address",
          "name": "_proBlockAddress",
          "type": "address"
        }
      ],
      "name": "getCourseCountsByProAddress",
      "outputs": [
        {
          "internalType": "uint256",
          "name": "",
          "type": "uint256"
        }
      ],
      "stateMutability": "view",
      "type": "function"
    },
    {
      "inputs": [
        {
          "internalType": "address",
          "name": "_proBlockAddress",
          "type": "address"
        }
      ],
      "name": "getCourseIdByProAddress",
      "outputs": [
        {
          "internalType": "uint256[]",
          "name": "",
          "type": "uint256[]"
        }
      ],
      "stateMutability": "view",
      "type": "function"
    },
    {
      "inputs": [
        {
          "internalType": "uint256",
          "name": "_courseid",
          "type": "uint256"
        }
      ],
      "name": "getCourseInfByCourseId",
      "outputs": [
        {
          "internalType": "uint256",
          "name": "",
          "type": "uint256"
        },
        {
          "internalType": "string",
          "name": "",
          "type": "string"
        },
        {
          "internalType": "address",
          "name": "",
          "type": "address"
        },
        {
          "internalType": "uint256",
          "name": "",
          "type": "uint256"
        }
      ],
      "stateMutability": "view",
      "type": "function"
    },
    {
      "inputs": [
        {
          "internalType": "uint256",
          "name": "_courseid",
          "type": "uint256"
        }
      ],
      "name": "getCourseStudentInfByCourseId",
      "outputs": [
        {
          "internalType": "uint256[]",
          "name": "",
          "type": "uint256[]"
        },
        {
          "internalType": "string[]",
          "name": "",
          "type": "string[]"
        },
        {
          "internalType": "address[]",
          "name": "",
          "type": "address[]"
        },
        {
          "internalType": "uint256[]",
          "name": "",
          "type": "uint256[]"
        }
      ],
      "stateMutability": "view",
      "type": "function"
    },
    {
      "inputs": [
        {
          "internalType": "uint256",
          "name": "_courseid",
          "type": "uint256"
        }
      ],
      "name": "getCourseStudentNameByCourseId",
      "outputs": [
        {
          "internalType": "string[]",
          "name": "",
          "type": "string[]"
        }
      ],
      "stateMutability": "view",
      "type": "function"
    },
    {
      "inputs": [
        {
          "internalType": "address",
          "name": "_address",
          "type": "address"
        }
      ],
      "name": "getIdByAddress",
      "outputs": [
        {
          "internalType": "uint256",
          "name": "",
          "type": "uint256"
        }
      ],
      "stateMutability": "view",
      "type": "function"
    },
    {
      "inputs": [
        {
          "internalType": "uint256",
          "name": "_courseId",
          "type": "uint256"
        }
      ],
      "name": "getIndexByCourseId",
      "outputs": [
        {
          "internalType": "uint256",
          "name": "",
          "type": "uint256"
        }
      ],
      "stateMutability": "view",
      "type": "function"
    },
    {
      "inputs": [
        {
          "internalType": "address",
          "name": "_proBlockAddress",
          "type": "address"
        }
      ],
      "name": "getProfessorIndexByAddress",
      "outputs": [
        {
          "internalType": "uint256",
          "name": "",
          "type": "uint256"
        }
      ],
      "stateMutability": "view",
      "type": "function"
    },
    {
      "inputs": [
        {
          "internalType": "uint256",
          "name": "_stuId",
          "type": "uint256"
        }
      ],
      "name": "getStuAddressByStuId",
      "outputs": [
        {
          "internalType": "address",
          "name": "",
          "type": "address"
        }
      ],
      "stateMutability": "view",
      "type": "function"
    },
    {
      "inputs": [
        {
          "internalType": "address",
          "name": "_stuBlockAddress",
          "type": "address"
        }
      ],
      "name": "getStudentIndexByAddress",
      "outputs": [
        {
          "internalType": "uint256",
          "name": "",
          "type": "uint256"
        }
      ],
      "stateMutability": "view",
      "type": "function"
    },
    {
      "inputs": [
        {
          "internalType": "address",
          "name": "_stuBlockAddress",
          "type": "address"
        }
      ],
      "name": "getStudentInfByStuAddress",
      "outputs": [
        {
          "internalType": "uint256",
          "name": "",
          "type": "uint256"
        },
        {
          "internalType": "string",
          "name": "",
          "type": "string"
        },
        {
          "internalType": "address",
          "name": "",
          "type": "address"
        },
        {
          "internalType": "uint256",
          "name": "",
          "type": "uint256"
        },
        {
          "internalType": "uint256[]",
          "name": "",
          "type": "uint256[]"
        },
        {
          "internalType": "string[]",
          "name": "",
          "type": "string[]"
        },
        {
          "internalType": "uint256[]",
          "name": "",
          "type": "uint256[]"
        }
      ],
      "stateMutability": "view",
      "type": "function"
    },
    {
      "inputs": [
        {
          "internalType": "uint256",
          "name": "_courseid",
          "type": "uint256"
        },
        {
          "internalType": "uint256",
          "name": "_getTops",
          "type": "uint256"
        }
      ],
      "name": "getTopStudentsByCourseId",
      "outputs": [
        {
          "internalType": "uint256",
          "name": "",
          "type": "uint256"
        },
        {
          "internalType": "uint256[]",
          "name": "",
          "type": "uint256[]"
        },
        {
          "internalType": "string[]",
          "name": "",
          "type": "string[]"
        },
        {
          "internalType": "address[]",
          "name": "",
          "type": "address[]"
        },
        {
          "internalType": "uint256[]",
          "name": "",
          "type": "uint256[]"
        }
      ],
      "stateMutability": "view",
      "type": "function"
    },
    {
      "inputs": [
        {
          "internalType": "uint256",
          "name": "_courseid",
          "type": "uint256"
        }
      ],
      "name": "getcourseStudentCounts",
      "outputs": [
        {
          "internalType": "uint256",
          "name": "courseStudentCounts_",
          "type": "uint256"
        }
      ],
      "stateMutability": "view",
      "type": "function"
    },
    {
      "inputs": [],
      "name": "modifiersOwner",
      "outputs": [
        {
          "internalType": "address",
          "name": "",
          "type": "address"
        }
      ],
      "stateMutability": "view",
      "type": "function"
    },
    {
      "inputs": [],
      "name": "personCounts",
      "outputs": [
        {
          "internalType": "uint256",
          "name": "",
          "type": "uint256"
        }
      ],
      "stateMutability": "view",
      "type": "function"
    },
    {
      "inputs": [],
      "name": "professorCounts",
      "outputs": [
        {
          "internalType": "uint256",
          "name": "",
          "type": "uint256"
        }
      ],
      "stateMutability": "view",
      "type": "function"
    },
    {
      "inputs": [
        {
          "internalType": "uint256",
          "name": "",
          "type": "uint256"
        }
      ],
      "name": "professorSelfs",
      "outputs": [
        {
          "internalType": "uint256",
          "name": "proId",
          "type": "uint256"
        },
        {
          "internalType": "string",
          "name": "proName",
          "type": "string"
        },
        {
          "internalType": "address",
          "name": "proBlockAddress",
          "type": "address"
        },
        {
          "internalType": "uint256",
          "name": "proAuthorization",
          "type": "uint256"
        },
        {
          "internalType": "uint256",
          "name": "isTeachingPeopleSum",
          "type": "uint256"
        }
      ],
      "stateMutability": "view",
      "type": "function"
    },
    {
      "inputs": [],
      "name": "studentCounts",
      "outputs": [
        {
          "internalType": "uint256",
          "name": "",
          "type": "uint256"
        }
      ],
      "stateMutability": "view",
      "type": "function"
    },
    {
      "inputs": [
        {
          "internalType": "uint256",
          "name": "",
          "type": "uint256"
        }
      ],
      "name": "studentSelfs",
      "outputs": [
        {
          "internalType": "uint256",
          "name": "stuId",
          "type": "uint256"
        },
        {
          "internalType": "string",
          "name": "stuName",
          "type": "string"
        },
        {
          "internalType": "address",
          "name": "stuBlockAddress",
          "type": "address"
        },
        {
          "internalType": "uint256",
          "name": "stuAuthorization",
          "type": "uint256"
        },
        {
          "internalType": "uint256",
          "name": "isLearningSum",
          "type": "uint256"
        }
      ],
      "stateMutability": "view",
      "type": "function"
    },
    {
      "inputs": [
        {
          "internalType": "address",
          "name": "_blockAddress",
          "type": "address"
        },
        {
          "internalType": "string",
          "name": "_name",
          "type": "string"
        },
        {
          "internalType": "uint256",
          "name": "_authorization",
          "type": "uint256"
        }
      ],
      "name": "setPermission",
      "outputs": [
        {
          "internalType": "bool",
          "name": "",
          "type": "bool"
        }
      ],
      "stateMutability": "nonpayable",
      "type": "function"
    },
    {
      "inputs": [
        {
          "internalType": "address",
          "name": "_blockAddress",
          "type": "address"
        }
      ],
      "name": "removePermission",
      "outputs": [
        {
          "internalType": "bool",
          "name": "",
          "type": "bool"
        }
      ],
      "stateMutability": "nonpayable",
      "type": "function"
    }
  ],
  "bytecode": "0x6080604052600060015560006003556000600555600060075560016009556001600a556064600b556103e8600c553480156200003a57600080fd5b50336000806101000a81548173ffffffffffffffffffffffffffffffffffffffff021916908373ffffffffffffffffffffffffffffffffffffffff1602179055506040518060800160405280600181526020016040518060400160405280600481526020017f526f6f7400000000000000000000000000000000000000000000000000000000815250815260200160008054906101000a900473ffffffffffffffffffffffffffffffffffffffff1673ffffffffffffffffffffffffffffffffffffffff1681526020016003815250600260006001815260200190815260200160002060008201518160000155602082015181600101908051906020019062000145929190620001ba565b5060408201518160020160006101000a81548173ffffffffffffffffffffffffffffffffffffffff021916908373ffffffffffffffffffffffffffffffffffffffff1602179055506060820151816003015590505060016000815480929190620001af90620002aa565b919050555062000356565b828054620001c89062000274565b90600052602060002090601f016020900481019282620001ec576000855562000238565b82601f106200020757805160ff191683800117855562000238565b8280016001018555821562000238579182015b82811115620002375782518255916020019190600101906200021a565b5b5090506200024791906200024b565b5090565b5b80821115620002665760008160009055506001016200024c565b5090565b6000819050919050565b600060028204905060018216806200028d57607f821691505b60208210811415620002a457620002a362000327565b5b50919050565b6000620002b7826200026a565b91507fffffffffffffffffffffffffffffffffffffffffffffffffffffffffffffffff821415620002ed57620002ec620002f8565b5b600182019050919050565b7f4e487b7100000000000000000000000000000000000000000000000000000000600052601160045260246000fd5b7f4e487b7100000000000000000000000000000000000000000000000000000000600052602260045260246000fd5b6145fb80620003666000396000f3fe608060405234801561001057600080fd5b50600436106101ce5760003560e01c80636b8a2c4f116101045780639fde0943116100a2578063e074bb4711610071578063e074bb4714610648578063f6aa09e414610678578063fb3189e814610696578063fc0c1f39146106b4576101ce565b80639fde09431461059a578063a5cc464d146105b8578063ad9e42d9146105e8578063dff3b49714610618576101ce565b806390eab7a2116100de57806390eab7a2146104e857806394e48ece14610518578063982203be1461054c57806398aede551461057c576101ce565b80636b8a2c4f1461046a5780637860a0691461049a57806390141940146104b8576101ce565b80632454a939116101715780634d64e5ee1161014b5780634d64e5ee1461039d57806358a42065146103d15780635e719a4914610407578063606870da14610437576101ce565b80632454a9391461030a57806330e947111461033a5780634d4fb0d71461036d576101ce565b80630d9382fc116101ad5780630d9382fc1461026b5780630e3bfd6c1461028957806310d756dd146102a75780631643c8db146102d7576101ce565b80624255a6146101d3578063043022fa146102075780630c1596b41461023b575b600080fd5b6101ed60048036038101906101e89190613861565b6106d2565b6040516101fe959493929190613f8d565b60405180910390f35b610221600480360381019061021c9190613861565b6107b0565b604051610232959493929190613e5c565b60405180910390f35b610255600480360381019061025091906137c5565b61089b565b6040516102629190613c54565b60405180910390f35b610273610980565b6040516102809190613dd2565b60405180910390f35b610291610986565b60405161029e9190613dd2565b60405180910390f35b6102c160048036038101906102bc91906137c5565b61098c565b6040516102ce9190613dd2565b60405180910390f35b6102f160048036038101906102ec9190613861565b610a2e565b6040516103019493929190613eb6565b60405180910390f35b610324600480360381019061031f91906137c5565b610b06565b6040516103319190613dd2565b60405180910390f35b610354600480360381019061034f9190613861565b610ba8565b6040516103649493929190613eb6565b60405180910390f35b610387600480360381019061038291906137c5565b610ce8565b6040516103949190613dd2565b60405180910390f35b6103b760048036038101906103b29190613861565b610d18565b6040516103c8959493929190613f8d565b60405180910390f35b6103eb60048036038101906103e691906137c5565b610df6565b6040516103fe9796959493929190613f02565b60405180910390f35b610421600480360381019061041c9190613861565b611107565b60405161042e9190613dd2565b60405180910390f35b610451600480360381019061044c9190613861565b61116f565b6040516104619493929190613c76565b60405180910390f35b610484600480360381019061047f9190613861565b61153e565b6040516104919190613c32565b60405180910390f35b6104a26116c4565b6040516104af9190613dd2565b60405180910390f35b6104d260048036038101906104cd91906137f2565b6116ca565b6040516104df9190613cd7565b60405180910390f35b61050260048036038101906104fd91906137c5565b611bac565b60405161050f9190613dd2565b60405180910390f35b610532600480360381019061052d919061388e565b611dbe565b604051610543959493929190613ded565b60405180910390f35b61056660048036038101906105619190613861565b612426565b6040516105739190613bf5565b60405180910390f35b6105846124b2565b6040516105919190613bf5565b60405180910390f35b6105a26124d6565b6040516105af9190613c10565b60405180910390f35b6105d260048036038101906105cd91906137c5565b6125e2565b6040516105df9190613dd2565b60405180910390f35b61060260048036038101906105fd9190613861565b612684565b60405161060f9190613dd2565b60405180910390f35b610632600480360381019061062d91906137c5565b6126e5565b60405161063f9190613dd2565b60405180910390f35b610662600480360381019061065d91906137c5565b6128f7565b60405161066f9190613cd7565b60405180910390f35b610680613266565b60405161068d9190613c54565b60405180910390f35b61069e613324565b6040516106ab9190613dd2565b60405180910390f35b6106bc61332a565b6040516106c99190613dd2565b60405180910390f35b60066020528060005260406000206000915090508060000154908060010180546106fb90614253565b80601f016020809104026020016040519081016040528092919081815260200182805461072790614253565b80156107745780601f1061074957610100808354040283529160200191610774565b820191906000526020600020905b81548152906001019060200180831161075757829003601f168201915b5050505050908060020160009054906101000a900473ffffffffffffffffffffffffffffffffffffffff16908060030154908060070154905085565b60086020528060005260406000206000915090508060000154908060010180546107d990614253565b80601f016020809104026020016040519081016040528092919081815260200182805461080590614253565b80156108525780601f1061082757610100808354040283529160200191610852565b820191906000526020600020905b81548152906001019060200180831161083557829003601f168201915b5050505050908060020160009054906101000a900473ffffffffffffffffffffffffffffffffffffffff16908060020160149054906101000a900460ff16908060030154905085565b606060006108a8836125e2565b905060006108b584610ce8565b905060008167ffffffffffffffff8111156108d3576108d261438c565b5b6040519080825280602002602001820160405280156109015781602001602082028036833780820191505090505b50905060005b82811015610974576004600085815260200190815260200160002060040181815481106109375761093661435d565b5b90600052602060002001548282815181106109555761095461435d565b5b602002602001018181525050808061096c906142b6565b915050610907565b50809350505050919050565b60095481565b60075481565b600080600190505b6001548111610a23578273ffffffffffffffffffffffffffffffffffffffff166002600083815260200190815260200160002060020160009054906101000a900473ffffffffffffffffffffffffffffffffffffffff1673ffffffffffffffffffffffffffffffffffffffff161415610a105780915050610a29565b8080610a1b906142b6565b915050610994565b50600090505b919050565b6002602052806000526040600020600091509050806000015490806001018054610a5790614253565b80601f0160208091040260200160405190810160405280929190818152602001828054610a8390614253565b8015610ad05780601f10610aa557610100808354040283529160200191610ad0565b820191906000526020600020905b815481529060010190602001808311610ab357829003601f168201915b5050505050908060020160009054906101000a900473ffffffffffffffffffffffffffffffffffffffff16908060030154905084565b600080600190505b6005548111610b9d578273ffffffffffffffffffffffffffffffffffffffff166006600083815260200190815260200160002060020160009054906101000a900473ffffffffffffffffffffffffffffffffffffffff1673ffffffffffffffffffffffffffffffffffffffff161415610b8a5780915050610ba3565b8080610b95906142b6565b915050610b0e565b50600090505b919050565b600060606000806000610bba86612684565b90506000600860008381526020019081526020016000206000015490506000600860008481526020019081526020016000206001018054610bfa90614253565b80601f0160208091040260200160405190810160405280929190818152602001828054610c2690614253565b8015610c735780601f10610c4857610100808354040283529160200191610c73565b820191906000526020600020905b815481529060010190602001808311610c5657829003601f168201915b5050505050905060006008600085815260200190815260200160002060020160009054906101000a900473ffffffffffffffffffffffffffffffffffffffff16905060006008600086815260200190815260200160002060030154905083838383985098509850985050505050509193509193565b600080610cf4836125e2565b90506004600082815260200190815260200160002060040180549050915050919050565b6004602052806000526040600020600091509050806000015490806001018054610d4190614253565b80601f0160208091040260200160405190810160405280929190818152602001828054610d6d90614253565b8015610dba5780601f10610d8f57610100808354040283529160200191610dba565b820191906000526020600020905b815481529060010190602001808311610d9d57829003601f168201915b5050505050908060020160009054906101000a900473ffffffffffffffffffffffffffffffffffffffff16908060030154908060050154905085565b6000606060008060608060606000610e0d89610b06565b90506000600660008381526020019081526020016000206000015490506000600660008481526020019081526020016000206001018054610e4d90614253565b80601f0160208091040260200160405190810160405280929190818152602001828054610e7990614253565b8015610ec65780601f10610e9b57610100808354040283529160200191610ec6565b820191906000526020600020905b815481529060010190602001808311610ea957829003601f168201915b5050505050905060006006600085815260200190815260200160002060020160009054906101000a900473ffffffffffffffffffffffffffffffffffffffff169050600060066000868152602001908152602001600020600301549050600060066000878152602001908152602001600020600401805480602002602001604051908101604052809291908181526020018280548015610f8557602002820191906000526020600020905b815481526020019060010190808311610f71575b50505050509050600060066000888152602001908152602001600020600501805480602002602001604051908101604052809291908181526020016000905b82821015611070578382906000526020600020018054610fe390614253565b80601f016020809104026020016040519081016040528092919081815260200182805461100f90614253565b801561105c5780601f106110315761010080835404028352916020019161105c565b820191906000526020600020905b81548152906001019060200180831161103f57829003601f168201915b505050505081526020019060010190610fc4565b5050505090506000600660008981526020019081526020016000206006018054806020026020016040519081016040528092919081815260200182805480156110d857602002820191906000526020600020905b8154815260200190600101908083116110c4575b50505050509050868686868686869e509e509e509e509e509e509e505050505050505050919395979092949650565b600080600190505b600754811161116857826008600083815260200190815260200160002060000154141561115557600860008281526020019081526020016000206003015491505061116a565b8080611160906142b6565b91505061110f565b505b919050565b606080606080600061118086612684565b905060006008600083815260200190815260200160002060030154905060008167ffffffffffffffff8111156111b9576111b861438c565b5b6040519080825280602002602001820160405280156111e75781602001602082028036833780820191505090505b50905060008267ffffffffffffffff8111156112065761120561438c565b5b6040519080825280602002602001820160405280156112345781602001602082028036833780820191505090505b50905060008367ffffffffffffffff8111156112535761125261438c565b5b60405190808252806020026020018201604052801561128657816020015b60608152602001906001900390816112715790505b50905060008467ffffffffffffffff8111156112a5576112a461438c565b5b6040519080825280602002602001820160405280156112d35781602001602082028036833780820191505090505b5090506000600190505b8581116115245760086000888152602001908152602001600020600401600082815260200190815260200160002060000160009054906101000a900473ffffffffffffffffffffffffffffffffffffffff168560018361133d919061416b565b8151811061134e5761134d61435d565b5b602002602001019073ffffffffffffffffffffffffffffffffffffffff16908173ffffffffffffffffffffffffffffffffffffffff168152505060086000888152602001908152602001600020600401600082815260200190815260200160002060010154846001836113c1919061416b565b815181106113d2576113d161435d565b5b602002602001018181525050600860008881526020019081526020016000206004016000828152602001908152602001600020600201805461141390614253565b80601f016020809104026020016040519081016040528092919081815260200182805461143f90614253565b801561148c5780601f106114615761010080835404028352916020019161148c565b820191906000526020600020905b81548152906001019060200180831161146f57829003601f168201915b50505050508360018361149f919061416b565b815181106114b0576114af61435d565b5b602002602001018190525060086000888152602001908152602001600020600401600082815260200190815260200160002060030154826001836114f4919061416b565b815181106115055761150461435d565b5b602002602001018181525050808061151c906142b6565b9150506112dd565b508282858399509950995099505050505050509193509193565b6060600061154b83612684565b905060006008600083815260200190815260200160002060030154905060008167ffffffffffffffff8111156115845761158361438c565b5b6040519080825280602002602001820160405280156115b757816020015b60608152602001906001900390816115a25790505b5090506000600190505b8281116116b85760086000858152602001908152602001600020600401600082815260200190815260200160002060020180546115fd90614253565b80601f016020809104026020016040519081016040528092919081815260200182805461162990614253565b80156116765780601f1061164b57610100808354040283529160200191611676565b820191906000526020600020905b81548152906001019060200180831161165957829003601f168201915b505050505082600183611689919061416b565b8151811061169a5761169961435d565b5b602002602001018190525080806116b0906142b6565b9150506115c1565b50809350505050919050565b60035481565b6000806000905060005b600154811161175f576002600082815260200190815260200160002060020160009054906101000a900473ffffffffffffffffffffffffffffffffffffffff1673ffffffffffffffffffffffffffffffffffffffff163373ffffffffffffffffffffffffffffffffffffffff16141561174c57600191505b8080611757906142b6565b9150506116d4565b50806117a0576040517f08c379a000000000000000000000000000000000000000000000000000000000815260040161179790613d32565b60405180910390fd5b60018314806117af5750600283145b806117ba5750600383145b6117f9576040517f08c379a00000000000000000000000000000000000000000000000000000000081526004016117f090613d72565b60405180910390fd5b6000151561180686613330565b151514611848576040517f08c379a000000000000000000000000000000000000000000000000000000000815260040161183f90613cf2565b60405180910390fd5b6009600081548092919061185b906142b6565b9190505550600183141561197d576005600081548092919061187c906142b6565b9190505550600c6000815480929190611894906142b6565b9190505550600c54600660006005548152602001908152602001600020600001819055508360066000600554815260200190815260200160002060010190805190602001906118e4929190613503565b508460066000600554815260200190815260200160002060020160006101000a81548173ffffffffffffffffffffffffffffffffffffffff021916908373ffffffffffffffffffffffffffffffffffffffff160217905550600160066000600554815260200190815260200160002060030181905550600060066000600554815260200190815260200160002060070181905550611ba0565b6002831415611a9a5760036000815480929190611999906142b6565b9190505550600b60008154809291906119b1906142b6565b9190505550600b5460046000600354815260200190815260200160002060000181905550836004600060035481526020019081526020016000206001019080519060200190611a01929190613503565b508460046000600354815260200190815260200160002060020160006101000a81548173ffffffffffffffffffffffffffffffffffffffff021916908373ffffffffffffffffffffffffffffffffffffffff160217905550600260046000600354815260200190815260200160002060030181905550600060046000600354815260200190815260200160002060050181905550611b9f565b6003831415611b9e5760016000815480929190611ab6906142b6565b9190505550600a6000815480929190611ace906142b6565b91905055506040518060800160405280600a5481526020018581526020018673ffffffffffffffffffffffffffffffffffffffff1681526020016003815250600260006001548152602001908152602001600020600082015181600001556020820151816001019080519060200190611b48929190613503565b5060408201518160020160006101000a81548173ffffffffffffffffffffffffffffffffffffffff021916908373ffffffffffffffffffffffffffffffffffffffff160217905550606082015181600301559050505b5b5b60019150509392505050565b600080600190505b6001548111611c59578273ffffffffffffffffffffffffffffffffffffffff166002600083815260200190815260200160002060020160009054906101000a900473ffffffffffffffffffffffffffffffffffffffff1673ffffffffffffffffffffffffffffffffffffffff161415611c46576002600082815260200190815260200160002060030154915050611db9565b8080611c51906142b6565b915050611bb4565b506000600190505b6003548111611d06578273ffffffffffffffffffffffffffffffffffffffff166004600083815260200190815260200160002060020160009054906101000a900473ffffffffffffffffffffffffffffffffffffffff1673ffffffffffffffffffffffffffffffffffffffff161415611cf3576004600082815260200190815260200160002060030154915050611db9565b8080611cfe906142b6565b915050611c61565b506000600190505b6005548111611db3578273ffffffffffffffffffffffffffffffffffffffff166006600083815260200190815260200160002060020160009054906101000a900473ffffffffffffffffffffffffffffffffffffffff1673ffffffffffffffffffffffffffffffffffffffff161415611da0576006600082815260200190815260200160002060030154915050611db9565b8080611dab906142b6565b915050611d0e565b50600090505b919050565b60006060806060806000869050600080611dd78a612684565b905060006008600083815260200190815260200160002060030154905083811015611e00578093505b60008167ffffffffffffffff811115611e1c57611e1b61438c565b5b604051908082528060200260200182016040528015611e4a5781602001602082028036833780820191505090505b5090506000600190505b828111611f06576000600860008681526020019081526020016000206004016000838152602001908152602001600020600301541115611ef3576008600085815260200190815260200160002060040160008281526020019081526020016000206003015482600183611ec7919061416b565b81518110611ed857611ed761435d565b5b6020026020010181815250508480611eef906142b6565b9550505b8080611efe906142b6565b915050611e54565b5084841015611f13578394505b60005b8151811015612031576000600190505b825181101561201d5782600182611f3d919061416b565b81518110611f4e57611f4d61435d565b5b6020026020010151838281518110611f6957611f6861435d565b5b6020026020010151111561200a57600083600183611f87919061416b565b81518110611f9857611f9761435d565b5b60200260200101519050838281518110611fb557611fb461435d565b5b602002602001015184600184611fcb919061416b565b81518110611fdc57611fdb61435d565b5b60200260200101818152505080848381518110611ffc57611ffb61435d565b5b602002602001018181525050505b8080612015906142b6565b915050611f26565b508080612029906142b6565b915050611f16565b5060008567ffffffffffffffff81111561204e5761204d61438c565b5b60405190808252806020026020018201604052801561207c5781602001602082028036833780820191505090505b50905060008667ffffffffffffffff81111561209b5761209a61438c565b5b6040519080825280602002602001820160405280156120c95781602001602082028036833780820191505090505b50905060008767ffffffffffffffff8111156120e8576120e761438c565b5b60405190808252806020026020018201604052801561211b57816020015b60608152602001906001900390816121065790505b50905060008867ffffffffffffffff81111561213a5761213961438c565b5b6040519080825280602002602001820160405280156121685781602001602082028036833780820191505090505b5090506000805b8651811015612402578a82141561218557612402565b8681815181106121985761219761435d565b5b60200260200101518382815181106121b3576121b261435d565b5b6020026020010181815250506000600190505b8881116123e057600860008b815260200190815260200160002060040160008281526020019081526020016000206003015484838151811061220b5761220a61435d565b5b602002602001015114156123cd57600860008b81526020019081526020016000206004016000828152602001908152602001600020600101548683815181106122575761225661435d565b5b602002602001018181525050600860008b81526020019081526020016000206004016000828152602001908152602001600020600201805461229890614253565b80601f01602080910402602001604051908101604052809291908181526020018280546122c490614253565b80156123115780601f106122e657610100808354040283529160200191612311565b820191906000526020600020905b8154815290600101906020018083116122f457829003601f168201915b50505050508583815181106123295761232861435d565b5b6020026020010181905250600860008b8152602001908152602001600020600401600082815260200190815260200160002060000160009054906101000a900473ffffffffffffffffffffffffffffffffffffffff168783815181106123925761239161435d565b5b602002602001019073ffffffffffffffffffffffffffffffffffffffff16908173ffffffffffffffffffffffffffffffffffffffff16815250505b80806123d8906142b6565b9150506121c6565b5081806123ec906142b6565b92505080806123fa906142b6565b91505061216f565b5089848487859e509e509e509e509e50505050505050505050509295509295909350565b600080600190505b60055481116124a7578260066000838152602001908152602001600020600001541415612494576006600082815260200190815260200160002060020160009054906101000a900473ffffffffffffffffffffffffffffffffffffffff169150506124ad565b808061249f906142b6565b91505061242e565b50600090505b919050565b60008054906101000a900473ffffffffffffffffffffffffffffffffffffffff1681565b6060600060055467ffffffffffffffff8111156124f6576124f561438c565b5b6040519080825280602002602001820160405280156125245781602001602082028036833780820191505090505b5090506000600190505b60055481116125da576006600082815260200190815260200160002060020160009054906101000a900473ffffffffffffffffffffffffffffffffffffffff168260018361257c919061416b565b8151811061258d5761258c61435d565b5b602002602001019073ffffffffffffffffffffffffffffffffffffffff16908173ffffffffffffffffffffffffffffffffffffffff168152505080806125d2906142b6565b91505061252e565b508091505090565b600080600190505b6003548111612679578273ffffffffffffffffffffffffffffffffffffffff166004600083815260200190815260200160002060020160009054906101000a900473ffffffffffffffffffffffffffffffffffffffff1673ffffffffffffffffffffffffffffffffffffffff161415612666578091505061267f565b8080612671906142b6565b9150506125ea565b50600090505b919050565b600080600090506000600190505b60075481116126d95783600860008381526020019081526020016000206000015414156126c65780915081925050506126e0565b80806126d1906142b6565b915050612692565b5060009150505b919050565b600080600190505b6001548111612792578273ffffffffffffffffffffffffffffffffffffffff166002600083815260200190815260200160002060020160009054906101000a900473ffffffffffffffffffffffffffffffffffffffff1673ffffffffffffffffffffffffffffffffffffffff16141561277f5760026000828152602001908152602001600020600001549150506128f2565b808061278a906142b6565b9150506126ed565b506000600190505b600354811161283f578273ffffffffffffffffffffffffffffffffffffffff166004600083815260200190815260200160002060020160009054906101000a900473ffffffffffffffffffffffffffffffffffffffff1673ffffffffffffffffffffffffffffffffffffffff16141561282c5760046000828152602001908152602001600020600001549150506128f2565b8080612837906142b6565b91505061279a565b506000600190505b60055481116128ec578273ffffffffffffffffffffffffffffffffffffffff166006600083815260200190815260200160002060020160009054906101000a900473ffffffffffffffffffffffffffffffffffffffff1673ffffffffffffffffffffffffffffffffffffffff1614156128d95760066000828152602001908152602001600020600001549150506128f2565b80806128e4906142b6565b915050612847565b50600090505b919050565b6000806000905060005b600154811161298c576002600082815260200190815260200160002060020160009054906101000a900473ffffffffffffffffffffffffffffffffffffffff1673ffffffffffffffffffffffffffffffffffffffff163373ffffffffffffffffffffffffffffffffffffffff16141561297957600191505b8080612984906142b6565b915050612901565b50806129cd576040517f08c379a00000000000000000000000000000000000000000000000000000000081526004016129c490613d32565b60405180910390fd5b600115156129da84613330565b151514612a1c576040517f08c379a0000000000000000000000000000000000000000000000000000000008152600401612a1390613d52565b60405180910390fd5b6000612a2784611bac565b90506000811415612a6d576040517f08c379a0000000000000000000000000000000000000000000000000000000008152600401612a6490613db2565b60405180910390fd5b6001811415612d5d576000612a8185610b06565b90506000600660008381526020019081526020016000206007015414612adc576040517f08c379a0000000000000000000000000000000000000000000000000000000008152600401612ad390613d92565b60405180910390fd5b60008190505b600554811015612ca75760066000600183612afd9190614115565b815260200190815260200160002060000154600660008381526020019081526020016000206000018190555060066000600183612b3a9190614115565b815260200190815260200160002060010160066000838152602001908152602001600020600101908054612b6d90614253565b612b78929190613589565b5060066000600183612b8a9190614115565b815260200190815260200160002060020160009054906101000a900473ffffffffffffffffffffffffffffffffffffffff166006600083815260200190815260200160002060020160006101000a81548173ffffffffffffffffffffffffffffffffffffffff021916908373ffffffffffffffffffffffffffffffffffffffff16021790555060066000600183612c219190614115565b815260200190815260200160002060030154600660008381526020019081526020016000206003018190555060066000600183612c5e9190614115565b815260200190815260200160002060040160066000838152602001908152602001600020600401908054612c93929190613616565b508080612c9f906142b6565b915050612ae2565b50600660006005548152602001908152602001600020600080820160009055600182016000612cd69190613668565b6002820160006101000a81549073ffffffffffffffffffffffffffffffffffffffff02191690556003820160009055600482016000612d1591906136a8565b600582016000612d2591906136c9565b600682016000612d3591906136a8565b6007820160009055505060056000815480929190612d5290614229565b919050555050613243565b600281141561302d576000612d71856125e2565b90506000600460008381526020019081526020016000206005015414612dcc576040517f08c379a0000000000000000000000000000000000000000000000000000000008152600401612dc390613d12565b60405180910390fd5b60008190505b600354811015612f975760046000600183612ded9190614115565b815260200190815260200160002060000154600460008381526020019081526020016000206000018190555060046000600183612e2a9190614115565b815260200190815260200160002060010160046000838152602001908152602001600020600101908054612e5d90614253565b612e68929190613589565b5060046000600183612e7a9190614115565b815260200190815260200160002060020160009054906101000a900473ffffffffffffffffffffffffffffffffffffffff166004600083815260200190815260200160002060020160006101000a81548173ffffffffffffffffffffffffffffffffffffffff021916908373ffffffffffffffffffffffffffffffffffffffff16021790555060046000600183612f119190614115565b815260200190815260200160002060030154600460008381526020019081526020016000206003018190555060046000600183612f4e9190614115565b815260200190815260200160002060040160046000838152602001908152602001600020600401908054612f83929190613616565b508080612f8f906142b6565b915050612dd2565b50600460006003548152602001908152602001600020600080820160009055600182016000612fc69190613668565b6002820160006101000a81549073ffffffffffffffffffffffffffffffffffffffff0219169055600382016000905560048201600061300591906136a8565b600582016000905550506003600081548092919061302290614229565b919050555050613242565b60038114156132415760006130418561098c565b905060008190505b6001548110156131c757600260006001836130649190614115565b8152602001908152602001600020600001546002600083815260200190815260200160002060000181905550600260006001836130a19190614115565b8152602001908152602001600020600101600260008381526020019081526020016000206001019080546130d490614253565b6130df929190613589565b50600260006001836130f19190614115565b815260200190815260200160002060020160009054906101000a900473ffffffffffffffffffffffffffffffffffffffff166002600083815260200190815260200160002060020160006101000a81548173ffffffffffffffffffffffffffffffffffffffff021916908373ffffffffffffffffffffffffffffffffffffffff160217905550600260006001836131889190614115565b815260200190815260200160002060030154600260008381526020019081526020016000206003018190555080806131bf906142b6565b915050613049565b506002600060015481526020019081526020016000206000808201600090556001820160006131f69190613668565b6002820160006101000a81549073ffffffffffffffffffffffffffffffffffffffff0219169055600382016000905550506001600081548092919061323a90614229565b9190505550505b5b5b6009600081548092919061325690614229565b9190505550600192505050919050565b6060600060075467ffffffffffffffff8111156132865761328561438c565b5b6040519080825280602002602001820160405280156132b45781602001602082028036833780820191505090505b5090506000600190505b600754811161331c576008600082815260200190815260200160002060000154826001836132ec919061416b565b815181106132fd576132fc61435d565b5b6020026020010181815250508080613314906142b6565b9150506132be565b508091505090565b60055481565b60015481565b600080600190505b60015481116133c8578273ffffffffffffffffffffffffffffffffffffffff166002600083815260200190815260200160002060020160009054906101000a900473ffffffffffffffffffffffffffffffffffffffff1673ffffffffffffffffffffffffffffffffffffffff1614156133b55760019150506134fe565b80806133c0906142b6565b915050613338565b506000600190505b6003548111613460578273ffffffffffffffffffffffffffffffffffffffff166004600083815260200190815260200160002060020160009054906101000a900473ffffffffffffffffffffffffffffffffffffffff1673ffffffffffffffffffffffffffffffffffffffff16141561344d5760019150506134fe565b8080613458906142b6565b9150506133d0565b506000600190505b60055481116134f8578273ffffffffffffffffffffffffffffffffffffffff166006600083815260200190815260200160002060020160009054906101000a900473ffffffffffffffffffffffffffffffffffffffff1673ffffffffffffffffffffffffffffffffffffffff1614156134e55760019150506134fe565b80806134f0906142b6565b915050613468565b50600090505b919050565b82805461350f90614253565b90600052602060002090601f0160209004810192826135315760008555613578565b82601f1061354a57805160ff1916838001178555613578565b82800160010185558215613578579182015b8281111561357757825182559160200191906001019061355c565b5b50905061358591906136ea565b5090565b82805461359590614253565b90600052602060002090601f0160209004810192826135b75760008555613605565b82601f106135c85780548555613605565b8280016001018555821561360557600052602060002091601f016020900482015b828111156136045782548255916001019190600101906135e9565b5b50905061361291906136ea565b5090565b8280548282559060005260206000209081019282156136575760005260206000209182015b8281111561365657825482559160010191906001019061363b565b5b50905061366491906136ea565b5090565b50805461367490614253565b6000825580601f1061368657506136a5565b601f0160209004906000526020600020908101906136a491906136ea565b5b50565b50805460008255906000526020600020908101906136c691906136ea565b50565b50805460008255906000526020600020908101906136e79190613707565b50565b5b808211156137035760008160009055506001016136eb565b5090565b5b80821115613727576000818161371e9190613668565b50600101613708565b5090565b600061373e6137398461400c565b613fe7565b90508281526020810184848401111561375a576137596143c0565b5b6137658482856141e7565b509392505050565b60008135905061377c81614597565b92915050565b600082601f830112613797576137966143bb565b5b81356137a784826020860161372b565b91505092915050565b6000813590506137bf816145ae565b92915050565b6000602082840312156137db576137da6143ca565b5b60006137e98482850161376d565b91505092915050565b60008060006060848603121561380b5761380a6143ca565b5b60006138198682870161376d565b935050602084013567ffffffffffffffff81111561383a576138396143c5565b5b61384686828701613782565b9250506040613857868287016137b0565b9150509250925092565b600060208284031215613877576138766143ca565b5b6000613885848285016137b0565b91505092915050565b600080604083850312156138a5576138a46143ca565b5b60006138b3858286016137b0565b92505060206138c4858286016137b0565b9150509250929050565b60006138da8383613912565b60208301905092915050565b60006138f28383613a70565b905092915050565b60006139068383613bd7565b60208301905092915050565b61391b8161419f565b82525050565b61392a8161419f565b82525050565b600061393b8261406d565b61394581856140c0565b93506139508361403d565b8060005b8381101561398157815161396888826138ce565b975061397383614099565b925050600181019050613954565b5085935050505092915050565b600061399982614078565b6139a381856140d1565b9350836020820285016139b58561404d565b8060005b858110156139f157848403895281516139d285826138e6565b94506139dd836140a6565b925060208a019950506001810190506139b9565b50829750879550505050505092915050565b6000613a0e82614083565b613a1881856140e2565b9350613a238361405d565b8060005b83811015613a54578151613a3b88826138fa565b9750613a46836140b3565b925050600181019050613a27565b5085935050505092915050565b613a6a816141b1565b82525050565b6000613a7b8261408e565b613a8581856140f3565b9350613a958185602086016141f6565b613a9e816143cf565b840191505092915050565b6000613ab48261408e565b613abe8185614104565b9350613ace8185602086016141f6565b613ad7816143cf565b840191505092915050565b6000613aef602d83614104565b9150613afa826143e0565b604082019050919050565b6000613b12603883614104565b9150613b1d8261442f565b604082019050919050565b6000613b35601583614104565b9150613b408261447e565b602082019050919050565b6000613b58601883614104565b9150613b63826144a7565b602082019050919050565b6000613b7b600c83614104565b9150613b86826144d0565b602082019050919050565b6000613b9e603683614104565b9150613ba9826144f9565b604082019050919050565b6000613bc1603283614104565b9150613bcc82614548565b604082019050919050565b613be0816141dd565b82525050565b613bef816141dd565b82525050565b6000602082019050613c0a6000830184613921565b92915050565b60006020820190508181036000830152613c2a8184613930565b905092915050565b60006020820190508181036000830152613c4c818461398e565b905092915050565b60006020820190508181036000830152613c6e8184613a03565b905092915050565b60006080820190508181036000830152613c908187613a03565b90508181036020830152613ca4818661398e565b90508181036040830152613cb88185613930565b90508181036060830152613ccc8184613a03565b905095945050505050565b6000602082019050613cec6000830184613a61565b92915050565b60006020820190508181036000830152613d0b81613ae2565b9050919050565b60006020820190508181036000830152613d2b81613b05565b9050919050565b60006020820190508181036000830152613d4b81613b28565b9050919050565b60006020820190508181036000830152613d6b81613b4b565b9050919050565b60006020820190508181036000830152613d8b81613b6e565b9050919050565b60006020820190508181036000830152613dab81613b91565b9050919050565b60006020820190508181036000830152613dcb81613bb4565b9050919050565b6000602082019050613de76000830184613be6565b92915050565b600060a082019050613e026000830188613be6565b8181036020830152613e148187613a03565b90508181036040830152613e28818661398e565b90508181036060830152613e3c8185613930565b90508181036080830152613e508184613a03565b90509695505050505050565b600060a082019050613e716000830188613be6565b8181036020830152613e838187613aa9565b9050613e926040830186613921565b613e9f6060830185613a61565b613eac6080830184613be6565b9695505050505050565b6000608082019050613ecb6000830187613be6565b8181036020830152613edd8186613aa9565b9050613eec6040830185613921565b613ef96060830184613be6565b95945050505050565b600060e082019050613f17600083018a613be6565b8181036020830152613f298189613aa9565b9050613f386040830188613921565b613f456060830187613be6565b8181036080830152613f578186613a03565b905081810360a0830152613f6b818561398e565b905081810360c0830152613f7f8184613a03565b905098975050505050505050565b600060a082019050613fa26000830188613be6565b8181036020830152613fb48187613aa9565b9050613fc36040830186613921565b613fd06060830185613be6565b613fdd6080830184613be6565b9695505050505050565b6000613ff1614002565b9050613ffd8282614285565b919050565b6000604051905090565b600067ffffffffffffffff8211156140275761402661438c565b5b614030826143cf565b9050602081019050919050565b6000819050602082019050919050565b6000819050602082019050919050565b6000819050602082019050919050565b600081519050919050565b600081519050919050565b600081519050919050565b600081519050919050565b6000602082019050919050565b6000602082019050919050565b6000602082019050919050565b600082825260208201905092915050565b600082825260208201905092915050565b600082825260208201905092915050565b600082825260208201905092915050565b600082825260208201905092915050565b6000614120826141dd565b915061412b836141dd565b9250827fffffffffffffffffffffffffffffffffffffffffffffffffffffffffffffffff038211156141605761415f6142ff565b5b828201905092915050565b6000614176826141dd565b9150614181836141dd565b925082821015614194576141936142ff565b5b828203905092915050565b60006141aa826141bd565b9050919050565b60008115159050919050565b600073ffffffffffffffffffffffffffffffffffffffff82169050919050565b6000819050919050565b82818337600083830152505050565b60005b838110156142145780820151818401526020810190506141f9565b83811115614223576000848401525b50505050565b6000614234826141dd565b91506000821415614248576142476142ff565b5b600182039050919050565b6000600282049050600182168061426b57607f821691505b6020821081141561427f5761427e61432e565b5b50919050565b61428e826143cf565b810181811067ffffffffffffffff821117156142ad576142ac61438c565b5b80604052505050565b60006142c1826141dd565b91507fffffffffffffffffffffffffffffffffffffffffffffffffffffffffffffffff8214156142f4576142f36142ff565b5b600182019050919050565b7f4e487b7100000000000000000000000000000000000000000000000000000000600052601160045260246000fd5b7f4e487b7100000000000000000000000000000000000000000000000000000000600052602260045260246000fd5b7f4e487b7100000000000000000000000000000000000000000000000000000000600052603260045260246000fd5b7f4e487b7100000000000000000000000000000000000000000000000000000000600052604160045260246000fd5b600080fd5b600080fd5b600080fd5b600080fd5b6000601f19601f8301169050919050565b7f5468697320616464726573732068617320616c7265616479206265656e20736560008201527f74207065726d697373696f6e7300000000000000000000000000000000000000602082015250565b7f3e3e3e546869732070726f666573736f72206973207465616368696e672c206360008201527f616e742072656d6f7665207065726d697373696f6e2121210000000000000000602082015250565b7f3e3e3e3e3e3e697341646d696e203d2066616c73650000000000000000000000600082015250565b7f3e3e3e546869732061646472657373206e6f2065786973740000000000000000600082015250565b7f756e617574686f72697a65640000000000000000000000000000000000000000600082015250565b7f3e3e3e546869732073747564656e74206973206c6561726e696e672c2063616e60008201527f742072656d6f7665207065726d697373696f6e21212100000000000000000000602082015250565b7f3e3e3e5468697320626c6f636b4164647265737320776173206f726967696e6160008201527f6c6c79206e6f7420617574686f72697a65640000000000000000000000000000602082015250565b6145a08161419f565b81146145ab57600080fd5b50565b6145b7816141dd565b81146145c257600080fd5b5056fea2646970667358221220c70c3f9faafdd150a3f04c9972d0221a82edbe6b5f4affc1993db4859af1ae1564736f6c63430008070033",
  "immutableReferences": {},
  "source": "// SPDX-License-Identifier: MIT\r\npragma solidity >=0.4.22 <0.9.0;\r\n\r\n/*\r\n// admin   StructAndModifiers\r\n\r\n1. setPermission()   ==>  0=student; 1=professor; 2=admin\r\n    1 , modifierstudent ,student\r\n    2 , modifierprofessor ,professor\r\n    3 , modifieradmin ,admin\r\n\r\n    If it is set to 1, call the function in the modifier class to add it to the student array and to the student contract at the same time\r\n    If it is set to 2, call the function in the modifier class to add it to the professor array and to the professor contract at the same time\r\n    If it is set to 3, call the function in the modifier class to add it to the admin array and add it to the admin contract at the same time\r\n\r\n2. removePermission() \r\n    professor, student\r\n    Professors need to be allowed to be deprived of permission without teaching tasks and students need to take classes\r\n\r\n\r\n//  : 3. getGradeByAdminId()  You can view the student scores of any course\r\n\r\n\r\n*/\r\n\r\nimport \"./StructAndModifiers.sol\";\r\n\r\ncontract Admin is StructAndModifiers{\r\n\r\n    // onwer +1 1 root   Initialized to 1 because root is automatically added\r\n    uint public personCounts = 1;   //  Record the current number of people\r\n    // id  id  id value, initialize the id value, automatically accumulate\r\n    uint setadmId = 1; // root = 1\r\n    uint setproId = 100;    // proId100\r\n    uint setstuId = 1000;    \r\n    \r\n     ////////////////////////////////////////////////////////////////////////////////////////////////////////////// \r\n    //  Set permission function\r\n    function setPermission(address _blockAddress,string memory _name,uint _authorization) public onlyAdmin returns(bool){\r\n        \r\n        //   Check whether the set permission value is legal\r\n        require(_authorization == 1 || _authorization == 2 || _authorization == 3, \"unauthorized\");\r\n        \r\n        // address  shuo ming yi jing she zhi guo le\r\n        // true ==> \r\n        require(checkAddressExisted(_blockAddress) == false,\"This address has already been set permissions\");\r\n        \r\n        // Record person[]\r\n        //  Self increasing\r\n        personCounts++;\r\n\r\n        if(_authorization == 1){ // \r\n            //   Add him directly to the students\r\n            studentCounts++;\r\n            setstuId++;\r\n            //  \r\n            // Since the course array cannot be assigned at this time, it is assigned one by one\r\n            studentSelfs[studentCounts].stuId = setstuId;\r\n            studentSelfs[studentCounts].stuName = _name;\r\n            studentSelfs[studentCounts].stuBlockAddress = _blockAddress;\r\n            studentSelfs[studentCounts].stuAuthorization = 1;\r\n            studentSelfs[studentCounts].isLearningSum = 0; //  Initialize to no class in progress\r\n            \r\n        }\r\n        else if(_authorization == 2){ // professor\r\n            professorCounts++;\r\n            setproId++;\r\n            // \r\n            // Since the course array cannot be assigned at this time, it is assigned one by one\r\n            professorSelfs[professorCounts].proId = setproId;\r\n            professorSelfs[professorCounts].proName = _name;\r\n            professorSelfs[professorCounts].proBlockAddress = _blockAddress;\r\n            professorSelfs[professorCounts].proAuthorization = 2;\r\n            professorSelfs[professorCounts].isTeachingPeopleSum = 0; //  Initialize to no teaching in progress\r\n\r\n        }\r\n        else if(_authorization == 3){ // Admin\r\n            adminCounts++;\r\n            setadmId++;\r\n            adminSelfs[adminCounts] = AdminSelf(setadmId,_name,_blockAddress,3);\r\n\r\n        }\r\n        //   Setup succeeded\r\n        return true;\r\n       \r\n        \r\n    }\r\n    \r\n    ////////////////////////////////////////////////////////////////////////////////////////////////////////////// \r\n    // , 100 , person  ;  Remove the permission relative to, and set it to 100, that is, person\r\n    function removePermission(address _blockAddress) public onlyAdmin returns(bool){\r\n\r\n        // ID                                     First find out if this ID exists\r\n        require(checkAddressExisted(_blockAddress) == true,\">>>This address no exist\");\r\n        \r\n        // ID                             Then check the permission before this ID\r\n        uint _authorization  = getAuthorizationByAddress(_blockAddress); // index       Call function to get index\r\n        require(_authorization != 0,\">>>This blockAddress was originally not authorized\");\r\n        \r\n        \r\n        //   ;   Remove him from the corresponding permission database according to his permissions\r\n        if(_authorization == 1){ // \r\n            uint studentIndex = getStudentIndexByAddress(_blockAddress);\r\n            // ID  Check if this ID is learning\r\n            require(studentSelfs[studentIndex].isLearningSum == 0,\">>>This student is learning, cant remove permission!!!\"); \r\n            \r\n            //   Direct deletion will leave an empty space\r\n            //   So the latter element overwrites the previous element\r\n            for(uint i=studentIndex;i<studentCounts;i++){\r\n                studentSelfs[i].stuId = studentSelfs[i+1].stuId;\r\n                studentSelfs[i].stuName = studentSelfs[i+1].stuName;\r\n                studentSelfs[i].stuBlockAddress = studentSelfs[i+1].stuBlockAddress;\r\n                studentSelfs[i].stuAuthorization = studentSelfs[i+1].stuAuthorization;\r\n                studentSelfs[i].myStuCourses = studentSelfs[i+1].myStuCourses;\r\n            }\r\n            \r\n            //   Then remove the last element\r\n            delete studentSelfs[studentCounts];\r\n            studentCounts--; \r\n        }\r\n        else if(_authorization == 2){  // professor\r\n            uint professorIndex = getProfessorIndexByAddress(_blockAddress);\r\n            // ID  Check if this ID is in class\r\n            require(professorSelfs[professorIndex].isTeachingPeopleSum == 0,\">>>This professor is teaching, cant remove permission!!!\"); \r\n            \r\n            //   Direct deletion will leave an empty space\r\n            //  So the latter element overrides the previous element\r\n            for(uint i=professorIndex;i<professorCounts;i++){\r\n                professorSelfs[i].proId = professorSelfs[i+1].proId;\r\n                professorSelfs[i].proName = professorSelfs[i+1].proName;\r\n                professorSelfs[i].proBlockAddress = professorSelfs[i+1].proBlockAddress;\r\n                professorSelfs[i].proAuthorization = professorSelfs[i+1].proAuthorization;\r\n                professorSelfs[i].myProCourses = professorSelfs[i+1].myProCourses;\r\n            }\r\n            \r\n            //  Then remove the last element\r\n            delete professorSelfs[professorCounts];\r\n            professorCounts--; \r\n \r\n        }\r\n        else if(_authorization == 3){ // Admin\r\n            uint adminIndex = getAdminIndexByAddress(_blockAddress);\r\n            //   Direct deletion will leave an empty space\r\n            //   So the latter element overrides the previous element\r\n            for(uint i=adminIndex;i<adminCounts;i++){\r\n                adminSelfs[i].adminId = adminSelfs[i+1].adminId;\r\n                adminSelfs[i].adminName = adminSelfs[i+1].adminName;\r\n                adminSelfs[i].adminBlockAddress = adminSelfs[i+1].adminBlockAddress;\r\n                adminSelfs[i].adminAuthorization = adminSelfs[i+1].adminAuthorization;\r\n            }\r\n            \r\n            //   Then remove the last element\r\n            delete adminSelfs[adminCounts];\r\n            adminCounts--; \r\n\r\n        }\r\n        // person\r\n        personCounts--; \r\n\r\n        return true;\r\n        \r\n    }\r\n    \r\n/*    \r\n    //////////////////////////////////////////////////////////////////////////////////////////////////////////////\r\n    //   View results\r\n    // admin,  \r\n    // If it is admin, it can view the scores of all students in all courses\r\n\r\n    function getGradeByAdminAddr(uint _courseId,address _adminBlockAddress) public view onlyAdmin returns(address[] memory, uint[] memory){\r\n        \r\n        // pid Check whether the PID matches the address\r\n        require(_adminBlockAddress == msg.sender,\">>>The Id no match the current address!!!\");\r\n        \r\n        //  Check whether the course information exists\r\n        bool isExisted = checkCourseExisted(_courseId); \r\n        require(isExisted == true,\">>>_courseId no existed!!!\");\r\n        \r\n        ///\r\n        //  The results of all students under the course will be listed\r\n        \r\n        //  Find the course first\r\n        uint indexOfCourseID = getIndexByCourseId(_courseId);\r\n        // ,  \r\n        // Find the length of the array of students stored in this course, that is, the number of students taking this course\r\n        uint courseStudentCounts_ = getcourseStudentCounts(_courseId);\r\n        \r\n        address[] memory studentAddress = new address[](courseStudentCounts_);\r\n        uint[] memory studentsGrade  = new uint[](courseStudentCounts_);\r\n        \r\n        // , 0, courseStudentCounts_1\r\n        // There will be a problem here. The newly created array starts from 0 and coursestudentcounts_ It starts with 1\r\n        for(uint j=1;j<=courseStudentCounts_;j++){\r\n            studentAddress[j-1] = courseInfs[indexOfCourseID].courseStudents[j].stuBlockAddress;\r\n            studentsGrade[j-1] = courseInfs[indexOfCourseID].courseStudents[j].stuGrade;\r\n        }\r\n        \r\n        return (studentAddress,studentsGrade) ;  //  complete\r\n     \r\n    }\r\n\r\n*/\r\n\r\n}\r\n",
  "sourcePath": "D:\\UNIV\\year 4\\capstone\\scouter2\\contracts\\Admin.sol",
  "compiler": {
    "name": "solc",
    "version": "0.8.7+commit.e28d00a7.Emscripten.clang"
  },
  "schemaVersion": "3.4.3",
  "updatedAt": "2021-12-04T11:58:03.839Z",
  "devdoc": {
    "kind": "dev",
    "methods": {},
    "version": 1
  },
  "userdoc": {
    "kind": "user",
    "methods": {},
    "version": 1
  }
}