{
  "contractName": "Admin",
  "abi": [
    {
      "inputs": [],
      "name": "adminCounts",
      "outputs": [
        {
          "internalType": "uint256",
          "name": "",
          "type": "uint256"
        }
      ],
      "stateMutability": "view",
      "type": "function"
    },
    {
      "inputs": [
        {
          "internalType": "uint256",
          "name": "",
          "type": "uint256"
        }
      ],
      "name": "adminSelfs",
      "outputs": [
        {
          "internalType": "uint256",
          "name": "adminId",
          "type": "uint256"
        },
        {
          "internalType": "string",
          "name": "adminName",
          "type": "string"
        },
        {
          "internalType": "address",
          "name": "adminBlockAddress",
          "type": "address"
        },
        {
          "internalType": "uint256",
          "name": "adminAuthorization",
          "type": "uint256"
        }
      ],
      "stateMutability": "view",
      "type": "function"
    },
    {
      "inputs": [],
      "name": "courseCounts",
      "outputs": [
        {
          "internalType": "uint256",
          "name": "",
          "type": "uint256"
        }
      ],
      "stateMutability": "view",
      "type": "function"
    },
    {
      "inputs": [
        {
          "internalType": "uint256",
          "name": "",
          "type": "uint256"
        }
      ],
      "name": "courseInfs",
      "outputs": [
        {
          "internalType": "uint256",
          "name": "courseId",
          "type": "uint256"
        },
        {
          "internalType": "string",
          "name": "courseName",
          "type": "string"
        },
        {
          "internalType": "address",
          "name": "proBlockAddress",
          "type": "address"
        },
        {
          "internalType": "bool",
          "name": "canApply",
          "type": "bool"
        },
        {
          "internalType": "uint256",
          "name": "courseStudentCounts",
          "type": "uint256"
        }
      ],
      "stateMutability": "view",
      "type": "function"
    },
    {
      "inputs": [
        {
          "internalType": "address",
          "name": "_adminBlockAddress",
          "type": "address"
        }
      ],
      "name": "getAdminIndexByAddress",
      "outputs": [
        {
          "internalType": "uint256",
          "name": "",
          "type": "uint256"
        }
      ],
      "stateMutability": "view",
      "type": "function"
    },
    {
      "inputs": [],
      "name": "getAllCourseId",
      "outputs": [
        {
          "internalType": "uint256[]",
          "name": "",
          "type": "uint256[]"
        }
      ],
      "stateMutability": "view",
      "type": "function"
    },
    {
      "inputs": [],
      "name": "getAllProfessorAddress",
      "outputs": [
        {
          "internalType": "address[]",
          "name": "",
          "type": "address[]"
        }
      ],
      "stateMutability": "view",
      "type": "function"
    },
    {
      "inputs": [],
      "name": "getAllStudentAddress",
      "outputs": [
        {
          "internalType": "address[]",
          "name": "",
          "type": "address[]"
        }
      ],
      "stateMutability": "view",
      "type": "function"
    },
    {
      "inputs": [
        {
          "internalType": "address",
          "name": "_address",
          "type": "address"
        }
      ],
      "name": "getAuthorizationByAddress",
      "outputs": [
        {
          "internalType": "uint256",
          "name": "",
          "type": "uint256"
        }
      ],
      "stateMutability": "view",
      "type": "function"
    },
    {
      "inputs": [
        {
          "internalType": "address",
          "name": "_proBlockAddress",
          "type": "address"
        }
      ],
      "name": "getCourseCountsByProAddress",
      "outputs": [
        {
          "internalType": "uint256",
          "name": "",
          "type": "uint256"
        }
      ],
      "stateMutability": "view",
      "type": "function"
    },
    {
      "inputs": [
        {
          "internalType": "address",
          "name": "_stuBlockAddress",
          "type": "address"
        }
      ],
      "name": "getCourseCountsByStuAddress",
      "outputs": [
        {
          "internalType": "uint256",
          "name": "",
          "type": "uint256"
        }
      ],
      "stateMutability": "view",
      "type": "function"
    },
    {
      "inputs": [
        {
          "internalType": "address",
          "name": "_proBlockAddress",
          "type": "address"
        }
      ],
      "name": "getCourseIdByProAddress",
      "outputs": [
        {
          "internalType": "uint256[]",
          "name": "",
          "type": "uint256[]"
        }
      ],
      "stateMutability": "view",
      "type": "function"
    },
    {
      "inputs": [
        {
          "internalType": "address",
          "name": "_stuBlockAddress",
          "type": "address"
        }
      ],
      "name": "getCourseIdByStuAddress",
      "outputs": [
        {
          "internalType": "uint256[]",
          "name": "",
          "type": "uint256[]"
        }
      ],
      "stateMutability": "view",
      "type": "function"
    },
    {
      "inputs": [
        {
          "internalType": "uint256",
          "name": "_courseid",
          "type": "uint256"
        }
      ],
      "name": "getCourseInfByCourseId",
      "outputs": [
        {
          "internalType": "uint256",
          "name": "",
          "type": "uint256"
        },
        {
          "internalType": "string",
          "name": "",
          "type": "string"
        },
        {
          "internalType": "address",
          "name": "",
          "type": "address"
        },
        {
          "internalType": "uint256",
          "name": "",
          "type": "uint256"
        }
      ],
      "stateMutability": "view",
      "type": "function"
    },
    {
      "inputs": [
        {
          "internalType": "uint256",
          "name": "_courseid",
          "type": "uint256"
        }
      ],
      "name": "getCourseStudentInfByCourseId",
      "outputs": [
        {
          "internalType": "address[]",
          "name": "",
          "type": "address[]"
        },
        {
          "internalType": "string[]",
          "name": "",
          "type": "string[]"
        },
        {
          "internalType": "uint256[]",
          "name": "",
          "type": "uint256[]"
        }
      ],
      "stateMutability": "view",
      "type": "function"
    },
    {
      "inputs": [
        {
          "internalType": "uint256",
          "name": "_courseid",
          "type": "uint256"
        }
      ],
      "name": "getCourseStudentNameByCourseId",
      "outputs": [
        {
          "internalType": "string[]",
          "name": "",
          "type": "string[]"
        }
      ],
      "stateMutability": "view",
      "type": "function"
    },
    {
      "inputs": [
        {
          "internalType": "address",
          "name": "_address",
          "type": "address"
        }
      ],
      "name": "getIdByAddress",
      "outputs": [
        {
          "internalType": "uint256",
          "name": "",
          "type": "uint256"
        }
      ],
      "stateMutability": "view",
      "type": "function"
    },
    {
      "inputs": [
        {
          "internalType": "uint256",
          "name": "_courseId",
          "type": "uint256"
        }
      ],
      "name": "getIndexByCourseId",
      "outputs": [
        {
          "internalType": "uint256",
          "name": "",
          "type": "uint256"
        }
      ],
      "stateMutability": "view",
      "type": "function"
    },
    {
      "inputs": [
        {
          "internalType": "address",
          "name": "_proBlockAddress",
          "type": "address"
        }
      ],
      "name": "getProfessorIndexByAddress",
      "outputs": [
        {
          "internalType": "uint256",
          "name": "",
          "type": "uint256"
        }
      ],
      "stateMutability": "view",
      "type": "function"
    },
    {
      "inputs": [
        {
          "internalType": "address",
          "name": "_proBlockAddress",
          "type": "address"
        }
      ],
      "name": "getProfessorInfByProAddress",
      "outputs": [
        {
          "internalType": "uint256",
          "name": "",
          "type": "uint256"
        },
        {
          "internalType": "string",
          "name": "",
          "type": "string"
        },
        {
          "internalType": "address",
          "name": "",
          "type": "address"
        },
        {
          "internalType": "uint256",
          "name": "",
          "type": "uint256"
        },
        {
          "internalType": "uint256[]",
          "name": "",
          "type": "uint256[]"
        }
      ],
      "stateMutability": "view",
      "type": "function"
    },
    {
      "inputs": [
        {
          "internalType": "uint256",
          "name": "_stuId",
          "type": "uint256"
        }
      ],
      "name": "getStuAddressByStuId",
      "outputs": [
        {
          "internalType": "address",
          "name": "",
          "type": "address"
        }
      ],
      "stateMutability": "view",
      "type": "function"
    },
    {
      "inputs": [
        {
          "internalType": "address",
          "name": "_stuBlockAddress",
          "type": "address"
        }
      ],
      "name": "getStudentIndexByAddress",
      "outputs": [
        {
          "internalType": "uint256",
          "name": "",
          "type": "uint256"
        }
      ],
      "stateMutability": "view",
      "type": "function"
    },
    {
      "inputs": [
        {
          "internalType": "address",
          "name": "_stuBlockAddress",
          "type": "address"
        }
      ],
      "name": "getStudentInfByStuAddress",
      "outputs": [
        {
          "internalType": "uint256",
          "name": "",
          "type": "uint256"
        },
        {
          "internalType": "string",
          "name": "",
          "type": "string"
        },
        {
          "internalType": "address",
          "name": "",
          "type": "address"
        },
        {
          "internalType": "uint256",
          "name": "",
          "type": "uint256"
        },
        {
          "internalType": "uint256[]",
          "name": "",
          "type": "uint256[]"
        }
      ],
      "stateMutability": "view",
      "type": "function"
    },
    {
      "inputs": [
        {
          "internalType": "uint256",
          "name": "_courseid",
          "type": "uint256"
        },
        {
          "internalType": "uint256",
          "name": "_getTops",
          "type": "uint256"
        }
      ],
      "name": "getTopStudentsByCourseId",
      "outputs": [
        {
          "internalType": "uint256",
          "name": "",
          "type": "uint256"
        },
        {
          "internalType": "address[]",
          "name": "",
          "type": "address[]"
        },
        {
          "internalType": "string[]",
          "name": "",
          "type": "string[]"
        },
        {
          "internalType": "uint256[]",
          "name": "",
          "type": "uint256[]"
        }
      ],
      "stateMutability": "view",
      "type": "function"
    },
    {
      "inputs": [
        {
          "internalType": "uint256",
          "name": "_courseid",
          "type": "uint256"
        }
      ],
      "name": "getcourseStudentCounts",
      "outputs": [
        {
          "internalType": "uint256",
          "name": "courseStudentCounts_",
          "type": "uint256"
        }
      ],
      "stateMutability": "view",
      "type": "function"
    },
    {
      "inputs": [],
      "name": "modifiersOwner",
      "outputs": [
        {
          "internalType": "address",
          "name": "",
          "type": "address"
        }
      ],
      "stateMutability": "view",
      "type": "function"
    },
    {
      "inputs": [],
      "name": "personCounts",
      "outputs": [
        {
          "internalType": "uint256",
          "name": "",
          "type": "uint256"
        }
      ],
      "stateMutability": "view",
      "type": "function"
    },
    {
      "inputs": [],
      "name": "professorCounts",
      "outputs": [
        {
          "internalType": "uint256",
          "name": "",
          "type": "uint256"
        }
      ],
      "stateMutability": "view",
      "type": "function"
    },
    {
      "inputs": [
        {
          "internalType": "uint256",
          "name": "",
          "type": "uint256"
        }
      ],
      "name": "professorSelfs",
      "outputs": [
        {
          "internalType": "uint256",
          "name": "proId",
          "type": "uint256"
        },
        {
          "internalType": "string",
          "name": "proName",
          "type": "string"
        },
        {
          "internalType": "address",
          "name": "proBlockAddress",
          "type": "address"
        },
        {
          "internalType": "uint256",
          "name": "proAuthorization",
          "type": "uint256"
        },
        {
          "internalType": "uint256",
          "name": "isTeachingPeopleSum",
          "type": "uint256"
        }
      ],
      "stateMutability": "view",
      "type": "function"
    },
    {
      "inputs": [],
      "name": "studentCounts",
      "outputs": [
        {
          "internalType": "uint256",
          "name": "",
          "type": "uint256"
        }
      ],
      "stateMutability": "view",
      "type": "function"
    },
    {
      "inputs": [
        {
          "internalType": "uint256",
          "name": "",
          "type": "uint256"
        }
      ],
      "name": "studentSelfs",
      "outputs": [
        {
          "internalType": "uint256",
          "name": "stuId",
          "type": "uint256"
        },
        {
          "internalType": "string",
          "name": "stuName",
          "type": "string"
        },
        {
          "internalType": "address",
          "name": "stuBlockAddress",
          "type": "address"
        },
        {
          "internalType": "uint256",
          "name": "stuAuthorization",
          "type": "uint256"
        },
        {
          "internalType": "uint256",
          "name": "isLearningSum",
          "type": "uint256"
        }
      ],
      "stateMutability": "view",
      "type": "function"
    },
    {
      "inputs": [
        {
          "internalType": "address",
          "name": "_blockAddress",
          "type": "address"
        },
        {
          "internalType": "string",
          "name": "_name",
          "type": "string"
        },
        {
          "internalType": "uint256",
          "name": "_authorization",
          "type": "uint256"
        }
      ],
      "name": "setPermission",
      "outputs": [
        {
          "internalType": "bool",
          "name": "",
          "type": "bool"
        }
      ],
      "stateMutability": "nonpayable",
      "type": "function"
    },
    {
      "inputs": [
        {
          "internalType": "address",
          "name": "_blockAddress",
          "type": "address"
        }
      ],
      "name": "removePermission",
      "outputs": [
        {
          "internalType": "bool",
          "name": "",
          "type": "bool"
        }
      ],
      "stateMutability": "nonpayable",
      "type": "function"
    }
  ],
  "bytecode": "0x6080604052600060015560006003556000600555600060075560016009556001600a556064600b556103e8600c553480156200003a57600080fd5b50336000806101000a81548173ffffffffffffffffffffffffffffffffffffffff021916908373ffffffffffffffffffffffffffffffffffffffff1602179055506040518060800160405280600181526020016040518060400160405280600481526020017f526f6f7400000000000000000000000000000000000000000000000000000000815250815260200160008054906101000a900473ffffffffffffffffffffffffffffffffffffffff1673ffffffffffffffffffffffffffffffffffffffff1681526020016003815250600260006001815260200190815260200160002060008201518160000155602082015181600101908051906020019062000145929190620001ba565b5060408201518160020160006101000a81548173ffffffffffffffffffffffffffffffffffffffff021916908373ffffffffffffffffffffffffffffffffffffffff1602179055506060820151816003015590505060016000815480929190620001af90620002aa565b919050555062000356565b828054620001c89062000274565b90600052602060002090601f016020900481019282620001ec576000855562000238565b82601f106200020757805160ff191683800117855562000238565b8280016001018555821562000238579182015b82811115620002375782518255916020019190600101906200021a565b5b5090506200024791906200024b565b5090565b5b80821115620002665760008160009055506001016200024c565b5090565b6000819050919050565b600060028204905060018216806200028d57607f821691505b60208210811415620002a457620002a362000327565b5b50919050565b6000620002b7826200026a565b91507fffffffffffffffffffffffffffffffffffffffffffffffffffffffffffffffff821415620002ed57620002ec620002f8565b5b600182019050919050565b7f4e487b7100000000000000000000000000000000000000000000000000000000600052601160045260246000fd5b7f4e487b7100000000000000000000000000000000000000000000000000000000600052602260045260246000fd5b61469180620003666000396000f3fe608060405234801561001057600080fd5b50600436106101fa5760003560e01c80636b8a2c4f1161011a578063a5cc464d116100ad578063f6aa09e41161007c578063f6aa09e414610700578063f7d9394d1461071e578063fb3189e81461073c578063fb6b990a1461075a578063fc0c1f391461078e576101fa565b8063a5cc464d14610640578063ad9e42d914610670578063dff3b497146106a0578063e074bb47146106d0576101fa565b806394e48ece116100e957806394e48ece146105a1578063982203be146105d457806398aede55146106045780639fde094314610622576101fa565b80636b8a2c4f146104f35780637860a06914610523578063901419401461054157806390eab7a214610571576101fa565b80632454a939116101925780634d64e5ee116101615780634d64e5ee1461042957806358a420651461045d5780635e719a4914610491578063606870da146104c1576101fa565b80632454a939146103665780632f02ca0b1461039657806330e94711146103c65780634d4fb0d7146103f9576101fa565b80630d9382fc116101ce5780630d9382fc146102c75780630e3bfd6c146102e557806310d756dd146103035780631643c8db14610333576101fa565b80624255a6146101ff578063043022fa146102335780630c1596b4146102675780630d69951d14610297575b600080fd5b6102196004803603810190610214919061394b565b6107ac565b60405161022a959493929190614023565b60405180910390f35b61024d6004803603810190610248919061394b565b61088a565b60405161025e959493929190613f1c565b60405180910390f35b610281600480360381019061027c91906138af565b610975565b60405161028e9190613d8a565b60405180910390f35b6102b160048036038101906102ac91906138af565b610a5a565b6040516102be9190613d8a565b60405180910390f35b6102cf610b3f565b6040516102dc9190613ea7565b60405180910390f35b6102ed610b45565b6040516102fa9190613ea7565b60405180910390f35b61031d600480360381019061031891906138af565b610b4b565b60405161032a9190613ea7565b60405180910390f35b61034d6004803603810190610348919061394b565b610bed565b60405161035d9493929190613f76565b60405180910390f35b610380600480360381019061037b91906138af565b610cc5565b60405161038d9190613ea7565b60405180910390f35b6103b060048036038101906103ab91906138af565b610d67565b6040516103bd9190613ea7565b60405180910390f35b6103e060048036038101906103db919061394b565b610d97565b6040516103f09493929190613f76565b60405180910390f35b610413600480360381019061040e91906138af565b610ed7565b6040516104209190613ea7565b60405180910390f35b610443600480360381019061043e919061394b565b610f07565b604051610454959493929190614023565b60405180910390f35b610477600480360381019061047291906138af565b610fe5565b604051610488959493929190613fc2565b60405180910390f35b6104ab60048036038101906104a6919061394b565b61113a565b6040516104b89190613ea7565b60405180910390f35b6104db60048036038101906104d6919061394b565b6111a2565b6040516104ea93929190613d1c565b60405180910390f35b61050d6004803603810190610508919061394b565b6114c9565b60405161051a9190613d68565b60405180910390f35b61052b61164f565b6040516105389190613ea7565b60405180910390f35b61055b600480360381019061055691906138dc565b611655565b6040516105689190613dac565b60405180910390f35b61058b600480360381019061058691906138af565b611b37565b6040516105989190613ea7565b60405180910390f35b6105bb60048036038101906105b69190613978565b611d49565b6040516105cb9493929190613ec2565b60405180910390f35b6105ee60048036038101906105e9919061394b565b612314565b6040516105fb9190613cdf565b60405180910390f35b61060c6123a0565b6040516106199190613cdf565b60405180910390f35b61062a6123c4565b6040516106379190613cfa565b60405180910390f35b61065a600480360381019061065591906138af565b6124d0565b6040516106679190613ea7565b60405180910390f35b61068a6004803603810190610685919061394b565b612572565b6040516106979190613ea7565b60405180910390f35b6106ba60048036038101906106b591906138af565b6125d3565b6040516106c79190613ea7565b60405180910390f35b6106ea60048036038101906106e591906138af565b6127e5565b6040516106f79190613dac565b60405180910390f35b610708613134565b6040516107159190613d8a565b60405180910390f35b6107266131f2565b6040516107339190613cfa565b60405180910390f35b6107446132fe565b6040516107519190613ea7565b60405180910390f35b610774600480360381019061076f91906138af565b613304565b604051610785959493929190613fc2565b60405180910390f35b610796613459565b6040516107a39190613ea7565b60405180910390f35b60066020528060005260406000206000915090508060000154908060010180546107d5906142e9565b80601f0160208091040260200160405190810160405280929190818152602001828054610801906142e9565b801561084e5780601f106108235761010080835404028352916020019161084e565b820191906000526020600020905b81548152906001019060200180831161083157829003601f168201915b5050505050908060020160009054906101000a900473ffffffffffffffffffffffffffffffffffffffff16908060030154908060050154905085565b60086020528060005260406000206000915090508060000154908060010180546108b3906142e9565b80601f01602080910402602001604051908101604052809291908181526020018280546108df906142e9565b801561092c5780601f106109015761010080835404028352916020019161092c565b820191906000526020600020905b81548152906001019060200180831161090f57829003601f168201915b5050505050908060020160009054906101000a900473ffffffffffffffffffffffffffffffffffffffff16908060020160149054906101000a900460ff16908060030154905085565b60606000610982836124d0565b9050600061098f84610ed7565b905060008167ffffffffffffffff8111156109ad576109ac614422565b5b6040519080825280602002602001820160405280156109db5781602001602082028036833780820191505090505b50905060005b82811015610a4e57600460008581526020019081526020016000206004018181548110610a1157610a106143f3565b5b9060005260206000200154828281518110610a2f57610a2e6143f3565b5b6020026020010181815250508080610a469061434c565b9150506109e1565b50809350505050919050565b60606000610a6783610cc5565b90506000610a7484610d67565b905060008167ffffffffffffffff811115610a9257610a91614422565b5b604051908082528060200260200182016040528015610ac05781602001602082028036833780820191505090505b50905060005b82811015610b3357600660008581526020019081526020016000206004018181548110610af657610af56143f3565b5b9060005260206000200154828281518110610b1457610b136143f3565b5b6020026020010181815250508080610b2b9061434c565b915050610ac6565b50809350505050919050565b60095481565b60075481565b600080600190505b6001548111610be2578273ffffffffffffffffffffffffffffffffffffffff166002600083815260200190815260200160002060020160009054906101000a900473ffffffffffffffffffffffffffffffffffffffff1673ffffffffffffffffffffffffffffffffffffffff161415610bcf5780915050610be8565b8080610bda9061434c565b915050610b53565b50600090505b919050565b6002602052806000526040600020600091509050806000015490806001018054610c16906142e9565b80601f0160208091040260200160405190810160405280929190818152602001828054610c42906142e9565b8015610c8f5780601f10610c6457610100808354040283529160200191610c8f565b820191906000526020600020905b815481529060010190602001808311610c7257829003601f168201915b5050505050908060020160009054906101000a900473ffffffffffffffffffffffffffffffffffffffff16908060030154905084565b600080600190505b6005548111610d5c578273ffffffffffffffffffffffffffffffffffffffff166006600083815260200190815260200160002060020160009054906101000a900473ffffffffffffffffffffffffffffffffffffffff1673ffffffffffffffffffffffffffffffffffffffff161415610d495780915050610d62565b8080610d549061434c565b915050610ccd565b50600090505b919050565b600080610d7383610cc5565b90506006600082815260200190815260200160002060040180549050915050919050565b600060606000806000610da986612572565b90506000600860008381526020019081526020016000206000015490506000600860008481526020019081526020016000206001018054610de9906142e9565b80601f0160208091040260200160405190810160405280929190818152602001828054610e15906142e9565b8015610e625780601f10610e3757610100808354040283529160200191610e62565b820191906000526020600020905b815481529060010190602001808311610e4557829003601f168201915b5050505050905060006008600085815260200190815260200160002060020160009054906101000a900473ffffffffffffffffffffffffffffffffffffffff16905060006008600086815260200190815260200160002060030154905083838383985098509850985050505050509193509193565b600080610ee3836124d0565b90506004600082815260200190815260200160002060040180549050915050919050565b6004602052806000526040600020600091509050806000015490806001018054610f30906142e9565b80601f0160208091040260200160405190810160405280929190818152602001828054610f5c906142e9565b8015610fa95780601f10610f7e57610100808354040283529160200191610fa9565b820191906000526020600020905b815481529060010190602001808311610f8c57829003601f168201915b5050505050908060020160009054906101000a900473ffffffffffffffffffffffffffffffffffffffff16908060030154908060050154905085565b6000606060008060606000610ff987610cc5565b90506000600660008381526020019081526020016000206000015490506000600660008481526020019081526020016000206001018054611039906142e9565b80601f0160208091040260200160405190810160405280929190818152602001828054611065906142e9565b80156110b25780601f10611087576101008083540402835291602001916110b2565b820191906000526020600020905b81548152906001019060200180831161109557829003601f168201915b5050505050905060006006600085815260200190815260200160002060020160009054906101000a900473ffffffffffffffffffffffffffffffffffffffff169050600060066000868152602001908152602001600020600301549050600061111a8c610a5a565b905084848484849a509a509a509a509a5050505050505091939590929450565b600080600190505b600754811161119b57826008600083815260200190815260200160002060000154141561118857600860008281526020019081526020016000206003015491505061119d565b80806111939061434c565b915050611142565b505b919050565b606080606060006111b285612572565b905060006008600083815260200190815260200160002060030154905060008167ffffffffffffffff8111156111eb576111ea614422565b5b6040519080825280602002602001820160405280156112195781602001602082028036833780820191505090505b50905060008267ffffffffffffffff81111561123857611237614422565b5b60405190808252806020026020018201604052801561126b57816020015b60608152602001906001900390816112565790505b50905060008367ffffffffffffffff81111561128a57611289614422565b5b6040519080825280602002602001820160405280156112b85781602001602082028036833780820191505090505b5090506000600190505b8481116114b35760086000878152602001908152602001600020600401600082815260200190815260200160002060000160009054906101000a900473ffffffffffffffffffffffffffffffffffffffff16846001836113229190614201565b81518110611333576113326143f3565b5b602002602001019073ffffffffffffffffffffffffffffffffffffffff16908173ffffffffffffffffffffffffffffffffffffffff168152505060086000878152602001908152602001600020600401600082815260200190815260200160002060010180546113a2906142e9565b80601f01602080910402602001604051908101604052809291908181526020018280546113ce906142e9565b801561141b5780601f106113f05761010080835404028352916020019161141b565b820191906000526020600020905b8154815290600101906020018083116113fe57829003601f168201915b50505050508360018361142e9190614201565b8151811061143f5761143e6143f3565b5b602002602001018190525060086000878152602001908152602001600020600401600082815260200190815260200160002060020154826001836114839190614201565b81518110611494576114936143f3565b5b60200260200101818152505080806114ab9061434c565b9150506112c2565b5082828297509750975050505050509193909250565b606060006114d683612572565b905060006008600083815260200190815260200160002060030154905060008167ffffffffffffffff81111561150f5761150e614422565b5b60405190808252806020026020018201604052801561154257816020015b606081526020019060019003908161152d5790505b5090506000600190505b828111611643576008600085815260200190815260200160002060040160008281526020019081526020016000206001018054611588906142e9565b80601f01602080910402602001604051908101604052809291908181526020018280546115b4906142e9565b80156116015780601f106115d657610100808354040283529160200191611601565b820191906000526020600020905b8154815290600101906020018083116115e457829003601f168201915b5050505050826001836116149190614201565b81518110611625576116246143f3565b5b6020026020010181905250808061163b9061434c565b91505061154c565b50809350505050919050565b60035481565b6000806000905060005b60015481116116ea576002600082815260200190815260200160002060020160009054906101000a900473ffffffffffffffffffffffffffffffffffffffff1673ffffffffffffffffffffffffffffffffffffffff163373ffffffffffffffffffffffffffffffffffffffff1614156116d757600191505b80806116e29061434c565b91505061165f565b508061172b576040517f08c379a000000000000000000000000000000000000000000000000000000000815260040161172290613e07565b60405180910390fd5b600183148061173a5750600283145b806117455750600383145b611784576040517f08c379a000000000000000000000000000000000000000000000000000000000815260040161177b90613e47565b60405180910390fd5b600015156117918661345f565b1515146117d3576040517f08c379a00000000000000000000000000000000000000000000000000000000081526004016117ca90613dc7565b60405180910390fd5b600960008154809291906117e69061434c565b9190505550600183141561190857600560008154809291906118079061434c565b9190505550600c600081548092919061181f9061434c565b9190505550600c546006600060055481526020019081526020016000206000018190555083600660006005548152602001908152602001600020600101908051906020019061186f929190613632565b508460066000600554815260200190815260200160002060020160006101000a81548173ffffffffffffffffffffffffffffffffffffffff021916908373ffffffffffffffffffffffffffffffffffffffff160217905550600160066000600554815260200190815260200160002060030181905550600060066000600554815260200190815260200160002060050181905550611b2b565b6002831415611a2557600360008154809291906119249061434c565b9190505550600b600081548092919061193c9061434c565b9190505550600b546004600060035481526020019081526020016000206000018190555083600460006003548152602001908152602001600020600101908051906020019061198c929190613632565b508460046000600354815260200190815260200160002060020160006101000a81548173ffffffffffffffffffffffffffffffffffffffff021916908373ffffffffffffffffffffffffffffffffffffffff160217905550600260046000600354815260200190815260200160002060030181905550600060046000600354815260200190815260200160002060050181905550611b2a565b6003831415611b295760016000815480929190611a419061434c565b9190505550600a6000815480929190611a599061434c565b91905055506040518060800160405280600a5481526020018581526020018673ffffffffffffffffffffffffffffffffffffffff1681526020016003815250600260006001548152602001908152602001600020600082015181600001556020820151816001019080519060200190611ad3929190613632565b5060408201518160020160006101000a81548173ffffffffffffffffffffffffffffffffffffffff021916908373ffffffffffffffffffffffffffffffffffffffff160217905550606082015181600301559050505b5b5b60019150509392505050565b600080600190505b6001548111611be4578273ffffffffffffffffffffffffffffffffffffffff166002600083815260200190815260200160002060020160009054906101000a900473ffffffffffffffffffffffffffffffffffffffff1673ffffffffffffffffffffffffffffffffffffffff161415611bd1576002600082815260200190815260200160002060030154915050611d44565b8080611bdc9061434c565b915050611b3f565b506000600190505b6003548111611c91578273ffffffffffffffffffffffffffffffffffffffff166004600083815260200190815260200160002060020160009054906101000a900473ffffffffffffffffffffffffffffffffffffffff1673ffffffffffffffffffffffffffffffffffffffff161415611c7e576004600082815260200190815260200160002060030154915050611d44565b8080611c899061434c565b915050611bec565b506000600190505b6005548111611d3e578273ffffffffffffffffffffffffffffffffffffffff166006600083815260200190815260200160002060020160009054906101000a900473ffffffffffffffffffffffffffffffffffffffff1673ffffffffffffffffffffffffffffffffffffffff161415611d2b576006600082815260200190815260200160002060030154915050611d44565b8080611d369061434c565b915050611c99565b50600090505b919050565b600060608060606000859050600080611d6189612572565b905060006008600083815260200190815260200160002060030154905083811015611d8a578093505b60008167ffffffffffffffff811115611da657611da5614422565b5b604051908082528060200260200182016040528015611dd45781602001602082028036833780820191505090505b5090506000600190505b828111611e90576000600860008681526020019081526020016000206004016000838152602001908152602001600020600201541115611e7d576008600085815260200190815260200160002060040160008281526020019081526020016000206002015482600183611e519190614201565b81518110611e6257611e616143f3565b5b6020026020010181815250508480611e799061434c565b9550505b8080611e889061434c565b915050611dde565b5084841015611e9d578394505b60005b8151811015611fbb576000600190505b8251811015611fa75782600182611ec79190614201565b81518110611ed857611ed76143f3565b5b6020026020010151838281518110611ef357611ef26143f3565b5b60200260200101511115611f9457600083600183611f119190614201565b81518110611f2257611f216143f3565b5b60200260200101519050838281518110611f3f57611f3e6143f3565b5b602002602001015184600184611f559190614201565b81518110611f6657611f656143f3565b5b60200260200101818152505080848381518110611f8657611f856143f3565b5b602002602001018181525050505b8080611f9f9061434c565b915050611eb0565b508080611fb39061434c565b915050611ea0565b5060008567ffffffffffffffff811115611fd857611fd7614422565b5b6040519080825280602002602001820160405280156120065781602001602082028036833780820191505090505b50905060008667ffffffffffffffff81111561202557612024614422565b5b60405190808252806020026020018201604052801561205857816020015b60608152602001906001900390816120435790505b50905060008767ffffffffffffffff81111561207757612076614422565b5b6040519080825280602002602001820160405280156120a55781602001602082028036833780820191505090505b5090506000805b85518110156122f557898214156120c2576122f5565b8581815181106120d5576120d46143f3565b5b60200260200101518382815181106120f0576120ef6143f3565b5b6020026020010181815250506000600190505b8781116122d357600860008a8152602001908152602001600020600401600082815260200190815260200160002060020154848381518110612148576121476143f3565b5b602002602001015114156122c057600860008a81526020019081526020016000206004016000828152602001908152602001600020600101805461218b906142e9565b80601f01602080910402602001604051908101604052809291908181526020018280546121b7906142e9565b80156122045780601f106121d957610100808354040283529160200191612204565b820191906000526020600020905b8154815290600101906020018083116121e757829003601f168201915b505050505085838151811061221c5761221b6143f3565b5b6020026020010181905250600860008a8152602001908152602001600020600401600082815260200190815260200160002060000160009054906101000a900473ffffffffffffffffffffffffffffffffffffffff16868381518110612285576122846143f3565b5b602002602001019073ffffffffffffffffffffffffffffffffffffffff16908173ffffffffffffffffffffffffffffffffffffffff16815250505b80806122cb9061434c565b915050612103565b5081806122df9061434c565b92505080806122ed9061434c565b9150506120ac565b50888484849c509c509c509c5050505050505050505092959194509250565b600080600190505b6005548111612395578260066000838152602001908152602001600020600001541415612382576006600082815260200190815260200160002060020160009054906101000a900473ffffffffffffffffffffffffffffffffffffffff1691505061239b565b808061238d9061434c565b91505061231c565b50600090505b919050565b60008054906101000a900473ffffffffffffffffffffffffffffffffffffffff1681565b6060600060055467ffffffffffffffff8111156123e4576123e3614422565b5b6040519080825280602002602001820160405280156124125781602001602082028036833780820191505090505b5090506000600190505b60055481116124c8576006600082815260200190815260200160002060020160009054906101000a900473ffffffffffffffffffffffffffffffffffffffff168260018361246a9190614201565b8151811061247b5761247a6143f3565b5b602002602001019073ffffffffffffffffffffffffffffffffffffffff16908173ffffffffffffffffffffffffffffffffffffffff168152505080806124c09061434c565b91505061241c565b508091505090565b600080600190505b6003548111612567578273ffffffffffffffffffffffffffffffffffffffff166004600083815260200190815260200160002060020160009054906101000a900473ffffffffffffffffffffffffffffffffffffffff1673ffffffffffffffffffffffffffffffffffffffff161415612554578091505061256d565b808061255f9061434c565b9150506124d8565b50600090505b919050565b600080600090506000600190505b60075481116125c75783600860008381526020019081526020016000206000015414156125b45780915081925050506125ce565b80806125bf9061434c565b915050612580565b5060009150505b919050565b600080600190505b6001548111612680578273ffffffffffffffffffffffffffffffffffffffff166002600083815260200190815260200160002060020160009054906101000a900473ffffffffffffffffffffffffffffffffffffffff1673ffffffffffffffffffffffffffffffffffffffff16141561266d5760026000828152602001908152602001600020600001549150506127e0565b80806126789061434c565b9150506125db565b506000600190505b600354811161272d578273ffffffffffffffffffffffffffffffffffffffff166004600083815260200190815260200160002060020160009054906101000a900473ffffffffffffffffffffffffffffffffffffffff1673ffffffffffffffffffffffffffffffffffffffff16141561271a5760046000828152602001908152602001600020600001549150506127e0565b80806127259061434c565b915050612688565b506000600190505b60055481116127da578273ffffffffffffffffffffffffffffffffffffffff166006600083815260200190815260200160002060020160009054906101000a900473ffffffffffffffffffffffffffffffffffffffff1673ffffffffffffffffffffffffffffffffffffffff1614156127c75760066000828152602001908152602001600020600001549150506127e0565b80806127d29061434c565b915050612735565b50600090505b919050565b6000806000905060005b600154811161287a576002600082815260200190815260200160002060020160009054906101000a900473ffffffffffffffffffffffffffffffffffffffff1673ffffffffffffffffffffffffffffffffffffffff163373ffffffffffffffffffffffffffffffffffffffff16141561286757600191505b80806128729061434c565b9150506127ef565b50806128bb576040517f08c379a00000000000000000000000000000000000000000000000000000000081526004016128b290613e07565b60405180910390fd5b600115156128c88461345f565b15151461290a576040517f08c379a000000000000000000000000000000000000000000000000000000000815260040161290190613e27565b60405180910390fd5b600061291584611b37565b9050600081141561295b576040517f08c379a000000000000000000000000000000000000000000000000000000000815260040161295290613e87565b60405180910390fd5b6001811415612c2b57600061296f85610cc5565b905060006006600083815260200190815260200160002060050154146129ca576040517f08c379a00000000000000000000000000000000000000000000000000000000081526004016129c190613e67565b60405180910390fd5b60008190505b600554811015612b9557600660006001836129eb91906141ab565b815260200190815260200160002060000154600660008381526020019081526020016000206000018190555060066000600183612a2891906141ab565b815260200190815260200160002060010160066000838152602001908152602001600020600101908054612a5b906142e9565b612a669291906136b8565b5060066000600183612a7891906141ab565b815260200190815260200160002060020160009054906101000a900473ffffffffffffffffffffffffffffffffffffffff166006600083815260200190815260200160002060020160006101000a81548173ffffffffffffffffffffffffffffffffffffffff021916908373ffffffffffffffffffffffffffffffffffffffff16021790555060066000600183612b0f91906141ab565b815260200190815260200160002060030154600660008381526020019081526020016000206003018190555060066000600183612b4c91906141ab565b815260200190815260200160002060040160066000838152602001908152602001600020600401908054612b81929190613745565b508080612b8d9061434c565b9150506129d0565b50600660006005548152602001908152602001600020600080820160009055600182016000612bc49190613797565b6002820160006101000a81549073ffffffffffffffffffffffffffffffffffffffff02191690556003820160009055600482016000612c0391906137d7565b6005820160009055505060056000815480929190612c20906142bf565b919050555050613111565b6002811415612efb576000612c3f856124d0565b90506000600460008381526020019081526020016000206005015414612c9a576040517f08c379a0000000000000000000000000000000000000000000000000000000008152600401612c9190613de7565b60405180910390fd5b60008190505b600354811015612e655760046000600183612cbb91906141ab565b815260200190815260200160002060000154600460008381526020019081526020016000206000018190555060046000600183612cf891906141ab565b815260200190815260200160002060010160046000838152602001908152602001600020600101908054612d2b906142e9565b612d369291906136b8565b5060046000600183612d4891906141ab565b815260200190815260200160002060020160009054906101000a900473ffffffffffffffffffffffffffffffffffffffff166004600083815260200190815260200160002060020160006101000a81548173ffffffffffffffffffffffffffffffffffffffff021916908373ffffffffffffffffffffffffffffffffffffffff16021790555060046000600183612ddf91906141ab565b815260200190815260200160002060030154600460008381526020019081526020016000206003018190555060046000600183612e1c91906141ab565b815260200190815260200160002060040160046000838152602001908152602001600020600401908054612e51929190613745565b508080612e5d9061434c565b915050612ca0565b50600460006003548152602001908152602001600020600080820160009055600182016000612e949190613797565b6002820160006101000a81549073ffffffffffffffffffffffffffffffffffffffff02191690556003820160009055600482016000612ed391906137d7565b6005820160009055505060036000815480929190612ef0906142bf565b919050555050613110565b600381141561310f576000612f0f85610b4b565b905060008190505b6001548110156130955760026000600183612f3291906141ab565b815260200190815260200160002060000154600260008381526020019081526020016000206000018190555060026000600183612f6f91906141ab565b815260200190815260200160002060010160026000838152602001908152602001600020600101908054612fa2906142e9565b612fad9291906136b8565b5060026000600183612fbf91906141ab565b815260200190815260200160002060020160009054906101000a900473ffffffffffffffffffffffffffffffffffffffff166002600083815260200190815260200160002060020160006101000a81548173ffffffffffffffffffffffffffffffffffffffff021916908373ffffffffffffffffffffffffffffffffffffffff1602179055506002600060018361305691906141ab565b8152602001908152602001600020600301546002600083815260200190815260200160002060030181905550808061308d9061434c565b915050612f17565b506002600060015481526020019081526020016000206000808201600090556001820160006130c49190613797565b6002820160006101000a81549073ffffffffffffffffffffffffffffffffffffffff02191690556003820160009055505060016000815480929190613108906142bf565b9190505550505b5b5b60096000815480929190613124906142bf565b9190505550600192505050919050565b6060600060075467ffffffffffffffff81111561315457613153614422565b5b6040519080825280602002602001820160405280156131825781602001602082028036833780820191505090505b5090506000600190505b60075481116131ea576008600082815260200190815260200160002060000154826001836131ba9190614201565b815181106131cb576131ca6143f3565b5b60200260200101818152505080806131e29061434c565b91505061318c565b508091505090565b6060600060035467ffffffffffffffff81111561321257613211614422565b5b6040519080825280602002602001820160405280156132405781602001602082028036833780820191505090505b5090506000600190505b60035481116132f6576004600082815260200190815260200160002060020160009054906101000a900473ffffffffffffffffffffffffffffffffffffffff16826001836132989190614201565b815181106132a9576132a86143f3565b5b602002602001019073ffffffffffffffffffffffffffffffffffffffff16908173ffffffffffffffffffffffffffffffffffffffff168152505080806132ee9061434c565b91505061324a565b508091505090565b60055481565b6000606060008060606000613318876124d0565b90506000600460008381526020019081526020016000206000015490506000600460008481526020019081526020016000206001018054613358906142e9565b80601f0160208091040260200160405190810160405280929190818152602001828054613384906142e9565b80156133d15780601f106133a6576101008083540402835291602001916133d1565b820191906000526020600020905b8154815290600101906020018083116133b457829003601f168201915b5050505050905060006004600085815260200190815260200160002060020160009054906101000a900473ffffffffffffffffffffffffffffffffffffffff16905060006004600086815260200190815260200160002060030154905060006134398c610975565b905084848484849a509a509a509a509a5050505050505091939590929450565b60015481565b600080600190505b60015481116134f7578273ffffffffffffffffffffffffffffffffffffffff166002600083815260200190815260200160002060020160009054906101000a900473ffffffffffffffffffffffffffffffffffffffff1673ffffffffffffffffffffffffffffffffffffffff1614156134e457600191505061362d565b80806134ef9061434c565b915050613467565b506000600190505b600354811161358f578273ffffffffffffffffffffffffffffffffffffffff166004600083815260200190815260200160002060020160009054906101000a900473ffffffffffffffffffffffffffffffffffffffff1673ffffffffffffffffffffffffffffffffffffffff16141561357c57600191505061362d565b80806135879061434c565b9150506134ff565b506000600190505b6005548111613627578273ffffffffffffffffffffffffffffffffffffffff166006600083815260200190815260200160002060020160009054906101000a900473ffffffffffffffffffffffffffffffffffffffff1673ffffffffffffffffffffffffffffffffffffffff16141561361457600191505061362d565b808061361f9061434c565b915050613597565b50600090505b919050565b82805461363e906142e9565b90600052602060002090601f01602090048101928261366057600085556136a7565b82601f1061367957805160ff19168380011785556136a7565b828001600101855582156136a7579182015b828111156136a657825182559160200191906001019061368b565b5b5090506136b491906137f8565b5090565b8280546136c4906142e9565b90600052602060002090601f0160209004810192826136e65760008555613734565b82601f106136f75780548555613734565b8280016001018555821561373457600052602060002091601f016020900482015b82811115613733578254825591600101919060010190613718565b5b50905061374191906137f8565b5090565b8280548282559060005260206000209081019282156137865760005260206000209182015b8281111561378557825482559160010191906001019061376a565b5b50905061379391906137f8565b5090565b5080546137a3906142e9565b6000825580601f106137b557506137d4565b601f0160209004906000526020600020908101906137d391906137f8565b5b50565b50805460008255906000526020600020908101906137f591906137f8565b50565b5b808211156138115760008160009055506001016137f9565b5090565b6000613828613823846140a2565b61407d565b90508281526020810184848401111561384457613843614456565b5b61384f84828561427d565b509392505050565b6000813590506138668161462d565b92915050565b600082601f83011261388157613880614451565b5b8135613891848260208601613815565b91505092915050565b6000813590506138a981614644565b92915050565b6000602082840312156138c5576138c4614460565b5b60006138d384828501613857565b91505092915050565b6000806000606084860312156138f5576138f4614460565b5b600061390386828701613857565b935050602084013567ffffffffffffffff8111156139245761392361445b565b5b6139308682870161386c565b92505060406139418682870161389a565b9150509250925092565b60006020828403121561396157613960614460565b5b600061396f8482850161389a565b91505092915050565b6000806040838503121561398f5761398e614460565b5b600061399d8582860161389a565b92505060206139ae8582860161389a565b9150509250929050565b60006139c483836139fc565b60208301905092915050565b60006139dc8383613b5a565b905092915050565b60006139f08383613cc1565b60208301905092915050565b613a0581614235565b82525050565b613a1481614235565b82525050565b6000613a2582614103565b613a2f8185614156565b9350613a3a836140d3565b8060005b83811015613a6b578151613a5288826139b8565b9750613a5d8361412f565b925050600181019050613a3e565b5085935050505092915050565b6000613a838261410e565b613a8d8185614167565b935083602082028501613a9f856140e3565b8060005b85811015613adb5784840389528151613abc85826139d0565b9450613ac78361413c565b925060208a01995050600181019050613aa3565b50829750879550505050505092915050565b6000613af882614119565b613b028185614178565b9350613b0d836140f3565b8060005b83811015613b3e578151613b2588826139e4565b9750613b3083614149565b925050600181019050613b11565b5085935050505092915050565b613b5481614247565b82525050565b6000613b6582614124565b613b6f8185614189565b9350613b7f81856020860161428c565b613b8881614465565b840191505092915050565b6000613b9e82614124565b613ba8818561419a565b9350613bb881856020860161428c565b613bc181614465565b840191505092915050565b6000613bd9602d8361419a565b9150613be482614476565b604082019050919050565b6000613bfc60388361419a565b9150613c07826144c5565b604082019050919050565b6000613c1f60158361419a565b9150613c2a82614514565b602082019050919050565b6000613c4260188361419a565b9150613c4d8261453d565b602082019050919050565b6000613c65600c8361419a565b9150613c7082614566565b602082019050919050565b6000613c8860368361419a565b9150613c938261458f565b604082019050919050565b6000613cab60328361419a565b9150613cb6826145de565b604082019050919050565b613cca81614273565b82525050565b613cd981614273565b82525050565b6000602082019050613cf46000830184613a0b565b92915050565b60006020820190508181036000830152613d148184613a1a565b905092915050565b60006060820190508181036000830152613d368186613a1a565b90508181036020830152613d4a8185613a78565b90508181036040830152613d5e8184613aed565b9050949350505050565b60006020820190508181036000830152613d828184613a78565b905092915050565b60006020820190508181036000830152613da48184613aed565b905092915050565b6000602082019050613dc16000830184613b4b565b92915050565b60006020820190508181036000830152613de081613bcc565b9050919050565b60006020820190508181036000830152613e0081613bef565b9050919050565b60006020820190508181036000830152613e2081613c12565b9050919050565b60006020820190508181036000830152613e4081613c35565b9050919050565b60006020820190508181036000830152613e6081613c58565b9050919050565b60006020820190508181036000830152613e8081613c7b565b9050919050565b60006020820190508181036000830152613ea081613c9e565b9050919050565b6000602082019050613ebc6000830184613cd0565b92915050565b6000608082019050613ed76000830187613cd0565b8181036020830152613ee98186613a1a565b90508181036040830152613efd8185613a78565b90508181036060830152613f118184613aed565b905095945050505050565b600060a082019050613f316000830188613cd0565b8181036020830152613f438187613b93565b9050613f526040830186613a0b565b613f5f6060830185613b4b565b613f6c6080830184613cd0565b9695505050505050565b6000608082019050613f8b6000830187613cd0565b8181036020830152613f9d8186613b93565b9050613fac6040830185613a0b565b613fb96060830184613cd0565b95945050505050565b600060a082019050613fd76000830188613cd0565b8181036020830152613fe98187613b93565b9050613ff86040830186613a0b565b6140056060830185613cd0565b81810360808301526140178184613aed565b90509695505050505050565b600060a0820190506140386000830188613cd0565b818103602083015261404a8187613b93565b90506140596040830186613a0b565b6140666060830185613cd0565b6140736080830184613cd0565b9695505050505050565b6000614087614098565b9050614093828261431b565b919050565b6000604051905090565b600067ffffffffffffffff8211156140bd576140bc614422565b5b6140c682614465565b9050602081019050919050565b6000819050602082019050919050565b6000819050602082019050919050565b6000819050602082019050919050565b600081519050919050565b600081519050919050565b600081519050919050565b600081519050919050565b6000602082019050919050565b6000602082019050919050565b6000602082019050919050565b600082825260208201905092915050565b600082825260208201905092915050565b600082825260208201905092915050565b600082825260208201905092915050565b600082825260208201905092915050565b60006141b682614273565b91506141c183614273565b9250827fffffffffffffffffffffffffffffffffffffffffffffffffffffffffffffffff038211156141f6576141f5614395565b5b828201905092915050565b600061420c82614273565b915061421783614273565b92508282101561422a57614229614395565b5b828203905092915050565b600061424082614253565b9050919050565b60008115159050919050565b600073ffffffffffffffffffffffffffffffffffffffff82169050919050565b6000819050919050565b82818337600083830152505050565b60005b838110156142aa57808201518184015260208101905061428f565b838111156142b9576000848401525b50505050565b60006142ca82614273565b915060008214156142de576142dd614395565b5b600182039050919050565b6000600282049050600182168061430157607f821691505b60208210811415614315576143146143c4565b5b50919050565b61432482614465565b810181811067ffffffffffffffff8211171561434357614342614422565b5b80604052505050565b600061435782614273565b91507fffffffffffffffffffffffffffffffffffffffffffffffffffffffffffffffff82141561438a57614389614395565b5b600182019050919050565b7f4e487b7100000000000000000000000000000000000000000000000000000000600052601160045260246000fd5b7f4e487b7100000000000000000000000000000000000000000000000000000000600052602260045260246000fd5b7f4e487b7100000000000000000000000000000000000000000000000000000000600052603260045260246000fd5b7f4e487b7100000000000000000000000000000000000000000000000000000000600052604160045260246000fd5b600080fd5b600080fd5b600080fd5b600080fd5b6000601f19601f8301169050919050565b7f5468697320616464726573732068617320616c7265616479206265656e20736560008201527f74207065726d697373696f6e7300000000000000000000000000000000000000602082015250565b7f3e3e3e546869732070726f666573736f72206973207465616368696e672c206360008201527f616e742072656d6f7665207065726d697373696f6e2121210000000000000000602082015250565b7f3e3e3e3e3e3e697341646d696e203d2066616c73650000000000000000000000600082015250565b7f3e3e3e546869732061646472657373206e6f2065786973740000000000000000600082015250565b7f756e617574686f72697a65640000000000000000000000000000000000000000600082015250565b7f3e3e3e546869732073747564656e74206973206c6561726e696e672c2063616e60008201527f742072656d6f7665207065726d697373696f6e21212100000000000000000000602082015250565b7f3e3e3e5468697320626c6f636b4164647265737320776173206f726967696e6160008201527f6c6c79206e6f7420617574686f72697a65640000000000000000000000000000602082015250565b61463681614235565b811461464157600080fd5b50565b61464d81614273565b811461465857600080fd5b5056fea26469706673582212200edff78db1a811a424f03ae7d694d8d3101243495434baa816a987e243cda42264736f6c63430008070033",
  "immutableReferences": {},
  "source": "// SPDX-License-Identifier: MIT\r\npragma solidity >=0.4.22 <0.9.0;\r\n\r\n/*\r\n// admin   StructAndModifiers\r\n\r\n1. setPermission()   ==>  0=student; 1=professor; 2=admin\r\n    1 , modifierstudent ,student\r\n    2 , modifierprofessor ,professor\r\n    3 , modifieradmin ,admin\r\n\r\n    If it is set to 1, call the function in the modifier class to add it to the student array and to the student contract at the same time\r\n    If it is set to 2, call the function in the modifier class to add it to the professor array and to the professor contract at the same time\r\n    If it is set to 3, call the function in the modifier class to add it to the admin array and add it to the admin contract at the same time\r\n\r\n2. removePermission() \r\n    professor, student\r\n    Professors need to be allowed to be deprived of permission without teaching tasks and students need to take classes\r\n\r\n\r\n//  : 3. getGradeByAdminId()  You can view the student scores of any course\r\n\r\n\r\n*/\r\n\r\nimport \"./StructAndModifiers.sol\";\r\n\r\ncontract Admin is StructAndModifiers{\r\n\r\n    // onwer +1 1 root   Initialized to 1 because root is automatically added\r\n    uint public personCounts = 1;   //  Record the current number of people\r\n    // id  id  id value, initialize the id value, automatically accumulate\r\n    uint setadmId = 1; // root = 1\r\n    uint setproId = 100;    // proId100\r\n    uint setstuId = 1000;    \r\n    \r\n     ////////////////////////////////////////////////////////////////////////////////////////////////////////////// \r\n    //  Set permission function\r\n    function setPermission(address _blockAddress,string memory _name,uint _authorization) public onlyAdmin returns(bool){\r\n        \r\n        //   Check whether the set permission value is legal\r\n        require(_authorization == 1 || _authorization == 2 || _authorization == 3, \"unauthorized\");\r\n        \r\n        // address  shuo ming yi jing she zhi guo le\r\n        // true ==> \r\n        require(checkAddressExisted(_blockAddress) == false,\"This address has already been set permissions\");\r\n        \r\n        // Record person[]\r\n        //  Self increasing\r\n        personCounts++;\r\n\r\n        if(_authorization == 1){ // \r\n            //   Add him directly to the students\r\n            studentCounts++;\r\n            setstuId++;\r\n            //  \r\n            // Since the course array cannot be assigned at this time, it is assigned one by one\r\n            studentSelfs[studentCounts].stuId = setstuId;\r\n            studentSelfs[studentCounts].stuName = _name;\r\n            studentSelfs[studentCounts].stuBlockAddress = _blockAddress;\r\n            studentSelfs[studentCounts].stuAuthorization = 1;\r\n            studentSelfs[studentCounts].isLearningSum = 0; //  Initialize to no class in progress\r\n            \r\n        }\r\n        else if(_authorization == 2){ // professor\r\n            professorCounts++;\r\n            setproId++;\r\n            // \r\n            // Since the course array cannot be assigned at this time, it is assigned one by one\r\n            professorSelfs[professorCounts].proId = setproId;\r\n            professorSelfs[professorCounts].proName = _name;\r\n            professorSelfs[professorCounts].proBlockAddress = _blockAddress;\r\n            professorSelfs[professorCounts].proAuthorization = 2;\r\n            professorSelfs[professorCounts].isTeachingPeopleSum = 0; //  Initialize to no teaching in progress\r\n\r\n        }\r\n        else if(_authorization == 3){ // Admin\r\n            adminCounts++;\r\n            setadmId++;\r\n            adminSelfs[adminCounts] = AdminSelf(setadmId,_name,_blockAddress,3);\r\n\r\n        }\r\n        //   Setup succeeded\r\n        return true;\r\n       \r\n        \r\n    }\r\n    \r\n    ////////////////////////////////////////////////////////////////////////////////////////////////////////////// \r\n    // , 100 , person  ;  Remove the permission relative to, and set it to 100, that is, person\r\n    function removePermission(address _blockAddress) public onlyAdmin returns(bool){\r\n\r\n        // ID                                     First find out if this ID exists\r\n        require(checkAddressExisted(_blockAddress) == true,\">>>This address no exist\");\r\n        \r\n        // ID                             Then check the permission before this ID\r\n        uint _authorization  = getAuthorizationByAddress(_blockAddress); // index       Call function to get index\r\n        require(_authorization != 0,\">>>This blockAddress was originally not authorized\");\r\n        \r\n        \r\n        //   ;   Remove him from the corresponding permission database according to his permissions\r\n        if(_authorization == 1){ // \r\n            uint studentIndex = getStudentIndexByAddress(_blockAddress);\r\n            // ID  Check if this ID is learning\r\n            require(studentSelfs[studentIndex].isLearningSum == 0,\">>>This student is learning, cant remove permission!!!\"); \r\n            \r\n            //   Direct deletion will leave an empty space\r\n            //   So the latter element overwrites the previous element\r\n            for(uint i=studentIndex;i<studentCounts;i++){\r\n                studentSelfs[i].stuId = studentSelfs[i+1].stuId;\r\n                studentSelfs[i].stuName = studentSelfs[i+1].stuName;\r\n                studentSelfs[i].stuBlockAddress = studentSelfs[i+1].stuBlockAddress;\r\n                studentSelfs[i].stuAuthorization = studentSelfs[i+1].stuAuthorization;\r\n                studentSelfs[i].myStuCourses = studentSelfs[i+1].myStuCourses;\r\n            }\r\n            \r\n            //   Then remove the last element\r\n            delete studentSelfs[studentCounts];\r\n            studentCounts--; \r\n        }\r\n        else if(_authorization == 2){  // professor\r\n            uint professorIndex = getProfessorIndexByAddress(_blockAddress);\r\n            // ID  Check if this ID is in class\r\n            require(professorSelfs[professorIndex].isTeachingPeopleSum == 0,\">>>This professor is teaching, cant remove permission!!!\"); \r\n            \r\n            //   Direct deletion will leave an empty space\r\n            //  So the latter element overrides the previous element\r\n            for(uint i=professorIndex;i<professorCounts;i++){\r\n                professorSelfs[i].proId = professorSelfs[i+1].proId;\r\n                professorSelfs[i].proName = professorSelfs[i+1].proName;\r\n                professorSelfs[i].proBlockAddress = professorSelfs[i+1].proBlockAddress;\r\n                professorSelfs[i].proAuthorization = professorSelfs[i+1].proAuthorization;\r\n                professorSelfs[i].myProCourses = professorSelfs[i+1].myProCourses;\r\n            }\r\n            \r\n            //  Then remove the last element\r\n            delete professorSelfs[professorCounts];\r\n            professorCounts--; \r\n \r\n        }\r\n        else if(_authorization == 3){ // Admin\r\n            uint adminIndex = getAdminIndexByAddress(_blockAddress);\r\n            //   Direct deletion will leave an empty space\r\n            //   So the latter element overrides the previous element\r\n            for(uint i=adminIndex;i<adminCounts;i++){\r\n                adminSelfs[i].adminId = adminSelfs[i+1].adminId;\r\n                adminSelfs[i].adminName = adminSelfs[i+1].adminName;\r\n                adminSelfs[i].adminBlockAddress = adminSelfs[i+1].adminBlockAddress;\r\n                adminSelfs[i].adminAuthorization = adminSelfs[i+1].adminAuthorization;\r\n            }\r\n            \r\n            //   Then remove the last element\r\n            delete adminSelfs[adminCounts];\r\n            adminCounts--; \r\n\r\n        }\r\n        // person\r\n        personCounts--; \r\n\r\n        return true;\r\n        \r\n    }\r\n    \r\n/*    \r\n    //////////////////////////////////////////////////////////////////////////////////////////////////////////////\r\n    //   View results\r\n    // admin,  \r\n    // If it is admin, it can view the scores of all students in all courses\r\n\r\n    function getGradeByAdminAddr(uint _courseId,address _adminBlockAddress) public view onlyAdmin returns(address[] memory, uint[] memory){\r\n        \r\n        // pid Check whether the PID matches the address\r\n        require(_adminBlockAddress == msg.sender,\">>>The Id no match the current address!!!\");\r\n        \r\n        //  Check whether the course information exists\r\n        bool isExisted = checkCourseExisted(_courseId); \r\n        require(isExisted == true,\">>>_courseId no existed!!!\");\r\n        \r\n        ///\r\n        //  The results of all students under the course will be listed\r\n        \r\n        //  Find the course first\r\n        uint indexOfCourseID = getIndexByCourseId(_courseId);\r\n        // ,  \r\n        // Find the length of the array of students stored in this course, that is, the number of students taking this course\r\n        uint courseStudentCounts_ = getcourseStudentCounts(_courseId);\r\n        \r\n        address[] memory studentAddress = new address[](courseStudentCounts_);\r\n        uint[] memory studentsGrade  = new uint[](courseStudentCounts_);\r\n        \r\n        // , 0, courseStudentCounts_1\r\n        // There will be a problem here. The newly created array starts from 0 and coursestudentcounts_ It starts with 1\r\n        for(uint j=1;j<=courseStudentCounts_;j++){\r\n            studentAddress[j-1] = courseInfs[indexOfCourseID].courseStudents[j].stuBlockAddress;\r\n            studentsGrade[j-1] = courseInfs[indexOfCourseID].courseStudents[j].stuGrade;\r\n        }\r\n        \r\n        return (studentAddress,studentsGrade) ;  //  complete\r\n     \r\n    }\r\n\r\n*/\r\n\r\n}\r\n",
  "sourcePath": "D:\\desktop\\truffle_v4.0\\contracts\\Admin.sol",
  "compiler": {
    "name": "solc",
    "version": "0.8.7+commit.e28d00a7.Emscripten.clang"
  },
  "schemaVersion": "3.4.3",
  "updatedAt": "2021-12-03T23:16:30.011Z",
  "devdoc": {
    "kind": "dev",
    "methods": {},
    "version": 1
  },
  "userdoc": {
    "kind": "user",
    "methods": {},
    "version": 1
  }
}