{
  "contractName": "Professor",
  "abi": [
    {
      "inputs": [],
      "name": "adminCounts",
      "outputs": [
        {
          "internalType": "uint256",
          "name": "",
          "type": "uint256"
        }
      ],
      "stateMutability": "view",
      "type": "function",
      "constant": true
    },
    {
      "inputs": [
        {
          "internalType": "uint256",
          "name": "",
          "type": "uint256"
        }
      ],
      "name": "adminSelfs",
      "outputs": [
        {
          "internalType": "uint256",
          "name": "adminId",
          "type": "uint256"
        },
        {
          "internalType": "string",
          "name": "adminName",
          "type": "string"
        },
        {
          "internalType": "address",
          "name": "adminBlockAddress",
          "type": "address"
        },
        {
          "internalType": "uint256",
          "name": "adminAuthorization",
          "type": "uint256"
        }
      ],
      "stateMutability": "view",
      "type": "function",
      "constant": true
    },
    {
      "inputs": [],
      "name": "courseCounts",
      "outputs": [
        {
          "internalType": "uint256",
          "name": "",
          "type": "uint256"
        }
      ],
      "stateMutability": "view",
      "type": "function",
      "constant": true
    },
    {
      "inputs": [
        {
          "internalType": "uint256",
          "name": "",
          "type": "uint256"
        }
      ],
      "name": "courseInfs",
      "outputs": [
        {
          "internalType": "uint256",
          "name": "courseId",
          "type": "uint256"
        },
        {
          "internalType": "string",
          "name": "courseName",
          "type": "string"
        },
        {
          "internalType": "string",
          "name": "profName",
          "type": "string"
        },
        {
          "internalType": "address",
          "name": "proBlockAddress",
          "type": "address"
        },
        {
          "internalType": "bool",
          "name": "canApply",
          "type": "bool"
        },
        {
          "internalType": "uint256",
          "name": "gotStudentGradeCounts",
          "type": "uint256"
        },
        {
          "internalType": "uint256",
          "name": "courseStudentCounts",
          "type": "uint256"
        }
      ],
      "stateMutability": "view",
      "type": "function",
      "constant": true
    },
    {
      "inputs": [
        {
          "internalType": "address",
          "name": "_adminBlockAddress",
          "type": "address"
        }
      ],
      "name": "getAdminIndexByAddress",
      "outputs": [
        {
          "internalType": "uint256",
          "name": "",
          "type": "uint256"
        }
      ],
      "stateMutability": "view",
      "type": "function",
      "constant": true
    },
    {
      "inputs": [],
      "name": "getAllCourseId",
      "outputs": [
        {
          "internalType": "uint256[]",
          "name": "",
          "type": "uint256[]"
        }
      ],
      "stateMutability": "view",
      "type": "function",
      "constant": true
    },
    {
      "inputs": [],
      "name": "getAllStudentAddress",
      "outputs": [
        {
          "internalType": "address[]",
          "name": "",
          "type": "address[]"
        }
      ],
      "stateMutability": "view",
      "type": "function",
      "constant": true
    },
    {
      "inputs": [
        {
          "internalType": "address",
          "name": "_address",
          "type": "address"
        }
      ],
      "name": "getAuthorizationByAddress",
      "outputs": [
        {
          "internalType": "uint256",
          "name": "",
          "type": "uint256"
        }
      ],
      "stateMutability": "view",
      "type": "function",
      "constant": true
    },
    {
      "inputs": [
        {
          "internalType": "address",
          "name": "_proBlockAddress",
          "type": "address"
        }
      ],
      "name": "getCourseIdByProAddress",
      "outputs": [
        {
          "internalType": "uint256[]",
          "name": "",
          "type": "uint256[]"
        }
      ],
      "stateMutability": "view",
      "type": "function",
      "constant": true
    },
    {
      "inputs": [
        {
          "internalType": "uint256",
          "name": "_courseid",
          "type": "uint256"
        }
      ],
      "name": "getCourseInfByCourseId",
      "outputs": [
        {
          "internalType": "uint256",
          "name": "",
          "type": "uint256"
        },
        {
          "internalType": "string",
          "name": "",
          "type": "string"
        },
        {
          "internalType": "string",
          "name": "",
          "type": "string"
        },
        {
          "internalType": "address",
          "name": "",
          "type": "address"
        },
        {
          "internalType": "uint256",
          "name": "",
          "type": "uint256"
        }
      ],
      "stateMutability": "view",
      "type": "function",
      "constant": true
    },
    {
      "inputs": [
        {
          "internalType": "uint256",
          "name": "_courseId",
          "type": "uint256"
        }
      ],
      "name": "getCourseNameStatusById",
      "outputs": [
        {
          "internalType": "string",
          "name": "",
          "type": "string"
        },
        {
          "internalType": "bool",
          "name": "",
          "type": "bool"
        }
      ],
      "stateMutability": "view",
      "type": "function",
      "constant": true
    },
    {
      "inputs": [
        {
          "internalType": "uint256",
          "name": "_courseid",
          "type": "uint256"
        }
      ],
      "name": "getCourseStudentInfByCourseId",
      "outputs": [
        {
          "internalType": "uint256[]",
          "name": "",
          "type": "uint256[]"
        },
        {
          "internalType": "address[]",
          "name": "",
          "type": "address[]"
        },
        {
          "internalType": "uint256[]",
          "name": "",
          "type": "uint256[]"
        }
      ],
      "stateMutability": "view",
      "type": "function",
      "constant": true
    },
    {
      "inputs": [
        {
          "internalType": "address",
          "name": "_address",
          "type": "address"
        }
      ],
      "name": "getIdByAddress",
      "outputs": [
        {
          "internalType": "uint256",
          "name": "",
          "type": "uint256"
        }
      ],
      "stateMutability": "view",
      "type": "function",
      "constant": true
    },
    {
      "inputs": [
        {
          "internalType": "uint256",
          "name": "_courseId",
          "type": "uint256"
        }
      ],
      "name": "getIndexByCourseId",
      "outputs": [
        {
          "internalType": "uint256",
          "name": "",
          "type": "uint256"
        }
      ],
      "stateMutability": "view",
      "type": "function",
      "constant": true
    },
    {
      "inputs": [
        {
          "internalType": "uint256",
          "name": "_stuId",
          "type": "uint256"
        }
      ],
      "name": "getStuAddressByStuId",
      "outputs": [
        {
          "internalType": "address",
          "name": "",
          "type": "address"
        }
      ],
      "stateMutability": "view",
      "type": "function",
      "constant": true
    },
    {
      "inputs": [
        {
          "internalType": "uint256",
          "name": "_courseId",
          "type": "uint256"
        },
        {
          "internalType": "address",
          "name": "_stuAddress",
          "type": "address"
        }
      ],
      "name": "getStudentGradeByCourseIdAndStuAddr",
      "outputs": [
        {
          "internalType": "uint256",
          "name": "",
          "type": "uint256"
        }
      ],
      "stateMutability": "view",
      "type": "function",
      "constant": true
    },
    {
      "inputs": [
        {
          "internalType": "address",
          "name": "_stuBlockAddress",
          "type": "address"
        }
      ],
      "name": "getStudentInfByStuAddress",
      "outputs": [
        {
          "internalType": "uint256",
          "name": "",
          "type": "uint256"
        },
        {
          "internalType": "string",
          "name": "",
          "type": "string"
        },
        {
          "internalType": "address",
          "name": "",
          "type": "address"
        },
        {
          "internalType": "uint256",
          "name": "",
          "type": "uint256"
        },
        {
          "internalType": "uint256[]",
          "name": "",
          "type": "uint256[]"
        },
        {
          "internalType": "uint256[]",
          "name": "",
          "type": "uint256[]"
        }
      ],
      "stateMutability": "view",
      "type": "function",
      "constant": true
    },
    {
      "inputs": [
        {
          "internalType": "uint256",
          "name": "_stuId",
          "type": "uint256"
        }
      ],
      "name": "getStudentNameById",
      "outputs": [
        {
          "internalType": "string",
          "name": "",
          "type": "string"
        }
      ],
      "stateMutability": "view",
      "type": "function",
      "constant": true
    },
    {
      "inputs": [
        {
          "internalType": "uint256",
          "name": "_courseid",
          "type": "uint256"
        },
        {
          "internalType": "uint256",
          "name": "_getTops",
          "type": "uint256"
        }
      ],
      "name": "getTopStudentsByCourseId",
      "outputs": [
        {
          "internalType": "uint256",
          "name": "",
          "type": "uint256"
        },
        {
          "internalType": "uint256[]",
          "name": "",
          "type": "uint256[]"
        },
        {
          "internalType": "address[]",
          "name": "",
          "type": "address[]"
        },
        {
          "internalType": "uint256[]",
          "name": "",
          "type": "uint256[]"
        }
      ],
      "stateMutability": "view",
      "type": "function",
      "constant": true
    },
    {
      "inputs": [
        {
          "internalType": "uint256",
          "name": "_courseid",
          "type": "uint256"
        }
      ],
      "name": "getcourseStudentCounts",
      "outputs": [
        {
          "internalType": "uint256",
          "name": "courseStudentCounts_",
          "type": "uint256"
        }
      ],
      "stateMutability": "view",
      "type": "function",
      "constant": true
    },
    {
      "inputs": [],
      "name": "modifiersOwner",
      "outputs": [
        {
          "internalType": "address",
          "name": "",
          "type": "address"
        }
      ],
      "stateMutability": "view",
      "type": "function",
      "constant": true
    },
    {
      "inputs": [],
      "name": "personCounts",
      "outputs": [
        {
          "internalType": "uint256",
          "name": "",
          "type": "uint256"
        }
      ],
      "stateMutability": "view",
      "type": "function",
      "constant": true
    },
    {
      "inputs": [],
      "name": "professorCounts",
      "outputs": [
        {
          "internalType": "uint256",
          "name": "",
          "type": "uint256"
        }
      ],
      "stateMutability": "view",
      "type": "function",
      "constant": true
    },
    {
      "inputs": [
        {
          "internalType": "uint256",
          "name": "",
          "type": "uint256"
        }
      ],
      "name": "professorSelfs",
      "outputs": [
        {
          "internalType": "uint256",
          "name": "proId",
          "type": "uint256"
        },
        {
          "internalType": "string",
          "name": "proName",
          "type": "string"
        },
        {
          "internalType": "address",
          "name": "proBlockAddress",
          "type": "address"
        },
        {
          "internalType": "uint256",
          "name": "proAuthorization",
          "type": "uint256"
        },
        {
          "internalType": "uint256",
          "name": "isTeachingPeopleSum",
          "type": "uint256"
        }
      ],
      "stateMutability": "view",
      "type": "function",
      "constant": true
    },
    {
      "inputs": [
        {
          "internalType": "address",
          "name": "_blockAddress",
          "type": "address"
        }
      ],
      "name": "removePermission",
      "outputs": [
        {
          "internalType": "bool",
          "name": "",
          "type": "bool"
        }
      ],
      "stateMutability": "nonpayable",
      "type": "function"
    },
    {
      "inputs": [
        {
          "internalType": "address",
          "name": "_blockAddress",
          "type": "address"
        },
        {
          "internalType": "string",
          "name": "_name",
          "type": "string"
        },
        {
          "internalType": "uint256",
          "name": "_authorization",
          "type": "uint256"
        }
      ],
      "name": "setPermission",
      "outputs": [
        {
          "internalType": "bool",
          "name": "",
          "type": "bool"
        }
      ],
      "stateMutability": "nonpayable",
      "type": "function"
    },
    {
      "inputs": [],
      "name": "studentCounts",
      "outputs": [
        {
          "internalType": "uint256",
          "name": "",
          "type": "uint256"
        }
      ],
      "stateMutability": "view",
      "type": "function",
      "constant": true
    },
    {
      "inputs": [
        {
          "internalType": "uint256",
          "name": "",
          "type": "uint256"
        }
      ],
      "name": "studentSelfs",
      "outputs": [
        {
          "internalType": "uint256",
          "name": "stuId",
          "type": "uint256"
        },
        {
          "internalType": "string",
          "name": "stuName",
          "type": "string"
        },
        {
          "internalType": "address",
          "name": "stuBlockAddress",
          "type": "address"
        },
        {
          "internalType": "uint256",
          "name": "stuAuthorization",
          "type": "uint256"
        },
        {
          "internalType": "uint256",
          "name": "isLearningSum",
          "type": "uint256"
        }
      ],
      "stateMutability": "view",
      "type": "function",
      "constant": true
    },
    {
      "inputs": [
        {
          "internalType": "uint256",
          "name": "_courseId",
          "type": "uint256"
        },
        {
          "internalType": "string",
          "name": "_courseName",
          "type": "string"
        },
        {
          "internalType": "address",
          "name": "_proBlockAddress",
          "type": "address"
        }
      ],
      "name": "createCourse",
      "outputs": [
        {
          "internalType": "bool",
          "name": "",
          "type": "bool"
        }
      ],
      "stateMutability": "nonpayable",
      "type": "function"
    },
    {
      "inputs": [
        {
          "internalType": "uint256",
          "name": "_courseId",
          "type": "uint256"
        },
        {
          "internalType": "address",
          "name": "_proBlockAddress",
          "type": "address"
        },
        {
          "internalType": "address",
          "name": "_stuBlockAddress",
          "type": "address"
        }
      ],
      "name": "applyCourse",
      "outputs": [
        {
          "internalType": "bool",
          "name": "",
          "type": "bool"
        }
      ],
      "stateMutability": "nonpayable",
      "type": "function"
    },
    {
      "inputs": [
        {
          "internalType": "uint256",
          "name": "_courseId",
          "type": "uint256"
        },
        {
          "internalType": "address",
          "name": "_proBlockAddress",
          "type": "address"
        },
        {
          "internalType": "address",
          "name": "_stuBlockAddress",
          "type": "address"
        },
        {
          "internalType": "uint256",
          "name": "_stuGrade",
          "type": "uint256"
        }
      ],
      "name": "createCourseGrade",
      "outputs": [
        {
          "internalType": "bool",
          "name": "",
          "type": "bool"
        }
      ],
      "stateMutability": "nonpayable",
      "type": "function"
    }
  ],
  "bytecode": "0x6080604052600060015560006003556000600555600060075560016009556001600a556064600b556103e8600c553480156200003a57600080fd5b50336000806101000a81548173ffffffffffffffffffffffffffffffffffffffff021916908373ffffffffffffffffffffffffffffffffffffffff1602179055506040518060800160405280600181526020016040518060400160405280600481526020017f526f6f7400000000000000000000000000000000000000000000000000000000815250815260200160008054906101000a900473ffffffffffffffffffffffffffffffffffffffff1673ffffffffffffffffffffffffffffffffffffffff1681526020016003815250600260006001815260200190815260200160002060008201518160000155602082015181600101908051906020019062000145929190620001ba565b5060408201518160020160006101000a81548173ffffffffffffffffffffffffffffffffffffffff021916908373ffffffffffffffffffffffffffffffffffffffff1602179055506060820151816003015590505060016000815480929190620001af90620002aa565b919050555062000356565b828054620001c89062000274565b90600052602060002090601f016020900481019282620001ec576000855562000238565b82601f106200020757805160ff191683800117855562000238565b8280016001018555821562000238579182015b82811115620002375782518255916020019190600101906200021a565b5b5090506200024791906200024b565b5090565b5b80821115620002665760008160009055506001016200024c565b5090565b6000819050919050565b600060028204905060018216806200028d57607f821691505b60208210811415620002a457620002a362000327565b5b50919050565b6000620002b7826200026a565b91507fffffffffffffffffffffffffffffffffffffffffffffffffffffffffffffffff821415620002ed57620002ec620002f8565b5b600182019050919050565b7f4e487b7100000000000000000000000000000000000000000000000000000000600052601160045260246000fd5b7f4e487b7100000000000000000000000000000000000000000000000000000000600052602260045260246000fd5b61575980620003666000396000f3fe608060405234801561001057600080fd5b50600436106101e45760003560e01c80637860a0691161010f5780639fde0943116100a2578063e074bb4711610071578063e074bb47146106bf578063f6aa09e4146106ef578063fb3189e81461070d578063fc0c1f391461072b576101e4565b80639fde094314610611578063ad9e42d91461062f578063ced3ae611461065f578063dff3b4971461068f576101e4565b806390eab7a2116100de57806390eab7a21461056057806394e48ece14610590578063982203be146105c357806398aede55146105f3576101e4565b80637860a069146104b257806378a1fdbf146104d05780638c8ef733146105005780639014194014610530576101e4565b80631643c8db116101875780634d64e5ee116101565780634d64e5ee146103e757806358a420651461041b5780635e719a4914610450578063606870da14610480576101e4565b80631643c8db1461031f5780632b81bd8d1461035257806330e66b431461038257806330e94711146103b3576101e4565b80630c1596b4116101c35780630c1596b4146102835780630d9382fc146102b35780630e3bfd6c146102d157806310d756dd146102ef576101e4565b80624255a6146101e9578063043022fa1461021d57806309f006f514610253575b600080fd5b61020360048036038101906101fe9190614619565b610749565b604051610214959493929190614f15565b60405180910390f35b61023760048036038101906102329190614619565b610827565b60405161024a9796959493929190614f6f565b60405180910390f35b61026d60048036038101906102689190614686565b6109a6565b60405161027a9190614bd1565b60405180910390f35b61029d6004803603810190610298919061457d565b610d2b565b6040516102aa9190614b63565b60405180910390f35b6102bb610e21565b6040516102c89190614dde565b60405180910390f35b6102d9610e27565b6040516102e69190614dde565b60405180910390f35b6103096004803603810190610304919061457d565b610e2d565b6040516103169190614dde565b60405180910390f35b61033960048036038101906103349190614619565b610ecf565b6040516103499493929190614e53565b60405180910390f35b61036c60048036038101906103679190614619565b610fa7565b6040516103799190614bec565b60405180910390f35b61039c60048036038101906103979190614619565b6110d0565b6040516103aa929190614c0e565b60405180910390f35b6103cd60048036038101906103c89190614619565b6111eb565b6040516103de959493929190614fec565b60405180910390f35b61040160048036038101906103fc9190614619565b6113d5565b604051610412959493929190614f15565b60405180910390f35b6104356004803603810190610430919061457d565b6114b3565b60405161044796959493929190614e9f565b60405180910390f35b61046a60048036038101906104659190614619565b6116de565b6040516104779190614dde565b60405180910390f35b61049a60048036038101906104959190614619565b611746565b6040516104a993929190614b85565b60405180910390f35b6104ba6119e1565b6040516104c79190614dde565b60405180910390f35b6104ea60048036038101906104e591906146d9565b6119e7565b6040516104f79190614bd1565b60405180910390f35b61051a60048036038101906105159190614740565b611d5a565b6040516105279190614bd1565b60405180910390f35b61054a600480360381019061054591906145aa565b61208d565b6040516105579190614bd1565b60405180910390f35b61057a6004803603810190610575919061457d565b61256f565b6040516105879190614dde565b60405180910390f35b6105aa60048036038101906105a591906147af565b612781565b6040516105ba9493929190614df9565b60405180910390f35b6105dd60048036038101906105d89190614619565b612cc0565b6040516105ea9190614b26565b60405180910390f35b6105fb612d4c565b6040516106089190614b26565b60405180910390f35b610619612d70565b6040516106269190614b41565b60405180910390f35b61064960048036038101906106449190614619565b612e7c565b6040516106569190614dde565b60405180910390f35b61067960048036038101906106749190614646565b612edd565b6040516106869190614dde565b60405180910390f35b6106a960048036038101906106a4919061457d565b612fe1565b6040516106b69190614dde565b60405180910390f35b6106d960048036038101906106d4919061457d565b6131f3565b6040516106e69190614bd1565b60405180910390f35b6106f7613b42565b6040516107049190614b63565b60405180910390f35b610715613c00565b6040516107229190614dde565b60405180910390f35b610733613c06565b6040516107409190614dde565b60405180910390f35b60066020528060005260406000206000915090508060000154908060010180546107729061526f565b80601f016020809104026020016040519081016040528092919081815260200182805461079e9061526f565b80156107eb5780601f106107c0576101008083540402835291602001916107eb565b820191906000526020600020905b8154815290600101906020018083116107ce57829003601f168201915b5050505050908060020160009054906101000a900473ffffffffffffffffffffffffffffffffffffffff16908060030154908060050154905085565b60086020528060005260406000206000915090508060000154908060010180546108509061526f565b80601f016020809104026020016040519081016040528092919081815260200182805461087c9061526f565b80156108c95780601f1061089e576101008083540402835291602001916108c9565b820191906000526020600020905b8154815290600101906020018083116108ac57829003601f168201915b5050505050908060020180546108de9061526f565b80601f016020809104026020016040519081016040528092919081815260200182805461090a9061526f565b80156109575780601f1061092c57610100808354040283529160200191610957565b820191906000526020600020905b81548152906001019060200180831161093a57829003601f168201915b5050505050908060030160009054906101000a900473ffffffffffffffffffffffffffffffffffffffff16908060030160149054906101000a900460ff16908060040154908060050154905087565b6000806000905060005b6003548111610a3b576004600082815260200190815260200160002060020160009054906101000a900473ffffffffffffffffffffffffffffffffffffffff1673ffffffffffffffffffffffffffffffffffffffff163373ffffffffffffffffffffffffffffffffffffffff161415610a2857600191505b8080610a33906152d2565b9150506109b0565b5080610a7c576040517f08c379a0000000000000000000000000000000000000000000000000000000008152600401610a7390614d9e565b60405180910390fd5b6000610a8786613c0c565b90506001151581151514610ad0576040517f08c379a0000000000000000000000000000000000000000000000000000000008152600401610ac790614cde565b60405180910390fd5b6000610adb85613c94565b90506000600660008381526020019081526020016000206000015490506000805b6006600085815260200190815260200160002060040180549050811015610b6f5789600660008681526020019081526020016000206004018281548110610b4657610b45615379565b5b90600052602060002001541415610b5c57600191505b8080610b67906152d2565b915050610afc565b506000151581151514610bb7576040517f08c379a0000000000000000000000000000000000000000000000000000000008152600401610bae90614d5e565b60405180910390fd5b600660008481526020019081526020016000206004018990806001815401808255809150506001900390600052602060002001600090919091909150556000610bff8a612e7c565b9050610c0a8a613d36565b6000610c158b6116de565b90508860086000848152602001908152602001600020600601600083815260200190815260200160002060000160006101000a81548173ffffffffffffffffffffffffffffffffffffffff021916908373ffffffffffffffffffffffffffffffffffffffff16021790555083600860008481526020019081526020016000206006016000838152602001908152602001600020600101819055506000610cba8b613da8565b90506001600460008381526020019081526020016000206005016000828254610ce39190615131565b925050819055506001600660008881526020019081526020016000206005016000828254610d119190615131565b925050819055506001985050505050505050509392505050565b60606000610d3883613da8565b905060006004600083815260200190815260200160002060040180549050905060008167ffffffffffffffff811115610d7457610d736153a8565b5b604051908082528060200260200182016040528015610da25781602001602082028036833780820191505090505b50905060005b82811015610e1557600460008581526020019081526020016000206004018181548110610dd857610dd7615379565b5b9060005260206000200154828281518110610df657610df5615379565b5b6020026020010181815250508080610e0d906152d2565b915050610da8565b50809350505050919050565b60095481565b60075481565b600080600190505b6001548111610ec4578273ffffffffffffffffffffffffffffffffffffffff166002600083815260200190815260200160002060020160009054906101000a900473ffffffffffffffffffffffffffffffffffffffff1673ffffffffffffffffffffffffffffffffffffffff161415610eb15780915050610eca565b8080610ebc906152d2565b915050610e35565b50600090505b919050565b6002602052806000526040600020600091509050806000015490806001018054610ef89061526f565b80601f0160208091040260200160405190810160405280929190818152602001828054610f249061526f565b8015610f715780601f10610f4657610100808354040283529160200191610f71565b820191906000526020600020905b815481529060010190602001808311610f5457829003601f168201915b5050505050908060020160009054906101000a900473ffffffffffffffffffffffffffffffffffffffff16908060030154905084565b60606000600190505b600554811161109157826006600083815260200190815260200160002060000154141561107e57600660008281526020019081526020016000206001018054610ff89061526f565b80601f01602080910402602001604051908101604052809291908181526020018280546110249061526f565b80156110715780601f1061104657610100808354040283529160200191611071565b820191906000526020600020905b81548152906001019060200180831161105457829003601f168201915b50505050509150506110cb565b8080611089906152d2565b915050610fb0565b506040518060400160405280600481526020017f6e756c6c0000000000000000000000000000000000000000000000000000000081525090505b919050565b60606000806110de84612e7c565b9050600080600860008481526020019081526020016000206005015414158015611133575060086000838152602001908152602001600020600401546008600084815260200190815260200160002060050154145b1561113d57600190505b60086000838152602001908152602001600020600101818180546111609061526f565b80601f016020809104026020016040519081016040528092919081815260200182805461118c9061526f565b80156111d95780601f106111ae576101008083540402835291602001916111d9565b820191906000526020600020905b8154815290600101906020018083116111bc57829003601f168201915b50505050509150935093505050915091565b600060608060008060006111fe87612e7c565b9050600060086000838152602001908152602001600020600001549050600060086000848152602001908152602001600020600101805461123e9061526f565b80601f016020809104026020016040519081016040528092919081815260200182805461126a9061526f565b80156112b75780601f1061128c576101008083540402835291602001916112b7565b820191906000526020600020905b81548152906001019060200180831161129a57829003601f168201915b5050505050905060006008600085815260200190815260200160002060020180546112e19061526f565b80601f016020809104026020016040519081016040528092919081815260200182805461130d9061526f565b801561135a5780601f1061132f5761010080835404028352916020019161135a565b820191906000526020600020905b81548152906001019060200180831161133d57829003601f168201915b5050505050905060006008600086815260200190815260200160002060030160009054906101000a900473ffffffffffffffffffffffffffffffffffffffff16905060006008600087815260200190815260200160002060050154905084848484849a509a509a509a509a5050505050505091939590929450565b60046020528060005260406000206000915090508060000154908060010180546113fe9061526f565b80601f016020809104026020016040519081016040528092919081815260200182805461142a9061526f565b80156114775780601f1061144c57610100808354040283529160200191611477565b820191906000526020600020905b81548152906001019060200180831161145a57829003601f168201915b5050505050908060020160009054906101000a900473ffffffffffffffffffffffffffffffffffffffff16908060030154908060050154905085565b6000606060008060608060006114c888613c94565b905060006006600083815260200190815260200160002060000154905060006006600084815260200190815260200160002060010180546115089061526f565b80601f01602080910402602001604051908101604052809291908181526020018280546115349061526f565b80156115815780601f1061155657610100808354040283529160200191611581565b820191906000526020600020905b81548152906001019060200180831161156457829003601f168201915b5050505050905060006006600085815260200190815260200160002060030154905060006006600086815260200190815260200160002060040180548060200260200160405190810160405280929190818152602001828054801561160557602002820191906000526020600020905b8154815260200190600101908083116115f1575b505050505090506000815167ffffffffffffffff811115611629576116286153a8565b5b6040519080825280602002602001820160405280156116575781602001602082028036833780820191505090505b50905060005b82518110156116bc5761168a83828151811061167c5761167b615379565b5b60200260200101518f612edd565b82828151811061169d5761169c615379565b5b60200260200101818152505080806116b4906152d2565b91505061165d565b5084848e8585859b509b509b509b509b509b5050505050505091939550919395565b600080600190505b600754811161173f57826008600083815260200190815260200160002060000154141561172c576008600082815260200190815260200160002060050154915050611741565b8080611737906152d2565b9150506116e6565b505b919050565b6060806060600061175685612e7c565b905060006008600083815260200190815260200160002060050154905060008167ffffffffffffffff81111561178f5761178e6153a8565b5b6040519080825280602002602001820160405280156117bd5781602001602082028036833780820191505090505b50905060008267ffffffffffffffff8111156117dc576117db6153a8565b5b60405190808252806020026020018201604052801561180a5781602001602082028036833780820191505090505b50905060008367ffffffffffffffff811115611829576118286153a8565b5b6040519080825280602002602001820160405280156118575781602001602082028036833780820191505090505b5090506000600190505b8481116119cb5760086000878152602001908152602001600020600601600082815260200190815260200160002060000160009054906101000a900473ffffffffffffffffffffffffffffffffffffffff16846001836118c19190615187565b815181106118d2576118d1615379565b5b602002602001019073ffffffffffffffffffffffffffffffffffffffff16908173ffffffffffffffffffffffffffffffffffffffff168152505060086000878152602001908152602001600020600601600082815260200190815260200160002060010154836001836119459190615187565b8151811061195657611955615379565b5b602002602001018181525050600860008781526020019081526020016000206006016000828152602001908152602001600020600201548260018361199b9190615187565b815181106119ac576119ab615379565b5b60200260200101818152505080806119c3906152d2565b915050611861565b5081838297509750975050505050509193909250565b60035481565b6000806000905060005b6003548111611a7c576004600082815260200190815260200160002060020160009054906101000a900473ffffffffffffffffffffffffffffffffffffffff1673ffffffffffffffffffffffffffffffffffffffff163373ffffffffffffffffffffffffffffffffffffffff161415611a6957600191505b8080611a74906152d2565b9150506119f1565b5080611abd576040517f08c379a0000000000000000000000000000000000000000000000000000000008152600401611ab490614d9e565b60405180910390fd5b6000611ac98786613e4a565b90506001151581151514611b12576040517f08c379a0000000000000000000000000000000000000000000000000000000008152600401611b0990614c9e565b60405180910390fd5b6000611b1d88612e7c565b90506000611b2a896116de565b905060006008600084815260200190815260200160002060030160146101000a81548160ff0219169083151502179055506000600190505b818111611d48578773ffffffffffffffffffffffffffffffffffffffff1660086000858152602001908152602001600020600601600083815260200190815260200160002060000160009054906101000a900473ffffffffffffffffffffffffffffffffffffffff1673ffffffffffffffffffffffffffffffffffffffff161415611d35576000600860008581526020019081526020016000206006016000838152602001908152602001600020600201541415611c4757600860008481526020019081526020016000206004016000815480929190611c41906152d2565b91905055505b86600860008581526020019081526020016000206006016000838152602001908152602001600020600201819055506000611c818a613da8565b90506000611c8e8a613c94565b90506000600460008481526020019081526020016000206005015414611cdb57600460008381526020019081526020016000206005016000815480929190611cd590615245565b91905055505b6000600660008381526020019081526020016000206005015414611d2657600660008281526020019081526020016000206005016000815480929190611d2090615245565b91905055505b60019750505050505050611d51565b8080611d40906152d2565b915050611b62565b50600094505050505b50949350505050565b6000806000905060005b6003548111611def576004600082815260200190815260200160002060020160009054906101000a900473ffffffffffffffffffffffffffffffffffffffff1673ffffffffffffffffffffffffffffffffffffffff163373ffffffffffffffffffffffffffffffffffffffff161415611ddc57600191505b8080611de7906152d2565b915050611d64565b5080611e30576040517f08c379a0000000000000000000000000000000000000000000000000000000008152600401611e2790614d9e565b60405180910390fd5b3373ffffffffffffffffffffffffffffffffffffffff168373ffffffffffffffffffffffffffffffffffffffff1614611e9e576040517f08c379a0000000000000000000000000000000000000000000000000000000008152600401611e9590614c5e565b60405180910390fd5b6000611ea986613f61565b90506000151581151514611ef2576040517f08c379a0000000000000000000000000000000000000000000000000000000008152600401611ee990614d3e565b60405180910390fd5b6000611efd85613fb8565b905060076000815480929190611f12906152d2565b91905055508660086000600754815260200190815260200160002060000181905550856008600060075481526020019081526020016000206001019080519060200190611f60929190614300565b50806008600060075481526020019081526020016000206002019080519060200190611f8d929190614300565b508460086000600754815260200190815260200160002060030160006101000a81548173ffffffffffffffffffffffffffffffffffffffff021916908373ffffffffffffffffffffffffffffffffffffffff160217905550600160086000600754815260200190815260200160002060030160146101000a81548160ff021916908315150217905550600060086000600754815260200190815260200160002060040181905550600061203f86613da8565b90506004600082815260200190815260200160002060040188908060018154018082558091505060019003906000526020600020016000909190919091505560019450505050509392505050565b6000806000905060005b6001548111612122576002600082815260200190815260200160002060020160009054906101000a900473ffffffffffffffffffffffffffffffffffffffff1673ffffffffffffffffffffffffffffffffffffffff163373ffffffffffffffffffffffffffffffffffffffff16141561210f57600191505b808061211a906152d2565b915050612097565b5080612163576040517f08c379a000000000000000000000000000000000000000000000000000000000815260040161215a90614cbe565b60405180910390fd5b60018314806121725750600283145b8061217d5750600383145b6121bc576040517f08c379a00000000000000000000000000000000000000000000000000000000081526004016121b390614d1e565b60405180910390fd5b600015156121c98661412d565b15151461220b576040517f08c379a000000000000000000000000000000000000000000000000000000000815260040161220290614c3e565b60405180910390fd5b6009600081548092919061221e906152d2565b91905055506001831415612340576005600081548092919061223f906152d2565b9190505550600c6000815480929190612257906152d2565b9190505550600c54600660006005548152602001908152602001600020600001819055508360066000600554815260200190815260200160002060010190805190602001906122a7929190614300565b508460066000600554815260200190815260200160002060020160006101000a81548173ffffffffffffffffffffffffffffffffffffffff021916908373ffffffffffffffffffffffffffffffffffffffff160217905550600160066000600554815260200190815260200160002060030181905550600060066000600554815260200190815260200160002060050181905550612563565b600283141561245d576003600081548092919061235c906152d2565b9190505550600b6000815480929190612374906152d2565b9190505550600b54600460006003548152602001908152602001600020600001819055508360046000600354815260200190815260200160002060010190805190602001906123c4929190614300565b508460046000600354815260200190815260200160002060020160006101000a81548173ffffffffffffffffffffffffffffffffffffffff021916908373ffffffffffffffffffffffffffffffffffffffff160217905550600260046000600354815260200190815260200160002060030181905550600060046000600354815260200190815260200160002060050181905550612562565b60038314156125615760016000815480929190612479906152d2565b9190505550600a6000815480929190612491906152d2565b91905055506040518060800160405280600a5481526020018581526020018673ffffffffffffffffffffffffffffffffffffffff168152602001600381525060026000600154815260200190815260200160002060008201518160000155602082015181600101908051906020019061250b929190614300565b5060408201518160020160006101000a81548173ffffffffffffffffffffffffffffffffffffffff021916908373ffffffffffffffffffffffffffffffffffffffff160217905550606082015181600301559050505b5b5b60019150509392505050565b600080600190505b600154811161261c578273ffffffffffffffffffffffffffffffffffffffff166002600083815260200190815260200160002060020160009054906101000a900473ffffffffffffffffffffffffffffffffffffffff1673ffffffffffffffffffffffffffffffffffffffff16141561260957600260008281526020019081526020016000206003015491505061277c565b8080612614906152d2565b915050612577565b506000600190505b60035481116126c9578273ffffffffffffffffffffffffffffffffffffffff166004600083815260200190815260200160002060020160009054906101000a900473ffffffffffffffffffffffffffffffffffffffff1673ffffffffffffffffffffffffffffffffffffffff1614156126b657600460008281526020019081526020016000206003015491505061277c565b80806126c1906152d2565b915050612624565b506000600190505b6005548111612776578273ffffffffffffffffffffffffffffffffffffffff166006600083815260200190815260200160002060020160009054906101000a900473ffffffffffffffffffffffffffffffffffffffff1673ffffffffffffffffffffffffffffffffffffffff16141561276357600660008281526020019081526020016000206003015491505061277c565b808061276e906152d2565b9150506126d1565b50600090505b919050565b60006060806060600085905060008061279989612e7c565b9050600060086000838152602001908152602001600020600501549050838110156127c2578093505b60008167ffffffffffffffff8111156127de576127dd6153a8565b5b60405190808252806020026020018201604052801561280c5781602001602082028036833780820191505090505b5090506000600190505b8281116128c85760006008600086815260200190815260200160002060060160008381526020019081526020016000206002015411156128b55760086000858152602001908152602001600020600601600082815260200190815260200160002060020154826001836128899190615187565b8151811061289a57612899615379565b5b60200260200101818152505084806128b1906152d2565b9550505b80806128c0906152d2565b915050612816565b50848410156128d5578394505b60005b81518110156129f3576000600190505b82518110156129df57826001826128ff9190615187565b815181106129105761290f615379565b5b602002602001015183828151811061292b5761292a615379565b5b602002602001015111156129cc576000836001836129499190615187565b8151811061295a57612959615379565b5b6020026020010151905083828151811061297757612976615379565b5b60200260200101518460018461298d9190615187565b8151811061299e5761299d615379565b5b602002602001018181525050808483815181106129be576129bd615379565b5b602002602001018181525050505b80806129d7906152d2565b9150506128e8565b5080806129eb906152d2565b9150506128d8565b5060008567ffffffffffffffff811115612a1057612a0f6153a8565b5b604051908082528060200260200182016040528015612a3e5781602001602082028036833780820191505090505b50905060008667ffffffffffffffff811115612a5d57612a5c6153a8565b5b604051908082528060200260200182016040528015612a8b5781602001602082028036833780820191505090505b50905060008767ffffffffffffffff811115612aaa57612aa96153a8565b5b604051908082528060200260200182016040528015612ad85781602001602082028036833780820191505090505b5090506000805b8551811015612ca15789821415612af557612ca1565b858181518110612b0857612b07615379565b5b6020026020010151838281518110612b2357612b22615379565b5b6020026020010181815250506000600190505b878111612c7f57600860008a8152602001908152602001600020600601600082815260200190815260200160002060020154848381518110612b7b57612b7a615379565b5b60200260200101511415612c6c57600860008a8152602001908152602001600020600601600082815260200190815260200160002060010154858381518110612bc757612bc6615379565b5b602002602001018181525050600860008a8152602001908152602001600020600601600082815260200190815260200160002060000160009054906101000a900473ffffffffffffffffffffffffffffffffffffffff16868381518110612c3157612c30615379565b5b602002602001019073ffffffffffffffffffffffffffffffffffffffff16908173ffffffffffffffffffffffffffffffffffffffff16815250505b8080612c77906152d2565b915050612b36565b508180612c8b906152d2565b9250508080612c99906152d2565b915050612adf565b50888385849c509c509c509c5050505050505050505092959194509250565b600080600190505b6005548111612d41578260066000838152602001908152602001600020600001541415612d2e576006600082815260200190815260200160002060020160009054906101000a900473ffffffffffffffffffffffffffffffffffffffff16915050612d47565b8080612d39906152d2565b915050612cc8565b50600090505b919050565b60008054906101000a900473ffffffffffffffffffffffffffffffffffffffff1681565b6060600060055467ffffffffffffffff811115612d9057612d8f6153a8565b5b604051908082528060200260200182016040528015612dbe5781602001602082028036833780820191505090505b5090506000600190505b6005548111612e74576006600082815260200190815260200160002060020160009054906101000a900473ffffffffffffffffffffffffffffffffffffffff1682600183612e169190615187565b81518110612e2757612e26615379565b5b602002602001019073ffffffffffffffffffffffffffffffffffffffff16908173ffffffffffffffffffffffffffffffffffffffff16815250508080612e6c906152d2565b915050612dc8565b508091505090565b600080600090506000600190505b6007548111612ed1578360086000838152602001908152602001600020600001541415612ebe578091508192505050612ed8565b8080612ec9906152d2565b915050612e8a565b5060009150505b919050565b600080612ee984612e7c565b90506000600190505b60086000838152602001908152602001600020600501548111612fd4578373ffffffffffffffffffffffffffffffffffffffff1660086000848152602001908152602001600020600601600083815260200190815260200160002060000160009054906101000a900473ffffffffffffffffffffffffffffffffffffffff1673ffffffffffffffffffffffffffffffffffffffff161415612fc1576008600083815260200190815260200160002060060160008281526020019081526020016000206002015492505050612fdb565b8080612fcc906152d2565b915050612ef2565b5060009150505b92915050565b600080600190505b600154811161308e578273ffffffffffffffffffffffffffffffffffffffff166002600083815260200190815260200160002060020160009054906101000a900473ffffffffffffffffffffffffffffffffffffffff1673ffffffffffffffffffffffffffffffffffffffff16141561307b5760026000828152602001908152602001600020600001549150506131ee565b8080613086906152d2565b915050612fe9565b506000600190505b600354811161313b578273ffffffffffffffffffffffffffffffffffffffff166004600083815260200190815260200160002060020160009054906101000a900473ffffffffffffffffffffffffffffffffffffffff1673ffffffffffffffffffffffffffffffffffffffff1614156131285760046000828152602001908152602001600020600001549150506131ee565b8080613133906152d2565b915050613096565b506000600190505b60055481116131e8578273ffffffffffffffffffffffffffffffffffffffff166006600083815260200190815260200160002060020160009054906101000a900473ffffffffffffffffffffffffffffffffffffffff1673ffffffffffffffffffffffffffffffffffffffff1614156131d55760066000828152602001908152602001600020600001549150506131ee565b80806131e0906152d2565b915050613143565b50600090505b919050565b6000806000905060005b6001548111613288576002600082815260200190815260200160002060020160009054906101000a900473ffffffffffffffffffffffffffffffffffffffff1673ffffffffffffffffffffffffffffffffffffffff163373ffffffffffffffffffffffffffffffffffffffff16141561327557600191505b8080613280906152d2565b9150506131fd565b50806132c9576040517f08c379a00000000000000000000000000000000000000000000000000000000081526004016132c090614cbe565b60405180910390fd5b600115156132d68461412d565b151514613318576040517f08c379a000000000000000000000000000000000000000000000000000000000815260040161330f90614cfe565b60405180910390fd5b60006133238461256f565b90506000811415613369576040517f08c379a000000000000000000000000000000000000000000000000000000000815260040161336090614dbe565b60405180910390fd5b600181141561363957600061337d85613c94565b905060006006600083815260200190815260200160002060050154146133d8576040517f08c379a00000000000000000000000000000000000000000000000000000000081526004016133cf90614d7e565b60405180910390fd5b60008190505b6005548110156135a357600660006001836133f99190615131565b8152602001908152602001600020600001546006600083815260200190815260200160002060000181905550600660006001836134369190615131565b8152602001908152602001600020600101600660008381526020019081526020016000206001019080546134699061526f565b613474929190614386565b50600660006001836134869190615131565b815260200190815260200160002060020160009054906101000a900473ffffffffffffffffffffffffffffffffffffffff166006600083815260200190815260200160002060020160006101000a81548173ffffffffffffffffffffffffffffffffffffffff021916908373ffffffffffffffffffffffffffffffffffffffff1602179055506006600060018361351d9190615131565b81526020019081526020016000206003015460066000838152602001908152602001600020600301819055506006600060018361355a9190615131565b81526020019081526020016000206004016006600083815260200190815260200160002060040190805461358f929190614413565b50808061359b906152d2565b9150506133de565b506006600060055481526020019081526020016000206000808201600090556001820160006135d29190614465565b6002820160006101000a81549073ffffffffffffffffffffffffffffffffffffffff0219169055600382016000905560048201600061361191906144a5565b600582016000905550506005600081548092919061362e90615245565b919050555050613b1f565b600281141561390957600061364d85613da8565b905060006004600083815260200190815260200160002060050154146136a8576040517f08c379a000000000000000000000000000000000000000000000000000000000815260040161369f90614c7e565b60405180910390fd5b60008190505b60035481101561387357600460006001836136c99190615131565b8152602001908152602001600020600001546004600083815260200190815260200160002060000181905550600460006001836137069190615131565b8152602001908152602001600020600101600460008381526020019081526020016000206001019080546137399061526f565b613744929190614386565b50600460006001836137569190615131565b815260200190815260200160002060020160009054906101000a900473ffffffffffffffffffffffffffffffffffffffff166004600083815260200190815260200160002060020160006101000a81548173ffffffffffffffffffffffffffffffffffffffff021916908373ffffffffffffffffffffffffffffffffffffffff160217905550600460006001836137ed9190615131565b81526020019081526020016000206003015460046000838152602001908152602001600020600301819055506004600060018361382a9190615131565b81526020019081526020016000206004016004600083815260200190815260200160002060040190805461385f929190614413565b50808061386b906152d2565b9150506136ae565b506004600060035481526020019081526020016000206000808201600090556001820160006138a29190614465565b6002820160006101000a81549073ffffffffffffffffffffffffffffffffffffffff021916905560038201600090556004820160006138e191906144a5565b60058201600090555050600360008154809291906138fe90615245565b919050555050613b1e565b6003811415613b1d57600061391d85610e2d565b905060008190505b600154811015613aa357600260006001836139409190615131565b81526020019081526020016000206000015460026000838152602001908152602001600020600001819055506002600060018361397d9190615131565b8152602001908152602001600020600101600260008381526020019081526020016000206001019080546139b09061526f565b6139bb929190614386565b50600260006001836139cd9190615131565b815260200190815260200160002060020160009054906101000a900473ffffffffffffffffffffffffffffffffffffffff166002600083815260200190815260200160002060020160006101000a81548173ffffffffffffffffffffffffffffffffffffffff021916908373ffffffffffffffffffffffffffffffffffffffff16021790555060026000600183613a649190615131565b81526020019081526020016000206003015460026000838152602001908152602001600020600301819055508080613a9b906152d2565b915050613925565b50600260006001548152602001908152602001600020600080820160009055600182016000613ad29190614465565b6002820160006101000a81549073ffffffffffffffffffffffffffffffffffffffff02191690556003820160009055505060016000815480929190613b1690615245565b9190505550505b5b5b60096000815480929190613b3290615245565b9190505550600192505050919050565b6060600060075467ffffffffffffffff811115613b6257613b616153a8565b5b604051908082528060200260200182016040528015613b905781602001602082028036833780820191505090505b5090506000600190505b6007548111613bf857600860008281526020019081526020016000206000015482600183613bc89190615187565b81518110613bd957613bd8615379565b5b6020026020010181815250508080613bf0906152d2565b915050613b9a565b508091505090565b60055481565b60015481565b600080600190505b6007548111613c89578260086000838152602001908152602001600020600001541415613c7657600115156008600083815260200190815260200160002060030160149054906101000a900460ff1615151415613c75576001915050613c8f565b5b8080613c81906152d2565b915050613c14565b50600090505b919050565b600080600190505b6005548111613d2b578273ffffffffffffffffffffffffffffffffffffffff166006600083815260200190815260200160002060020160009054906101000a900473ffffffffffffffffffffffffffffffffffffffff1673ffffffffffffffffffffffffffffffffffffffff161415613d185780915050613d31565b8080613d23906152d2565b915050613c9c565b50600090505b919050565b6000600190505b6007548111613da4578160086000838152602001908152602001600020600001541415613d9157600860008281526020019081526020016000206005016000815480929190613d8b906152d2565b91905055505b8080613d9c906152d2565b915050613d3d565b5050565b600080600190505b6003548111613e3f578273ffffffffffffffffffffffffffffffffffffffff166004600083815260200190815260200160002060020160009054906101000a900473ffffffffffffffffffffffffffffffffffffffff1673ffffffffffffffffffffffffffffffffffffffff161415613e2c5780915050613e45565b8080613e37906152d2565b915050613db0565b50600090505b919050565b600080600190505b6005548111613f55578273ffffffffffffffffffffffffffffffffffffffff166006600083815260200190815260200160002060020160009054906101000a900473ffffffffffffffffffffffffffffffffffffffff1673ffffffffffffffffffffffffffffffffffffffff161415613f425760005b60066000838152602001908152602001600020600401805490508111613f405784600660008481526020019081526020016000206004018281548110613f1157613f10615379565b5b90600052602060002001541415613f2d57600192505050613f5b565b8080613f38906152d2565b915050613ec8565b505b8080613f4d906152d2565b915050613e52565b50600090505b92915050565b600080600190505b6007548111613fad578260086000838152602001908152602001600020600001541415613f9a576001915050613fb3565b8080613fa5906152d2565b915050613f69565b50600090505b919050565b60606000600190505b60035481116140ee578273ffffffffffffffffffffffffffffffffffffffff166004600083815260200190815260200160002060020160009054906101000a900473ffffffffffffffffffffffffffffffffffffffff1673ffffffffffffffffffffffffffffffffffffffff1614156140db576004600082815260200190815260200160002060010180546140559061526f565b80601f01602080910402602001604051908101604052809291908181526020018280546140819061526f565b80156140ce5780601f106140a3576101008083540402835291602001916140ce565b820191906000526020600020905b8154815290600101906020018083116140b157829003601f168201915b5050505050915050614128565b80806140e6906152d2565b915050613fc1565b506040518060400160405280600481526020017f6e756c6c0000000000000000000000000000000000000000000000000000000081525090505b919050565b600080600190505b60015481116141c5578273ffffffffffffffffffffffffffffffffffffffff166002600083815260200190815260200160002060020160009054906101000a900473ffffffffffffffffffffffffffffffffffffffff1673ffffffffffffffffffffffffffffffffffffffff1614156141b25760019150506142fb565b80806141bd906152d2565b915050614135565b506000600190505b600354811161425d578273ffffffffffffffffffffffffffffffffffffffff166004600083815260200190815260200160002060020160009054906101000a900473ffffffffffffffffffffffffffffffffffffffff1673ffffffffffffffffffffffffffffffffffffffff16141561424a5760019150506142fb565b8080614255906152d2565b9150506141cd565b506000600190505b60055481116142f5578273ffffffffffffffffffffffffffffffffffffffff166006600083815260200190815260200160002060020160009054906101000a900473ffffffffffffffffffffffffffffffffffffffff1673ffffffffffffffffffffffffffffffffffffffff1614156142e25760019150506142fb565b80806142ed906152d2565b915050614265565b50600090505b919050565b82805461430c9061526f565b90600052602060002090601f01602090048101928261432e5760008555614375565b82601f1061434757805160ff1916838001178555614375565b82800160010185558215614375579182015b82811115614374578251825591602001919060010190614359565b5b50905061438291906144c6565b5090565b8280546143929061526f565b90600052602060002090601f0160209004810192826143b45760008555614402565b82601f106143c55780548555614402565b8280016001018555821561440257600052602060002091601f016020900482015b828111156144015782548255916001019190600101906143e6565b5b50905061440f91906144c6565b5090565b8280548282559060005260206000209081019282156144545760005260206000209182015b82811115614453578254825591600101919060010190614438565b5b50905061446191906144c6565b5090565b5080546144719061526f565b6000825580601f1061448357506144a2565b601f0160209004906000526020600020908101906144a191906144c6565b5b50565b50805460008255906000526020600020908101906144c391906144c6565b50565b5b808211156144df5760008160009055506001016144c7565b5090565b60006144f66144f184615072565b61504d565b905082815260208101848484011115614512576145116153dc565b5b61451d848285615203565b509392505050565b600081359050614534816156f5565b92915050565b600082601f83011261454f5761454e6153d7565b5b813561455f8482602086016144e3565b91505092915050565b6000813590506145778161570c565b92915050565b600060208284031215614593576145926153e6565b5b60006145a184828501614525565b91505092915050565b6000806000606084860312156145c3576145c26153e6565b5b60006145d186828701614525565b935050602084013567ffffffffffffffff8111156145f2576145f16153e1565b5b6145fe8682870161453a565b925050604061460f86828701614568565b9150509250925092565b60006020828403121561462f5761462e6153e6565b5b600061463d84828501614568565b91505092915050565b6000806040838503121561465d5761465c6153e6565b5b600061466b85828601614568565b925050602061467c85828601614525565b9150509250929050565b60008060006060848603121561469f5761469e6153e6565b5b60006146ad86828701614568565b93505060206146be86828701614525565b92505060406146cf86828701614525565b9150509250925092565b600080600080608085870312156146f3576146f26153e6565b5b600061470187828801614568565b945050602061471287828801614525565b935050604061472387828801614525565b925050606061473487828801614568565b91505092959194509250565b600080600060608486031215614759576147586153e6565b5b600061476786828701614568565b935050602084013567ffffffffffffffff811115614788576147876153e1565b5b6147948682870161453a565b92505060406147a586828701614525565b9150509250925092565b600080604083850312156147c6576147c56153e6565b5b60006147d485828601614568565b92505060206147e585828601614568565b9150509250929050565b60006147fb838361481f565b60208301905092915050565b60006148138383614b08565b60208301905092915050565b614828816151bb565b82525050565b614837816151bb565b82525050565b6000614848826150c3565b61485281856150fe565b935061485d836150a3565b8060005b8381101561488e57815161487588826147ef565b9750614880836150e4565b925050600181019050614861565b5085935050505092915050565b60006148a6826150ce565b6148b0818561510f565b93506148bb836150b3565b8060005b838110156148ec5781516148d38882614807565b97506148de836150f1565b9250506001810190506148bf565b5085935050505092915050565b614902816151cd565b82525050565b6000614913826150d9565b61491d8185615120565b935061492d818560208601615212565b614936816153eb565b840191505092915050565b600061494e602d83615120565b9150614959826153fc565b604082019050919050565b6000614971603683615120565b915061497c8261544b565b604082019050919050565b6000614994603883615120565b915061499f8261549a565b604082019050919050565b60006149b7602683615120565b91506149c2826154e9565b604082019050919050565b60006149da601583615120565b91506149e582615538565b602082019050919050565b60006149fd601583615120565b9150614a0882615561565b602082019050919050565b6000614a20601883615120565b9150614a2b8261558a565b602082019050919050565b6000614a43600c83615120565b9150614a4e826155b3565b602082019050919050565b6000614a66601f83615120565b9150614a71826155dc565b602082019050919050565b6000614a89601583615120565b9150614a9482615605565b602082019050919050565b6000614aac603683615120565b9150614ab78261562e565b604082019050919050565b6000614acf601383615120565b9150614ada8261567d565b602082019050919050565b6000614af2603283615120565b9150614afd826156a6565b604082019050919050565b614b11816151f9565b82525050565b614b20816151f9565b82525050565b6000602082019050614b3b600083018461482e565b92915050565b60006020820190508181036000830152614b5b818461483d565b905092915050565b60006020820190508181036000830152614b7d818461489b565b905092915050565b60006060820190508181036000830152614b9f818661489b565b90508181036020830152614bb3818561483d565b90508181036040830152614bc7818461489b565b9050949350505050565b6000602082019050614be660008301846148f9565b92915050565b60006020820190508181036000830152614c068184614908565b905092915050565b60006040820190508181036000830152614c288185614908565b9050614c3760208301846148f9565b9392505050565b60006020820190508181036000830152614c5781614941565b9050919050565b60006020820190508181036000830152614c7781614964565b9050919050565b60006020820190508181036000830152614c9781614987565b9050919050565b60006020820190508181036000830152614cb7816149aa565b9050919050565b60006020820190508181036000830152614cd7816149cd565b9050919050565b60006020820190508181036000830152614cf7816149f0565b9050919050565b60006020820190508181036000830152614d1781614a13565b9050919050565b60006020820190508181036000830152614d3781614a36565b9050919050565b60006020820190508181036000830152614d5781614a59565b9050919050565b60006020820190508181036000830152614d7781614a7c565b9050919050565b60006020820190508181036000830152614d9781614a9f565b9050919050565b60006020820190508181036000830152614db781614ac2565b9050919050565b60006020820190508181036000830152614dd781614ae5565b9050919050565b6000602082019050614df36000830184614b17565b92915050565b6000608082019050614e0e6000830187614b17565b8181036020830152614e20818661489b565b90508181036040830152614e34818561483d565b90508181036060830152614e48818461489b565b905095945050505050565b6000608082019050614e686000830187614b17565b8181036020830152614e7a8186614908565b9050614e89604083018561482e565b614e966060830184614b17565b95945050505050565b600060c082019050614eb46000830189614b17565b8181036020830152614ec68188614908565b9050614ed5604083018761482e565b614ee26060830186614b17565b8181036080830152614ef4818561489b565b905081810360a0830152614f08818461489b565b9050979650505050505050565b600060a082019050614f2a6000830188614b17565b8181036020830152614f3c8187614908565b9050614f4b604083018661482e565b614f586060830185614b17565b614f656080830184614b17565b9695505050505050565b600060e082019050614f84600083018a614b17565b8181036020830152614f968189614908565b90508181036040830152614faa8188614908565b9050614fb9606083018761482e565b614fc660808301866148f9565b614fd360a0830185614b17565b614fe060c0830184614b17565b98975050505050505050565b600060a0820190506150016000830188614b17565b81810360208301526150138187614908565b905081810360408301526150278186614908565b9050615036606083018561482e565b6150436080830184614b17565b9695505050505050565b6000615057615068565b905061506382826152a1565b919050565b6000604051905090565b600067ffffffffffffffff82111561508d5761508c6153a8565b5b615096826153eb565b9050602081019050919050565b6000819050602082019050919050565b6000819050602082019050919050565b600081519050919050565b600081519050919050565b600081519050919050565b6000602082019050919050565b6000602082019050919050565b600082825260208201905092915050565b600082825260208201905092915050565b600082825260208201905092915050565b600061513c826151f9565b9150615147836151f9565b9250827fffffffffffffffffffffffffffffffffffffffffffffffffffffffffffffffff0382111561517c5761517b61531b565b5b828201905092915050565b6000615192826151f9565b915061519d836151f9565b9250828210156151b0576151af61531b565b5b828203905092915050565b60006151c6826151d9565b9050919050565b60008115159050919050565b600073ffffffffffffffffffffffffffffffffffffffff82169050919050565b6000819050919050565b82818337600083830152505050565b60005b83811015615230578082015181840152602081019050615215565b8381111561523f576000848401525b50505050565b6000615250826151f9565b915060008214156152645761526361531b565b5b600182039050919050565b6000600282049050600182168061528757607f821691505b6020821081141561529b5761529a61534a565b5b50919050565b6152aa826153eb565b810181811067ffffffffffffffff821117156152c9576152c86153a8565b5b80604052505050565b60006152dd826151f9565b91507fffffffffffffffffffffffffffffffffffffffffffffffffffffffffffffffff8214156153105761530f61531b565b5b600182019050919050565b7f4e487b7100000000000000000000000000000000000000000000000000000000600052601160045260246000fd5b7f4e487b7100000000000000000000000000000000000000000000000000000000600052602260045260246000fd5b7f4e487b7100000000000000000000000000000000000000000000000000000000600052603260045260246000fd5b7f4e487b7100000000000000000000000000000000000000000000000000000000600052604160045260246000fd5b600080fd5b600080fd5b600080fd5b600080fd5b6000601f19601f8301169050919050565b7f5468697320616464726573732068617320616c7265616479206265656e20736560008201527f74207065726d697373696f6e7300000000000000000000000000000000000000602082015250565b7f3e3e3e5468652070726f426c6f636b41646472657373206e6f206d617463682060008201527f7468652063757272656e74206164647265737321212100000000000000000000602082015250565b7f3e3e3e546869732070726f666573736f72206973207465616368696e672c206360008201527f616e742072656d6f7665207065726d697373696f6e2121210000000000000000602082015250565b7f3e3e3e73747564656e7420646f6573206e6f74206f776e207468697320636f7560008201527f7273652121210000000000000000000000000000000000000000000000000000602082015250565b7f3e3e3e3e3e3e697341646d696e203d2066616c73650000000000000000000000600082015250565b7f3e3e3e63616e4170706c795f203d3d2066616c73650000000000000000000000600082015250565b7f3e3e3e546869732061646472657373206e6f2065786973740000000000000000600082015250565b7f756e617574686f72697a65640000000000000000000000000000000000000000600082015250565b7f3e3e3e5f636f75727365496420616c7265616479206578697374656421212100600082015250565b7f3e3e3e3e3e3e7265706561746564203d20747275650000000000000000000000600082015250565b7f3e3e3e546869732073747564656e74206973206c6561726e696e672c2063616e60008201527f742072656d6f7665207065726d697373696f6e21212100000000000000000000602082015250565b7f697350726f666573736f72203d2066616c736500000000000000000000000000600082015250565b7f3e3e3e5468697320626c6f636b4164647265737320776173206f726967696e6160008201527f6c6c79206e6f7420617574686f72697a65640000000000000000000000000000602082015250565b6156fe816151bb565b811461570957600080fd5b50565b615715816151f9565b811461572057600080fd5b5056fea2646970667358221220dadcd3fc6a4eb312ee848acf20aeac326b46778b89bc695a56cd7700936e9b4164736f6c63430008070033",
  "immutableReferences": {},
  "source": "// SPDX-License-Identifier: MIT\npragma solidity >=0.4.22 <0.9.0;\n\n\n/*\n\n// professor (inherit)StructAndModifiers, Admin\n\n// : onlyProfessor\n// All functions in this contract are marked as: onlyprofessor\n1. createCourse()               //   Create course\n\n2. applyCourse()                //   Join the course\n\n3. createCourseGrade()          //   Create grades\n\n4. getGradeByProAddress()            //      View the grades of all students in the subject\n\n5. getGradeByProProAddrAndStuAddr()    //        View the grade of a student in a subject\n\n\n*/\n\n\nimport \"./Admin.sol\";\ncontract Professor is Admin {\n    //////////////////////////////////////////////////////////////////////////////////////////////////////////////\n    //   Only teachers have permission to create courses\n    function createCourse (uint _courseId, string memory _courseName,address _proBlockAddress) public onlyProfessor returns(bool){    \n        //  Check whether the proid matches the address\n        require(_proBlockAddress == msg.sender,\">>>The proBlockAddress no match the current address!!!\");\n        \n        //  Check whether the created course information already exists\n        bool isExisted = checkCourseExisted(_courseId); \n        require(isExisted == false,\">>>_courseId already existed!!!\");\n        \n        string memory _profName = getProfessorNameByAddress(_proBlockAddress);\n        \n        //  Self increasing\n        courseCounts ++;\n        \n        //    Create initialization without students and grades\n        courseInfs[courseCounts].courseId = _courseId;\n        courseInfs[courseCounts].courseName = _courseName;\n        courseInfs[courseCounts].profName = _profName;\n        courseInfs[courseCounts].proBlockAddress = _proBlockAddress;\n        courseInfs[courseCounts].canApply = true;\n        courseInfs[courseCounts].gotStudentGradeCounts = 0;\n        \n        // course ID\n        // After successful creation, you need to put this course ID into the corresponding professor's file\n        uint professorIndex = getProfessorIndexByAddress(_proBlockAddress);\n        // ID Put the ID in the corresponding professor's file\n        professorSelfs[professorIndex].myProCourses.push(_courseId);  \n        \n        return true;\n        \n    }\n    \n    \n     //////////////////////////////////////////////////////////////////////////////////////////////////////////////\n    //  Professor Only professors have permission to join the course\n    \n    function applyCourse (uint _courseId,address _proBlockAddress,address _stuBlockAddress) public onlyProfessor returns(bool){\n        \n        // _proBlockAddress Check whether the proid matches the address\n        //require(_proBlockAddress == msg.sender,\">>>The proId no match the current address!!!\");\n        \n        //  Check whether the course information exists\n        //bool isExisted = checkCourseExisted(_courseId); \n        //require(isExisted == true,\">>>_courseId no existed!!!\");\n        \n        //  Check whether this course can be applied\n        bool canApply_ = checkCourseCanApply(_courseId);\n        require(canApply_ == true,\">>>canApply_ == false\");\n        \n        //  Check whether the professor has this course\n        //bool isheldByPro = checkCourseHeldByProBlockAddress(_courseId,_proBlockAddress);\n        //require(isheldByPro == true,\">>>professor does not own this course!!!\");\n              \n        // id Check whether the student ID is a student\n        //bool isStudent = checkIsStudent(_stuBlockAddress);\n        //require(isStudent == true,\">>>stuID is not a student!!!\");\n        \n        // student address\n        // After successful creation, you need to put this student ID into the corresponding student's file\n        uint studentIndex = getStudentIndexByAddress(_stuBlockAddress);\n        // \n        uint _stuId = studentSelfs[studentIndex].stuId;\n        //string memory _stuName = studentSelfs[studentIndex].stuName;\n\n        // ID Put the ID in the corresponding student's file\n        // course ID.  At this time, check whether there is a duplicate course ID\n        bool repeated = false;\n        for(uint i=0;i<studentSelfs[studentIndex].myStuCourses.length;i++){\n            if(studentSelfs[studentIndex].myStuCourses[i]==_courseId){\n                repeated = true;\n            }\n        }\n        require(repeated == false,\">>>>>>repeated = true\");\n        \n        // ,  No duplication, can apply\n        // id\n        studentSelfs[studentIndex].myStuCourses.push(_courseId);\n\n        //  ,\n        // First find the course and put the students' information into the corresponding course\n        uint indexOfCourseID = getIndexByCourseId(_courseId);\n\n        // \n        //string memory courseName_ = courseInfs[indexOfCourseID].courseName;\n        //studentSelfs[studentIndex].myStuCourseNames.push(courseName_);\n\n        // ,  \n        // +1\n        // +1, courseStudentCounts_  \n        \n        //Find the length of the array of students stored in this course, that is, the number of students who have taken this course\n        //New students will be assigned to the position of number + 1\n        //First assign the number of people + 1, and then assign it to coursestudentcounts_\n        \n        setcourseStudentCounts(_courseId);\n        uint courseStudentCounts_ = getcourseStudentCounts(_courseId);    \n        courseInfs[indexOfCourseID].courseStudents[courseStudentCounts_].stuBlockAddress = _stuBlockAddress;\n        courseInfs[indexOfCourseID].courseStudents[courseStudentCounts_].stuId = _stuId;\n        //courseInfs[indexOfCourseID].courseStudents[courseStudentCounts_].stuName = _stuName;\n\n        // ,+1   // Whenever a student applies, + 1\n        // isTeachingPeopleSum++\n        uint professorIndex = getProfessorIndexByAddress(_proBlockAddress);\n        professorSelfs[professorIndex].isTeachingPeopleSum += 1;\n        \n        //    // Set students in class\n        // isLearningSum++\n        studentSelfs[studentIndex].isLearningSum += 1;\n        \n        return true;\n        \n    }\n    \n    \n    // (onlyprofessor)  ==> course\n    // Create grade (onlyprofessor) = = > save to course class\n    //////////////////////////////////////////////////////////////////////////////////////////////////////////////\n    //     Only teachers have permission to create grades\n    //  _courseId ,  _proBlockAddress , _stuBlockAddress, _stuGrade\n    function createCourseGrade (uint _courseId,address _proBlockAddress,address _stuBlockAddress,uint _stuGrade) public onlyProfessor returns(bool){\n        \n        // _proBlockAddress Check whether the proid matches the address\n        //require(_proBlockAddress == msg.sender,\">>>The proId no match the current address!!!\");\n        \n        //  Check whether the course information exists\n        //bool isExisted = checkCourseExisted(_courseId); \n        //require(isExisted == true,\">>>_courseId no existed!!!\");\n        \n        // pro  First check whether the professor is proid's own course\n        //bool isheldByPro = checkCourseHeldByProBlockAddress(_courseId,_proBlockAddress);\n        //require(isheldByPro == true,\">>>professor does not own this course!!!\");\n        \n        // checkstu Check is stuid's own course\n        bool isheldByStu = checkCourseHeldByStuBlockAddress(_courseId,_stuBlockAddress);\n        require(isheldByStu == true,\">>>student does not own this course!!!\");\n        \n        //  Find the course first\n        uint indexOfCourseID = getIndexByCourseId(_courseId);\n        // ,  \n        // Find the length of the array of students stored in this course, that is, the number of students taking this course\n        uint courseStudentCounts_ = getcourseStudentCounts(_courseId);\n        \n        // \n        // Students can not apply for this course after they get their grades\n        courseInfs[indexOfCourseID].canApply = false;\n\n        //  \n        // Find the corresponding students' grades under the corresponding courses\n        for(uint j=1;j<=courseStudentCounts_;j++){\n            if(courseInfs[indexOfCourseID].courseStudents[j].stuBlockAddress==_stuBlockAddress){\n                //      Information matching, giving results\n                if(courseInfs[indexOfCourseID].courseStudents[j].stuGrade == 0){\n                    courseInfs[indexOfCourseID].gotStudentGradeCounts++;\n                }\n\n                courseInfs[indexOfCourseID].courseStudents[j].stuGrade = _stuGrade;\n                \n                //   Update the status number of teachers and students\n                uint professorIndex = getProfessorIndexByAddress(_proBlockAddress);\n                uint studentIndex = getStudentIndexByAddress(_stuBlockAddress);\n                \n                if(professorSelfs[professorIndex].isTeachingPeopleSum != 0){\n                    // isTeaching--\n                    professorSelfs[professorIndex].isTeachingPeopleSum--;\n                }\n                if(studentSelfs[studentIndex].isLearningSum != 0){\n                    // isLearning--\n                    studentSelfs[studentIndex].isLearningSum--;\n                }\n                \n                // \n                //studentSelfs[studentIndex].myStuCoursesGrades.push(_stuGrade);\n\n                return true;    //  Update complete\n            }\n        }\n        // \n        return false;  //  \n        \n    }\n    \n/*\n    //   View the scores of all students in a subject\n    // If it is a professor, it can view the scores of students in his course\n    function getGradeByProAddress(uint _courseId, address _proBlockAddress) public view onlyProfessor returns(address[] memory, uint[] memory){\n        \n        // proBlockAddress Check whether the proid matches the address\n        require(_proBlockAddress == msg.sender,\">>>The proId no match the current address!!!\");\n        \n        //  Check whether the course information exists\n        bool isExisted = checkCourseExisted(_courseId); \n        require(isExisted == true,\">>>_courseId no existed!!!\");\n        \n        \n        // checkproId Check is proid's own course\n        bool isheldByPro = checkCourseHeldByProBlockAddress(_courseId,_proBlockAddress);\n        require(isheldByPro == true,\">>>professor does not own this course!!!\");\n        \n        ///\n        //  The results of all students under the course will be listed\n        \n        //  Find the course first\n        uint indexOfCourseID = getIndexByCourseId(_courseId);\n        \n        // ,  \n        // Find the length of the array of students stored in this course, that is, the number of students taking this course\n        uint courseStudentCounts_ = getcourseStudentCounts(_courseId);\n              \n        address[] memory myStudentAddress = new address[](courseStudentCounts_);\n        uint[] memory myStudentsGrade  = new uint[](courseStudentCounts_);\n              \n        for(uint j=1;j<=courseStudentCounts_;j++){\n            myStudentAddress[j-1] = courseInfs[indexOfCourseID].courseStudents[j].stuBlockAddress;\n            myStudentsGrade[j-1] = courseInfs[indexOfCourseID].courseStudents[j].stuGrade;\n        }    \n        return (myStudentAddress,myStudentsGrade) ;  //  complete\n          \n    }\n\n    \n*/   \n\n\n/*\n    //  View the results of a student in a subject\n    function getGradeByProAddrAndStuAddr(uint _courseId,address _proBlockAddress,address _stuBlockAddress) public view onlyProfessor returns(uint){\n        \n        // _proBlockAddress Check whether the proid matches the address\n        require(_proBlockAddress == msg.sender,\">>>The proId no match the current address!!!\");\n        \n        //  Check whether the course information exists\n        bool isExisted = checkCourseExisted(_courseId); \n        require(isExisted == true,\">>>_courseId no existed!!!\");\n        \n        // checkpro Check whether it is a course of proid\n        bool isheldByPro = checkCourseHeldByProBlockAddress(_courseId,_proBlockAddress);\n        require(isheldByPro == true,\">>>professor does not own this course!!!\");\n        \n        // checkstuId Check whether it is the course of stuid\n        bool isheldByStu = checkCourseHeldByStuBlockAddress(_courseId,_stuBlockAddress);\n        require(isheldByStu == true,\">>>student does not own this course!!!\");\n        \n        ///\n        //  Will list their achievements \n        //   Find the course first\n        uint indexOfCourseID = getIndexByCourseId(_courseId);\n        \n        // ,  \n        // Find the length of the array of students stored in this course, that is, the number of students taking this course\n        uint courseStudentCounts_ = getcourseStudentCounts(_courseId);\n            \n        uint myCourseGrade;\n        //   Find the corresponding student under the corresponding course\n        for(uint j=1;j<=courseStudentCounts_;j++){\n            if(courseInfs[indexOfCourseID].courseStudents[j].stuBlockAddress==_stuBlockAddress){\n                //   get Information matching, get score\n                myCourseGrade = courseInfs[indexOfCourseID].courseStudents[j].stuGrade;\n                return myCourseGrade;    //  complete\n            }\n        }\n        //  Otherwise, it will fail\n        return 0;  //  complete\n        \n    }\n*/\n    \n\n                    \n\n    \n}\n\n\n\n\n",
  "sourcePath": "/Users/sophotky/Computer-Science/blockchain/capstone/scouter2/contracts/Professor.sol",
  "compiler": {
    "name": "solc",
    "version": "0.8.7+commit.e28d00a7.Emscripten.clang"
  },
  "schemaVersion": "3.4.3",
  "updatedAt": "2021-12-06T11:06:32.340Z",
  "networkType": "ethereum",
  "devdoc": {
    "kind": "dev",
    "methods": {},
    "version": 1
  },
  "userdoc": {
    "kind": "user",
    "methods": {},
    "version": 1
  }
}