{
  "contractName": "Professor",
  "abi": [
    {
      "inputs": [],
      "name": "adminCounts",
      "outputs": [
        {
          "internalType": "uint256",
          "name": "",
          "type": "uint256"
        }
      ],
      "stateMutability": "view",
      "type": "function",
      "constant": true
    },
    {
      "inputs": [
        {
          "internalType": "uint256",
          "name": "",
          "type": "uint256"
        }
      ],
      "name": "adminSelfs",
      "outputs": [
        {
          "internalType": "uint256",
          "name": "adminId",
          "type": "uint256"
        },
        {
          "internalType": "string",
          "name": "adminName",
          "type": "string"
        },
        {
          "internalType": "address",
          "name": "adminBlockAddress",
          "type": "address"
        },
        {
          "internalType": "uint256",
          "name": "adminAuthorization",
          "type": "uint256"
        }
      ],
      "stateMutability": "view",
      "type": "function",
      "constant": true
    },
    {
      "inputs": [],
      "name": "courseCounts",
      "outputs": [
        {
          "internalType": "uint256",
          "name": "",
          "type": "uint256"
        }
      ],
      "stateMutability": "view",
      "type": "function",
      "constant": true
    },
    {
      "inputs": [
        {
          "internalType": "uint256",
          "name": "",
          "type": "uint256"
        }
      ],
      "name": "courseInfs",
      "outputs": [
        {
          "internalType": "uint256",
          "name": "courseId",
          "type": "uint256"
        },
        {
          "internalType": "string",
          "name": "courseName",
          "type": "string"
        },
        {
          "internalType": "address",
          "name": "proBlockAddress",
          "type": "address"
        },
        {
          "internalType": "bool",
          "name": "canApply",
          "type": "bool"
        },
        {
          "internalType": "uint256",
          "name": "courseStudentCounts",
          "type": "uint256"
        }
      ],
      "stateMutability": "view",
      "type": "function",
      "constant": true
    },
    {
      "inputs": [
        {
          "internalType": "address",
          "name": "_adminBlockAddress",
          "type": "address"
        }
      ],
      "name": "getAdminIndexByAddress",
      "outputs": [
        {
          "internalType": "uint256",
          "name": "",
          "type": "uint256"
        }
      ],
      "stateMutability": "view",
      "type": "function",
      "constant": true
    },
    {
      "inputs": [],
      "name": "getAllCourseId",
      "outputs": [
        {
          "internalType": "uint256[]",
          "name": "",
          "type": "uint256[]"
        }
      ],
      "stateMutability": "view",
      "type": "function",
      "constant": true
    },
    {
      "inputs": [],
      "name": "getAllStudentAddress",
      "outputs": [
        {
          "internalType": "address[]",
          "name": "",
          "type": "address[]"
        }
      ],
      "stateMutability": "view",
      "type": "function",
      "constant": true
    },
    {
      "inputs": [
        {
          "internalType": "address",
          "name": "_address",
          "type": "address"
        }
      ],
      "name": "getAuthorizationByAddress",
      "outputs": [
        {
          "internalType": "uint256",
          "name": "",
          "type": "uint256"
        }
      ],
      "stateMutability": "view",
      "type": "function",
      "constant": true
    },
    {
      "inputs": [
        {
          "internalType": "address",
          "name": "_proBlockAddress",
          "type": "address"
        }
      ],
      "name": "getCourseCountsByProAddress",
      "outputs": [
        {
          "internalType": "uint256",
          "name": "",
          "type": "uint256"
        }
      ],
      "stateMutability": "view",
      "type": "function",
      "constant": true
    },
    {
      "inputs": [
        {
          "internalType": "address",
          "name": "_proBlockAddress",
          "type": "address"
        }
      ],
      "name": "getCourseIdByProAddress",
      "outputs": [
        {
          "internalType": "uint256[]",
          "name": "",
          "type": "uint256[]"
        }
      ],
      "stateMutability": "view",
      "type": "function",
      "constant": true
    },
    {
      "inputs": [
        {
          "internalType": "uint256",
          "name": "_courseid",
          "type": "uint256"
        }
      ],
      "name": "getCourseInfByCourseId",
      "outputs": [
        {
          "internalType": "uint256",
          "name": "",
          "type": "uint256"
        },
        {
          "internalType": "string",
          "name": "",
          "type": "string"
        },
        {
          "internalType": "address",
          "name": "",
          "type": "address"
        },
        {
          "internalType": "uint256",
          "name": "",
          "type": "uint256"
        }
      ],
      "stateMutability": "view",
      "type": "function",
      "constant": true
    },
    {
      "inputs": [
        {
          "internalType": "uint256",
          "name": "_courseId",
          "type": "uint256"
        }
      ],
      "name": "getCourseNameByCourseId",
      "outputs": [
        {
          "internalType": "string",
          "name": "",
          "type": "string"
        }
      ],
      "stateMutability": "view",
      "type": "function",
      "constant": true
    },
    {
      "inputs": [
        {
          "internalType": "uint256",
          "name": "_courseid",
          "type": "uint256"
        }
      ],
      "name": "getCourseStudentInfByCourseId",
      "outputs": [
        {
          "internalType": "uint256[]",
          "name": "",
          "type": "uint256[]"
        },
        {
          "internalType": "address[]",
          "name": "",
          "type": "address[]"
        },
        {
          "internalType": "uint256[]",
          "name": "",
          "type": "uint256[]"
        }
      ],
      "stateMutability": "view",
      "type": "function",
      "constant": true
    },
    {
      "inputs": [
        {
          "internalType": "address",
          "name": "_address",
          "type": "address"
        }
      ],
      "name": "getIdByAddress",
      "outputs": [
        {
          "internalType": "uint256",
          "name": "",
          "type": "uint256"
        }
      ],
      "stateMutability": "view",
      "type": "function",
      "constant": true
    },
    {
      "inputs": [
        {
          "internalType": "uint256",
          "name": "_courseId",
          "type": "uint256"
        }
      ],
      "name": "getIndexByCourseId",
      "outputs": [
        {
          "internalType": "uint256",
          "name": "",
          "type": "uint256"
        }
      ],
      "stateMutability": "view",
      "type": "function",
      "constant": true
    },
    {
      "inputs": [
        {
          "internalType": "address",
          "name": "_proBlockAddress",
          "type": "address"
        }
      ],
      "name": "getProfessorIndexByAddress",
      "outputs": [
        {
          "internalType": "uint256",
          "name": "",
          "type": "uint256"
        }
      ],
      "stateMutability": "view",
      "type": "function",
      "constant": true
    },
    {
      "inputs": [
        {
          "internalType": "address",
          "name": "_profAddr",
          "type": "address"
        }
      ],
      "name": "getProfessorNameByAddress",
      "outputs": [
        {
          "internalType": "string",
          "name": "",
          "type": "string"
        }
      ],
      "stateMutability": "view",
      "type": "function",
      "constant": true
    },
    {
      "inputs": [
        {
          "internalType": "uint256",
          "name": "_stuId",
          "type": "uint256"
        }
      ],
      "name": "getStuAddressByStuId",
      "outputs": [
        {
          "internalType": "address",
          "name": "",
          "type": "address"
        }
      ],
      "stateMutability": "view",
      "type": "function",
      "constant": true
    },
    {
      "inputs": [
        {
          "internalType": "uint256",
          "name": "_courseId",
          "type": "uint256"
        },
        {
          "internalType": "address",
          "name": "_stuAddress",
          "type": "address"
        }
      ],
      "name": "getStudentGradeByCourseIdAndStuAddr",
      "outputs": [
        {
          "internalType": "uint256",
          "name": "",
          "type": "uint256"
        }
      ],
      "stateMutability": "view",
      "type": "function",
      "constant": true
    },
    {
      "inputs": [
        {
          "internalType": "address",
          "name": "_stuBlockAddress",
          "type": "address"
        }
      ],
      "name": "getStudentIndexByAddress",
      "outputs": [
        {
          "internalType": "uint256",
          "name": "",
          "type": "uint256"
        }
      ],
      "stateMutability": "view",
      "type": "function",
      "constant": true
    },
    {
      "inputs": [
        {
          "internalType": "address",
          "name": "_stuBlockAddress",
          "type": "address"
        }
      ],
      "name": "getStudentInfByStuAddress",
      "outputs": [
        {
          "internalType": "uint256",
          "name": "",
          "type": "uint256"
        },
        {
          "internalType": "string",
          "name": "",
          "type": "string"
        },
        {
          "internalType": "address",
          "name": "",
          "type": "address"
        },
        {
          "internalType": "uint256",
          "name": "",
          "type": "uint256"
        },
        {
          "internalType": "uint256[]",
          "name": "",
          "type": "uint256[]"
        },
        {
          "internalType": "uint256[]",
          "name": "",
          "type": "uint256[]"
        }
      ],
      "stateMutability": "view",
      "type": "function",
      "constant": true
    },
    {
      "inputs": [
        {
          "internalType": "uint256",
          "name": "_stuId",
          "type": "uint256"
        }
      ],
      "name": "getStudentNameById",
      "outputs": [
        {
          "internalType": "string",
          "name": "",
          "type": "string"
        }
      ],
      "stateMutability": "view",
      "type": "function",
      "constant": true
    },
    {
      "inputs": [
        {
          "internalType": "uint256",
          "name": "_courseid",
          "type": "uint256"
        },
        {
          "internalType": "uint256",
          "name": "_getTops",
          "type": "uint256"
        }
      ],
      "name": "getTopStudentsByCourseId",
      "outputs": [
        {
          "internalType": "uint256",
          "name": "",
          "type": "uint256"
        },
        {
          "internalType": "uint256[]",
          "name": "",
          "type": "uint256[]"
        },
        {
          "internalType": "address[]",
          "name": "",
          "type": "address[]"
        },
        {
          "internalType": "uint256[]",
          "name": "",
          "type": "uint256[]"
        }
      ],
      "stateMutability": "view",
      "type": "function",
      "constant": true
    },
    {
      "inputs": [
        {
          "internalType": "uint256",
          "name": "_courseid",
          "type": "uint256"
        }
      ],
      "name": "getcourseStudentCounts",
      "outputs": [
        {
          "internalType": "uint256",
          "name": "courseStudentCounts_",
          "type": "uint256"
        }
      ],
      "stateMutability": "view",
      "type": "function",
      "constant": true
    },
    {
      "inputs": [],
      "name": "modifiersOwner",
      "outputs": [
        {
          "internalType": "address",
          "name": "",
          "type": "address"
        }
      ],
      "stateMutability": "view",
      "type": "function",
      "constant": true
    },
    {
      "inputs": [],
      "name": "personCounts",
      "outputs": [
        {
          "internalType": "uint256",
          "name": "",
          "type": "uint256"
        }
      ],
      "stateMutability": "view",
      "type": "function",
      "constant": true
    },
    {
      "inputs": [],
      "name": "professorCounts",
      "outputs": [
        {
          "internalType": "uint256",
          "name": "",
          "type": "uint256"
        }
      ],
      "stateMutability": "view",
      "type": "function",
      "constant": true
    },
    {
      "inputs": [
        {
          "internalType": "uint256",
          "name": "",
          "type": "uint256"
        }
      ],
      "name": "professorSelfs",
      "outputs": [
        {
          "internalType": "uint256",
          "name": "proId",
          "type": "uint256"
        },
        {
          "internalType": "string",
          "name": "proName",
          "type": "string"
        },
        {
          "internalType": "address",
          "name": "proBlockAddress",
          "type": "address"
        },
        {
          "internalType": "uint256",
          "name": "proAuthorization",
          "type": "uint256"
        },
        {
          "internalType": "uint256",
          "name": "isTeachingPeopleSum",
          "type": "uint256"
        }
      ],
      "stateMutability": "view",
      "type": "function",
      "constant": true
    },
    {
      "inputs": [
        {
          "internalType": "address",
          "name": "_blockAddress",
          "type": "address"
        }
      ],
      "name": "removePermission",
      "outputs": [
        {
          "internalType": "bool",
          "name": "",
          "type": "bool"
        }
      ],
      "stateMutability": "nonpayable",
      "type": "function"
    },
    {
      "inputs": [
        {
          "internalType": "address",
          "name": "_blockAddress",
          "type": "address"
        },
        {
          "internalType": "string",
          "name": "_name",
          "type": "string"
        },
        {
          "internalType": "uint256",
          "name": "_authorization",
          "type": "uint256"
        }
      ],
      "name": "setPermission",
      "outputs": [
        {
          "internalType": "bool",
          "name": "",
          "type": "bool"
        }
      ],
      "stateMutability": "nonpayable",
      "type": "function"
    },
    {
      "inputs": [],
      "name": "studentCounts",
      "outputs": [
        {
          "internalType": "uint256",
          "name": "",
          "type": "uint256"
        }
      ],
      "stateMutability": "view",
      "type": "function",
      "constant": true
    },
    {
      "inputs": [
        {
          "internalType": "uint256",
          "name": "",
          "type": "uint256"
        }
      ],
      "name": "studentSelfs",
      "outputs": [
        {
          "internalType": "uint256",
          "name": "stuId",
          "type": "uint256"
        },
        {
          "internalType": "string",
          "name": "stuName",
          "type": "string"
        },
        {
          "internalType": "address",
          "name": "stuBlockAddress",
          "type": "address"
        },
        {
          "internalType": "uint256",
          "name": "stuAuthorization",
          "type": "uint256"
        },
        {
          "internalType": "uint256",
          "name": "isLearningSum",
          "type": "uint256"
        }
      ],
      "stateMutability": "view",
      "type": "function",
      "constant": true
    },
    {
      "inputs": [
        {
          "internalType": "uint256",
          "name": "_courseId",
          "type": "uint256"
        },
        {
          "internalType": "string",
          "name": "_courseName",
          "type": "string"
        },
        {
          "internalType": "address",
          "name": "_proBlockAddress",
          "type": "address"
        }
      ],
      "name": "createCourse",
      "outputs": [
        {
          "internalType": "bool",
          "name": "",
          "type": "bool"
        }
      ],
      "stateMutability": "nonpayable",
      "type": "function"
    },
    {
      "inputs": [
        {
          "internalType": "uint256",
          "name": "_courseId",
          "type": "uint256"
        },
        {
          "internalType": "address",
          "name": "_proBlockAddress",
          "type": "address"
        },
        {
          "internalType": "address",
          "name": "_stuBlockAddress",
          "type": "address"
        }
      ],
      "name": "applyCourse",
      "outputs": [
        {
          "internalType": "bool",
          "name": "",
          "type": "bool"
        }
      ],
      "stateMutability": "nonpayable",
      "type": "function"
    },
    {
      "inputs": [
        {
          "internalType": "uint256",
          "name": "_courseId",
          "type": "uint256"
        },
        {
          "internalType": "address",
          "name": "_proBlockAddress",
          "type": "address"
        },
        {
          "internalType": "address",
          "name": "_stuBlockAddress",
          "type": "address"
        },
        {
          "internalType": "uint256",
          "name": "_stuGrade",
          "type": "uint256"
        }
      ],
      "name": "createCourseGrade",
      "outputs": [
        {
          "internalType": "bool",
          "name": "",
          "type": "bool"
        }
      ],
      "stateMutability": "nonpayable",
      "type": "function"
    }
  ],
  "bytecode": "0x6080604052600060015560006003556000600555600060075560016009556001600a556064600b556103e8600c553480156200003a57600080fd5b50336000806101000a81548173ffffffffffffffffffffffffffffffffffffffff021916908373ffffffffffffffffffffffffffffffffffffffff1602179055506040518060800160405280600181526020016040518060400160405280600481526020017f526f6f7400000000000000000000000000000000000000000000000000000000815250815260200160008054906101000a900473ffffffffffffffffffffffffffffffffffffffff1673ffffffffffffffffffffffffffffffffffffffff1681526020016003815250600260006001815260200190815260200160002060008201518160000155602082015181600101908051906020019062000145929190620001ba565b5060408201518160020160006101000a81548173ffffffffffffffffffffffffffffffffffffffff021916908373ffffffffffffffffffffffffffffffffffffffff1602179055506060820151816003015590505060016000815480929190620001af90620002aa565b919050555062000356565b828054620001c89062000274565b90600052602060002090601f016020900481019282620001ec576000855562000238565b82601f106200020757805160ff191683800117855562000238565b8280016001018555821562000238579182015b82811115620002375782518255916020019190600101906200021a565b5b5090506200024791906200024b565b5090565b5b80821115620002665760008160009055506001016200024c565b5090565b6000819050919050565b600060028204905060018216806200028d57607f821691505b60208210811415620002a457620002a362000327565b5b50919050565b6000620002b7826200026a565b91507fffffffffffffffffffffffffffffffffffffffffffffffffffffffffffffffff821415620002ed57620002ec620002f8565b5b600182019050919050565b7f4e487b7100000000000000000000000000000000000000000000000000000000600052601160045260246000fd5b7f4e487b7100000000000000000000000000000000000000000000000000000000600052602260045260246000fd5b61555080620003666000396000f3fe608060405234801561001057600080fd5b50600436106102105760003560e01c80637860a06911610125578063a5cc464d116100ad578063dff3b4971161007c578063dff3b49714610777578063e074bb47146107a7578063f6aa09e4146107d7578063fb3189e8146107f5578063fc0c1f391461081357610210565b8063a5cc464d146106b7578063ad9e42d9146106e7578063c5ad81de14610717578063ced3ae611461074757610210565b806390eab7a2116100f457806390eab7a2146105e857806394e48ece14610618578063982203be1461064b57806398aede551461067b5780639fde09431461069957610210565b80637860a0691461053a57806378a1fdbf146105585780638c8ef7331461058857806390141940146105b857610210565b80632454a939116101a85780634d64e5ee116101775780634d64e5ee1461043f5780634d953abb1461047357806358a42065146104a35780635e719a49146104d8578063606870da1461050857610210565b80632454a9391461037c5780632b81bd8d146103ac57806330e94711146103dc5780634d4fb0d71461040f57610210565b80630d9382fc116101e45780630d9382fc146102dd5780630e3bfd6c146102fb57806310d756dd146103195780631643c8db1461034957610210565b80624255a614610215578063043022fa1461024957806309f006f51461027d5780630c1596b4146102ad575b600080fd5b61022f600480360381019061022a91906144c4565b610831565b604051610240959493929190614dea565b60405180910390f35b610263600480360381019061025e91906144c4565b61090f565b604051610274959493929190614cce565b60405180910390f35b61029760048036038101906102929190614531565b6109fa565b6040516102a49190614a7c565b60405180910390f35b6102c760048036038101906102c29190614428565b610d7f565b6040516102d49190614a0e565b60405180910390f35b6102e5610e64565b6040516102f29190614c59565b60405180910390f35b610303610e6a565b6040516103109190614c59565b60405180910390f35b610333600480360381019061032e9190614428565b610e70565b6040516103409190614c59565b60405180910390f35b610363600480360381019061035e91906144c4565b610f12565b6040516103739493929190614d28565b60405180910390f35b61039660048036038101906103919190614428565b610fea565b6040516103a39190614c59565b60405180910390f35b6103c660048036038101906103c191906144c4565b61108c565b6040516103d39190614a97565b60405180910390f35b6103f660048036038101906103f191906144c4565b6111b5565b6040516104069493929190614d28565b60405180910390f35b61042960048036038101906104249190614428565b6112f5565b6040516104369190614c59565b60405180910390f35b610459600480360381019061045491906144c4565b611325565b60405161046a959493929190614dea565b60405180910390f35b61048d60048036038101906104889190614428565b611403565b60405161049a9190614a97565b60405180910390f35b6104bd60048036038101906104b89190614428565b611578565b6040516104cf96959493929190614d74565b60405180910390f35b6104f260048036038101906104ed91906144c4565b6117a3565b6040516104ff9190614c59565b60405180910390f35b610522600480360381019061051d91906144c4565b61180b565b60405161053193929190614a30565b60405180910390f35b610542611aa6565b60405161054f9190614c59565b60405180910390f35b610572600480360381019061056d9190614584565b611aac565b60405161057f9190614a7c565b60405180910390f35b6105a2600480360381019061059d91906145eb565b611dbf565b6040516105af9190614a7c565b60405180910390f35b6105d260048036038101906105cd9190614455565b612099565b6040516105df9190614a7c565b60405180910390f35b61060260048036038101906105fd9190614428565b61257b565b60405161060f9190614c59565b60405180910390f35b610632600480360381019061062d919061465a565b61278d565b6040516106429493929190614c74565b60405180910390f35b610665600480360381019061066091906144c4565b612ccc565b60405161067291906149d1565b60405180910390f35b610683612d58565b60405161069091906149d1565b60405180910390f35b6106a1612d7c565b6040516106ae91906149ec565b60405180910390f35b6106d160048036038101906106cc9190614428565b612e88565b6040516106de9190614c59565b60405180910390f35b61070160048036038101906106fc91906144c4565b612f2a565b60405161070e9190614c59565b60405180910390f35b610731600480360381019061072c91906144c4565b612f8b565b60405161073e9190614a97565b60405180910390f35b610761600480360381019061075c91906144f1565b613041565b60405161076e9190614c59565b60405180910390f35b610791600480360381019061078c9190614428565b613145565b60405161079e9190614c59565b60405180910390f35b6107c160048036038101906107bc9190614428565b613357565b6040516107ce9190614a7c565b60405180910390f35b6107df613ca6565b6040516107ec9190614a0e565b60405180910390f35b6107fd613d64565b60405161080a9190614c59565b60405180910390f35b61081b613d6a565b6040516108289190614c59565b60405180910390f35b600660205280600052604060002060009150905080600001549080600101805461085a90615066565b80601f016020809104026020016040519081016040528092919081815260200182805461088690615066565b80156108d35780601f106108a8576101008083540402835291602001916108d3565b820191906000526020600020905b8154815290600101906020018083116108b657829003601f168201915b5050505050908060020160009054906101000a900473ffffffffffffffffffffffffffffffffffffffff16908060030154908060050154905085565b600860205280600052604060002060009150905080600001549080600101805461093890615066565b80601f016020809104026020016040519081016040528092919081815260200182805461096490615066565b80156109b15780601f10610986576101008083540402835291602001916109b1565b820191906000526020600020905b81548152906001019060200180831161099457829003601f168201915b5050505050908060020160009054906101000a900473ffffffffffffffffffffffffffffffffffffffff16908060020160149054906101000a900460ff16908060030154905085565b6000806000905060005b6003548111610a8f576004600082815260200190815260200160002060020160009054906101000a900473ffffffffffffffffffffffffffffffffffffffff1673ffffffffffffffffffffffffffffffffffffffff163373ffffffffffffffffffffffffffffffffffffffff161415610a7c57600191505b8080610a87906150c9565b915050610a04565b5080610ad0576040517f08c379a0000000000000000000000000000000000000000000000000000000008152600401610ac790614c19565b60405180910390fd5b6000610adb86613d70565b90506001151581151514610b24576040517f08c379a0000000000000000000000000000000000000000000000000000000008152600401610b1b90614b59565b60405180910390fd5b6000610b2f85610fea565b90506000600660008381526020019081526020016000206000015490506000805b6006600085815260200190815260200160002060040180549050811015610bc35789600660008681526020019081526020016000206004018281548110610b9a57610b99615170565b5b90600052602060002001541415610bb057600191505b8080610bbb906150c9565b915050610b50565b506000151581151514610c0b576040517f08c379a0000000000000000000000000000000000000000000000000000000008152600401610c0290614bd9565b60405180910390fd5b600660008481526020019081526020016000206004018990806001815401808255809150506001900390600052602060002001600090919091909150556000610c538a612f2a565b9050610c5e8a613df8565b6000610c698b6117a3565b90508860086000848152602001908152602001600020600401600083815260200190815260200160002060000160006101000a81548173ffffffffffffffffffffffffffffffffffffffff021916908373ffffffffffffffffffffffffffffffffffffffff16021790555083600860008481526020019081526020016000206004016000838152602001908152602001600020600101819055506000610d0e8b612e88565b90506001600460008381526020019081526020016000206005016000828254610d379190614f28565b925050819055506001600660008881526020019081526020016000206005016000828254610d659190614f28565b925050819055506001985050505050505050509392505050565b60606000610d8c83612e88565b90506000610d99846112f5565b905060008167ffffffffffffffff811115610db757610db661519f565b5b604051908082528060200260200182016040528015610de55781602001602082028036833780820191505090505b50905060005b82811015610e5857600460008581526020019081526020016000206004018181548110610e1b57610e1a615170565b5b9060005260206000200154828281518110610e3957610e38615170565b5b6020026020010181815250508080610e50906150c9565b915050610deb565b50809350505050919050565b60095481565b60075481565b600080600190505b6001548111610f07578273ffffffffffffffffffffffffffffffffffffffff166002600083815260200190815260200160002060020160009054906101000a900473ffffffffffffffffffffffffffffffffffffffff1673ffffffffffffffffffffffffffffffffffffffff161415610ef45780915050610f0d565b8080610eff906150c9565b915050610e78565b50600090505b919050565b6002602052806000526040600020600091509050806000015490806001018054610f3b90615066565b80601f0160208091040260200160405190810160405280929190818152602001828054610f6790615066565b8015610fb45780601f10610f8957610100808354040283529160200191610fb4565b820191906000526020600020905b815481529060010190602001808311610f9757829003601f168201915b5050505050908060020160009054906101000a900473ffffffffffffffffffffffffffffffffffffffff16908060030154905084565b600080600190505b6005548111611081578273ffffffffffffffffffffffffffffffffffffffff166006600083815260200190815260200160002060020160009054906101000a900473ffffffffffffffffffffffffffffffffffffffff1673ffffffffffffffffffffffffffffffffffffffff16141561106e5780915050611087565b8080611079906150c9565b915050610ff2565b50600090505b919050565b60606000600190505b6005548111611176578260066000838152602001908152602001600020600001541415611163576006600082815260200190815260200160002060010180546110dd90615066565b80601f016020809104026020016040519081016040528092919081815260200182805461110990615066565b80156111565780601f1061112b57610100808354040283529160200191611156565b820191906000526020600020905b81548152906001019060200180831161113957829003601f168201915b50505050509150506111b0565b808061116e906150c9565b915050611095565b506040518060400160405280600481526020017f6e756c6c0000000000000000000000000000000000000000000000000000000081525090505b919050565b6000606060008060006111c786612f2a565b9050600060086000838152602001908152602001600020600001549050600060086000848152602001908152602001600020600101805461120790615066565b80601f016020809104026020016040519081016040528092919081815260200182805461123390615066565b80156112805780601f1061125557610100808354040283529160200191611280565b820191906000526020600020905b81548152906001019060200180831161126357829003601f168201915b5050505050905060006008600085815260200190815260200160002060020160009054906101000a900473ffffffffffffffffffffffffffffffffffffffff16905060006008600086815260200190815260200160002060030154905083838383985098509850985050505050509193509193565b60008061130183612e88565b90506004600082815260200190815260200160002060040180549050915050919050565b600460205280600052604060002060009150905080600001549080600101805461134e90615066565b80601f016020809104026020016040519081016040528092919081815260200182805461137a90615066565b80156113c75780601f1061139c576101008083540402835291602001916113c7565b820191906000526020600020905b8154815290600101906020018083116113aa57829003601f168201915b5050505050908060020160009054906101000a900473ffffffffffffffffffffffffffffffffffffffff16908060030154908060050154905085565b60606000600190505b6003548111611539578273ffffffffffffffffffffffffffffffffffffffff166004600083815260200190815260200160002060020160009054906101000a900473ffffffffffffffffffffffffffffffffffffffff1673ffffffffffffffffffffffffffffffffffffffff161415611526576004600082815260200190815260200160002060010180546114a090615066565b80601f01602080910402602001604051908101604052809291908181526020018280546114cc90615066565b80156115195780601f106114ee57610100808354040283529160200191611519565b820191906000526020600020905b8154815290600101906020018083116114fc57829003601f168201915b5050505050915050611573565b8080611531906150c9565b91505061140c565b506040518060400160405280600481526020017f6e756c6c0000000000000000000000000000000000000000000000000000000081525090505b919050565b60006060600080606080600061158d88610fea565b905060006006600083815260200190815260200160002060000154905060006006600084815260200190815260200160002060010180546115cd90615066565b80601f01602080910402602001604051908101604052809291908181526020018280546115f990615066565b80156116465780601f1061161b57610100808354040283529160200191611646565b820191906000526020600020905b81548152906001019060200180831161162957829003601f168201915b505050505090506000600660008581526020019081526020016000206003015490506000600660008681526020019081526020016000206004018054806020026020016040519081016040528092919081815260200182805480156116ca57602002820191906000526020600020905b8154815260200190600101908083116116b6575b505050505090506000815167ffffffffffffffff8111156116ee576116ed61519f565b5b60405190808252806020026020018201604052801561171c5781602001602082028036833780820191505090505b50905060005b82518110156117815761174f83828151811061174157611740615170565b5b60200260200101518f613041565b82828151811061176257611761615170565b5b6020026020010181815250508080611779906150c9565b915050611722565b5084848e8585859b509b509b509b509b509b5050505050505091939550919395565b600080600190505b60075481116118045782600860008381526020019081526020016000206000015414156117f1576008600082815260200190815260200160002060030154915050611806565b80806117fc906150c9565b9150506117ab565b505b919050565b6060806060600061181b85612f2a565b905060006008600083815260200190815260200160002060030154905060008167ffffffffffffffff8111156118545761185361519f565b5b6040519080825280602002602001820160405280156118825781602001602082028036833780820191505090505b50905060008267ffffffffffffffff8111156118a1576118a061519f565b5b6040519080825280602002602001820160405280156118cf5781602001602082028036833780820191505090505b50905060008367ffffffffffffffff8111156118ee576118ed61519f565b5b60405190808252806020026020018201604052801561191c5781602001602082028036833780820191505090505b5090506000600190505b848111611a905760086000878152602001908152602001600020600401600082815260200190815260200160002060000160009054906101000a900473ffffffffffffffffffffffffffffffffffffffff16846001836119869190614f7e565b8151811061199757611996615170565b5b602002602001019073ffffffffffffffffffffffffffffffffffffffff16908173ffffffffffffffffffffffffffffffffffffffff16815250506008600087815260200190815260200160002060040160008281526020019081526020016000206001015483600183611a0a9190614f7e565b81518110611a1b57611a1a615170565b5b6020026020010181815250506008600087815260200190815260200160002060040160008281526020019081526020016000206002015482600183611a609190614f7e565b81518110611a7157611a70615170565b5b6020026020010181815250508080611a88906150c9565b915050611926565b5081838297509750975050505050509193909250565b60035481565b6000806000905060005b6003548111611b41576004600082815260200190815260200160002060020160009054906101000a900473ffffffffffffffffffffffffffffffffffffffff1673ffffffffffffffffffffffffffffffffffffffff163373ffffffffffffffffffffffffffffffffffffffff161415611b2e57600191505b8080611b39906150c9565b915050611ab6565b5080611b82576040517f08c379a0000000000000000000000000000000000000000000000000000000008152600401611b7990614c19565b60405180910390fd5b6000611b8e8786613e6a565b90506001151581151514611bd7576040517f08c379a0000000000000000000000000000000000000000000000000000000008152600401611bce90614b19565b60405180910390fd5b6000611be288612f2a565b90506000611bef896117a3565b905060006008600084815260200190815260200160002060020160146101000a81548160ff0219169083151502179055506000600190505b818111611dad578773ffffffffffffffffffffffffffffffffffffffff1660086000858152602001908152602001600020600401600083815260200190815260200160002060000160009054906101000a900473ffffffffffffffffffffffffffffffffffffffff1673ffffffffffffffffffffffffffffffffffffffff161415611d9a5786600860008581526020019081526020016000206004016000838152602001908152602001600020600201819055506000611ce68a612e88565b90506000611cf38a610fea565b90506000600460008481526020019081526020016000206005015414611d4057600460008381526020019081526020016000206005016000815480929190611d3a9061503c565b91905055505b6000600660008381526020019081526020016000206005015414611d8b57600660008281526020019081526020016000206005016000815480929190611d859061503c565b91905055505b60019750505050505050611db6565b8080611da5906150c9565b915050611c27565b50600094505050505b50949350505050565b6000806000905060005b6003548111611e54576004600082815260200190815260200160002060020160009054906101000a900473ffffffffffffffffffffffffffffffffffffffff1673ffffffffffffffffffffffffffffffffffffffff163373ffffffffffffffffffffffffffffffffffffffff161415611e4157600191505b8080611e4c906150c9565b915050611dc9565b5080611e95576040517f08c379a0000000000000000000000000000000000000000000000000000000008152600401611e8c90614c19565b60405180910390fd5b3373ffffffffffffffffffffffffffffffffffffffff168373ffffffffffffffffffffffffffffffffffffffff1614611f03576040517f08c379a0000000000000000000000000000000000000000000000000000000008152600401611efa90614ad9565b60405180910390fd5b6000611f0e86613f81565b90506000151581151514611f57576040517f08c379a0000000000000000000000000000000000000000000000000000000008152600401611f4e90614bb9565b60405180910390fd5b60076000815480929190611f6a906150c9565b91905055508560086000600754815260200190815260200160002060000181905550846008600060075481526020019081526020016000206001019080519060200190611fb89291906141ab565b508360086000600754815260200190815260200160002060020160006101000a81548173ffffffffffffffffffffffffffffffffffffffff021916908373ffffffffffffffffffffffffffffffffffffffff160217905550600160086000600754815260200190815260200160002060020160146101000a81548160ff021916908315150217905550600061204c85612e88565b905060046000828152602001908152602001600020600401879080600181540180825580915050600190039060005260206000200160009091909190915055600193505050509392505050565b6000806000905060005b600154811161212e576002600082815260200190815260200160002060020160009054906101000a900473ffffffffffffffffffffffffffffffffffffffff1673ffffffffffffffffffffffffffffffffffffffff163373ffffffffffffffffffffffffffffffffffffffff16141561211b57600191505b8080612126906150c9565b9150506120a3565b508061216f576040517f08c379a000000000000000000000000000000000000000000000000000000000815260040161216690614b39565b60405180910390fd5b600183148061217e5750600283145b806121895750600383145b6121c8576040517f08c379a00000000000000000000000000000000000000000000000000000000081526004016121bf90614b99565b60405180910390fd5b600015156121d586613fd8565b151514612217576040517f08c379a000000000000000000000000000000000000000000000000000000000815260040161220e90614ab9565b60405180910390fd5b6009600081548092919061222a906150c9565b9190505550600183141561234c576005600081548092919061224b906150c9565b9190505550600c6000815480929190612263906150c9565b9190505550600c54600660006005548152602001908152602001600020600001819055508360066000600554815260200190815260200160002060010190805190602001906122b39291906141ab565b508460066000600554815260200190815260200160002060020160006101000a81548173ffffffffffffffffffffffffffffffffffffffff021916908373ffffffffffffffffffffffffffffffffffffffff16021790555060016006600060055481526020019081526020016000206003018190555060006006600060055481526020019081526020016000206005018190555061256f565b60028314156124695760036000815480929190612368906150c9565b9190505550600b6000815480929190612380906150c9565b9190505550600b54600460006003548152602001908152602001600020600001819055508360046000600354815260200190815260200160002060010190805190602001906123d09291906141ab565b508460046000600354815260200190815260200160002060020160006101000a81548173ffffffffffffffffffffffffffffffffffffffff021916908373ffffffffffffffffffffffffffffffffffffffff16021790555060026004600060035481526020019081526020016000206003018190555060006004600060035481526020019081526020016000206005018190555061256e565b600383141561256d5760016000815480929190612485906150c9565b9190505550600a600081548092919061249d906150c9565b91905055506040518060800160405280600a5481526020018581526020018673ffffffffffffffffffffffffffffffffffffffff16815260200160038152506002600060015481526020019081526020016000206000820151816000015560208201518160010190805190602001906125179291906141ab565b5060408201518160020160006101000a81548173ffffffffffffffffffffffffffffffffffffffff021916908373ffffffffffffffffffffffffffffffffffffffff160217905550606082015181600301559050505b5b5b60019150509392505050565b600080600190505b6001548111612628578273ffffffffffffffffffffffffffffffffffffffff166002600083815260200190815260200160002060020160009054906101000a900473ffffffffffffffffffffffffffffffffffffffff1673ffffffffffffffffffffffffffffffffffffffff161415612615576002600082815260200190815260200160002060030154915050612788565b8080612620906150c9565b915050612583565b506000600190505b60035481116126d5578273ffffffffffffffffffffffffffffffffffffffff166004600083815260200190815260200160002060020160009054906101000a900473ffffffffffffffffffffffffffffffffffffffff1673ffffffffffffffffffffffffffffffffffffffff1614156126c2576004600082815260200190815260200160002060030154915050612788565b80806126cd906150c9565b915050612630565b506000600190505b6005548111612782578273ffffffffffffffffffffffffffffffffffffffff166006600083815260200190815260200160002060020160009054906101000a900473ffffffffffffffffffffffffffffffffffffffff1673ffffffffffffffffffffffffffffffffffffffff16141561276f576006600082815260200190815260200160002060030154915050612788565b808061277a906150c9565b9150506126dd565b50600090505b919050565b6000606080606060008590506000806127a589612f2a565b9050600060086000838152602001908152602001600020600301549050838110156127ce578093505b60008167ffffffffffffffff8111156127ea576127e961519f565b5b6040519080825280602002602001820160405280156128185781602001602082028036833780820191505090505b5090506000600190505b8281116128d45760006008600086815260200190815260200160002060040160008381526020019081526020016000206002015411156128c15760086000858152602001908152602001600020600401600082815260200190815260200160002060020154826001836128959190614f7e565b815181106128a6576128a5615170565b5b60200260200101818152505084806128bd906150c9565b9550505b80806128cc906150c9565b915050612822565b50848410156128e1578394505b60005b81518110156129ff576000600190505b82518110156129eb578260018261290b9190614f7e565b8151811061291c5761291b615170565b5b602002602001015183828151811061293757612936615170565b5b602002602001015111156129d8576000836001836129559190614f7e565b8151811061296657612965615170565b5b6020026020010151905083828151811061298357612982615170565b5b6020026020010151846001846129999190614f7e565b815181106129aa576129a9615170565b5b602002602001018181525050808483815181106129ca576129c9615170565b5b602002602001018181525050505b80806129e3906150c9565b9150506128f4565b5080806129f7906150c9565b9150506128e4565b5060008567ffffffffffffffff811115612a1c57612a1b61519f565b5b604051908082528060200260200182016040528015612a4a5781602001602082028036833780820191505090505b50905060008667ffffffffffffffff811115612a6957612a6861519f565b5b604051908082528060200260200182016040528015612a975781602001602082028036833780820191505090505b50905060008767ffffffffffffffff811115612ab657612ab561519f565b5b604051908082528060200260200182016040528015612ae45781602001602082028036833780820191505090505b5090506000805b8551811015612cad5789821415612b0157612cad565b858181518110612b1457612b13615170565b5b6020026020010151838281518110612b2f57612b2e615170565b5b6020026020010181815250506000600190505b878111612c8b57600860008a8152602001908152602001600020600401600082815260200190815260200160002060020154848381518110612b8757612b86615170565b5b60200260200101511415612c7857600860008a8152602001908152602001600020600401600082815260200190815260200160002060010154858381518110612bd357612bd2615170565b5b602002602001018181525050600860008a8152602001908152602001600020600401600082815260200190815260200160002060000160009054906101000a900473ffffffffffffffffffffffffffffffffffffffff16868381518110612c3d57612c3c615170565b5b602002602001019073ffffffffffffffffffffffffffffffffffffffff16908173ffffffffffffffffffffffffffffffffffffffff16815250505b8080612c83906150c9565b915050612b42565b508180612c97906150c9565b9250508080612ca5906150c9565b915050612aeb565b50888385849c509c509c509c5050505050505050505092959194509250565b600080600190505b6005548111612d4d578260066000838152602001908152602001600020600001541415612d3a576006600082815260200190815260200160002060020160009054906101000a900473ffffffffffffffffffffffffffffffffffffffff16915050612d53565b8080612d45906150c9565b915050612cd4565b50600090505b919050565b60008054906101000a900473ffffffffffffffffffffffffffffffffffffffff1681565b6060600060055467ffffffffffffffff811115612d9c57612d9b61519f565b5b604051908082528060200260200182016040528015612dca5781602001602082028036833780820191505090505b5090506000600190505b6005548111612e80576006600082815260200190815260200160002060020160009054906101000a900473ffffffffffffffffffffffffffffffffffffffff1682600183612e229190614f7e565b81518110612e3357612e32615170565b5b602002602001019073ffffffffffffffffffffffffffffffffffffffff16908173ffffffffffffffffffffffffffffffffffffffff16815250508080612e78906150c9565b915050612dd4565b508091505090565b600080600190505b6003548111612f1f578273ffffffffffffffffffffffffffffffffffffffff166004600083815260200190815260200160002060020160009054906101000a900473ffffffffffffffffffffffffffffffffffffffff1673ffffffffffffffffffffffffffffffffffffffff161415612f0c5780915050612f25565b8080612f17906150c9565b915050612e90565b50600090505b919050565b600080600090506000600190505b6007548111612f7f578360086000838152602001908152602001600020600001541415612f6c578091508192505050612f86565b8080612f77906150c9565b915050612f38565b5060009150505b919050565b60606000612f9883612f2a565b9050600860008281526020019081526020016000206001018054612fbb90615066565b80601f0160208091040260200160405190810160405280929190818152602001828054612fe790615066565b80156130345780601f1061300957610100808354040283529160200191613034565b820191906000526020600020905b81548152906001019060200180831161301757829003601f168201915b5050505050915050919050565b60008061304d84612f2a565b90506000600190505b60086000838152602001908152602001600020600301548111613138578373ffffffffffffffffffffffffffffffffffffffff1660086000848152602001908152602001600020600401600083815260200190815260200160002060000160009054906101000a900473ffffffffffffffffffffffffffffffffffffffff1673ffffffffffffffffffffffffffffffffffffffff16141561312557600860008381526020019081526020016000206004016000828152602001908152602001600020600201549250505061313f565b8080613130906150c9565b915050613056565b5060009150505b92915050565b600080600190505b60015481116131f2578273ffffffffffffffffffffffffffffffffffffffff166002600083815260200190815260200160002060020160009054906101000a900473ffffffffffffffffffffffffffffffffffffffff1673ffffffffffffffffffffffffffffffffffffffff1614156131df576002600082815260200190815260200160002060000154915050613352565b80806131ea906150c9565b91505061314d565b506000600190505b600354811161329f578273ffffffffffffffffffffffffffffffffffffffff166004600083815260200190815260200160002060020160009054906101000a900473ffffffffffffffffffffffffffffffffffffffff1673ffffffffffffffffffffffffffffffffffffffff16141561328c576004600082815260200190815260200160002060000154915050613352565b8080613297906150c9565b9150506131fa565b506000600190505b600554811161334c578273ffffffffffffffffffffffffffffffffffffffff166006600083815260200190815260200160002060020160009054906101000a900473ffffffffffffffffffffffffffffffffffffffff1673ffffffffffffffffffffffffffffffffffffffff161415613339576006600082815260200190815260200160002060000154915050613352565b8080613344906150c9565b9150506132a7565b50600090505b919050565b6000806000905060005b60015481116133ec576002600082815260200190815260200160002060020160009054906101000a900473ffffffffffffffffffffffffffffffffffffffff1673ffffffffffffffffffffffffffffffffffffffff163373ffffffffffffffffffffffffffffffffffffffff1614156133d957600191505b80806133e4906150c9565b915050613361565b508061342d576040517f08c379a000000000000000000000000000000000000000000000000000000000815260040161342490614b39565b60405180910390fd5b6001151561343a84613fd8565b15151461347c576040517f08c379a000000000000000000000000000000000000000000000000000000000815260040161347390614b79565b60405180910390fd5b60006134878461257b565b905060008114156134cd576040517f08c379a00000000000000000000000000000000000000000000000000000000081526004016134c490614c39565b60405180910390fd5b600181141561379d5760006134e185610fea565b9050600060066000838152602001908152602001600020600501541461353c576040517f08c379a000000000000000000000000000000000000000000000000000000000815260040161353390614bf9565b60405180910390fd5b60008190505b600554811015613707576006600060018361355d9190614f28565b81526020019081526020016000206000015460066000838152602001908152602001600020600001819055506006600060018361359a9190614f28565b8152602001908152602001600020600101600660008381526020019081526020016000206001019080546135cd90615066565b6135d8929190614231565b50600660006001836135ea9190614f28565b815260200190815260200160002060020160009054906101000a900473ffffffffffffffffffffffffffffffffffffffff166006600083815260200190815260200160002060020160006101000a81548173ffffffffffffffffffffffffffffffffffffffff021916908373ffffffffffffffffffffffffffffffffffffffff160217905550600660006001836136819190614f28565b8152602001908152602001600020600301546006600083815260200190815260200160002060030181905550600660006001836136be9190614f28565b8152602001908152602001600020600401600660008381526020019081526020016000206004019080546136f39291906142be565b5080806136ff906150c9565b915050613542565b506006600060055481526020019081526020016000206000808201600090556001820160006137369190614310565b6002820160006101000a81549073ffffffffffffffffffffffffffffffffffffffff021916905560038201600090556004820160006137759190614350565b60058201600090555050600560008154809291906137929061503c565b919050555050613c83565b6002811415613a6d5760006137b185612e88565b9050600060046000838152602001908152602001600020600501541461380c576040517f08c379a000000000000000000000000000000000000000000000000000000000815260040161380390614af9565b60405180910390fd5b60008190505b6003548110156139d7576004600060018361382d9190614f28565b81526020019081526020016000206000015460046000838152602001908152602001600020600001819055506004600060018361386a9190614f28565b81526020019081526020016000206001016004600083815260200190815260200160002060010190805461389d90615066565b6138a8929190614231565b50600460006001836138ba9190614f28565b815260200190815260200160002060020160009054906101000a900473ffffffffffffffffffffffffffffffffffffffff166004600083815260200190815260200160002060020160006101000a81548173ffffffffffffffffffffffffffffffffffffffff021916908373ffffffffffffffffffffffffffffffffffffffff160217905550600460006001836139519190614f28565b81526020019081526020016000206003015460046000838152602001908152602001600020600301819055506004600060018361398e9190614f28565b8152602001908152602001600020600401600460008381526020019081526020016000206004019080546139c39291906142be565b5080806139cf906150c9565b915050613812565b50600460006003548152602001908152602001600020600080820160009055600182016000613a069190614310565b6002820160006101000a81549073ffffffffffffffffffffffffffffffffffffffff02191690556003820160009055600482016000613a459190614350565b6005820160009055505060036000815480929190613a629061503c565b919050555050613c82565b6003811415613c81576000613a8185610e70565b905060008190505b600154811015613c075760026000600183613aa49190614f28565b815260200190815260200160002060000154600260008381526020019081526020016000206000018190555060026000600183613ae19190614f28565b815260200190815260200160002060010160026000838152602001908152602001600020600101908054613b1490615066565b613b1f929190614231565b5060026000600183613b319190614f28565b815260200190815260200160002060020160009054906101000a900473ffffffffffffffffffffffffffffffffffffffff166002600083815260200190815260200160002060020160006101000a81548173ffffffffffffffffffffffffffffffffffffffff021916908373ffffffffffffffffffffffffffffffffffffffff16021790555060026000600183613bc89190614f28565b81526020019081526020016000206003015460026000838152602001908152602001600020600301819055508080613bff906150c9565b915050613a89565b50600260006001548152602001908152602001600020600080820160009055600182016000613c369190614310565b6002820160006101000a81549073ffffffffffffffffffffffffffffffffffffffff02191690556003820160009055505060016000815480929190613c7a9061503c565b9190505550505b5b5b60096000815480929190613c969061503c565b9190505550600192505050919050565b6060600060075467ffffffffffffffff811115613cc657613cc561519f565b5b604051908082528060200260200182016040528015613cf45781602001602082028036833780820191505090505b5090506000600190505b6007548111613d5c57600860008281526020019081526020016000206000015482600183613d2c9190614f7e565b81518110613d3d57613d3c615170565b5b6020026020010181815250508080613d54906150c9565b915050613cfe565b508091505090565b60055481565b60015481565b600080600190505b6007548111613ded578260086000838152602001908152602001600020600001541415613dda57600115156008600083815260200190815260200160002060020160149054906101000a900460ff1615151415613dd9576001915050613df3565b5b8080613de5906150c9565b915050613d78565b50600090505b919050565b6000600190505b6007548111613e66578160086000838152602001908152602001600020600001541415613e5357600860008281526020019081526020016000206003016000815480929190613e4d906150c9565b91905055505b8080613e5e906150c9565b915050613dff565b5050565b600080600190505b6005548111613f75578273ffffffffffffffffffffffffffffffffffffffff166006600083815260200190815260200160002060020160009054906101000a900473ffffffffffffffffffffffffffffffffffffffff1673ffffffffffffffffffffffffffffffffffffffff161415613f625760005b60066000838152602001908152602001600020600401805490508111613f605784600660008481526020019081526020016000206004018281548110613f3157613f30615170565b5b90600052602060002001541415613f4d57600192505050613f7b565b8080613f58906150c9565b915050613ee8565b505b8080613f6d906150c9565b915050613e72565b50600090505b92915050565b600080600190505b6007548111613fcd578260086000838152602001908152602001600020600001541415613fba576001915050613fd3565b8080613fc5906150c9565b915050613f89565b50600090505b919050565b600080600190505b6001548111614070578273ffffffffffffffffffffffffffffffffffffffff166002600083815260200190815260200160002060020160009054906101000a900473ffffffffffffffffffffffffffffffffffffffff1673ffffffffffffffffffffffffffffffffffffffff16141561405d5760019150506141a6565b8080614068906150c9565b915050613fe0565b506000600190505b6003548111614108578273ffffffffffffffffffffffffffffffffffffffff166004600083815260200190815260200160002060020160009054906101000a900473ffffffffffffffffffffffffffffffffffffffff1673ffffffffffffffffffffffffffffffffffffffff1614156140f55760019150506141a6565b8080614100906150c9565b915050614078565b506000600190505b60055481116141a0578273ffffffffffffffffffffffffffffffffffffffff166006600083815260200190815260200160002060020160009054906101000a900473ffffffffffffffffffffffffffffffffffffffff1673ffffffffffffffffffffffffffffffffffffffff16141561418d5760019150506141a6565b8080614198906150c9565b915050614110565b50600090505b919050565b8280546141b790615066565b90600052602060002090601f0160209004810192826141d95760008555614220565b82601f106141f257805160ff1916838001178555614220565b82800160010185558215614220579182015b8281111561421f578251825591602001919060010190614204565b5b50905061422d9190614371565b5090565b82805461423d90615066565b90600052602060002090601f01602090048101928261425f57600085556142ad565b82601f1061427057805485556142ad565b828001600101855582156142ad57600052602060002091601f016020900482015b828111156142ac578254825591600101919060010190614291565b5b5090506142ba9190614371565b5090565b8280548282559060005260206000209081019282156142ff5760005260206000209182015b828111156142fe5782548255916001019190600101906142e3565b5b50905061430c9190614371565b5090565b50805461431c90615066565b6000825580601f1061432e575061434d565b601f01602090049060005260206000209081019061434c9190614371565b5b50565b508054600082559060005260206000209081019061436e9190614371565b50565b5b8082111561438a576000816000905550600101614372565b5090565b60006143a161439c84614e69565b614e44565b9050828152602081018484840111156143bd576143bc6151d3565b5b6143c8848285614ffa565b509392505050565b6000813590506143df816154ec565b92915050565b600082601f8301126143fa576143f96151ce565b5b813561440a84826020860161438e565b91505092915050565b60008135905061442281615503565b92915050565b60006020828403121561443e5761443d6151dd565b5b600061444c848285016143d0565b91505092915050565b60008060006060848603121561446e5761446d6151dd565b5b600061447c868287016143d0565b935050602084013567ffffffffffffffff81111561449d5761449c6151d8565b5b6144a9868287016143e5565b92505060406144ba86828701614413565b9150509250925092565b6000602082840312156144da576144d96151dd565b5b60006144e884828501614413565b91505092915050565b60008060408385031215614508576145076151dd565b5b600061451685828601614413565b9250506020614527858286016143d0565b9150509250929050565b60008060006060848603121561454a576145496151dd565b5b600061455886828701614413565b9350506020614569868287016143d0565b925050604061457a868287016143d0565b9150509250925092565b6000806000806080858703121561459e5761459d6151dd565b5b60006145ac87828801614413565b94505060206145bd878288016143d0565b93505060406145ce878288016143d0565b92505060606145df87828801614413565b91505092959194509250565b600080600060608486031215614604576146036151dd565b5b600061461286828701614413565b935050602084013567ffffffffffffffff811115614633576146326151d8565b5b61463f868287016143e5565b9250506040614650868287016143d0565b9150509250925092565b60008060408385031215614671576146706151dd565b5b600061467f85828601614413565b925050602061469085828601614413565b9150509250929050565b60006146a683836146ca565b60208301905092915050565b60006146be83836149b3565b60208301905092915050565b6146d381614fb2565b82525050565b6146e281614fb2565b82525050565b60006146f382614eba565b6146fd8185614ef5565b935061470883614e9a565b8060005b83811015614739578151614720888261469a565b975061472b83614edb565b92505060018101905061470c565b5085935050505092915050565b600061475182614ec5565b61475b8185614f06565b935061476683614eaa565b8060005b8381101561479757815161477e88826146b2565b975061478983614ee8565b92505060018101905061476a565b5085935050505092915050565b6147ad81614fc4565b82525050565b60006147be82614ed0565b6147c88185614f17565b93506147d8818560208601615009565b6147e1816151e2565b840191505092915050565b60006147f9602d83614f17565b9150614804826151f3565b604082019050919050565b600061481c603683614f17565b915061482782615242565b604082019050919050565b600061483f603883614f17565b915061484a82615291565b604082019050919050565b6000614862602683614f17565b915061486d826152e0565b604082019050919050565b6000614885601583614f17565b91506148908261532f565b602082019050919050565b60006148a8601583614f17565b91506148b382615358565b602082019050919050565b60006148cb601883614f17565b91506148d682615381565b602082019050919050565b60006148ee600c83614f17565b91506148f9826153aa565b602082019050919050565b6000614911601f83614f17565b915061491c826153d3565b602082019050919050565b6000614934601583614f17565b915061493f826153fc565b602082019050919050565b6000614957603683614f17565b915061496282615425565b604082019050919050565b600061497a601383614f17565b915061498582615474565b602082019050919050565b600061499d603283614f17565b91506149a88261549d565b604082019050919050565b6149bc81614ff0565b82525050565b6149cb81614ff0565b82525050565b60006020820190506149e660008301846146d9565b92915050565b60006020820190508181036000830152614a0681846146e8565b905092915050565b60006020820190508181036000830152614a288184614746565b905092915050565b60006060820190508181036000830152614a4a8186614746565b90508181036020830152614a5e81856146e8565b90508181036040830152614a728184614746565b9050949350505050565b6000602082019050614a9160008301846147a4565b92915050565b60006020820190508181036000830152614ab181846147b3565b905092915050565b60006020820190508181036000830152614ad2816147ec565b9050919050565b60006020820190508181036000830152614af28161480f565b9050919050565b60006020820190508181036000830152614b1281614832565b9050919050565b60006020820190508181036000830152614b3281614855565b9050919050565b60006020820190508181036000830152614b5281614878565b9050919050565b60006020820190508181036000830152614b728161489b565b9050919050565b60006020820190508181036000830152614b92816148be565b9050919050565b60006020820190508181036000830152614bb2816148e1565b9050919050565b60006020820190508181036000830152614bd281614904565b9050919050565b60006020820190508181036000830152614bf281614927565b9050919050565b60006020820190508181036000830152614c128161494a565b9050919050565b60006020820190508181036000830152614c328161496d565b9050919050565b60006020820190508181036000830152614c5281614990565b9050919050565b6000602082019050614c6e60008301846149c2565b92915050565b6000608082019050614c8960008301876149c2565b8181036020830152614c9b8186614746565b90508181036040830152614caf81856146e8565b90508181036060830152614cc38184614746565b905095945050505050565b600060a082019050614ce360008301886149c2565b8181036020830152614cf581876147b3565b9050614d0460408301866146d9565b614d1160608301856147a4565b614d1e60808301846149c2565b9695505050505050565b6000608082019050614d3d60008301876149c2565b8181036020830152614d4f81866147b3565b9050614d5e60408301856146d9565b614d6b60608301846149c2565b95945050505050565b600060c082019050614d8960008301896149c2565b8181036020830152614d9b81886147b3565b9050614daa60408301876146d9565b614db760608301866149c2565b8181036080830152614dc98185614746565b905081810360a0830152614ddd8184614746565b9050979650505050505050565b600060a082019050614dff60008301886149c2565b8181036020830152614e1181876147b3565b9050614e2060408301866146d9565b614e2d60608301856149c2565b614e3a60808301846149c2565b9695505050505050565b6000614e4e614e5f565b9050614e5a8282615098565b919050565b6000604051905090565b600067ffffffffffffffff821115614e8457614e8361519f565b5b614e8d826151e2565b9050602081019050919050565b6000819050602082019050919050565b6000819050602082019050919050565b600081519050919050565b600081519050919050565b600081519050919050565b6000602082019050919050565b6000602082019050919050565b600082825260208201905092915050565b600082825260208201905092915050565b600082825260208201905092915050565b6000614f3382614ff0565b9150614f3e83614ff0565b9250827fffffffffffffffffffffffffffffffffffffffffffffffffffffffffffffffff03821115614f7357614f72615112565b5b828201905092915050565b6000614f8982614ff0565b9150614f9483614ff0565b925082821015614fa757614fa6615112565b5b828203905092915050565b6000614fbd82614fd0565b9050919050565b60008115159050919050565b600073ffffffffffffffffffffffffffffffffffffffff82169050919050565b6000819050919050565b82818337600083830152505050565b60005b8381101561502757808201518184015260208101905061500c565b83811115615036576000848401525b50505050565b600061504782614ff0565b9150600082141561505b5761505a615112565b5b600182039050919050565b6000600282049050600182168061507e57607f821691505b6020821081141561509257615091615141565b5b50919050565b6150a1826151e2565b810181811067ffffffffffffffff821117156150c0576150bf61519f565b5b80604052505050565b60006150d482614ff0565b91507fffffffffffffffffffffffffffffffffffffffffffffffffffffffffffffffff82141561510757615106615112565b5b600182019050919050565b7f4e487b7100000000000000000000000000000000000000000000000000000000600052601160045260246000fd5b7f4e487b7100000000000000000000000000000000000000000000000000000000600052602260045260246000fd5b7f4e487b7100000000000000000000000000000000000000000000000000000000600052603260045260246000fd5b7f4e487b7100000000000000000000000000000000000000000000000000000000600052604160045260246000fd5b600080fd5b600080fd5b600080fd5b600080fd5b6000601f19601f8301169050919050565b7f5468697320616464726573732068617320616c7265616479206265656e20736560008201527f74207065726d697373696f6e7300000000000000000000000000000000000000602082015250565b7f3e3e3e5468652070726f426c6f636b41646472657373206e6f206d617463682060008201527f7468652063757272656e74206164647265737321212100000000000000000000602082015250565b7f3e3e3e546869732070726f666573736f72206973207465616368696e672c206360008201527f616e742072656d6f7665207065726d697373696f6e2121210000000000000000602082015250565b7f3e3e3e73747564656e7420646f6573206e6f74206f776e207468697320636f7560008201527f7273652121210000000000000000000000000000000000000000000000000000602082015250565b7f3e3e3e3e3e3e697341646d696e203d2066616c73650000000000000000000000600082015250565b7f3e3e3e63616e4170706c795f203d3d2066616c73650000000000000000000000600082015250565b7f3e3e3e546869732061646472657373206e6f2065786973740000000000000000600082015250565b7f756e617574686f72697a65640000000000000000000000000000000000000000600082015250565b7f3e3e3e5f636f75727365496420616c7265616479206578697374656421212100600082015250565b7f3e3e3e3e3e3e7265706561746564203d20747275650000000000000000000000600082015250565b7f3e3e3e546869732073747564656e74206973206c6561726e696e672c2063616e60008201527f742072656d6f7665207065726d697373696f6e21212100000000000000000000602082015250565b7f697350726f666573736f72203d2066616c736500000000000000000000000000600082015250565b7f3e3e3e5468697320626c6f636b4164647265737320776173206f726967696e6160008201527f6c6c79206e6f7420617574686f72697a65640000000000000000000000000000602082015250565b6154f581614fb2565b811461550057600080fd5b50565b61550c81614ff0565b811461551757600080fd5b5056fea2646970667358221220d64f5298d2a222d0fef84fd708d93fc827a12a56972921e7832555a31e02ed9a64736f6c63430008070033",
  "immutableReferences": {},
  "source": "// SPDX-License-Identifier: MIT\npragma solidity >=0.4.22 <0.9.0;\n\n\n/*\n\n// professor (inherit)StructAndModifiers, Admin\n\n// : onlyProfessor\n// All functions in this contract are marked as: onlyprofessor\n1. createCourse()               //   Create course\n\n2. applyCourse()                //   Join the course\n\n3. createCourseGrade()          //   Create grades\n\n4. getGradeByProAddress()            //      View the grades of all students in the subject\n\n5. getGradeByProProAddrAndStuAddr()    //        View the grade of a student in a subject\n\n\n*/\n\n\nimport \"./Admin.sol\";\ncontract Professor is Admin {\n    //////////////////////////////////////////////////////////////////////////////////////////////////////////////\n    //   Only teachers have permission to create courses\n    function createCourse (uint _courseId, string memory _courseName,address _proBlockAddress) public onlyProfessor returns(bool){    \n        //  Check whether the proid matches the address\n        require(_proBlockAddress == msg.sender,\">>>The proBlockAddress no match the current address!!!\");\n        \n        //  Check whether the created course information already exists\n        bool isExisted = checkCourseExisted(_courseId); \n        require(isExisted == false,\">>>_courseId already existed!!!\");\n        \n        // onlyProfessorproBlockAddress\n        \n        //  Self increasing\n        courseCounts ++;\n        \n        //    Create initialization without students and grades\n        courseInfs[courseCounts].courseId = _courseId;\n        courseInfs[courseCounts].courseName = _courseName;\n        courseInfs[courseCounts].proBlockAddress = _proBlockAddress;\n        courseInfs[courseCounts].canApply = true;\n        \n        // course ID\n        // After successful creation, you need to put this course ID into the corresponding professor's file\n        uint professorIndex = getProfessorIndexByAddress(_proBlockAddress);\n        // ID Put the ID in the corresponding professor's file\n        professorSelfs[professorIndex].myProCourses.push(_courseId);  \n        \n        return true;\n        \n    }\n    \n    \n     //////////////////////////////////////////////////////////////////////////////////////////////////////////////\n    //  Professor Only professors have permission to join the course\n    \n    function applyCourse (uint _courseId,address _proBlockAddress,address _stuBlockAddress) public onlyProfessor returns(bool){\n        \n        // _proBlockAddress Check whether the proid matches the address\n        //require(_proBlockAddress == msg.sender,\">>>The proId no match the current address!!!\");\n        \n        //  Check whether the course information exists\n        //bool isExisted = checkCourseExisted(_courseId); \n        //require(isExisted == true,\">>>_courseId no existed!!!\");\n        \n        //  Check whether this course can be applied\n        bool canApply_ = checkCourseCanApply(_courseId);\n        require(canApply_ == true,\">>>canApply_ == false\");\n        \n        //  Check whether the professor has this course\n        //bool isheldByPro = checkCourseHeldByProBlockAddress(_courseId,_proBlockAddress);\n        //require(isheldByPro == true,\">>>professor does not own this course!!!\");\n              \n        // id Check whether the student ID is a student\n        //bool isStudent = checkIsStudent(_stuBlockAddress);\n        //require(isStudent == true,\">>>stuID is not a student!!!\");\n        \n        // student address\n        // After successful creation, you need to put this student ID into the corresponding student's file\n        uint studentIndex = getStudentIndexByAddress(_stuBlockAddress);\n        // \n        uint _stuId = studentSelfs[studentIndex].stuId;\n        //string memory _stuName = studentSelfs[studentIndex].stuName;\n\n        // ID Put the ID in the corresponding student's file\n        // course ID.  At this time, check whether there is a duplicate course ID\n        bool repeated = false;\n        for(uint i=0;i<studentSelfs[studentIndex].myStuCourses.length;i++){\n            if(studentSelfs[studentIndex].myStuCourses[i]==_courseId){\n                repeated = true;\n            }\n        }\n        require(repeated == false,\">>>>>>repeated = true\");\n        \n        // ,  No duplication, can apply\n        // id\n        studentSelfs[studentIndex].myStuCourses.push(_courseId);\n\n        //  ,\n        // First find the course and put the students' information into the corresponding course\n        uint indexOfCourseID = getIndexByCourseId(_courseId);\n\n        // \n        //string memory courseName_ = courseInfs[indexOfCourseID].courseName;\n        //studentSelfs[studentIndex].myStuCourseNames.push(courseName_);\n\n        // ,  \n        // +1\n        // +1, courseStudentCounts_  \n        \n        //Find the length of the array of students stored in this course, that is, the number of students who have taken this course\n        //New students will be assigned to the position of number + 1\n        //First assign the number of people + 1, and then assign it to coursestudentcounts_\n        \n        setcourseStudentCounts(_courseId);\n        uint courseStudentCounts_ = getcourseStudentCounts(_courseId);    \n        courseInfs[indexOfCourseID].courseStudents[courseStudentCounts_].stuBlockAddress = _stuBlockAddress;\n        courseInfs[indexOfCourseID].courseStudents[courseStudentCounts_].stuId = _stuId;\n        //courseInfs[indexOfCourseID].courseStudents[courseStudentCounts_].stuName = _stuName;\n\n        // ,+1   // Whenever a student applies, + 1\n        // isTeachingPeopleSum++\n        uint professorIndex = getProfessorIndexByAddress(_proBlockAddress);\n        professorSelfs[professorIndex].isTeachingPeopleSum += 1;\n        \n        //    // Set students in class\n        // isLearningSum++\n        studentSelfs[studentIndex].isLearningSum += 1;\n        \n        return true;\n        \n    }\n    \n    \n    // (onlyprofessor)  ==> course\n    // Create grade (onlyprofessor) = = > save to course class\n    //////////////////////////////////////////////////////////////////////////////////////////////////////////////\n    //     Only teachers have permission to create grades\n    //  _courseId ,  _proBlockAddress , _stuBlockAddress, _stuGrade\n    function createCourseGrade (uint _courseId,address _proBlockAddress,address _stuBlockAddress,uint _stuGrade) public onlyProfessor returns(bool){\n        \n        // _proBlockAddress Check whether the proid matches the address\n        //require(_proBlockAddress == msg.sender,\">>>The proId no match the current address!!!\");\n        \n        //  Check whether the course information exists\n        //bool isExisted = checkCourseExisted(_courseId); \n        //require(isExisted == true,\">>>_courseId no existed!!!\");\n        \n        // pro  First check whether the professor is proid's own course\n        //bool isheldByPro = checkCourseHeldByProBlockAddress(_courseId,_proBlockAddress);\n        //require(isheldByPro == true,\">>>professor does not own this course!!!\");\n        \n        // checkstu Check is stuid's own course\n        bool isheldByStu = checkCourseHeldByStuBlockAddress(_courseId,_stuBlockAddress);\n        require(isheldByStu == true,\">>>student does not own this course!!!\");\n        \n        //  Find the course first\n        uint indexOfCourseID = getIndexByCourseId(_courseId);\n        // ,  \n        // Find the length of the array of students stored in this course, that is, the number of students taking this course\n        uint courseStudentCounts_ = getcourseStudentCounts(_courseId);\n        \n        // \n        // Students can not apply for this course after they get their grades\n        courseInfs[indexOfCourseID].canApply = false;\n\n        //  \n        // Find the corresponding students' grades under the corresponding courses\n        for(uint j=1;j<=courseStudentCounts_;j++){\n            if(courseInfs[indexOfCourseID].courseStudents[j].stuBlockAddress==_stuBlockAddress){\n                //      Information matching, giving results\n                courseInfs[indexOfCourseID].courseStudents[j].stuGrade = _stuGrade;\n                \n                //   Update the status number of teachers and students\n                uint professorIndex = getProfessorIndexByAddress(_proBlockAddress);\n                uint studentIndex = getStudentIndexByAddress(_stuBlockAddress);\n                \n                if(professorSelfs[professorIndex].isTeachingPeopleSum != 0){\n                    // isTeaching--\n                    professorSelfs[professorIndex].isTeachingPeopleSum--;\n                }\n                if(studentSelfs[studentIndex].isLearningSum != 0){\n                    // isLearning--\n                    studentSelfs[studentIndex].isLearningSum--;\n                }\n                \n                \n                // \n                //studentSelfs[studentIndex].myStuCoursesGrades.push(_stuGrade);\n\n                return true;    //  Update complete\n            }\n        }\n        // \n        return false;  //  \n        \n    }\n    \n/*\n    //   View the scores of all students in a subject\n    // If it is a professor, it can view the scores of students in his course\n    function getGradeByProAddress(uint _courseId, address _proBlockAddress) public view onlyProfessor returns(address[] memory, uint[] memory){\n        \n        // proBlockAddress Check whether the proid matches the address\n        require(_proBlockAddress == msg.sender,\">>>The proId no match the current address!!!\");\n        \n        //  Check whether the course information exists\n        bool isExisted = checkCourseExisted(_courseId); \n        require(isExisted == true,\">>>_courseId no existed!!!\");\n        \n        \n        // checkproId Check is proid's own course\n        bool isheldByPro = checkCourseHeldByProBlockAddress(_courseId,_proBlockAddress);\n        require(isheldByPro == true,\">>>professor does not own this course!!!\");\n        \n        ///\n        //  The results of all students under the course will be listed\n        \n        //  Find the course first\n        uint indexOfCourseID = getIndexByCourseId(_courseId);\n        \n        // ,  \n        // Find the length of the array of students stored in this course, that is, the number of students taking this course\n        uint courseStudentCounts_ = getcourseStudentCounts(_courseId);\n              \n        address[] memory myStudentAddress = new address[](courseStudentCounts_);\n        uint[] memory myStudentsGrade  = new uint[](courseStudentCounts_);\n              \n        for(uint j=1;j<=courseStudentCounts_;j++){\n            myStudentAddress[j-1] = courseInfs[indexOfCourseID].courseStudents[j].stuBlockAddress;\n            myStudentsGrade[j-1] = courseInfs[indexOfCourseID].courseStudents[j].stuGrade;\n        }    \n        return (myStudentAddress,myStudentsGrade) ;  //  complete\n          \n    }\n\n    \n*/   \n\n\n/*\n    //  View the results of a student in a subject\n    function getGradeByProAddrAndStuAddr(uint _courseId,address _proBlockAddress,address _stuBlockAddress) public view onlyProfessor returns(uint){\n        \n        // _proBlockAddress Check whether the proid matches the address\n        require(_proBlockAddress == msg.sender,\">>>The proId no match the current address!!!\");\n        \n        //  Check whether the course information exists\n        bool isExisted = checkCourseExisted(_courseId); \n        require(isExisted == true,\">>>_courseId no existed!!!\");\n        \n        // checkpro Check whether it is a course of proid\n        bool isheldByPro = checkCourseHeldByProBlockAddress(_courseId,_proBlockAddress);\n        require(isheldByPro == true,\">>>professor does not own this course!!!\");\n        \n        // checkstuId Check whether it is the course of stuid\n        bool isheldByStu = checkCourseHeldByStuBlockAddress(_courseId,_stuBlockAddress);\n        require(isheldByStu == true,\">>>student does not own this course!!!\");\n        \n        ///\n        //  Will list their achievements \n        //   Find the course first\n        uint indexOfCourseID = getIndexByCourseId(_courseId);\n        \n        // ,  \n        // Find the length of the array of students stored in this course, that is, the number of students taking this course\n        uint courseStudentCounts_ = getcourseStudentCounts(_courseId);\n            \n        uint myCourseGrade;\n        //   Find the corresponding student under the corresponding course\n        for(uint j=1;j<=courseStudentCounts_;j++){\n            if(courseInfs[indexOfCourseID].courseStudents[j].stuBlockAddress==_stuBlockAddress){\n                //   get Information matching, get score\n                myCourseGrade = courseInfs[indexOfCourseID].courseStudents[j].stuGrade;\n                return myCourseGrade;    //  complete\n            }\n        }\n        //  Otherwise, it will fail\n        return 0;  //  complete\n        \n    }\n*/\n    \n\n                    \n\n    \n}\n\n\n\n\n",
  "sourcePath": "/Users/sophotky/Computer-Science/blockchain/capstone/scouter2/contracts/Professor.sol",
  "compiler": {
    "name": "solc",
    "version": "0.8.7+commit.e28d00a7.Emscripten.clang"
  },
  "schemaVersion": "3.4.3",
  "updatedAt": "2021-12-05T05:13:26.247Z",
  "networkType": "ethereum",
  "devdoc": {
    "kind": "dev",
    "methods": {},
    "version": 1
  },
  "userdoc": {
    "kind": "user",
    "methods": {},
    "version": 1
  }
}