{
  "contractName": "Professor",
  "abi": [
    {
      "inputs": [],
      "name": "adminCounts",
      "outputs": [
        {
          "internalType": "uint256",
          "name": "",
          "type": "uint256"
        }
      ],
      "stateMutability": "view",
      "type": "function",
      "constant": true
    },
    {
      "inputs": [
        {
          "internalType": "uint256",
          "name": "",
          "type": "uint256"
        }
      ],
      "name": "adminSelfs",
      "outputs": [
        {
          "internalType": "uint256",
          "name": "adminId",
          "type": "uint256"
        },
        {
          "internalType": "string",
          "name": "adminName",
          "type": "string"
        },
        {
          "internalType": "address",
          "name": "adminBlockAddress",
          "type": "address"
        },
        {
          "internalType": "uint256",
          "name": "adminAuthorization",
          "type": "uint256"
        }
      ],
      "stateMutability": "view",
      "type": "function",
      "constant": true
    },
    {
      "inputs": [],
      "name": "courseCounts",
      "outputs": [
        {
          "internalType": "uint256",
          "name": "",
          "type": "uint256"
        }
      ],
      "stateMutability": "view",
      "type": "function",
      "constant": true
    },
    {
      "inputs": [
        {
          "internalType": "uint256",
          "name": "",
          "type": "uint256"
        }
      ],
      "name": "courseInfs",
      "outputs": [
        {
          "internalType": "uint256",
          "name": "courseId",
          "type": "uint256"
        },
        {
          "internalType": "string",
          "name": "courseName",
          "type": "string"
        },
        {
          "internalType": "address",
          "name": "proBlockAddress",
          "type": "address"
        },
        {
          "internalType": "bool",
          "name": "canApply",
          "type": "bool"
        },
        {
          "internalType": "uint256",
          "name": "courseStudentCounts",
          "type": "uint256"
        }
      ],
      "stateMutability": "view",
      "type": "function",
      "constant": true
    },
    {
      "inputs": [
        {
          "internalType": "address",
          "name": "_adminBlockAddress",
          "type": "address"
        }
      ],
      "name": "getAdminIndexByAddress",
      "outputs": [
        {
          "internalType": "uint256",
          "name": "",
          "type": "uint256"
        }
      ],
      "stateMutability": "view",
      "type": "function",
      "constant": true
    },
    {
      "inputs": [],
      "name": "getAllCourseId",
      "outputs": [
        {
          "internalType": "uint256[]",
          "name": "",
          "type": "uint256[]"
        }
      ],
      "stateMutability": "view",
      "type": "function",
      "constant": true
    },
    {
      "inputs": [],
      "name": "getAllStudentAddress",
      "outputs": [
        {
          "internalType": "address[]",
          "name": "",
          "type": "address[]"
        }
      ],
      "stateMutability": "view",
      "type": "function",
      "constant": true
    },
    {
      "inputs": [
        {
          "internalType": "address",
          "name": "_address",
          "type": "address"
        }
      ],
      "name": "getAuthorizationByAddress",
      "outputs": [
        {
          "internalType": "uint256",
          "name": "",
          "type": "uint256"
        }
      ],
      "stateMutability": "view",
      "type": "function",
      "constant": true
    },
    {
      "inputs": [
        {
          "internalType": "address",
          "name": "_proBlockAddress",
          "type": "address"
        }
      ],
      "name": "getCourseCountsByProAddress",
      "outputs": [
        {
          "internalType": "uint256",
          "name": "",
          "type": "uint256"
        }
      ],
      "stateMutability": "view",
      "type": "function",
      "constant": true
    },
    {
      "inputs": [
        {
          "internalType": "address",
          "name": "_proBlockAddress",
          "type": "address"
        }
      ],
      "name": "getCourseIdByProAddress",
      "outputs": [
        {
          "internalType": "uint256[]",
          "name": "",
          "type": "uint256[]"
        }
      ],
      "stateMutability": "view",
      "type": "function",
      "constant": true
    },
    {
      "inputs": [
        {
          "internalType": "uint256",
          "name": "_courseid",
          "type": "uint256"
        }
      ],
      "name": "getCourseInfByCourseId",
      "outputs": [
        {
          "internalType": "uint256",
          "name": "",
          "type": "uint256"
        },
        {
          "internalType": "string",
          "name": "",
          "type": "string"
        },
        {
          "internalType": "address",
          "name": "",
          "type": "address"
        },
        {
          "internalType": "uint256",
          "name": "",
          "type": "uint256"
        }
      ],
      "stateMutability": "view",
      "type": "function",
      "constant": true
    },
    {
      "inputs": [
        {
          "internalType": "uint256",
          "name": "_courseid",
          "type": "uint256"
        }
      ],
      "name": "getCourseStudentInfByCourseId",
      "outputs": [
        {
          "internalType": "uint256[]",
          "name": "",
          "type": "uint256[]"
        },
        {
          "internalType": "string[]",
          "name": "",
          "type": "string[]"
        },
        {
          "internalType": "address[]",
          "name": "",
          "type": "address[]"
        },
        {
          "internalType": "uint256[]",
          "name": "",
          "type": "uint256[]"
        }
      ],
      "stateMutability": "view",
      "type": "function",
      "constant": true
    },
    {
      "inputs": [
        {
          "internalType": "uint256",
          "name": "_courseid",
          "type": "uint256"
        }
      ],
      "name": "getCourseStudentNameByCourseId",
      "outputs": [
        {
          "internalType": "string[]",
          "name": "",
          "type": "string[]"
        }
      ],
      "stateMutability": "view",
      "type": "function",
      "constant": true
    },
    {
      "inputs": [
        {
          "internalType": "address",
          "name": "_address",
          "type": "address"
        }
      ],
      "name": "getIdByAddress",
      "outputs": [
        {
          "internalType": "uint256",
          "name": "",
          "type": "uint256"
        }
      ],
      "stateMutability": "view",
      "type": "function",
      "constant": true
    },
    {
      "inputs": [
        {
          "internalType": "uint256",
          "name": "_courseId",
          "type": "uint256"
        }
      ],
      "name": "getIndexByCourseId",
      "outputs": [
        {
          "internalType": "uint256",
          "name": "",
          "type": "uint256"
        }
      ],
      "stateMutability": "view",
      "type": "function",
      "constant": true
    },
    {
      "inputs": [
        {
          "internalType": "address",
          "name": "_proBlockAddress",
          "type": "address"
        }
      ],
      "name": "getProfessorIndexByAddress",
      "outputs": [
        {
          "internalType": "uint256",
          "name": "",
          "type": "uint256"
        }
      ],
      "stateMutability": "view",
      "type": "function",
      "constant": true
    },
    {
      "inputs": [
        {
          "internalType": "uint256",
          "name": "_stuId",
          "type": "uint256"
        }
      ],
      "name": "getStuAddressByStuId",
      "outputs": [
        {
          "internalType": "address",
          "name": "",
          "type": "address"
        }
      ],
      "stateMutability": "view",
      "type": "function",
      "constant": true
    },
    {
      "inputs": [
        {
          "internalType": "address",
          "name": "_stuBlockAddress",
          "type": "address"
        }
      ],
      "name": "getStudentIndexByAddress",
      "outputs": [
        {
          "internalType": "uint256",
          "name": "",
          "type": "uint256"
        }
      ],
      "stateMutability": "view",
      "type": "function",
      "constant": true
    },
    {
      "inputs": [
        {
          "internalType": "address",
          "name": "_stuBlockAddress",
          "type": "address"
        }
      ],
      "name": "getStudentInfByStuAddress",
      "outputs": [
        {
          "internalType": "uint256",
          "name": "",
          "type": "uint256"
        },
        {
          "internalType": "string",
          "name": "",
          "type": "string"
        },
        {
          "internalType": "address",
          "name": "",
          "type": "address"
        },
        {
          "internalType": "uint256",
          "name": "",
          "type": "uint256"
        },
        {
          "internalType": "uint256[]",
          "name": "",
          "type": "uint256[]"
        },
        {
          "internalType": "string[]",
          "name": "",
          "type": "string[]"
        },
        {
          "internalType": "uint256[]",
          "name": "",
          "type": "uint256[]"
        }
      ],
      "stateMutability": "view",
      "type": "function",
      "constant": true
    },
    {
      "inputs": [
        {
          "internalType": "uint256",
          "name": "_courseid",
          "type": "uint256"
        },
        {
          "internalType": "uint256",
          "name": "_getTops",
          "type": "uint256"
        }
      ],
      "name": "getTopStudentsByCourseId",
      "outputs": [
        {
          "internalType": "uint256",
          "name": "",
          "type": "uint256"
        },
        {
          "internalType": "uint256[]",
          "name": "",
          "type": "uint256[]"
        },
        {
          "internalType": "string[]",
          "name": "",
          "type": "string[]"
        },
        {
          "internalType": "address[]",
          "name": "",
          "type": "address[]"
        },
        {
          "internalType": "uint256[]",
          "name": "",
          "type": "uint256[]"
        }
      ],
      "stateMutability": "view",
      "type": "function",
      "constant": true
    },
    {
      "inputs": [
        {
          "internalType": "uint256",
          "name": "_courseid",
          "type": "uint256"
        }
      ],
      "name": "getcourseStudentCounts",
      "outputs": [
        {
          "internalType": "uint256",
          "name": "courseStudentCounts_",
          "type": "uint256"
        }
      ],
      "stateMutability": "view",
      "type": "function",
      "constant": true
    },
    {
      "inputs": [],
      "name": "modifiersOwner",
      "outputs": [
        {
          "internalType": "address",
          "name": "",
          "type": "address"
        }
      ],
      "stateMutability": "view",
      "type": "function",
      "constant": true
    },
    {
      "inputs": [],
      "name": "personCounts",
      "outputs": [
        {
          "internalType": "uint256",
          "name": "",
          "type": "uint256"
        }
      ],
      "stateMutability": "view",
      "type": "function",
      "constant": true
    },
    {
      "inputs": [],
      "name": "professorCounts",
      "outputs": [
        {
          "internalType": "uint256",
          "name": "",
          "type": "uint256"
        }
      ],
      "stateMutability": "view",
      "type": "function",
      "constant": true
    },
    {
      "inputs": [
        {
          "internalType": "uint256",
          "name": "",
          "type": "uint256"
        }
      ],
      "name": "professorSelfs",
      "outputs": [
        {
          "internalType": "uint256",
          "name": "proId",
          "type": "uint256"
        },
        {
          "internalType": "string",
          "name": "proName",
          "type": "string"
        },
        {
          "internalType": "address",
          "name": "proBlockAddress",
          "type": "address"
        },
        {
          "internalType": "uint256",
          "name": "proAuthorization",
          "type": "uint256"
        },
        {
          "internalType": "uint256",
          "name": "isTeachingPeopleSum",
          "type": "uint256"
        }
      ],
      "stateMutability": "view",
      "type": "function",
      "constant": true
    },
    {
      "inputs": [
        {
          "internalType": "address",
          "name": "_blockAddress",
          "type": "address"
        }
      ],
      "name": "removePermission",
      "outputs": [
        {
          "internalType": "bool",
          "name": "",
          "type": "bool"
        }
      ],
      "stateMutability": "nonpayable",
      "type": "function"
    },
    {
      "inputs": [
        {
          "internalType": "address",
          "name": "_blockAddress",
          "type": "address"
        },
        {
          "internalType": "string",
          "name": "_name",
          "type": "string"
        },
        {
          "internalType": "uint256",
          "name": "_authorization",
          "type": "uint256"
        }
      ],
      "name": "setPermission",
      "outputs": [
        {
          "internalType": "bool",
          "name": "",
          "type": "bool"
        }
      ],
      "stateMutability": "nonpayable",
      "type": "function"
    },
    {
      "inputs": [],
      "name": "studentCounts",
      "outputs": [
        {
          "internalType": "uint256",
          "name": "",
          "type": "uint256"
        }
      ],
      "stateMutability": "view",
      "type": "function",
      "constant": true
    },
    {
      "inputs": [
        {
          "internalType": "uint256",
          "name": "",
          "type": "uint256"
        }
      ],
      "name": "studentSelfs",
      "outputs": [
        {
          "internalType": "uint256",
          "name": "stuId",
          "type": "uint256"
        },
        {
          "internalType": "string",
          "name": "stuName",
          "type": "string"
        },
        {
          "internalType": "address",
          "name": "stuBlockAddress",
          "type": "address"
        },
        {
          "internalType": "uint256",
          "name": "stuAuthorization",
          "type": "uint256"
        },
        {
          "internalType": "uint256",
          "name": "isLearningSum",
          "type": "uint256"
        }
      ],
      "stateMutability": "view",
      "type": "function",
      "constant": true
    },
    {
      "inputs": [
        {
          "internalType": "uint256",
          "name": "_courseId",
          "type": "uint256"
        },
        {
          "internalType": "string",
          "name": "_courseName",
          "type": "string"
        },
        {
          "internalType": "address",
          "name": "_proBlockAddress",
          "type": "address"
        }
      ],
      "name": "createCourse",
      "outputs": [
        {
          "internalType": "bool",
          "name": "",
          "type": "bool"
        }
      ],
      "stateMutability": "nonpayable",
      "type": "function"
    },
    {
      "inputs": [
        {
          "internalType": "uint256",
          "name": "_courseId",
          "type": "uint256"
        },
        {
          "internalType": "address",
          "name": "_proBlockAddress",
          "type": "address"
        },
        {
          "internalType": "address",
          "name": "_stuBlockAddress",
          "type": "address"
        }
      ],
      "name": "applyCourse",
      "outputs": [
        {
          "internalType": "bool",
          "name": "",
          "type": "bool"
        },
        {
          "internalType": "uint256",
          "name": "",
          "type": "uint256"
        },
        {
          "internalType": "string",
          "name": "",
          "type": "string"
        }
      ],
      "stateMutability": "nonpayable",
      "type": "function"
    },
    {
      "inputs": [
        {
          "internalType": "uint256",
          "name": "_courseId",
          "type": "uint256"
        },
        {
          "internalType": "address",
          "name": "_proBlockAddress",
          "type": "address"
        },
        {
          "internalType": "address",
          "name": "_stuBlockAddress",
          "type": "address"
        },
        {
          "internalType": "uint256",
          "name": "_stuGrade",
          "type": "uint256"
        }
      ],
      "name": "createCourseGrade",
      "outputs": [
        {
          "internalType": "bool",
          "name": "",
          "type": "bool"
        }
      ],
      "stateMutability": "nonpayable",
      "type": "function"
    }
  ],
  "bytecode": "0x6080604052600060015560006003556000600555600060075560016009556001600a556064600b556103e8600c553480156200003a57600080fd5b50336000806101000a81548173ffffffffffffffffffffffffffffffffffffffff021916908373ffffffffffffffffffffffffffffffffffffffff1602179055506040518060800160405280600181526020016040518060400160405280600481526020017f526f6f7400000000000000000000000000000000000000000000000000000000815250815260200160008054906101000a900473ffffffffffffffffffffffffffffffffffffffff1673ffffffffffffffffffffffffffffffffffffffff1681526020016003815250600260006001815260200190815260200160002060008201518160000155602082015181600101908051906020019062000145929190620001ba565b5060408201518160020160006101000a81548173ffffffffffffffffffffffffffffffffffffffff021916908373ffffffffffffffffffffffffffffffffffffffff1602179055506060820151816003015590505060016000815480929190620001af90620002aa565b919050555062000356565b828054620001c89062000274565b90600052602060002090601f016020900481019282620001ec576000855562000238565b82601f106200020757805160ff191683800117855562000238565b8280016001018555821562000238579182015b82811115620002375782518255916020019190600101906200021a565b5b5090506200024791906200024b565b5090565b5b80821115620002665760008160009055506001016200024c565b5090565b6000819050919050565b600060028204905060018216806200028d57607f821691505b60208210811415620002a457620002a362000327565b5b50919050565b6000620002b7826200026a565b91507fffffffffffffffffffffffffffffffffffffffffffffffffffffffffffffffff821415620002ed57620002ec620002f8565b5b600182019050919050565b7f4e487b7100000000000000000000000000000000000000000000000000000000600052601160045260246000fd5b7f4e487b7100000000000000000000000000000000000000000000000000000000600052602260045260246000fd5b6158a080620003666000396000f3fe608060405234801561001057600080fd5b50600436106101ef5760003560e01c80637860a0691161010f5780639fde0943116100a2578063e074bb4711610071578063e074bb47146106fb578063f6aa09e41461072b578063fb3189e814610749578063fc0c1f3914610767576101ef565b80639fde09431461064d578063a5cc464d1461066b578063ad9e42d91461069b578063dff3b497146106cb576101ef565b806390eab7a2116100de57806390eab7a21461059b57806394e48ece146105cb578063982203be146105ff57806398aede551461062f576101ef565b80637860a069146104ed57806378a1fdbf1461050b5780638c8ef7331461053b578063901419401461056b576101ef565b80632454a9391161018757806358a420651161015657806358a42065146104245780635e719a491461045a578063606870da1461048a5780636b8a2c4f146104bd576101ef565b80632454a9391461035d57806330e947111461038d5780634d4fb0d7146103c05780634d64e5ee146103f0576101ef565b80630d9382fc116101c35780630d9382fc146102be5780630e3bfd6c146102dc57806310d756dd146102fa5780631643c8db1461032a576101ef565b80624255a6146101f4578063043022fa1461022857806309f006f51461025c5780630c1596b41461028e575b600080fd5b61020e600480360381019061020991906146cb565b610785565b60405161021f9594939291906150f0565b60405180910390f35b610242600480360381019061023d91906146cb565b610863565b604051610253959493929190614fbf565b60405180910390f35b610276600480360381019061027191906146f8565b61094e565b60405161028593929190614d57565b60405180910390f35b6102a860048036038101906102a3919061462f565b610eb1565b6040516102b59190614cb9565b60405180910390f35b6102c6610f96565b6040516102d39190614f35565b60405180910390f35b6102e4610f9c565b6040516102f19190614f35565b60405180910390f35b610314600480360381019061030f919061462f565b610fa2565b6040516103219190614f35565b60405180910390f35b610344600480360381019061033f91906146cb565b611044565b6040516103549493929190615019565b60405180910390f35b6103776004803603810190610372919061462f565b61111c565b6040516103849190614f35565b60405180910390f35b6103a760048036038101906103a291906146cb565b6111be565b6040516103b79493929190615019565b60405180910390f35b6103da60048036038101906103d5919061462f565b6112fe565b6040516103e79190614f35565b60405180910390f35b61040a600480360381019061040591906146cb565b61132e565b60405161041b9594939291906150f0565b60405180910390f35b61043e6004803603810190610439919061462f565b61140c565b6040516104519796959493929190615065565b60405180910390f35b610474600480360381019061046f91906146cb565b61171d565b6040516104819190614f35565b60405180910390f35b6104a4600480360381019061049f91906146cb565b611785565b6040516104b49493929190614cdb565b60405180910390f35b6104d760048036038101906104d291906146cb565b611b54565b6040516104e49190614c97565b60405180910390f35b6104f5611cda565b6040516105029190614f35565b60405180910390f35b6105256004803603810190610520919061474b565b611ce0565b6040516105329190614d3c565b60405180910390f35b610555600480360381019061055091906147b2565b611ff2565b6040516105629190614d3c565b60405180910390f35b6105856004803603810190610580919061465c565b6122cc565b6040516105929190614d3c565b60405180910390f35b6105b560048036038101906105b0919061462f565b6127ae565b6040516105c29190614f35565b60405180910390f35b6105e560048036038101906105e09190614821565b6129c0565b6040516105f6959493929190614f50565b60405180910390f35b610619600480360381019061061491906146cb565b613028565b6040516106269190614c5a565b60405180910390f35b6106376130b4565b6040516106449190614c5a565b60405180910390f35b6106556130d8565b6040516106629190614c75565b60405180910390f35b6106856004803603810190610680919061462f565b6131e4565b6040516106929190614f35565b60405180910390f35b6106b560048036038101906106b091906146cb565b613286565b6040516106c29190614f35565b60405180910390f35b6106e560048036038101906106e0919061462f565b6132e7565b6040516106f29190614f35565b60405180910390f35b6107156004803603810190610710919061462f565b6134f9565b6040516107229190614d3c565b60405180910390f35b610733613e68565b6040516107409190614cb9565b60405180910390f35b610751613f26565b60405161075e9190614f35565b60405180910390f35b61076f613f2c565b60405161077c9190614f35565b60405180910390f35b60066020528060005260406000206000915090508060000154908060010180546107ae906153b6565b80601f01602080910402602001604051908101604052809291908181526020018280546107da906153b6565b80156108275780601f106107fc57610100808354040283529160200191610827565b820191906000526020600020905b81548152906001019060200180831161080a57829003601f168201915b5050505050908060020160009054906101000a900473ffffffffffffffffffffffffffffffffffffffff16908060030154908060070154905085565b600860205280600052604060002060009150905080600001549080600101805461088c906153b6565b80601f01602080910402602001604051908101604052809291908181526020018280546108b8906153b6565b80156109055780601f106108da57610100808354040283529160200191610905565b820191906000526020600020905b8154815290600101906020018083116108e857829003601f168201915b5050505050908060020160009054906101000a900473ffffffffffffffffffffffffffffffffffffffff16908060020160149054906101000a900460ff16908060030154905085565b60008060606000805b60035481116109e2576004600082815260200190815260200160002060020160009054906101000a900473ffffffffffffffffffffffffffffffffffffffff1673ffffffffffffffffffffffffffffffffffffffff163373ffffffffffffffffffffffffffffffffffffffff1614156109cf57600191505b80806109da90615419565b915050610957565b5080610a23576040517f08c379a0000000000000000000000000000000000000000000000000000000008152600401610a1a90614ef5565b60405180910390fd5b6000610a2e88613f32565b90506001151581151514610a77576040517f08c379a0000000000000000000000000000000000000000000000000000000008152600401610a6e90614e35565b60405180910390fd5b6000610a828761111c565b90506000600660008381526020019081526020016000206000015490506000600660008481526020019081526020016000206001018054610ac2906153b6565b80601f0160208091040260200160405190810160405280929190818152602001828054610aee906153b6565b8015610b3b5780601f10610b1057610100808354040283529160200191610b3b565b820191906000526020600020905b815481529060010190602001808311610b1e57829003601f168201915b505050505090506000805b6006600086815260200190815260200160002060040180549050811015610bb9578c600660008781526020019081526020016000206004018281548110610b9057610b8f6154c0565b5b90600052602060002001541415610ba657600191505b8080610bb190615419565b915050610b46565b506000151581151514610c01576040517f08c379a0000000000000000000000000000000000000000000000000000000008152600401610bf890614eb5565b60405180910390fd5b600660008581526020019081526020016000206004018c90806001815401808255809150506001900390600052602060002001600090919091909150556000610c498d613286565b90506000600860008381526020019081526020016000206001018054610c6e906153b6565b80601f0160208091040260200160405190810160405280929190818152602001828054610c9a906153b6565b8015610ce75780601f10610cbc57610100808354040283529160200191610ce7565b820191906000526020600020905b815481529060010190602001808311610cca57829003601f168201915b505050505090506006600087815260200190815260200160002060050181908060018154018082558091505060019003906000526020600020016000909190919091509080519060200190610d3d92919061436d565b50610d478e613fba565b6000610d528f61171d565b90508c60086000858152602001908152602001600020600401600083815260200190815260200160002060000160006101000a81548173ffffffffffffffffffffffffffffffffffffffff021916908373ffffffffffffffffffffffffffffffffffffffff1602179055508560086000858152602001908152602001600020600401600083815260200190815260200160002060010181905550846008600085815260200190815260200160002060040160008381526020019081526020016000206002019080519060200190610e2a92919061436d565b506000610e368f6131e4565b90506001600460008381526020019081526020016000206005016000828254610e5f9190615278565b925050819055506001600660008a81526020019081526020016000206007016000828254610e8d9190615278565b92505081905550600187879c509c509c505050505050505050505093509350939050565b60606000610ebe836131e4565b90506000610ecb846112fe565b905060008167ffffffffffffffff811115610ee957610ee86154ef565b5b604051908082528060200260200182016040528015610f175781602001602082028036833780820191505090505b50905060005b82811015610f8a57600460008581526020019081526020016000206004018181548110610f4d57610f4c6154c0565b5b9060005260206000200154828281518110610f6b57610f6a6154c0565b5b6020026020010181815250508080610f8290615419565b915050610f1d565b50809350505050919050565b60095481565b60075481565b600080600190505b6001548111611039578273ffffffffffffffffffffffffffffffffffffffff166002600083815260200190815260200160002060020160009054906101000a900473ffffffffffffffffffffffffffffffffffffffff1673ffffffffffffffffffffffffffffffffffffffff161415611026578091505061103f565b808061103190615419565b915050610faa565b50600090505b919050565b600260205280600052604060002060009150905080600001549080600101805461106d906153b6565b80601f0160208091040260200160405190810160405280929190818152602001828054611099906153b6565b80156110e65780601f106110bb576101008083540402835291602001916110e6565b820191906000526020600020905b8154815290600101906020018083116110c957829003601f168201915b5050505050908060020160009054906101000a900473ffffffffffffffffffffffffffffffffffffffff16908060030154905084565b600080600190505b60055481116111b3578273ffffffffffffffffffffffffffffffffffffffff166006600083815260200190815260200160002060020160009054906101000a900473ffffffffffffffffffffffffffffffffffffffff1673ffffffffffffffffffffffffffffffffffffffff1614156111a057809150506111b9565b80806111ab90615419565b915050611124565b50600090505b919050565b6000606060008060006111d086613286565b90506000600860008381526020019081526020016000206000015490506000600860008481526020019081526020016000206001018054611210906153b6565b80601f016020809104026020016040519081016040528092919081815260200182805461123c906153b6565b80156112895780601f1061125e57610100808354040283529160200191611289565b820191906000526020600020905b81548152906001019060200180831161126c57829003601f168201915b5050505050905060006008600085815260200190815260200160002060020160009054906101000a900473ffffffffffffffffffffffffffffffffffffffff16905060006008600086815260200190815260200160002060030154905083838383985098509850985050505050509193509193565b60008061130a836131e4565b90506004600082815260200190815260200160002060040180549050915050919050565b6004602052806000526040600020600091509050806000015490806001018054611357906153b6565b80601f0160208091040260200160405190810160405280929190818152602001828054611383906153b6565b80156113d05780601f106113a5576101008083540402835291602001916113d0565b820191906000526020600020905b8154815290600101906020018083116113b357829003601f168201915b5050505050908060020160009054906101000a900473ffffffffffffffffffffffffffffffffffffffff16908060030154908060050154905085565b60006060600080606080606060006114238961111c565b90506000600660008381526020019081526020016000206000015490506000600660008481526020019081526020016000206001018054611463906153b6565b80601f016020809104026020016040519081016040528092919081815260200182805461148f906153b6565b80156114dc5780601f106114b1576101008083540402835291602001916114dc565b820191906000526020600020905b8154815290600101906020018083116114bf57829003601f168201915b5050505050905060006006600085815260200190815260200160002060020160009054906101000a900473ffffffffffffffffffffffffffffffffffffffff16905060006006600086815260200190815260200160002060030154905060006006600087815260200190815260200160002060040180548060200260200160405190810160405280929190818152602001828054801561159b57602002820191906000526020600020905b815481526020019060010190808311611587575b50505050509050600060066000888152602001908152602001600020600501805480602002602001604051908101604052809291908181526020016000905b828210156116865783829060005260206000200180546115f9906153b6565b80601f0160208091040260200160405190810160405280929190818152602001828054611625906153b6565b80156116725780601f1061164757610100808354040283529160200191611672565b820191906000526020600020905b81548152906001019060200180831161165557829003601f168201915b5050505050815260200190600101906115da565b5050505090506000600660008981526020019081526020016000206006018054806020026020016040519081016040528092919081815260200182805480156116ee57602002820191906000526020600020905b8154815260200190600101908083116116da575b50505050509050868686868686869e509e509e509e509e509e509e505050505050505050919395979092949650565b600080600190505b600754811161177e57826008600083815260200190815260200160002060000154141561176b576008600082815260200190815260200160002060030154915050611780565b808061177690615419565b915050611725565b505b919050565b606080606080600061179686613286565b905060006008600083815260200190815260200160002060030154905060008167ffffffffffffffff8111156117cf576117ce6154ef565b5b6040519080825280602002602001820160405280156117fd5781602001602082028036833780820191505090505b50905060008267ffffffffffffffff81111561181c5761181b6154ef565b5b60405190808252806020026020018201604052801561184a5781602001602082028036833780820191505090505b50905060008367ffffffffffffffff811115611869576118686154ef565b5b60405190808252806020026020018201604052801561189c57816020015b60608152602001906001900390816118875790505b50905060008467ffffffffffffffff8111156118bb576118ba6154ef565b5b6040519080825280602002602001820160405280156118e95781602001602082028036833780820191505090505b5090506000600190505b858111611b3a5760086000888152602001908152602001600020600401600082815260200190815260200160002060000160009054906101000a900473ffffffffffffffffffffffffffffffffffffffff168560018361195391906152ce565b81518110611964576119636154c0565b5b602002602001019073ffffffffffffffffffffffffffffffffffffffff16908173ffffffffffffffffffffffffffffffffffffffff168152505060086000888152602001908152602001600020600401600082815260200190815260200160002060010154846001836119d791906152ce565b815181106119e8576119e76154c0565b5b6020026020010181815250506008600088815260200190815260200160002060040160008281526020019081526020016000206002018054611a29906153b6565b80601f0160208091040260200160405190810160405280929190818152602001828054611a55906153b6565b8015611aa25780601f10611a7757610100808354040283529160200191611aa2565b820191906000526020600020905b815481529060010190602001808311611a8557829003601f168201915b505050505083600183611ab591906152ce565b81518110611ac657611ac56154c0565b5b60200260200101819052506008600088815260200190815260200160002060040160008281526020019081526020016000206003015482600183611b0a91906152ce565b81518110611b1b57611b1a6154c0565b5b6020026020010181815250508080611b3290615419565b9150506118f3565b508282858399509950995099505050505050509193509193565b60606000611b6183613286565b905060006008600083815260200190815260200160002060030154905060008167ffffffffffffffff811115611b9a57611b996154ef565b5b604051908082528060200260200182016040528015611bcd57816020015b6060815260200190600190039081611bb85790505b5090506000600190505b828111611cce576008600085815260200190815260200160002060040160008281526020019081526020016000206002018054611c13906153b6565b80601f0160208091040260200160405190810160405280929190818152602001828054611c3f906153b6565b8015611c8c5780601f10611c6157610100808354040283529160200191611c8c565b820191906000526020600020905b815481529060010190602001808311611c6f57829003601f168201915b505050505082600183611c9f91906152ce565b81518110611cb057611caf6154c0565b5b60200260200101819052508080611cc690615419565b915050611bd7565b50809350505050919050565b60035481565b6000806000905060005b6003548111611d75576004600082815260200190815260200160002060020160009054906101000a900473ffffffffffffffffffffffffffffffffffffffff1673ffffffffffffffffffffffffffffffffffffffff163373ffffffffffffffffffffffffffffffffffffffff161415611d6257600191505b8080611d6d90615419565b915050611cea565b5080611db6576040517f08c379a0000000000000000000000000000000000000000000000000000000008152600401611dad90614ef5565b60405180910390fd5b6000611dc2878661402c565b90506001151581151514611e0b576040517f08c379a0000000000000000000000000000000000000000000000000000000008152600401611e0290614df5565b60405180910390fd5b6000611e1688613286565b90506000611e238961171d565b905060006008600084815260200190815260200160002060020160146101000a81548160ff0219169083151502179055506000600190505b818111611fe0578773ffffffffffffffffffffffffffffffffffffffff1660086000858152602001908152602001600020600401600083815260200190815260200160002060000160009054906101000a900473ffffffffffffffffffffffffffffffffffffffff1673ffffffffffffffffffffffffffffffffffffffff161415611fcd5786600860008581526020019081526020016000206004016000838152602001908152602001600020600301819055506000611f1a8a6131e4565b90506000611f278a61111c565b9050600460008381526020019081526020016000206005016000815480929190611f509061538c565b9190505550600660008281526020019081526020016000206007016000815480929190611f7c9061538c565b91905055506006600082815260200190815260200160002060060189908060018154018082558091505060019003906000526020600020016000909190919091505560019750505050505050611fe9565b8080611fd890615419565b915050611e5b565b50600094505050505b50949350505050565b6000806000905060005b6003548111612087576004600082815260200190815260200160002060020160009054906101000a900473ffffffffffffffffffffffffffffffffffffffff1673ffffffffffffffffffffffffffffffffffffffff163373ffffffffffffffffffffffffffffffffffffffff16141561207457600191505b808061207f90615419565b915050611ffc565b50806120c8576040517f08c379a00000000000000000000000000000000000000000000000000000000081526004016120bf90614ef5565b60405180910390fd5b3373ffffffffffffffffffffffffffffffffffffffff168373ffffffffffffffffffffffffffffffffffffffff1614612136576040517f08c379a000000000000000000000000000000000000000000000000000000000815260040161212d90614db5565b60405180910390fd5b600061214186614143565b9050600015158115151461218a576040517f08c379a000000000000000000000000000000000000000000000000000000000815260040161218190614e95565b60405180910390fd5b6007600081548092919061219d90615419565b919050555085600860006007548152602001908152602001600020600001819055508460086000600754815260200190815260200160002060010190805190602001906121eb92919061436d565b508360086000600754815260200190815260200160002060020160006101000a81548173ffffffffffffffffffffffffffffffffffffffff021916908373ffffffffffffffffffffffffffffffffffffffff160217905550600160086000600754815260200190815260200160002060020160146101000a81548160ff021916908315150217905550600061227f856131e4565b905060046000828152602001908152602001600020600401879080600181540180825580915050600190039060005260206000200160009091909190915055600193505050509392505050565b6000806000905060005b6001548111612361576002600082815260200190815260200160002060020160009054906101000a900473ffffffffffffffffffffffffffffffffffffffff1673ffffffffffffffffffffffffffffffffffffffff163373ffffffffffffffffffffffffffffffffffffffff16141561234e57600191505b808061235990615419565b9150506122d6565b50806123a2576040517f08c379a000000000000000000000000000000000000000000000000000000000815260040161239990614e15565b60405180910390fd5b60018314806123b15750600283145b806123bc5750600383145b6123fb576040517f08c379a00000000000000000000000000000000000000000000000000000000081526004016123f290614e75565b60405180910390fd5b600015156124088661419a565b15151461244a576040517f08c379a000000000000000000000000000000000000000000000000000000000815260040161244190614d95565b60405180910390fd5b6009600081548092919061245d90615419565b9190505550600183141561257f576005600081548092919061247e90615419565b9190505550600c600081548092919061249690615419565b9190505550600c54600660006005548152602001908152602001600020600001819055508360066000600554815260200190815260200160002060010190805190602001906124e692919061436d565b508460066000600554815260200190815260200160002060020160006101000a81548173ffffffffffffffffffffffffffffffffffffffff021916908373ffffffffffffffffffffffffffffffffffffffff1602179055506001600660006005548152602001908152602001600020600301819055506000600660006005548152602001908152602001600020600701819055506127a2565b600283141561269c576003600081548092919061259b90615419565b9190505550600b60008154809291906125b390615419565b9190505550600b546004600060035481526020019081526020016000206000018190555083600460006003548152602001908152602001600020600101908051906020019061260392919061436d565b508460046000600354815260200190815260200160002060020160006101000a81548173ffffffffffffffffffffffffffffffffffffffff021916908373ffffffffffffffffffffffffffffffffffffffff1602179055506002600460006003548152602001908152602001600020600301819055506000600460006003548152602001908152602001600020600501819055506127a1565b60038314156127a057600160008154809291906126b890615419565b9190505550600a60008154809291906126d090615419565b91905055506040518060800160405280600a5481526020018581526020018673ffffffffffffffffffffffffffffffffffffffff168152602001600381525060026000600154815260200190815260200160002060008201518160000155602082015181600101908051906020019061274a92919061436d565b5060408201518160020160006101000a81548173ffffffffffffffffffffffffffffffffffffffff021916908373ffffffffffffffffffffffffffffffffffffffff160217905550606082015181600301559050505b5b5b60019150509392505050565b600080600190505b600154811161285b578273ffffffffffffffffffffffffffffffffffffffff166002600083815260200190815260200160002060020160009054906101000a900473ffffffffffffffffffffffffffffffffffffffff1673ffffffffffffffffffffffffffffffffffffffff1614156128485760026000828152602001908152602001600020600301549150506129bb565b808061285390615419565b9150506127b6565b506000600190505b6003548111612908578273ffffffffffffffffffffffffffffffffffffffff166004600083815260200190815260200160002060020160009054906101000a900473ffffffffffffffffffffffffffffffffffffffff1673ffffffffffffffffffffffffffffffffffffffff1614156128f55760046000828152602001908152602001600020600301549150506129bb565b808061290090615419565b915050612863565b506000600190505b60055481116129b5578273ffffffffffffffffffffffffffffffffffffffff166006600083815260200190815260200160002060020160009054906101000a900473ffffffffffffffffffffffffffffffffffffffff1673ffffffffffffffffffffffffffffffffffffffff1614156129a25760066000828152602001908152602001600020600301549150506129bb565b80806129ad90615419565b915050612910565b50600090505b919050565b600060608060608060008690506000806129d98a613286565b905060006008600083815260200190815260200160002060030154905083811015612a02578093505b60008167ffffffffffffffff811115612a1e57612a1d6154ef565b5b604051908082528060200260200182016040528015612a4c5781602001602082028036833780820191505090505b5090506000600190505b828111612b08576000600860008681526020019081526020016000206004016000838152602001908152602001600020600301541115612af5576008600085815260200190815260200160002060040160008281526020019081526020016000206003015482600183612ac991906152ce565b81518110612ada57612ad96154c0565b5b6020026020010181815250508480612af190615419565b9550505b8080612b0090615419565b915050612a56565b5084841015612b15578394505b60005b8151811015612c33576000600190505b8251811015612c1f5782600182612b3f91906152ce565b81518110612b5057612b4f6154c0565b5b6020026020010151838281518110612b6b57612b6a6154c0565b5b60200260200101511115612c0c57600083600183612b8991906152ce565b81518110612b9a57612b996154c0565b5b60200260200101519050838281518110612bb757612bb66154c0565b5b602002602001015184600184612bcd91906152ce565b81518110612bde57612bdd6154c0565b5b60200260200101818152505080848381518110612bfe57612bfd6154c0565b5b602002602001018181525050505b8080612c1790615419565b915050612b28565b508080612c2b90615419565b915050612b18565b5060008567ffffffffffffffff811115612c5057612c4f6154ef565b5b604051908082528060200260200182016040528015612c7e5781602001602082028036833780820191505090505b50905060008667ffffffffffffffff811115612c9d57612c9c6154ef565b5b604051908082528060200260200182016040528015612ccb5781602001602082028036833780820191505090505b50905060008767ffffffffffffffff811115612cea57612ce96154ef565b5b604051908082528060200260200182016040528015612d1d57816020015b6060815260200190600190039081612d085790505b50905060008867ffffffffffffffff811115612d3c57612d3b6154ef565b5b604051908082528060200260200182016040528015612d6a5781602001602082028036833780820191505090505b5090506000805b8651811015613004578a821415612d8757613004565b868181518110612d9a57612d996154c0565b5b6020026020010151838281518110612db557612db46154c0565b5b6020026020010181815250506000600190505b888111612fe257600860008b8152602001908152602001600020600401600082815260200190815260200160002060030154848381518110612e0d57612e0c6154c0565b5b60200260200101511415612fcf57600860008b8152602001908152602001600020600401600082815260200190815260200160002060010154868381518110612e5957612e586154c0565b5b602002602001018181525050600860008b815260200190815260200160002060040160008281526020019081526020016000206002018054612e9a906153b6565b80601f0160208091040260200160405190810160405280929190818152602001828054612ec6906153b6565b8015612f135780601f10612ee857610100808354040283529160200191612f13565b820191906000526020600020905b815481529060010190602001808311612ef657829003601f168201915b5050505050858381518110612f2b57612f2a6154c0565b5b6020026020010181905250600860008b8152602001908152602001600020600401600082815260200190815260200160002060000160009054906101000a900473ffffffffffffffffffffffffffffffffffffffff16878381518110612f9457612f936154c0565b5b602002602001019073ffffffffffffffffffffffffffffffffffffffff16908173ffffffffffffffffffffffffffffffffffffffff16815250505b8080612fda90615419565b915050612dc8565b508180612fee90615419565b9250508080612ffc90615419565b915050612d71565b5089848487859e509e509e509e509e50505050505050505050509295509295909350565b600080600190505b60055481116130a9578260066000838152602001908152602001600020600001541415613096576006600082815260200190815260200160002060020160009054906101000a900473ffffffffffffffffffffffffffffffffffffffff169150506130af565b80806130a190615419565b915050613030565b50600090505b919050565b60008054906101000a900473ffffffffffffffffffffffffffffffffffffffff1681565b6060600060055467ffffffffffffffff8111156130f8576130f76154ef565b5b6040519080825280602002602001820160405280156131265781602001602082028036833780820191505090505b5090506000600190505b60055481116131dc576006600082815260200190815260200160002060020160009054906101000a900473ffffffffffffffffffffffffffffffffffffffff168260018361317e91906152ce565b8151811061318f5761318e6154c0565b5b602002602001019073ffffffffffffffffffffffffffffffffffffffff16908173ffffffffffffffffffffffffffffffffffffffff168152505080806131d490615419565b915050613130565b508091505090565b600080600190505b600354811161327b578273ffffffffffffffffffffffffffffffffffffffff166004600083815260200190815260200160002060020160009054906101000a900473ffffffffffffffffffffffffffffffffffffffff1673ffffffffffffffffffffffffffffffffffffffff1614156132685780915050613281565b808061327390615419565b9150506131ec565b50600090505b919050565b600080600090506000600190505b60075481116132db5783600860008381526020019081526020016000206000015414156132c85780915081925050506132e2565b80806132d390615419565b915050613294565b5060009150505b919050565b600080600190505b6001548111613394578273ffffffffffffffffffffffffffffffffffffffff166002600083815260200190815260200160002060020160009054906101000a900473ffffffffffffffffffffffffffffffffffffffff1673ffffffffffffffffffffffffffffffffffffffff1614156133815760026000828152602001908152602001600020600001549150506134f4565b808061338c90615419565b9150506132ef565b506000600190505b6003548111613441578273ffffffffffffffffffffffffffffffffffffffff166004600083815260200190815260200160002060020160009054906101000a900473ffffffffffffffffffffffffffffffffffffffff1673ffffffffffffffffffffffffffffffffffffffff16141561342e5760046000828152602001908152602001600020600001549150506134f4565b808061343990615419565b91505061339c565b506000600190505b60055481116134ee578273ffffffffffffffffffffffffffffffffffffffff166006600083815260200190815260200160002060020160009054906101000a900473ffffffffffffffffffffffffffffffffffffffff1673ffffffffffffffffffffffffffffffffffffffff1614156134db5760066000828152602001908152602001600020600001549150506134f4565b80806134e690615419565b915050613449565b50600090505b919050565b6000806000905060005b600154811161358e576002600082815260200190815260200160002060020160009054906101000a900473ffffffffffffffffffffffffffffffffffffffff1673ffffffffffffffffffffffffffffffffffffffff163373ffffffffffffffffffffffffffffffffffffffff16141561357b57600191505b808061358690615419565b915050613503565b50806135cf576040517f08c379a00000000000000000000000000000000000000000000000000000000081526004016135c690614e15565b60405180910390fd5b600115156135dc8461419a565b15151461361e576040517f08c379a000000000000000000000000000000000000000000000000000000000815260040161361590614e55565b60405180910390fd5b6000613629846127ae565b9050600081141561366f576040517f08c379a000000000000000000000000000000000000000000000000000000000815260040161366690614f15565b60405180910390fd5b600181141561395f5760006136838561111c565b905060006006600083815260200190815260200160002060070154146136de576040517f08c379a00000000000000000000000000000000000000000000000000000000081526004016136d590614ed5565b60405180910390fd5b60008190505b6005548110156138a957600660006001836136ff9190615278565b81526020019081526020016000206000015460066000838152602001908152602001600020600001819055506006600060018361373c9190615278565b81526020019081526020016000206001016006600083815260200190815260200160002060010190805461376f906153b6565b61377a9291906143f3565b506006600060018361378c9190615278565b815260200190815260200160002060020160009054906101000a900473ffffffffffffffffffffffffffffffffffffffff166006600083815260200190815260200160002060020160006101000a81548173ffffffffffffffffffffffffffffffffffffffff021916908373ffffffffffffffffffffffffffffffffffffffff160217905550600660006001836138239190615278565b8152602001908152602001600020600301546006600083815260200190815260200160002060030181905550600660006001836138609190615278565b815260200190815260200160002060040160066000838152602001908152602001600020600401908054613895929190614480565b5080806138a190615419565b9150506136e4565b506006600060055481526020019081526020016000206000808201600090556001820160006138d891906144d2565b6002820160006101000a81549073ffffffffffffffffffffffffffffffffffffffff021916905560038201600090556004820160006139179190614512565b6005820160006139279190614533565b6006820160006139379190614512565b60078201600090555050600560008154809291906139549061538c565b919050555050613e45565b6002811415613c2f576000613973856131e4565b905060006004600083815260200190815260200160002060050154146139ce576040517f08c379a00000000000000000000000000000000000000000000000000000000081526004016139c590614dd5565b60405180910390fd5b60008190505b600354811015613b9957600460006001836139ef9190615278565b815260200190815260200160002060000154600460008381526020019081526020016000206000018190555060046000600183613a2c9190615278565b815260200190815260200160002060010160046000838152602001908152602001600020600101908054613a5f906153b6565b613a6a9291906143f3565b5060046000600183613a7c9190615278565b815260200190815260200160002060020160009054906101000a900473ffffffffffffffffffffffffffffffffffffffff166004600083815260200190815260200160002060020160006101000a81548173ffffffffffffffffffffffffffffffffffffffff021916908373ffffffffffffffffffffffffffffffffffffffff16021790555060046000600183613b139190615278565b815260200190815260200160002060030154600460008381526020019081526020016000206003018190555060046000600183613b509190615278565b815260200190815260200160002060040160046000838152602001908152602001600020600401908054613b85929190614480565b508080613b9190615419565b9150506139d4565b50600460006003548152602001908152602001600020600080820160009055600182016000613bc891906144d2565b6002820160006101000a81549073ffffffffffffffffffffffffffffffffffffffff02191690556003820160009055600482016000613c079190614512565b6005820160009055505060036000815480929190613c249061538c565b919050555050613e44565b6003811415613e43576000613c4385610fa2565b905060008190505b600154811015613dc95760026000600183613c669190615278565b815260200190815260200160002060000154600260008381526020019081526020016000206000018190555060026000600183613ca39190615278565b815260200190815260200160002060010160026000838152602001908152602001600020600101908054613cd6906153b6565b613ce19291906143f3565b5060026000600183613cf39190615278565b815260200190815260200160002060020160009054906101000a900473ffffffffffffffffffffffffffffffffffffffff166002600083815260200190815260200160002060020160006101000a81548173ffffffffffffffffffffffffffffffffffffffff021916908373ffffffffffffffffffffffffffffffffffffffff16021790555060026000600183613d8a9190615278565b81526020019081526020016000206003015460026000838152602001908152602001600020600301819055508080613dc190615419565b915050613c4b565b50600260006001548152602001908152602001600020600080820160009055600182016000613df891906144d2565b6002820160006101000a81549073ffffffffffffffffffffffffffffffffffffffff02191690556003820160009055505060016000815480929190613e3c9061538c565b9190505550505b5b5b60096000815480929190613e589061538c565b9190505550600192505050919050565b6060600060075467ffffffffffffffff811115613e8857613e876154ef565b5b604051908082528060200260200182016040528015613eb65781602001602082028036833780820191505090505b5090506000600190505b6007548111613f1e57600860008281526020019081526020016000206000015482600183613eee91906152ce565b81518110613eff57613efe6154c0565b5b6020026020010181815250508080613f1690615419565b915050613ec0565b508091505090565b60055481565b60015481565b600080600190505b6007548111613faf578260086000838152602001908152602001600020600001541415613f9c57600115156008600083815260200190815260200160002060020160149054906101000a900460ff1615151415613f9b576001915050613fb5565b5b8080613fa790615419565b915050613f3a565b50600090505b919050565b6000600190505b60075481116140285781600860008381526020019081526020016000206000015414156140155760086000828152602001908152602001600020600301600081548092919061400f90615419565b91905055505b808061402090615419565b915050613fc1565b5050565b600080600190505b6005548111614137578273ffffffffffffffffffffffffffffffffffffffff166006600083815260200190815260200160002060020160009054906101000a900473ffffffffffffffffffffffffffffffffffffffff1673ffffffffffffffffffffffffffffffffffffffff1614156141245760005b6006600083815260200190815260200160002060040180549050811161412257846006600084815260200190815260200160002060040182815481106140f3576140f26154c0565b5b9060005260206000200154141561410f5760019250505061413d565b808061411a90615419565b9150506140aa565b505b808061412f90615419565b915050614034565b50600090505b92915050565b600080600190505b600754811161418f57826008600083815260200190815260200160002060000154141561417c576001915050614195565b808061418790615419565b91505061414b565b50600090505b919050565b600080600190505b6001548111614232578273ffffffffffffffffffffffffffffffffffffffff166002600083815260200190815260200160002060020160009054906101000a900473ffffffffffffffffffffffffffffffffffffffff1673ffffffffffffffffffffffffffffffffffffffff16141561421f576001915050614368565b808061422a90615419565b9150506141a2565b506000600190505b60035481116142ca578273ffffffffffffffffffffffffffffffffffffffff166004600083815260200190815260200160002060020160009054906101000a900473ffffffffffffffffffffffffffffffffffffffff1673ffffffffffffffffffffffffffffffffffffffff1614156142b7576001915050614368565b80806142c290615419565b91505061423a565b506000600190505b6005548111614362578273ffffffffffffffffffffffffffffffffffffffff166006600083815260200190815260200160002060020160009054906101000a900473ffffffffffffffffffffffffffffffffffffffff1673ffffffffffffffffffffffffffffffffffffffff16141561434f576001915050614368565b808061435a90615419565b9150506142d2565b50600090505b919050565b828054614379906153b6565b90600052602060002090601f01602090048101928261439b57600085556143e2565b82601f106143b457805160ff19168380011785556143e2565b828001600101855582156143e2579182015b828111156143e15782518255916020019190600101906143c6565b5b5090506143ef9190614554565b5090565b8280546143ff906153b6565b90600052602060002090601f016020900481019282614421576000855561446f565b82601f10614432578054855561446f565b8280016001018555821561446f57600052602060002091601f016020900482015b8281111561446e578254825591600101919060010190614453565b5b50905061447c9190614554565b5090565b8280548282559060005260206000209081019282156144c15760005260206000209182015b828111156144c05782548255916001019190600101906144a5565b5b5090506144ce9190614554565b5090565b5080546144de906153b6565b6000825580601f106144f0575061450f565b601f01602090049060005260206000209081019061450e9190614554565b5b50565b50805460008255906000526020600020908101906145309190614554565b50565b50805460008255906000526020600020908101906145519190614571565b50565b5b8082111561456d576000816000905550600101614555565b5090565b5b80821115614591576000818161458891906144d2565b50600101614572565b5090565b60006145a86145a38461516f565b61514a565b9050828152602081018484840111156145c4576145c3615523565b5b6145cf84828561534a565b509392505050565b6000813590506145e68161583c565b92915050565b600082601f8301126146015761460061551e565b5b8135614611848260208601614595565b91505092915050565b60008135905061462981615853565b92915050565b6000602082840312156146455761464461552d565b5b6000614653848285016145d7565b91505092915050565b6000806000606084860312156146755761467461552d565b5b6000614683868287016145d7565b935050602084013567ffffffffffffffff8111156146a4576146a3615528565b5b6146b0868287016145ec565b92505060406146c18682870161461a565b9150509250925092565b6000602082840312156146e1576146e061552d565b5b60006146ef8482850161461a565b91505092915050565b6000806000606084860312156147115761471061552d565b5b600061471f8682870161461a565b9350506020614730868287016145d7565b9250506040614741868287016145d7565b9150509250925092565b600080600080608085870312156147655761476461552d565b5b60006147738782880161461a565b9450506020614784878288016145d7565b9350506040614795878288016145d7565b92505060606147a68782880161461a565b91505092959194509250565b6000806000606084860312156147cb576147ca61552d565b5b60006147d98682870161461a565b935050602084013567ffffffffffffffff8111156147fa576147f9615528565b5b614806868287016145ec565b9250506040614817868287016145d7565b9150509250925092565b600080604083850312156148385761483761552d565b5b60006148468582860161461a565b92505060206148578582860161461a565b9150509250929050565b600061486d83836148a5565b60208301905092915050565b60006148858383614a03565b905092915050565b60006148998383614c3c565b60208301905092915050565b6148ae81615302565b82525050565b6148bd81615302565b82525050565b60006148ce826151d0565b6148d88185615223565b93506148e3836151a0565b8060005b838110156149145781516148fb8882614861565b9750614906836151fc565b9250506001810190506148e7565b5085935050505092915050565b600061492c826151db565b6149368185615234565b935083602082028501614948856151b0565b8060005b8581101561498457848403895281516149658582614879565b945061497083615209565b925060208a0199505060018101905061494c565b50829750879550505050505092915050565b60006149a1826151e6565b6149ab8185615245565b93506149b6836151c0565b8060005b838110156149e75781516149ce888261488d565b97506149d983615216565b9250506001810190506149ba565b5085935050505092915050565b6149fd81615314565b82525050565b6000614a0e826151f1565b614a188185615256565b9350614a28818560208601615359565b614a3181615532565b840191505092915050565b6000614a47826151f1565b614a518185615267565b9350614a61818560208601615359565b614a6a81615532565b840191505092915050565b6000614a82602d83615267565b9150614a8d82615543565b604082019050919050565b6000614aa5603683615267565b9150614ab082615592565b604082019050919050565b6000614ac8603883615267565b9150614ad3826155e1565b604082019050919050565b6000614aeb602683615267565b9150614af682615630565b604082019050919050565b6000614b0e601583615267565b9150614b198261567f565b602082019050919050565b6000614b31601583615267565b9150614b3c826156a8565b602082019050919050565b6000614b54601883615267565b9150614b5f826156d1565b602082019050919050565b6000614b77600c83615267565b9150614b82826156fa565b602082019050919050565b6000614b9a601f83615267565b9150614ba582615723565b602082019050919050565b6000614bbd601583615267565b9150614bc88261574c565b602082019050919050565b6000614be0603683615267565b9150614beb82615775565b604082019050919050565b6000614c03601383615267565b9150614c0e826157c4565b602082019050919050565b6000614c26603283615267565b9150614c31826157ed565b604082019050919050565b614c4581615340565b82525050565b614c5481615340565b82525050565b6000602082019050614c6f60008301846148b4565b92915050565b60006020820190508181036000830152614c8f81846148c3565b905092915050565b60006020820190508181036000830152614cb18184614921565b905092915050565b60006020820190508181036000830152614cd38184614996565b905092915050565b60006080820190508181036000830152614cf58187614996565b90508181036020830152614d098186614921565b90508181036040830152614d1d81856148c3565b90508181036060830152614d318184614996565b905095945050505050565b6000602082019050614d5160008301846149f4565b92915050565b6000606082019050614d6c60008301866149f4565b614d796020830185614c4b565b8181036040830152614d8b8184614a3c565b9050949350505050565b60006020820190508181036000830152614dae81614a75565b9050919050565b60006020820190508181036000830152614dce81614a98565b9050919050565b60006020820190508181036000830152614dee81614abb565b9050919050565b60006020820190508181036000830152614e0e81614ade565b9050919050565b60006020820190508181036000830152614e2e81614b01565b9050919050565b60006020820190508181036000830152614e4e81614b24565b9050919050565b60006020820190508181036000830152614e6e81614b47565b9050919050565b60006020820190508181036000830152614e8e81614b6a565b9050919050565b60006020820190508181036000830152614eae81614b8d565b9050919050565b60006020820190508181036000830152614ece81614bb0565b9050919050565b60006020820190508181036000830152614eee81614bd3565b9050919050565b60006020820190508181036000830152614f0e81614bf6565b9050919050565b60006020820190508181036000830152614f2e81614c19565b9050919050565b6000602082019050614f4a6000830184614c4b565b92915050565b600060a082019050614f656000830188614c4b565b8181036020830152614f778187614996565b90508181036040830152614f8b8186614921565b90508181036060830152614f9f81856148c3565b90508181036080830152614fb38184614996565b90509695505050505050565b600060a082019050614fd46000830188614c4b565b8181036020830152614fe68187614a3c565b9050614ff560408301866148b4565b61500260608301856149f4565b61500f6080830184614c4b565b9695505050505050565b600060808201905061502e6000830187614c4b565b81810360208301526150408186614a3c565b905061504f60408301856148b4565b61505c6060830184614c4b565b95945050505050565b600060e08201905061507a600083018a614c4b565b818103602083015261508c8189614a3c565b905061509b60408301886148b4565b6150a86060830187614c4b565b81810360808301526150ba8186614996565b905081810360a08301526150ce8185614921565b905081810360c08301526150e28184614996565b905098975050505050505050565b600060a0820190506151056000830188614c4b565b81810360208301526151178187614a3c565b905061512660408301866148b4565b6151336060830185614c4b565b6151406080830184614c4b565b9695505050505050565b6000615154615165565b905061516082826153e8565b919050565b6000604051905090565b600067ffffffffffffffff82111561518a576151896154ef565b5b61519382615532565b9050602081019050919050565b6000819050602082019050919050565b6000819050602082019050919050565b6000819050602082019050919050565b600081519050919050565b600081519050919050565b600081519050919050565b600081519050919050565b6000602082019050919050565b6000602082019050919050565b6000602082019050919050565b600082825260208201905092915050565b600082825260208201905092915050565b600082825260208201905092915050565b600082825260208201905092915050565b600082825260208201905092915050565b600061528382615340565b915061528e83615340565b9250827fffffffffffffffffffffffffffffffffffffffffffffffffffffffffffffffff038211156152c3576152c2615462565b5b828201905092915050565b60006152d982615340565b91506152e483615340565b9250828210156152f7576152f6615462565b5b828203905092915050565b600061530d82615320565b9050919050565b60008115159050919050565b600073ffffffffffffffffffffffffffffffffffffffff82169050919050565b6000819050919050565b82818337600083830152505050565b60005b8381101561537757808201518184015260208101905061535c565b83811115615386576000848401525b50505050565b600061539782615340565b915060008214156153ab576153aa615462565b5b600182039050919050565b600060028204905060018216806153ce57607f821691505b602082108114156153e2576153e1615491565b5b50919050565b6153f182615532565b810181811067ffffffffffffffff821117156154105761540f6154ef565b5b80604052505050565b600061542482615340565b91507fffffffffffffffffffffffffffffffffffffffffffffffffffffffffffffffff82141561545757615456615462565b5b600182019050919050565b7f4e487b7100000000000000000000000000000000000000000000000000000000600052601160045260246000fd5b7f4e487b7100000000000000000000000000000000000000000000000000000000600052602260045260246000fd5b7f4e487b7100000000000000000000000000000000000000000000000000000000600052603260045260246000fd5b7f4e487b7100000000000000000000000000000000000000000000000000000000600052604160045260246000fd5b600080fd5b600080fd5b600080fd5b600080fd5b6000601f19601f8301169050919050565b7f5468697320616464726573732068617320616c7265616479206265656e20736560008201527f74207065726d697373696f6e7300000000000000000000000000000000000000602082015250565b7f3e3e3e5468652070726f426c6f636b41646472657373206e6f206d617463682060008201527f7468652063757272656e74206164647265737321212100000000000000000000602082015250565b7f3e3e3e546869732070726f666573736f72206973207465616368696e672c206360008201527f616e742072656d6f7665207065726d697373696f6e2121210000000000000000602082015250565b7f3e3e3e73747564656e7420646f6573206e6f74206f776e207468697320636f7560008201527f7273652121210000000000000000000000000000000000000000000000000000602082015250565b7f3e3e3e3e3e3e697341646d696e203d2066616c73650000000000000000000000600082015250565b7f3e3e3e63616e4170706c795f203d3d2066616c73650000000000000000000000600082015250565b7f3e3e3e546869732061646472657373206e6f2065786973740000000000000000600082015250565b7f756e617574686f72697a65640000000000000000000000000000000000000000600082015250565b7f3e3e3e5f636f75727365496420616c7265616479206578697374656421212100600082015250565b7f3e3e3e3e3e3e7265706561746564203d20747275650000000000000000000000600082015250565b7f3e3e3e546869732073747564656e74206973206c6561726e696e672c2063616e60008201527f742072656d6f7665207065726d697373696f6e21212100000000000000000000602082015250565b7f697350726f666573736f72203d2066616c736500000000000000000000000000600082015250565b7f3e3e3e5468697320626c6f636b4164647265737320776173206f726967696e6160008201527f6c6c79206e6f7420617574686f72697a65640000000000000000000000000000602082015250565b61584581615302565b811461585057600080fd5b50565b61585c81615340565b811461586757600080fd5b5056fea2646970667358221220775eb3971a50fd2f7e661f72a7dafd23f8e5f32455fd389b4789ef887bd4501c64736f6c63430008070033",
  "immutableReferences": {},
  "source": "// SPDX-License-Identifier: MIT\r\npragma solidity >=0.4.22 <0.9.0;\r\n\r\n\r\n/*\r\n\r\n// professor (inherit)StructAndModifiers, Admin\r\n\r\n// : onlyProfessor\r\n// All functions in this contract are marked as: onlyprofessor\r\n1. createCourse()               //   Create course\r\n\r\n2. applyCourse()                //   Join the course\r\n\r\n3. createCourseGrade()          //   Create grades\r\n\r\n4. getGradeByProAddress()            //      View the grades of all students in the subject\r\n\r\n5. getGradeByProProAddrAndStuAddr()    //        View the grade of a student in a subject\r\n\r\n\r\n*/\r\n\r\n\r\nimport \"./Admin.sol\";\r\ncontract Professor is Admin {\r\n    //////////////////////////////////////////////////////////////////////////////////////////////////////////////\r\n    //   Only teachers have permission to create courses\r\n    function createCourse (uint _courseId, string memory _courseName,address _proBlockAddress) public onlyProfessor returns(bool){    \r\n        //  Check whether the proid matches the address\r\n        require(_proBlockAddress == msg.sender,\">>>The proBlockAddress no match the current address!!!\");\r\n        \r\n        //  Check whether the created course information already exists\r\n        bool isExisted = checkCourseExisted(_courseId); \r\n        require(isExisted == false,\">>>_courseId already existed!!!\");\r\n        \r\n        // onlyProfessorproBlockAddress\r\n        \r\n        //  Self increasing\r\n        courseCounts ++;\r\n        \r\n        //    Create initialization without students and grades\r\n        courseInfs[courseCounts].courseId = _courseId;\r\n        courseInfs[courseCounts].courseName = _courseName;\r\n        courseInfs[courseCounts].proBlockAddress = _proBlockAddress;\r\n        courseInfs[courseCounts].canApply = true;\r\n        \r\n        // course ID\r\n        // After successful creation, you need to put this course ID into the corresponding professor's file\r\n        uint professorIndex = getProfessorIndexByAddress(_proBlockAddress);\r\n        // ID Put the ID in the corresponding professor's file\r\n        professorSelfs[professorIndex].myProCourses.push(_courseId);  \r\n        \r\n        return true;\r\n        \r\n    }\r\n    \r\n    \r\n     //////////////////////////////////////////////////////////////////////////////////////////////////////////////\r\n    //  Professor Only professors have permission to join the course\r\n    \r\n    function applyCourse (uint _courseId,address _proBlockAddress,address _stuBlockAddress) public onlyProfessor returns(bool,uint,string memory){\r\n        \r\n        // _proBlockAddress Check whether the proid matches the address\r\n        //require(_proBlockAddress == msg.sender,\">>>The proId no match the current address!!!\");\r\n        \r\n        //  Check whether the course information exists\r\n        //bool isExisted = checkCourseExisted(_courseId); \r\n        //require(isExisted == true,\">>>_courseId no existed!!!\");\r\n        \r\n        //  Check whether this course can be applied\r\n        bool canApply_ = checkCourseCanApply(_courseId);\r\n        require(canApply_ == true,\">>>canApply_ == false\");\r\n        \r\n        //  Check whether the professor has this course\r\n        //bool isheldByPro = checkCourseHeldByProBlockAddress(_courseId,_proBlockAddress);\r\n        //require(isheldByPro == true,\">>>professor does not own this course!!!\");\r\n              \r\n        // id Check whether the student ID is a student\r\n        //bool isStudent = checkIsStudent(_stuBlockAddress);\r\n        //require(isStudent == true,\">>>stuID is not a student!!!\");\r\n        \r\n        // student address\r\n        // After successful creation, you need to put this student ID into the corresponding student's file\r\n        uint studentIndex = getStudentIndexByAddress(_stuBlockAddress);\r\n        // \r\n        uint _stuId = studentSelfs[studentIndex].stuId;\r\n        string memory _stuName = studentSelfs[studentIndex].stuName;\r\n\r\n        // ID Put the ID in the corresponding student's file\r\n        // course ID.  At this time, check whether there is a duplicate course ID\r\n        bool repeated = false;\r\n        for(uint i=0;i<studentSelfs[studentIndex].myStuCourses.length;i++){\r\n            if(studentSelfs[studentIndex].myStuCourses[i]==_courseId){\r\n                repeated = true;\r\n            }\r\n        }\r\n        require(repeated == false,\">>>>>>repeated = true\");\r\n        \r\n        // ,  No duplication, can apply\r\n        // id\r\n        studentSelfs[studentIndex].myStuCourses.push(_courseId);\r\n\r\n        //  ,\r\n        // First find the course and put the students' information into the corresponding course\r\n        uint indexOfCourseID = getIndexByCourseId(_courseId);\r\n        // \r\n        string memory courseName_ = courseInfs[indexOfCourseID].courseName;\r\n        studentSelfs[studentIndex].myStuCourseNames.push(courseName_);\r\n        // ,  \r\n        // +1\r\n        // +1, courseStudentCounts_  \r\n        \r\n        //Find the length of the array of students stored in this course, that is, the number of students who have taken this course\r\n        //New students will be assigned to the position of number + 1\r\n        //First assign the number of people + 1, and then assign it to coursestudentcounts_\r\n        \r\n        setcourseStudentCounts(_courseId);\r\n        uint courseStudentCounts_ = getcourseStudentCounts(_courseId);    \r\n        courseInfs[indexOfCourseID].courseStudents[courseStudentCounts_].stuBlockAddress = _stuBlockAddress;\r\n        courseInfs[indexOfCourseID].courseStudents[courseStudentCounts_].stuId = _stuId;\r\n        courseInfs[indexOfCourseID].courseStudents[courseStudentCounts_].stuName = _stuName;\r\n\r\n        // ,+1   // Whenever a student applies, + 1\r\n        // isTeachingPeopleSum++\r\n        uint professorIndex = getProfessorIndexByAddress(_proBlockAddress);\r\n        professorSelfs[professorIndex].isTeachingPeopleSum += 1;\r\n        \r\n        //    // Set students in class\r\n        // isLearningSum++\r\n        studentSelfs[studentIndex].isLearningSum += 1;\r\n        \r\n        return (true,_stuId,_stuName);\r\n        \r\n    }\r\n    \r\n    \r\n    // (onlyprofessor)  ==> course\r\n    // Create grade (onlyprofessor) = = > save to course class\r\n    //////////////////////////////////////////////////////////////////////////////////////////////////////////////\r\n    //     Only teachers have permission to create grades\r\n    //  _courseId ,  _proBlockAddress , _stuBlockAddress, _stuGrade\r\n    function createCourseGrade (uint _courseId,address _proBlockAddress,address _stuBlockAddress,uint _stuGrade) public onlyProfessor returns(bool){\r\n        \r\n        // _proBlockAddress Check whether the proid matches the address\r\n        //require(_proBlockAddress == msg.sender,\">>>The proId no match the current address!!!\");\r\n        \r\n        //  Check whether the course information exists\r\n        //bool isExisted = checkCourseExisted(_courseId); \r\n        //require(isExisted == true,\">>>_courseId no existed!!!\");\r\n        \r\n        // pro  First check whether the professor is proid's own course\r\n        //bool isheldByPro = checkCourseHeldByProBlockAddress(_courseId,_proBlockAddress);\r\n        //require(isheldByPro == true,\">>>professor does not own this course!!!\");\r\n        \r\n        // checkstu Check is stuid's own course\r\n        bool isheldByStu = checkCourseHeldByStuBlockAddress(_courseId,_stuBlockAddress);\r\n        require(isheldByStu == true,\">>>student does not own this course!!!\");\r\n        \r\n        //  Find the course first\r\n        uint indexOfCourseID = getIndexByCourseId(_courseId);\r\n        // ,  \r\n        // Find the length of the array of students stored in this course, that is, the number of students taking this course\r\n        uint courseStudentCounts_ = getcourseStudentCounts(_courseId);\r\n        \r\n        // \r\n        // Students can not apply for this course after they get their grades\r\n        courseInfs[indexOfCourseID].canApply = false;\r\n\r\n        //  \r\n        // Find the corresponding students' grades under the corresponding courses\r\n        for(uint j=1;j<=courseStudentCounts_;j++){\r\n            if(courseInfs[indexOfCourseID].courseStudents[j].stuBlockAddress==_stuBlockAddress){\r\n                //      Information matching, giving results\r\n                courseInfs[indexOfCourseID].courseStudents[j].stuGrade = _stuGrade;\r\n                \r\n                //   Update the status number of teachers and students\r\n                uint professorIndex = getProfessorIndexByAddress(_proBlockAddress);\r\n                uint studentIndex = getStudentIndexByAddress(_stuBlockAddress);\r\n                // isTeaching--\r\n                professorSelfs[professorIndex].isTeachingPeopleSum--;\r\n                // isLearning--\r\n                studentSelfs[studentIndex].isLearningSum--;\r\n                // \r\n                studentSelfs[studentIndex].myStuCoursesGrades.push(_stuGrade);\r\n\r\n                return true;    //  Update complete\r\n            }\r\n        }\r\n        // \r\n        return false;  //  \r\n        \r\n    }\r\n    \r\n/*\r\n    //   View the scores of all students in a subject\r\n    // If it is a professor, it can view the scores of students in his course\r\n    function getGradeByProAddress(uint _courseId, address _proBlockAddress) public view onlyProfessor returns(address[] memory, uint[] memory){\r\n        \r\n        // proBlockAddress Check whether the proid matches the address\r\n        require(_proBlockAddress == msg.sender,\">>>The proId no match the current address!!!\");\r\n        \r\n        //  Check whether the course information exists\r\n        bool isExisted = checkCourseExisted(_courseId); \r\n        require(isExisted == true,\">>>_courseId no existed!!!\");\r\n        \r\n        \r\n        // checkproId Check is proid's own course\r\n        bool isheldByPro = checkCourseHeldByProBlockAddress(_courseId,_proBlockAddress);\r\n        require(isheldByPro == true,\">>>professor does not own this course!!!\");\r\n        \r\n        ///\r\n        //  The results of all students under the course will be listed\r\n        \r\n        //  Find the course first\r\n        uint indexOfCourseID = getIndexByCourseId(_courseId);\r\n        \r\n        // ,  \r\n        // Find the length of the array of students stored in this course, that is, the number of students taking this course\r\n        uint courseStudentCounts_ = getcourseStudentCounts(_courseId);\r\n              \r\n        address[] memory myStudentAddress = new address[](courseStudentCounts_);\r\n        uint[] memory myStudentsGrade  = new uint[](courseStudentCounts_);\r\n              \r\n        for(uint j=1;j<=courseStudentCounts_;j++){\r\n            myStudentAddress[j-1] = courseInfs[indexOfCourseID].courseStudents[j].stuBlockAddress;\r\n            myStudentsGrade[j-1] = courseInfs[indexOfCourseID].courseStudents[j].stuGrade;\r\n        }    \r\n        return (myStudentAddress,myStudentsGrade) ;  //  complete\r\n          \r\n    }\r\n\r\n    \r\n*/   \r\n\r\n\r\n/*\r\n    //  View the results of a student in a subject\r\n    function getGradeByProAddrAndStuAddr(uint _courseId,address _proBlockAddress,address _stuBlockAddress) public view onlyProfessor returns(uint){\r\n        \r\n        // _proBlockAddress Check whether the proid matches the address\r\n        require(_proBlockAddress == msg.sender,\">>>The proId no match the current address!!!\");\r\n        \r\n        //  Check whether the course information exists\r\n        bool isExisted = checkCourseExisted(_courseId); \r\n        require(isExisted == true,\">>>_courseId no existed!!!\");\r\n        \r\n        // checkpro Check whether it is a course of proid\r\n        bool isheldByPro = checkCourseHeldByProBlockAddress(_courseId,_proBlockAddress);\r\n        require(isheldByPro == true,\">>>professor does not own this course!!!\");\r\n        \r\n        // checkstuId Check whether it is the course of stuid\r\n        bool isheldByStu = checkCourseHeldByStuBlockAddress(_courseId,_stuBlockAddress);\r\n        require(isheldByStu == true,\">>>student does not own this course!!!\");\r\n        \r\n        ///\r\n        //  Will list their achievements \r\n        //   Find the course first\r\n        uint indexOfCourseID = getIndexByCourseId(_courseId);\r\n        \r\n        // ,  \r\n        // Find the length of the array of students stored in this course, that is, the number of students taking this course\r\n        uint courseStudentCounts_ = getcourseStudentCounts(_courseId);\r\n            \r\n        uint myCourseGrade;\r\n        //   Find the corresponding student under the corresponding course\r\n        for(uint j=1;j<=courseStudentCounts_;j++){\r\n            if(courseInfs[indexOfCourseID].courseStudents[j].stuBlockAddress==_stuBlockAddress){\r\n                //   get Information matching, get score\r\n                myCourseGrade = courseInfs[indexOfCourseID].courseStudents[j].stuGrade;\r\n                return myCourseGrade;    //  complete\r\n            }\r\n        }\r\n        //  Otherwise, it will fail\r\n        return 0;  //  complete\r\n        \r\n    }\r\n*/\r\n    \r\n\r\n                    \r\n\r\n    \r\n}\r\n\r\n\r\n\r\n\r\n",
  "sourcePath": "D:\\desktop\\truffle_v4.0\\contracts\\Professor.sol",
  "compiler": {
    "name": "solc",
    "version": "0.8.7+commit.e28d00a7.Emscripten.clang"
  },
  "schemaVersion": "3.4.3",
  "updatedAt": "2021-12-04T10:51:44.813Z",
  "networkType": "ethereum",
  "devdoc": {
    "kind": "dev",
    "methods": {},
    "version": 1
  },
  "userdoc": {
    "kind": "user",
    "methods": {},
    "version": 1
  }
}