{
  "contractName": "Professor",
  "abi": [
    {
      "inputs": [],
      "name": "adminCounts",
      "outputs": [
        {
          "internalType": "uint256",
          "name": "",
          "type": "uint256"
        }
      ],
      "stateMutability": "view",
      "type": "function"
    },
    {
      "inputs": [
        {
          "internalType": "uint256",
          "name": "",
          "type": "uint256"
        }
      ],
      "name": "adminSelfs",
      "outputs": [
        {
          "internalType": "uint256",
          "name": "adminId",
          "type": "uint256"
        },
        {
          "internalType": "string",
          "name": "adminName",
          "type": "string"
        },
        {
          "internalType": "address",
          "name": "adminBlockAddress",
          "type": "address"
        },
        {
          "internalType": "uint256",
          "name": "adminAuthorization",
          "type": "uint256"
        }
      ],
      "stateMutability": "view",
      "type": "function"
    },
    {
      "inputs": [],
      "name": "courseCounts",
      "outputs": [
        {
          "internalType": "uint256",
          "name": "",
          "type": "uint256"
        }
      ],
      "stateMutability": "view",
      "type": "function"
    },
    {
      "inputs": [
        {
          "internalType": "uint256",
          "name": "",
          "type": "uint256"
        }
      ],
      "name": "courseInfs",
      "outputs": [
        {
          "internalType": "uint256",
          "name": "courseId",
          "type": "uint256"
        },
        {
          "internalType": "string",
          "name": "courseName",
          "type": "string"
        },
        {
          "internalType": "address",
          "name": "proBlockAddress",
          "type": "address"
        },
        {
          "internalType": "bool",
          "name": "canApply",
          "type": "bool"
        },
        {
          "internalType": "uint256",
          "name": "courseStudentCounts",
          "type": "uint256"
        }
      ],
      "stateMutability": "view",
      "type": "function"
    },
    {
      "inputs": [
        {
          "internalType": "address",
          "name": "_adminBlockAddress",
          "type": "address"
        }
      ],
      "name": "getAdminIndexByAddress",
      "outputs": [
        {
          "internalType": "uint256",
          "name": "",
          "type": "uint256"
        }
      ],
      "stateMutability": "view",
      "type": "function"
    },
    {
      "inputs": [],
      "name": "getAllCourseId",
      "outputs": [
        {
          "internalType": "uint256[]",
          "name": "",
          "type": "uint256[]"
        }
      ],
      "stateMutability": "view",
      "type": "function"
    },
    {
      "inputs": [],
      "name": "getAllStudentAddress",
      "outputs": [
        {
          "internalType": "address[]",
          "name": "",
          "type": "address[]"
        }
      ],
      "stateMutability": "view",
      "type": "function"
    },
    {
      "inputs": [
        {
          "internalType": "address",
          "name": "_address",
          "type": "address"
        }
      ],
      "name": "getAuthorizationByAddress",
      "outputs": [
        {
          "internalType": "uint256",
          "name": "",
          "type": "uint256"
        }
      ],
      "stateMutability": "view",
      "type": "function"
    },
    {
      "inputs": [
        {
          "internalType": "address",
          "name": "_proBlockAddress",
          "type": "address"
        }
      ],
      "name": "getCourseCountsByProAddress",
      "outputs": [
        {
          "internalType": "uint256",
          "name": "",
          "type": "uint256"
        }
      ],
      "stateMutability": "view",
      "type": "function"
    },
    {
      "inputs": [
        {
          "internalType": "address",
          "name": "_proBlockAddress",
          "type": "address"
        }
      ],
      "name": "getCourseIdByProAddress",
      "outputs": [
        {
          "internalType": "uint256[]",
          "name": "",
          "type": "uint256[]"
        }
      ],
      "stateMutability": "view",
      "type": "function"
    },
    {
      "inputs": [
        {
          "internalType": "uint256",
          "name": "_courseid",
          "type": "uint256"
        }
      ],
      "name": "getCourseInfByCourseId",
      "outputs": [
        {
          "internalType": "uint256",
          "name": "",
          "type": "uint256"
        },
        {
          "internalType": "string",
          "name": "",
          "type": "string"
        },
        {
          "internalType": "address",
          "name": "",
          "type": "address"
        },
        {
          "internalType": "uint256",
          "name": "",
          "type": "uint256"
        }
      ],
      "stateMutability": "view",
      "type": "function"
    },
    {
      "inputs": [
        {
          "internalType": "uint256",
          "name": "_courseId",
          "type": "uint256"
        }
      ],
      "name": "getCourseNameByCourseId",
      "outputs": [
        {
          "internalType": "string",
          "name": "",
          "type": "string"
        }
      ],
      "stateMutability": "view",
      "type": "function"
    },
    {
      "inputs": [
        {
          "internalType": "uint256",
          "name": "_courseid",
          "type": "uint256"
        }
      ],
      "name": "getCourseStudentInfByCourseId",
      "outputs": [
        {
          "internalType": "uint256[]",
          "name": "",
          "type": "uint256[]"
        },
        {
          "internalType": "address[]",
          "name": "",
          "type": "address[]"
        },
        {
          "internalType": "uint256[]",
          "name": "",
          "type": "uint256[]"
        }
      ],
      "stateMutability": "view",
      "type": "function"
    },
    {
      "inputs": [
        {
          "internalType": "address",
          "name": "_address",
          "type": "address"
        }
      ],
      "name": "getIdByAddress",
      "outputs": [
        {
          "internalType": "uint256",
          "name": "",
          "type": "uint256"
        }
      ],
      "stateMutability": "view",
      "type": "function"
    },
    {
      "inputs": [
        {
          "internalType": "uint256",
          "name": "_courseId",
          "type": "uint256"
        }
      ],
      "name": "getIndexByCourseId",
      "outputs": [
        {
          "internalType": "uint256",
          "name": "",
          "type": "uint256"
        }
      ],
      "stateMutability": "view",
      "type": "function"
    },
    {
      "inputs": [
        {
          "internalType": "address",
          "name": "_proBlockAddress",
          "type": "address"
        }
      ],
      "name": "getProfessorIndexByAddress",
      "outputs": [
        {
          "internalType": "uint256",
          "name": "",
          "type": "uint256"
        }
      ],
      "stateMutability": "view",
      "type": "function"
    },
    {
      "inputs": [
        {
          "internalType": "uint256",
          "name": "_stuId",
          "type": "uint256"
        }
      ],
      "name": "getStuAddressByStuId",
      "outputs": [
        {
          "internalType": "address",
          "name": "",
          "type": "address"
        }
      ],
      "stateMutability": "view",
      "type": "function"
    },
    {
      "inputs": [
        {
          "internalType": "uint256",
          "name": "_courseId",
          "type": "uint256"
        },
        {
          "internalType": "address",
          "name": "_stuAddress",
          "type": "address"
        }
      ],
      "name": "getStudentGradeByCourseIdAndStuAddr",
      "outputs": [
        {
          "internalType": "uint256",
          "name": "",
          "type": "uint256"
        }
      ],
      "stateMutability": "view",
      "type": "function"
    },
    {
      "inputs": [
        {
          "internalType": "address",
          "name": "_stuBlockAddress",
          "type": "address"
        }
      ],
      "name": "getStudentIndexByAddress",
      "outputs": [
        {
          "internalType": "uint256",
          "name": "",
          "type": "uint256"
        }
      ],
      "stateMutability": "view",
      "type": "function"
    },
    {
      "inputs": [
        {
          "internalType": "address",
          "name": "_stuBlockAddress",
          "type": "address"
        }
      ],
      "name": "getStudentInfByStuAddress",
      "outputs": [
        {
          "internalType": "uint256",
          "name": "",
          "type": "uint256"
        },
        {
          "internalType": "string",
          "name": "",
          "type": "string"
        },
        {
          "internalType": "address",
          "name": "",
          "type": "address"
        },
        {
          "internalType": "uint256",
          "name": "",
          "type": "uint256"
        },
        {
          "internalType": "uint256[]",
          "name": "",
          "type": "uint256[]"
        },
        {
          "internalType": "uint256[]",
          "name": "",
          "type": "uint256[]"
        }
      ],
      "stateMutability": "view",
      "type": "function"
    },
    {
      "inputs": [
        {
          "internalType": "uint256",
          "name": "_stuId",
          "type": "uint256"
        }
      ],
      "name": "getStudentNameById",
      "outputs": [
        {
          "internalType": "string",
          "name": "",
          "type": "string"
        }
      ],
      "stateMutability": "view",
      "type": "function"
    },
    {
      "inputs": [
        {
          "internalType": "uint256",
          "name": "_courseid",
          "type": "uint256"
        },
        {
          "internalType": "uint256",
          "name": "_getTops",
          "type": "uint256"
        }
      ],
      "name": "getTopStudentsByCourseId",
      "outputs": [
        {
          "internalType": "uint256",
          "name": "",
          "type": "uint256"
        },
        {
          "internalType": "uint256[]",
          "name": "",
          "type": "uint256[]"
        },
        {
          "internalType": "address[]",
          "name": "",
          "type": "address[]"
        },
        {
          "internalType": "uint256[]",
          "name": "",
          "type": "uint256[]"
        }
      ],
      "stateMutability": "view",
      "type": "function"
    },
    {
      "inputs": [
        {
          "internalType": "uint256",
          "name": "_courseid",
          "type": "uint256"
        }
      ],
      "name": "getcourseStudentCounts",
      "outputs": [
        {
          "internalType": "uint256",
          "name": "courseStudentCounts_",
          "type": "uint256"
        }
      ],
      "stateMutability": "view",
      "type": "function"
    },
    {
      "inputs": [],
      "name": "modifiersOwner",
      "outputs": [
        {
          "internalType": "address",
          "name": "",
          "type": "address"
        }
      ],
      "stateMutability": "view",
      "type": "function"
    },
    {
      "inputs": [],
      "name": "personCounts",
      "outputs": [
        {
          "internalType": "uint256",
          "name": "",
          "type": "uint256"
        }
      ],
      "stateMutability": "view",
      "type": "function"
    },
    {
      "inputs": [],
      "name": "professorCounts",
      "outputs": [
        {
          "internalType": "uint256",
          "name": "",
          "type": "uint256"
        }
      ],
      "stateMutability": "view",
      "type": "function"
    },
    {
      "inputs": [
        {
          "internalType": "uint256",
          "name": "",
          "type": "uint256"
        }
      ],
      "name": "professorSelfs",
      "outputs": [
        {
          "internalType": "uint256",
          "name": "proId",
          "type": "uint256"
        },
        {
          "internalType": "string",
          "name": "proName",
          "type": "string"
        },
        {
          "internalType": "address",
          "name": "proBlockAddress",
          "type": "address"
        },
        {
          "internalType": "uint256",
          "name": "proAuthorization",
          "type": "uint256"
        },
        {
          "internalType": "uint256",
          "name": "isTeachingPeopleSum",
          "type": "uint256"
        }
      ],
      "stateMutability": "view",
      "type": "function"
    },
    {
      "inputs": [
        {
          "internalType": "address",
          "name": "_blockAddress",
          "type": "address"
        }
      ],
      "name": "removePermission",
      "outputs": [
        {
          "internalType": "bool",
          "name": "",
          "type": "bool"
        }
      ],
      "stateMutability": "nonpayable",
      "type": "function"
    },
    {
      "inputs": [
        {
          "internalType": "address",
          "name": "_blockAddress",
          "type": "address"
        },
        {
          "internalType": "string",
          "name": "_name",
          "type": "string"
        },
        {
          "internalType": "uint256",
          "name": "_authorization",
          "type": "uint256"
        }
      ],
      "name": "setPermission",
      "outputs": [
        {
          "internalType": "bool",
          "name": "",
          "type": "bool"
        }
      ],
      "stateMutability": "nonpayable",
      "type": "function"
    },
    {
      "inputs": [],
      "name": "studentCounts",
      "outputs": [
        {
          "internalType": "uint256",
          "name": "",
          "type": "uint256"
        }
      ],
      "stateMutability": "view",
      "type": "function"
    },
    {
      "inputs": [
        {
          "internalType": "uint256",
          "name": "",
          "type": "uint256"
        }
      ],
      "name": "studentSelfs",
      "outputs": [
        {
          "internalType": "uint256",
          "name": "stuId",
          "type": "uint256"
        },
        {
          "internalType": "string",
          "name": "stuName",
          "type": "string"
        },
        {
          "internalType": "address",
          "name": "stuBlockAddress",
          "type": "address"
        },
        {
          "internalType": "uint256",
          "name": "stuAuthorization",
          "type": "uint256"
        },
        {
          "internalType": "uint256",
          "name": "isLearningSum",
          "type": "uint256"
        }
      ],
      "stateMutability": "view",
      "type": "function"
    },
    {
      "inputs": [
        {
          "internalType": "uint256",
          "name": "_courseId",
          "type": "uint256"
        },
        {
          "internalType": "string",
          "name": "_courseName",
          "type": "string"
        },
        {
          "internalType": "address",
          "name": "_proBlockAddress",
          "type": "address"
        }
      ],
      "name": "createCourse",
      "outputs": [
        {
          "internalType": "bool",
          "name": "",
          "type": "bool"
        }
      ],
      "stateMutability": "nonpayable",
      "type": "function"
    },
    {
      "inputs": [
        {
          "internalType": "uint256",
          "name": "_courseId",
          "type": "uint256"
        },
        {
          "internalType": "address",
          "name": "_proBlockAddress",
          "type": "address"
        },
        {
          "internalType": "address",
          "name": "_stuBlockAddress",
          "type": "address"
        }
      ],
      "name": "applyCourse",
      "outputs": [
        {
          "internalType": "bool",
          "name": "",
          "type": "bool"
        }
      ],
      "stateMutability": "nonpayable",
      "type": "function"
    },
    {
      "inputs": [
        {
          "internalType": "uint256",
          "name": "_courseId",
          "type": "uint256"
        },
        {
          "internalType": "address",
          "name": "_proBlockAddress",
          "type": "address"
        },
        {
          "internalType": "address",
          "name": "_stuBlockAddress",
          "type": "address"
        },
        {
          "internalType": "uint256",
          "name": "_stuGrade",
          "type": "uint256"
        }
      ],
      "name": "createCourseGrade",
      "outputs": [
        {
          "internalType": "bool",
          "name": "",
          "type": "bool"
        }
      ],
      "stateMutability": "nonpayable",
      "type": "function"
    }
  ],
  "bytecode": "0x6080604052600060015560006003556000600555600060075560016009556001600a556064600b556103e8600c553480156200003a57600080fd5b50336000806101000a81548173ffffffffffffffffffffffffffffffffffffffff021916908373ffffffffffffffffffffffffffffffffffffffff1602179055506040518060800160405280600181526020016040518060400160405280600481526020017f526f6f7400000000000000000000000000000000000000000000000000000000815250815260200160008054906101000a900473ffffffffffffffffffffffffffffffffffffffff1673ffffffffffffffffffffffffffffffffffffffff1681526020016003815250600260006001815260200190815260200160002060008201518160000155602082015181600101908051906020019062000145929190620001ba565b5060408201518160020160006101000a81548173ffffffffffffffffffffffffffffffffffffffff021916908373ffffffffffffffffffffffffffffffffffffffff1602179055506060820151816003015590505060016000815480929190620001af90620002aa565b919050555062000356565b828054620001c89062000274565b90600052602060002090601f016020900481019282620001ec576000855562000238565b82601f106200020757805160ff191683800117855562000238565b8280016001018555821562000238579182015b82811115620002375782518255916020019190600101906200021a565b5b5090506200024791906200024b565b5090565b5b80821115620002665760008160009055506001016200024c565b5090565b6000819050919050565b600060028204905060018216806200028d57607f821691505b60208210811415620002a457620002a362000327565b5b50919050565b6000620002b7826200026a565b91507fffffffffffffffffffffffffffffffffffffffffffffffffffffffffffffffff821415620002ed57620002ec620002f8565b5b600182019050919050565b7f4e487b7100000000000000000000000000000000000000000000000000000000600052601160045260246000fd5b7f4e487b7100000000000000000000000000000000000000000000000000000000600052602260045260246000fd5b6153a080620003666000396000f3fe608060405234801561001057600080fd5b50600436106102055760003560e01c806378a1fdbf1161011a578063a5cc464d116100ad578063dff3b4971161007c578063dff3b4971461073c578063e074bb471461076c578063f6aa09e41461079c578063fb3189e8146107ba578063fc0c1f39146107d857610205565b8063a5cc464d1461067c578063ad9e42d9146106ac578063c5ad81de146106dc578063ced3ae611461070c57610205565b806394e48ece116100e957806394e48ece146105dd578063982203be1461061057806398aede55146106405780639fde09431461065e57610205565b806378a1fdbf1461051d5780638c8ef7331461054d578063901419401461057d57806390eab7a2146105ad57610205565b80632454a9391161019d5780634d64e5ee1161016c5780634d64e5ee1461043457806358a42065146104685780635e719a491461049d578063606870da146104cd5780637860a069146104ff57610205565b80632454a939146103715780632b81bd8d146103a157806330e94711146103d15780634d4fb0d71461040457610205565b80630d9382fc116101d95780630d9382fc146102d25780630e3bfd6c146102f057806310d756dd1461030e5780631643c8db1461033e57610205565b80624255a61461020a578063043022fa1461023e57806309f006f5146102725780630c1596b4146102a2575b600080fd5b610224600480360381019061021f9190614314565b6107f6565b604051610235959493929190614c3a565b60405180910390f35b61025860048036038101906102539190614314565b6108d4565b604051610269959493929190614b1e565b60405180910390f35b61028c60048036038101906102879190614381565b6109bf565b60405161029991906148cc565b60405180910390f35b6102bc60048036038101906102b79190614278565b610d44565b6040516102c9919061485e565b60405180910390f35b6102da610e29565b6040516102e79190614aa9565b60405180910390f35b6102f8610e2f565b6040516103059190614aa9565b60405180910390f35b61032860048036038101906103239190614278565b610e35565b6040516103359190614aa9565b60405180910390f35b61035860048036038101906103539190614314565b610ed7565b6040516103689493929190614b78565b60405180910390f35b61038b60048036038101906103869190614278565b610faf565b6040516103989190614aa9565b60405180910390f35b6103bb60048036038101906103b69190614314565b611051565b6040516103c891906148e7565b60405180910390f35b6103eb60048036038101906103e69190614314565b61117a565b6040516103fb9493929190614b78565b60405180910390f35b61041e60048036038101906104199190614278565b6112ba565b60405161042b9190614aa9565b60405180910390f35b61044e60048036038101906104499190614314565b6112ea565b60405161045f959493929190614c3a565b60405180910390f35b610482600480360381019061047d9190614278565b6113c8565b60405161049496959493929190614bc4565b60405180910390f35b6104b760048036038101906104b29190614314565b6115f3565b6040516104c49190614aa9565b60405180910390f35b6104e760048036038101906104e29190614314565b61165b565b6040516104f693929190614880565b60405180910390f35b6105076118f6565b6040516105149190614aa9565b60405180910390f35b610537600480360381019061053291906143d4565b6118fc565b60405161054491906148cc565b60405180910390f35b6105676004803603810190610562919061443b565b611c0f565b60405161057491906148cc565b60405180910390f35b610597600480360381019061059291906142a5565b611ee9565b6040516105a491906148cc565b60405180910390f35b6105c760048036038101906105c29190614278565b6123cb565b6040516105d49190614aa9565b60405180910390f35b6105f760048036038101906105f291906144aa565b6125dd565b6040516106079493929190614ac4565b60405180910390f35b61062a60048036038101906106259190614314565b612b1c565b6040516106379190614821565b60405180910390f35b610648612ba8565b6040516106559190614821565b60405180910390f35b610666612bcc565b604051610673919061483c565b60405180910390f35b61069660048036038101906106919190614278565b612cd8565b6040516106a39190614aa9565b60405180910390f35b6106c660048036038101906106c19190614314565b612d7a565b6040516106d39190614aa9565b60405180910390f35b6106f660048036038101906106f19190614314565b612ddb565b60405161070391906148e7565b60405180910390f35b61072660048036038101906107219190614341565b612e91565b6040516107339190614aa9565b60405180910390f35b61075660048036038101906107519190614278565b612f95565b6040516107639190614aa9565b60405180910390f35b61078660048036038101906107819190614278565b6131a7565b60405161079391906148cc565b60405180910390f35b6107a4613af6565b6040516107b1919061485e565b60405180910390f35b6107c2613bb4565b6040516107cf9190614aa9565b60405180910390f35b6107e0613bba565b6040516107ed9190614aa9565b60405180910390f35b600660205280600052604060002060009150905080600001549080600101805461081f90614eb6565b80601f016020809104026020016040519081016040528092919081815260200182805461084b90614eb6565b80156108985780601f1061086d57610100808354040283529160200191610898565b820191906000526020600020905b81548152906001019060200180831161087b57829003601f168201915b5050505050908060020160009054906101000a900473ffffffffffffffffffffffffffffffffffffffff16908060030154908060050154905085565b60086020528060005260406000206000915090508060000154908060010180546108fd90614eb6565b80601f016020809104026020016040519081016040528092919081815260200182805461092990614eb6565b80156109765780601f1061094b57610100808354040283529160200191610976565b820191906000526020600020905b81548152906001019060200180831161095957829003601f168201915b5050505050908060020160009054906101000a900473ffffffffffffffffffffffffffffffffffffffff16908060020160149054906101000a900460ff16908060030154905085565b6000806000905060005b6003548111610a54576004600082815260200190815260200160002060020160009054906101000a900473ffffffffffffffffffffffffffffffffffffffff1673ffffffffffffffffffffffffffffffffffffffff163373ffffffffffffffffffffffffffffffffffffffff161415610a4157600191505b8080610a4c90614f19565b9150506109c9565b5080610a95576040517f08c379a0000000000000000000000000000000000000000000000000000000008152600401610a8c90614a69565b60405180910390fd5b6000610aa086613bc0565b90506001151581151514610ae9576040517f08c379a0000000000000000000000000000000000000000000000000000000008152600401610ae0906149a9565b60405180910390fd5b6000610af485610faf565b90506000600660008381526020019081526020016000206000015490506000805b6006600085815260200190815260200160002060040180549050811015610b885789600660008681526020019081526020016000206004018281548110610b5f57610b5e614fc0565b5b90600052602060002001541415610b7557600191505b8080610b8090614f19565b915050610b15565b506000151581151514610bd0576040517f08c379a0000000000000000000000000000000000000000000000000000000008152600401610bc790614a29565b60405180910390fd5b600660008481526020019081526020016000206004018990806001815401808255809150506001900390600052602060002001600090919091909150556000610c188a612d7a565b9050610c238a613c48565b6000610c2e8b6115f3565b90508860086000848152602001908152602001600020600401600083815260200190815260200160002060000160006101000a81548173ffffffffffffffffffffffffffffffffffffffff021916908373ffffffffffffffffffffffffffffffffffffffff16021790555083600860008481526020019081526020016000206004016000838152602001908152602001600020600101819055506000610cd38b612cd8565b90506001600460008381526020019081526020016000206005016000828254610cfc9190614d78565b925050819055506001600660008881526020019081526020016000206005016000828254610d2a9190614d78565b925050819055506001985050505050505050509392505050565b60606000610d5183612cd8565b90506000610d5e846112ba565b905060008167ffffffffffffffff811115610d7c57610d7b614fef565b5b604051908082528060200260200182016040528015610daa5781602001602082028036833780820191505090505b50905060005b82811015610e1d57600460008581526020019081526020016000206004018181548110610de057610ddf614fc0565b5b9060005260206000200154828281518110610dfe57610dfd614fc0565b5b6020026020010181815250508080610e1590614f19565b915050610db0565b50809350505050919050565b60095481565b60075481565b600080600190505b6001548111610ecc578273ffffffffffffffffffffffffffffffffffffffff166002600083815260200190815260200160002060020160009054906101000a900473ffffffffffffffffffffffffffffffffffffffff1673ffffffffffffffffffffffffffffffffffffffff161415610eb95780915050610ed2565b8080610ec490614f19565b915050610e3d565b50600090505b919050565b6002602052806000526040600020600091509050806000015490806001018054610f0090614eb6565b80601f0160208091040260200160405190810160405280929190818152602001828054610f2c90614eb6565b8015610f795780601f10610f4e57610100808354040283529160200191610f79565b820191906000526020600020905b815481529060010190602001808311610f5c57829003601f168201915b5050505050908060020160009054906101000a900473ffffffffffffffffffffffffffffffffffffffff16908060030154905084565b600080600190505b6005548111611046578273ffffffffffffffffffffffffffffffffffffffff166006600083815260200190815260200160002060020160009054906101000a900473ffffffffffffffffffffffffffffffffffffffff1673ffffffffffffffffffffffffffffffffffffffff161415611033578091505061104c565b808061103e90614f19565b915050610fb7565b50600090505b919050565b60606000600190505b600554811161113b578260066000838152602001908152602001600020600001541415611128576006600082815260200190815260200160002060010180546110a290614eb6565b80601f01602080910402602001604051908101604052809291908181526020018280546110ce90614eb6565b801561111b5780601f106110f05761010080835404028352916020019161111b565b820191906000526020600020905b8154815290600101906020018083116110fe57829003601f168201915b5050505050915050611175565b808061113390614f19565b91505061105a565b506040518060400160405280600481526020017f6e756c6c0000000000000000000000000000000000000000000000000000000081525090505b919050565b60006060600080600061118c86612d7a565b905060006008600083815260200190815260200160002060000154905060006008600084815260200190815260200160002060010180546111cc90614eb6565b80601f01602080910402602001604051908101604052809291908181526020018280546111f890614eb6565b80156112455780601f1061121a57610100808354040283529160200191611245565b820191906000526020600020905b81548152906001019060200180831161122857829003601f168201915b5050505050905060006008600085815260200190815260200160002060020160009054906101000a900473ffffffffffffffffffffffffffffffffffffffff16905060006008600086815260200190815260200160002060030154905083838383985098509850985050505050509193509193565b6000806112c683612cd8565b90506004600082815260200190815260200160002060040180549050915050919050565b600460205280600052604060002060009150905080600001549080600101805461131390614eb6565b80601f016020809104026020016040519081016040528092919081815260200182805461133f90614eb6565b801561138c5780601f106113615761010080835404028352916020019161138c565b820191906000526020600020905b81548152906001019060200180831161136f57829003601f168201915b5050505050908060020160009054906101000a900473ffffffffffffffffffffffffffffffffffffffff16908060030154908060050154905085565b6000606060008060608060006113dd88610faf565b9050600060066000838152602001908152602001600020600001549050600060066000848152602001908152602001600020600101805461141d90614eb6565b80601f016020809104026020016040519081016040528092919081815260200182805461144990614eb6565b80156114965780601f1061146b57610100808354040283529160200191611496565b820191906000526020600020905b81548152906001019060200180831161147957829003601f168201915b5050505050905060006006600085815260200190815260200160002060030154905060006006600086815260200190815260200160002060040180548060200260200160405190810160405280929190818152602001828054801561151a57602002820191906000526020600020905b815481526020019060010190808311611506575b505050505090506000815167ffffffffffffffff81111561153e5761153d614fef565b5b60405190808252806020026020018201604052801561156c5781602001602082028036833780820191505090505b50905060005b82518110156115d15761159f83828151811061159157611590614fc0565b5b60200260200101518f612e91565b8282815181106115b2576115b1614fc0565b5b60200260200101818152505080806115c990614f19565b915050611572565b5084848e8585859b509b509b509b509b509b5050505050505091939550919395565b600080600190505b6007548111611654578260086000838152602001908152602001600020600001541415611641576008600082815260200190815260200160002060030154915050611656565b808061164c90614f19565b9150506115fb565b505b919050565b6060806060600061166b85612d7a565b905060006008600083815260200190815260200160002060030154905060008167ffffffffffffffff8111156116a4576116a3614fef565b5b6040519080825280602002602001820160405280156116d25781602001602082028036833780820191505090505b50905060008267ffffffffffffffff8111156116f1576116f0614fef565b5b60405190808252806020026020018201604052801561171f5781602001602082028036833780820191505090505b50905060008367ffffffffffffffff81111561173e5761173d614fef565b5b60405190808252806020026020018201604052801561176c5781602001602082028036833780820191505090505b5090506000600190505b8481116118e05760086000878152602001908152602001600020600401600082815260200190815260200160002060000160009054906101000a900473ffffffffffffffffffffffffffffffffffffffff16846001836117d69190614dce565b815181106117e7576117e6614fc0565b5b602002602001019073ffffffffffffffffffffffffffffffffffffffff16908173ffffffffffffffffffffffffffffffffffffffff1681525050600860008781526020019081526020016000206004016000828152602001908152602001600020600101548360018361185a9190614dce565b8151811061186b5761186a614fc0565b5b60200260200101818152505060086000878152602001908152602001600020600401600082815260200190815260200160002060020154826001836118b09190614dce565b815181106118c1576118c0614fc0565b5b60200260200101818152505080806118d890614f19565b915050611776565b5081838297509750975050505050509193909250565b60035481565b6000806000905060005b6003548111611991576004600082815260200190815260200160002060020160009054906101000a900473ffffffffffffffffffffffffffffffffffffffff1673ffffffffffffffffffffffffffffffffffffffff163373ffffffffffffffffffffffffffffffffffffffff16141561197e57600191505b808061198990614f19565b915050611906565b50806119d2576040517f08c379a00000000000000000000000000000000000000000000000000000000081526004016119c990614a69565b60405180910390fd5b60006119de8786613cba565b90506001151581151514611a27576040517f08c379a0000000000000000000000000000000000000000000000000000000008152600401611a1e90614969565b60405180910390fd5b6000611a3288612d7a565b90506000611a3f896115f3565b905060006008600084815260200190815260200160002060020160146101000a81548160ff0219169083151502179055506000600190505b818111611bfd578773ffffffffffffffffffffffffffffffffffffffff1660086000858152602001908152602001600020600401600083815260200190815260200160002060000160009054906101000a900473ffffffffffffffffffffffffffffffffffffffff1673ffffffffffffffffffffffffffffffffffffffff161415611bea5786600860008581526020019081526020016000206004016000838152602001908152602001600020600201819055506000611b368a612cd8565b90506000611b438a610faf565b90506000600460008481526020019081526020016000206005015414611b9057600460008381526020019081526020016000206005016000815480929190611b8a90614e8c565b91905055505b6000600660008381526020019081526020016000206005015414611bdb57600660008281526020019081526020016000206005016000815480929190611bd590614e8c565b91905055505b60019750505050505050611c06565b8080611bf590614f19565b915050611a77565b50600094505050505b50949350505050565b6000806000905060005b6003548111611ca4576004600082815260200190815260200160002060020160009054906101000a900473ffffffffffffffffffffffffffffffffffffffff1673ffffffffffffffffffffffffffffffffffffffff163373ffffffffffffffffffffffffffffffffffffffff161415611c9157600191505b8080611c9c90614f19565b915050611c19565b5080611ce5576040517f08c379a0000000000000000000000000000000000000000000000000000000008152600401611cdc90614a69565b60405180910390fd5b3373ffffffffffffffffffffffffffffffffffffffff168373ffffffffffffffffffffffffffffffffffffffff1614611d53576040517f08c379a0000000000000000000000000000000000000000000000000000000008152600401611d4a90614929565b60405180910390fd5b6000611d5e86613dd1565b90506000151581151514611da7576040517f08c379a0000000000000000000000000000000000000000000000000000000008152600401611d9e90614a09565b60405180910390fd5b60076000815480929190611dba90614f19565b91905055508560086000600754815260200190815260200160002060000181905550846008600060075481526020019081526020016000206001019080519060200190611e08929190613ffb565b508360086000600754815260200190815260200160002060020160006101000a81548173ffffffffffffffffffffffffffffffffffffffff021916908373ffffffffffffffffffffffffffffffffffffffff160217905550600160086000600754815260200190815260200160002060020160146101000a81548160ff0219169083151502179055506000611e9c85612cd8565b905060046000828152602001908152602001600020600401879080600181540180825580915050600190039060005260206000200160009091909190915055600193505050509392505050565b6000806000905060005b6001548111611f7e576002600082815260200190815260200160002060020160009054906101000a900473ffffffffffffffffffffffffffffffffffffffff1673ffffffffffffffffffffffffffffffffffffffff163373ffffffffffffffffffffffffffffffffffffffff161415611f6b57600191505b8080611f7690614f19565b915050611ef3565b5080611fbf576040517f08c379a0000000000000000000000000000000000000000000000000000000008152600401611fb690614989565b60405180910390fd5b6001831480611fce5750600283145b80611fd95750600383145b612018576040517f08c379a000000000000000000000000000000000000000000000000000000000815260040161200f906149e9565b60405180910390fd5b6000151561202586613e28565b151514612067576040517f08c379a000000000000000000000000000000000000000000000000000000000815260040161205e90614909565b60405180910390fd5b6009600081548092919061207a90614f19565b9190505550600183141561219c576005600081548092919061209b90614f19565b9190505550600c60008154809291906120b390614f19565b9190505550600c5460066000600554815260200190815260200160002060000181905550836006600060055481526020019081526020016000206001019080519060200190612103929190613ffb565b508460066000600554815260200190815260200160002060020160006101000a81548173ffffffffffffffffffffffffffffffffffffffff021916908373ffffffffffffffffffffffffffffffffffffffff1602179055506001600660006005548152602001908152602001600020600301819055506000600660006005548152602001908152602001600020600501819055506123bf565b60028314156122b957600360008154809291906121b890614f19565b9190505550600b60008154809291906121d090614f19565b9190505550600b5460046000600354815260200190815260200160002060000181905550836004600060035481526020019081526020016000206001019080519060200190612220929190613ffb565b508460046000600354815260200190815260200160002060020160006101000a81548173ffffffffffffffffffffffffffffffffffffffff021916908373ffffffffffffffffffffffffffffffffffffffff1602179055506002600460006003548152602001908152602001600020600301819055506000600460006003548152602001908152602001600020600501819055506123be565b60038314156123bd57600160008154809291906122d590614f19565b9190505550600a60008154809291906122ed90614f19565b91905055506040518060800160405280600a5481526020018581526020018673ffffffffffffffffffffffffffffffffffffffff1681526020016003815250600260006001548152602001908152602001600020600082015181600001556020820151816001019080519060200190612367929190613ffb565b5060408201518160020160006101000a81548173ffffffffffffffffffffffffffffffffffffffff021916908373ffffffffffffffffffffffffffffffffffffffff160217905550606082015181600301559050505b5b5b60019150509392505050565b600080600190505b6001548111612478578273ffffffffffffffffffffffffffffffffffffffff166002600083815260200190815260200160002060020160009054906101000a900473ffffffffffffffffffffffffffffffffffffffff1673ffffffffffffffffffffffffffffffffffffffff1614156124655760026000828152602001908152602001600020600301549150506125d8565b808061247090614f19565b9150506123d3565b506000600190505b6003548111612525578273ffffffffffffffffffffffffffffffffffffffff166004600083815260200190815260200160002060020160009054906101000a900473ffffffffffffffffffffffffffffffffffffffff1673ffffffffffffffffffffffffffffffffffffffff1614156125125760046000828152602001908152602001600020600301549150506125d8565b808061251d90614f19565b915050612480565b506000600190505b60055481116125d2578273ffffffffffffffffffffffffffffffffffffffff166006600083815260200190815260200160002060020160009054906101000a900473ffffffffffffffffffffffffffffffffffffffff1673ffffffffffffffffffffffffffffffffffffffff1614156125bf5760066000828152602001908152602001600020600301549150506125d8565b80806125ca90614f19565b91505061252d565b50600090505b919050565b6000606080606060008590506000806125f589612d7a565b90506000600860008381526020019081526020016000206003015490508381101561261e578093505b60008167ffffffffffffffff81111561263a57612639614fef565b5b6040519080825280602002602001820160405280156126685781602001602082028036833780820191505090505b5090506000600190505b8281116127245760006008600086815260200190815260200160002060040160008381526020019081526020016000206002015411156127115760086000858152602001908152602001600020600401600082815260200190815260200160002060020154826001836126e59190614dce565b815181106126f6576126f5614fc0565b5b602002602001018181525050848061270d90614f19565b9550505b808061271c90614f19565b915050612672565b5084841015612731578394505b60005b815181101561284f576000600190505b825181101561283b578260018261275b9190614dce565b8151811061276c5761276b614fc0565b5b602002602001015183828151811061278757612786614fc0565b5b60200260200101511115612828576000836001836127a59190614dce565b815181106127b6576127b5614fc0565b5b602002602001015190508382815181106127d3576127d2614fc0565b5b6020026020010151846001846127e99190614dce565b815181106127fa576127f9614fc0565b5b6020026020010181815250508084838151811061281a57612819614fc0565b5b602002602001018181525050505b808061283390614f19565b915050612744565b50808061284790614f19565b915050612734565b5060008567ffffffffffffffff81111561286c5761286b614fef565b5b60405190808252806020026020018201604052801561289a5781602001602082028036833780820191505090505b50905060008667ffffffffffffffff8111156128b9576128b8614fef565b5b6040519080825280602002602001820160405280156128e75781602001602082028036833780820191505090505b50905060008767ffffffffffffffff81111561290657612905614fef565b5b6040519080825280602002602001820160405280156129345781602001602082028036833780820191505090505b5090506000805b8551811015612afd578982141561295157612afd565b85818151811061296457612963614fc0565b5b602002602001015183828151811061297f5761297e614fc0565b5b6020026020010181815250506000600190505b878111612adb57600860008a81526020019081526020016000206004016000828152602001908152602001600020600201548483815181106129d7576129d6614fc0565b5b60200260200101511415612ac857600860008a8152602001908152602001600020600401600082815260200190815260200160002060010154858381518110612a2357612a22614fc0565b5b602002602001018181525050600860008a8152602001908152602001600020600401600082815260200190815260200160002060000160009054906101000a900473ffffffffffffffffffffffffffffffffffffffff16868381518110612a8d57612a8c614fc0565b5b602002602001019073ffffffffffffffffffffffffffffffffffffffff16908173ffffffffffffffffffffffffffffffffffffffff16815250505b8080612ad390614f19565b915050612992565b508180612ae790614f19565b9250508080612af590614f19565b91505061293b565b50888385849c509c509c509c5050505050505050505092959194509250565b600080600190505b6005548111612b9d578260066000838152602001908152602001600020600001541415612b8a576006600082815260200190815260200160002060020160009054906101000a900473ffffffffffffffffffffffffffffffffffffffff16915050612ba3565b8080612b9590614f19565b915050612b24565b50600090505b919050565b60008054906101000a900473ffffffffffffffffffffffffffffffffffffffff1681565b6060600060055467ffffffffffffffff811115612bec57612beb614fef565b5b604051908082528060200260200182016040528015612c1a5781602001602082028036833780820191505090505b5090506000600190505b6005548111612cd0576006600082815260200190815260200160002060020160009054906101000a900473ffffffffffffffffffffffffffffffffffffffff1682600183612c729190614dce565b81518110612c8357612c82614fc0565b5b602002602001019073ffffffffffffffffffffffffffffffffffffffff16908173ffffffffffffffffffffffffffffffffffffffff16815250508080612cc890614f19565b915050612c24565b508091505090565b600080600190505b6003548111612d6f578273ffffffffffffffffffffffffffffffffffffffff166004600083815260200190815260200160002060020160009054906101000a900473ffffffffffffffffffffffffffffffffffffffff1673ffffffffffffffffffffffffffffffffffffffff161415612d5c5780915050612d75565b8080612d6790614f19565b915050612ce0565b50600090505b919050565b600080600090506000600190505b6007548111612dcf578360086000838152602001908152602001600020600001541415612dbc578091508192505050612dd6565b8080612dc790614f19565b915050612d88565b5060009150505b919050565b60606000612de883612d7a565b9050600860008281526020019081526020016000206001018054612e0b90614eb6565b80601f0160208091040260200160405190810160405280929190818152602001828054612e3790614eb6565b8015612e845780601f10612e5957610100808354040283529160200191612e84565b820191906000526020600020905b815481529060010190602001808311612e6757829003601f168201915b5050505050915050919050565b600080612e9d84612d7a565b90506000600190505b60086000838152602001908152602001600020600301548111612f88578373ffffffffffffffffffffffffffffffffffffffff1660086000848152602001908152602001600020600401600083815260200190815260200160002060000160009054906101000a900473ffffffffffffffffffffffffffffffffffffffff1673ffffffffffffffffffffffffffffffffffffffff161415612f75576008600083815260200190815260200160002060040160008281526020019081526020016000206002015492505050612f8f565b8080612f8090614f19565b915050612ea6565b5060009150505b92915050565b600080600190505b6001548111613042578273ffffffffffffffffffffffffffffffffffffffff166002600083815260200190815260200160002060020160009054906101000a900473ffffffffffffffffffffffffffffffffffffffff1673ffffffffffffffffffffffffffffffffffffffff16141561302f5760026000828152602001908152602001600020600001549150506131a2565b808061303a90614f19565b915050612f9d565b506000600190505b60035481116130ef578273ffffffffffffffffffffffffffffffffffffffff166004600083815260200190815260200160002060020160009054906101000a900473ffffffffffffffffffffffffffffffffffffffff1673ffffffffffffffffffffffffffffffffffffffff1614156130dc5760046000828152602001908152602001600020600001549150506131a2565b80806130e790614f19565b91505061304a565b506000600190505b600554811161319c578273ffffffffffffffffffffffffffffffffffffffff166006600083815260200190815260200160002060020160009054906101000a900473ffffffffffffffffffffffffffffffffffffffff1673ffffffffffffffffffffffffffffffffffffffff1614156131895760066000828152602001908152602001600020600001549150506131a2565b808061319490614f19565b9150506130f7565b50600090505b919050565b6000806000905060005b600154811161323c576002600082815260200190815260200160002060020160009054906101000a900473ffffffffffffffffffffffffffffffffffffffff1673ffffffffffffffffffffffffffffffffffffffff163373ffffffffffffffffffffffffffffffffffffffff16141561322957600191505b808061323490614f19565b9150506131b1565b508061327d576040517f08c379a000000000000000000000000000000000000000000000000000000000815260040161327490614989565b60405180910390fd5b6001151561328a84613e28565b1515146132cc576040517f08c379a00000000000000000000000000000000000000000000000000000000081526004016132c3906149c9565b60405180910390fd5b60006132d7846123cb565b9050600081141561331d576040517f08c379a000000000000000000000000000000000000000000000000000000000815260040161331490614a89565b60405180910390fd5b60018114156135ed57600061333185610faf565b9050600060066000838152602001908152602001600020600501541461338c576040517f08c379a000000000000000000000000000000000000000000000000000000000815260040161338390614a49565b60405180910390fd5b60008190505b60055481101561355757600660006001836133ad9190614d78565b8152602001908152602001600020600001546006600083815260200190815260200160002060000181905550600660006001836133ea9190614d78565b81526020019081526020016000206001016006600083815260200190815260200160002060010190805461341d90614eb6565b613428929190614081565b506006600060018361343a9190614d78565b815260200190815260200160002060020160009054906101000a900473ffffffffffffffffffffffffffffffffffffffff166006600083815260200190815260200160002060020160006101000a81548173ffffffffffffffffffffffffffffffffffffffff021916908373ffffffffffffffffffffffffffffffffffffffff160217905550600660006001836134d19190614d78565b81526020019081526020016000206003015460066000838152602001908152602001600020600301819055506006600060018361350e9190614d78565b81526020019081526020016000206004016006600083815260200190815260200160002060040190805461354392919061410e565b50808061354f90614f19565b915050613392565b506006600060055481526020019081526020016000206000808201600090556001820160006135869190614160565b6002820160006101000a81549073ffffffffffffffffffffffffffffffffffffffff021916905560038201600090556004820160006135c591906141a0565b60058201600090555050600560008154809291906135e290614e8c565b919050555050613ad3565b60028114156138bd57600061360185612cd8565b9050600060046000838152602001908152602001600020600501541461365c576040517f08c379a000000000000000000000000000000000000000000000000000000000815260040161365390614949565b60405180910390fd5b60008190505b600354811015613827576004600060018361367d9190614d78565b8152602001908152602001600020600001546004600083815260200190815260200160002060000181905550600460006001836136ba9190614d78565b8152602001908152602001600020600101600460008381526020019081526020016000206001019080546136ed90614eb6565b6136f8929190614081565b506004600060018361370a9190614d78565b815260200190815260200160002060020160009054906101000a900473ffffffffffffffffffffffffffffffffffffffff166004600083815260200190815260200160002060020160006101000a81548173ffffffffffffffffffffffffffffffffffffffff021916908373ffffffffffffffffffffffffffffffffffffffff160217905550600460006001836137a19190614d78565b8152602001908152602001600020600301546004600083815260200190815260200160002060030181905550600460006001836137de9190614d78565b81526020019081526020016000206004016004600083815260200190815260200160002060040190805461381392919061410e565b50808061381f90614f19565b915050613662565b506004600060035481526020019081526020016000206000808201600090556001820160006138569190614160565b6002820160006101000a81549073ffffffffffffffffffffffffffffffffffffffff0219169055600382016000905560048201600061389591906141a0565b60058201600090555050600360008154809291906138b290614e8c565b919050555050613ad2565b6003811415613ad15760006138d185610e35565b905060008190505b600154811015613a5757600260006001836138f49190614d78565b8152602001908152602001600020600001546002600083815260200190815260200160002060000181905550600260006001836139319190614d78565b81526020019081526020016000206001016002600083815260200190815260200160002060010190805461396490614eb6565b61396f929190614081565b50600260006001836139819190614d78565b815260200190815260200160002060020160009054906101000a900473ffffffffffffffffffffffffffffffffffffffff166002600083815260200190815260200160002060020160006101000a81548173ffffffffffffffffffffffffffffffffffffffff021916908373ffffffffffffffffffffffffffffffffffffffff16021790555060026000600183613a189190614d78565b81526020019081526020016000206003015460026000838152602001908152602001600020600301819055508080613a4f90614f19565b9150506138d9565b50600260006001548152602001908152602001600020600080820160009055600182016000613a869190614160565b6002820160006101000a81549073ffffffffffffffffffffffffffffffffffffffff02191690556003820160009055505060016000815480929190613aca90614e8c565b9190505550505b5b5b60096000815480929190613ae690614e8c565b9190505550600192505050919050565b6060600060075467ffffffffffffffff811115613b1657613b15614fef565b5b604051908082528060200260200182016040528015613b445781602001602082028036833780820191505090505b5090506000600190505b6007548111613bac57600860008281526020019081526020016000206000015482600183613b7c9190614dce565b81518110613b8d57613b8c614fc0565b5b6020026020010181815250508080613ba490614f19565b915050613b4e565b508091505090565b60055481565b60015481565b600080600190505b6007548111613c3d578260086000838152602001908152602001600020600001541415613c2a57600115156008600083815260200190815260200160002060020160149054906101000a900460ff1615151415613c29576001915050613c43565b5b8080613c3590614f19565b915050613bc8565b50600090505b919050565b6000600190505b6007548111613cb6578160086000838152602001908152602001600020600001541415613ca357600860008281526020019081526020016000206003016000815480929190613c9d90614f19565b91905055505b8080613cae90614f19565b915050613c4f565b5050565b600080600190505b6005548111613dc5578273ffffffffffffffffffffffffffffffffffffffff166006600083815260200190815260200160002060020160009054906101000a900473ffffffffffffffffffffffffffffffffffffffff1673ffffffffffffffffffffffffffffffffffffffff161415613db25760005b60066000838152602001908152602001600020600401805490508111613db05784600660008481526020019081526020016000206004018281548110613d8157613d80614fc0565b5b90600052602060002001541415613d9d57600192505050613dcb565b8080613da890614f19565b915050613d38565b505b8080613dbd90614f19565b915050613cc2565b50600090505b92915050565b600080600190505b6007548111613e1d578260086000838152602001908152602001600020600001541415613e0a576001915050613e23565b8080613e1590614f19565b915050613dd9565b50600090505b919050565b600080600190505b6001548111613ec0578273ffffffffffffffffffffffffffffffffffffffff166002600083815260200190815260200160002060020160009054906101000a900473ffffffffffffffffffffffffffffffffffffffff1673ffffffffffffffffffffffffffffffffffffffff161415613ead576001915050613ff6565b8080613eb890614f19565b915050613e30565b506000600190505b6003548111613f58578273ffffffffffffffffffffffffffffffffffffffff166004600083815260200190815260200160002060020160009054906101000a900473ffffffffffffffffffffffffffffffffffffffff1673ffffffffffffffffffffffffffffffffffffffff161415613f45576001915050613ff6565b8080613f5090614f19565b915050613ec8565b506000600190505b6005548111613ff0578273ffffffffffffffffffffffffffffffffffffffff166006600083815260200190815260200160002060020160009054906101000a900473ffffffffffffffffffffffffffffffffffffffff1673ffffffffffffffffffffffffffffffffffffffff161415613fdd576001915050613ff6565b8080613fe890614f19565b915050613f60565b50600090505b919050565b82805461400790614eb6565b90600052602060002090601f0160209004810192826140295760008555614070565b82601f1061404257805160ff1916838001178555614070565b82800160010185558215614070579182015b8281111561406f578251825591602001919060010190614054565b5b50905061407d91906141c1565b5090565b82805461408d90614eb6565b90600052602060002090601f0160209004810192826140af57600085556140fd565b82601f106140c057805485556140fd565b828001600101855582156140fd57600052602060002091601f016020900482015b828111156140fc5782548255916001019190600101906140e1565b5b50905061410a91906141c1565b5090565b82805482825590600052602060002090810192821561414f5760005260206000209182015b8281111561414e578254825591600101919060010190614133565b5b50905061415c91906141c1565b5090565b50805461416c90614eb6565b6000825580601f1061417e575061419d565b601f01602090049060005260206000209081019061419c91906141c1565b5b50565b50805460008255906000526020600020908101906141be91906141c1565b50565b5b808211156141da5760008160009055506001016141c2565b5090565b60006141f16141ec84614cb9565b614c94565b90508281526020810184848401111561420d5761420c615023565b5b614218848285614e4a565b509392505050565b60008135905061422f8161533c565b92915050565b600082601f83011261424a5761424961501e565b5b813561425a8482602086016141de565b91505092915050565b60008135905061427281615353565b92915050565b60006020828403121561428e5761428d61502d565b5b600061429c84828501614220565b91505092915050565b6000806000606084860312156142be576142bd61502d565b5b60006142cc86828701614220565b935050602084013567ffffffffffffffff8111156142ed576142ec615028565b5b6142f986828701614235565b925050604061430a86828701614263565b9150509250925092565b60006020828403121561432a5761432961502d565b5b600061433884828501614263565b91505092915050565b600080604083850312156143585761435761502d565b5b600061436685828601614263565b925050602061437785828601614220565b9150509250929050565b60008060006060848603121561439a5761439961502d565b5b60006143a886828701614263565b93505060206143b986828701614220565b92505060406143ca86828701614220565b9150509250925092565b600080600080608085870312156143ee576143ed61502d565b5b60006143fc87828801614263565b945050602061440d87828801614220565b935050604061441e87828801614220565b925050606061442f87828801614263565b91505092959194509250565b6000806000606084860312156144545761445361502d565b5b600061446286828701614263565b935050602084013567ffffffffffffffff81111561448357614482615028565b5b61448f86828701614235565b92505060406144a086828701614220565b9150509250925092565b600080604083850312156144c1576144c061502d565b5b60006144cf85828601614263565b92505060206144e085828601614263565b9150509250929050565b60006144f6838361451a565b60208301905092915050565b600061450e8383614803565b60208301905092915050565b61452381614e02565b82525050565b61453281614e02565b82525050565b600061454382614d0a565b61454d8185614d45565b935061455883614cea565b8060005b8381101561458957815161457088826144ea565b975061457b83614d2b565b92505060018101905061455c565b5085935050505092915050565b60006145a182614d15565b6145ab8185614d56565b93506145b683614cfa565b8060005b838110156145e75781516145ce8882614502565b97506145d983614d38565b9250506001810190506145ba565b5085935050505092915050565b6145fd81614e14565b82525050565b600061460e82614d20565b6146188185614d67565b9350614628818560208601614e59565b61463181615032565b840191505092915050565b6000614649602d83614d67565b915061465482615043565b604082019050919050565b600061466c603683614d67565b915061467782615092565b604082019050919050565b600061468f603883614d67565b915061469a826150e1565b604082019050919050565b60006146b2602683614d67565b91506146bd82615130565b604082019050919050565b60006146d5601583614d67565b91506146e08261517f565b602082019050919050565b60006146f8601583614d67565b9150614703826151a8565b602082019050919050565b600061471b601883614d67565b9150614726826151d1565b602082019050919050565b600061473e600c83614d67565b9150614749826151fa565b602082019050919050565b6000614761601f83614d67565b915061476c82615223565b602082019050919050565b6000614784601583614d67565b915061478f8261524c565b602082019050919050565b60006147a7603683614d67565b91506147b282615275565b604082019050919050565b60006147ca601383614d67565b91506147d5826152c4565b602082019050919050565b60006147ed603283614d67565b91506147f8826152ed565b604082019050919050565b61480c81614e40565b82525050565b61481b81614e40565b82525050565b60006020820190506148366000830184614529565b92915050565b600060208201905081810360008301526148568184614538565b905092915050565b600060208201905081810360008301526148788184614596565b905092915050565b6000606082019050818103600083015261489a8186614596565b905081810360208301526148ae8185614538565b905081810360408301526148c28184614596565b9050949350505050565b60006020820190506148e160008301846145f4565b92915050565b600060208201905081810360008301526149018184614603565b905092915050565b600060208201905081810360008301526149228161463c565b9050919050565b600060208201905081810360008301526149428161465f565b9050919050565b6000602082019050818103600083015261496281614682565b9050919050565b60006020820190508181036000830152614982816146a5565b9050919050565b600060208201905081810360008301526149a2816146c8565b9050919050565b600060208201905081810360008301526149c2816146eb565b9050919050565b600060208201905081810360008301526149e28161470e565b9050919050565b60006020820190508181036000830152614a0281614731565b9050919050565b60006020820190508181036000830152614a2281614754565b9050919050565b60006020820190508181036000830152614a4281614777565b9050919050565b60006020820190508181036000830152614a628161479a565b9050919050565b60006020820190508181036000830152614a82816147bd565b9050919050565b60006020820190508181036000830152614aa2816147e0565b9050919050565b6000602082019050614abe6000830184614812565b92915050565b6000608082019050614ad96000830187614812565b8181036020830152614aeb8186614596565b90508181036040830152614aff8185614538565b90508181036060830152614b138184614596565b905095945050505050565b600060a082019050614b336000830188614812565b8181036020830152614b458187614603565b9050614b546040830186614529565b614b6160608301856145f4565b614b6e6080830184614812565b9695505050505050565b6000608082019050614b8d6000830187614812565b8181036020830152614b9f8186614603565b9050614bae6040830185614529565b614bbb6060830184614812565b95945050505050565b600060c082019050614bd96000830189614812565b8181036020830152614beb8188614603565b9050614bfa6040830187614529565b614c076060830186614812565b8181036080830152614c198185614596565b905081810360a0830152614c2d8184614596565b9050979650505050505050565b600060a082019050614c4f6000830188614812565b8181036020830152614c618187614603565b9050614c706040830186614529565b614c7d6060830185614812565b614c8a6080830184614812565b9695505050505050565b6000614c9e614caf565b9050614caa8282614ee8565b919050565b6000604051905090565b600067ffffffffffffffff821115614cd457614cd3614fef565b5b614cdd82615032565b9050602081019050919050565b6000819050602082019050919050565b6000819050602082019050919050565b600081519050919050565b600081519050919050565b600081519050919050565b6000602082019050919050565b6000602082019050919050565b600082825260208201905092915050565b600082825260208201905092915050565b600082825260208201905092915050565b6000614d8382614e40565b9150614d8e83614e40565b9250827fffffffffffffffffffffffffffffffffffffffffffffffffffffffffffffffff03821115614dc357614dc2614f62565b5b828201905092915050565b6000614dd982614e40565b9150614de483614e40565b925082821015614df757614df6614f62565b5b828203905092915050565b6000614e0d82614e20565b9050919050565b60008115159050919050565b600073ffffffffffffffffffffffffffffffffffffffff82169050919050565b6000819050919050565b82818337600083830152505050565b60005b83811015614e77578082015181840152602081019050614e5c565b83811115614e86576000848401525b50505050565b6000614e9782614e40565b91506000821415614eab57614eaa614f62565b5b600182039050919050565b60006002820490506001821680614ece57607f821691505b60208210811415614ee257614ee1614f91565b5b50919050565b614ef182615032565b810181811067ffffffffffffffff82111715614f1057614f0f614fef565b5b80604052505050565b6000614f2482614e40565b91507fffffffffffffffffffffffffffffffffffffffffffffffffffffffffffffffff821415614f5757614f56614f62565b5b600182019050919050565b7f4e487b7100000000000000000000000000000000000000000000000000000000600052601160045260246000fd5b7f4e487b7100000000000000000000000000000000000000000000000000000000600052602260045260246000fd5b7f4e487b7100000000000000000000000000000000000000000000000000000000600052603260045260246000fd5b7f4e487b7100000000000000000000000000000000000000000000000000000000600052604160045260246000fd5b600080fd5b600080fd5b600080fd5b600080fd5b6000601f19601f8301169050919050565b7f5468697320616464726573732068617320616c7265616479206265656e20736560008201527f74207065726d697373696f6e7300000000000000000000000000000000000000602082015250565b7f3e3e3e5468652070726f426c6f636b41646472657373206e6f206d617463682060008201527f7468652063757272656e74206164647265737321212100000000000000000000602082015250565b7f3e3e3e546869732070726f666573736f72206973207465616368696e672c206360008201527f616e742072656d6f7665207065726d697373696f6e2121210000000000000000602082015250565b7f3e3e3e73747564656e7420646f6573206e6f74206f776e207468697320636f7560008201527f7273652121210000000000000000000000000000000000000000000000000000602082015250565b7f3e3e3e3e3e3e697341646d696e203d2066616c73650000000000000000000000600082015250565b7f3e3e3e63616e4170706c795f203d3d2066616c73650000000000000000000000600082015250565b7f3e3e3e546869732061646472657373206e6f2065786973740000000000000000600082015250565b7f756e617574686f72697a65640000000000000000000000000000000000000000600082015250565b7f3e3e3e5f636f75727365496420616c7265616479206578697374656421212100600082015250565b7f3e3e3e3e3e3e7265706561746564203d20747275650000000000000000000000600082015250565b7f3e3e3e546869732073747564656e74206973206c6561726e696e672c2063616e60008201527f742072656d6f7665207065726d697373696f6e21212100000000000000000000602082015250565b7f697350726f666573736f72203d2066616c736500000000000000000000000000600082015250565b7f3e3e3e5468697320626c6f636b4164647265737320776173206f726967696e6160008201527f6c6c79206e6f7420617574686f72697a65640000000000000000000000000000602082015250565b61534581614e02565b811461535057600080fd5b50565b61535c81614e40565b811461536757600080fd5b5056fea26469706673582212209909040f1ad400d3e82ee9f1cdc2a591e395d070928850ede95c99164f40e21e64736f6c63430008070033",
  "immutableReferences": {},
  "source": "// SPDX-License-Identifier: MIT\r\npragma solidity >=0.4.22 <0.9.0;\r\n\r\n\r\n/*\r\n\r\n// professor (inherit)StructAndModifiers, Admin\r\n\r\n// : onlyProfessor\r\n// All functions in this contract are marked as: onlyprofessor\r\n1. createCourse()               //   Create course\r\n\r\n2. applyCourse()                //   Join the course\r\n\r\n3. createCourseGrade()          //   Create grades\r\n\r\n4. getGradeByProAddress()            //      View the grades of all students in the subject\r\n\r\n5. getGradeByProProAddrAndStuAddr()    //        View the grade of a student in a subject\r\n\r\n\r\n*/\r\n\r\n\r\nimport \"./Admin.sol\";\r\ncontract Professor is Admin {\r\n    //////////////////////////////////////////////////////////////////////////////////////////////////////////////\r\n    //   Only teachers have permission to create courses\r\n    function createCourse (uint _courseId, string memory _courseName,address _proBlockAddress) public onlyProfessor returns(bool){    \r\n        //  Check whether the proid matches the address\r\n        require(_proBlockAddress == msg.sender,\">>>The proBlockAddress no match the current address!!!\");\r\n        \r\n        //  Check whether the created course information already exists\r\n        bool isExisted = checkCourseExisted(_courseId); \r\n        require(isExisted == false,\">>>_courseId already existed!!!\");\r\n        \r\n        // onlyProfessorproBlockAddress\r\n        \r\n        //  Self increasing\r\n        courseCounts ++;\r\n        \r\n        //    Create initialization without students and grades\r\n        courseInfs[courseCounts].courseId = _courseId;\r\n        courseInfs[courseCounts].courseName = _courseName;\r\n        courseInfs[courseCounts].proBlockAddress = _proBlockAddress;\r\n        courseInfs[courseCounts].canApply = true;\r\n        \r\n        // course ID\r\n        // After successful creation, you need to put this course ID into the corresponding professor's file\r\n        uint professorIndex = getProfessorIndexByAddress(_proBlockAddress);\r\n        // ID Put the ID in the corresponding professor's file\r\n        professorSelfs[professorIndex].myProCourses.push(_courseId);  \r\n        \r\n        return true;\r\n        \r\n    }\r\n    \r\n    \r\n     //////////////////////////////////////////////////////////////////////////////////////////////////////////////\r\n    //  Professor Only professors have permission to join the course\r\n    \r\n    function applyCourse (uint _courseId,address _proBlockAddress,address _stuBlockAddress) public onlyProfessor returns(bool){\r\n        \r\n        // _proBlockAddress Check whether the proid matches the address\r\n        //require(_proBlockAddress == msg.sender,\">>>The proId no match the current address!!!\");\r\n        \r\n        //  Check whether the course information exists\r\n        //bool isExisted = checkCourseExisted(_courseId); \r\n        //require(isExisted == true,\">>>_courseId no existed!!!\");\r\n        \r\n        //  Check whether this course can be applied\r\n        bool canApply_ = checkCourseCanApply(_courseId);\r\n        require(canApply_ == true,\">>>canApply_ == false\");\r\n        \r\n        //  Check whether the professor has this course\r\n        //bool isheldByPro = checkCourseHeldByProBlockAddress(_courseId,_proBlockAddress);\r\n        //require(isheldByPro == true,\">>>professor does not own this course!!!\");\r\n              \r\n        // id Check whether the student ID is a student\r\n        //bool isStudent = checkIsStudent(_stuBlockAddress);\r\n        //require(isStudent == true,\">>>stuID is not a student!!!\");\r\n        \r\n        // student address\r\n        // After successful creation, you need to put this student ID into the corresponding student's file\r\n        uint studentIndex = getStudentIndexByAddress(_stuBlockAddress);\r\n        // \r\n        uint _stuId = studentSelfs[studentIndex].stuId;\r\n        //string memory _stuName = studentSelfs[studentIndex].stuName;\r\n\r\n        // ID Put the ID in the corresponding student's file\r\n        // course ID.  At this time, check whether there is a duplicate course ID\r\n        bool repeated = false;\r\n        for(uint i=0;i<studentSelfs[studentIndex].myStuCourses.length;i++){\r\n            if(studentSelfs[studentIndex].myStuCourses[i]==_courseId){\r\n                repeated = true;\r\n            }\r\n        }\r\n        require(repeated == false,\">>>>>>repeated = true\");\r\n        \r\n        // ,  No duplication, can apply\r\n        // id\r\n        studentSelfs[studentIndex].myStuCourses.push(_courseId);\r\n\r\n        //  ,\r\n        // First find the course and put the students' information into the corresponding course\r\n        uint indexOfCourseID = getIndexByCourseId(_courseId);\r\n\r\n        // \r\n        //string memory courseName_ = courseInfs[indexOfCourseID].courseName;\r\n        //studentSelfs[studentIndex].myStuCourseNames.push(courseName_);\r\n\r\n        // ,  \r\n        // +1\r\n        // +1, courseStudentCounts_  \r\n        \r\n        //Find the length of the array of students stored in this course, that is, the number of students who have taken this course\r\n        //New students will be assigned to the position of number + 1\r\n        //First assign the number of people + 1, and then assign it to coursestudentcounts_\r\n        \r\n        setcourseStudentCounts(_courseId);\r\n        uint courseStudentCounts_ = getcourseStudentCounts(_courseId);    \r\n        courseInfs[indexOfCourseID].courseStudents[courseStudentCounts_].stuBlockAddress = _stuBlockAddress;\r\n        courseInfs[indexOfCourseID].courseStudents[courseStudentCounts_].stuId = _stuId;\r\n        //courseInfs[indexOfCourseID].courseStudents[courseStudentCounts_].stuName = _stuName;\r\n\r\n        // ,+1   // Whenever a student applies, + 1\r\n        // isTeachingPeopleSum++\r\n        uint professorIndex = getProfessorIndexByAddress(_proBlockAddress);\r\n        professorSelfs[professorIndex].isTeachingPeopleSum += 1;\r\n        \r\n        //    // Set students in class\r\n        // isLearningSum++\r\n        studentSelfs[studentIndex].isLearningSum += 1;\r\n        \r\n        return true;\r\n        \r\n    }\r\n    \r\n    \r\n    // (onlyprofessor)  ==> course\r\n    // Create grade (onlyprofessor) = = > save to course class\r\n    //////////////////////////////////////////////////////////////////////////////////////////////////////////////\r\n    //     Only teachers have permission to create grades\r\n    //  _courseId ,  _proBlockAddress , _stuBlockAddress, _stuGrade\r\n    function createCourseGrade (uint _courseId,address _proBlockAddress,address _stuBlockAddress,uint _stuGrade) public onlyProfessor returns(bool){\r\n        \r\n        // _proBlockAddress Check whether the proid matches the address\r\n        //require(_proBlockAddress == msg.sender,\">>>The proId no match the current address!!!\");\r\n        \r\n        //  Check whether the course information exists\r\n        //bool isExisted = checkCourseExisted(_courseId); \r\n        //require(isExisted == true,\">>>_courseId no existed!!!\");\r\n        \r\n        // pro  First check whether the professor is proid's own course\r\n        //bool isheldByPro = checkCourseHeldByProBlockAddress(_courseId,_proBlockAddress);\r\n        //require(isheldByPro == true,\">>>professor does not own this course!!!\");\r\n        \r\n        // checkstu Check is stuid's own course\r\n        bool isheldByStu = checkCourseHeldByStuBlockAddress(_courseId,_stuBlockAddress);\r\n        require(isheldByStu == true,\">>>student does not own this course!!!\");\r\n        \r\n        //  Find the course first\r\n        uint indexOfCourseID = getIndexByCourseId(_courseId);\r\n        // ,  \r\n        // Find the length of the array of students stored in this course, that is, the number of students taking this course\r\n        uint courseStudentCounts_ = getcourseStudentCounts(_courseId);\r\n        \r\n        // \r\n        // Students can not apply for this course after they get their grades\r\n        courseInfs[indexOfCourseID].canApply = false;\r\n\r\n        //  \r\n        // Find the corresponding students' grades under the corresponding courses\r\n        for(uint j=1;j<=courseStudentCounts_;j++){\r\n            if(courseInfs[indexOfCourseID].courseStudents[j].stuBlockAddress==_stuBlockAddress){\r\n                //      Information matching, giving results\r\n                courseInfs[indexOfCourseID].courseStudents[j].stuGrade = _stuGrade;\r\n                \r\n                //   Update the status number of teachers and students\r\n                uint professorIndex = getProfessorIndexByAddress(_proBlockAddress);\r\n                uint studentIndex = getStudentIndexByAddress(_stuBlockAddress);\r\n                \r\n                if(professorSelfs[professorIndex].isTeachingPeopleSum != 0){\r\n                    // isTeaching--\r\n                    professorSelfs[professorIndex].isTeachingPeopleSum--;\r\n                }\r\n                if(studentSelfs[studentIndex].isLearningSum != 0){\r\n                    // isLearning--\r\n                    studentSelfs[studentIndex].isLearningSum--;\r\n                }\r\n                \r\n                \r\n                // \r\n                //studentSelfs[studentIndex].myStuCoursesGrades.push(_stuGrade);\r\n\r\n                return true;    //  Update complete\r\n            }\r\n        }\r\n        // \r\n        return false;  //  \r\n        \r\n    }\r\n    \r\n/*\r\n    //   View the scores of all students in a subject\r\n    // If it is a professor, it can view the scores of students in his course\r\n    function getGradeByProAddress(uint _courseId, address _proBlockAddress) public view onlyProfessor returns(address[] memory, uint[] memory){\r\n        \r\n        // proBlockAddress Check whether the proid matches the address\r\n        require(_proBlockAddress == msg.sender,\">>>The proId no match the current address!!!\");\r\n        \r\n        //  Check whether the course information exists\r\n        bool isExisted = checkCourseExisted(_courseId); \r\n        require(isExisted == true,\">>>_courseId no existed!!!\");\r\n        \r\n        \r\n        // checkproId Check is proid's own course\r\n        bool isheldByPro = checkCourseHeldByProBlockAddress(_courseId,_proBlockAddress);\r\n        require(isheldByPro == true,\">>>professor does not own this course!!!\");\r\n        \r\n        ///\r\n        //  The results of all students under the course will be listed\r\n        \r\n        //  Find the course first\r\n        uint indexOfCourseID = getIndexByCourseId(_courseId);\r\n        \r\n        // ,  \r\n        // Find the length of the array of students stored in this course, that is, the number of students taking this course\r\n        uint courseStudentCounts_ = getcourseStudentCounts(_courseId);\r\n              \r\n        address[] memory myStudentAddress = new address[](courseStudentCounts_);\r\n        uint[] memory myStudentsGrade  = new uint[](courseStudentCounts_);\r\n              \r\n        for(uint j=1;j<=courseStudentCounts_;j++){\r\n            myStudentAddress[j-1] = courseInfs[indexOfCourseID].courseStudents[j].stuBlockAddress;\r\n            myStudentsGrade[j-1] = courseInfs[indexOfCourseID].courseStudents[j].stuGrade;\r\n        }    \r\n        return (myStudentAddress,myStudentsGrade) ;  //  complete\r\n          \r\n    }\r\n\r\n    \r\n*/   \r\n\r\n\r\n/*\r\n    //  View the results of a student in a subject\r\n    function getGradeByProAddrAndStuAddr(uint _courseId,address _proBlockAddress,address _stuBlockAddress) public view onlyProfessor returns(uint){\r\n        \r\n        // _proBlockAddress Check whether the proid matches the address\r\n        require(_proBlockAddress == msg.sender,\">>>The proId no match the current address!!!\");\r\n        \r\n        //  Check whether the course information exists\r\n        bool isExisted = checkCourseExisted(_courseId); \r\n        require(isExisted == true,\">>>_courseId no existed!!!\");\r\n        \r\n        // checkpro Check whether it is a course of proid\r\n        bool isheldByPro = checkCourseHeldByProBlockAddress(_courseId,_proBlockAddress);\r\n        require(isheldByPro == true,\">>>professor does not own this course!!!\");\r\n        \r\n        // checkstuId Check whether it is the course of stuid\r\n        bool isheldByStu = checkCourseHeldByStuBlockAddress(_courseId,_stuBlockAddress);\r\n        require(isheldByStu == true,\">>>student does not own this course!!!\");\r\n        \r\n        ///\r\n        //  Will list their achievements \r\n        //   Find the course first\r\n        uint indexOfCourseID = getIndexByCourseId(_courseId);\r\n        \r\n        // ,  \r\n        // Find the length of the array of students stored in this course, that is, the number of students taking this course\r\n        uint courseStudentCounts_ = getcourseStudentCounts(_courseId);\r\n            \r\n        uint myCourseGrade;\r\n        //   Find the corresponding student under the corresponding course\r\n        for(uint j=1;j<=courseStudentCounts_;j++){\r\n            if(courseInfs[indexOfCourseID].courseStudents[j].stuBlockAddress==_stuBlockAddress){\r\n                //   get Information matching, get score\r\n                myCourseGrade = courseInfs[indexOfCourseID].courseStudents[j].stuGrade;\r\n                return myCourseGrade;    //  complete\r\n            }\r\n        }\r\n        //  Otherwise, it will fail\r\n        return 0;  //  complete\r\n        \r\n    }\r\n*/\r\n    \r\n\r\n                    \r\n\r\n    \r\n}\r\n\r\n\r\n\r\n\r\n",
  "sourcePath": "D:\\desktop\\truffle_v4.3\\contracts\\Professor.sol",
  "compiler": {
    "name": "solc",
    "version": "0.8.7+commit.e28d00a7.Emscripten.clang"
  },
  "schemaVersion": "3.4.3",
  "updatedAt": "2021-12-04T17:13:23.720Z",
  "devdoc": {
    "kind": "dev",
    "methods": {},
    "version": 1
  },
  "userdoc": {
    "kind": "user",
    "methods": {},
    "version": 1
  }
}