{
  "contractName": "Professor",
  "abi": [
    {
      "inputs": [],
      "name": "adminCounts",
      "outputs": [
        {
          "internalType": "uint256",
          "name": "",
          "type": "uint256"
        }
      ],
      "stateMutability": "view",
      "type": "function",
      "constant": true
    },
    {
      "inputs": [
        {
          "internalType": "uint256",
          "name": "",
          "type": "uint256"
        }
      ],
      "name": "adminSelfs",
      "outputs": [
        {
          "internalType": "uint256",
          "name": "adminId",
          "type": "uint256"
        },
        {
          "internalType": "string",
          "name": "adminName",
          "type": "string"
        },
        {
          "internalType": "address",
          "name": "adminBlockAddress",
          "type": "address"
        },
        {
          "internalType": "uint256",
          "name": "adminAuthorization",
          "type": "uint256"
        }
      ],
      "stateMutability": "view",
      "type": "function",
      "constant": true
    },
    {
      "inputs": [],
      "name": "courseCounts",
      "outputs": [
        {
          "internalType": "uint256",
          "name": "",
          "type": "uint256"
        }
      ],
      "stateMutability": "view",
      "type": "function",
      "constant": true
    },
    {
      "inputs": [
        {
          "internalType": "uint256",
          "name": "",
          "type": "uint256"
        }
      ],
      "name": "courseInfs",
      "outputs": [
        {
          "internalType": "uint256",
          "name": "courseId",
          "type": "uint256"
        },
        {
          "internalType": "string",
          "name": "courseName",
          "type": "string"
        },
        {
          "internalType": "address",
          "name": "proBlockAddress",
          "type": "address"
        },
        {
          "internalType": "bool",
          "name": "canApply",
          "type": "bool"
        },
        {
          "internalType": "uint256",
          "name": "gotStudentGradeCounts",
          "type": "uint256"
        },
        {
          "internalType": "uint256",
          "name": "courseStudentCounts",
          "type": "uint256"
        }
      ],
      "stateMutability": "view",
      "type": "function",
      "constant": true
    },
    {
      "inputs": [
        {
          "internalType": "address",
          "name": "_adminBlockAddress",
          "type": "address"
        }
      ],
      "name": "getAdminIndexByAddress",
      "outputs": [
        {
          "internalType": "uint256",
          "name": "",
          "type": "uint256"
        }
      ],
      "stateMutability": "view",
      "type": "function",
      "constant": true
    },
    {
      "inputs": [],
      "name": "getAllCourseId",
      "outputs": [
        {
          "internalType": "uint256[]",
          "name": "",
          "type": "uint256[]"
        },
        {
          "internalType": "bool[]",
          "name": "",
          "type": "bool[]"
        }
      ],
      "stateMutability": "view",
      "type": "function",
      "constant": true
    },
    {
      "inputs": [],
      "name": "getAllStudentAddress",
      "outputs": [
        {
          "internalType": "address[]",
          "name": "",
          "type": "address[]"
        }
      ],
      "stateMutability": "view",
      "type": "function",
      "constant": true
    },
    {
      "inputs": [
        {
          "internalType": "address",
          "name": "_address",
          "type": "address"
        }
      ],
      "name": "getAuthorizationByAddress",
      "outputs": [
        {
          "internalType": "uint256",
          "name": "",
          "type": "uint256"
        }
      ],
      "stateMutability": "view",
      "type": "function",
      "constant": true
    },
    {
      "inputs": [
        {
          "internalType": "address",
          "name": "_proBlockAddress",
          "type": "address"
        }
      ],
      "name": "getCourseIdByProAddress",
      "outputs": [
        {
          "internalType": "uint256[]",
          "name": "",
          "type": "uint256[]"
        },
        {
          "internalType": "bool[]",
          "name": "",
          "type": "bool[]"
        }
      ],
      "stateMutability": "view",
      "type": "function",
      "constant": true
    },
    {
      "inputs": [
        {
          "internalType": "uint256",
          "name": "_courseid",
          "type": "uint256"
        }
      ],
      "name": "getCourseInfByCourseId",
      "outputs": [
        {
          "internalType": "uint256",
          "name": "",
          "type": "uint256"
        },
        {
          "internalType": "string",
          "name": "",
          "type": "string"
        },
        {
          "internalType": "address",
          "name": "",
          "type": "address"
        },
        {
          "internalType": "uint256",
          "name": "",
          "type": "uint256"
        }
      ],
      "stateMutability": "view",
      "type": "function",
      "constant": true
    },
    {
      "inputs": [
        {
          "internalType": "uint256",
          "name": "_courseId",
          "type": "uint256"
        }
      ],
      "name": "getCourseNameByCourseId",
      "outputs": [
        {
          "internalType": "string",
          "name": "",
          "type": "string"
        }
      ],
      "stateMutability": "view",
      "type": "function",
      "constant": true
    },
    {
      "inputs": [
        {
          "internalType": "uint256",
          "name": "_courseid",
          "type": "uint256"
        }
      ],
      "name": "getCourseStudentInfByCourseId",
      "outputs": [
        {
          "internalType": "uint256[]",
          "name": "",
          "type": "uint256[]"
        },
        {
          "internalType": "address[]",
          "name": "",
          "type": "address[]"
        },
        {
          "internalType": "uint256[]",
          "name": "",
          "type": "uint256[]"
        }
      ],
      "stateMutability": "view",
      "type": "function",
      "constant": true
    },
    {
      "inputs": [
        {
          "internalType": "address",
          "name": "_address",
          "type": "address"
        }
      ],
      "name": "getIdByAddress",
      "outputs": [
        {
          "internalType": "uint256",
          "name": "",
          "type": "uint256"
        }
      ],
      "stateMutability": "view",
      "type": "function",
      "constant": true
    },
    {
      "inputs": [
        {
          "internalType": "uint256",
          "name": "_courseId",
          "type": "uint256"
        }
      ],
      "name": "getIndexByCourseId",
      "outputs": [
        {
          "internalType": "uint256",
          "name": "",
          "type": "uint256"
        }
      ],
      "stateMutability": "view",
      "type": "function",
      "constant": true
    },
    {
      "inputs": [
        {
          "internalType": "address",
          "name": "_proBlockAddress",
          "type": "address"
        }
      ],
      "name": "getProfessorIndexByAddress",
      "outputs": [
        {
          "internalType": "uint256",
          "name": "",
          "type": "uint256"
        }
      ],
      "stateMutability": "view",
      "type": "function",
      "constant": true
    },
    {
      "inputs": [
        {
          "internalType": "address",
          "name": "_profAddr",
          "type": "address"
        }
      ],
      "name": "getProfessorNameByAddress",
      "outputs": [
        {
          "internalType": "string",
          "name": "",
          "type": "string"
        }
      ],
      "stateMutability": "view",
      "type": "function",
      "constant": true
    },
    {
      "inputs": [
        {
          "internalType": "uint256",
          "name": "_stuId",
          "type": "uint256"
        }
      ],
      "name": "getStuAddressByStuId",
      "outputs": [
        {
          "internalType": "address",
          "name": "",
          "type": "address"
        }
      ],
      "stateMutability": "view",
      "type": "function",
      "constant": true
    },
    {
      "inputs": [
        {
          "internalType": "uint256",
          "name": "_courseId",
          "type": "uint256"
        },
        {
          "internalType": "address",
          "name": "_stuAddress",
          "type": "address"
        }
      ],
      "name": "getStudentGradeByCourseIdAndStuAddr",
      "outputs": [
        {
          "internalType": "uint256",
          "name": "",
          "type": "uint256"
        }
      ],
      "stateMutability": "view",
      "type": "function",
      "constant": true
    },
    {
      "inputs": [
        {
          "internalType": "address",
          "name": "_stuBlockAddress",
          "type": "address"
        }
      ],
      "name": "getStudentIndexByAddress",
      "outputs": [
        {
          "internalType": "uint256",
          "name": "",
          "type": "uint256"
        }
      ],
      "stateMutability": "view",
      "type": "function",
      "constant": true
    },
    {
      "inputs": [
        {
          "internalType": "address",
          "name": "_stuBlockAddress",
          "type": "address"
        }
      ],
      "name": "getStudentInfByStuAddress",
      "outputs": [
        {
          "internalType": "uint256",
          "name": "",
          "type": "uint256"
        },
        {
          "internalType": "string",
          "name": "",
          "type": "string"
        },
        {
          "internalType": "address",
          "name": "",
          "type": "address"
        },
        {
          "internalType": "uint256",
          "name": "",
          "type": "uint256"
        },
        {
          "internalType": "uint256[]",
          "name": "",
          "type": "uint256[]"
        },
        {
          "internalType": "uint256[]",
          "name": "",
          "type": "uint256[]"
        }
      ],
      "stateMutability": "view",
      "type": "function",
      "constant": true
    },
    {
      "inputs": [
        {
          "internalType": "uint256",
          "name": "_stuId",
          "type": "uint256"
        }
      ],
      "name": "getStudentNameById",
      "outputs": [
        {
          "internalType": "string",
          "name": "",
          "type": "string"
        }
      ],
      "stateMutability": "view",
      "type": "function",
      "constant": true
    },
    {
      "inputs": [
        {
          "internalType": "uint256",
          "name": "_courseid",
          "type": "uint256"
        },
        {
          "internalType": "uint256",
          "name": "_getTops",
          "type": "uint256"
        }
      ],
      "name": "getTopStudentsByCourseId",
      "outputs": [
        {
          "internalType": "uint256",
          "name": "",
          "type": "uint256"
        },
        {
          "internalType": "uint256[]",
          "name": "",
          "type": "uint256[]"
        },
        {
          "internalType": "address[]",
          "name": "",
          "type": "address[]"
        },
        {
          "internalType": "uint256[]",
          "name": "",
          "type": "uint256[]"
        }
      ],
      "stateMutability": "view",
      "type": "function",
      "constant": true
    },
    {
      "inputs": [
        {
          "internalType": "uint256",
          "name": "_courseid",
          "type": "uint256"
        }
      ],
      "name": "getcourseStudentCounts",
      "outputs": [
        {
          "internalType": "uint256",
          "name": "courseStudentCounts_",
          "type": "uint256"
        }
      ],
      "stateMutability": "view",
      "type": "function",
      "constant": true
    },
    {
      "inputs": [],
      "name": "modifiersOwner",
      "outputs": [
        {
          "internalType": "address",
          "name": "",
          "type": "address"
        }
      ],
      "stateMutability": "view",
      "type": "function",
      "constant": true
    },
    {
      "inputs": [],
      "name": "personCounts",
      "outputs": [
        {
          "internalType": "uint256",
          "name": "",
          "type": "uint256"
        }
      ],
      "stateMutability": "view",
      "type": "function",
      "constant": true
    },
    {
      "inputs": [],
      "name": "professorCounts",
      "outputs": [
        {
          "internalType": "uint256",
          "name": "",
          "type": "uint256"
        }
      ],
      "stateMutability": "view",
      "type": "function",
      "constant": true
    },
    {
      "inputs": [
        {
          "internalType": "uint256",
          "name": "",
          "type": "uint256"
        }
      ],
      "name": "professorSelfs",
      "outputs": [
        {
          "internalType": "uint256",
          "name": "proId",
          "type": "uint256"
        },
        {
          "internalType": "string",
          "name": "proName",
          "type": "string"
        },
        {
          "internalType": "address",
          "name": "proBlockAddress",
          "type": "address"
        },
        {
          "internalType": "uint256",
          "name": "proAuthorization",
          "type": "uint256"
        },
        {
          "internalType": "uint256",
          "name": "isTeachingPeopleSum",
          "type": "uint256"
        }
      ],
      "stateMutability": "view",
      "type": "function",
      "constant": true
    },
    {
      "inputs": [
        {
          "internalType": "address",
          "name": "_blockAddress",
          "type": "address"
        }
      ],
      "name": "removePermission",
      "outputs": [
        {
          "internalType": "bool",
          "name": "",
          "type": "bool"
        }
      ],
      "stateMutability": "nonpayable",
      "type": "function"
    },
    {
      "inputs": [
        {
          "internalType": "address",
          "name": "_blockAddress",
          "type": "address"
        },
        {
          "internalType": "string",
          "name": "_name",
          "type": "string"
        },
        {
          "internalType": "uint256",
          "name": "_authorization",
          "type": "uint256"
        }
      ],
      "name": "setPermission",
      "outputs": [
        {
          "internalType": "bool",
          "name": "",
          "type": "bool"
        }
      ],
      "stateMutability": "nonpayable",
      "type": "function"
    },
    {
      "inputs": [],
      "name": "studentCounts",
      "outputs": [
        {
          "internalType": "uint256",
          "name": "",
          "type": "uint256"
        }
      ],
      "stateMutability": "view",
      "type": "function",
      "constant": true
    },
    {
      "inputs": [
        {
          "internalType": "uint256",
          "name": "",
          "type": "uint256"
        }
      ],
      "name": "studentSelfs",
      "outputs": [
        {
          "internalType": "uint256",
          "name": "stuId",
          "type": "uint256"
        },
        {
          "internalType": "string",
          "name": "stuName",
          "type": "string"
        },
        {
          "internalType": "address",
          "name": "stuBlockAddress",
          "type": "address"
        },
        {
          "internalType": "uint256",
          "name": "stuAuthorization",
          "type": "uint256"
        },
        {
          "internalType": "uint256",
          "name": "isLearningSum",
          "type": "uint256"
        }
      ],
      "stateMutability": "view",
      "type": "function",
      "constant": true
    },
    {
      "inputs": [
        {
          "internalType": "uint256",
          "name": "_courseId",
          "type": "uint256"
        },
        {
          "internalType": "string",
          "name": "_courseName",
          "type": "string"
        },
        {
          "internalType": "address",
          "name": "_proBlockAddress",
          "type": "address"
        }
      ],
      "name": "createCourse",
      "outputs": [
        {
          "internalType": "bool",
          "name": "",
          "type": "bool"
        }
      ],
      "stateMutability": "nonpayable",
      "type": "function"
    },
    {
      "inputs": [
        {
          "internalType": "uint256",
          "name": "_courseId",
          "type": "uint256"
        },
        {
          "internalType": "address",
          "name": "_proBlockAddress",
          "type": "address"
        },
        {
          "internalType": "address",
          "name": "_stuBlockAddress",
          "type": "address"
        }
      ],
      "name": "applyCourse",
      "outputs": [
        {
          "internalType": "bool",
          "name": "",
          "type": "bool"
        }
      ],
      "stateMutability": "nonpayable",
      "type": "function"
    },
    {
      "inputs": [
        {
          "internalType": "uint256",
          "name": "_courseId",
          "type": "uint256"
        },
        {
          "internalType": "address",
          "name": "_proBlockAddress",
          "type": "address"
        },
        {
          "internalType": "address",
          "name": "_stuBlockAddress",
          "type": "address"
        },
        {
          "internalType": "uint256",
          "name": "_stuGrade",
          "type": "uint256"
        }
      ],
      "name": "createCourseGrade",
      "outputs": [
        {
          "internalType": "bool",
          "name": "",
          "type": "bool"
        }
      ],
      "stateMutability": "nonpayable",
      "type": "function"
    }
  ],
  "bytecode": "0x6080604052600060015560006003556000600555600060075560016009556001600a556064600b556103e8600c553480156200003a57600080fd5b50336000806101000a81548173ffffffffffffffffffffffffffffffffffffffff021916908373ffffffffffffffffffffffffffffffffffffffff1602179055506040518060800160405280600181526020016040518060400160405280600481526020017f526f6f7400000000000000000000000000000000000000000000000000000000815250815260200160008054906101000a900473ffffffffffffffffffffffffffffffffffffffff1673ffffffffffffffffffffffffffffffffffffffff1681526020016003815250600260006001815260200190815260200160002060008201518160000155602082015181600101908051906020019062000145929190620001ba565b5060408201518160020160006101000a81548173ffffffffffffffffffffffffffffffffffffffff021916908373ffffffffffffffffffffffffffffffffffffffff1602179055506060820151816003015590505060016000815480929190620001af90620002aa565b919050555062000356565b828054620001c89062000274565b90600052602060002090601f016020900481019282620001ec576000855562000238565b82601f106200020757805160ff191683800117855562000238565b8280016001018555821562000238579182015b82811115620002375782518255916020019190600101906200021a565b5b5090506200024791906200024b565b5090565b5b80821115620002665760008160009055506001016200024c565b5090565b6000819050919050565b600060028204905060018216806200028d57607f821691505b60208210811415620002a457620002a362000327565b5b50919050565b6000620002b7826200026a565b91507fffffffffffffffffffffffffffffffffffffffffffffffffffffffffffffffff821415620002ed57620002ec620002f8565b5b600182019050919050565b7f4e487b7100000000000000000000000000000000000000000000000000000000600052601160045260246000fd5b7f4e487b7100000000000000000000000000000000000000000000000000000000600052602260045260246000fd5b61584d80620003666000396000f3fe608060405234801561001057600080fd5b50600436106102055760003560e01c806378a1fdbf1161011a578063a5cc464d116100ad578063dff3b4971161007c578063dff3b4971461073e578063e074bb471461076e578063f6aa09e41461079e578063fb3189e8146107bd578063fc0c1f39146107db57610205565b8063a5cc464d1461067e578063ad9e42d9146106ae578063c5ad81de146106de578063ced3ae611461070e57610205565b806394e48ece116100e957806394e48ece146105df578063982203be1461061257806398aede55146106425780639fde09431461066057610205565b806378a1fdbf1461051f5780638c8ef7331461054f578063901419401461057f57806390eab7a2146105af57610205565b80632454a9391161019d5780634d953abb1161016c5780634d953abb1461043a57806358a420651461046a5780635e719a491461049f578063606870da146104cf5780637860a0691461050157610205565b80632454a939146103735780632b81bd8d146103a357806330e94711146103d35780634d64e5ee1461040657610205565b80630d9382fc116101d95780630d9382fc146102d45780630e3bfd6c146102f257806310d756dd146103105780631643c8db1461034057610205565b80624255a61461020a578063043022fa1461023e57806309f006f5146102735780630c1596b4146102a3575b600080fd5b610224600480360381019061021f91906146e0565b6107f9565b6040516102359594939291906150ae565b60405180910390f35b610258600480360381019061025391906146e0565b6108d7565b60405161026a96959493929190614f84565b60405180910390f35b61028d6004803603810190610288919061474d565b6109c8565b60405161029a9190614d32565b60405180910390f35b6102bd60048036038101906102b89190614644565b610d4d565b6040516102cb929190614cfb565b60405180910390f35b6102dc610f40565b6040516102e99190614f0f565b60405180910390f35b6102fa610f46565b6040516103079190614f0f565b60405180910390f35b61032a60048036038101906103259190614644565b610f4c565b6040516103379190614f0f565b60405180910390f35b61035a600480360381019061035591906146e0565b610fee565b60405161036a9493929190614fec565b60405180910390f35b61038d60048036038101906103889190614644565b6110c6565b60405161039a9190614f0f565b60405180910390f35b6103bd60048036038101906103b891906146e0565b611168565b6040516103ca9190614d4d565b60405180910390f35b6103ed60048036038101906103e891906146e0565b611291565b6040516103fd9493929190614fec565b60405180910390f35b610420600480360381019061041b91906146e0565b6113d1565b6040516104319594939291906150ae565b60405180910390f35b610454600480360381019061044f9190614644565b6114af565b6040516104619190614d4d565b60405180910390f35b610484600480360381019061047f9190614644565b611624565b60405161049696959493929190615038565b60405180910390f35b6104b960048036038101906104b491906146e0565b61184f565b6040516104c69190614f0f565b60405180910390f35b6104e960048036038101906104e491906146e0565b6118b7565b6040516104f893929190614caf565b60405180910390f35b610509611b52565b6040516105169190614f0f565b60405180910390f35b610539600480360381019061053491906147a0565b611b58565b6040516105469190614d32565b60405180910390f35b61056960048036038101906105649190614807565b611ecd565b6040516105769190614d32565b60405180910390f35b61059960048036038101906105949190614671565b6121c5565b6040516105a69190614d32565b60405180910390f35b6105c960048036038101906105c49190614644565b6126a7565b6040516105d69190614f0f565b60405180910390f35b6105f960048036038101906105f49190614876565b6128b9565b6040516106099493929190614f2a565b60405180910390f35b61062c600480360381019061062791906146e0565b612df8565b6040516106399190614c72565b60405180910390f35b61064a612e84565b6040516106579190614c72565b60405180910390f35b610668612ea8565b6040516106759190614c8d565b60405180910390f35b61069860048036038101906106939190614644565b612fb4565b6040516106a59190614f0f565b60405180910390f35b6106c860048036038101906106c391906146e0565b613056565b6040516106d59190614f0f565b60405180910390f35b6106f860048036038101906106f391906146e0565b6130b7565b6040516107059190614d4d565b60405180910390f35b6107286004803603810190610723919061470d565b61316d565b6040516107359190614f0f565b60405180910390f35b61075860048036038101906107539190614644565b613271565b6040516107659190614f0f565b60405180910390f35b61078860048036038101906107839190614644565b613483565b6040516107959190614d32565b60405180910390f35b6107a6613dd2565b6040516107b4929190614cfb565b60405180910390f35b6107c5613f80565b6040516107d29190614f0f565b60405180910390f35b6107e3613f86565b6040516107f09190614f0f565b60405180910390f35b600660205280600052604060002060009150905080600001549080600101805461082290615363565b80601f016020809104026020016040519081016040528092919081815260200182805461084e90615363565b801561089b5780601f106108705761010080835404028352916020019161089b565b820191906000526020600020905b81548152906001019060200180831161087e57829003601f168201915b5050505050908060020160009054906101000a900473ffffffffffffffffffffffffffffffffffffffff16908060030154908060050154905085565b600860205280600052604060002060009150905080600001549080600101805461090090615363565b80601f016020809104026020016040519081016040528092919081815260200182805461092c90615363565b80156109795780601f1061094e57610100808354040283529160200191610979565b820191906000526020600020905b81548152906001019060200180831161095c57829003601f168201915b5050505050908060020160009054906101000a900473ffffffffffffffffffffffffffffffffffffffff16908060020160149054906101000a900460ff16908060030154908060040154905086565b6000806000905060005b6003548111610a5d576004600082815260200190815260200160002060020160009054906101000a900473ffffffffffffffffffffffffffffffffffffffff1673ffffffffffffffffffffffffffffffffffffffff163373ffffffffffffffffffffffffffffffffffffffff161415610a4a57600191505b8080610a55906153c6565b9150506109d2565b5080610a9e576040517f08c379a0000000000000000000000000000000000000000000000000000000008152600401610a9590614ecf565b60405180910390fd5b6000610aa986613f8c565b90506001151581151514610af2576040517f08c379a0000000000000000000000000000000000000000000000000000000008152600401610ae990614e0f565b60405180910390fd5b6000610afd856110c6565b90506000600660008381526020019081526020016000206000015490506000805b6006600085815260200190815260200160002060040180549050811015610b915789600660008681526020019081526020016000206004018281548110610b6857610b6761546d565b5b90600052602060002001541415610b7e57600191505b8080610b89906153c6565b915050610b1e565b506000151581151514610bd9576040517f08c379a0000000000000000000000000000000000000000000000000000000008152600401610bd090614e8f565b60405180910390fd5b600660008481526020019081526020016000206004018990806001815401808255809150506001900390600052602060002001600090919091909150556000610c218a613056565b9050610c2c8a614014565b6000610c378b61184f565b90508860086000848152602001908152602001600020600501600083815260200190815260200160002060000160006101000a81548173ffffffffffffffffffffffffffffffffffffffff021916908373ffffffffffffffffffffffffffffffffffffffff16021790555083600860008481526020019081526020016000206005016000838152602001908152602001600020600101819055506000610cdc8b612fb4565b90506001600460008381526020019081526020016000206005016000828254610d059190615225565b925050819055506001600660008881526020019081526020016000206005016000828254610d339190615225565b925050819055506001985050505050505050509392505050565b6060806000610d5b84612fb4565b905060006004600083815260200190815260200160002060040180549050905060008167ffffffffffffffff811115610d9757610d9661549c565b5b604051908082528060200260200182016040528015610dc55781602001602082028036833780820191505090505b50905060008267ffffffffffffffff811115610de457610de361549c565b5b604051908082528060200260200182016040528015610e125781602001602082028036833780820191505090505b50905060005b83811015610f3057600460008681526020019081526020016000206004018181548110610e4857610e4761546d565b5b9060005260206000200154838281518110610e6657610e6561546d565b5b6020026020010181815250506000610e97848381518110610e8a57610e8961546d565b5b6020026020010151613056565b90506000838381518110610eae57610ead61546d565b5b602002602001019015159081151581525050600860008281526020019081526020016000206003015460086000838152602001908152602001600020600401541415610f1c576001838381518110610f0957610f0861546d565b5b6020026020010190151590811515815250505b508080610f28906153c6565b915050610e18565b5081819550955050505050915091565b60095481565b60075481565b600080600190505b6001548111610fe3578273ffffffffffffffffffffffffffffffffffffffff166002600083815260200190815260200160002060020160009054906101000a900473ffffffffffffffffffffffffffffffffffffffff1673ffffffffffffffffffffffffffffffffffffffff161415610fd05780915050610fe9565b8080610fdb906153c6565b915050610f54565b50600090505b919050565b600260205280600052604060002060009150905080600001549080600101805461101790615363565b80601f016020809104026020016040519081016040528092919081815260200182805461104390615363565b80156110905780601f1061106557610100808354040283529160200191611090565b820191906000526020600020905b81548152906001019060200180831161107357829003601f168201915b5050505050908060020160009054906101000a900473ffffffffffffffffffffffffffffffffffffffff16908060030154905084565b600080600190505b600554811161115d578273ffffffffffffffffffffffffffffffffffffffff166006600083815260200190815260200160002060020160009054906101000a900473ffffffffffffffffffffffffffffffffffffffff1673ffffffffffffffffffffffffffffffffffffffff16141561114a5780915050611163565b8080611155906153c6565b9150506110ce565b50600090505b919050565b60606000600190505b600554811161125257826006600083815260200190815260200160002060000154141561123f576006600082815260200190815260200160002060010180546111b990615363565b80601f01602080910402602001604051908101604052809291908181526020018280546111e590615363565b80156112325780601f1061120757610100808354040283529160200191611232565b820191906000526020600020905b81548152906001019060200180831161121557829003601f168201915b505050505091505061128c565b808061124a906153c6565b915050611171565b506040518060400160405280600481526020017f6e756c6c0000000000000000000000000000000000000000000000000000000081525090505b919050565b6000606060008060006112a386613056565b905060006008600083815260200190815260200160002060000154905060006008600084815260200190815260200160002060010180546112e390615363565b80601f016020809104026020016040519081016040528092919081815260200182805461130f90615363565b801561135c5780601f106113315761010080835404028352916020019161135c565b820191906000526020600020905b81548152906001019060200180831161133f57829003601f168201915b5050505050905060006008600085815260200190815260200160002060020160009054906101000a900473ffffffffffffffffffffffffffffffffffffffff16905060006008600086815260200190815260200160002060040154905083838383985098509850985050505050509193509193565b60046020528060005260406000206000915090508060000154908060010180546113fa90615363565b80601f016020809104026020016040519081016040528092919081815260200182805461142690615363565b80156114735780601f1061144857610100808354040283529160200191611473565b820191906000526020600020905b81548152906001019060200180831161145657829003601f168201915b5050505050908060020160009054906101000a900473ffffffffffffffffffffffffffffffffffffffff16908060030154908060050154905085565b60606000600190505b60035481116115e5578273ffffffffffffffffffffffffffffffffffffffff166004600083815260200190815260200160002060020160009054906101000a900473ffffffffffffffffffffffffffffffffffffffff1673ffffffffffffffffffffffffffffffffffffffff1614156115d25760046000828152602001908152602001600020600101805461154c90615363565b80601f016020809104026020016040519081016040528092919081815260200182805461157890615363565b80156115c55780601f1061159a576101008083540402835291602001916115c5565b820191906000526020600020905b8154815290600101906020018083116115a857829003601f168201915b505050505091505061161f565b80806115dd906153c6565b9150506114b8565b506040518060400160405280600481526020017f6e756c6c0000000000000000000000000000000000000000000000000000000081525090505b919050565b600060606000806060806000611639886110c6565b9050600060066000838152602001908152602001600020600001549050600060066000848152602001908152602001600020600101805461167990615363565b80601f01602080910402602001604051908101604052809291908181526020018280546116a590615363565b80156116f25780601f106116c7576101008083540402835291602001916116f2565b820191906000526020600020905b8154815290600101906020018083116116d557829003601f168201915b5050505050905060006006600085815260200190815260200160002060030154905060006006600086815260200190815260200160002060040180548060200260200160405190810160405280929190818152602001828054801561177657602002820191906000526020600020905b815481526020019060010190808311611762575b505050505090506000815167ffffffffffffffff81111561179a5761179961549c565b5b6040519080825280602002602001820160405280156117c85781602001602082028036833780820191505090505b50905060005b825181101561182d576117fb8382815181106117ed576117ec61546d565b5b60200260200101518f61316d565b82828151811061180e5761180d61546d565b5b6020026020010181815250508080611825906153c6565b9150506117ce565b5084848e8585859b509b509b509b509b509b5050505050505091939550919395565b600080600190505b60075481116118b057826008600083815260200190815260200160002060000154141561189d5760086000828152602001908152602001600020600401549150506118b2565b80806118a8906153c6565b915050611857565b505b919050565b606080606060006118c785613056565b905060006008600083815260200190815260200160002060040154905060008167ffffffffffffffff811115611900576118ff61549c565b5b60405190808252806020026020018201604052801561192e5781602001602082028036833780820191505090505b50905060008267ffffffffffffffff81111561194d5761194c61549c565b5b60405190808252806020026020018201604052801561197b5781602001602082028036833780820191505090505b50905060008367ffffffffffffffff81111561199a5761199961549c565b5b6040519080825280602002602001820160405280156119c85781602001602082028036833780820191505090505b5090506000600190505b848111611b3c5760086000878152602001908152602001600020600501600082815260200190815260200160002060000160009054906101000a900473ffffffffffffffffffffffffffffffffffffffff1684600183611a32919061527b565b81518110611a4357611a4261546d565b5b602002602001019073ffffffffffffffffffffffffffffffffffffffff16908173ffffffffffffffffffffffffffffffffffffffff16815250506008600087815260200190815260200160002060050160008281526020019081526020016000206001015483600183611ab6919061527b565b81518110611ac757611ac661546d565b5b6020026020010181815250506008600087815260200190815260200160002060050160008281526020019081526020016000206002015482600183611b0c919061527b565b81518110611b1d57611b1c61546d565b5b6020026020010181815250508080611b34906153c6565b9150506119d2565b5081838297509750975050505050509193909250565b60035481565b6000806000905060005b6003548111611bed576004600082815260200190815260200160002060020160009054906101000a900473ffffffffffffffffffffffffffffffffffffffff1673ffffffffffffffffffffffffffffffffffffffff163373ffffffffffffffffffffffffffffffffffffffff161415611bda57600191505b8080611be5906153c6565b915050611b62565b5080611c2e576040517f08c379a0000000000000000000000000000000000000000000000000000000008152600401611c2590614ecf565b60405180910390fd5b6000611c3a8786614086565b90506001151581151514611c83576040517f08c379a0000000000000000000000000000000000000000000000000000000008152600401611c7a90614dcf565b60405180910390fd5b6000611c8e88613056565b90506000611c9b8961184f565b905060006008600084815260200190815260200160002060020160146101000a81548160ff0219169083151502179055506000600190505b818111611ebb578773ffffffffffffffffffffffffffffffffffffffff1660086000858152602001908152602001600020600501600083815260200190815260200160002060000160009054906101000a900473ffffffffffffffffffffffffffffffffffffffff1673ffffffffffffffffffffffffffffffffffffffff161415611ea8576000600860008581526020019081526020016000206005016000838152602001908152602001600020600201541415611dba576008600060075481526020019081526020016000206003016000815480929190611db4906153c6565b91905055505b86600860008581526020019081526020016000206005016000838152602001908152602001600020600201819055506000611df48a612fb4565b90506000611e018a6110c6565b90506000600460008481526020019081526020016000206005015414611e4e57600460008381526020019081526020016000206005016000815480929190611e4890615339565b91905055505b6000600660008381526020019081526020016000206005015414611e9957600660008281526020019081526020016000206005016000815480929190611e9390615339565b91905055505b60019750505050505050611ec4565b8080611eb3906153c6565b915050611cd3565b50600094505050505b50949350505050565b6000806000905060005b6003548111611f62576004600082815260200190815260200160002060020160009054906101000a900473ffffffffffffffffffffffffffffffffffffffff1673ffffffffffffffffffffffffffffffffffffffff163373ffffffffffffffffffffffffffffffffffffffff161415611f4f57600191505b8080611f5a906153c6565b915050611ed7565b5080611fa3576040517f08c379a0000000000000000000000000000000000000000000000000000000008152600401611f9a90614ecf565b60405180910390fd5b3373ffffffffffffffffffffffffffffffffffffffff168373ffffffffffffffffffffffffffffffffffffffff1614612011576040517f08c379a000000000000000000000000000000000000000000000000000000000815260040161200890614d8f565b60405180910390fd5b600061201c8661419d565b90506000151581151514612065576040517f08c379a000000000000000000000000000000000000000000000000000000000815260040161205c90614e6f565b60405180910390fd5b60076000815480929190612078906153c6565b919050555085600860006007548152602001908152602001600020600001819055508460086000600754815260200190815260200160002060010190805190602001906120c69291906143c7565b508360086000600754815260200190815260200160002060020160006101000a81548173ffffffffffffffffffffffffffffffffffffffff021916908373ffffffffffffffffffffffffffffffffffffffff160217905550600160086000600754815260200190815260200160002060020160146101000a81548160ff021916908315150217905550600060086000600754815260200190815260200160002060030181905550600061217885612fb4565b905060046000828152602001908152602001600020600401879080600181540180825580915050600190039060005260206000200160009091909190915055600193505050509392505050565b6000806000905060005b600154811161225a576002600082815260200190815260200160002060020160009054906101000a900473ffffffffffffffffffffffffffffffffffffffff1673ffffffffffffffffffffffffffffffffffffffff163373ffffffffffffffffffffffffffffffffffffffff16141561224757600191505b8080612252906153c6565b9150506121cf565b508061229b576040517f08c379a000000000000000000000000000000000000000000000000000000000815260040161229290614def565b60405180910390fd5b60018314806122aa5750600283145b806122b55750600383145b6122f4576040517f08c379a00000000000000000000000000000000000000000000000000000000081526004016122eb90614e4f565b60405180910390fd5b60001515612301866141f4565b151514612343576040517f08c379a000000000000000000000000000000000000000000000000000000000815260040161233a90614d6f565b60405180910390fd5b60096000815480929190612356906153c6565b919050555060018314156124785760056000815480929190612377906153c6565b9190505550600c600081548092919061238f906153c6565b9190505550600c54600660006005548152602001908152602001600020600001819055508360066000600554815260200190815260200160002060010190805190602001906123df9291906143c7565b508460066000600554815260200190815260200160002060020160006101000a81548173ffffffffffffffffffffffffffffffffffffffff021916908373ffffffffffffffffffffffffffffffffffffffff16021790555060016006600060055481526020019081526020016000206003018190555060006006600060055481526020019081526020016000206005018190555061269b565b60028314156125955760036000815480929190612494906153c6565b9190505550600b60008154809291906124ac906153c6565b9190505550600b54600460006003548152602001908152602001600020600001819055508360046000600354815260200190815260200160002060010190805190602001906124fc9291906143c7565b508460046000600354815260200190815260200160002060020160006101000a81548173ffffffffffffffffffffffffffffffffffffffff021916908373ffffffffffffffffffffffffffffffffffffffff16021790555060026004600060035481526020019081526020016000206003018190555060006004600060035481526020019081526020016000206005018190555061269a565b600383141561269957600160008154809291906125b1906153c6565b9190505550600a60008154809291906125c9906153c6565b91905055506040518060800160405280600a5481526020018581526020018673ffffffffffffffffffffffffffffffffffffffff16815260200160038152506002600060015481526020019081526020016000206000820151816000015560208201518160010190805190602001906126439291906143c7565b5060408201518160020160006101000a81548173ffffffffffffffffffffffffffffffffffffffff021916908373ffffffffffffffffffffffffffffffffffffffff160217905550606082015181600301559050505b5b5b60019150509392505050565b600080600190505b6001548111612754578273ffffffffffffffffffffffffffffffffffffffff166002600083815260200190815260200160002060020160009054906101000a900473ffffffffffffffffffffffffffffffffffffffff1673ffffffffffffffffffffffffffffffffffffffff1614156127415760026000828152602001908152602001600020600301549150506128b4565b808061274c906153c6565b9150506126af565b506000600190505b6003548111612801578273ffffffffffffffffffffffffffffffffffffffff166004600083815260200190815260200160002060020160009054906101000a900473ffffffffffffffffffffffffffffffffffffffff1673ffffffffffffffffffffffffffffffffffffffff1614156127ee5760046000828152602001908152602001600020600301549150506128b4565b80806127f9906153c6565b91505061275c565b506000600190505b60055481116128ae578273ffffffffffffffffffffffffffffffffffffffff166006600083815260200190815260200160002060020160009054906101000a900473ffffffffffffffffffffffffffffffffffffffff1673ffffffffffffffffffffffffffffffffffffffff16141561289b5760066000828152602001908152602001600020600301549150506128b4565b80806128a6906153c6565b915050612809565b50600090505b919050565b6000606080606060008590506000806128d189613056565b9050600060086000838152602001908152602001600020600401549050838110156128fa578093505b60008167ffffffffffffffff8111156129165761291561549c565b5b6040519080825280602002602001820160405280156129445781602001602082028036833780820191505090505b5090506000600190505b828111612a005760006008600086815260200190815260200160002060050160008381526020019081526020016000206002015411156129ed5760086000858152602001908152602001600020600501600082815260200190815260200160002060020154826001836129c1919061527b565b815181106129d2576129d161546d565b5b60200260200101818152505084806129e9906153c6565b9550505b80806129f8906153c6565b91505061294e565b5084841015612a0d578394505b60005b8151811015612b2b576000600190505b8251811015612b175782600182612a37919061527b565b81518110612a4857612a4761546d565b5b6020026020010151838281518110612a6357612a6261546d565b5b60200260200101511115612b0457600083600183612a81919061527b565b81518110612a9257612a9161546d565b5b60200260200101519050838281518110612aaf57612aae61546d565b5b602002602001015184600184612ac5919061527b565b81518110612ad657612ad561546d565b5b60200260200101818152505080848381518110612af657612af561546d565b5b602002602001018181525050505b8080612b0f906153c6565b915050612a20565b508080612b23906153c6565b915050612a10565b5060008567ffffffffffffffff811115612b4857612b4761549c565b5b604051908082528060200260200182016040528015612b765781602001602082028036833780820191505090505b50905060008667ffffffffffffffff811115612b9557612b9461549c565b5b604051908082528060200260200182016040528015612bc35781602001602082028036833780820191505090505b50905060008767ffffffffffffffff811115612be257612be161549c565b5b604051908082528060200260200182016040528015612c105781602001602082028036833780820191505090505b5090506000805b8551811015612dd95789821415612c2d57612dd9565b858181518110612c4057612c3f61546d565b5b6020026020010151838281518110612c5b57612c5a61546d565b5b6020026020010181815250506000600190505b878111612db757600860008a8152602001908152602001600020600501600082815260200190815260200160002060020154848381518110612cb357612cb261546d565b5b60200260200101511415612da457600860008a8152602001908152602001600020600501600082815260200190815260200160002060010154858381518110612cff57612cfe61546d565b5b602002602001018181525050600860008a8152602001908152602001600020600501600082815260200190815260200160002060000160009054906101000a900473ffffffffffffffffffffffffffffffffffffffff16868381518110612d6957612d6861546d565b5b602002602001019073ffffffffffffffffffffffffffffffffffffffff16908173ffffffffffffffffffffffffffffffffffffffff16815250505b8080612daf906153c6565b915050612c6e565b508180612dc3906153c6565b9250508080612dd1906153c6565b915050612c17565b50888385849c509c509c509c5050505050505050505092959194509250565b600080600190505b6005548111612e79578260066000838152602001908152602001600020600001541415612e66576006600082815260200190815260200160002060020160009054906101000a900473ffffffffffffffffffffffffffffffffffffffff16915050612e7f565b8080612e71906153c6565b915050612e00565b50600090505b919050565b60008054906101000a900473ffffffffffffffffffffffffffffffffffffffff1681565b6060600060055467ffffffffffffffff811115612ec857612ec761549c565b5b604051908082528060200260200182016040528015612ef65781602001602082028036833780820191505090505b5090506000600190505b6005548111612fac576006600082815260200190815260200160002060020160009054906101000a900473ffffffffffffffffffffffffffffffffffffffff1682600183612f4e919061527b565b81518110612f5f57612f5e61546d565b5b602002602001019073ffffffffffffffffffffffffffffffffffffffff16908173ffffffffffffffffffffffffffffffffffffffff16815250508080612fa4906153c6565b915050612f00565b508091505090565b600080600190505b600354811161304b578273ffffffffffffffffffffffffffffffffffffffff166004600083815260200190815260200160002060020160009054906101000a900473ffffffffffffffffffffffffffffffffffffffff1673ffffffffffffffffffffffffffffffffffffffff1614156130385780915050613051565b8080613043906153c6565b915050612fbc565b50600090505b919050565b600080600090506000600190505b60075481116130ab5783600860008381526020019081526020016000206000015414156130985780915081925050506130b2565b80806130a3906153c6565b915050613064565b5060009150505b919050565b606060006130c483613056565b90506008600082815260200190815260200160002060010180546130e790615363565b80601f016020809104026020016040519081016040528092919081815260200182805461311390615363565b80156131605780601f1061313557610100808354040283529160200191613160565b820191906000526020600020905b81548152906001019060200180831161314357829003601f168201915b5050505050915050919050565b60008061317984613056565b90506000600190505b60086000838152602001908152602001600020600401548111613264578373ffffffffffffffffffffffffffffffffffffffff1660086000848152602001908152602001600020600501600083815260200190815260200160002060000160009054906101000a900473ffffffffffffffffffffffffffffffffffffffff1673ffffffffffffffffffffffffffffffffffffffff16141561325157600860008381526020019081526020016000206005016000828152602001908152602001600020600201549250505061326b565b808061325c906153c6565b915050613182565b5060009150505b92915050565b600080600190505b600154811161331e578273ffffffffffffffffffffffffffffffffffffffff166002600083815260200190815260200160002060020160009054906101000a900473ffffffffffffffffffffffffffffffffffffffff1673ffffffffffffffffffffffffffffffffffffffff16141561330b57600260008281526020019081526020016000206000015491505061347e565b8080613316906153c6565b915050613279565b506000600190505b60035481116133cb578273ffffffffffffffffffffffffffffffffffffffff166004600083815260200190815260200160002060020160009054906101000a900473ffffffffffffffffffffffffffffffffffffffff1673ffffffffffffffffffffffffffffffffffffffff1614156133b857600460008281526020019081526020016000206000015491505061347e565b80806133c3906153c6565b915050613326565b506000600190505b6005548111613478578273ffffffffffffffffffffffffffffffffffffffff166006600083815260200190815260200160002060020160009054906101000a900473ffffffffffffffffffffffffffffffffffffffff1673ffffffffffffffffffffffffffffffffffffffff16141561346557600660008281526020019081526020016000206000015491505061347e565b8080613470906153c6565b9150506133d3565b50600090505b919050565b6000806000905060005b6001548111613518576002600082815260200190815260200160002060020160009054906101000a900473ffffffffffffffffffffffffffffffffffffffff1673ffffffffffffffffffffffffffffffffffffffff163373ffffffffffffffffffffffffffffffffffffffff16141561350557600191505b8080613510906153c6565b91505061348d565b5080613559576040517f08c379a000000000000000000000000000000000000000000000000000000000815260040161355090614def565b60405180910390fd5b60011515613566846141f4565b1515146135a8576040517f08c379a000000000000000000000000000000000000000000000000000000000815260040161359f90614e2f565b60405180910390fd5b60006135b3846126a7565b905060008114156135f9576040517f08c379a00000000000000000000000000000000000000000000000000000000081526004016135f090614eef565b60405180910390fd5b60018114156138c957600061360d856110c6565b90506000600660008381526020019081526020016000206005015414613668576040517f08c379a000000000000000000000000000000000000000000000000000000000815260040161365f90614eaf565b60405180910390fd5b60008190505b60055481101561383357600660006001836136899190615225565b8152602001908152602001600020600001546006600083815260200190815260200160002060000181905550600660006001836136c69190615225565b8152602001908152602001600020600101600660008381526020019081526020016000206001019080546136f990615363565b61370492919061444d565b50600660006001836137169190615225565b815260200190815260200160002060020160009054906101000a900473ffffffffffffffffffffffffffffffffffffffff166006600083815260200190815260200160002060020160006101000a81548173ffffffffffffffffffffffffffffffffffffffff021916908373ffffffffffffffffffffffffffffffffffffffff160217905550600660006001836137ad9190615225565b8152602001908152602001600020600301546006600083815260200190815260200160002060030181905550600660006001836137ea9190615225565b81526020019081526020016000206004016006600083815260200190815260200160002060040190805461381f9291906144da565b50808061382b906153c6565b91505061366e565b50600660006005548152602001908152602001600020600080820160009055600182016000613862919061452c565b6002820160006101000a81549073ffffffffffffffffffffffffffffffffffffffff021916905560038201600090556004820160006138a1919061456c565b60058201600090555050600560008154809291906138be90615339565b919050555050613daf565b6002811415613b995760006138dd85612fb4565b90506000600460008381526020019081526020016000206005015414613938576040517f08c379a000000000000000000000000000000000000000000000000000000000815260040161392f90614daf565b60405180910390fd5b60008190505b600354811015613b0357600460006001836139599190615225565b8152602001908152602001600020600001546004600083815260200190815260200160002060000181905550600460006001836139969190615225565b8152602001908152602001600020600101600460008381526020019081526020016000206001019080546139c990615363565b6139d492919061444d565b50600460006001836139e69190615225565b815260200190815260200160002060020160009054906101000a900473ffffffffffffffffffffffffffffffffffffffff166004600083815260200190815260200160002060020160006101000a81548173ffffffffffffffffffffffffffffffffffffffff021916908373ffffffffffffffffffffffffffffffffffffffff16021790555060046000600183613a7d9190615225565b815260200190815260200160002060030154600460008381526020019081526020016000206003018190555060046000600183613aba9190615225565b815260200190815260200160002060040160046000838152602001908152602001600020600401908054613aef9291906144da565b508080613afb906153c6565b91505061393e565b50600460006003548152602001908152602001600020600080820160009055600182016000613b32919061452c565b6002820160006101000a81549073ffffffffffffffffffffffffffffffffffffffff02191690556003820160009055600482016000613b71919061456c565b6005820160009055505060036000815480929190613b8e90615339565b919050555050613dae565b6003811415613dad576000613bad85610f4c565b905060008190505b600154811015613d335760026000600183613bd09190615225565b815260200190815260200160002060000154600260008381526020019081526020016000206000018190555060026000600183613c0d9190615225565b815260200190815260200160002060010160026000838152602001908152602001600020600101908054613c4090615363565b613c4b92919061444d565b5060026000600183613c5d9190615225565b815260200190815260200160002060020160009054906101000a900473ffffffffffffffffffffffffffffffffffffffff166002600083815260200190815260200160002060020160006101000a81548173ffffffffffffffffffffffffffffffffffffffff021916908373ffffffffffffffffffffffffffffffffffffffff16021790555060026000600183613cf49190615225565b81526020019081526020016000206003015460026000838152602001908152602001600020600301819055508080613d2b906153c6565b915050613bb5565b50600260006001548152602001908152602001600020600080820160009055600182016000613d62919061452c565b6002820160006101000a81549073ffffffffffffffffffffffffffffffffffffffff02191690556003820160009055505060016000815480929190613da690615339565b9190505550505b5b5b60096000815480929190613dc290615339565b9190505550600192505050919050565b606080600060075467ffffffffffffffff811115613df357613df261549c565b5b604051908082528060200260200182016040528015613e215781602001602082028036833780820191505090505b509050600060075467ffffffffffffffff811115613e4257613e4161549c565b5b604051908082528060200260200182016040528015613e705781602001602082028036833780820191505090505b5090506000600190505b6007548111613f7357600860008281526020019081526020016000206000015483600183613ea8919061527b565b81518110613eb957613eb861546d565b5b602002602001018181525050600082600183613ed5919061527b565b81518110613ee657613ee561546d565b5b602002602001019015159081151581525050600860008281526020019081526020016000206003015460086000838152602001908152602001600020600401541415613f6057600182600183613f3c919061527b565b81518110613f4d57613f4c61546d565b5b6020026020010190151590811515815250505b8080613f6b906153c6565b915050613e7a565b5081819350935050509091565b60055481565b60015481565b600080600190505b6007548111614009578260086000838152602001908152602001600020600001541415613ff657600115156008600083815260200190815260200160002060020160149054906101000a900460ff1615151415613ff557600191505061400f565b5b8080614001906153c6565b915050613f94565b50600090505b919050565b6000600190505b600754811161408257816008600083815260200190815260200160002060000154141561406f57600860008281526020019081526020016000206004016000815480929190614069906153c6565b91905055505b808061407a906153c6565b91505061401b565b5050565b600080600190505b6005548111614191578273ffffffffffffffffffffffffffffffffffffffff166006600083815260200190815260200160002060020160009054906101000a900473ffffffffffffffffffffffffffffffffffffffff1673ffffffffffffffffffffffffffffffffffffffff16141561417e5760005b6006600083815260200190815260200160002060040180549050811161417c578460066000848152602001908152602001600020600401828154811061414d5761414c61546d565b5b9060005260206000200154141561416957600192505050614197565b8080614174906153c6565b915050614104565b505b8080614189906153c6565b91505061408e565b50600090505b92915050565b600080600190505b60075481116141e95782600860008381526020019081526020016000206000015414156141d65760019150506141ef565b80806141e1906153c6565b9150506141a5565b50600090505b919050565b600080600190505b600154811161428c578273ffffffffffffffffffffffffffffffffffffffff166002600083815260200190815260200160002060020160009054906101000a900473ffffffffffffffffffffffffffffffffffffffff1673ffffffffffffffffffffffffffffffffffffffff1614156142795760019150506143c2565b8080614284906153c6565b9150506141fc565b506000600190505b6003548111614324578273ffffffffffffffffffffffffffffffffffffffff166004600083815260200190815260200160002060020160009054906101000a900473ffffffffffffffffffffffffffffffffffffffff1673ffffffffffffffffffffffffffffffffffffffff1614156143115760019150506143c2565b808061431c906153c6565b915050614294565b506000600190505b60055481116143bc578273ffffffffffffffffffffffffffffffffffffffff166006600083815260200190815260200160002060020160009054906101000a900473ffffffffffffffffffffffffffffffffffffffff1673ffffffffffffffffffffffffffffffffffffffff1614156143a95760019150506143c2565b80806143b4906153c6565b91505061432c565b50600090505b919050565b8280546143d390615363565b90600052602060002090601f0160209004810192826143f5576000855561443c565b82601f1061440e57805160ff191683800117855561443c565b8280016001018555821561443c579182015b8281111561443b578251825591602001919060010190614420565b5b509050614449919061458d565b5090565b82805461445990615363565b90600052602060002090601f01602090048101928261447b57600085556144c9565b82601f1061448c57805485556144c9565b828001600101855582156144c957600052602060002091601f016020900482015b828111156144c85782548255916001019190600101906144ad565b5b5090506144d6919061458d565b5090565b82805482825590600052602060002090810192821561451b5760005260206000209182015b8281111561451a5782548255916001019190600101906144ff565b5b509050614528919061458d565b5090565b50805461453890615363565b6000825580601f1061454a5750614569565b601f016020900490600052602060002090810190614568919061458d565b5b50565b508054600082559060005260206000209081019061458a919061458d565b50565b5b808211156145a657600081600090555060010161458e565b5090565b60006145bd6145b88461512d565b615108565b9050828152602081018484840111156145d9576145d86154d0565b5b6145e48482856152f7565b509392505050565b6000813590506145fb816157e9565b92915050565b600082601f830112614616576146156154cb565b5b81356146268482602086016145aa565b91505092915050565b60008135905061463e81615800565b92915050565b60006020828403121561465a576146596154da565b5b6000614668848285016145ec565b91505092915050565b60008060006060848603121561468a576146896154da565b5b6000614698868287016145ec565b935050602084013567ffffffffffffffff8111156146b9576146b86154d5565b5b6146c586828701614601565b92505060406146d68682870161462f565b9150509250925092565b6000602082840312156146f6576146f56154da565b5b60006147048482850161462f565b91505092915050565b60008060408385031215614724576147236154da565b5b60006147328582860161462f565b9250506020614743858286016145ec565b9150509250929050565b600080600060608486031215614766576147656154da565b5b60006147748682870161462f565b9350506020614785868287016145ec565b9250506040614796868287016145ec565b9150509250925092565b600080600080608085870312156147ba576147b96154da565b5b60006147c88782880161462f565b94505060206147d9878288016145ec565b93505060406147ea878288016145ec565b92505060606147fb8782880161462f565b91505092959194509250565b6000806000606084860312156148205761481f6154da565b5b600061482e8682870161462f565b935050602084013567ffffffffffffffff81111561484f5761484e6154d5565b5b61485b86828701614601565b925050604061486c868287016145ec565b9150509250925092565b6000806040838503121561488d5761488c6154da565b5b600061489b8582860161462f565b92505060206148ac8582860161462f565b9150509250929050565b60006148c283836148fe565b60208301905092915050565b60006148da8383614a36565b60208301905092915050565b60006148f28383614c54565b60208301905092915050565b614907816152af565b82525050565b614916816152af565b82525050565b60006149278261518e565b61493181856151e1565b935061493c8361515e565b8060005b8381101561496d57815161495488826148b6565b975061495f836151ba565b925050600181019050614940565b5085935050505092915050565b600061498582615199565b61498f81856151f2565b935061499a8361516e565b8060005b838110156149cb5781516149b288826148ce565b97506149bd836151c7565b92505060018101905061499e565b5085935050505092915050565b60006149e3826151a4565b6149ed8185615203565b93506149f88361517e565b8060005b83811015614a29578151614a1088826148e6565b9750614a1b836151d4565b9250506001810190506149fc565b5085935050505092915050565b614a3f816152c1565b82525050565b614a4e816152c1565b82525050565b6000614a5f826151af565b614a698185615214565b9350614a79818560208601615306565b614a82816154df565b840191505092915050565b6000614a9a602d83615214565b9150614aa5826154f0565b604082019050919050565b6000614abd603683615214565b9150614ac88261553f565b604082019050919050565b6000614ae0603883615214565b9150614aeb8261558e565b604082019050919050565b6000614b03602683615214565b9150614b0e826155dd565b604082019050919050565b6000614b26601583615214565b9150614b318261562c565b602082019050919050565b6000614b49601583615214565b9150614b5482615655565b602082019050919050565b6000614b6c601883615214565b9150614b778261567e565b602082019050919050565b6000614b8f600c83615214565b9150614b9a826156a7565b602082019050919050565b6000614bb2601f83615214565b9150614bbd826156d0565b602082019050919050565b6000614bd5601583615214565b9150614be0826156f9565b602082019050919050565b6000614bf8603683615214565b9150614c0382615722565b604082019050919050565b6000614c1b601383615214565b9150614c2682615771565b602082019050919050565b6000614c3e603283615214565b9150614c498261579a565b604082019050919050565b614c5d816152ed565b82525050565b614c6c816152ed565b82525050565b6000602082019050614c87600083018461490d565b92915050565b60006020820190508181036000830152614ca7818461491c565b905092915050565b60006060820190508181036000830152614cc981866149d8565b90508181036020830152614cdd818561491c565b90508181036040830152614cf181846149d8565b9050949350505050565b60006040820190508181036000830152614d1581856149d8565b90508181036020830152614d29818461497a565b90509392505050565b6000602082019050614d476000830184614a45565b92915050565b60006020820190508181036000830152614d678184614a54565b905092915050565b60006020820190508181036000830152614d8881614a8d565b9050919050565b60006020820190508181036000830152614da881614ab0565b9050919050565b60006020820190508181036000830152614dc881614ad3565b9050919050565b60006020820190508181036000830152614de881614af6565b9050919050565b60006020820190508181036000830152614e0881614b19565b9050919050565b60006020820190508181036000830152614e2881614b3c565b9050919050565b60006020820190508181036000830152614e4881614b5f565b9050919050565b60006020820190508181036000830152614e6881614b82565b9050919050565b60006020820190508181036000830152614e8881614ba5565b9050919050565b60006020820190508181036000830152614ea881614bc8565b9050919050565b60006020820190508181036000830152614ec881614beb565b9050919050565b60006020820190508181036000830152614ee881614c0e565b9050919050565b60006020820190508181036000830152614f0881614c31565b9050919050565b6000602082019050614f246000830184614c63565b92915050565b6000608082019050614f3f6000830187614c63565b8181036020830152614f5181866149d8565b90508181036040830152614f65818561491c565b90508181036060830152614f7981846149d8565b905095945050505050565b600060c082019050614f996000830189614c63565b8181036020830152614fab8188614a54565b9050614fba604083018761490d565b614fc76060830186614a45565b614fd46080830185614c63565b614fe160a0830184614c63565b979650505050505050565b60006080820190506150016000830187614c63565b81810360208301526150138186614a54565b9050615022604083018561490d565b61502f6060830184614c63565b95945050505050565b600060c08201905061504d6000830189614c63565b818103602083015261505f8188614a54565b905061506e604083018761490d565b61507b6060830186614c63565b818103608083015261508d81856149d8565b905081810360a08301526150a181846149d8565b9050979650505050505050565b600060a0820190506150c36000830188614c63565b81810360208301526150d58187614a54565b90506150e4604083018661490d565b6150f16060830185614c63565b6150fe6080830184614c63565b9695505050505050565b6000615112615123565b905061511e8282615395565b919050565b6000604051905090565b600067ffffffffffffffff8211156151485761514761549c565b5b615151826154df565b9050602081019050919050565b6000819050602082019050919050565b6000819050602082019050919050565b6000819050602082019050919050565b600081519050919050565b600081519050919050565b600081519050919050565b600081519050919050565b6000602082019050919050565b6000602082019050919050565b6000602082019050919050565b600082825260208201905092915050565b600082825260208201905092915050565b600082825260208201905092915050565b600082825260208201905092915050565b6000615230826152ed565b915061523b836152ed565b9250827fffffffffffffffffffffffffffffffffffffffffffffffffffffffffffffffff038211156152705761526f61540f565b5b828201905092915050565b6000615286826152ed565b9150615291836152ed565b9250828210156152a4576152a361540f565b5b828203905092915050565b60006152ba826152cd565b9050919050565b60008115159050919050565b600073ffffffffffffffffffffffffffffffffffffffff82169050919050565b6000819050919050565b82818337600083830152505050565b60005b83811015615324578082015181840152602081019050615309565b83811115615333576000848401525b50505050565b6000615344826152ed565b915060008214156153585761535761540f565b5b600182039050919050565b6000600282049050600182168061537b57607f821691505b6020821081141561538f5761538e61543e565b5b50919050565b61539e826154df565b810181811067ffffffffffffffff821117156153bd576153bc61549c565b5b80604052505050565b60006153d1826152ed565b91507fffffffffffffffffffffffffffffffffffffffffffffffffffffffffffffffff8214156154045761540361540f565b5b600182019050919050565b7f4e487b7100000000000000000000000000000000000000000000000000000000600052601160045260246000fd5b7f4e487b7100000000000000000000000000000000000000000000000000000000600052602260045260246000fd5b7f4e487b7100000000000000000000000000000000000000000000000000000000600052603260045260246000fd5b7f4e487b7100000000000000000000000000000000000000000000000000000000600052604160045260246000fd5b600080fd5b600080fd5b600080fd5b600080fd5b6000601f19601f8301169050919050565b7f5468697320616464726573732068617320616c7265616479206265656e20736560008201527f74207065726d697373696f6e7300000000000000000000000000000000000000602082015250565b7f3e3e3e5468652070726f426c6f636b41646472657373206e6f206d617463682060008201527f7468652063757272656e74206164647265737321212100000000000000000000602082015250565b7f3e3e3e546869732070726f666573736f72206973207465616368696e672c206360008201527f616e742072656d6f7665207065726d697373696f6e2121210000000000000000602082015250565b7f3e3e3e73747564656e7420646f6573206e6f74206f776e207468697320636f7560008201527f7273652121210000000000000000000000000000000000000000000000000000602082015250565b7f3e3e3e3e3e3e697341646d696e203d2066616c73650000000000000000000000600082015250565b7f3e3e3e63616e4170706c795f203d3d2066616c73650000000000000000000000600082015250565b7f3e3e3e546869732061646472657373206e6f2065786973740000000000000000600082015250565b7f756e617574686f72697a65640000000000000000000000000000000000000000600082015250565b7f3e3e3e5f636f75727365496420616c7265616479206578697374656421212100600082015250565b7f3e3e3e3e3e3e7265706561746564203d20747275650000000000000000000000600082015250565b7f3e3e3e546869732073747564656e74206973206c6561726e696e672c2063616e60008201527f742072656d6f7665207065726d697373696f6e21212100000000000000000000602082015250565b7f697350726f666573736f72203d2066616c736500000000000000000000000000600082015250565b7f3e3e3e5468697320626c6f636b4164647265737320776173206f726967696e6160008201527f6c6c79206e6f7420617574686f72697a65640000000000000000000000000000602082015250565b6157f2816152af565b81146157fd57600080fd5b50565b615809816152ed565b811461581457600080fd5b5056fea2646970667358221220bb64023918523e5cbd06cb5a24d1c8b833db69c59cb36b47e31ffa736c9e64ff64736f6c63430008070033",
  "immutableReferences": {},
  "source": "// SPDX-License-Identifier: MIT\npragma solidity >=0.4.22 <0.9.0;\n\n\n/*\n\n// professor (inherit)StructAndModifiers, Admin\n\n// : onlyProfessor\n// All functions in this contract are marked as: onlyprofessor\n1. createCourse()               //   Create course\n\n2. applyCourse()                //   Join the course\n\n3. createCourseGrade()          //   Create grades\n\n4. getGradeByProAddress()            //      View the grades of all students in the subject\n\n5. getGradeByProProAddrAndStuAddr()    //        View the grade of a student in a subject\n\n\n*/\n\n\nimport \"./Admin.sol\";\ncontract Professor is Admin {\n    //////////////////////////////////////////////////////////////////////////////////////////////////////////////\n    //   Only teachers have permission to create courses\n    function createCourse (uint _courseId, string memory _courseName,address _proBlockAddress) public onlyProfessor returns(bool){    \n        //  Check whether the proid matches the address\n        require(_proBlockAddress == msg.sender,\">>>The proBlockAddress no match the current address!!!\");\n        \n        //  Check whether the created course information already exists\n        bool isExisted = checkCourseExisted(_courseId); \n        require(isExisted == false,\">>>_courseId already existed!!!\");\n        \n        // onlyProfessorproBlockAddress\n        \n        //  Self increasing\n        courseCounts ++;\n        \n        //    Create initialization without students and grades\n        courseInfs[courseCounts].courseId = _courseId;\n        courseInfs[courseCounts].courseName = _courseName;\n        courseInfs[courseCounts].proBlockAddress = _proBlockAddress;\n        courseInfs[courseCounts].canApply = true;\n        courseInfs[courseCounts].gotStudentGradeCounts = 0;\n        \n        // course ID\n        // After successful creation, you need to put this course ID into the corresponding professor's file\n        uint professorIndex = getProfessorIndexByAddress(_proBlockAddress);\n        // ID Put the ID in the corresponding professor's file\n        professorSelfs[professorIndex].myProCourses.push(_courseId);  \n        \n        return true;\n        \n    }\n    \n    \n     //////////////////////////////////////////////////////////////////////////////////////////////////////////////\n    //  Professor Only professors have permission to join the course\n    \n    function applyCourse (uint _courseId,address _proBlockAddress,address _stuBlockAddress) public onlyProfessor returns(bool){\n        \n        // _proBlockAddress Check whether the proid matches the address\n        //require(_proBlockAddress == msg.sender,\">>>The proId no match the current address!!!\");\n        \n        //  Check whether the course information exists\n        //bool isExisted = checkCourseExisted(_courseId); \n        //require(isExisted == true,\">>>_courseId no existed!!!\");\n        \n        //  Check whether this course can be applied\n        bool canApply_ = checkCourseCanApply(_courseId);\n        require(canApply_ == true,\">>>canApply_ == false\");\n        \n        //  Check whether the professor has this course\n        //bool isheldByPro = checkCourseHeldByProBlockAddress(_courseId,_proBlockAddress);\n        //require(isheldByPro == true,\">>>professor does not own this course!!!\");\n              \n        // id Check whether the student ID is a student\n        //bool isStudent = checkIsStudent(_stuBlockAddress);\n        //require(isStudent == true,\">>>stuID is not a student!!!\");\n        \n        // student address\n        // After successful creation, you need to put this student ID into the corresponding student's file\n        uint studentIndex = getStudentIndexByAddress(_stuBlockAddress);\n        // \n        uint _stuId = studentSelfs[studentIndex].stuId;\n        //string memory _stuName = studentSelfs[studentIndex].stuName;\n\n        // ID Put the ID in the corresponding student's file\n        // course ID.  At this time, check whether there is a duplicate course ID\n        bool repeated = false;\n        for(uint i=0;i<studentSelfs[studentIndex].myStuCourses.length;i++){\n            if(studentSelfs[studentIndex].myStuCourses[i]==_courseId){\n                repeated = true;\n            }\n        }\n        require(repeated == false,\">>>>>>repeated = true\");\n        \n        // ,  No duplication, can apply\n        // id\n        studentSelfs[studentIndex].myStuCourses.push(_courseId);\n\n        //  ,\n        // First find the course and put the students' information into the corresponding course\n        uint indexOfCourseID = getIndexByCourseId(_courseId);\n\n        // \n        //string memory courseName_ = courseInfs[indexOfCourseID].courseName;\n        //studentSelfs[studentIndex].myStuCourseNames.push(courseName_);\n\n        // ,  \n        // +1\n        // +1, courseStudentCounts_  \n        \n        //Find the length of the array of students stored in this course, that is, the number of students who have taken this course\n        //New students will be assigned to the position of number + 1\n        //First assign the number of people + 1, and then assign it to coursestudentcounts_\n        \n        setcourseStudentCounts(_courseId);\n        uint courseStudentCounts_ = getcourseStudentCounts(_courseId);    \n        courseInfs[indexOfCourseID].courseStudents[courseStudentCounts_].stuBlockAddress = _stuBlockAddress;\n        courseInfs[indexOfCourseID].courseStudents[courseStudentCounts_].stuId = _stuId;\n        //courseInfs[indexOfCourseID].courseStudents[courseStudentCounts_].stuName = _stuName;\n\n        // ,+1   // Whenever a student applies, + 1\n        // isTeachingPeopleSum++\n        uint professorIndex = getProfessorIndexByAddress(_proBlockAddress);\n        professorSelfs[professorIndex].isTeachingPeopleSum += 1;\n        \n        //    // Set students in class\n        // isLearningSum++\n        studentSelfs[studentIndex].isLearningSum += 1;\n        \n        return true;\n        \n    }\n    \n    \n    // (onlyprofessor)  ==> course\n    // Create grade (onlyprofessor) = = > save to course class\n    //////////////////////////////////////////////////////////////////////////////////////////////////////////////\n    //     Only teachers have permission to create grades\n    //  _courseId ,  _proBlockAddress , _stuBlockAddress, _stuGrade\n    function createCourseGrade (uint _courseId,address _proBlockAddress,address _stuBlockAddress,uint _stuGrade) public onlyProfessor returns(bool){\n        \n        // _proBlockAddress Check whether the proid matches the address\n        //require(_proBlockAddress == msg.sender,\">>>The proId no match the current address!!!\");\n        \n        //  Check whether the course information exists\n        //bool isExisted = checkCourseExisted(_courseId); \n        //require(isExisted == true,\">>>_courseId no existed!!!\");\n        \n        // pro  First check whether the professor is proid's own course\n        //bool isheldByPro = checkCourseHeldByProBlockAddress(_courseId,_proBlockAddress);\n        //require(isheldByPro == true,\">>>professor does not own this course!!!\");\n        \n        // checkstu Check is stuid's own course\n        bool isheldByStu = checkCourseHeldByStuBlockAddress(_courseId,_stuBlockAddress);\n        require(isheldByStu == true,\">>>student does not own this course!!!\");\n        \n        //  Find the course first\n        uint indexOfCourseID = getIndexByCourseId(_courseId);\n        // ,  \n        // Find the length of the array of students stored in this course, that is, the number of students taking this course\n        uint courseStudentCounts_ = getcourseStudentCounts(_courseId);\n        \n        // \n        // Students can not apply for this course after they get their grades\n        courseInfs[indexOfCourseID].canApply = false;\n\n        //  \n        // Find the corresponding students' grades under the corresponding courses\n        for(uint j=1;j<=courseStudentCounts_;j++){\n            if(courseInfs[indexOfCourseID].courseStudents[j].stuBlockAddress==_stuBlockAddress){\n                //      Information matching, giving results\n                if(courseInfs[indexOfCourseID].courseStudents[j].stuGrade == 0){\n                    courseInfs[courseCounts].gotStudentGradeCounts++;\n                }\n\n                courseInfs[indexOfCourseID].courseStudents[j].stuGrade = _stuGrade;\n                \n                //   Update the status number of teachers and students\n                uint professorIndex = getProfessorIndexByAddress(_proBlockAddress);\n                uint studentIndex = getStudentIndexByAddress(_stuBlockAddress);\n                \n                if(professorSelfs[professorIndex].isTeachingPeopleSum != 0){\n                    // isTeaching--\n                    professorSelfs[professorIndex].isTeachingPeopleSum--;\n                }\n                if(studentSelfs[studentIndex].isLearningSum != 0){\n                    // isLearning--\n                    studentSelfs[studentIndex].isLearningSum--;\n                }\n                \n                // \n                //studentSelfs[studentIndex].myStuCoursesGrades.push(_stuGrade);\n\n                return true;    //  Update complete\n            }\n        }\n        // \n        return false;  //  \n        \n    }\n    \n/*\n    //   View the scores of all students in a subject\n    // If it is a professor, it can view the scores of students in his course\n    function getGradeByProAddress(uint _courseId, address _proBlockAddress) public view onlyProfessor returns(address[] memory, uint[] memory){\n        \n        // proBlockAddress Check whether the proid matches the address\n        require(_proBlockAddress == msg.sender,\">>>The proId no match the current address!!!\");\n        \n        //  Check whether the course information exists\n        bool isExisted = checkCourseExisted(_courseId); \n        require(isExisted == true,\">>>_courseId no existed!!!\");\n        \n        \n        // checkproId Check is proid's own course\n        bool isheldByPro = checkCourseHeldByProBlockAddress(_courseId,_proBlockAddress);\n        require(isheldByPro == true,\">>>professor does not own this course!!!\");\n        \n        ///\n        //  The results of all students under the course will be listed\n        \n        //  Find the course first\n        uint indexOfCourseID = getIndexByCourseId(_courseId);\n        \n        // ,  \n        // Find the length of the array of students stored in this course, that is, the number of students taking this course\n        uint courseStudentCounts_ = getcourseStudentCounts(_courseId);\n              \n        address[] memory myStudentAddress = new address[](courseStudentCounts_);\n        uint[] memory myStudentsGrade  = new uint[](courseStudentCounts_);\n              \n        for(uint j=1;j<=courseStudentCounts_;j++){\n            myStudentAddress[j-1] = courseInfs[indexOfCourseID].courseStudents[j].stuBlockAddress;\n            myStudentsGrade[j-1] = courseInfs[indexOfCourseID].courseStudents[j].stuGrade;\n        }    \n        return (myStudentAddress,myStudentsGrade) ;  //  complete\n          \n    }\n\n    \n*/   \n\n\n/*\n    //  View the results of a student in a subject\n    function getGradeByProAddrAndStuAddr(uint _courseId,address _proBlockAddress,address _stuBlockAddress) public view onlyProfessor returns(uint){\n        \n        // _proBlockAddress Check whether the proid matches the address\n        require(_proBlockAddress == msg.sender,\">>>The proId no match the current address!!!\");\n        \n        //  Check whether the course information exists\n        bool isExisted = checkCourseExisted(_courseId); \n        require(isExisted == true,\">>>_courseId no existed!!!\");\n        \n        // checkpro Check whether it is a course of proid\n        bool isheldByPro = checkCourseHeldByProBlockAddress(_courseId,_proBlockAddress);\n        require(isheldByPro == true,\">>>professor does not own this course!!!\");\n        \n        // checkstuId Check whether it is the course of stuid\n        bool isheldByStu = checkCourseHeldByStuBlockAddress(_courseId,_stuBlockAddress);\n        require(isheldByStu == true,\">>>student does not own this course!!!\");\n        \n        ///\n        //  Will list their achievements \n        //   Find the course first\n        uint indexOfCourseID = getIndexByCourseId(_courseId);\n        \n        // ,  \n        // Find the length of the array of students stored in this course, that is, the number of students taking this course\n        uint courseStudentCounts_ = getcourseStudentCounts(_courseId);\n            \n        uint myCourseGrade;\n        //   Find the corresponding student under the corresponding course\n        for(uint j=1;j<=courseStudentCounts_;j++){\n            if(courseInfs[indexOfCourseID].courseStudents[j].stuBlockAddress==_stuBlockAddress){\n                //   get Information matching, get score\n                myCourseGrade = courseInfs[indexOfCourseID].courseStudents[j].stuGrade;\n                return myCourseGrade;    //  complete\n            }\n        }\n        //  Otherwise, it will fail\n        return 0;  //  complete\n        \n    }\n*/\n    \n\n                    \n\n    \n}\n\n\n\n\n",
  "sourcePath": "/Users/sophotky/Computer-Science/blockchain/capstone/scouter2/contracts/Professor.sol",
  "compiler": {
    "name": "solc",
    "version": "0.8.7+commit.e28d00a7.Emscripten.clang"
  },
  "schemaVersion": "3.4.3",
  "updatedAt": "2021-12-05T07:58:49.604Z",
  "networkType": "ethereum",
  "devdoc": {
    "kind": "dev",
    "methods": {},
    "version": 1
  },
  "userdoc": {
    "kind": "user",
    "methods": {},
    "version": 1
  }
}