{
  "contractName": "Professor",
  "abi": [
    {
      "constant": true,
      "inputs": [],
      "name": "adminCounts",
      "outputs": [
        {
          "internalType": "uint256",
          "name": "",
          "type": "uint256"
        }
      ],
      "payable": false,
      "stateMutability": "view",
      "type": "function"
    },
    {
      "constant": true,
      "inputs": [
        {
          "internalType": "uint256",
          "name": "",
          "type": "uint256"
        }
      ],
      "name": "adminSelfs",
      "outputs": [
        {
          "internalType": "uint256",
          "name": "adminId",
          "type": "uint256"
        },
        {
          "internalType": "string",
          "name": "adminName",
          "type": "string"
        },
        {
          "internalType": "address",
          "name": "adminBlockAddress",
          "type": "address"
        },
        {
          "internalType": "uint256",
          "name": "adminAuthorization",
          "type": "uint256"
        }
      ],
      "payable": false,
      "stateMutability": "view",
      "type": "function"
    },
    {
      "constant": true,
      "inputs": [],
      "name": "courseCounts",
      "outputs": [
        {
          "internalType": "uint256",
          "name": "",
          "type": "uint256"
        }
      ],
      "payable": false,
      "stateMutability": "view",
      "type": "function"
    },
    {
      "constant": true,
      "inputs": [
        {
          "internalType": "uint256",
          "name": "",
          "type": "uint256"
        }
      ],
      "name": "courseInfs",
      "outputs": [
        {
          "internalType": "uint256",
          "name": "courseId",
          "type": "uint256"
        },
        {
          "internalType": "string",
          "name": "courseName",
          "type": "string"
        },
        {
          "internalType": "address",
          "name": "proBlockAddress",
          "type": "address"
        },
        {
          "internalType": "bool",
          "name": "canApply",
          "type": "bool"
        },
        {
          "internalType": "uint256",
          "name": "courseStudentCounts",
          "type": "uint256"
        }
      ],
      "payable": false,
      "stateMutability": "view",
      "type": "function"
    },
    {
      "constant": true,
      "inputs": [
        {
          "internalType": "address",
          "name": "_adminBlockAddress",
          "type": "address"
        }
      ],
      "name": "getAdminIndexByAddress",
      "outputs": [
        {
          "internalType": "uint256",
          "name": "",
          "type": "uint256"
        }
      ],
      "payable": false,
      "stateMutability": "view",
      "type": "function"
    },
    {
      "constant": true,
      "inputs": [],
      "name": "getAllCourseId",
      "outputs": [
        {
          "internalType": "uint256[]",
          "name": "",
          "type": "uint256[]"
        }
      ],
      "payable": false,
      "stateMutability": "view",
      "type": "function"
    },
    {
      "constant": true,
      "inputs": [],
      "name": "getAllStudentAddress",
      "outputs": [
        {
          "internalType": "address[]",
          "name": "",
          "type": "address[]"
        }
      ],
      "payable": false,
      "stateMutability": "view",
      "type": "function"
    },
    {
      "constant": true,
      "inputs": [
        {
          "internalType": "address",
          "name": "_address",
          "type": "address"
        }
      ],
      "name": "getAuthorizationByAddress",
      "outputs": [
        {
          "internalType": "uint256",
          "name": "",
          "type": "uint256"
        }
      ],
      "payable": false,
      "stateMutability": "view",
      "type": "function"
    },
    {
      "constant": true,
      "inputs": [],
      "name": "getCourseCounts",
      "outputs": [
        {
          "internalType": "uint256",
          "name": "",
          "type": "uint256"
        }
      ],
      "payable": false,
      "stateMutability": "view",
      "type": "function"
    },
    {
      "constant": true,
      "inputs": [
        {
          "internalType": "address",
          "name": "_proBlockAddress",
          "type": "address"
        }
      ],
      "name": "getCourseCountsByProAddress",
      "outputs": [
        {
          "internalType": "uint256",
          "name": "",
          "type": "uint256"
        }
      ],
      "payable": false,
      "stateMutability": "view",
      "type": "function"
    },
    {
      "constant": true,
      "inputs": [
        {
          "internalType": "address",
          "name": "_proBlockAddress",
          "type": "address"
        }
      ],
      "name": "getCourseIdByProAddress",
      "outputs": [
        {
          "internalType": "uint256[]",
          "name": "",
          "type": "uint256[]"
        }
      ],
      "payable": false,
      "stateMutability": "view",
      "type": "function"
    },
    {
      "constant": true,
      "inputs": [
        {
          "internalType": "uint256",
          "name": "_courseid",
          "type": "uint256"
        }
      ],
      "name": "getCourseInfByCourseId",
      "outputs": [
        {
          "internalType": "uint256",
          "name": "",
          "type": "uint256"
        },
        {
          "internalType": "string",
          "name": "",
          "type": "string"
        },
        {
          "internalType": "address",
          "name": "",
          "type": "address"
        },
        {
          "internalType": "uint256",
          "name": "",
          "type": "uint256"
        },
        {
          "internalType": "address[]",
          "name": "",
          "type": "address[]"
        },
        {
          "internalType": "uint256[]",
          "name": "",
          "type": "uint256[]"
        }
      ],
      "payable": false,
      "stateMutability": "view",
      "type": "function"
    },
    {
      "constant": true,
      "inputs": [
        {
          "internalType": "address",
          "name": "_address",
          "type": "address"
        }
      ],
      "name": "getIdByAddress",
      "outputs": [
        {
          "internalType": "uint256",
          "name": "",
          "type": "uint256"
        }
      ],
      "payable": false,
      "stateMutability": "view",
      "type": "function"
    },
    {
      "constant": true,
      "inputs": [
        {
          "internalType": "uint256",
          "name": "_courseId",
          "type": "uint256"
        }
      ],
      "name": "getIndexByCourseId",
      "outputs": [
        {
          "internalType": "uint256",
          "name": "",
          "type": "uint256"
        }
      ],
      "payable": false,
      "stateMutability": "view",
      "type": "function"
    },
    {
      "constant": true,
      "inputs": [],
      "name": "getMsgSender",
      "outputs": [
        {
          "internalType": "address",
          "name": "",
          "type": "address"
        }
      ],
      "payable": false,
      "stateMutability": "view",
      "type": "function"
    },
    {
      "constant": true,
      "inputs": [
        {
          "internalType": "address",
          "name": "_proBlockAddress",
          "type": "address"
        }
      ],
      "name": "getProfessorIndexByAddress",
      "outputs": [
        {
          "internalType": "uint256",
          "name": "",
          "type": "uint256"
        }
      ],
      "payable": false,
      "stateMutability": "view",
      "type": "function"
    },
    {
      "constant": true,
      "inputs": [
        {
          "internalType": "address",
          "name": "_stuBlockAddress",
          "type": "address"
        }
      ],
      "name": "getStudentIndexByAddress",
      "outputs": [
        {
          "internalType": "uint256",
          "name": "",
          "type": "uint256"
        }
      ],
      "payable": false,
      "stateMutability": "view",
      "type": "function"
    },
    {
      "constant": true,
      "inputs": [
        {
          "internalType": "address",
          "name": "_stuBlockAddress",
          "type": "address"
        }
      ],
      "name": "getStudentInfByStuAddress",
      "outputs": [
        {
          "internalType": "uint256",
          "name": "",
          "type": "uint256"
        },
        {
          "internalType": "string",
          "name": "",
          "type": "string"
        },
        {
          "internalType": "address",
          "name": "",
          "type": "address"
        },
        {
          "internalType": "uint256",
          "name": "",
          "type": "uint256"
        },
        {
          "internalType": "uint256[]",
          "name": "",
          "type": "uint256[]"
        },
        {
          "internalType": "uint256[]",
          "name": "",
          "type": "uint256[]"
        }
      ],
      "payable": false,
      "stateMutability": "view",
      "type": "function"
    },
    {
      "constant": true,
      "inputs": [
        {
          "internalType": "uint256",
          "name": "_courseid",
          "type": "uint256"
        },
        {
          "internalType": "uint256",
          "name": "_getTops",
          "type": "uint256"
        }
      ],
      "name": "getTopStudentsByCourseId",
      "outputs": [
        {
          "internalType": "uint256",
          "name": "",
          "type": "uint256"
        },
        {
          "internalType": "string",
          "name": "",
          "type": "string"
        },
        {
          "internalType": "address",
          "name": "",
          "type": "address"
        },
        {
          "internalType": "uint256",
          "name": "",
          "type": "uint256"
        },
        {
          "internalType": "address[]",
          "name": "",
          "type": "address[]"
        },
        {
          "internalType": "uint256[]",
          "name": "",
          "type": "uint256[]"
        }
      ],
      "payable": false,
      "stateMutability": "view",
      "type": "function"
    },
    {
      "constant": true,
      "inputs": [
        {
          "internalType": "uint256",
          "name": "_courseid",
          "type": "uint256"
        }
      ],
      "name": "getcourseStudentCounts",
      "outputs": [
        {
          "internalType": "uint256",
          "name": "courseStudentCounts_",
          "type": "uint256"
        }
      ],
      "payable": false,
      "stateMutability": "view",
      "type": "function"
    },
    {
      "constant": true,
      "inputs": [],
      "name": "modifiersOwner",
      "outputs": [
        {
          "internalType": "address",
          "name": "",
          "type": "address"
        }
      ],
      "payable": false,
      "stateMutability": "view",
      "type": "function"
    },
    {
      "constant": true,
      "inputs": [],
      "name": "personCounts",
      "outputs": [
        {
          "internalType": "uint256",
          "name": "",
          "type": "uint256"
        }
      ],
      "payable": false,
      "stateMutability": "view",
      "type": "function"
    },
    {
      "constant": true,
      "inputs": [],
      "name": "professorCounts",
      "outputs": [
        {
          "internalType": "uint256",
          "name": "",
          "type": "uint256"
        }
      ],
      "payable": false,
      "stateMutability": "view",
      "type": "function"
    },
    {
      "constant": true,
      "inputs": [
        {
          "internalType": "uint256",
          "name": "",
          "type": "uint256"
        }
      ],
      "name": "professorSelfs",
      "outputs": [
        {
          "internalType": "uint256",
          "name": "proId",
          "type": "uint256"
        },
        {
          "internalType": "string",
          "name": "proName",
          "type": "string"
        },
        {
          "internalType": "address",
          "name": "proBlockAddress",
          "type": "address"
        },
        {
          "internalType": "uint256",
          "name": "proAuthorization",
          "type": "uint256"
        },
        {
          "internalType": "uint256",
          "name": "isTeachingPeopleSum",
          "type": "uint256"
        }
      ],
      "payable": false,
      "stateMutability": "view",
      "type": "function"
    },
    {
      "constant": false,
      "inputs": [
        {
          "internalType": "address",
          "name": "_blockAddress",
          "type": "address"
        }
      ],
      "name": "removePermission",
      "outputs": [
        {
          "internalType": "bool",
          "name": "",
          "type": "bool"
        }
      ],
      "payable": false,
      "stateMutability": "nonpayable",
      "type": "function"
    },
    {
      "constant": false,
      "inputs": [
        {
          "internalType": "address",
          "name": "_blockAddress",
          "type": "address"
        },
        {
          "internalType": "uint256",
          "name": "_authorization",
          "type": "uint256"
        }
      ],
      "name": "setPermission",
      "outputs": [
        {
          "internalType": "bool",
          "name": "",
          "type": "bool"
        }
      ],
      "payable": false,
      "stateMutability": "nonpayable",
      "type": "function"
    },
    {
      "constant": true,
      "inputs": [],
      "name": "studentCounts",
      "outputs": [
        {
          "internalType": "uint256",
          "name": "",
          "type": "uint256"
        }
      ],
      "payable": false,
      "stateMutability": "view",
      "type": "function"
    },
    {
      "constant": true,
      "inputs": [
        {
          "internalType": "uint256",
          "name": "",
          "type": "uint256"
        }
      ],
      "name": "studentSelfs",
      "outputs": [
        {
          "internalType": "uint256",
          "name": "stuId",
          "type": "uint256"
        },
        {
          "internalType": "string",
          "name": "stuName",
          "type": "string"
        },
        {
          "internalType": "address",
          "name": "stuBlockAddress",
          "type": "address"
        },
        {
          "internalType": "uint256",
          "name": "stuAuthorization",
          "type": "uint256"
        },
        {
          "internalType": "uint256",
          "name": "isLearningSum",
          "type": "uint256"
        }
      ],
      "payable": false,
      "stateMutability": "view",
      "type": "function"
    },
    {
      "constant": false,
      "inputs": [
        {
          "internalType": "uint256",
          "name": "_courseId",
          "type": "uint256"
        },
        {
          "internalType": "string",
          "name": "_courseName",
          "type": "string"
        },
        {
          "internalType": "address",
          "name": "_proBlockAddress",
          "type": "address"
        }
      ],
      "name": "createCourse",
      "outputs": [
        {
          "internalType": "bool",
          "name": "",
          "type": "bool"
        }
      ],
      "payable": false,
      "stateMutability": "nonpayable",
      "type": "function"
    },
    {
      "constant": false,
      "inputs": [
        {
          "internalType": "uint256",
          "name": "_courseId",
          "type": "uint256"
        },
        {
          "internalType": "address",
          "name": "_proBlockAddress",
          "type": "address"
        },
        {
          "internalType": "address",
          "name": "_stuBlockAddress",
          "type": "address"
        }
      ],
      "name": "applyCourse",
      "outputs": [
        {
          "internalType": "bool",
          "name": "",
          "type": "bool"
        }
      ],
      "payable": false,
      "stateMutability": "nonpayable",
      "type": "function"
    },
    {
      "constant": false,
      "inputs": [
        {
          "internalType": "uint256",
          "name": "_courseId",
          "type": "uint256"
        },
        {
          "internalType": "address",
          "name": "_proBlockAddress",
          "type": "address"
        },
        {
          "internalType": "address",
          "name": "_stuBlockAddress",
          "type": "address"
        },
        {
          "internalType": "uint256",
          "name": "_stuGrade",
          "type": "uint256"
        }
      ],
      "name": "createCourseGrade",
      "outputs": [
        {
          "internalType": "bool",
          "name": "",
          "type": "bool"
        }
      ],
      "payable": false,
      "stateMutability": "nonpayable",
      "type": "function"
    }
  ],
  "bytecode": "0x6080604052600060015560006003556000600555600060075560016009556001600a556064600b556103e8600c55336000806101000a81548173ffffffffffffffffffffffffffffffffffffffff021916908373ffffffffffffffffffffffffffffffffffffffff1602179055506040518060800160405280600181526020016040518060400160405280600481526020017f526f6f740000000000000000000000000000000000000000000000000000000081525081526020016000809054906101000a900473ffffffffffffffffffffffffffffffffffffffff1673ffffffffffffffffffffffffffffffffffffffff1681526020016003815250600260006001815260200190815260200160002060008201518160000155602082015181600101908051906020019062000138929190620001a5565b5060408201518160020160006101000a81548173ffffffffffffffffffffffffffffffffffffffff021916908373ffffffffffffffffffffffffffffffffffffffff1602179055506060820151816003015590505060016000815480929190600101919050555062000254565b828054600181600116156101000203166002900490600052602060002090601f016020900481019282601f10620001e857805160ff191683800117855562000219565b8280016001018555821562000219579182015b8281111562000218578251825591602001919060010190620001fb565b5b5090506200022891906200022c565b5090565b6200025191905b808211156200024d57600081600090555060010162000233565b5090565b90565b61505280620002646000396000f3fe608060405234801561001057600080fd5b50600436106101e45760003560e01c806378a1fdbf1161010f578063ad9e42d9116100a2578063e074bb4711610071578063e074bb471461113b578063f6aa09e414611197578063fb3189e8146111f6578063fc0c1f3914611214576101e4565b8063ad9e42d91461101d578063bf01b0751461105f578063d8ded14b1461107d578063dff3b497146110e3576101e4565b806394e48ece116100de57806394e48ece14610d9a57806398aede5514610f1c5780639fde094314610f66578063a5cc464d14610fc5576101e4565b806378a1fdbf14610b6b5780637a6ce2e114610bfb5780638c8ef73314610c4557806390eab7a214610d42576101e4565b80631643c8db116101875780634d64e5ee116101565780634d64e5ee1461088e57806358a420651461097d5780635e719a4914610b0b5780637860a06914610b4d576101e4565b80631643c8db1461057e5780632454a9391461066657806330e94711146106be5780634d4fb0d714610836576101e4565b80630c1596b4116101c35780630c1596b4146104515780630d9382fc146104ea5780630e3bfd6c1461050857806310d756dd14610526576101e4565b80624255a6146101e9578063043022fa146102d857806309f006f5146103cb575b600080fd5b610215600480360360208110156101ff57600080fd5b8101908080359060200190929190505050611232565b60405180868152602001806020018573ffffffffffffffffffffffffffffffffffffffff1673ffffffffffffffffffffffffffffffffffffffff168152602001848152602001838152602001828103825286818151815260200191508051906020019080838360005b8381101561029957808201518184015260208101905061027e565b50505050905090810190601f1680156102c65780820380516001836020036101000a031916815260200191505b50965050505050505060405180910390f35b610304600480360360208110156102ee57600080fd5b8101908080359060200190929190505050611320565b60405180868152602001806020018573ffffffffffffffffffffffffffffffffffffffff1673ffffffffffffffffffffffffffffffffffffffff16815260200184151515158152602001838152602001828103825286818151815260200191508051906020019080838360005b8381101561038c578082015181840152602081019050610371565b50505050905090810190601f1680156103b95780820380516001836020036101000a031916815260200191505b50965050505050505060405180910390f35b610437600480360360608110156103e157600080fd5b8101908080359060200190929190803573ffffffffffffffffffffffffffffffffffffffff169060200190929190803573ffffffffffffffffffffffffffffffffffffffff16906020019092919050505061141b565b604051808215151515815260200191505060405180910390f35b6104936004803603602081101561046757600080fd5b81019080803573ffffffffffffffffffffffffffffffffffffffff1690602001909291905050506119d6565b6040518080602001828103825283818151815260200191508051906020019060200280838360005b838110156104d65780820151818401526020810190506104bb565b505050509050019250505060405180910390f35b6104f2611a91565b6040518082815260200191505060405180910390f35b610510611a97565b6040518082815260200191505060405180910390f35b6105686004803603602081101561053c57600080fd5b81019080803573ffffffffffffffffffffffffffffffffffffffff169060200190929190505050611a9d565b6040518082815260200191505060405180910390f35b6105aa6004803603602081101561059457600080fd5b8101908080359060200190929190505050611b39565b60405180858152602001806020018473ffffffffffffffffffffffffffffffffffffffff1673ffffffffffffffffffffffffffffffffffffffff168152602001838152602001828103825285818151815260200191508051906020019080838360005b8381101561062857808201518184015260208101905061060d565b50505050905090810190601f1680156106555780820380516001836020036101000a031916815260200191505b509550505050505060405180910390f35b6106a86004803603602081101561067c57600080fd5b81019080803573ffffffffffffffffffffffffffffffffffffffff169060200190929190505050611c21565b6040518082815260200191505060405180910390f35b6106ea600480360360208110156106d457600080fd5b8101908080359060200190929190505050611cbd565b60405180878152602001806020018673ffffffffffffffffffffffffffffffffffffffff1673ffffffffffffffffffffffffffffffffffffffff1681526020018581526020018060200180602001848103845289818151815260200191508051906020019080838360005b83811015610770578082015181840152602081019050610755565b50505050905090810190601f16801561079d5780820380516001836020036101000a031916815260200191505b50848103835286818151815260200191508051906020019060200280838360005b838110156107d95780820151818401526020810190506107be565b50505050905001848103825285818151815260200191508051906020019060200280838360005b8381101561081b578082015181840152602081019050610800565b50505050905001995050505050505050505060405180910390f35b6108786004803603602081101561084c57600080fd5b81019080803573ffffffffffffffffffffffffffffffffffffffff169060200190929190505050611f78565b6040518082815260200191505060405180910390f35b6108ba600480360360208110156108a457600080fd5b8101908080359060200190929190505050611fa8565b60405180868152602001806020018573ffffffffffffffffffffffffffffffffffffffff1673ffffffffffffffffffffffffffffffffffffffff168152602001848152602001838152602001828103825286818151815260200191508051906020019080838360005b8381101561093e578082015181840152602081019050610923565b50505050905090810190601f16801561096b5780820380516001836020036101000a031916815260200191505b50965050505050505060405180910390f35b6109bf6004803603602081101561099357600080fd5b81019080803573ffffffffffffffffffffffffffffffffffffffff169060200190929190505050612096565b60405180878152602001806020018673ffffffffffffffffffffffffffffffffffffffff1673ffffffffffffffffffffffffffffffffffffffff1681526020018581526020018060200180602001848103845289818151815260200191508051906020019080838360005b83811015610a45578082015181840152602081019050610a2a565b50505050905090810190601f168015610a725780820380516001836020036101000a031916815260200191505b50848103835286818151815260200191508051906020019060200280838360005b83811015610aae578082015181840152602081019050610a93565b50505050905001848103825285818151815260200191508051906020019060200280838360005b83811015610af0578082015181840152602081019050610ad5565b50505050905001995050505050505050505060405180910390f35b610b3760048036036020811015610b2157600080fd5b81019080803590602001909291905050506122e3565b6040518082815260200191505060405180910390f35b610b55612345565b6040518082815260200191505060405180910390f35b610be160048036036080811015610b8157600080fd5b8101908080359060200190929190803573ffffffffffffffffffffffffffffffffffffffff169060200190929190803573ffffffffffffffffffffffffffffffffffffffff1690602001909291908035906020019092919050505061234b565b604051808215151515815260200191505060405180910390f35b610c036127d0565b604051808273ffffffffffffffffffffffffffffffffffffffff1673ffffffffffffffffffffffffffffffffffffffff16815260200191505060405180910390f35b610d2860048036036060811015610c5b57600080fd5b810190808035906020019092919080359060200190640100000000811115610c8257600080fd5b820183602082011115610c9457600080fd5b80359060200191846001830284011164010000000083111715610cb657600080fd5b91908080601f016020809104026020016040519081016040528093929190818152602001838380828437600081840152601f19601f820116905080830192505050505050509192919290803573ffffffffffffffffffffffffffffffffffffffff1690602001909291905050506127d8565b604051808215151515815260200191505060405180910390f35b610d8460048036036020811015610d5857600080fd5b81019080803573ffffffffffffffffffffffffffffffffffffffff169060200190929190505050612b28565b6040518082815260200191505060405180910390f35b610dd060048036036040811015610db057600080fd5b810190808035906020019092919080359060200190929190505050612d28565b60405180878152602001806020018673ffffffffffffffffffffffffffffffffffffffff1673ffffffffffffffffffffffffffffffffffffffff1681526020018581526020018060200180602001848103845289818151815260200191508051906020019080838360005b83811015610e56578082015181840152602081019050610e3b565b50505050905090810190601f168015610e835780820380516001836020036101000a031916815260200191505b50848103835286818151815260200191508051906020019060200280838360005b83811015610ebf578082015181840152602081019050610ea4565b50505050905001848103825285818151815260200191508051906020019060200280838360005b83811015610f01578082015181840152602081019050610ee6565b50505050905001995050505050505050505060405180910390f35b610f246131bc565b604051808273ffffffffffffffffffffffffffffffffffffffff1673ffffffffffffffffffffffffffffffffffffffff16815260200191505060405180910390f35b610f6e6131e1565b6040518080602001828103825283818151815260200191508051906020019060200280838360005b83811015610fb1578082015181840152602081019050610f96565b505050509050019250505060405180910390f35b61100760048036036020811015610fdb57600080fd5b81019080803573ffffffffffffffffffffffffffffffffffffffff1690602001909291905050506132bd565b6040518082815260200191505060405180910390f35b6110496004803603602081101561103357600080fd5b8101908080359060200190929190505050613359565b6040518082815260200191505060405180910390f35b6110676133b4565b6040518082815260200191505060405180910390f35b6110c96004803603604081101561109357600080fd5b81019080803573ffffffffffffffffffffffffffffffffffffffff169060200190929190803590602001909291905050506133be565b604051808215151515815260200191505060405180910390f35b611125600480360360208110156110f957600080fd5b81019080803573ffffffffffffffffffffffffffffffffffffffff16906020019092919050505061398d565b6040518082815260200191505060405180910390f35b61117d6004803603602081101561115157600080fd5b81019080803573ffffffffffffffffffffffffffffffffffffffff169060200190929190505050613b8d565b604051808215151515815260200191505060405180910390f35b61119f6144f5565b6040518080602001828103825283818151815260200191508051906020019060200280838360005b838110156111e25780820151818401526020810190506111c7565b505050509050019250505060405180910390f35b6111fe614583565b6040518082815260200191505060405180910390f35b61121c614589565b6040518082815260200191505060405180910390f35b6006602052806000526040600020600091509050806000015490806001018054600181600116156101000203166002900480601f0160208091040260200160405190810160405280929190818152602001828054600181600116156101000203166002900480156112e45780601f106112b9576101008083540402835291602001916112e4565b820191906000526020600020905b8154815290600101906020018083116112c757829003601f168201915b5050505050908060020160009054906101000a900473ffffffffffffffffffffffffffffffffffffffff16908060030154908060050154905085565b6008602052806000526040600020600091509050806000015490806001018054600181600116156101000203166002900480601f0160208091040260200160405190810160405280929190818152602001828054600181600116156101000203166002900480156113d25780601f106113a7576101008083540402835291602001916113d2565b820191906000526020600020905b8154815290600101906020018083116113b557829003601f168201915b5050505050908060020160009054906101000a900473ffffffffffffffffffffffffffffffffffffffff16908060020160149054906101000a900460ff16908060030154905085565b6000806000905060008090505b60035481116114ad576004600082815260200190815260200160002060020160009054906101000a900473ffffffffffffffffffffffffffffffffffffffff1673ffffffffffffffffffffffffffffffffffffffff163373ffffffffffffffffffffffffffffffffffffffff1614156114a057600191505b8080600101915050611428565b5080611521576040517f08c379a00000000000000000000000000000000000000000000000000000000081526004018080602001828103825260138152602001807f697350726f666573736f72203d2066616c73650000000000000000000000000081525060200191505060405180910390fd5b3373ffffffffffffffffffffffffffffffffffffffff168473ffffffffffffffffffffffffffffffffffffffff16146115a5576040517f08c379a000000000000000000000000000000000000000000000000000000000815260040180806020018281038252602c815260200180614f3c602c913960400191505060405180910390fd5b60006115b08661458f565b9050600115158115151461162c576040517f08c379a000000000000000000000000000000000000000000000000000000000815260040180806020018281038252601a8152602001807f3e3e3e5f636f757273654964206e6f206578697374656421212100000000000081525060200191505060405180910390fd5b6000611637876145e0565b905060011515811515146116b3576040517f08c379a00000000000000000000000000000000000000000000000000000000081526004018080602001828103825260158152602001807f3e3e3e63616e4170706c795f203d3d2066616c7365000000000000000000000081525060200191505060405180910390fd5b60006116bf8888614662565b9050600115158115151461171e576040517f08c379a0000000000000000000000000000000000000000000000000000000008152600401808060200182810382526028815260200180614f8e6028913960400191505060405180910390fd5b600061172987614769565b905060011515811515146117a5576040517f08c379a000000000000000000000000000000000000000000000000000000000815260040180806020018281038252601c8152602001807f3e3e3e7374754944206973206e6f7420612073747564656e742121210000000081525060200191505060405180910390fd5b60006117b088611c21565b9050600080905060008090505b6006600084815260200190815260200160002060040180549050811015611823578b60066000858152602001908152602001600020600401828154811061180057fe5b9060005260206000200154141561181657600191505b80806001019150506117bd565b50600015158115151461189e576040517f08c379a00000000000000000000000000000000000000000000000000000000081526004018080602001828103825260158152602001807f3e3e3e3e3e3e7265706561746564203d2074727565000000000000000000000081525060200191505060405180910390fd5b600660008381526020019081526020016000206004018b908060018154018082558091505090600182039060005260206000200160009091929091909150555060006118e98c613359565b90506118f48c614806565b60006118ff8d6122e3565b90508a60086000848152602001908152602001600020600401600083815260200190815260200160002060000160006101000a81548173ffffffffffffffffffffffffffffffffffffffff021916908373ffffffffffffffffffffffffffffffffffffffff16021790555060006119758d6132bd565b9050600160046000838152602001908152602001600020600501600082825401925050819055506001600660008781526020019081526020016000206005016000828254019250508190555060019a50505050505050505050509392505050565b606060006119e3836132bd565b905060006119f084611f78565b9050606081604051908082528060200260200182016040528015611a235781602001602082028038833980820191505090505b50905060008090505b82811015611a8557600460008581526020019081526020016000206004018181548110611a5557fe5b9060005260206000200154828281518110611a6c57fe5b6020026020010181815250508080600101915050611a2c565b50809350505050919050565b60095481565b60075481565b600080600190505b6001548111611b2e578273ffffffffffffffffffffffffffffffffffffffff166002600083815260200190815260200160002060020160009054906101000a900473ffffffffffffffffffffffffffffffffffffffff1673ffffffffffffffffffffffffffffffffffffffff161415611b215780915050611b34565b8080600101915050611aa5565b50600090505b919050565b6002602052806000526040600020600091509050806000015490806001018054600181600116156101000203166002900480601f016020809104026020016040519081016040528092919081815260200182805460018160011615610100020316600290048015611beb5780601f10611bc057610100808354040283529160200191611beb565b820191906000526020600020905b815481529060010190602001808311611bce57829003601f168201915b5050505050908060020160009054906101000a900473ffffffffffffffffffffffffffffffffffffffff16908060030154905084565b600080600190505b6005548111611cb2578273ffffffffffffffffffffffffffffffffffffffff166006600083815260200190815260200160002060020160009054906101000a900473ffffffffffffffffffffffffffffffffffffffff1673ffffffffffffffffffffffffffffffffffffffff161415611ca55780915050611cb8565b8080600101915050611c29565b50600090505b919050565b600060606000806060806000611cd288613359565b90506000600860008381526020019081526020016000206000015490506060600860008481526020019081526020016000206001018054600181600116156101000203166002900480601f016020809104026020016040519081016040528092919081815260200182805460018160011615610100020316600290048015611d9b5780601f10611d7057610100808354040283529160200191611d9b565b820191906000526020600020905b815481529060010190602001808311611d7e57829003601f168201915b5050505050905060006008600085815260200190815260200160002060020160009054906101000a900473ffffffffffffffffffffffffffffffffffffffff169050600060086000868152602001908152602001600020600301549050606081604051908082528060200260200182016040528015611e295781602001602082028038833980820191505090505b509050606082604051908082528060200260200182016040528015611e5d5781602001602082028038833980820191505090505b5090506000600190505b838111611f555760086000898152602001908152602001600020600401600082815260200190815260200160002060000160009054906101000a900473ffffffffffffffffffffffffffffffffffffffff16836001830381518110611ec857fe5b602002602001019073ffffffffffffffffffffffffffffffffffffffff16908173ffffffffffffffffffffffffffffffffffffffff168152505060086000898152602001908152602001600020600401600082815260200190815260200160002060010154826001830381518110611f3c57fe5b6020026020010181815250508080600101915050611e67565b508585858585859c509c509c509c509c509c505050505050505091939550919395565b600080611f84836132bd565b90506004600082815260200190815260200160002060040180549050915050919050565b6004602052806000526040600020600091509050806000015490806001018054600181600116156101000203166002900480601f01602080910402602001604051908101604052809291908181526020018280546001816001161561010002031660029004801561205a5780601f1061202f5761010080835404028352916020019161205a565b820191906000526020600020905b81548152906001019060200180831161203d57829003601f168201915b5050505050908060020160009054906101000a900473ffffffffffffffffffffffffffffffffffffffff16908060030154908060050154905085565b6000606060008060608060006120ab88611c21565b90506000600660008381526020019081526020016000206000015490506060600660008481526020019081526020016000206001018054600181600116156101000203166002900480601f0160208091040260200160405190810160405280929190818152602001828054600181600116156101000203166002900480156121745780601f1061214957610100808354040283529160200191612174565b820191906000526020600020905b81548152906001019060200180831161215757829003601f168201915b5050505050905060006006600085815260200190815260200160002060020160009054906101000a900473ffffffffffffffffffffffffffffffffffffffff16905060006006600086815260200190815260200160002060030154905060606006600087815260200190815260200160002060040180548060200260200160405190810160405280929190818152602001828054801561223357602002820191906000526020600020905b81548152602001906001019080831161221f575b505050505090506060815160405190808252806020026020018201604052801561226c5781602001602082028038833980820191505090505b50905060008090505b82518110156122c05761229b8f84838151811061228e57fe5b602002602001015161486c565b8282815181106122a757fe5b6020026020010181815250508080600101915050612275565b508585858585859c509c509c509c509c509c505050505050505091939550919395565b600080600190505b600754811161233e578260086000838152602001908152602001600020600001541415612331576008600082815260200190815260200160002060030154915050612340565b80806001019150506122eb565b505b919050565b60035481565b6000806000905060008090505b60035481116123dd576004600082815260200190815260200160002060020160009054906101000a900473ffffffffffffffffffffffffffffffffffffffff1673ffffffffffffffffffffffffffffffffffffffff163373ffffffffffffffffffffffffffffffffffffffff1614156123d057600191505b8080600101915050612358565b5080612451576040517f08c379a00000000000000000000000000000000000000000000000000000000081526004018080602001828103825260138152602001807f697350726f666573736f72203d2066616c73650000000000000000000000000081525060200191505060405180910390fd5b3373ffffffffffffffffffffffffffffffffffffffff168573ffffffffffffffffffffffffffffffffffffffff16146124d5576040517f08c379a000000000000000000000000000000000000000000000000000000000815260040180806020018281038252602c815260200180614f3c602c913960400191505060405180910390fd5b60006124e08761458f565b9050600115158115151461255c576040517f08c379a000000000000000000000000000000000000000000000000000000000815260040180806020018281038252601a8152602001807f3e3e3e5f636f757273654964206e6f206578697374656421212100000000000081525060200191505060405180910390fd5b60006125688888614662565b905060011515811515146125c7576040517f08c379a0000000000000000000000000000000000000000000000000000000008152600401808060200182810382526028815260200180614f8e6028913960400191505060405180910390fd5b60006125d38988614971565b90506001151581151514612632576040517f08c379a0000000000000000000000000000000000000000000000000000000008152600401808060200182810382526026815260200180614f686026913960400191505060405180910390fd5b600061263d8a613359565b9050600061264a8b6122e3565b905060006008600084815260200190815260200160002060020160146101000a81548160ff0219169083151502179055506000600190505b8181116127bc578973ffffffffffffffffffffffffffffffffffffffff1660086000858152602001908152602001600020600401600083815260200190815260200160002060000160009054906101000a900473ffffffffffffffffffffffffffffffffffffffff1673ffffffffffffffffffffffffffffffffffffffff1614156127af57886008600085815260200190815260200160002060040160008381526020019081526020016000206001018190555060006127418c6132bd565b9050600061274e8c611c21565b90506004600083815260200190815260200160002060050160008154809291906001900391905055506006600082815260200190815260200160002060050160008154809291906001900391905055506001995050505050505050506127c7565b8080600101915050612682565b506000965050505050505b50949350505050565b600033905090565b6000806000905060008090505b600354811161286a576004600082815260200190815260200160002060020160009054906101000a900473ffffffffffffffffffffffffffffffffffffffff1673ffffffffffffffffffffffffffffffffffffffff163373ffffffffffffffffffffffffffffffffffffffff16141561285d57600191505b80806001019150506127e5565b50806128de576040517f08c379a00000000000000000000000000000000000000000000000000000000081526004018080602001828103825260138152602001807f697350726f666573736f72203d2066616c73650000000000000000000000000081525060200191505060405180910390fd5b3373ffffffffffffffffffffffffffffffffffffffff168373ffffffffffffffffffffffffffffffffffffffff1614612962576040517f08c379a0000000000000000000000000000000000000000000000000000000008152600401808060200182810382526036815260200180614ece6036913960400191505060405180910390fd5b600061296d8661458f565b905060001515811515146129e9576040517f08c379a000000000000000000000000000000000000000000000000000000000815260040180806020018281038252601f8152602001807f3e3e3e5f636f75727365496420616c726561647920657869737465642121210081525060200191505060405180910390fd5b6007600081548092919060010191905055508560086000600754815260200190815260200160002060000181905550846008600060075481526020019081526020016000206001019080519060200190612a44929190614c39565b508360086000600754815260200190815260200160002060020160006101000a81548173ffffffffffffffffffffffffffffffffffffffff021916908373ffffffffffffffffffffffffffffffffffffffff160217905550600160086000600754815260200190815260200160002060020160146101000a81548160ff0219169083151502179055506000612ad8856132bd565b905060046000828152602001908152602001600020600401879080600181540180825580915050906001820390600052602060002001600090919290919091505550600193505050509392505050565b600080600190505b6001548111612bcf578273ffffffffffffffffffffffffffffffffffffffff166002600083815260200190815260200160002060020160009054906101000a900473ffffffffffffffffffffffffffffffffffffffff1673ffffffffffffffffffffffffffffffffffffffff161415612bc2576002600082815260200190815260200160002060030154915050612d23565b8080600101915050612b30565b506000600190505b6003548111612c76578273ffffffffffffffffffffffffffffffffffffffff166004600083815260200190815260200160002060020160009054906101000a900473ffffffffffffffffffffffffffffffffffffffff1673ffffffffffffffffffffffffffffffffffffffff161415612c69576004600082815260200190815260200160002060030154915050612d23565b8080600101915050612bd7565b506000600190505b6005548111612d1d578273ffffffffffffffffffffffffffffffffffffffff166006600083815260200190815260200160002060020160009054906101000a900473ffffffffffffffffffffffffffffffffffffffff1673ffffffffffffffffffffffffffffffffffffffff161415612d10576006600082815260200190815260200160002060030154915050612d23565b8080600101915050612c7e565b50600090505b919050565b6000606060008060608060008790506000612d428a613359565b90506000600860008381526020019081526020016000206000015490506060600860008481526020019081526020016000206001018054600181600116156101000203166002900480601f016020809104026020016040519081016040528092919081815260200182805460018160011615610100020316600290048015612e0b5780601f10612de057610100808354040283529160200191612e0b565b820191906000526020600020905b815481529060010190602001808311612dee57829003601f168201915b5050505050905060006008600085815260200190815260200160002060020160009054906101000a900473ffffffffffffffffffffffffffffffffffffffff16905060006008600086815260200190815260200160002060030154905085811015612e74578095505b606086604051908082528060200260200182016040528015612ea55781602001602082028038833980820191505090505b509050606087604051908082528060200260200182016040528015612ed95781602001602082028038833980820191505090505b509050606083604051908082528060200260200182016040528015612f0d5781602001602082028038833980820191505090505b5090506000600190505b848111612f7157600860008a8152602001908152602001600020600401600082815260200190815260200160002060010154826001830381518110612f5857fe5b6020026020010181815250508080600101915050612f17565b5060008090505b84811015613040576000600190505b8581101561303257826001820381518110612f9e57fe5b6020026020010151838281518110612fb257fe5b60200260200101511115613025576000836001830381518110612fd157fe5b60200260200101519050838281518110612fe757fe5b6020026020010151846001840381518110612ffe57fe5b6020026020010181815250508084838151811061301757fe5b602002602001018181525050505b8080600101915050612f87565b508080600101915050612f78565b50600080905060008090505b85811015613195578a82141561306157613195565b82818151811061306d57fe5b602002602001015184828151811061308157fe5b6020026020010181815250506000600190505b86811161317f57600860008c81526020019081526020016000206004016000828152602001908152602001600020600101548583815181106130d257fe5b6020026020010151141561317257600860008c8152602001908152602001600020600401600082815260200190815260200160002060000160009054906101000a900473ffffffffffffffffffffffffffffffffffffffff1686838151811061313757fe5b602002602001019073ffffffffffffffffffffffffffffffffffffffff16908173ffffffffffffffffffffffffffffffffffffffff16815250505b8080600101915050613094565b508180600101925050808060010191505061304c565b508787878787879f509f509f509f509f509f50505050505050505050509295509295509295565b6000809054906101000a900473ffffffffffffffffffffffffffffffffffffffff1681565b6060806005546040519080825280602002602001820160405280156132155781602001602082028038833980820191505090505b5090506000600190505b60055481116132b5576006600082815260200190815260200160002060020160009054906101000a900473ffffffffffffffffffffffffffffffffffffffff1682600183038151811061326e57fe5b602002602001019073ffffffffffffffffffffffffffffffffffffffff16908173ffffffffffffffffffffffffffffffffffffffff1681525050808060010191505061321f565b508091505090565b600080600190505b600354811161334e578273ffffffffffffffffffffffffffffffffffffffff166004600083815260200190815260200160002060020160009054906101000a900473ffffffffffffffffffffffffffffffffffffffff1673ffffffffffffffffffffffffffffffffffffffff1614156133415780915050613354565b80806001019150506132c5565b50600090505b919050565b600080600090506000600190505b60075481116133a857836008600083815260200190815260200160002060000154141561339b5780915081925050506133af565b8080600101915050613367565b5060009150505b919050565b6000600754905090565b6000806000905060008090505b6001548111613450576002600082815260200190815260200160002060020160009054906101000a900473ffffffffffffffffffffffffffffffffffffffff1673ffffffffffffffffffffffffffffffffffffffff163373ffffffffffffffffffffffffffffffffffffffff16141561344357600191505b80806001019150506133cb565b50806134c4576040517f08c379a00000000000000000000000000000000000000000000000000000000081526004018080602001828103825260158152602001807f3e3e3e3e3e3e697341646d696e203d2066616c7365000000000000000000000081525060200191505060405180910390fd5b60018314806134d35750600283145b806134de5750600383145b613550576040517f08c379a000000000000000000000000000000000000000000000000000000000815260040180806020018281038252600c8152602001807f756e617574686f72697a6564000000000000000000000000000000000000000081525060200191505060405180910390fd5b6000151561355d85614a78565b1515146135b5576040517f08c379a000000000000000000000000000000000000000000000000000000000815260040180806020018281038252602d815260200180614ea1602d913960400191505060405180910390fd5b600960008154809291906001019190505550600183141561370d57600560008154809291906001019190505550600c60008154809291906001019190505550600c54600660006005548152602001908152602001600020600001819055506040518060400160405280600881526020017f7374752d6e616d650000000000000000000000000000000000000000000000008152506006600060055481526020019081526020016000206001019080519060200190613674929190614c39565b508360066000600554815260200190815260200160002060020160006101000a81548173ffffffffffffffffffffffffffffffffffffffff021916908373ffffffffffffffffffffffffffffffffffffffff160217905550600160066000600554815260200190815260200160002060030181905550600060066000600554815260200190815260200160002060050181905550613982565b600283141561385357600360008154809291906001019190505550600b60008154809291906001019190505550600b54600460006003548152602001908152602001600020600001819055506040518060400160405280600881526020017f70726f2d6e616d6500000000000000000000000000000000000000000000000081525060046000600354815260200190815260200160002060010190805190602001906137ba929190614c39565b508360046000600354815260200190815260200160002060020160006101000a81548173ffffffffffffffffffffffffffffffffffffffff021916908373ffffffffffffffffffffffffffffffffffffffff160217905550600260046000600354815260200190815260200160002060030181905550600060046000600354815260200190815260200160002060050181905550613981565b600383141561398057600160008154809291906001019190505550600a600081548092919060010191905055506040518060800160405280600a5481526020016040518060400160405280600881526020017f61646d2d6e616d6500000000000000000000000000000000000000000000000081525081526020018573ffffffffffffffffffffffffffffffffffffffff168152602001600381525060026000600154815260200190815260200160002060008201518160000155602082015181600101908051906020019061392a929190614cb9565b5060408201518160020160006101000a81548173ffffffffffffffffffffffffffffffffffffffff021916908373ffffffffffffffffffffffffffffffffffffffff160217905550606082015181600301559050505b5b5b600191505092915050565b600080600190505b6001548111613a34578273ffffffffffffffffffffffffffffffffffffffff166002600083815260200190815260200160002060020160009054906101000a900473ffffffffffffffffffffffffffffffffffffffff1673ffffffffffffffffffffffffffffffffffffffff161415613a27576002600082815260200190815260200160002060000154915050613b88565b8080600101915050613995565b506000600190505b6003548111613adb578273ffffffffffffffffffffffffffffffffffffffff166004600083815260200190815260200160002060020160009054906101000a900473ffffffffffffffffffffffffffffffffffffffff1673ffffffffffffffffffffffffffffffffffffffff161415613ace576004600082815260200190815260200160002060000154915050613b88565b8080600101915050613a3c565b506000600190505b6005548111613b82578273ffffffffffffffffffffffffffffffffffffffff166006600083815260200190815260200160002060020160009054906101000a900473ffffffffffffffffffffffffffffffffffffffff1673ffffffffffffffffffffffffffffffffffffffff161415613b75576006600082815260200190815260200160002060000154915050613b88565b8080600101915050613ae3565b50600090505b919050565b6000806000905060008090505b6001548111613c1f576002600082815260200190815260200160002060020160009054906101000a900473ffffffffffffffffffffffffffffffffffffffff1673ffffffffffffffffffffffffffffffffffffffff163373ffffffffffffffffffffffffffffffffffffffff161415613c1257600191505b8080600101915050613b9a565b5080613c93576040517f08c379a00000000000000000000000000000000000000000000000000000000081526004018080602001828103825260158152602001807f3e3e3e3e3e3e697341646d696e203d2066616c7365000000000000000000000081525060200191505060405180910390fd5b60011515613ca084614a78565b151514613d15576040517f08c379a00000000000000000000000000000000000000000000000000000000081526004018080602001828103825260188152602001807f3e3e3e546869732061646472657373206e6f206578697374000000000000000081525060200191505060405180910390fd5b6000613d2084612b28565b90506000811415613d7c576040517f08c379a0000000000000000000000000000000000000000000000000000000008152600401808060200182810382526032815260200180614fec6032913960400191505060405180910390fd5b6001811415614032576000613d9085611c21565b90506000600660008381526020019081526020016000206005015414613e01576040517f08c379a0000000000000000000000000000000000000000000000000000000008152600401808060200182810382526036815260200180614fb66036913960400191505060405180910390fd5b60008190505b600554811015613fa1576006600060018301815260200190815260200160002060000154600660008381526020019081526020016000206000018190555060066000600183018152602001908152602001600020600101600660008381526020019081526020016000206001019080546001816001161561010002031660029004613e93929190614d39565b506006600060018301815260200190815260200160002060020160009054906101000a900473ffffffffffffffffffffffffffffffffffffffff166006600083815260200190815260200160002060020160006101000a81548173ffffffffffffffffffffffffffffffffffffffff021916908373ffffffffffffffffffffffffffffffffffffffff160217905550600660006001830181526020019081526020016000206003015460066000838152602001908152602001600020600301819055506006600060018301815260200190815260200160002060040160066000838152602001908152602001600020600401908054613f93929190614dc0565b508080600101915050613e07565b50600660006005548152602001908152602001600020600080820160009055600182016000613fd09190614e12565b6002820160006101000a81549073ffffffffffffffffffffffffffffffffffffffff0219169055600382016000905560048201600061400f9190614e5a565b6005820160009055505060056000815480929190600190039190505550506144d7565b60028114156142e8576000614046856132bd565b905060006004600083815260200190815260200160002060050154146140b7576040517f08c379a0000000000000000000000000000000000000000000000000000000008152600401808060200182810382526038815260200180614f046038913960400191505060405180910390fd5b60008190505b600354811015614257576004600060018301815260200190815260200160002060000154600460008381526020019081526020016000206000018190555060046000600183018152602001908152602001600020600101600460008381526020019081526020016000206001019080546001816001161561010002031660029004614149929190614d39565b506004600060018301815260200190815260200160002060020160009054906101000a900473ffffffffffffffffffffffffffffffffffffffff166004600083815260200190815260200160002060020160006101000a81548173ffffffffffffffffffffffffffffffffffffffff021916908373ffffffffffffffffffffffffffffffffffffffff160217905550600460006001830181526020019081526020016000206003015460046000838152602001908152602001600020600301819055506004600060018301815260200190815260200160002060040160046000838152602001908152602001600020600401908054614249929190614dc0565b5080806001019150506140bd565b506004600060035481526020019081526020016000206000808201600090556001820160006142869190614e12565b6002820160006101000a81549073ffffffffffffffffffffffffffffffffffffffff021916905560038201600090556004820160006142c59190614e5a565b6005820160009055505060036000815480929190600190039190505550506144d6565b60038114156144d55760006142fc85611a9d565b905060008190505b600154811015614460576002600060018301815260200190815260200160002060000154600260008381526020019081526020016000206000018190555060026000600183018152602001908152602001600020600101600260008381526020019081526020016000206001019080546001816001161561010002031660029004614390929190614d39565b506002600060018301815260200190815260200160002060020160009054906101000a900473ffffffffffffffffffffffffffffffffffffffff166002600083815260200190815260200160002060020160006101000a81548173ffffffffffffffffffffffffffffffffffffffff021916908373ffffffffffffffffffffffffffffffffffffffff160217905550600260006001830181526020019081526020016000206003015460026000838152602001908152602001600020600301819055508080600101915050614304565b5060026000600154815260200190815260200160002060008082016000905560018201600061448f9190614e12565b6002820160006101000a81549073ffffffffffffffffffffffffffffffffffffffff02191690556003820160009055505060016000815480929190600190039190505550505b5b5b60096000815480929190600190039190505550600192505050919050565b6060806007546040519080825280602002602001820160405280156145295781602001602082028038833980820191505090505b5090506000600190505b600754811161457b57600860008281526020019081526020016000206000015482600183038151811061456257fe5b6020026020010181815250508080600101915050614533565b508091505090565b60055481565b60015481565b600080600190505b60075481116145d55782600860008381526020019081526020016000206000015414156145c85760019150506145db565b8080600101915050614597565b50600090505b919050565b600080600190505b600754811161465757826008600083815260200190815260200160002060000154141561464a57600115156008600083815260200190815260200160002060020160149054906101000a900460ff161515141561464957600191505061465d565b5b80806001019150506145e8565b50600090505b919050565b600080600190505b600354811161475d578273ffffffffffffffffffffffffffffffffffffffff166004600083815260200190815260200160002060020160009054906101000a900473ffffffffffffffffffffffffffffffffffffffff1673ffffffffffffffffffffffffffffffffffffffff1614156147505760008090505b6004600083815260200190815260200160002060040180549050811161474e578460046000848152602001908152602001600020600401828154811061472557fe5b9060005260206000200154141561474157600192505050614763565b80806001019150506146e3565b505b808060010191505061466a565b50600090505b92915050565b600080600090505b60055481116147fb576006600082815260200190815260200160002060020160009054906101000a900473ffffffffffffffffffffffffffffffffffffffff1673ffffffffffffffffffffffffffffffffffffffff168373ffffffffffffffffffffffffffffffffffffffff1614156147ee576001915050614801565b8080600101915050614771565b50600090505b919050565b6000600190505b600754811161486857816008600083815260200190815260200160002060000154141561485b5760086000828152602001908152602001600020600301600081548092919060010191905055505b808060010191505061480d565b5050565b60008061487883613359565b90506000600190505b6008600083815260200190815260200160002060030154811161496457600060086000848152602001908152602001600020600401600083815260200190815260200160002060000160009054906101000a900473ffffffffffffffffffffffffffffffffffffffff1690508573ffffffffffffffffffffffffffffffffffffffff168173ffffffffffffffffffffffffffffffffffffffff1614156149565760086000848152602001908152602001600020600401600083815260200190815260200160002060010154935050505061496b565b508080600101915050614881565b5060009150505b92915050565b600080600190505b6005548111614a6c578273ffffffffffffffffffffffffffffffffffffffff166006600083815260200190815260200160002060020160009054906101000a900473ffffffffffffffffffffffffffffffffffffffff1673ffffffffffffffffffffffffffffffffffffffff161415614a5f5760008090505b60066000838152602001908152602001600020600401805490508111614a5d5784600660008481526020019081526020016000206004018281548110614a3457fe5b90600052602060002001541415614a5057600192505050614a72565b80806001019150506149f2565b505b8080600101915050614979565b50600090505b92915050565b600080600190505b6001548111614b0a578273ffffffffffffffffffffffffffffffffffffffff166002600083815260200190815260200160002060020160009054906101000a900473ffffffffffffffffffffffffffffffffffffffff1673ffffffffffffffffffffffffffffffffffffffff161415614afd576001915050614c34565b8080600101915050614a80565b506000600190505b6003548111614b9c578273ffffffffffffffffffffffffffffffffffffffff166004600083815260200190815260200160002060020160009054906101000a900473ffffffffffffffffffffffffffffffffffffffff1673ffffffffffffffffffffffffffffffffffffffff161415614b8f576001915050614c34565b8080600101915050614b12565b506000600190505b6005548111614c2e578273ffffffffffffffffffffffffffffffffffffffff166006600083815260200190815260200160002060020160009054906101000a900473ffffffffffffffffffffffffffffffffffffffff1673ffffffffffffffffffffffffffffffffffffffff161415614c21576001915050614c34565b8080600101915050614ba4565b50600090505b919050565b828054600181600116156101000203166002900490600052602060002090601f016020900481019282601f10614c7a57805160ff1916838001178555614ca8565b82800160010185558215614ca8579182015b82811115614ca7578251825591602001919060010190614c8c565b5b509050614cb59190614e7b565b5090565b828054600181600116156101000203166002900490600052602060002090601f016020900481019282601f10614cfa57805160ff1916838001178555614d28565b82800160010185558215614d28579182015b82811115614d27578251825591602001919060010190614d0c565b5b509050614d359190614e7b565b5090565b828054600181600116156101000203166002900490600052602060002090601f016020900481019282601f10614d725780548555614daf565b82800160010185558215614daf57600052602060002091601f016020900482015b82811115614dae578254825591600101919060010190614d93565b5b509050614dbc9190614e7b565b5090565b828054828255906000526020600020908101928215614e015760005260206000209182015b82811115614e00578254825591600101919060010190614de5565b5b509050614e0e9190614e7b565b5090565b50805460018160011615610100020316600290046000825580601f10614e385750614e57565b601f016020900490600052602060002090810190614e569190614e7b565b5b50565b5080546000825590600052602060002090810190614e789190614e7b565b50565b614e9d91905b80821115614e99576000816000905550600101614e81565b5090565b9056fe5468697320616464726573732068617320616c7265616479206265656e20736574207065726d697373696f6e733e3e3e5468652070726f426c6f636b41646472657373206e6f206d61746368207468652063757272656e7420616464726573732121213e3e3e546869732070726f666573736f72206973207465616368696e672c2063616e742072656d6f7665207065726d697373696f6e2121213e3e3e5468652070726f4964206e6f206d61746368207468652063757272656e7420616464726573732121213e3e3e73747564656e7420646f6573206e6f74206f776e207468697320636f757273652121213e3e3e70726f666573736f7220646f6573206e6f74206f776e207468697320636f757273652121213e3e3e546869732073747564656e74206973206c6561726e696e672c2063616e742072656d6f7665207065726d697373696f6e2121213e3e3e5468697320626c6f636b4164647265737320776173206f726967696e616c6c79206e6f7420617574686f72697a6564a265627a7a723158207ed27d7691f78e4993060bf35ba00114020e0decd6b07a69c1c9c2a22a78c06b64736f6c63430005100032",
  "source": "// SPDX-License-Identifier: MIT\r\npragma solidity >=0.4.22 <0.9.0;\r\n\r\n\r\n/*\r\n\r\n// professor (inherit)StructAndModifiers, Admin\r\n\r\n// : onlyProfessor\r\n// All functions in this contract are marked as: onlyprofessor\r\n1. createCourse()               //   Create course\r\n\r\n2. applyCourse()                //   Join the course\r\n\r\n3. createCourseGrade()          //   Create grades\r\n\r\n4. getGradeByProAddress()            //      View the grades of all students in the subject\r\n\r\n5. getGradeByProProAddrAndStuAddr()    //        View the grade of a student in a subject\r\n\r\n\r\n*/\r\n\r\n\r\nimport \"./Admin.sol\";\r\ncontract Professor is Admin{\r\n    \r\n    //////////////////////////////////////////////////////////////////////////////////////////////////////////////\r\n    //   Only teachers have permission to create courses\r\n    function createCourse (uint _courseId, string memory _courseName,address _proBlockAddress) public onlyProfessor returns(bool){    \r\n        //  Check whether the proid matches the address\r\n        require(_proBlockAddress == msg.sender,\">>>The proBlockAddress no match the current address!!!\");\r\n        \r\n        //  Check whether the created course information already exists\r\n        bool isExisted = checkCourseExisted(_courseId); \r\n        require(isExisted == false,\">>>_courseId already existed!!!\");\r\n        \r\n        // onlyProfessorproBlockAddress\r\n        \r\n        //  Self increasing\r\n        courseCounts ++;\r\n        \r\n        //    Create initialization without students and grades\r\n        courseInfs[courseCounts].courseId = _courseId;\r\n        courseInfs[courseCounts].courseName = _courseName;\r\n        courseInfs[courseCounts].proBlockAddress = _proBlockAddress;\r\n        courseInfs[courseCounts].canApply = true;\r\n        \r\n        // course ID\r\n        // After successful creation, you need to put this course ID into the corresponding professor's file\r\n        uint professorIndex = getProfessorIndexByAddress(_proBlockAddress);\r\n        // ID Put the ID in the corresponding professor's file\r\n        professorSelfs[professorIndex].myProCourses.push(_courseId);  \r\n        \r\n        return true;\r\n        \r\n    }\r\n    \r\n    \r\n     //////////////////////////////////////////////////////////////////////////////////////////////////////////////\r\n    //  Professor Only professors have permission to join the course\r\n    \r\n    function applyCourse (uint _courseId,address _proBlockAddress,address _stuBlockAddress) public onlyProfessor returns(bool){\r\n        \r\n        // _proBlockAddress Check whether the proid matches the address\r\n        require(_proBlockAddress == msg.sender,\">>>The proId no match the current address!!!\");\r\n        \r\n        //  Check whether the course information exists\r\n        bool isExisted = checkCourseExisted(_courseId); \r\n        require(isExisted == true,\">>>_courseId no existed!!!\");\r\n        \r\n        //  Check whether this course can be applied\r\n        bool canApply_ = checkCourseCanApply(_courseId);\r\n        require(canApply_ == true,\">>>canApply_ == false\");\r\n        \r\n        //  Check whether the professor has this course\r\n        bool isheldByPro = checkCourseHeldByProBlockAddress(_courseId,_proBlockAddress);\r\n        require(isheldByPro == true,\">>>professor does not own this course!!!\");\r\n              \r\n        // id Check whether the student ID is a student\r\n        bool isStudent = checkIsStudent(_stuBlockAddress);\r\n        require(isStudent == true,\">>>stuID is not a student!!!\");\r\n        \r\n        // student address\r\n        // After successful creation, you need to put this student ID into the corresponding student's file\r\n        uint studentIndex = getStudentIndexByAddress(_stuBlockAddress);\r\n        \r\n        // ID Put the ID in the corresponding student's file\r\n        // course ID.  At this time, check whether there is a duplicate course ID\r\n        bool repeated = false;\r\n        for(uint i=0;i<studentSelfs[studentIndex].myStuCourses.length;i++){\r\n            if(studentSelfs[studentIndex].myStuCourses[i]==_courseId){\r\n                repeated = true;\r\n            }\r\n        }\r\n        require(repeated == false,\">>>>>>repeated = true\");\r\n        \r\n        // ,  No duplication, can apply\r\n        studentSelfs[studentIndex].myStuCourses.push(_courseId);\r\n        \r\n        \r\n        \r\n        //  ,\r\n        // First find the course and put the students' information into the corresponding course\r\n        uint indexOfCourseID = getIndexByCourseId(_courseId);\r\n        \r\n        // ,  \r\n        // +1\r\n        // +1, courseStudentCounts_  \r\n        \r\n        //Find the length of the array of students stored in this course, that is, the number of students who have taken this course\r\n        //New students will be assigned to the position of number + 1\r\n        //First assign the number of people + 1, and then assign it to coursestudentcounts_\r\n        \r\n        setcourseStudentCounts(_courseId);\r\n        uint courseStudentCounts_ = getcourseStudentCounts(_courseId);    \r\n        courseInfs[indexOfCourseID].courseStudents[courseStudentCounts_].stuBlockAddress = _stuBlockAddress;\r\n           \r\n        // ,+1   // Whenever a student applies, + 1\r\n        // isTeachingPeopleSum++\r\n        uint professorIndex = getProfessorIndexByAddress(_proBlockAddress);\r\n        professorSelfs[professorIndex].isTeachingPeopleSum += 1;\r\n        \r\n        //    // Set students in class\r\n        // isLearningSum++\r\n        studentSelfs[studentIndex].isLearningSum += 1;\r\n        \r\n        return true;\r\n        \r\n    }\r\n    \r\n    \r\n    // (onlyprofessor)  ==> course\r\n    // Create grade (onlyprofessor) = = > save to course class\r\n    //////////////////////////////////////////////////////////////////////////////////////////////////////////////\r\n    //     Only teachers have permission to create grades\r\n    //  _courseId ,  _proId , _stuId, _stuGrade\r\n    function createCourseGrade (uint _courseId,address _proBlockAddress,address _stuBlockAddress,uint _stuGrade) public onlyProfessor returns(bool){\r\n        \r\n        // _proBlockAddress Check whether the proid matches the address\r\n        require(_proBlockAddress == msg.sender,\">>>The proId no match the current address!!!\");\r\n        \r\n        //  Check whether the course information exists\r\n        bool isExisted = checkCourseExisted(_courseId); \r\n        require(isExisted == true,\">>>_courseId no existed!!!\");\r\n        \r\n        // pro  First check whether the professor is proid's own course\r\n        bool isheldByPro = checkCourseHeldByProBlockAddress(_courseId,_proBlockAddress);\r\n        require(isheldByPro == true,\">>>professor does not own this course!!!\");\r\n        \r\n        // checkstu Check is stuid's own course\r\n        bool isheldByStu = checkCourseHeldByStuBlockAddress(_courseId,_stuBlockAddress);\r\n        require(isheldByStu == true,\">>>student does not own this course!!!\");\r\n        \r\n        //  Find the course first\r\n        uint indexOfCourseID = getIndexByCourseId(_courseId);\r\n        // ,  \r\n        // Find the length of the array of students stored in this course, that is, the number of students taking this course\r\n        uint courseStudentCounts_ = getcourseStudentCounts(_courseId);\r\n        \r\n        // \r\n        // Students can not apply for this course after they get their grades\r\n        courseInfs[indexOfCourseID].canApply = false;\r\n\r\n        //  \r\n        // Find the corresponding students' grades under the corresponding courses\r\n        for(uint j=1;j<=courseStudentCounts_;j++){\r\n            if(courseInfs[indexOfCourseID].courseStudents[j].stuBlockAddress==_stuBlockAddress){\r\n                //      Information matching, giving results\r\n                courseInfs[indexOfCourseID].courseStudents[j].stuGrade = _stuGrade;\r\n                \r\n                //   Update the status number of teachers and students\r\n                uint professorIndex = getProfessorIndexByAddress(_proBlockAddress);\r\n                uint studentIndex = getStudentIndexByAddress(_stuBlockAddress);\r\n                // isTeaching--\r\n                professorSelfs[professorIndex].isTeachingPeopleSum--;\r\n                // isLearning--\r\n                studentSelfs[studentIndex].isLearningSum--;\r\n                \r\n                return true;    //  Update complete\r\n            }\r\n        }\r\n        // \r\n        return false;  //  \r\n        \r\n    }\r\n    \r\n/*\r\n    //   View the scores of all students in a subject\r\n    // If it is a professor, it can view the scores of students in his course\r\n    function getGradeByProAddress(uint _courseId, address _proBlockAddress) public view onlyProfessor returns(address[] memory, uint[] memory){\r\n        \r\n        // proBlockAddress Check whether the proid matches the address\r\n        require(_proBlockAddress == msg.sender,\">>>The proId no match the current address!!!\");\r\n        \r\n        //  Check whether the course information exists\r\n        bool isExisted = checkCourseExisted(_courseId); \r\n        require(isExisted == true,\">>>_courseId no existed!!!\");\r\n        \r\n        \r\n        // checkproId Check is proid's own course\r\n        bool isheldByPro = checkCourseHeldByProBlockAddress(_courseId,_proBlockAddress);\r\n        require(isheldByPro == true,\">>>professor does not own this course!!!\");\r\n        \r\n        ///\r\n        //  The results of all students under the course will be listed\r\n        \r\n        //  Find the course first\r\n        uint indexOfCourseID = getIndexByCourseId(_courseId);\r\n        \r\n        // ,  \r\n        // Find the length of the array of students stored in this course, that is, the number of students taking this course\r\n        uint courseStudentCounts_ = getcourseStudentCounts(_courseId);\r\n              \r\n        address[] memory myStudentAddress = new address[](courseStudentCounts_);\r\n        uint[] memory myStudentsGrade  = new uint[](courseStudentCounts_);\r\n              \r\n        for(uint j=1;j<=courseStudentCounts_;j++){\r\n            myStudentAddress[j-1] = courseInfs[indexOfCourseID].courseStudents[j].stuBlockAddress;\r\n            myStudentsGrade[j-1] = courseInfs[indexOfCourseID].courseStudents[j].stuGrade;\r\n        }    \r\n        return (myStudentAddress,myStudentsGrade) ;  //  complete\r\n          \r\n    }\r\n\r\n    \r\n*/   \r\n\r\n\r\n/*\r\n    //  View the results of a student in a subject\r\n    function getGradeByProAddrAndStuAddr(uint _courseId,address _proBlockAddress,address _stuBlockAddress) public view onlyProfessor returns(uint){\r\n        \r\n        // _proBlockAddress Check whether the proid matches the address\r\n        require(_proBlockAddress == msg.sender,\">>>The proId no match the current address!!!\");\r\n        \r\n        //  Check whether the course information exists\r\n        bool isExisted = checkCourseExisted(_courseId); \r\n        require(isExisted == true,\">>>_courseId no existed!!!\");\r\n        \r\n        // checkpro Check whether it is a course of proid\r\n        bool isheldByPro = checkCourseHeldByProBlockAddress(_courseId,_proBlockAddress);\r\n        require(isheldByPro == true,\">>>professor does not own this course!!!\");\r\n        \r\n        // checkstuId Check whether it is the course of stuid\r\n        bool isheldByStu = checkCourseHeldByStuBlockAddress(_courseId,_stuBlockAddress);\r\n        require(isheldByStu == true,\">>>student does not own this course!!!\");\r\n        \r\n        ///\r\n        //  Will list their achievements \r\n        //   Find the course first\r\n        uint indexOfCourseID = getIndexByCourseId(_courseId);\r\n        \r\n        // ,  \r\n        // Find the length of the array of students stored in this course, that is, the number of students taking this course\r\n        uint courseStudentCounts_ = getcourseStudentCounts(_courseId);\r\n            \r\n        uint myCourseGrade;\r\n        //   Find the corresponding student under the corresponding course\r\n        for(uint j=1;j<=courseStudentCounts_;j++){\r\n            if(courseInfs[indexOfCourseID].courseStudents[j].stuBlockAddress==_stuBlockAddress){\r\n                //   get Information matching, get score\r\n                myCourseGrade = courseInfs[indexOfCourseID].courseStudents[j].stuGrade;\r\n                return myCourseGrade;    //  complete\r\n            }\r\n        }\r\n        //  Otherwise, it will fail\r\n        return 0;  //  complete\r\n        \r\n    }\r\n*/\r\n    \r\n\r\n                    \r\n\r\n    \r\n}\r\n\r\n\r\n\r\n\r\n",
  "sourcePath": "D:\\UNIV\\year 4\\capstone\\scouter2\\contracts\\Professor.sol",
  "compiler": {
    "name": "solc",
    "version": "0.5.16+commit.9c3226ce.Emscripten.clang"
  },
  "schemaVersion": "3.4.3",
  "updatedAt": "2021-12-03T17:13:46.526Z",
  "networkType": "ethereum",
  "devdoc": {
    "methods": {}
  },
  "userdoc": {
    "methods": {
      "applyCourse(uint256,address,address)": {
        "notice": "///////////////////////////////////////////////////////////////////////////////////////////////////////////"
      },
      "createCourse(uint256,string,address)": {
        "notice": "///////////////////////////////////////////////////////////////////////////////////////////////////////////"
      },
      "createCourseGrade(uint256,address,address,uint256)": {
        "notice": "///////////////////////////////////////////////////////////////////////////////////////////////////////////"
      },
      "getAdminIndexByAddress(address)": {
        "notice": "//////////////////////////////////////////////////////////////////////////////////////////////////////////////"
      },
      "getIndexByCourseId(uint256)": {
        "notice": "//////////////////////////////////////////////////////////////////////////////////////////////////////////////"
      },
      "getMsgSender()": {
        "notice": "///////////////////////////////////////////////////////////   ///////////////////////////////////////////////////////////   ////////////////////////////  4.2. getter function"
      },
      "getProfessorIndexByAddress(address)": {
        "notice": "//////////////////////////////////////////////////////////////////////////////////////////////////////////////"
      },
      "getStudentIndexByAddress(address)": {
        "notice": "//////////////////////////////////////////////////////////////////////////////////////////////////////////////"
      },
      "removePermission(address)": {
        "notice": "/////////////////////////////////////////////////////////////////////////////////////////////////////////// "
      },
      "setPermission(address,uint256)": {
        "notice": "/////////////////////////////////////////////////////////////////////////////////////////////////////////// "
      }
    }
  }
}