{
  "contractName": "Professor",
  "abi": [
    {
      "constant": true,
      "inputs": [],
      "name": "adminCounts",
      "outputs": [
        {
          "internalType": "uint256",
          "name": "",
          "type": "uint256"
        }
      ],
      "payable": false,
      "stateMutability": "view",
      "type": "function"
    },
    {
      "constant": true,
      "inputs": [
        {
          "internalType": "uint256",
          "name": "",
          "type": "uint256"
        }
      ],
      "name": "adminSelfs",
      "outputs": [
        {
          "internalType": "uint256",
          "name": "adminId",
          "type": "uint256"
        },
        {
          "internalType": "string",
          "name": "adminName",
          "type": "string"
        },
        {
          "internalType": "address",
          "name": "adminBlockAddress",
          "type": "address"
        },
        {
          "internalType": "uint256",
          "name": "adminAuthorization",
          "type": "uint256"
        }
      ],
      "payable": false,
      "stateMutability": "view",
      "type": "function"
    },
    {
      "constant": true,
      "inputs": [],
      "name": "courseCounts",
      "outputs": [
        {
          "internalType": "uint256",
          "name": "",
          "type": "uint256"
        }
      ],
      "payable": false,
      "stateMutability": "view",
      "type": "function"
    },
    {
      "constant": true,
      "inputs": [
        {
          "internalType": "uint256",
          "name": "",
          "type": "uint256"
        }
      ],
      "name": "courseInfs",
      "outputs": [
        {
          "internalType": "uint256",
          "name": "courseId",
          "type": "uint256"
        },
        {
          "internalType": "string",
          "name": "courseName",
          "type": "string"
        },
        {
          "internalType": "address",
          "name": "proBlockAddress",
          "type": "address"
        },
        {
          "internalType": "bool",
          "name": "canApply",
          "type": "bool"
        },
        {
          "internalType": "uint256",
          "name": "courseStudentCounts",
          "type": "uint256"
        }
      ],
      "payable": false,
      "stateMutability": "view",
      "type": "function"
    },
    {
      "constant": true,
      "inputs": [
        {
          "internalType": "uint256",
          "name": "_id",
          "type": "uint256"
        }
      ],
      "name": "getAddressById",
      "outputs": [
        {
          "internalType": "address",
          "name": "",
          "type": "address"
        }
      ],
      "payable": false,
      "stateMutability": "view",
      "type": "function"
    },
    {
      "constant": true,
      "inputs": [],
      "name": "getAdminCounts",
      "outputs": [
        {
          "internalType": "uint256",
          "name": "",
          "type": "uint256"
        }
      ],
      "payable": false,
      "stateMutability": "view",
      "type": "function"
    },
    {
      "constant": true,
      "inputs": [
        {
          "internalType": "address",
          "name": "_adminBlockAddress",
          "type": "address"
        }
      ],
      "name": "getAdminIndexByAddress",
      "outputs": [
        {
          "internalType": "uint256",
          "name": "",
          "type": "uint256"
        }
      ],
      "payable": false,
      "stateMutability": "view",
      "type": "function"
    },
    {
      "constant": true,
      "inputs": [],
      "name": "getAllCourseId",
      "outputs": [
        {
          "internalType": "uint256[]",
          "name": "",
          "type": "uint256[]"
        }
      ],
      "payable": false,
      "stateMutability": "view",
      "type": "function"
    },
    {
      "constant": true,
      "inputs": [],
      "name": "getAllProfessorAddress",
      "outputs": [
        {
          "internalType": "address[]",
          "name": "",
          "type": "address[]"
        }
      ],
      "payable": false,
      "stateMutability": "view",
      "type": "function"
    },
    {
      "constant": true,
      "inputs": [],
      "name": "getAllProfessorId",
      "outputs": [
        {
          "internalType": "uint256[]",
          "name": "",
          "type": "uint256[]"
        }
      ],
      "payable": false,
      "stateMutability": "view",
      "type": "function"
    },
    {
      "constant": true,
      "inputs": [],
      "name": "getAllStudentAddress",
      "outputs": [
        {
          "internalType": "address[]",
          "name": "",
          "type": "address[]"
        }
      ],
      "payable": false,
      "stateMutability": "view",
      "type": "function"
    },
    {
      "constant": true,
      "inputs": [],
      "name": "getAllStudentId",
      "outputs": [
        {
          "internalType": "uint256[]",
          "name": "",
          "type": "uint256[]"
        }
      ],
      "payable": false,
      "stateMutability": "view",
      "type": "function"
    },
    {
      "constant": true,
      "inputs": [
        {
          "internalType": "address",
          "name": "_address",
          "type": "address"
        }
      ],
      "name": "getAuthorizationByAddress",
      "outputs": [
        {
          "internalType": "uint256",
          "name": "",
          "type": "uint256"
        }
      ],
      "payable": false,
      "stateMutability": "view",
      "type": "function"
    },
    {
      "constant": true,
      "inputs": [],
      "name": "getCourseCounts",
      "outputs": [
        {
          "internalType": "uint256",
          "name": "",
          "type": "uint256"
        }
      ],
      "payable": false,
      "stateMutability": "view",
      "type": "function"
    },
    {
      "constant": true,
      "inputs": [
        {
          "internalType": "address",
          "name": "_proBlockAddress",
          "type": "address"
        }
      ],
      "name": "getCourseCountsByProAddress",
      "outputs": [
        {
          "internalType": "uint256",
          "name": "",
          "type": "uint256"
        }
      ],
      "payable": false,
      "stateMutability": "view",
      "type": "function"
    },
    {
      "constant": true,
      "inputs": [
        {
          "internalType": "address",
          "name": "_stuBlockAddress",
          "type": "address"
        }
      ],
      "name": "getCourseCountsByStuAddress",
      "outputs": [
        {
          "internalType": "uint256",
          "name": "",
          "type": "uint256"
        }
      ],
      "payable": false,
      "stateMutability": "view",
      "type": "function"
    },
    {
      "constant": true,
      "inputs": [
        {
          "internalType": "address",
          "name": "_proBlockAddress",
          "type": "address"
        }
      ],
      "name": "getCourseIdByProAddress",
      "outputs": [
        {
          "internalType": "uint256[]",
          "name": "",
          "type": "uint256[]"
        }
      ],
      "payable": false,
      "stateMutability": "view",
      "type": "function"
    },
    {
      "constant": true,
      "inputs": [
        {
          "internalType": "address",
          "name": "_stuBlockAddress",
          "type": "address"
        }
      ],
      "name": "getCourseIdByStuAddress",
      "outputs": [
        {
          "internalType": "uint256[]",
          "name": "",
          "type": "uint256[]"
        }
      ],
      "payable": false,
      "stateMutability": "view",
      "type": "function"
    },
    {
      "constant": true,
      "inputs": [
        {
          "internalType": "uint256",
          "name": "_courseid",
          "type": "uint256"
        }
      ],
      "name": "getCourseInfByCourseId",
      "outputs": [
        {
          "internalType": "uint256",
          "name": "",
          "type": "uint256"
        },
        {
          "internalType": "string",
          "name": "",
          "type": "string"
        },
        {
          "internalType": "address",
          "name": "",
          "type": "address"
        },
        {
          "internalType": "uint256",
          "name": "",
          "type": "uint256"
        },
        {
          "internalType": "address[]",
          "name": "",
          "type": "address[]"
        },
        {
          "internalType": "uint256[]",
          "name": "",
          "type": "uint256[]"
        }
      ],
      "payable": false,
      "stateMutability": "view",
      "type": "function"
    },
    {
      "constant": true,
      "inputs": [
        {
          "internalType": "uint256",
          "name": "_courseid",
          "type": "uint256"
        }
      ],
      "name": "getCourseStudentsByCourseId",
      "outputs": [
        {
          "internalType": "address[]",
          "name": "",
          "type": "address[]"
        },
        {
          "internalType": "uint256[]",
          "name": "",
          "type": "uint256[]"
        }
      ],
      "payable": false,
      "stateMutability": "view",
      "type": "function"
    },
    {
      "constant": true,
      "inputs": [
        {
          "internalType": "address",
          "name": "_address",
          "type": "address"
        }
      ],
      "name": "getIdByAddress",
      "outputs": [
        {
          "internalType": "uint256",
          "name": "",
          "type": "uint256"
        }
      ],
      "payable": false,
      "stateMutability": "view",
      "type": "function"
    },
    {
      "constant": true,
      "inputs": [
        {
          "internalType": "uint256",
          "name": "_courseId",
          "type": "uint256"
        }
      ],
      "name": "getIndexByCourseId",
      "outputs": [
        {
          "internalType": "uint256",
          "name": "",
          "type": "uint256"
        }
      ],
      "payable": false,
      "stateMutability": "view",
      "type": "function"
    },
    {
      "constant": true,
      "inputs": [],
      "name": "getMsgSender",
      "outputs": [
        {
          "internalType": "address",
          "name": "",
          "type": "address"
        }
      ],
      "payable": false,
      "stateMutability": "view",
      "type": "function"
    },
    {
      "constant": true,
      "inputs": [],
      "name": "getMsgSenderAuthorization",
      "outputs": [
        {
          "internalType": "uint256",
          "name": "",
          "type": "uint256"
        }
      ],
      "payable": false,
      "stateMutability": "view",
      "type": "function"
    },
    {
      "constant": true,
      "inputs": [],
      "name": "getProfessorCounts",
      "outputs": [
        {
          "internalType": "uint256",
          "name": "",
          "type": "uint256"
        }
      ],
      "payable": false,
      "stateMutability": "view",
      "type": "function"
    },
    {
      "constant": true,
      "inputs": [
        {
          "internalType": "address",
          "name": "_proBlockAddress",
          "type": "address"
        }
      ],
      "name": "getProfessorIndexByAddress",
      "outputs": [
        {
          "internalType": "uint256",
          "name": "",
          "type": "uint256"
        }
      ],
      "payable": false,
      "stateMutability": "view",
      "type": "function"
    },
    {
      "constant": true,
      "inputs": [
        {
          "internalType": "address",
          "name": "_proBlockAddress",
          "type": "address"
        }
      ],
      "name": "getProfessorInfByProAddress",
      "outputs": [
        {
          "internalType": "uint256",
          "name": "",
          "type": "uint256"
        },
        {
          "internalType": "string",
          "name": "",
          "type": "string"
        },
        {
          "internalType": "address",
          "name": "",
          "type": "address"
        },
        {
          "internalType": "uint256",
          "name": "",
          "type": "uint256"
        },
        {
          "internalType": "uint256[]",
          "name": "",
          "type": "uint256[]"
        }
      ],
      "payable": false,
      "stateMutability": "view",
      "type": "function"
    },
    {
      "constant": true,
      "inputs": [],
      "name": "getStudentCounts",
      "outputs": [
        {
          "internalType": "uint256",
          "name": "",
          "type": "uint256"
        }
      ],
      "payable": false,
      "stateMutability": "view",
      "type": "function"
    },
    {
      "constant": true,
      "inputs": [
        {
          "internalType": "address",
          "name": "_stuBlockAddress",
          "type": "address"
        }
      ],
      "name": "getStudentIndexByAddress",
      "outputs": [
        {
          "internalType": "uint256",
          "name": "",
          "type": "uint256"
        }
      ],
      "payable": false,
      "stateMutability": "view",
      "type": "function"
    },
    {
      "constant": true,
      "inputs": [
        {
          "internalType": "address",
          "name": "_stuBlockAddress",
          "type": "address"
        }
      ],
      "name": "getStudentInfByStuAddress",
      "outputs": [
        {
          "internalType": "uint256",
          "name": "",
          "type": "uint256"
        },
        {
          "internalType": "string",
          "name": "",
          "type": "string"
        },
        {
          "internalType": "address",
          "name": "",
          "type": "address"
        },
        {
          "internalType": "uint256",
          "name": "",
          "type": "uint256"
        },
        {
          "internalType": "uint256[]",
          "name": "",
          "type": "uint256[]"
        }
      ],
      "payable": false,
      "stateMutability": "view",
      "type": "function"
    },
    {
      "constant": true,
      "inputs": [
        {
          "internalType": "uint256",
          "name": "_courseid",
          "type": "uint256"
        },
        {
          "internalType": "uint256",
          "name": "_getTops",
          "type": "uint256"
        }
      ],
      "name": "getTopStudentsByCourseId",
      "outputs": [
        {
          "internalType": "uint256",
          "name": "",
          "type": "uint256"
        },
        {
          "internalType": "string",
          "name": "",
          "type": "string"
        },
        {
          "internalType": "address",
          "name": "",
          "type": "address"
        },
        {
          "internalType": "uint256",
          "name": "",
          "type": "uint256"
        },
        {
          "internalType": "address[]",
          "name": "",
          "type": "address[]"
        },
        {
          "internalType": "uint256[]",
          "name": "",
          "type": "uint256[]"
        }
      ],
      "payable": false,
      "stateMutability": "view",
      "type": "function"
    },
    {
      "constant": true,
      "inputs": [
        {
          "internalType": "uint256",
          "name": "_courseid",
          "type": "uint256"
        }
      ],
      "name": "getcourseStudentCounts",
      "outputs": [
        {
          "internalType": "uint256",
          "name": "courseStudentCounts_",
          "type": "uint256"
        }
      ],
      "payable": false,
      "stateMutability": "view",
      "type": "function"
    },
    {
      "constant": true,
      "inputs": [],
      "name": "modifiersOwner",
      "outputs": [
        {
          "internalType": "address",
          "name": "",
          "type": "address"
        }
      ],
      "payable": false,
      "stateMutability": "view",
      "type": "function"
    },
    {
      "constant": true,
      "inputs": [],
      "name": "personCounts",
      "outputs": [
        {
          "internalType": "uint256",
          "name": "",
          "type": "uint256"
        }
      ],
      "payable": false,
      "stateMutability": "view",
      "type": "function"
    },
    {
      "constant": true,
      "inputs": [],
      "name": "professorCounts",
      "outputs": [
        {
          "internalType": "uint256",
          "name": "",
          "type": "uint256"
        }
      ],
      "payable": false,
      "stateMutability": "view",
      "type": "function"
    },
    {
      "constant": true,
      "inputs": [
        {
          "internalType": "uint256",
          "name": "",
          "type": "uint256"
        }
      ],
      "name": "professorSelfs",
      "outputs": [
        {
          "internalType": "uint256",
          "name": "proId",
          "type": "uint256"
        },
        {
          "internalType": "string",
          "name": "proName",
          "type": "string"
        },
        {
          "internalType": "address",
          "name": "proBlockAddress",
          "type": "address"
        },
        {
          "internalType": "uint256",
          "name": "proAuthorization",
          "type": "uint256"
        },
        {
          "internalType": "uint256",
          "name": "isTeachingPeopleSum",
          "type": "uint256"
        }
      ],
      "payable": false,
      "stateMutability": "view",
      "type": "function"
    },
    {
      "constant": false,
      "inputs": [
        {
          "internalType": "address",
          "name": "_blockAddress",
          "type": "address"
        }
      ],
      "name": "removePermission",
      "outputs": [
        {
          "internalType": "bool",
          "name": "",
          "type": "bool"
        }
      ],
      "payable": false,
      "stateMutability": "nonpayable",
      "type": "function"
    },
    {
      "constant": false,
      "inputs": [
        {
          "internalType": "address",
          "name": "_address",
          "type": "address"
        },
        {
          "internalType": "string",
          "name": "_name",
          "type": "string"
        }
      ],
      "name": "setNameByAddress",
      "outputs": [
        {
          "internalType": "bool",
          "name": "",
          "type": "bool"
        }
      ],
      "payable": false,
      "stateMutability": "nonpayable",
      "type": "function"
    },
    {
      "constant": false,
      "inputs": [
        {
          "internalType": "address",
          "name": "_blockAddress",
          "type": "address"
        },
        {
          "internalType": "uint256",
          "name": "_authorization",
          "type": "uint256"
        }
      ],
      "name": "setPermission",
      "outputs": [
        {
          "internalType": "bool",
          "name": "",
          "type": "bool"
        }
      ],
      "payable": false,
      "stateMutability": "nonpayable",
      "type": "function"
    },
    {
      "constant": true,
      "inputs": [],
      "name": "studentCounts",
      "outputs": [
        {
          "internalType": "uint256",
          "name": "",
          "type": "uint256"
        }
      ],
      "payable": false,
      "stateMutability": "view",
      "type": "function"
    },
    {
      "constant": true,
      "inputs": [
        {
          "internalType": "uint256",
          "name": "",
          "type": "uint256"
        }
      ],
      "name": "studentSelfs",
      "outputs": [
        {
          "internalType": "uint256",
          "name": "stuId",
          "type": "uint256"
        },
        {
          "internalType": "string",
          "name": "stuName",
          "type": "string"
        },
        {
          "internalType": "address",
          "name": "stuBlockAddress",
          "type": "address"
        },
        {
          "internalType": "uint256",
          "name": "stuAuthorization",
          "type": "uint256"
        },
        {
          "internalType": "uint256",
          "name": "isLearningSum",
          "type": "uint256"
        }
      ],
      "payable": false,
      "stateMutability": "view",
      "type": "function"
    },
    {
      "constant": false,
      "inputs": [
        {
          "internalType": "uint256",
          "name": "_courseId",
          "type": "uint256"
        },
        {
          "internalType": "string",
          "name": "_courseName",
          "type": "string"
        },
        {
          "internalType": "address",
          "name": "_proBlockAddress",
          "type": "address"
        }
      ],
      "name": "createCourse",
      "outputs": [
        {
          "internalType": "bool",
          "name": "",
          "type": "bool"
        }
      ],
      "payable": false,
      "stateMutability": "nonpayable",
      "type": "function"
    },
    {
      "constant": false,
      "inputs": [
        {
          "internalType": "uint256",
          "name": "_courseId",
          "type": "uint256"
        },
        {
          "internalType": "address",
          "name": "_proBlockAddress",
          "type": "address"
        },
        {
          "internalType": "address",
          "name": "_stuBlockAddress",
          "type": "address"
        }
      ],
      "name": "applyCourse",
      "outputs": [
        {
          "internalType": "bool",
          "name": "",
          "type": "bool"
        }
      ],
      "payable": false,
      "stateMutability": "nonpayable",
      "type": "function"
    },
    {
      "constant": false,
      "inputs": [
        {
          "internalType": "uint256",
          "name": "_courseId",
          "type": "uint256"
        },
        {
          "internalType": "address",
          "name": "_proBlockAddress",
          "type": "address"
        },
        {
          "internalType": "address",
          "name": "_stuBlockAddress",
          "type": "address"
        },
        {
          "internalType": "uint256",
          "name": "_stuGrade",
          "type": "uint256"
        }
      ],
      "name": "createCourseGrade",
      "outputs": [
        {
          "internalType": "bool",
          "name": "",
          "type": "bool"
        }
      ],
      "payable": false,
      "stateMutability": "nonpayable",
      "type": "function"
    }
  ],
  "bytecode": "0x6080604052600060015560006003556000600555600060075560016009556001600a556064600b556103e8600c55336000806101000a81548173ffffffffffffffffffffffffffffffffffffffff021916908373ffffffffffffffffffffffffffffffffffffffff1602179055506040518060800160405280600181526020016040518060400160405280600481526020017f526f6f740000000000000000000000000000000000000000000000000000000081525081526020016000809054906101000a900473ffffffffffffffffffffffffffffffffffffffff1673ffffffffffffffffffffffffffffffffffffffff1681526020016003815250600260006001815260200190815260200160002060008201518160000155602082015181600101908051906020019062000138929190620001a5565b5060408201518160020160006101000a81548173ffffffffffffffffffffffffffffffffffffffff021916908373ffffffffffffffffffffffffffffffffffffffff1602179055506060820151816003015590505060016000815480929190600101919050555062000254565b828054600181600116156101000203166002900490600052602060002090601f016020900481019282601f10620001e857805160ff191683800117855562000219565b8280016001018555821562000219579182015b8281111562000218578251825591602001919060010190620001fb565b5b5090506200022891906200022c565b5090565b6200025191905b808211156200024d57600081600090555060010162000233565b5090565b90565b615f0780620002646000396000f3fe608060405234801561001057600080fd5b50600436106102735760003560e01c80638c8ef73311610151578063bf01b075116100c3578063e074bb4711610087578063e074bb47146115d5578063f6aa09e414611631578063f7d9394d14611690578063fb3189e8146116ef578063fb6b990a1461170d578063fc0c1f391461185357610273565b8063bf01b0751461147c578063c3caf9db1461149a578063d8ded14b146114b8578063db7e803e1461151e578063dff3b4971461157d57610273565b806396621ec81161011557806396621ec81461125057806398aede551461126e5780639fde0943146112b8578063a5cc464d14611317578063ac0303361461136f578063ad9e42d91461143a57610273565b80638c8ef73314610eed5780638d80c92214610fea57806390eab7a214611058578063948e32b6146110b057806394e48ece146110ce57610273565b80632f02ca0b116101ea57806358a42065116101ae57806358a4206514610c0e5780635e719a4914610d545780637860a06914610d9657806378a1fdbf14610db4578063792109be14610e445780637a6ce2e114610ea357610273565b80632f02ca0b1461080457806330e947111461085c57806340484638146109d45780634d4fb0d714610ac75780634d64e5ee14610b1f57610273565b80630d69951d1161023c5780630d69951d146105975780630d9382fc146106305780630e3bfd6c1461064e57806310d756dd1461066c5780631643c8db146106c45780632454a939146107ac57610273565b80624255a614610278578063043022fa146103675780630560c2e71461045a57806309f006f5146104785780630c1596b4146104fe575b600080fd5b6102a46004803603602081101561028e57600080fd5b8101908080359060200190929190505050611871565b60405180868152602001806020018573ffffffffffffffffffffffffffffffffffffffff1673ffffffffffffffffffffffffffffffffffffffff168152602001848152602001838152602001828103825286818151815260200191508051906020019080838360005b8381101561032857808201518184015260208101905061030d565b50505050905090810190601f1680156103555780820380516001836020036101000a031916815260200191505b50965050505050505060405180910390f35b6103936004803603602081101561037d57600080fd5b810190808035906020019092919050505061195f565b60405180868152602001806020018573ffffffffffffffffffffffffffffffffffffffff1673ffffffffffffffffffffffffffffffffffffffff16815260200184151515158152602001838152602001828103825286818151815260200191508051906020019080838360005b8381101561041b578082015181840152602081019050610400565b50505050905090810190601f1680156104485780820380516001836020036101000a031916815260200191505b50965050505050505060405180910390f35b610462611a5a565b6040518082815260200191505060405180910390f35b6104e46004803603606081101561048e57600080fd5b8101908080359060200190929190803573ffffffffffffffffffffffffffffffffffffffff169060200190929190803573ffffffffffffffffffffffffffffffffffffffff169060200190929190505050611c58565b604051808215151515815260200191505060405180910390f35b6105406004803603602081101561051457600080fd5b81019080803573ffffffffffffffffffffffffffffffffffffffff169060200190929190505050612213565b6040518080602001828103825283818151815260200191508051906020019060200280838360005b83811015610583578082015181840152602081019050610568565b505050509050019250505060405180910390f35b6105d9600480360360208110156105ad57600080fd5b81019080803573ffffffffffffffffffffffffffffffffffffffff1690602001909291905050506122ce565b6040518080602001828103825283818151815260200191508051906020019060200280838360005b8381101561061c578082015181840152602081019050610601565b505050509050019250505060405180910390f35b610638612389565b6040518082815260200191505060405180910390f35b61065661238f565b6040518082815260200191505060405180910390f35b6106ae6004803603602081101561068257600080fd5b81019080803573ffffffffffffffffffffffffffffffffffffffff169060200190929190505050612395565b6040518082815260200191505060405180910390f35b6106f0600480360360208110156106da57600080fd5b8101908080359060200190929190505050612431565b60405180858152602001806020018473ffffffffffffffffffffffffffffffffffffffff1673ffffffffffffffffffffffffffffffffffffffff168152602001838152602001828103825285818151815260200191508051906020019080838360005b8381101561076e578082015181840152602081019050610753565b50505050905090810190601f16801561079b5780820380516001836020036101000a031916815260200191505b509550505050505060405180910390f35b6107ee600480360360208110156107c257600080fd5b81019080803573ffffffffffffffffffffffffffffffffffffffff169060200190929190505050612519565b6040518082815260200191505060405180910390f35b6108466004803603602081101561081a57600080fd5b81019080803573ffffffffffffffffffffffffffffffffffffffff1690602001909291905050506125b5565b6040518082815260200191505060405180910390f35b6108886004803603602081101561087257600080fd5b81019080803590602001909291905050506125e5565b60405180878152602001806020018673ffffffffffffffffffffffffffffffffffffffff1673ffffffffffffffffffffffffffffffffffffffff1681526020018581526020018060200180602001848103845289818151815260200191508051906020019080838360005b8381101561090e5780820151818401526020810190506108f3565b50505050905090810190601f16801561093b5780820380516001836020036101000a031916815260200191505b50848103835286818151815260200191508051906020019060200280838360005b8381101561097757808201518184015260208101905061095c565b50505050905001848103825285818151815260200191508051906020019060200280838360005b838110156109b957808201518184015260208101905061099e565b50505050905001995050505050505050505060405180910390f35b610aad600480360360408110156109ea57600080fd5b81019080803573ffffffffffffffffffffffffffffffffffffffff16906020019092919080359060200190640100000000811115610a2757600080fd5b820183602082011115610a3957600080fd5b80359060200191846001830284011164010000000083111715610a5b57600080fd5b91908080601f016020809104026020016040519081016040528093929190818152602001838380828437600081840152601f19601f8201169050808301925050505050505091929192905050506128a0565b604051808215151515815260200191505060405180910390f35b610b0960048036036020811015610add57600080fd5b81019080803573ffffffffffffffffffffffffffffffffffffffff16906020019092919050505061298b565b6040518082815260200191505060405180910390f35b610b4b60048036036020811015610b3557600080fd5b81019080803590602001909291905050506129bb565b60405180868152602001806020018573ffffffffffffffffffffffffffffffffffffffff1673ffffffffffffffffffffffffffffffffffffffff168152602001848152602001838152602001828103825286818151815260200191508051906020019080838360005b83811015610bcf578082015181840152602081019050610bb4565b50505050905090810190601f168015610bfc5780820380516001836020036101000a031916815260200191505b50965050505050505060405180910390f35b610c5060048036036020811015610c2457600080fd5b81019080803573ffffffffffffffffffffffffffffffffffffffff169060200190929190505050612aa9565b60405180868152602001806020018573ffffffffffffffffffffffffffffffffffffffff1673ffffffffffffffffffffffffffffffffffffffff16815260200184815260200180602001838103835287818151815260200191508051906020019080838360005b83811015610cd2578082015181840152602081019050610cb7565b50505050905090810190601f168015610cff5780820380516001836020036101000a031916815260200191505b50838103825284818151815260200191508051906020019060200280838360005b83811015610d3b578082015181840152602081019050610d20565b5050505090500197505050505050505060405180910390f35b610d8060048036036020811015610d6a57600080fd5b8101908080359060200190929190505050612c0e565b6040518082815260200191505060405180910390f35b610d9e612c70565b6040518082815260200191505060405180910390f35b610e2a60048036036080811015610dca57600080fd5b8101908080359060200190929190803573ffffffffffffffffffffffffffffffffffffffff169060200190929190803573ffffffffffffffffffffffffffffffffffffffff16906020019092919080359060200190929190505050612c76565b604051808215151515815260200191505060405180910390f35b610e4c6130fb565b6040518080602001828103825283818151815260200191508051906020019060200280838360005b83811015610e8f578082015181840152602081019050610e74565b505050509050019250505060405180910390f35b610eab613189565b604051808273ffffffffffffffffffffffffffffffffffffffff1673ffffffffffffffffffffffffffffffffffffffff16815260200191505060405180910390f35b610fd060048036036060811015610f0357600080fd5b810190808035906020019092919080359060200190640100000000811115610f2a57600080fd5b820183602082011115610f3c57600080fd5b80359060200191846001830284011164010000000083111715610f5e57600080fd5b91908080601f016020809104026020016040519081016040528093929190818152602001838380828437600081840152601f19601f820116905080830192505050505050509192919290803573ffffffffffffffffffffffffffffffffffffffff169060200190929190505050613191565b604051808215151515815260200191505060405180910390f35b6110166004803603602081101561100057600080fd5b81019080803590602001909291905050506134e1565b604051808273ffffffffffffffffffffffffffffffffffffffff1673ffffffffffffffffffffffffffffffffffffffff16815260200191505060405180910390f35b61109a6004803603602081101561106e57600080fd5b81019080803573ffffffffffffffffffffffffffffffffffffffff16906020019092919050505061365d565b6040518082815260200191505060405180910390f35b6110b861385d565b6040518082815260200191505060405180910390f35b611104600480360360408110156110e457600080fd5b810190808035906020019092919080359060200190929190505050613867565b60405180878152602001806020018673ffffffffffffffffffffffffffffffffffffffff1673ffffffffffffffffffffffffffffffffffffffff1681526020018581526020018060200180602001848103845289818151815260200191508051906020019080838360005b8381101561118a57808201518184015260208101905061116f565b50505050905090810190601f1680156111b75780820380516001836020036101000a031916815260200191505b50848103835286818151815260200191508051906020019060200280838360005b838110156111f35780820151818401526020810190506111d8565b50505050905001848103825285818151815260200191508051906020019060200280838360005b8381101561123557808201518184015260208101905061121a565b50505050905001995050505050505050505060405180910390f35b611258613cfb565b6040518082815260200191505060405180910390f35b611276613d05565b604051808273ffffffffffffffffffffffffffffffffffffffff1673ffffffffffffffffffffffffffffffffffffffff16815260200191505060405180910390f35b6112c0613d2a565b6040518080602001828103825283818151815260200191508051906020019060200280838360005b838110156113035780820151818401526020810190506112e8565b505050509050019250505060405180910390f35b6113596004803603602081101561132d57600080fd5b81019080803573ffffffffffffffffffffffffffffffffffffffff169060200190929190505050613e06565b6040518082815260200191505060405180910390f35b61139b6004803603602081101561138557600080fd5b8101908080359060200190929190505050613ea2565b604051808060200180602001838103835285818151815260200191508051906020019060200280838360005b838110156113e25780820151818401526020810190506113c7565b50505050905001838103825284818151815260200191508051906020019060200280838360005b83811015611424578082015181840152602081019050611409565b5050505090500194505050505060405180910390f35b6114666004803603602081101561145057600080fd5b810190808035906020019092919050505061403a565b6040518082815260200191505060405180910390f35b611484614095565b6040518082815260200191505060405180910390f35b6114a261409f565b6040518082815260200191505060405180910390f35b611504600480360360408110156114ce57600080fd5b81019080803573ffffffffffffffffffffffffffffffffffffffff169060200190929190803590602001909291905050506140a9565b604051808215151515815260200191505060405180910390f35b611526614678565b6040518080602001828103825283818151815260200191508051906020019060200280838360005b8381101561156957808201518184015260208101905061154e565b505050509050019250505060405180910390f35b6115bf6004803603602081101561159357600080fd5b81019080803573ffffffffffffffffffffffffffffffffffffffff169060200190929190505050614706565b6040518082815260200191505060405180910390f35b611617600480360360208110156115eb57600080fd5b81019080803573ffffffffffffffffffffffffffffffffffffffff169060200190929190505050614906565b604051808215151515815260200191505060405180910390f35b61163961526e565b6040518080602001828103825283818151815260200191508051906020019060200280838360005b8381101561167c578082015181840152602081019050611661565b505050509050019250505060405180910390f35b6116986152fc565b6040518080602001828103825283818151815260200191508051906020019060200280838360005b838110156116db5780820151818401526020810190506116c0565b505050509050019250505060405180910390f35b6116f76153d8565b6040518082815260200191505060405180910390f35b61174f6004803603602081101561172357600080fd5b81019080803573ffffffffffffffffffffffffffffffffffffffff1690602001909291905050506153de565b60405180868152602001806020018573ffffffffffffffffffffffffffffffffffffffff1673ffffffffffffffffffffffffffffffffffffffff16815260200184815260200180602001838103835287818151815260200191508051906020019080838360005b838110156117d15780820151818401526020810190506117b6565b50505050905090810190601f1680156117fe5780820380516001836020036101000a031916815260200191505b50838103825284818151815260200191508051906020019060200280838360005b8381101561183a57808201518184015260208101905061181f565b5050505090500197505050505050505060405180910390f35b61185b615543565b6040518082815260200191505060405180910390f35b6006602052806000526040600020600091509050806000015490806001018054600181600116156101000203166002900480601f0160208091040260200160405190810160405280929190818152602001828054600181600116156101000203166002900480156119235780601f106118f857610100808354040283529160200191611923565b820191906000526020600020905b81548152906001019060200180831161190657829003601f168201915b5050505050908060020160009054906101000a900473ffffffffffffffffffffffffffffffffffffffff16908060030154908060050154905085565b6008602052806000526040600020600091509050806000015490806001018054600181600116156101000203166002900480601f016020809104026020016040519081016040528092919081815260200182805460018160011615610100020316600290048015611a115780601f106119e657610100808354040283529160200191611a11565b820191906000526020600020905b8154815290600101906020018083116119f457829003601f168201915b5050505050908060020160009054906101000a900473ffffffffffffffffffffffffffffffffffffffff16908060020160149054906101000a900460ff16908060030154905085565b600080600190505b6001548111611b01573373ffffffffffffffffffffffffffffffffffffffff166002600083815260200190815260200160002060020160009054906101000a900473ffffffffffffffffffffffffffffffffffffffff1673ffffffffffffffffffffffffffffffffffffffff161415611af4576002600082815260200190815260200160002060030154915050611c55565b8080600101915050611a62565b506000600190505b6003548111611ba8573373ffffffffffffffffffffffffffffffffffffffff166004600083815260200190815260200160002060020160009054906101000a900473ffffffffffffffffffffffffffffffffffffffff1673ffffffffffffffffffffffffffffffffffffffff161415611b9b576004600082815260200190815260200160002060030154915050611c55565b8080600101915050611b09565b506000600190505b6005548111611c4f573373ffffffffffffffffffffffffffffffffffffffff166006600083815260200190815260200160002060020160009054906101000a900473ffffffffffffffffffffffffffffffffffffffff1673ffffffffffffffffffffffffffffffffffffffff161415611c42576006600082815260200190815260200160002060030154915050611c55565b8080600101915050611bb0565b50600090505b90565b6000806000905060008090505b6003548111611cea576004600082815260200190815260200160002060020160009054906101000a900473ffffffffffffffffffffffffffffffffffffffff1673ffffffffffffffffffffffffffffffffffffffff163373ffffffffffffffffffffffffffffffffffffffff161415611cdd57600191505b8080600101915050611c65565b5080611d5e576040517f08c379a00000000000000000000000000000000000000000000000000000000081526004018080602001828103825260138152602001807f697350726f666573736f72203d2066616c73650000000000000000000000000081525060200191505060405180910390fd5b3373ffffffffffffffffffffffffffffffffffffffff168473ffffffffffffffffffffffffffffffffffffffff1614611de2576040517f08c379a000000000000000000000000000000000000000000000000000000000815260040180806020018281038252602c815260200180615df1602c913960400191505060405180910390fd5b6000611ded86615549565b90506001151581151514611e69576040517f08c379a000000000000000000000000000000000000000000000000000000000815260040180806020018281038252601a8152602001807f3e3e3e5f636f757273654964206e6f206578697374656421212100000000000081525060200191505060405180910390fd5b6000611e748761559a565b90506001151581151514611ef0576040517f08c379a00000000000000000000000000000000000000000000000000000000081526004018080602001828103825260158152602001807f3e3e3e63616e4170706c795f203d3d2066616c7365000000000000000000000081525060200191505060405180910390fd5b6000611efc888861561c565b90506001151581151514611f5b576040517f08c379a0000000000000000000000000000000000000000000000000000000008152600401808060200182810382526028815260200180615e436028913960400191505060405180910390fd5b6000611f6687615723565b90506001151581151514611fe2576040517f08c379a000000000000000000000000000000000000000000000000000000000815260040180806020018281038252601c8152602001807f3e3e3e7374754944206973206e6f7420612073747564656e742121210000000081525060200191505060405180910390fd5b6000611fed88612519565b9050600080905060008090505b6006600084815260200190815260200160002060040180549050811015612060578b60066000858152602001908152602001600020600401828154811061203d57fe5b9060005260206000200154141561205357600191505b8080600101915050611ffa565b5060001515811515146120db576040517f08c379a00000000000000000000000000000000000000000000000000000000081526004018080602001828103825260158152602001807f3e3e3e3e3e3e7265706561746564203d2074727565000000000000000000000081525060200191505060405180910390fd5b600660008381526020019081526020016000206004018b908060018154018082558091505090600182039060005260206000200160009091929091909150555060006121268c61403a565b90506121318c6157c0565b600061213c8d612c0e565b90508a60086000848152602001908152602001600020600401600083815260200190815260200160002060000160006101000a81548173ffffffffffffffffffffffffffffffffffffffff021916908373ffffffffffffffffffffffffffffffffffffffff16021790555060006121b28d613e06565b9050600160046000838152602001908152602001600020600501600082825401925050819055506001600660008781526020019081526020016000206005016000828254019250508190555060019a50505050505050505050509392505050565b6060600061222083613e06565b9050600061222d8461298b565b90506060816040519080825280602002602001820160405280156122605781602001602082028038833980820191505090505b50905060008090505b828110156122c25760046000858152602001908152602001600020600401818154811061229257fe5b90600052602060002001548282815181106122a957fe5b6020026020010181815250508080600101915050612269565b50809350505050919050565b606060006122db83612519565b905060006122e8846125b5565b905060608160405190808252806020026020018201604052801561231b5781602001602082028038833980820191505090505b50905060008090505b8281101561237d5760066000858152602001908152602001600020600401818154811061234d57fe5b906000526020600020015482828151811061236457fe5b6020026020010181815250508080600101915050612324565b50809350505050919050565b60095481565b60075481565b600080600190505b6001548111612426578273ffffffffffffffffffffffffffffffffffffffff166002600083815260200190815260200160002060020160009054906101000a900473ffffffffffffffffffffffffffffffffffffffff1673ffffffffffffffffffffffffffffffffffffffff161415612419578091505061242c565b808060010191505061239d565b50600090505b919050565b6002602052806000526040600020600091509050806000015490806001018054600181600116156101000203166002900480601f0160208091040260200160405190810160405280929190818152602001828054600181600116156101000203166002900480156124e35780601f106124b8576101008083540402835291602001916124e3565b820191906000526020600020905b8154815290600101906020018083116124c657829003601f168201915b5050505050908060020160009054906101000a900473ffffffffffffffffffffffffffffffffffffffff16908060030154905084565b600080600190505b60055481116125aa578273ffffffffffffffffffffffffffffffffffffffff166006600083815260200190815260200160002060020160009054906101000a900473ffffffffffffffffffffffffffffffffffffffff1673ffffffffffffffffffffffffffffffffffffffff16141561259d57809150506125b0565b8080600101915050612521565b50600090505b919050565b6000806125c183612519565b90506006600082815260200190815260200160002060040180549050915050919050565b6000606060008060608060006125fa8861403a565b90506000600860008381526020019081526020016000206000015490506060600860008481526020019081526020016000206001018054600181600116156101000203166002900480601f0160208091040260200160405190810160405280929190818152602001828054600181600116156101000203166002900480156126c35780601f10612698576101008083540402835291602001916126c3565b820191906000526020600020905b8154815290600101906020018083116126a657829003601f168201915b5050505050905060006008600085815260200190815260200160002060020160009054906101000a900473ffffffffffffffffffffffffffffffffffffffff1690506000600860008681526020019081526020016000206003015490506060816040519080825280602002602001820160405280156127515781602001602082028038833980820191505090505b5090506060826040519080825280602002602001820160405280156127855781602001602082028038833980820191505090505b5090506000600190505b83811161287d5760086000898152602001908152602001600020600401600082815260200190815260200160002060000160009054906101000a900473ffffffffffffffffffffffffffffffffffffffff168360018303815181106127f057fe5b602002602001019073ffffffffffffffffffffffffffffffffffffffff16908173ffffffffffffffffffffffffffffffffffffffff16815250506008600089815260200190815260200160002060040160008281526020019081526020016000206001015482600183038151811061286457fe5b602002602001018181525050808060010191505061278f565b508585858585859c509c509c509c509c509c505050505050505091939550919395565b600080600090506128b084612395565b9050600081146128ef57826002600083815260200190815260200160002060010190805190602001906128e4929190615aee565b506001915050612985565b6128f884613e06565b905060008114612937578260046000838152602001908152602001600020600101908051906020019061292c929190615aee565b506001915050612985565b61294084612519565b90506000811461297f5782600660008381526020019081526020016000206001019080519060200190612974929190615aee565b506001915050612985565b60009150505b92915050565b60008061299783613e06565b90506004600082815260200190815260200160002060040180549050915050919050565b6004602052806000526040600020600091509050806000015490806001018054600181600116156101000203166002900480601f016020809104026020016040519081016040528092919081815260200182805460018160011615610100020316600290048015612a6d5780601f10612a4257610100808354040283529160200191612a6d565b820191906000526020600020905b815481529060010190602001808311612a5057829003601f168201915b5050505050908060020160009054906101000a900473ffffffffffffffffffffffffffffffffffffffff16908060030154908060050154905085565b6000606060008060606000612abd87612519565b90506000600660008381526020019081526020016000206000015490506060600660008481526020019081526020016000206001018054600181600116156101000203166002900480601f016020809104026020016040519081016040528092919081815260200182805460018160011615610100020316600290048015612b865780601f10612b5b57610100808354040283529160200191612b86565b820191906000526020600020905b815481529060010190602001808311612b6957829003601f168201915b5050505050905060006006600085815260200190815260200160002060020160009054906101000a900473ffffffffffffffffffffffffffffffffffffffff1690506000600660008681526020019081526020016000206003015490506060612bee8c6122ce565b905084848484849a509a509a509a509a5050505050505091939590929450565b600080600190505b6007548111612c69578260086000838152602001908152602001600020600001541415612c5c576008600082815260200190815260200160002060030154915050612c6b565b8080600101915050612c16565b505b919050565b60035481565b6000806000905060008090505b6003548111612d08576004600082815260200190815260200160002060020160009054906101000a900473ffffffffffffffffffffffffffffffffffffffff1673ffffffffffffffffffffffffffffffffffffffff163373ffffffffffffffffffffffffffffffffffffffff161415612cfb57600191505b8080600101915050612c83565b5080612d7c576040517f08c379a00000000000000000000000000000000000000000000000000000000081526004018080602001828103825260138152602001807f697350726f666573736f72203d2066616c73650000000000000000000000000081525060200191505060405180910390fd5b3373ffffffffffffffffffffffffffffffffffffffff168573ffffffffffffffffffffffffffffffffffffffff1614612e00576040517f08c379a000000000000000000000000000000000000000000000000000000000815260040180806020018281038252602c815260200180615df1602c913960400191505060405180910390fd5b6000612e0b87615549565b90506001151581151514612e87576040517f08c379a000000000000000000000000000000000000000000000000000000000815260040180806020018281038252601a8152602001807f3e3e3e5f636f757273654964206e6f206578697374656421212100000000000081525060200191505060405180910390fd5b6000612e93888861561c565b90506001151581151514612ef2576040517f08c379a0000000000000000000000000000000000000000000000000000000008152600401808060200182810382526028815260200180615e436028913960400191505060405180910390fd5b6000612efe8988615826565b90506001151581151514612f5d576040517f08c379a0000000000000000000000000000000000000000000000000000000008152600401808060200182810382526026815260200180615e1d6026913960400191505060405180910390fd5b6000612f688a61403a565b90506000612f758b612c0e565b905060006008600084815260200190815260200160002060020160146101000a81548160ff0219169083151502179055506000600190505b8181116130e7578973ffffffffffffffffffffffffffffffffffffffff1660086000858152602001908152602001600020600401600083815260200190815260200160002060000160009054906101000a900473ffffffffffffffffffffffffffffffffffffffff1673ffffffffffffffffffffffffffffffffffffffff1614156130da578860086000858152602001908152602001600020600401600083815260200190815260200160002060010181905550600061306c8c613e06565b905060006130798c612519565b90506004600083815260200190815260200160002060050160008154809291906001900391905055506006600082815260200190815260200160002060050160008154809291906001900391905055506001995050505050505050506130f2565b8080600101915050612fad565b506000965050505050505b50949350505050565b60608060055460405190808252806020026020018201604052801561312f5781602001602082028038833980820191505090505b5090506000600190505b600554811161318157600660008281526020019081526020016000206000015482600183038151811061316857fe5b6020026020010181815250508080600101915050613139565b508091505090565b600033905090565b6000806000905060008090505b6003548111613223576004600082815260200190815260200160002060020160009054906101000a900473ffffffffffffffffffffffffffffffffffffffff1673ffffffffffffffffffffffffffffffffffffffff163373ffffffffffffffffffffffffffffffffffffffff16141561321657600191505b808060010191505061319e565b5080613297576040517f08c379a00000000000000000000000000000000000000000000000000000000081526004018080602001828103825260138152602001807f697350726f666573736f72203d2066616c73650000000000000000000000000081525060200191505060405180910390fd5b3373ffffffffffffffffffffffffffffffffffffffff168373ffffffffffffffffffffffffffffffffffffffff161461331b576040517f08c379a0000000000000000000000000000000000000000000000000000000008152600401808060200182810382526036815260200180615d836036913960400191505060405180910390fd5b600061332686615549565b905060001515811515146133a2576040517f08c379a000000000000000000000000000000000000000000000000000000000815260040180806020018281038252601f8152602001807f3e3e3e5f636f75727365496420616c726561647920657869737465642121210081525060200191505060405180910390fd5b60076000815480929190600101919050555085600860006007548152602001908152602001600020600001819055508460086000600754815260200190815260200160002060010190805190602001906133fd929190615aee565b508360086000600754815260200190815260200160002060020160006101000a81548173ffffffffffffffffffffffffffffffffffffffff021916908373ffffffffffffffffffffffffffffffffffffffff160217905550600160086000600754815260200190815260200160002060020160146101000a81548160ff021916908315150217905550600061349185613e06565b905060046000828152602001908152602001600020600401879080600181540180825580915050906001820390600052602060002001600090919290919091505550600193505050509392505050565b600080600190505b600154811161355c57826002600083815260200190815260200160002060000154141561354f576002600082815260200190815260200160002060020160009054906101000a900473ffffffffffffffffffffffffffffffffffffffff16915050613658565b80806001019150506134e9565b506000600190505b60035481116135d75782600460008381526020019081526020016000206000015414156135ca576004600082815260200190815260200160002060020160009054906101000a900473ffffffffffffffffffffffffffffffffffffffff16915050613658565b8080600101915050613564565b506000600190505b6005548111613652578260066000838152602001908152602001600020600001541415613645576006600082815260200190815260200160002060020160009054906101000a900473ffffffffffffffffffffffffffffffffffffffff16915050613658565b80806001019150506135df565b50600090505b919050565b600080600190505b6001548111613704578273ffffffffffffffffffffffffffffffffffffffff166002600083815260200190815260200160002060020160009054906101000a900473ffffffffffffffffffffffffffffffffffffffff1673ffffffffffffffffffffffffffffffffffffffff1614156136f7576002600082815260200190815260200160002060030154915050613858565b8080600101915050613665565b506000600190505b60035481116137ab578273ffffffffffffffffffffffffffffffffffffffff166004600083815260200190815260200160002060020160009054906101000a900473ffffffffffffffffffffffffffffffffffffffff1673ffffffffffffffffffffffffffffffffffffffff16141561379e576004600082815260200190815260200160002060030154915050613858565b808060010191505061370c565b506000600190505b6005548111613852578273ffffffffffffffffffffffffffffffffffffffff166006600083815260200190815260200160002060020160009054906101000a900473ffffffffffffffffffffffffffffffffffffffff1673ffffffffffffffffffffffffffffffffffffffff161415613845576006600082815260200190815260200160002060030154915050613858565b80806001019150506137b3565b50600090505b919050565b6000600554905090565b60006060600080606080600087905060006138818a61403a565b90506000600860008381526020019081526020016000206000015490506060600860008481526020019081526020016000206001018054600181600116156101000203166002900480601f01602080910402602001604051908101604052809291908181526020018280546001816001161561010002031660029004801561394a5780601f1061391f5761010080835404028352916020019161394a565b820191906000526020600020905b81548152906001019060200180831161392d57829003601f168201915b5050505050905060006008600085815260200190815260200160002060020160009054906101000a900473ffffffffffffffffffffffffffffffffffffffff169050600060086000868152602001908152602001600020600301549050858110156139b3578095505b6060866040519080825280602002602001820160405280156139e45781602001602082028038833980820191505090505b509050606087604051908082528060200260200182016040528015613a185781602001602082028038833980820191505090505b509050606083604051908082528060200260200182016040528015613a4c5781602001602082028038833980820191505090505b5090506000600190505b848111613ab057600860008a8152602001908152602001600020600401600082815260200190815260200160002060010154826001830381518110613a9757fe5b6020026020010181815250508080600101915050613a56565b5060008090505b84811015613b7f576000600190505b85811015613b7157826001820381518110613add57fe5b6020026020010151838281518110613af157fe5b60200260200101511115613b64576000836001830381518110613b1057fe5b60200260200101519050838281518110613b2657fe5b6020026020010151846001840381518110613b3d57fe5b60200260200101818152505080848381518110613b5657fe5b602002602001018181525050505b8080600101915050613ac6565b508080600101915050613ab7565b50600080905060008090505b85811015613cd4578a821415613ba057613cd4565b828181518110613bac57fe5b6020026020010151848281518110613bc057fe5b6020026020010181815250506000600190505b868111613cbe57600860008c8152602001908152602001600020600401600082815260200190815260200160002060010154858381518110613c1157fe5b60200260200101511415613cb157600860008c8152602001908152602001600020600401600082815260200190815260200160002060000160009054906101000a900473ffffffffffffffffffffffffffffffffffffffff16868381518110613c7657fe5b602002602001019073ffffffffffffffffffffffffffffffffffffffff16908173ffffffffffffffffffffffffffffffffffffffff16815250505b8080600101915050613bd3565b5081806001019250508080600101915050613b8b565b508787878787879f509f509f509f509f509f50505050505050505050509295509295509295565b6000600154905090565b6000809054906101000a900473ffffffffffffffffffffffffffffffffffffffff1681565b606080600554604051908082528060200260200182016040528015613d5e5781602001602082028038833980820191505090505b5090506000600190505b6005548111613dfe576006600082815260200190815260200160002060020160009054906101000a900473ffffffffffffffffffffffffffffffffffffffff16826001830381518110613db757fe5b602002602001019073ffffffffffffffffffffffffffffffffffffffff16908173ffffffffffffffffffffffffffffffffffffffff16815250508080600101915050613d68565b508091505090565b600080600190505b6003548111613e97578273ffffffffffffffffffffffffffffffffffffffff166004600083815260200190815260200160002060020160009054906101000a900473ffffffffffffffffffffffffffffffffffffffff1673ffffffffffffffffffffffffffffffffffffffff161415613e8a5780915050613e9d565b8080600101915050613e0e565b50600090505b919050565b6060806000613eb08461403a565b9050600060086000838152602001908152602001600020600301549050606081604051908082528060200260200182016040528015613efe5781602001602082028038833980820191505090505b509050606082604051908082528060200260200182016040528015613f325781602001602082028038833980820191505090505b5090506000600190505b83811161402a5760086000868152602001908152602001600020600401600082815260200190815260200160002060000160009054906101000a900473ffffffffffffffffffffffffffffffffffffffff16836001830381518110613f9d57fe5b602002602001019073ffffffffffffffffffffffffffffffffffffffff16908173ffffffffffffffffffffffffffffffffffffffff16815250506008600086815260200190815260200160002060040160008281526020019081526020016000206001015482600183038151811061401157fe5b6020026020010181815250508080600101915050613f3c565b5081819550955050505050915091565b600080600090506000600190505b600754811161408957836008600083815260200190815260200160002060000154141561407c578091508192505050614090565b8080600101915050614048565b5060009150505b919050565b6000600754905090565b6000600354905090565b6000806000905060008090505b600154811161413b576002600082815260200190815260200160002060020160009054906101000a900473ffffffffffffffffffffffffffffffffffffffff1673ffffffffffffffffffffffffffffffffffffffff163373ffffffffffffffffffffffffffffffffffffffff16141561412e57600191505b80806001019150506140b6565b50806141af576040517f08c379a00000000000000000000000000000000000000000000000000000000081526004018080602001828103825260158152602001807f3e3e3e3e3e3e697341646d696e203d2066616c7365000000000000000000000081525060200191505060405180910390fd5b60018314806141be5750600283145b806141c95750600383145b61423b576040517f08c379a000000000000000000000000000000000000000000000000000000000815260040180806020018281038252600c8152602001807f756e617574686f72697a6564000000000000000000000000000000000000000081525060200191505060405180910390fd5b600015156142488561592d565b1515146142a0576040517f08c379a000000000000000000000000000000000000000000000000000000000815260040180806020018281038252602d815260200180615d56602d913960400191505060405180910390fd5b60096000815480929190600101919050555060018314156143f857600560008154809291906001019190505550600c60008154809291906001019190505550600c54600660006005548152602001908152602001600020600001819055506040518060400160405280600881526020017f7374752d6e616d65000000000000000000000000000000000000000000000000815250600660006005548152602001908152602001600020600101908051906020019061435f929190615aee565b508360066000600554815260200190815260200160002060020160006101000a81548173ffffffffffffffffffffffffffffffffffffffff021916908373ffffffffffffffffffffffffffffffffffffffff16021790555060016006600060055481526020019081526020016000206003018190555060006006600060055481526020019081526020016000206005018190555061466d565b600283141561453e57600360008154809291906001019190505550600b60008154809291906001019190505550600b54600460006003548152602001908152602001600020600001819055506040518060400160405280600881526020017f70726f2d6e616d6500000000000000000000000000000000000000000000000081525060046000600354815260200190815260200160002060010190805190602001906144a5929190615aee565b508360046000600354815260200190815260200160002060020160006101000a81548173ffffffffffffffffffffffffffffffffffffffff021916908373ffffffffffffffffffffffffffffffffffffffff16021790555060026004600060035481526020019081526020016000206003018190555060006004600060035481526020019081526020016000206005018190555061466c565b600383141561466b57600160008154809291906001019190505550600a600081548092919060010191905055506040518060800160405280600a5481526020016040518060400160405280600881526020017f61646d2d6e616d6500000000000000000000000000000000000000000000000081525081526020018573ffffffffffffffffffffffffffffffffffffffff1681526020016003815250600260006001548152602001908152602001600020600082015181600001556020820151816001019080519060200190614615929190615b6e565b5060408201518160020160006101000a81548173ffffffffffffffffffffffffffffffffffffffff021916908373ffffffffffffffffffffffffffffffffffffffff160217905550606082015181600301559050505b5b5b600191505092915050565b6060806003546040519080825280602002602001820160405280156146ac5781602001602082028038833980820191505090505b5090506000600190505b60035481116146fe5760046000828152602001908152602001600020600001548260018303815181106146e557fe5b60200260200101818152505080806001019150506146b6565b508091505090565b600080600190505b60015481116147ad578273ffffffffffffffffffffffffffffffffffffffff166002600083815260200190815260200160002060020160009054906101000a900473ffffffffffffffffffffffffffffffffffffffff1673ffffffffffffffffffffffffffffffffffffffff1614156147a0576002600082815260200190815260200160002060000154915050614901565b808060010191505061470e565b506000600190505b6003548111614854578273ffffffffffffffffffffffffffffffffffffffff166004600083815260200190815260200160002060020160009054906101000a900473ffffffffffffffffffffffffffffffffffffffff1673ffffffffffffffffffffffffffffffffffffffff161415614847576004600082815260200190815260200160002060000154915050614901565b80806001019150506147b5565b506000600190505b60055481116148fb578273ffffffffffffffffffffffffffffffffffffffff166006600083815260200190815260200160002060020160009054906101000a900473ffffffffffffffffffffffffffffffffffffffff1673ffffffffffffffffffffffffffffffffffffffff1614156148ee576006600082815260200190815260200160002060000154915050614901565b808060010191505061485c565b50600090505b919050565b6000806000905060008090505b6001548111614998576002600082815260200190815260200160002060020160009054906101000a900473ffffffffffffffffffffffffffffffffffffffff1673ffffffffffffffffffffffffffffffffffffffff163373ffffffffffffffffffffffffffffffffffffffff16141561498b57600191505b8080600101915050614913565b5080614a0c576040517f08c379a00000000000000000000000000000000000000000000000000000000081526004018080602001828103825260158152602001807f3e3e3e3e3e3e697341646d696e203d2066616c7365000000000000000000000081525060200191505060405180910390fd5b60011515614a198461592d565b151514614a8e576040517f08c379a00000000000000000000000000000000000000000000000000000000081526004018080602001828103825260188152602001807f3e3e3e546869732061646472657373206e6f206578697374000000000000000081525060200191505060405180910390fd5b6000614a998461365d565b90506000811415614af5576040517f08c379a0000000000000000000000000000000000000000000000000000000008152600401808060200182810382526032815260200180615ea16032913960400191505060405180910390fd5b6001811415614dab576000614b0985612519565b90506000600660008381526020019081526020016000206005015414614b7a576040517f08c379a0000000000000000000000000000000000000000000000000000000008152600401808060200182810382526036815260200180615e6b6036913960400191505060405180910390fd5b60008190505b600554811015614d1a576006600060018301815260200190815260200160002060000154600660008381526020019081526020016000206000018190555060066000600183018152602001908152602001600020600101600660008381526020019081526020016000206001019080546001816001161561010002031660029004614c0c929190615bee565b506006600060018301815260200190815260200160002060020160009054906101000a900473ffffffffffffffffffffffffffffffffffffffff166006600083815260200190815260200160002060020160006101000a81548173ffffffffffffffffffffffffffffffffffffffff021916908373ffffffffffffffffffffffffffffffffffffffff160217905550600660006001830181526020019081526020016000206003015460066000838152602001908152602001600020600301819055506006600060018301815260200190815260200160002060040160066000838152602001908152602001600020600401908054614d0c929190615c75565b508080600101915050614b80565b50600660006005548152602001908152602001600020600080820160009055600182016000614d499190615cc7565b6002820160006101000a81549073ffffffffffffffffffffffffffffffffffffffff02191690556003820160009055600482016000614d889190615d0f565b600582016000905550506005600081548092919060019003919050555050615250565b6002811415615061576000614dbf85613e06565b90506000600460008381526020019081526020016000206005015414614e30576040517f08c379a0000000000000000000000000000000000000000000000000000000008152600401808060200182810382526038815260200180615db96038913960400191505060405180910390fd5b60008190505b600354811015614fd0576004600060018301815260200190815260200160002060000154600460008381526020019081526020016000206000018190555060046000600183018152602001908152602001600020600101600460008381526020019081526020016000206001019080546001816001161561010002031660029004614ec2929190615bee565b506004600060018301815260200190815260200160002060020160009054906101000a900473ffffffffffffffffffffffffffffffffffffffff166004600083815260200190815260200160002060020160006101000a81548173ffffffffffffffffffffffffffffffffffffffff021916908373ffffffffffffffffffffffffffffffffffffffff160217905550600460006001830181526020019081526020016000206003015460046000838152602001908152602001600020600301819055506004600060018301815260200190815260200160002060040160046000838152602001908152602001600020600401908054614fc2929190615c75565b508080600101915050614e36565b50600460006003548152602001908152602001600020600080820160009055600182016000614fff9190615cc7565b6002820160006101000a81549073ffffffffffffffffffffffffffffffffffffffff0219169055600382016000905560048201600061503e9190615d0f565b60058201600090555050600360008154809291906001900391905055505061524f565b600381141561524e57600061507585612395565b905060008190505b6001548110156151d9576002600060018301815260200190815260200160002060000154600260008381526020019081526020016000206000018190555060026000600183018152602001908152602001600020600101600260008381526020019081526020016000206001019080546001816001161561010002031660029004615109929190615bee565b506002600060018301815260200190815260200160002060020160009054906101000a900473ffffffffffffffffffffffffffffffffffffffff166002600083815260200190815260200160002060020160006101000a81548173ffffffffffffffffffffffffffffffffffffffff021916908373ffffffffffffffffffffffffffffffffffffffff16021790555060026000600183018152602001908152602001600020600301546002600083815260200190815260200160002060030181905550808060010191505061507d565b506002600060015481526020019081526020016000206000808201600090556001820160006152089190615cc7565b6002820160006101000a81549073ffffffffffffffffffffffffffffffffffffffff02191690556003820160009055505060016000815480929190600190039190505550505b5b5b60096000815480929190600190039190505550600192505050919050565b6060806007546040519080825280602002602001820160405280156152a25781602001602082028038833980820191505090505b5090506000600190505b60075481116152f45760086000828152602001908152602001600020600001548260018303815181106152db57fe5b60200260200101818152505080806001019150506152ac565b508091505090565b6060806003546040519080825280602002602001820160405280156153305781602001602082028038833980820191505090505b5090506000600190505b60035481116153d0576004600082815260200190815260200160002060020160009054906101000a900473ffffffffffffffffffffffffffffffffffffffff1682600183038151811061538957fe5b602002602001019073ffffffffffffffffffffffffffffffffffffffff16908173ffffffffffffffffffffffffffffffffffffffff1681525050808060010191505061533a565b508091505090565b60055481565b60006060600080606060006153f287613e06565b90506000600460008381526020019081526020016000206000015490506060600460008481526020019081526020016000206001018054600181600116156101000203166002900480601f0160208091040260200160405190810160405280929190818152602001828054600181600116156101000203166002900480156154bb5780601f10615490576101008083540402835291602001916154bb565b820191906000526020600020905b81548152906001019060200180831161549e57829003601f168201915b5050505050905060006004600085815260200190815260200160002060020160009054906101000a900473ffffffffffffffffffffffffffffffffffffffff16905060006004600086815260200190815260200160002060030154905060606155238c612213565b905084848484849a509a509a509a509a5050505050505091939590929450565b60015481565b600080600190505b600754811161558f578260086000838152602001908152602001600020600001541415615582576001915050615595565b8080600101915050615551565b50600090505b919050565b600080600190505b600754811161561157826008600083815260200190815260200160002060000154141561560457600115156008600083815260200190815260200160002060020160149054906101000a900460ff1615151415615603576001915050615617565b5b80806001019150506155a2565b50600090505b919050565b600080600190505b6003548111615717578273ffffffffffffffffffffffffffffffffffffffff166004600083815260200190815260200160002060020160009054906101000a900473ffffffffffffffffffffffffffffffffffffffff1673ffffffffffffffffffffffffffffffffffffffff16141561570a5760008090505b6004600083815260200190815260200160002060040180549050811161570857846004600084815260200190815260200160002060040182815481106156df57fe5b906000526020600020015414156156fb5760019250505061571d565b808060010191505061569d565b505b8080600101915050615624565b50600090505b92915050565b600080600090505b60055481116157b5576006600082815260200190815260200160002060020160009054906101000a900473ffffffffffffffffffffffffffffffffffffffff1673ffffffffffffffffffffffffffffffffffffffff168373ffffffffffffffffffffffffffffffffffffffff1614156157a85760019150506157bb565b808060010191505061572b565b50600090505b919050565b6000600190505b60075481116158225781600860008381526020019081526020016000206000015414156158155760086000828152602001908152602001600020600301600081548092919060010191905055505b80806001019150506157c7565b5050565b600080600190505b6005548111615921578273ffffffffffffffffffffffffffffffffffffffff166006600083815260200190815260200160002060020160009054906101000a900473ffffffffffffffffffffffffffffffffffffffff1673ffffffffffffffffffffffffffffffffffffffff1614156159145760008090505b6006600083815260200190815260200160002060040180549050811161591257846006600084815260200190815260200160002060040182815481106158e957fe5b9060005260206000200154141561590557600192505050615927565b80806001019150506158a7565b505b808060010191505061582e565b50600090505b92915050565b600080600190505b60015481116159bf578273ffffffffffffffffffffffffffffffffffffffff166002600083815260200190815260200160002060020160009054906101000a900473ffffffffffffffffffffffffffffffffffffffff1673ffffffffffffffffffffffffffffffffffffffff1614156159b2576001915050615ae9565b8080600101915050615935565b506000600190505b6003548111615a51578273ffffffffffffffffffffffffffffffffffffffff166004600083815260200190815260200160002060020160009054906101000a900473ffffffffffffffffffffffffffffffffffffffff1673ffffffffffffffffffffffffffffffffffffffff161415615a44576001915050615ae9565b80806001019150506159c7565b506000600190505b6005548111615ae3578273ffffffffffffffffffffffffffffffffffffffff166006600083815260200190815260200160002060020160009054906101000a900473ffffffffffffffffffffffffffffffffffffffff1673ffffffffffffffffffffffffffffffffffffffff161415615ad6576001915050615ae9565b8080600101915050615a59565b50600090505b919050565b828054600181600116156101000203166002900490600052602060002090601f016020900481019282601f10615b2f57805160ff1916838001178555615b5d565b82800160010185558215615b5d579182015b82811115615b5c578251825591602001919060010190615b41565b5b509050615b6a9190615d30565b5090565b828054600181600116156101000203166002900490600052602060002090601f016020900481019282601f10615baf57805160ff1916838001178555615bdd565b82800160010185558215615bdd579182015b82811115615bdc578251825591602001919060010190615bc1565b5b509050615bea9190615d30565b5090565b828054600181600116156101000203166002900490600052602060002090601f016020900481019282601f10615c275780548555615c64565b82800160010185558215615c6457600052602060002091601f016020900482015b82811115615c63578254825591600101919060010190615c48565b5b509050615c719190615d30565b5090565b828054828255906000526020600020908101928215615cb65760005260206000209182015b82811115615cb5578254825591600101919060010190615c9a565b5b509050615cc39190615d30565b5090565b50805460018160011615610100020316600290046000825580601f10615ced5750615d0c565b601f016020900490600052602060002090810190615d0b9190615d30565b5b50565b5080546000825590600052602060002090810190615d2d9190615d30565b50565b615d5291905b80821115615d4e576000816000905550600101615d36565b5090565b9056fe5468697320616464726573732068617320616c7265616479206265656e20736574207065726d697373696f6e733e3e3e5468652070726f426c6f636b41646472657373206e6f206d61746368207468652063757272656e7420616464726573732121213e3e3e546869732070726f666573736f72206973207465616368696e672c2063616e742072656d6f7665207065726d697373696f6e2121213e3e3e5468652070726f4964206e6f206d61746368207468652063757272656e7420616464726573732121213e3e3e73747564656e7420646f6573206e6f74206f776e207468697320636f757273652121213e3e3e70726f666573736f7220646f6573206e6f74206f776e207468697320636f757273652121213e3e3e546869732073747564656e74206973206c6561726e696e672c2063616e742072656d6f7665207065726d697373696f6e2121213e3e3e5468697320626c6f636b4164647265737320776173206f726967696e616c6c79206e6f7420617574686f72697a6564a265627a7a7231582013344af4cb33e33133c32e7ad554dddd1c31e43d97bedc05281f179d641975a264736f6c63430005100032",
  "source": "// SPDX-License-Identifier: MIT\r\npragma solidity >=0.4.22 <0.9.0;\r\n\r\n\r\n/*\r\n\r\n// professor (inherit)StructAndModifiers, Admin\r\n\r\n// : onlyProfessor\r\n// All functions in this contract are marked as: onlyprofessor\r\n1. createCourse()               //   Create course\r\n\r\n2. applyCourse()                //   Join the course\r\n\r\n3. createCourseGrade()          //   Create grades\r\n\r\n4. getGradeByProAddress()            //      View the grades of all students in the subject\r\n\r\n5. getGradeByProProAddrAndStuAddr()    //        View the grade of a student in a subject\r\n\r\n\r\n*/\r\n\r\n\r\nimport \"./Admin.sol\";\r\ncontract Professor is Admin{\r\n    \r\n    //////////////////////////////////////////////////////////////////////////////////////////////////////////////\r\n    //   Only teachers have permission to create courses\r\n    function createCourse (uint _courseId, string memory _courseName,address _proBlockAddress) public onlyProfessor returns(bool){    \r\n        //  Check whether the proid matches the address\r\n        require(_proBlockAddress == msg.sender,\">>>The proBlockAddress no match the current address!!!\");\r\n        \r\n        //  Check whether the created course information already exists\r\n        bool isExisted = checkCourseExisted(_courseId); \r\n        require(isExisted == false,\">>>_courseId already existed!!!\");\r\n        \r\n        // onlyProfessorproBlockAddress\r\n        \r\n        //  Self increasing\r\n        courseCounts ++;\r\n        \r\n        //    Create initialization without students and grades\r\n        courseInfs[courseCounts].courseId = _courseId;\r\n        courseInfs[courseCounts].courseName = _courseName;\r\n        courseInfs[courseCounts].proBlockAddress = _proBlockAddress;\r\n        courseInfs[courseCounts].canApply = true;\r\n        \r\n        // course ID\r\n        // After successful creation, you need to put this course ID into the corresponding professor's file\r\n        uint professorIndex = getProfessorIndexByAddress(_proBlockAddress);\r\n        // ID Put the ID in the corresponding professor's file\r\n        professorSelfs[professorIndex].myProCourses.push(_courseId);  \r\n        \r\n        return true;\r\n        \r\n    }\r\n    \r\n    \r\n     //////////////////////////////////////////////////////////////////////////////////////////////////////////////\r\n    //  Professor Only professors have permission to join the course\r\n    \r\n    function applyCourse (uint _courseId,address _proBlockAddress,address _stuBlockAddress) public onlyProfessor returns(bool){\r\n        \r\n        // _proBlockAddress Check whether the proid matches the address\r\n        require(_proBlockAddress == msg.sender,\">>>The proId no match the current address!!!\");\r\n        \r\n        //  Check whether the course information exists\r\n        bool isExisted = checkCourseExisted(_courseId); \r\n        require(isExisted == true,\">>>_courseId no existed!!!\");\r\n        \r\n        //  Check whether this course can be applied\r\n        bool canApply_ = checkCourseCanApply(_courseId);\r\n        require(canApply_ == true,\">>>canApply_ == false\");\r\n        \r\n        //  Check whether the professor has this course\r\n        bool isheldByPro = checkCourseHeldByProBlockAddress(_courseId,_proBlockAddress);\r\n        require(isheldByPro == true,\">>>professor does not own this course!!!\");\r\n              \r\n        // id Check whether the student ID is a student\r\n        bool isStudent = checkIsStudent(_stuBlockAddress);\r\n        require(isStudent == true,\">>>stuID is not a student!!!\");\r\n        \r\n        // student address\r\n        // After successful creation, you need to put this student ID into the corresponding student's file\r\n        uint studentIndex = getStudentIndexByAddress(_stuBlockAddress);\r\n        \r\n        // ID Put the ID in the corresponding student's file\r\n        // course ID.  At this time, check whether there is a duplicate course ID\r\n        bool repeated = false;\r\n        for(uint i=0;i<studentSelfs[studentIndex].myStuCourses.length;i++){\r\n            if(studentSelfs[studentIndex].myStuCourses[i]==_courseId){\r\n                repeated = true;\r\n            }\r\n        }\r\n        require(repeated == false,\">>>>>>repeated = true\");\r\n        \r\n        // ,  No duplication, can apply\r\n        studentSelfs[studentIndex].myStuCourses.push(_courseId);\r\n        \r\n        \r\n        \r\n        //  ,\r\n        // First find the course and put the students' information into the corresponding course\r\n        uint indexOfCourseID = getIndexByCourseId(_courseId);\r\n        \r\n        // ,  \r\n        // +1\r\n        // +1, courseStudentCounts_  \r\n        \r\n        //Find the length of the array of students stored in this course, that is, the number of students who have taken this course\r\n        //New students will be assigned to the position of number + 1\r\n        //First assign the number of people + 1, and then assign it to coursestudentcounts_\r\n        \r\n        setcourseStudentCounts(_courseId);\r\n        uint courseStudentCounts_ = getcourseStudentCounts(_courseId);    \r\n        courseInfs[indexOfCourseID].courseStudents[courseStudentCounts_].stuBlockAddress = _stuBlockAddress;\r\n           \r\n        // ,+1   // Whenever a student applies, + 1\r\n        // isTeachingPeopleSum++\r\n        uint professorIndex = getProfessorIndexByAddress(_proBlockAddress);\r\n        professorSelfs[professorIndex].isTeachingPeopleSum += 1;\r\n        \r\n        //    // Set students in class\r\n        // isLearningSum++\r\n        studentSelfs[studentIndex].isLearningSum += 1;\r\n        \r\n        return true;\r\n        \r\n    }\r\n    \r\n    \r\n    // (onlyprofessor)  ==> course\r\n    // Create grade (onlyprofessor) = = > save to course class\r\n    //////////////////////////////////////////////////////////////////////////////////////////////////////////////\r\n    //     Only teachers have permission to create grades\r\n    //  _courseId ,  _proId , _stuId, _stuGrade\r\n    function createCourseGrade (uint _courseId,address _proBlockAddress,address _stuBlockAddress,uint _stuGrade) public onlyProfessor returns(bool){\r\n        \r\n        // _proBlockAddress Check whether the proid matches the address\r\n        require(_proBlockAddress == msg.sender,\">>>The proId no match the current address!!!\");\r\n        \r\n        //  Check whether the course information exists\r\n        bool isExisted = checkCourseExisted(_courseId); \r\n        require(isExisted == true,\">>>_courseId no existed!!!\");\r\n        \r\n        // pro  First check whether the professor is proid's own course\r\n        bool isheldByPro = checkCourseHeldByProBlockAddress(_courseId,_proBlockAddress);\r\n        require(isheldByPro == true,\">>>professor does not own this course!!!\");\r\n        \r\n        // checkstu Check is stuid's own course\r\n        bool isheldByStu = checkCourseHeldByStuBlockAddress(_courseId,_stuBlockAddress);\r\n        require(isheldByStu == true,\">>>student does not own this course!!!\");\r\n        \r\n        //  Find the course first\r\n        uint indexOfCourseID = getIndexByCourseId(_courseId);\r\n        // ,  \r\n        // Find the length of the array of students stored in this course, that is, the number of students taking this course\r\n        uint courseStudentCounts_ = getcourseStudentCounts(_courseId);\r\n        \r\n        // \r\n        // Students can not apply for this course after they get their grades\r\n        courseInfs[indexOfCourseID].canApply = false;\r\n\r\n        //  \r\n        // Find the corresponding students' grades under the corresponding courses\r\n        for(uint j=1;j<=courseStudentCounts_;j++){\r\n            if(courseInfs[indexOfCourseID].courseStudents[j].stuBlockAddress==_stuBlockAddress){\r\n                //      Information matching, giving results\r\n                courseInfs[indexOfCourseID].courseStudents[j].stuGrade = _stuGrade;\r\n                \r\n                //   Update the status number of teachers and students\r\n                uint professorIndex = getProfessorIndexByAddress(_proBlockAddress);\r\n                uint studentIndex = getStudentIndexByAddress(_stuBlockAddress);\r\n                // isTeaching--\r\n                professorSelfs[professorIndex].isTeachingPeopleSum--;\r\n                // isLearning--\r\n                studentSelfs[studentIndex].isLearningSum--;\r\n                \r\n                return true;    //  Update complete\r\n            }\r\n        }\r\n        // \r\n        return false;  //  \r\n        \r\n    }\r\n    \r\n/*\r\n    //   View the scores of all students in a subject\r\n    // If it is a professor, it can view the scores of students in his course\r\n    function getGradeByProAddress(uint _courseId, address _proBlockAddress) public view onlyProfessor returns(address[] memory, uint[] memory){\r\n        \r\n        // proBlockAddress Check whether the proid matches the address\r\n        require(_proBlockAddress == msg.sender,\">>>The proId no match the current address!!!\");\r\n        \r\n        //  Check whether the course information exists\r\n        bool isExisted = checkCourseExisted(_courseId); \r\n        require(isExisted == true,\">>>_courseId no existed!!!\");\r\n        \r\n        \r\n        // checkproId Check is proid's own course\r\n        bool isheldByPro = checkCourseHeldByProBlockAddress(_courseId,_proBlockAddress);\r\n        require(isheldByPro == true,\">>>professor does not own this course!!!\");\r\n        \r\n        ///\r\n        //  The results of all students under the course will be listed\r\n        \r\n        //  Find the course first\r\n        uint indexOfCourseID = getIndexByCourseId(_courseId);\r\n        \r\n        // ,  \r\n        // Find the length of the array of students stored in this course, that is, the number of students taking this course\r\n        uint courseStudentCounts_ = getcourseStudentCounts(_courseId);\r\n              \r\n        address[] memory myStudentAddress = new address[](courseStudentCounts_);\r\n        uint[] memory myStudentsGrade  = new uint[](courseStudentCounts_);\r\n              \r\n        for(uint j=1;j<=courseStudentCounts_;j++){\r\n            myStudentAddress[j-1] = courseInfs[indexOfCourseID].courseStudents[j].stuBlockAddress;\r\n            myStudentsGrade[j-1] = courseInfs[indexOfCourseID].courseStudents[j].stuGrade;\r\n        }    \r\n        return (myStudentAddress,myStudentsGrade) ;  //  complete\r\n          \r\n    }\r\n\r\n    \r\n*/   \r\n\r\n\r\n/*\r\n    //  View the results of a student in a subject\r\n    function getGradeByProAddrAndStuAddr(uint _courseId,address _proBlockAddress,address _stuBlockAddress) public view onlyProfessor returns(uint){\r\n        \r\n        // _proBlockAddress Check whether the proid matches the address\r\n        require(_proBlockAddress == msg.sender,\">>>The proId no match the current address!!!\");\r\n        \r\n        //  Check whether the course information exists\r\n        bool isExisted = checkCourseExisted(_courseId); \r\n        require(isExisted == true,\">>>_courseId no existed!!!\");\r\n        \r\n        // checkpro Check whether it is a course of proid\r\n        bool isheldByPro = checkCourseHeldByProBlockAddress(_courseId,_proBlockAddress);\r\n        require(isheldByPro == true,\">>>professor does not own this course!!!\");\r\n        \r\n        // checkstuId Check whether it is the course of stuid\r\n        bool isheldByStu = checkCourseHeldByStuBlockAddress(_courseId,_stuBlockAddress);\r\n        require(isheldByStu == true,\">>>student does not own this course!!!\");\r\n        \r\n        ///\r\n        //  Will list their achievements \r\n        //   Find the course first\r\n        uint indexOfCourseID = getIndexByCourseId(_courseId);\r\n        \r\n        // ,  \r\n        // Find the length of the array of students stored in this course, that is, the number of students taking this course\r\n        uint courseStudentCounts_ = getcourseStudentCounts(_courseId);\r\n            \r\n        uint myCourseGrade;\r\n        //   Find the corresponding student under the corresponding course\r\n        for(uint j=1;j<=courseStudentCounts_;j++){\r\n            if(courseInfs[indexOfCourseID].courseStudents[j].stuBlockAddress==_stuBlockAddress){\r\n                //   get Information matching, get score\r\n                myCourseGrade = courseInfs[indexOfCourseID].courseStudents[j].stuGrade;\r\n                return myCourseGrade;    //  complete\r\n            }\r\n        }\r\n        //  Otherwise, it will fail\r\n        return 0;  //  complete\r\n        \r\n    }\r\n*/\r\n    \r\n\r\n                    \r\n\r\n    \r\n}\r\n\r\n\r\n\r\n\r\n",
  "sourcePath": "D:\\desktop\\truffle_v3.9.2\\contracts\\Professor.sol",
  "compiler": {
    "name": "solc",
    "version": "0.5.16+commit.9c3226ce.Emscripten.clang"
  },
  "schemaVersion": "3.4.3",
  "updatedAt": "2021-12-02T22:08:17.131Z",
  "networkType": "ethereum",
  "devdoc": {
    "methods": {}
  },
  "userdoc": {
    "methods": {
      "applyCourse(uint256,address,address)": {
        "notice": "///////////////////////////////////////////////////////////////////////////////////////////////////////////"
      },
      "createCourse(uint256,string,address)": {
        "notice": "///////////////////////////////////////////////////////////////////////////////////////////////////////////"
      },
      "createCourseGrade(uint256,address,address,uint256)": {
        "notice": "///////////////////////////////////////////////////////////////////////////////////////////////////////////"
      },
      "getAdminCounts()": {
        "notice": "//////////////////////////////////////////////////////////////////////////////////////////////////////////////"
      },
      "getIndexByCourseId(uint256)": {
        "notice": "//////////////////////////////////////////////////////////////////////////////////////////////////////////////"
      },
      "getMsgSender()": {
        "notice": "///////////////////////////////////////////////////////////   ///////////////////////////////////////////////////////////   ////////////////////////////  4.2. getter function"
      },
      "getProfessorCounts()": {
        "notice": "//////////////////////////////////////////////////////////////////////////////////////////////////////////////"
      },
      "getStudentCounts()": {
        "notice": "//////////////////////////////////////////////////////////////////////////////////////////////////////////////"
      },
      "removePermission(address)": {
        "notice": "/////////////////////////////////////////////////////////////////////////////////////////////////////////// "
      },
      "setPermission(address,uint256)": {
        "notice": "/////////////////////////////////////////////////////////////////////////////////////////////////////////// "
      }
    }
  }
}