{
  "contractName": "Professor",
  "abi": [
    {
      "inputs": [],
      "name": "adminCounts",
      "outputs": [
        {
          "internalType": "uint256",
          "name": "",
          "type": "uint256"
        }
      ],
      "stateMutability": "view",
      "type": "function",
      "constant": true
    },
    {
      "inputs": [
        {
          "internalType": "uint256",
          "name": "",
          "type": "uint256"
        }
      ],
      "name": "adminSelfs",
      "outputs": [
        {
          "internalType": "uint256",
          "name": "adminId",
          "type": "uint256"
        },
        {
          "internalType": "string",
          "name": "adminName",
          "type": "string"
        },
        {
          "internalType": "address",
          "name": "adminBlockAddress",
          "type": "address"
        },
        {
          "internalType": "uint256",
          "name": "adminAuthorization",
          "type": "uint256"
        }
      ],
      "stateMutability": "view",
      "type": "function",
      "constant": true
    },
    {
      "inputs": [],
      "name": "courseCounts",
      "outputs": [
        {
          "internalType": "uint256",
          "name": "",
          "type": "uint256"
        }
      ],
      "stateMutability": "view",
      "type": "function",
      "constant": true
    },
    {
      "inputs": [
        {
          "internalType": "uint256",
          "name": "",
          "type": "uint256"
        }
      ],
      "name": "courseInfs",
      "outputs": [
        {
          "internalType": "uint256",
          "name": "courseId",
          "type": "uint256"
        },
        {
          "internalType": "string",
          "name": "courseName",
          "type": "string"
        },
        {
          "internalType": "address",
          "name": "proBlockAddress",
          "type": "address"
        },
        {
          "internalType": "bool",
          "name": "canApply",
          "type": "bool"
        },
        {
          "internalType": "uint256",
          "name": "courseStudentCounts",
          "type": "uint256"
        }
      ],
      "stateMutability": "view",
      "type": "function",
      "constant": true
    },
    {
      "inputs": [
        {
          "internalType": "address",
          "name": "_adminBlockAddress",
          "type": "address"
        }
      ],
      "name": "getAdminIndexByAddress",
      "outputs": [
        {
          "internalType": "uint256",
          "name": "",
          "type": "uint256"
        }
      ],
      "stateMutability": "view",
      "type": "function",
      "constant": true
    },
    {
      "inputs": [],
      "name": "getAllCourseId",
      "outputs": [
        {
          "internalType": "uint256[]",
          "name": "",
          "type": "uint256[]"
        }
      ],
      "stateMutability": "view",
      "type": "function",
      "constant": true
    },
    {
      "inputs": [],
      "name": "getAllProfessorAddress",
      "outputs": [
        {
          "internalType": "address[]",
          "name": "",
          "type": "address[]"
        }
      ],
      "stateMutability": "view",
      "type": "function",
      "constant": true
    },
    {
      "inputs": [],
      "name": "getAllStudentAddress",
      "outputs": [
        {
          "internalType": "address[]",
          "name": "",
          "type": "address[]"
        }
      ],
      "stateMutability": "view",
      "type": "function",
      "constant": true
    },
    {
      "inputs": [
        {
          "internalType": "address",
          "name": "_address",
          "type": "address"
        }
      ],
      "name": "getAuthorizationByAddress",
      "outputs": [
        {
          "internalType": "uint256",
          "name": "",
          "type": "uint256"
        }
      ],
      "stateMutability": "view",
      "type": "function",
      "constant": true
    },
    {
      "inputs": [
        {
          "internalType": "address",
          "name": "_proBlockAddress",
          "type": "address"
        }
      ],
      "name": "getCourseCountsByProAddress",
      "outputs": [
        {
          "internalType": "uint256",
          "name": "",
          "type": "uint256"
        }
      ],
      "stateMutability": "view",
      "type": "function",
      "constant": true
    },
    {
      "inputs": [
        {
          "internalType": "address",
          "name": "_stuBlockAddress",
          "type": "address"
        }
      ],
      "name": "getCourseCountsByStuAddress",
      "outputs": [
        {
          "internalType": "uint256",
          "name": "",
          "type": "uint256"
        }
      ],
      "stateMutability": "view",
      "type": "function",
      "constant": true
    },
    {
      "inputs": [
        {
          "internalType": "address",
          "name": "_proBlockAddress",
          "type": "address"
        }
      ],
      "name": "getCourseIdByProAddress",
      "outputs": [
        {
          "internalType": "uint256[]",
          "name": "",
          "type": "uint256[]"
        }
      ],
      "stateMutability": "view",
      "type": "function",
      "constant": true
    },
    {
      "inputs": [
        {
          "internalType": "address",
          "name": "_stuBlockAddress",
          "type": "address"
        }
      ],
      "name": "getCourseIdByStuAddress",
      "outputs": [
        {
          "internalType": "uint256[]",
          "name": "",
          "type": "uint256[]"
        }
      ],
      "stateMutability": "view",
      "type": "function",
      "constant": true
    },
    {
      "inputs": [
        {
          "internalType": "uint256",
          "name": "_courseid",
          "type": "uint256"
        }
      ],
      "name": "getCourseInfByCourseId",
      "outputs": [
        {
          "internalType": "uint256",
          "name": "",
          "type": "uint256"
        },
        {
          "internalType": "string",
          "name": "",
          "type": "string"
        },
        {
          "internalType": "address",
          "name": "",
          "type": "address"
        },
        {
          "internalType": "uint256",
          "name": "",
          "type": "uint256"
        }
      ],
      "stateMutability": "view",
      "type": "function",
      "constant": true
    },
    {
      "inputs": [
        {
          "internalType": "uint256",
          "name": "_courseid",
          "type": "uint256"
        }
      ],
      "name": "getCourseStudentInfByCourseId",
      "outputs": [
        {
          "internalType": "address[]",
          "name": "",
          "type": "address[]"
        },
        {
          "internalType": "string[]",
          "name": "",
          "type": "string[]"
        },
        {
          "internalType": "uint256[]",
          "name": "",
          "type": "uint256[]"
        }
      ],
      "stateMutability": "view",
      "type": "function",
      "constant": true
    },
    {
      "inputs": [
        {
          "internalType": "uint256",
          "name": "_courseid",
          "type": "uint256"
        }
      ],
      "name": "getCourseStudentNameByCourseId",
      "outputs": [
        {
          "internalType": "string[]",
          "name": "",
          "type": "string[]"
        }
      ],
      "stateMutability": "view",
      "type": "function",
      "constant": true
    },
    {
      "inputs": [
        {
          "internalType": "address",
          "name": "_address",
          "type": "address"
        }
      ],
      "name": "getIdByAddress",
      "outputs": [
        {
          "internalType": "uint256",
          "name": "",
          "type": "uint256"
        }
      ],
      "stateMutability": "view",
      "type": "function",
      "constant": true
    },
    {
      "inputs": [
        {
          "internalType": "uint256",
          "name": "_courseId",
          "type": "uint256"
        }
      ],
      "name": "getIndexByCourseId",
      "outputs": [
        {
          "internalType": "uint256",
          "name": "",
          "type": "uint256"
        }
      ],
      "stateMutability": "view",
      "type": "function",
      "constant": true
    },
    {
      "inputs": [
        {
          "internalType": "address",
          "name": "_proBlockAddress",
          "type": "address"
        }
      ],
      "name": "getProfessorIndexByAddress",
      "outputs": [
        {
          "internalType": "uint256",
          "name": "",
          "type": "uint256"
        }
      ],
      "stateMutability": "view",
      "type": "function",
      "constant": true
    },
    {
      "inputs": [
        {
          "internalType": "address",
          "name": "_proBlockAddress",
          "type": "address"
        }
      ],
      "name": "getProfessorInfByProAddress",
      "outputs": [
        {
          "internalType": "uint256",
          "name": "",
          "type": "uint256"
        },
        {
          "internalType": "string",
          "name": "",
          "type": "string"
        },
        {
          "internalType": "address",
          "name": "",
          "type": "address"
        },
        {
          "internalType": "uint256",
          "name": "",
          "type": "uint256"
        },
        {
          "internalType": "uint256[]",
          "name": "",
          "type": "uint256[]"
        }
      ],
      "stateMutability": "view",
      "type": "function",
      "constant": true
    },
    {
      "inputs": [
        {
          "internalType": "uint256",
          "name": "_stuId",
          "type": "uint256"
        }
      ],
      "name": "getStuAddressByStuId",
      "outputs": [
        {
          "internalType": "address",
          "name": "",
          "type": "address"
        }
      ],
      "stateMutability": "view",
      "type": "function",
      "constant": true
    },
    {
      "inputs": [
        {
          "internalType": "address",
          "name": "_stuBlockAddress",
          "type": "address"
        }
      ],
      "name": "getStudentIndexByAddress",
      "outputs": [
        {
          "internalType": "uint256",
          "name": "",
          "type": "uint256"
        }
      ],
      "stateMutability": "view",
      "type": "function",
      "constant": true
    },
    {
      "inputs": [
        {
          "internalType": "address",
          "name": "_stuBlockAddress",
          "type": "address"
        }
      ],
      "name": "getStudentInfByStuAddress",
      "outputs": [
        {
          "internalType": "uint256",
          "name": "",
          "type": "uint256"
        },
        {
          "internalType": "string",
          "name": "",
          "type": "string"
        },
        {
          "internalType": "address",
          "name": "",
          "type": "address"
        },
        {
          "internalType": "uint256",
          "name": "",
          "type": "uint256"
        },
        {
          "internalType": "uint256[]",
          "name": "",
          "type": "uint256[]"
        }
      ],
      "stateMutability": "view",
      "type": "function",
      "constant": true
    },
    {
      "inputs": [
        {
          "internalType": "uint256",
          "name": "_courseid",
          "type": "uint256"
        },
        {
          "internalType": "uint256",
          "name": "_getTops",
          "type": "uint256"
        }
      ],
      "name": "getTopStudentsByCourseId",
      "outputs": [
        {
          "internalType": "uint256",
          "name": "",
          "type": "uint256"
        },
        {
          "internalType": "address[]",
          "name": "",
          "type": "address[]"
        },
        {
          "internalType": "string[]",
          "name": "",
          "type": "string[]"
        },
        {
          "internalType": "uint256[]",
          "name": "",
          "type": "uint256[]"
        }
      ],
      "stateMutability": "view",
      "type": "function",
      "constant": true
    },
    {
      "inputs": [
        {
          "internalType": "uint256",
          "name": "_courseid",
          "type": "uint256"
        }
      ],
      "name": "getcourseStudentCounts",
      "outputs": [
        {
          "internalType": "uint256",
          "name": "courseStudentCounts_",
          "type": "uint256"
        }
      ],
      "stateMutability": "view",
      "type": "function",
      "constant": true
    },
    {
      "inputs": [],
      "name": "modifiersOwner",
      "outputs": [
        {
          "internalType": "address",
          "name": "",
          "type": "address"
        }
      ],
      "stateMutability": "view",
      "type": "function",
      "constant": true
    },
    {
      "inputs": [],
      "name": "personCounts",
      "outputs": [
        {
          "internalType": "uint256",
          "name": "",
          "type": "uint256"
        }
      ],
      "stateMutability": "view",
      "type": "function",
      "constant": true
    },
    {
      "inputs": [],
      "name": "professorCounts",
      "outputs": [
        {
          "internalType": "uint256",
          "name": "",
          "type": "uint256"
        }
      ],
      "stateMutability": "view",
      "type": "function",
      "constant": true
    },
    {
      "inputs": [
        {
          "internalType": "uint256",
          "name": "",
          "type": "uint256"
        }
      ],
      "name": "professorSelfs",
      "outputs": [
        {
          "internalType": "uint256",
          "name": "proId",
          "type": "uint256"
        },
        {
          "internalType": "string",
          "name": "proName",
          "type": "string"
        },
        {
          "internalType": "address",
          "name": "proBlockAddress",
          "type": "address"
        },
        {
          "internalType": "uint256",
          "name": "proAuthorization",
          "type": "uint256"
        },
        {
          "internalType": "uint256",
          "name": "isTeachingPeopleSum",
          "type": "uint256"
        }
      ],
      "stateMutability": "view",
      "type": "function",
      "constant": true
    },
    {
      "inputs": [
        {
          "internalType": "address",
          "name": "_blockAddress",
          "type": "address"
        }
      ],
      "name": "removePermission",
      "outputs": [
        {
          "internalType": "bool",
          "name": "",
          "type": "bool"
        }
      ],
      "stateMutability": "nonpayable",
      "type": "function"
    },
    {
      "inputs": [
        {
          "internalType": "address",
          "name": "_blockAddress",
          "type": "address"
        },
        {
          "internalType": "string",
          "name": "_name",
          "type": "string"
        },
        {
          "internalType": "uint256",
          "name": "_authorization",
          "type": "uint256"
        }
      ],
      "name": "setPermission",
      "outputs": [
        {
          "internalType": "bool",
          "name": "",
          "type": "bool"
        }
      ],
      "stateMutability": "nonpayable",
      "type": "function"
    },
    {
      "inputs": [],
      "name": "studentCounts",
      "outputs": [
        {
          "internalType": "uint256",
          "name": "",
          "type": "uint256"
        }
      ],
      "stateMutability": "view",
      "type": "function",
      "constant": true
    },
    {
      "inputs": [
        {
          "internalType": "uint256",
          "name": "",
          "type": "uint256"
        }
      ],
      "name": "studentSelfs",
      "outputs": [
        {
          "internalType": "uint256",
          "name": "stuId",
          "type": "uint256"
        },
        {
          "internalType": "string",
          "name": "stuName",
          "type": "string"
        },
        {
          "internalType": "address",
          "name": "stuBlockAddress",
          "type": "address"
        },
        {
          "internalType": "uint256",
          "name": "stuAuthorization",
          "type": "uint256"
        },
        {
          "internalType": "uint256",
          "name": "isLearningSum",
          "type": "uint256"
        }
      ],
      "stateMutability": "view",
      "type": "function",
      "constant": true
    },
    {
      "inputs": [
        {
          "internalType": "uint256",
          "name": "_courseId",
          "type": "uint256"
        },
        {
          "internalType": "string",
          "name": "_courseName",
          "type": "string"
        },
        {
          "internalType": "address",
          "name": "_proBlockAddress",
          "type": "address"
        }
      ],
      "name": "createCourse",
      "outputs": [
        {
          "internalType": "bool",
          "name": "",
          "type": "bool"
        }
      ],
      "stateMutability": "nonpayable",
      "type": "function"
    },
    {
      "inputs": [
        {
          "internalType": "uint256",
          "name": "_courseId",
          "type": "uint256"
        },
        {
          "internalType": "address",
          "name": "_proBlockAddress",
          "type": "address"
        },
        {
          "internalType": "address",
          "name": "_stuBlockAddress",
          "type": "address"
        }
      ],
      "name": "applyCourse",
      "outputs": [
        {
          "internalType": "bool",
          "name": "",
          "type": "bool"
        },
        {
          "internalType": "string",
          "name": "",
          "type": "string"
        }
      ],
      "stateMutability": "nonpayable",
      "type": "function"
    },
    {
      "inputs": [
        {
          "internalType": "uint256",
          "name": "_courseId",
          "type": "uint256"
        },
        {
          "internalType": "address",
          "name": "_proBlockAddress",
          "type": "address"
        },
        {
          "internalType": "address",
          "name": "_stuBlockAddress",
          "type": "address"
        },
        {
          "internalType": "uint256",
          "name": "_stuGrade",
          "type": "uint256"
        }
      ],
      "name": "createCourseGrade",
      "outputs": [
        {
          "internalType": "bool",
          "name": "",
          "type": "bool"
        }
      ],
      "stateMutability": "nonpayable",
      "type": "function"
    }
  ],
  "bytecode": "0x6080604052600060015560006003556000600555600060075560016009556001600a556064600b556103e8600c553480156200003a57600080fd5b50336000806101000a81548173ffffffffffffffffffffffffffffffffffffffff021916908373ffffffffffffffffffffffffffffffffffffffff1602179055506040518060800160405280600181526020016040518060400160405280600481526020017f526f6f7400000000000000000000000000000000000000000000000000000000815250815260200160008054906101000a900473ffffffffffffffffffffffffffffffffffffffff1673ffffffffffffffffffffffffffffffffffffffff1681526020016003815250600260006001815260200190815260200160002060008201518160000155602082015181600101908051906020019062000145929190620001ba565b5060408201518160020160006101000a81548173ffffffffffffffffffffffffffffffffffffffff021916908373ffffffffffffffffffffffffffffffffffffffff1602179055506060820151816003015590505060016000815480929190620001af90620002aa565b919050555062000356565b828054620001c89062000274565b90600052602060002090601f016020900481019282620001ec576000855562000238565b82601f106200020757805160ff191683800117855562000238565b8280016001018555821562000238579182015b82811115620002375782518255916020019190600101906200021a565b5b5090506200024791906200024b565b5090565b5b80821115620002665760008160009055506001016200024c565b5090565b6000819050919050565b600060028204905060018216806200028d57607f821691505b60208210811415620002a457620002a362000327565b5b50919050565b6000620002b7826200026a565b91507fffffffffffffffffffffffffffffffffffffffffffffffffffffffffffffffff821415620002ed57620002ec620002f8565b5b600182019050919050565b7f4e487b7100000000000000000000000000000000000000000000000000000000600052601160045260246000fd5b7f4e487b7100000000000000000000000000000000000000000000000000000000600052602260045260246000fd5b615e9a80620003666000396000f3fe608060405234801561001057600080fd5b506004361061021b5760003560e01c80637860a06911610125578063a5cc464d116100ad578063f6aa09e41161007c578063f6aa09e4146107b2578063f7d9394d146107d0578063fb3189e8146107ee578063fb6b990a1461080c578063fc0c1f39146108405761021b565b8063a5cc464d146106f2578063ad9e42d914610722578063dff3b49714610752578063e074bb47146107825761021b565b806390eab7a2116100f457806390eab7a21461062357806394e48ece14610653578063982203be1461068657806398aede55146106b65780639fde0943146106d45761021b565b80637860a0691461057557806378a1fdbf146105935780638c8ef733146105c357806390141940146105f35761021b565b80632454a939116101a85780634d64e5ee116101775780634d64e5ee1461047b57806358a42065146104af5780635e719a49146104e3578063606870da146105135780636b8a2c4f146105455761021b565b80632454a939146103b85780632f02ca0b146103e857806330e94711146104185780634d4fb0d71461044b5761021b565b80630d69951d116101ef5780630d69951d146102e95780630d9382fc146103195780630e3bfd6c1461033757806310d756dd146103555780631643c8db146103855761021b565b80624255a614610220578063043022fa1461025457806309f006f5146102885780630c1596b4146102b9575b600080fd5b61023a60048036038101906102359190614b2b565b61085e565b60405161024b9594939291906155fa565b60405180910390f35b61026e60048036038101906102699190614b2b565b61093c565b60405161027f9594939291906154f3565b60405180910390f35b6102a2600480360381019061029d9190614b58565b610a27565b6040516102b092919061522e565b60405180910390f35b6102d360048036038101906102ce9190614a8f565b611069565b6040516102e091906151f1565b60405180910390f35b61030360048036038101906102fe9190614a8f565b61114e565b60405161031091906151f1565b60405180910390f35b610321611233565b60405161032e919061547e565b60405180910390f35b61033f611239565b60405161034c919061547e565b60405180910390f35b61036f600480360381019061036a9190614a8f565b61123f565b60405161037c919061547e565b60405180910390f35b61039f600480360381019061039a9190614b2b565b6112e1565b6040516103af949392919061554d565b60405180910390f35b6103d260048036038101906103cd9190614a8f565b6113b9565b6040516103df919061547e565b60405180910390f35b61040260048036038101906103fd9190614a8f565b61145b565b60405161040f919061547e565b60405180910390f35b610432600480360381019061042d9190614b2b565b61148b565b604051610442949392919061554d565b60405180910390f35b61046560048036038101906104609190614a8f565b6115cb565b604051610472919061547e565b60405180910390f35b61049560048036038101906104909190614b2b565b6115fb565b6040516104a69594939291906155fa565b60405180910390f35b6104c960048036038101906104c49190614a8f565b6116d9565b6040516104da959493929190615599565b60405180910390f35b6104fd60048036038101906104f89190614b2b565b61182e565b60405161050a919061547e565b60405180910390f35b61052d60048036038101906105289190614b2b565b611896565b60405161053c93929190615183565b60405180910390f35b61055f600480360381019061055a9190614b2b565b611bbd565b60405161056c91906151cf565b60405180910390f35b61057d611d43565b60405161058a919061547e565b60405180910390f35b6105ad60048036038101906105a89190614bab565b611d49565b6040516105ba9190615213565b60405180910390f35b6105dd60048036038101906105d89190614c12565b612139565b6040516105ea9190615213565b60405180910390f35b61060d60048036038101906106089190614abc565b612413565b60405161061a9190615213565b60405180910390f35b61063d60048036038101906106389190614a8f565b6128f5565b60405161064a919061547e565b60405180910390f35b61066d60048036038101906106689190614c81565b612b07565b60405161067d9493929190615499565b60405180910390f35b6106a0600480360381019061069b9190614b2b565b6130d2565b6040516106ad9190615146565b60405180910390f35b6106be61315e565b6040516106cb9190615146565b60405180910390f35b6106dc613182565b6040516106e99190615161565b60405180910390f35b61070c60048036038101906107079190614a8f565b61328e565b604051610719919061547e565b60405180910390f35b61073c60048036038101906107379190614b2b565b613330565b604051610749919061547e565b60405180910390f35b61076c60048036038101906107679190614a8f565b613391565b604051610779919061547e565b60405180910390f35b61079c60048036038101906107979190614a8f565b6135a3565b6040516107a99190615213565b60405180910390f35b6107ba613ef2565b6040516107c791906151f1565b60405180910390f35b6107d8613fb0565b6040516107e59190615161565b60405180910390f35b6107f66140bc565b604051610803919061547e565b60405180910390f35b61082660048036038101906108219190614a8f565b6140c2565b604051610837959493929190615599565b60405180910390f35b610848614217565b604051610855919061547e565b60405180910390f35b6006602052806000526040600020600091509050806000015490806001018054610887906158c0565b80601f01602080910402602001604051908101604052809291908181526020018280546108b3906158c0565b80156109005780601f106108d557610100808354040283529160200191610900565b820191906000526020600020905b8154815290600101906020018083116108e357829003601f168201915b5050505050908060020160009054906101000a900473ffffffffffffffffffffffffffffffffffffffff16908060030154908060050154905085565b6008602052806000526040600020600091509050806000015490806001018054610965906158c0565b80601f0160208091040260200160405190810160405280929190818152602001828054610991906158c0565b80156109de5780601f106109b3576101008083540402835291602001916109de565b820191906000526020600020905b8154815290600101906020018083116109c157829003601f168201915b5050505050908060020160009054906101000a900473ffffffffffffffffffffffffffffffffffffffff16908060020160149054906101000a900460ff16908060030154905085565b600060606000805b6003548111610aba576004600082815260200190815260200160002060020160009054906101000a900473ffffffffffffffffffffffffffffffffffffffff1673ffffffffffffffffffffffffffffffffffffffff163373ffffffffffffffffffffffffffffffffffffffff161415610aa757600191505b8080610ab290615923565b915050610a2f565b5080610afb576040517f08c379a0000000000000000000000000000000000000000000000000000000008152600401610af29061543e565b60405180910390fd5b3373ffffffffffffffffffffffffffffffffffffffff168573ffffffffffffffffffffffffffffffffffffffff1614610b69576040517f08c379a0000000000000000000000000000000000000000000000000000000008152600401610b60906152be565b60405180910390fd5b6000610b748761421d565b90506001151581151514610bbd576040517f08c379a0000000000000000000000000000000000000000000000000000000008152600401610bb49061535e565b60405180910390fd5b6000610bc888614274565b90506001151581151514610c11576040517f08c379a0000000000000000000000000000000000000000000000000000000008152600401610c089061531e565b60405180910390fd5b6000610c1d89896142fc565b90506001151581151514610c66576040517f08c379a0000000000000000000000000000000000000000000000000000000008152600401610c5d9061537e565b60405180910390fd5b6000610c7188614413565b90506001151581151514610cba576040517f08c379a0000000000000000000000000000000000000000000000000000000008152600401610cb19061533e565b60405180910390fd5b6000610cc5896113b9565b90506000600660008381526020019081526020016000206001018054610cea906158c0565b80601f0160208091040260200160405190810160405280929190818152602001828054610d16906158c0565b8015610d635780601f10610d3857610100808354040283529160200191610d63565b820191906000526020600020905b815481529060010190602001808311610d4657829003601f168201915b505050505090506000805b6006600085815260200190815260200160002060040180549050811015610de1578d600660008681526020019081526020016000206004018281548110610db857610db76159ca565b5b90600052602060002001541415610dce57600191505b8080610dd990615923565b915050610d6e565b506000151581151514610e29576040517f08c379a0000000000000000000000000000000000000000000000000000000008152600401610e20906153fe565b60405180910390fd5b600660008481526020019081526020016000206004018d90806001815401808255809150506001900390600052602060002001600090919091909150556000610e718e613330565b9050610e7c8e6144b6565b6000610e878f61182e565b90508c60086000848152602001908152602001600020600401600083815260200190815260200160002060000160006101000a81548173ffffffffffffffffffffffffffffffffffffffff021916908373ffffffffffffffffffffffffffffffffffffffff160217905550836008600084815260200190815260200160002060040160008381526020019081526020016000206001019080519060200190610f30929190614812565b506000610f3c8f61328e565b90506001600460008381526020019081526020016000206005016000828254610f659190615782565b925050819055506001600660008881526020019081526020016000206005016000828254610f939190615782565b925050819055506001600860008581526020019081526020016000206004016000848152602001908152602001600020600101808054610fd2906158c0565b80601f0160208091040260200160405190810160405280929190818152602001828054610ffe906158c0565b801561104b5780601f106110205761010080835404028352916020019161104b565b820191906000526020600020905b81548152906001019060200180831161102e57829003601f168201915b505050505090509c509c505050505050505050505050935093915050565b606060006110768361328e565b90506000611083846115cb565b905060008167ffffffffffffffff8111156110a1576110a06159f9565b5b6040519080825280602002602001820160405280156110cf5781602001602082028036833780820191505090505b50905060005b8281101561114257600460008581526020019081526020016000206004018181548110611105576111046159ca565b5b9060005260206000200154828281518110611123576111226159ca565b5b602002602001018181525050808061113a90615923565b9150506110d5565b50809350505050919050565b6060600061115b836113b9565b905060006111688461145b565b905060008167ffffffffffffffff811115611186576111856159f9565b5b6040519080825280602002602001820160405280156111b45781602001602082028036833780820191505090505b50905060005b82811015611227576006600085815260200190815260200160002060040181815481106111ea576111e96159ca565b5b9060005260206000200154828281518110611208576112076159ca565b5b602002602001018181525050808061121f90615923565b9150506111ba565b50809350505050919050565b60095481565b60075481565b600080600190505b60015481116112d6578273ffffffffffffffffffffffffffffffffffffffff166002600083815260200190815260200160002060020160009054906101000a900473ffffffffffffffffffffffffffffffffffffffff1673ffffffffffffffffffffffffffffffffffffffff1614156112c357809150506112dc565b80806112ce90615923565b915050611247565b50600090505b919050565b600260205280600052604060002060009150905080600001549080600101805461130a906158c0565b80601f0160208091040260200160405190810160405280929190818152602001828054611336906158c0565b80156113835780601f1061135857610100808354040283529160200191611383565b820191906000526020600020905b81548152906001019060200180831161136657829003601f168201915b5050505050908060020160009054906101000a900473ffffffffffffffffffffffffffffffffffffffff16908060030154905084565b600080600190505b6005548111611450578273ffffffffffffffffffffffffffffffffffffffff166006600083815260200190815260200160002060020160009054906101000a900473ffffffffffffffffffffffffffffffffffffffff1673ffffffffffffffffffffffffffffffffffffffff16141561143d5780915050611456565b808061144890615923565b9150506113c1565b50600090505b919050565b600080611467836113b9565b90506006600082815260200190815260200160002060040180549050915050919050565b60006060600080600061149d86613330565b905060006008600083815260200190815260200160002060000154905060006008600084815260200190815260200160002060010180546114dd906158c0565b80601f0160208091040260200160405190810160405280929190818152602001828054611509906158c0565b80156115565780601f1061152b57610100808354040283529160200191611556565b820191906000526020600020905b81548152906001019060200180831161153957829003601f168201915b5050505050905060006008600085815260200190815260200160002060020160009054906101000a900473ffffffffffffffffffffffffffffffffffffffff16905060006008600086815260200190815260200160002060030154905083838383985098509850985050505050509193509193565b6000806115d78361328e565b90506004600082815260200190815260200160002060040180549050915050919050565b6004602052806000526040600020600091509050806000015490806001018054611624906158c0565b80601f0160208091040260200160405190810160405280929190818152602001828054611650906158c0565b801561169d5780601f106116725761010080835404028352916020019161169d565b820191906000526020600020905b81548152906001019060200180831161168057829003601f168201915b5050505050908060020160009054906101000a900473ffffffffffffffffffffffffffffffffffffffff16908060030154908060050154905085565b60006060600080606060006116ed876113b9565b9050600060066000838152602001908152602001600020600001549050600060066000848152602001908152602001600020600101805461172d906158c0565b80601f0160208091040260200160405190810160405280929190818152602001828054611759906158c0565b80156117a65780601f1061177b576101008083540402835291602001916117a6565b820191906000526020600020905b81548152906001019060200180831161178957829003601f168201915b5050505050905060006006600085815260200190815260200160002060020160009054906101000a900473ffffffffffffffffffffffffffffffffffffffff169050600060066000868152602001908152602001600020600301549050600061180e8c61114e565b905084848484849a509a509a509a509a5050505050505091939590929450565b600080600190505b600754811161188f57826008600083815260200190815260200160002060000154141561187c576008600082815260200190815260200160002060030154915050611891565b808061188790615923565b915050611836565b505b919050565b606080606060006118a685613330565b905060006008600083815260200190815260200160002060030154905060008167ffffffffffffffff8111156118df576118de6159f9565b5b60405190808252806020026020018201604052801561190d5781602001602082028036833780820191505090505b50905060008267ffffffffffffffff81111561192c5761192b6159f9565b5b60405190808252806020026020018201604052801561195f57816020015b606081526020019060019003908161194a5790505b50905060008367ffffffffffffffff81111561197e5761197d6159f9565b5b6040519080825280602002602001820160405280156119ac5781602001602082028036833780820191505090505b5090506000600190505b848111611ba75760086000878152602001908152602001600020600401600082815260200190815260200160002060000160009054906101000a900473ffffffffffffffffffffffffffffffffffffffff1684600183611a1691906157d8565b81518110611a2757611a266159ca565b5b602002602001019073ffffffffffffffffffffffffffffffffffffffff16908173ffffffffffffffffffffffffffffffffffffffff16815250506008600087815260200190815260200160002060040160008281526020019081526020016000206001018054611a96906158c0565b80601f0160208091040260200160405190810160405280929190818152602001828054611ac2906158c0565b8015611b0f5780601f10611ae457610100808354040283529160200191611b0f565b820191906000526020600020905b815481529060010190602001808311611af257829003601f168201915b505050505083600183611b2291906157d8565b81518110611b3357611b326159ca565b5b60200260200101819052506008600087815260200190815260200160002060040160008281526020019081526020016000206002015482600183611b7791906157d8565b81518110611b8857611b876159ca565b5b6020026020010181815250508080611b9f90615923565b9150506119b6565b5082828297509750975050505050509193909250565b60606000611bca83613330565b905060006008600083815260200190815260200160002060030154905060008167ffffffffffffffff811115611c0357611c026159f9565b5b604051908082528060200260200182016040528015611c3657816020015b6060815260200190600190039081611c215790505b5090506000600190505b828111611d37576008600085815260200190815260200160002060040160008281526020019081526020016000206001018054611c7c906158c0565b80601f0160208091040260200160405190810160405280929190818152602001828054611ca8906158c0565b8015611cf55780601f10611cca57610100808354040283529160200191611cf5565b820191906000526020600020905b815481529060010190602001808311611cd857829003601f168201915b505050505082600183611d0891906157d8565b81518110611d1957611d186159ca565b5b60200260200101819052508080611d2f90615923565b915050611c40565b50809350505050919050565b60035481565b6000806000905060005b6003548111611dde576004600082815260200190815260200160002060020160009054906101000a900473ffffffffffffffffffffffffffffffffffffffff1673ffffffffffffffffffffffffffffffffffffffff163373ffffffffffffffffffffffffffffffffffffffff161415611dcb57600191505b8080611dd690615923565b915050611d53565b5080611e1f576040517f08c379a0000000000000000000000000000000000000000000000000000000008152600401611e169061543e565b60405180910390fd5b3373ffffffffffffffffffffffffffffffffffffffff168573ffffffffffffffffffffffffffffffffffffffff1614611e8d576040517f08c379a0000000000000000000000000000000000000000000000000000000008152600401611e84906152be565b60405180910390fd5b6000611e988761421d565b90506001151581151514611ee1576040517f08c379a0000000000000000000000000000000000000000000000000000000008152600401611ed89061535e565b60405180910390fd5b6000611eed88886142fc565b90506001151581151514611f36576040517f08c379a0000000000000000000000000000000000000000000000000000000008152600401611f2d9061537e565b60405180910390fd5b6000611f428988614528565b90506001151581151514611f8b576040517f08c379a0000000000000000000000000000000000000000000000000000000008152600401611f82906152de565b60405180910390fd5b6000611f968a613330565b90506000611fa38b61182e565b905060006008600084815260200190815260200160002060020160146101000a81548160ff0219169083151502179055506000600190505b818111612125578973ffffffffffffffffffffffffffffffffffffffff1660086000858152602001908152602001600020600401600083815260200190815260200160002060000160009054906101000a900473ffffffffffffffffffffffffffffffffffffffff1673ffffffffffffffffffffffffffffffffffffffff161415612112578860086000858152602001908152602001600020600401600083815260200190815260200160002060020181905550600061209a8c61328e565b905060006120a78c6113b9565b90506004600083815260200190815260200160002060050160008154809291906120d090615896565b91905055506006600082815260200190815260200160002060050160008154809291906120fc90615896565b9190505550600199505050505050505050612130565b808061211d90615923565b915050611fdb565b506000965050505050505b50949350505050565b6000806000905060005b60035481116121ce576004600082815260200190815260200160002060020160009054906101000a900473ffffffffffffffffffffffffffffffffffffffff1673ffffffffffffffffffffffffffffffffffffffff163373ffffffffffffffffffffffffffffffffffffffff1614156121bb57600191505b80806121c690615923565b915050612143565b508061220f576040517f08c379a00000000000000000000000000000000000000000000000000000000081526004016122069061543e565b60405180910390fd5b3373ffffffffffffffffffffffffffffffffffffffff168373ffffffffffffffffffffffffffffffffffffffff161461227d576040517f08c379a00000000000000000000000000000000000000000000000000000000081526004016122749061527e565b60405180910390fd5b60006122888661421d565b905060001515811515146122d1576040517f08c379a00000000000000000000000000000000000000000000000000000000081526004016122c8906153de565b60405180910390fd5b600760008154809291906122e490615923565b91905055508560086000600754815260200190815260200160002060000181905550846008600060075481526020019081526020016000206001019080519060200190612332929190614812565b508360086000600754815260200190815260200160002060020160006101000a81548173ffffffffffffffffffffffffffffffffffffffff021916908373ffffffffffffffffffffffffffffffffffffffff160217905550600160086000600754815260200190815260200160002060020160146101000a81548160ff02191690831515021790555060006123c68561328e565b905060046000828152602001908152602001600020600401879080600181540180825580915050600190039060005260206000200160009091909190915055600193505050509392505050565b6000806000905060005b60015481116124a8576002600082815260200190815260200160002060020160009054906101000a900473ffffffffffffffffffffffffffffffffffffffff1673ffffffffffffffffffffffffffffffffffffffff163373ffffffffffffffffffffffffffffffffffffffff16141561249557600191505b80806124a090615923565b91505061241d565b50806124e9576040517f08c379a00000000000000000000000000000000000000000000000000000000081526004016124e0906152fe565b60405180910390fd5b60018314806124f85750600283145b806125035750600383145b612542576040517f08c379a0000000000000000000000000000000000000000000000000000000008152600401612539906153be565b60405180910390fd5b6000151561254f8661463f565b151514612591576040517f08c379a00000000000000000000000000000000000000000000000000000000081526004016125889061525e565b60405180910390fd5b600960008154809291906125a490615923565b919050555060018314156126c657600560008154809291906125c590615923565b9190505550600c60008154809291906125dd90615923565b9190505550600c546006600060055481526020019081526020016000206000018190555083600660006005548152602001908152602001600020600101908051906020019061262d929190614812565b508460066000600554815260200190815260200160002060020160006101000a81548173ffffffffffffffffffffffffffffffffffffffff021916908373ffffffffffffffffffffffffffffffffffffffff1602179055506001600660006005548152602001908152602001600020600301819055506000600660006005548152602001908152602001600020600501819055506128e9565b60028314156127e357600360008154809291906126e290615923565b9190505550600b60008154809291906126fa90615923565b9190505550600b546004600060035481526020019081526020016000206000018190555083600460006003548152602001908152602001600020600101908051906020019061274a929190614812565b508460046000600354815260200190815260200160002060020160006101000a81548173ffffffffffffffffffffffffffffffffffffffff021916908373ffffffffffffffffffffffffffffffffffffffff1602179055506002600460006003548152602001908152602001600020600301819055506000600460006003548152602001908152602001600020600501819055506128e8565b60038314156128e757600160008154809291906127ff90615923565b9190505550600a600081548092919061281790615923565b91905055506040518060800160405280600a5481526020018581526020018673ffffffffffffffffffffffffffffffffffffffff1681526020016003815250600260006001548152602001908152602001600020600082015181600001556020820151816001019080519060200190612891929190614812565b5060408201518160020160006101000a81548173ffffffffffffffffffffffffffffffffffffffff021916908373ffffffffffffffffffffffffffffffffffffffff160217905550606082015181600301559050505b5b5b60019150509392505050565b600080600190505b60015481116129a2578273ffffffffffffffffffffffffffffffffffffffff166002600083815260200190815260200160002060020160009054906101000a900473ffffffffffffffffffffffffffffffffffffffff1673ffffffffffffffffffffffffffffffffffffffff16141561298f576002600082815260200190815260200160002060030154915050612b02565b808061299a90615923565b9150506128fd565b506000600190505b6003548111612a4f578273ffffffffffffffffffffffffffffffffffffffff166004600083815260200190815260200160002060020160009054906101000a900473ffffffffffffffffffffffffffffffffffffffff1673ffffffffffffffffffffffffffffffffffffffff161415612a3c576004600082815260200190815260200160002060030154915050612b02565b8080612a4790615923565b9150506129aa565b506000600190505b6005548111612afc578273ffffffffffffffffffffffffffffffffffffffff166006600083815260200190815260200160002060020160009054906101000a900473ffffffffffffffffffffffffffffffffffffffff1673ffffffffffffffffffffffffffffffffffffffff161415612ae9576006600082815260200190815260200160002060030154915050612b02565b8080612af490615923565b915050612a57565b50600090505b919050565b600060608060606000859050600080612b1f89613330565b905060006008600083815260200190815260200160002060030154905083811015612b48578093505b60008167ffffffffffffffff811115612b6457612b636159f9565b5b604051908082528060200260200182016040528015612b925781602001602082028036833780820191505090505b5090506000600190505b828111612c4e576000600860008681526020019081526020016000206004016000838152602001908152602001600020600201541115612c3b576008600085815260200190815260200160002060040160008281526020019081526020016000206002015482600183612c0f91906157d8565b81518110612c2057612c1f6159ca565b5b6020026020010181815250508480612c3790615923565b9550505b8080612c4690615923565b915050612b9c565b5084841015612c5b578394505b60005b8151811015612d79576000600190505b8251811015612d655782600182612c8591906157d8565b81518110612c9657612c956159ca565b5b6020026020010151838281518110612cb157612cb06159ca565b5b60200260200101511115612d5257600083600183612ccf91906157d8565b81518110612ce057612cdf6159ca565b5b60200260200101519050838281518110612cfd57612cfc6159ca565b5b602002602001015184600184612d1391906157d8565b81518110612d2457612d236159ca565b5b60200260200101818152505080848381518110612d4457612d436159ca565b5b602002602001018181525050505b8080612d5d90615923565b915050612c6e565b508080612d7190615923565b915050612c5e565b5060008567ffffffffffffffff811115612d9657612d956159f9565b5b604051908082528060200260200182016040528015612dc45781602001602082028036833780820191505090505b50905060008667ffffffffffffffff811115612de357612de26159f9565b5b604051908082528060200260200182016040528015612e1657816020015b6060815260200190600190039081612e015790505b50905060008767ffffffffffffffff811115612e3557612e346159f9565b5b604051908082528060200260200182016040528015612e635781602001602082028036833780820191505090505b5090506000805b85518110156130b35789821415612e80576130b3565b858181518110612e9357612e926159ca565b5b6020026020010151838281518110612eae57612ead6159ca565b5b6020026020010181815250506000600190505b87811161309157600860008a8152602001908152602001600020600401600082815260200190815260200160002060020154848381518110612f0657612f056159ca565b5b6020026020010151141561307e57600860008a815260200190815260200160002060040160008281526020019081526020016000206001018054612f49906158c0565b80601f0160208091040260200160405190810160405280929190818152602001828054612f75906158c0565b8015612fc25780601f10612f9757610100808354040283529160200191612fc2565b820191906000526020600020905b815481529060010190602001808311612fa557829003601f168201915b5050505050858381518110612fda57612fd96159ca565b5b6020026020010181905250600860008a8152602001908152602001600020600401600082815260200190815260200160002060000160009054906101000a900473ffffffffffffffffffffffffffffffffffffffff16868381518110613043576130426159ca565b5b602002602001019073ffffffffffffffffffffffffffffffffffffffff16908173ffffffffffffffffffffffffffffffffffffffff16815250505b808061308990615923565b915050612ec1565b50818061309d90615923565b92505080806130ab90615923565b915050612e6a565b50888484849c509c509c509c5050505050505050505092959194509250565b600080600190505b6005548111613153578260066000838152602001908152602001600020600001541415613140576006600082815260200190815260200160002060020160009054906101000a900473ffffffffffffffffffffffffffffffffffffffff16915050613159565b808061314b90615923565b9150506130da565b50600090505b919050565b60008054906101000a900473ffffffffffffffffffffffffffffffffffffffff1681565b6060600060055467ffffffffffffffff8111156131a2576131a16159f9565b5b6040519080825280602002602001820160405280156131d05781602001602082028036833780820191505090505b5090506000600190505b6005548111613286576006600082815260200190815260200160002060020160009054906101000a900473ffffffffffffffffffffffffffffffffffffffff168260018361322891906157d8565b81518110613239576132386159ca565b5b602002602001019073ffffffffffffffffffffffffffffffffffffffff16908173ffffffffffffffffffffffffffffffffffffffff1681525050808061327e90615923565b9150506131da565b508091505090565b600080600190505b6003548111613325578273ffffffffffffffffffffffffffffffffffffffff166004600083815260200190815260200160002060020160009054906101000a900473ffffffffffffffffffffffffffffffffffffffff1673ffffffffffffffffffffffffffffffffffffffff161415613312578091505061332b565b808061331d90615923565b915050613296565b50600090505b919050565b600080600090506000600190505b600754811161338557836008600083815260200190815260200160002060000154141561337257809150819250505061338c565b808061337d90615923565b91505061333e565b5060009150505b919050565b600080600190505b600154811161343e578273ffffffffffffffffffffffffffffffffffffffff166002600083815260200190815260200160002060020160009054906101000a900473ffffffffffffffffffffffffffffffffffffffff1673ffffffffffffffffffffffffffffffffffffffff16141561342b57600260008281526020019081526020016000206000015491505061359e565b808061343690615923565b915050613399565b506000600190505b60035481116134eb578273ffffffffffffffffffffffffffffffffffffffff166004600083815260200190815260200160002060020160009054906101000a900473ffffffffffffffffffffffffffffffffffffffff1673ffffffffffffffffffffffffffffffffffffffff1614156134d857600460008281526020019081526020016000206000015491505061359e565b80806134e390615923565b915050613446565b506000600190505b6005548111613598578273ffffffffffffffffffffffffffffffffffffffff166006600083815260200190815260200160002060020160009054906101000a900473ffffffffffffffffffffffffffffffffffffffff1673ffffffffffffffffffffffffffffffffffffffff16141561358557600660008281526020019081526020016000206000015491505061359e565b808061359090615923565b9150506134f3565b50600090505b919050565b6000806000905060005b6001548111613638576002600082815260200190815260200160002060020160009054906101000a900473ffffffffffffffffffffffffffffffffffffffff1673ffffffffffffffffffffffffffffffffffffffff163373ffffffffffffffffffffffffffffffffffffffff16141561362557600191505b808061363090615923565b9150506135ad565b5080613679576040517f08c379a0000000000000000000000000000000000000000000000000000000008152600401613670906152fe565b60405180910390fd5b600115156136868461463f565b1515146136c8576040517f08c379a00000000000000000000000000000000000000000000000000000000081526004016136bf9061539e565b60405180910390fd5b60006136d3846128f5565b90506000811415613719576040517f08c379a00000000000000000000000000000000000000000000000000000000081526004016137109061545e565b60405180910390fd5b60018114156139e957600061372d856113b9565b90506000600660008381526020019081526020016000206005015414613788576040517f08c379a000000000000000000000000000000000000000000000000000000000815260040161377f9061541e565b60405180910390fd5b60008190505b60055481101561395357600660006001836137a99190615782565b8152602001908152602001600020600001546006600083815260200190815260200160002060000181905550600660006001836137e69190615782565b815260200190815260200160002060010160066000838152602001908152602001600020600101908054613819906158c0565b613824929190614898565b50600660006001836138369190615782565b815260200190815260200160002060020160009054906101000a900473ffffffffffffffffffffffffffffffffffffffff166006600083815260200190815260200160002060020160006101000a81548173ffffffffffffffffffffffffffffffffffffffff021916908373ffffffffffffffffffffffffffffffffffffffff160217905550600660006001836138cd9190615782565b81526020019081526020016000206003015460066000838152602001908152602001600020600301819055506006600060018361390a9190615782565b81526020019081526020016000206004016006600083815260200190815260200160002060040190805461393f929190614925565b50808061394b90615923565b91505061378e565b506006600060055481526020019081526020016000206000808201600090556001820160006139829190614977565b6002820160006101000a81549073ffffffffffffffffffffffffffffffffffffffff021916905560038201600090556004820160006139c191906149b7565b60058201600090555050600560008154809291906139de90615896565b919050555050613ecf565b6002811415613cb95760006139fd8561328e565b90506000600460008381526020019081526020016000206005015414613a58576040517f08c379a0000000000000000000000000000000000000000000000000000000008152600401613a4f9061529e565b60405180910390fd5b60008190505b600354811015613c235760046000600183613a799190615782565b815260200190815260200160002060000154600460008381526020019081526020016000206000018190555060046000600183613ab69190615782565b815260200190815260200160002060010160046000838152602001908152602001600020600101908054613ae9906158c0565b613af4929190614898565b5060046000600183613b069190615782565b815260200190815260200160002060020160009054906101000a900473ffffffffffffffffffffffffffffffffffffffff166004600083815260200190815260200160002060020160006101000a81548173ffffffffffffffffffffffffffffffffffffffff021916908373ffffffffffffffffffffffffffffffffffffffff16021790555060046000600183613b9d9190615782565b815260200190815260200160002060030154600460008381526020019081526020016000206003018190555060046000600183613bda9190615782565b815260200190815260200160002060040160046000838152602001908152602001600020600401908054613c0f929190614925565b508080613c1b90615923565b915050613a5e565b50600460006003548152602001908152602001600020600080820160009055600182016000613c529190614977565b6002820160006101000a81549073ffffffffffffffffffffffffffffffffffffffff02191690556003820160009055600482016000613c9191906149b7565b6005820160009055505060036000815480929190613cae90615896565b919050555050613ece565b6003811415613ecd576000613ccd8561123f565b905060008190505b600154811015613e535760026000600183613cf09190615782565b815260200190815260200160002060000154600260008381526020019081526020016000206000018190555060026000600183613d2d9190615782565b815260200190815260200160002060010160026000838152602001908152602001600020600101908054613d60906158c0565b613d6b929190614898565b5060026000600183613d7d9190615782565b815260200190815260200160002060020160009054906101000a900473ffffffffffffffffffffffffffffffffffffffff166002600083815260200190815260200160002060020160006101000a81548173ffffffffffffffffffffffffffffffffffffffff021916908373ffffffffffffffffffffffffffffffffffffffff16021790555060026000600183613e149190615782565b81526020019081526020016000206003015460026000838152602001908152602001600020600301819055508080613e4b90615923565b915050613cd5565b50600260006001548152602001908152602001600020600080820160009055600182016000613e829190614977565b6002820160006101000a81549073ffffffffffffffffffffffffffffffffffffffff02191690556003820160009055505060016000815480929190613ec690615896565b9190505550505b5b5b60096000815480929190613ee290615896565b9190505550600192505050919050565b6060600060075467ffffffffffffffff811115613f1257613f116159f9565b5b604051908082528060200260200182016040528015613f405781602001602082028036833780820191505090505b5090506000600190505b6007548111613fa857600860008281526020019081526020016000206000015482600183613f7891906157d8565b81518110613f8957613f886159ca565b5b6020026020010181815250508080613fa090615923565b915050613f4a565b508091505090565b6060600060035467ffffffffffffffff811115613fd057613fcf6159f9565b5b604051908082528060200260200182016040528015613ffe5781602001602082028036833780820191505090505b5090506000600190505b60035481116140b4576004600082815260200190815260200160002060020160009054906101000a900473ffffffffffffffffffffffffffffffffffffffff168260018361405691906157d8565b81518110614067576140666159ca565b5b602002602001019073ffffffffffffffffffffffffffffffffffffffff16908173ffffffffffffffffffffffffffffffffffffffff168152505080806140ac90615923565b915050614008565b508091505090565b60055481565b60006060600080606060006140d68761328e565b90506000600460008381526020019081526020016000206000015490506000600460008481526020019081526020016000206001018054614116906158c0565b80601f0160208091040260200160405190810160405280929190818152602001828054614142906158c0565b801561418f5780601f106141645761010080835404028352916020019161418f565b820191906000526020600020905b81548152906001019060200180831161417257829003601f168201915b5050505050905060006004600085815260200190815260200160002060020160009054906101000a900473ffffffffffffffffffffffffffffffffffffffff16905060006004600086815260200190815260200160002060030154905060006141f78c611069565b905084848484849a509a509a509a509a5050505050505091939590929450565b60015481565b600080600190505b600754811161426957826008600083815260200190815260200160002060000154141561425657600191505061426f565b808061426190615923565b915050614225565b50600090505b919050565b600080600190505b60075481116142f15782600860008381526020019081526020016000206000015414156142de57600115156008600083815260200190815260200160002060020160149054906101000a900460ff16151514156142dd5760019150506142f7565b5b80806142e990615923565b91505061427c565b50600090505b919050565b600080600190505b6003548111614407578273ffffffffffffffffffffffffffffffffffffffff166004600083815260200190815260200160002060020160009054906101000a900473ffffffffffffffffffffffffffffffffffffffff1673ffffffffffffffffffffffffffffffffffffffff1614156143f45760005b600460008381526020019081526020016000206004018054905081116143f257846004600084815260200190815260200160002060040182815481106143c3576143c26159ca565b5b906000526020600020015414156143df5760019250505061440d565b80806143ea90615923565b91505061437a565b505b80806143ff90615923565b915050614304565b50600090505b92915050565b600080600090505b60055481116144ab576006600082815260200190815260200160002060020160009054906101000a900473ffffffffffffffffffffffffffffffffffffffff1673ffffffffffffffffffffffffffffffffffffffff168373ffffffffffffffffffffffffffffffffffffffff1614156144985760019150506144b1565b80806144a390615923565b91505061441b565b50600090505b919050565b6000600190505b60075481116145245781600860008381526020019081526020016000206000015414156145115760086000828152602001908152602001600020600301600081548092919061450b90615923565b91905055505b808061451c90615923565b9150506144bd565b5050565b600080600190505b6005548111614633578273ffffffffffffffffffffffffffffffffffffffff166006600083815260200190815260200160002060020160009054906101000a900473ffffffffffffffffffffffffffffffffffffffff1673ffffffffffffffffffffffffffffffffffffffff1614156146205760005b6006600083815260200190815260200160002060040180549050811161461e57846006600084815260200190815260200160002060040182815481106145ef576145ee6159ca565b5b9060005260206000200154141561460b57600192505050614639565b808061461690615923565b9150506145a6565b505b808061462b90615923565b915050614530565b50600090505b92915050565b600080600190505b60015481116146d7578273ffffffffffffffffffffffffffffffffffffffff166002600083815260200190815260200160002060020160009054906101000a900473ffffffffffffffffffffffffffffffffffffffff1673ffffffffffffffffffffffffffffffffffffffff1614156146c457600191505061480d565b80806146cf90615923565b915050614647565b506000600190505b600354811161476f578273ffffffffffffffffffffffffffffffffffffffff166004600083815260200190815260200160002060020160009054906101000a900473ffffffffffffffffffffffffffffffffffffffff1673ffffffffffffffffffffffffffffffffffffffff16141561475c57600191505061480d565b808061476790615923565b9150506146df565b506000600190505b6005548111614807578273ffffffffffffffffffffffffffffffffffffffff166006600083815260200190815260200160002060020160009054906101000a900473ffffffffffffffffffffffffffffffffffffffff1673ffffffffffffffffffffffffffffffffffffffff1614156147f457600191505061480d565b80806147ff90615923565b915050614777565b50600090505b919050565b82805461481e906158c0565b90600052602060002090601f0160209004810192826148405760008555614887565b82601f1061485957805160ff1916838001178555614887565b82800160010185558215614887579182015b8281111561488657825182559160200191906001019061486b565b5b50905061489491906149d8565b5090565b8280546148a4906158c0565b90600052602060002090601f0160209004810192826148c65760008555614914565b82601f106148d75780548555614914565b8280016001018555821561491457600052602060002091601f016020900482015b828111156149135782548255916001019190600101906148f8565b5b50905061492191906149d8565b5090565b8280548282559060005260206000209081019282156149665760005260206000209182015b8281111561496557825482559160010191906001019061494a565b5b50905061497391906149d8565b5090565b508054614983906158c0565b6000825580601f1061499557506149b4565b601f0160209004906000526020600020908101906149b391906149d8565b5b50565b50805460008255906000526020600020908101906149d591906149d8565b50565b5b808211156149f15760008160009055506001016149d9565b5090565b6000614a08614a0384615679565b615654565b905082815260208101848484011115614a2457614a23615a2d565b5b614a2f848285615854565b509392505050565b600081359050614a4681615e36565b92915050565b600082601f830112614a6157614a60615a28565b5b8135614a718482602086016149f5565b91505092915050565b600081359050614a8981615e4d565b92915050565b600060208284031215614aa557614aa4615a37565b5b6000614ab384828501614a37565b91505092915050565b600080600060608486031215614ad557614ad4615a37565b5b6000614ae386828701614a37565b935050602084013567ffffffffffffffff811115614b0457614b03615a32565b5b614b1086828701614a4c565b9250506040614b2186828701614a7a565b9150509250925092565b600060208284031215614b4157614b40615a37565b5b6000614b4f84828501614a7a565b91505092915050565b600080600060608486031215614b7157614b70615a37565b5b6000614b7f86828701614a7a565b9350506020614b9086828701614a37565b9250506040614ba186828701614a37565b9150509250925092565b60008060008060808587031215614bc557614bc4615a37565b5b6000614bd387828801614a7a565b9450506020614be487828801614a37565b9350506040614bf587828801614a37565b9250506060614c0687828801614a7a565b91505092959194509250565b600080600060608486031215614c2b57614c2a615a37565b5b6000614c3986828701614a7a565b935050602084013567ffffffffffffffff811115614c5a57614c59615a32565b5b614c6686828701614a4c565b9250506040614c7786828701614a37565b9150509250925092565b60008060408385031215614c9857614c97615a37565b5b6000614ca685828601614a7a565b9250506020614cb785828601614a7a565b9150509250929050565b6000614ccd8383614d05565b60208301905092915050565b6000614ce58383614e63565b905092915050565b6000614cf98383615128565b60208301905092915050565b614d0e8161580c565b82525050565b614d1d8161580c565b82525050565b6000614d2e826156da565b614d38818561572d565b9350614d43836156aa565b8060005b83811015614d74578151614d5b8882614cc1565b9750614d6683615706565b925050600181019050614d47565b5085935050505092915050565b6000614d8c826156e5565b614d96818561573e565b935083602082028501614da8856156ba565b8060005b85811015614de45784840389528151614dc58582614cd9565b9450614dd083615713565b925060208a01995050600181019050614dac565b50829750879550505050505092915050565b6000614e01826156f0565b614e0b818561574f565b9350614e16836156ca565b8060005b83811015614e47578151614e2e8882614ced565b9750614e3983615720565b925050600181019050614e1a565b5085935050505092915050565b614e5d8161581e565b82525050565b6000614e6e826156fb565b614e788185615760565b9350614e88818560208601615863565b614e9181615a3c565b840191505092915050565b6000614ea7826156fb565b614eb18185615771565b9350614ec1818560208601615863565b614eca81615a3c565b840191505092915050565b6000614ee2602d83615771565b9150614eed82615a4d565b604082019050919050565b6000614f05603683615771565b9150614f1082615a9c565b604082019050919050565b6000614f28603883615771565b9150614f3382615aeb565b604082019050919050565b6000614f4b602c83615771565b9150614f5682615b3a565b604082019050919050565b6000614f6e602683615771565b9150614f7982615b89565b604082019050919050565b6000614f91601583615771565b9150614f9c82615bd8565b602082019050919050565b6000614fb4601583615771565b9150614fbf82615c01565b602082019050919050565b6000614fd7601c83615771565b9150614fe282615c2a565b602082019050919050565b6000614ffa601a83615771565b915061500582615c53565b602082019050919050565b600061501d602883615771565b915061502882615c7c565b604082019050919050565b6000615040601883615771565b915061504b82615ccb565b602082019050919050565b6000615063600c83615771565b915061506e82615cf4565b602082019050919050565b6000615086601f83615771565b915061509182615d1d565b602082019050919050565b60006150a9601583615771565b91506150b482615d46565b602082019050919050565b60006150cc603683615771565b91506150d782615d6f565b604082019050919050565b60006150ef601383615771565b91506150fa82615dbe565b602082019050919050565b6000615112603283615771565b915061511d82615de7565b604082019050919050565b6151318161584a565b82525050565b6151408161584a565b82525050565b600060208201905061515b6000830184614d14565b92915050565b6000602082019050818103600083015261517b8184614d23565b905092915050565b6000606082019050818103600083015261519d8186614d23565b905081810360208301526151b18185614d81565b905081810360408301526151c58184614df6565b9050949350505050565b600060208201905081810360008301526151e98184614d81565b905092915050565b6000602082019050818103600083015261520b8184614df6565b905092915050565b60006020820190506152286000830184614e54565b92915050565b60006040820190506152436000830185614e54565b81810360208301526152558184614e9c565b90509392505050565b6000602082019050818103600083015261527781614ed5565b9050919050565b6000602082019050818103600083015261529781614ef8565b9050919050565b600060208201905081810360008301526152b781614f1b565b9050919050565b600060208201905081810360008301526152d781614f3e565b9050919050565b600060208201905081810360008301526152f781614f61565b9050919050565b6000602082019050818103600083015261531781614f84565b9050919050565b6000602082019050818103600083015261533781614fa7565b9050919050565b6000602082019050818103600083015261535781614fca565b9050919050565b6000602082019050818103600083015261537781614fed565b9050919050565b6000602082019050818103600083015261539781615010565b9050919050565b600060208201905081810360008301526153b781615033565b9050919050565b600060208201905081810360008301526153d781615056565b9050919050565b600060208201905081810360008301526153f781615079565b9050919050565b600060208201905081810360008301526154178161509c565b9050919050565b60006020820190508181036000830152615437816150bf565b9050919050565b60006020820190508181036000830152615457816150e2565b9050919050565b6000602082019050818103600083015261547781615105565b9050919050565b60006020820190506154936000830184615137565b92915050565b60006080820190506154ae6000830187615137565b81810360208301526154c08186614d23565b905081810360408301526154d48185614d81565b905081810360608301526154e88184614df6565b905095945050505050565b600060a0820190506155086000830188615137565b818103602083015261551a8187614e9c565b90506155296040830186614d14565b6155366060830185614e54565b6155436080830184615137565b9695505050505050565b60006080820190506155626000830187615137565b81810360208301526155748186614e9c565b90506155836040830185614d14565b6155906060830184615137565b95945050505050565b600060a0820190506155ae6000830188615137565b81810360208301526155c08187614e9c565b90506155cf6040830186614d14565b6155dc6060830185615137565b81810360808301526155ee8184614df6565b90509695505050505050565b600060a08201905061560f6000830188615137565b81810360208301526156218187614e9c565b90506156306040830186614d14565b61563d6060830185615137565b61564a6080830184615137565b9695505050505050565b600061565e61566f565b905061566a82826158f2565b919050565b6000604051905090565b600067ffffffffffffffff821115615694576156936159f9565b5b61569d82615a3c565b9050602081019050919050565b6000819050602082019050919050565b6000819050602082019050919050565b6000819050602082019050919050565b600081519050919050565b600081519050919050565b600081519050919050565b600081519050919050565b6000602082019050919050565b6000602082019050919050565b6000602082019050919050565b600082825260208201905092915050565b600082825260208201905092915050565b600082825260208201905092915050565b600082825260208201905092915050565b600082825260208201905092915050565b600061578d8261584a565b91506157988361584a565b9250827fffffffffffffffffffffffffffffffffffffffffffffffffffffffffffffffff038211156157cd576157cc61596c565b5b828201905092915050565b60006157e38261584a565b91506157ee8361584a565b9250828210156158015761580061596c565b5b828203905092915050565b60006158178261582a565b9050919050565b60008115159050919050565b600073ffffffffffffffffffffffffffffffffffffffff82169050919050565b6000819050919050565b82818337600083830152505050565b60005b83811015615881578082015181840152602081019050615866565b83811115615890576000848401525b50505050565b60006158a18261584a565b915060008214156158b5576158b461596c565b5b600182039050919050565b600060028204905060018216806158d857607f821691505b602082108114156158ec576158eb61599b565b5b50919050565b6158fb82615a3c565b810181811067ffffffffffffffff8211171561591a576159196159f9565b5b80604052505050565b600061592e8261584a565b91507fffffffffffffffffffffffffffffffffffffffffffffffffffffffffffffffff8214156159615761596061596c565b5b600182019050919050565b7f4e487b7100000000000000000000000000000000000000000000000000000000600052601160045260246000fd5b7f4e487b7100000000000000000000000000000000000000000000000000000000600052602260045260246000fd5b7f4e487b7100000000000000000000000000000000000000000000000000000000600052603260045260246000fd5b7f4e487b7100000000000000000000000000000000000000000000000000000000600052604160045260246000fd5b600080fd5b600080fd5b600080fd5b600080fd5b6000601f19601f8301169050919050565b7f5468697320616464726573732068617320616c7265616479206265656e20736560008201527f74207065726d697373696f6e7300000000000000000000000000000000000000602082015250565b7f3e3e3e5468652070726f426c6f636b41646472657373206e6f206d617463682060008201527f7468652063757272656e74206164647265737321212100000000000000000000602082015250565b7f3e3e3e546869732070726f666573736f72206973207465616368696e672c206360008201527f616e742072656d6f7665207065726d697373696f6e2121210000000000000000602082015250565b7f3e3e3e5468652070726f4964206e6f206d61746368207468652063757272656e60008201527f7420616464726573732121210000000000000000000000000000000000000000602082015250565b7f3e3e3e73747564656e7420646f6573206e6f74206f776e207468697320636f7560008201527f7273652121210000000000000000000000000000000000000000000000000000602082015250565b7f3e3e3e3e3e3e697341646d696e203d2066616c73650000000000000000000000600082015250565b7f3e3e3e63616e4170706c795f203d3d2066616c73650000000000000000000000600082015250565b7f3e3e3e7374754944206973206e6f7420612073747564656e7421212100000000600082015250565b7f3e3e3e5f636f757273654964206e6f2065786973746564212121000000000000600082015250565b7f3e3e3e70726f666573736f7220646f6573206e6f74206f776e2074686973206360008201527f6f75727365212121000000000000000000000000000000000000000000000000602082015250565b7f3e3e3e546869732061646472657373206e6f2065786973740000000000000000600082015250565b7f756e617574686f72697a65640000000000000000000000000000000000000000600082015250565b7f3e3e3e5f636f75727365496420616c7265616479206578697374656421212100600082015250565b7f3e3e3e3e3e3e7265706561746564203d20747275650000000000000000000000600082015250565b7f3e3e3e546869732073747564656e74206973206c6561726e696e672c2063616e60008201527f742072656d6f7665207065726d697373696f6e21212100000000000000000000602082015250565b7f697350726f666573736f72203d2066616c736500000000000000000000000000600082015250565b7f3e3e3e5468697320626c6f636b4164647265737320776173206f726967696e6160008201527f6c6c79206e6f7420617574686f72697a65640000000000000000000000000000602082015250565b615e3f8161580c565b8114615e4a57600080fd5b50565b615e568161584a565b8114615e6157600080fd5b5056fea2646970667358221220b0f1ffab764d86ea61016d541cfd86d2bee8c4d5c07f87a1ef9a1c74438a1ec964736f6c63430008070033",
  "immutableReferences": {},
  "source": "// SPDX-License-Identifier: MIT\r\npragma solidity >=0.4.22 <0.9.0;\r\n\r\n\r\n/*\r\n\r\n// professor (inherit)StructAndModifiers, Admin\r\n\r\n// : onlyProfessor\r\n// All functions in this contract are marked as: onlyprofessor\r\n1. createCourse()               //   Create course\r\n\r\n2. applyCourse()                //   Join the course\r\n\r\n3. createCourseGrade()          //   Create grades\r\n\r\n4. getGradeByProAddress()            //      View the grades of all students in the subject\r\n\r\n5. getGradeByProProAddrAndStuAddr()    //        View the grade of a student in a subject\r\n\r\n\r\n*/\r\n\r\n\r\nimport \"./Admin.sol\";\r\ncontract Professor is Admin {\r\n    //////////////////////////////////////////////////////////////////////////////////////////////////////////////\r\n    //   Only teachers have permission to create courses\r\n    function createCourse (uint _courseId, string memory _courseName,address _proBlockAddress) public onlyProfessor returns(bool){    \r\n        //  Check whether the proid matches the address\r\n        require(_proBlockAddress == msg.sender,\">>>The proBlockAddress no match the current address!!!\");\r\n        \r\n        //  Check whether the created course information already exists\r\n        bool isExisted = checkCourseExisted(_courseId); \r\n        require(isExisted == false,\">>>_courseId already existed!!!\");\r\n        \r\n        // onlyProfessorproBlockAddress\r\n        \r\n        //  Self increasing\r\n        courseCounts ++;\r\n        \r\n        //    Create initialization without students and grades\r\n        courseInfs[courseCounts].courseId = _courseId;\r\n        courseInfs[courseCounts].courseName = _courseName;\r\n        courseInfs[courseCounts].proBlockAddress = _proBlockAddress;\r\n        courseInfs[courseCounts].canApply = true;\r\n        \r\n        // course ID\r\n        // After successful creation, you need to put this course ID into the corresponding professor's file\r\n        uint professorIndex = getProfessorIndexByAddress(_proBlockAddress);\r\n        // ID Put the ID in the corresponding professor's file\r\n        professorSelfs[professorIndex].myProCourses.push(_courseId);  \r\n        \r\n        return true;\r\n        \r\n    }\r\n    \r\n    \r\n     //////////////////////////////////////////////////////////////////////////////////////////////////////////////\r\n    //  Professor Only professors have permission to join the course\r\n    \r\n    function applyCourse (uint _courseId,address _proBlockAddress,address _stuBlockAddress) public onlyProfessor returns(bool,string memory){\r\n        \r\n        // _proBlockAddress Check whether the proid matches the address\r\n        require(_proBlockAddress == msg.sender,\">>>The proId no match the current address!!!\");\r\n        \r\n        //  Check whether the course information exists\r\n        bool isExisted = checkCourseExisted(_courseId); \r\n        require(isExisted == true,\">>>_courseId no existed!!!\");\r\n        \r\n        //  Check whether this course can be applied\r\n        bool canApply_ = checkCourseCanApply(_courseId);\r\n        require(canApply_ == true,\">>>canApply_ == false\");\r\n        \r\n        //  Check whether the professor has this course\r\n        bool isheldByPro = checkCourseHeldByProBlockAddress(_courseId,_proBlockAddress);\r\n        require(isheldByPro == true,\">>>professor does not own this course!!!\");\r\n              \r\n        // id Check whether the student ID is a student\r\n        bool isStudent = checkIsStudent(_stuBlockAddress);\r\n        require(isStudent == true,\">>>stuID is not a student!!!\");\r\n        \r\n        // student address\r\n        // After successful creation, you need to put this student ID into the corresponding student's file\r\n        uint studentIndex = getStudentIndexByAddress(_stuBlockAddress);\r\n        // \r\n        string memory _stuName = studentSelfs[studentIndex].stuName;\r\n\r\n        // ID Put the ID in the corresponding student's file\r\n        // course ID.  At this time, check whether there is a duplicate course ID\r\n        bool repeated = false;\r\n        for(uint i=0;i<studentSelfs[studentIndex].myStuCourses.length;i++){\r\n            if(studentSelfs[studentIndex].myStuCourses[i]==_courseId){\r\n                repeated = true;\r\n            }\r\n        }\r\n        require(repeated == false,\">>>>>>repeated = true\");\r\n        \r\n        // ,  No duplication, can apply\r\n        studentSelfs[studentIndex].myStuCourses.push(_courseId);\r\n        \r\n        //  ,\r\n        // First find the course and put the students' information into the corresponding course\r\n        uint indexOfCourseID = getIndexByCourseId(_courseId);\r\n        \r\n        // ,  \r\n        // +1\r\n        // +1, courseStudentCounts_  \r\n        \r\n        //Find the length of the array of students stored in this course, that is, the number of students who have taken this course\r\n        //New students will be assigned to the position of number + 1\r\n        //First assign the number of people + 1, and then assign it to coursestudentcounts_\r\n        \r\n        setcourseStudentCounts(_courseId);\r\n        uint courseStudentCounts_ = getcourseStudentCounts(_courseId);    \r\n        courseInfs[indexOfCourseID].courseStudents[courseStudentCounts_].stuBlockAddress = _stuBlockAddress;\r\n        courseInfs[indexOfCourseID].courseStudents[courseStudentCounts_].stuName = _stuName;\r\n\r\n        // ,+1   // Whenever a student applies, + 1\r\n        // isTeachingPeopleSum++\r\n        uint professorIndex = getProfessorIndexByAddress(_proBlockAddress);\r\n        professorSelfs[professorIndex].isTeachingPeopleSum += 1;\r\n        \r\n        //    // Set students in class\r\n        // isLearningSum++\r\n        studentSelfs[studentIndex].isLearningSum += 1;\r\n        \r\n        return (true,courseInfs[indexOfCourseID].courseStudents[courseStudentCounts_].stuName);\r\n        \r\n    }\r\n    \r\n    \r\n    // (onlyprofessor)  ==> course\r\n    // Create grade (onlyprofessor) = = > save to course class\r\n    //////////////////////////////////////////////////////////////////////////////////////////////////////////////\r\n    //     Only teachers have permission to create grades\r\n    //  _courseId ,  _proId , _stuId, _stuGrade\r\n    function createCourseGrade (uint _courseId,address _proBlockAddress,address _stuBlockAddress,uint _stuGrade) public onlyProfessor returns(bool){\r\n        \r\n        // _proBlockAddress Check whether the proid matches the address\r\n        require(_proBlockAddress == msg.sender,\">>>The proId no match the current address!!!\");\r\n        \r\n        //  Check whether the course information exists\r\n        bool isExisted = checkCourseExisted(_courseId); \r\n        require(isExisted == true,\">>>_courseId no existed!!!\");\r\n        \r\n        // pro  First check whether the professor is proid's own course\r\n        bool isheldByPro = checkCourseHeldByProBlockAddress(_courseId,_proBlockAddress);\r\n        require(isheldByPro == true,\">>>professor does not own this course!!!\");\r\n        \r\n        // checkstu Check is stuid's own course\r\n        bool isheldByStu = checkCourseHeldByStuBlockAddress(_courseId,_stuBlockAddress);\r\n        require(isheldByStu == true,\">>>student does not own this course!!!\");\r\n        \r\n        //  Find the course first\r\n        uint indexOfCourseID = getIndexByCourseId(_courseId);\r\n        // ,  \r\n        // Find the length of the array of students stored in this course, that is, the number of students taking this course\r\n        uint courseStudentCounts_ = getcourseStudentCounts(_courseId);\r\n        \r\n        // \r\n        // Students can not apply for this course after they get their grades\r\n        courseInfs[indexOfCourseID].canApply = false;\r\n\r\n        //  \r\n        // Find the corresponding students' grades under the corresponding courses\r\n        for(uint j=1;j<=courseStudentCounts_;j++){\r\n            if(courseInfs[indexOfCourseID].courseStudents[j].stuBlockAddress==_stuBlockAddress){\r\n                //      Information matching, giving results\r\n                courseInfs[indexOfCourseID].courseStudents[j].stuGrade = _stuGrade;\r\n                \r\n                //   Update the status number of teachers and students\r\n                uint professorIndex = getProfessorIndexByAddress(_proBlockAddress);\r\n                uint studentIndex = getStudentIndexByAddress(_stuBlockAddress);\r\n                // isTeaching--\r\n                professorSelfs[professorIndex].isTeachingPeopleSum--;\r\n                // isLearning--\r\n                studentSelfs[studentIndex].isLearningSum--;\r\n                \r\n                return true;    //  Update complete\r\n            }\r\n        }\r\n        // \r\n        return false;  //  \r\n        \r\n    }\r\n    \r\n/*\r\n    //   View the scores of all students in a subject\r\n    // If it is a professor, it can view the scores of students in his course\r\n    function getGradeByProAddress(uint _courseId, address _proBlockAddress) public view onlyProfessor returns(address[] memory, uint[] memory){\r\n        \r\n        // proBlockAddress Check whether the proid matches the address\r\n        require(_proBlockAddress == msg.sender,\">>>The proId no match the current address!!!\");\r\n        \r\n        //  Check whether the course information exists\r\n        bool isExisted = checkCourseExisted(_courseId); \r\n        require(isExisted == true,\">>>_courseId no existed!!!\");\r\n        \r\n        \r\n        // checkproId Check is proid's own course\r\n        bool isheldByPro = checkCourseHeldByProBlockAddress(_courseId,_proBlockAddress);\r\n        require(isheldByPro == true,\">>>professor does not own this course!!!\");\r\n        \r\n        ///\r\n        //  The results of all students under the course will be listed\r\n        \r\n        //  Find the course first\r\n        uint indexOfCourseID = getIndexByCourseId(_courseId);\r\n        \r\n        // ,  \r\n        // Find the length of the array of students stored in this course, that is, the number of students taking this course\r\n        uint courseStudentCounts_ = getcourseStudentCounts(_courseId);\r\n              \r\n        address[] memory myStudentAddress = new address[](courseStudentCounts_);\r\n        uint[] memory myStudentsGrade  = new uint[](courseStudentCounts_);\r\n              \r\n        for(uint j=1;j<=courseStudentCounts_;j++){\r\n            myStudentAddress[j-1] = courseInfs[indexOfCourseID].courseStudents[j].stuBlockAddress;\r\n            myStudentsGrade[j-1] = courseInfs[indexOfCourseID].courseStudents[j].stuGrade;\r\n        }    \r\n        return (myStudentAddress,myStudentsGrade) ;  //  complete\r\n          \r\n    }\r\n\r\n    \r\n*/   \r\n\r\n\r\n/*\r\n    //  View the results of a student in a subject\r\n    function getGradeByProAddrAndStuAddr(uint _courseId,address _proBlockAddress,address _stuBlockAddress) public view onlyProfessor returns(uint){\r\n        \r\n        // _proBlockAddress Check whether the proid matches the address\r\n        require(_proBlockAddress == msg.sender,\">>>The proId no match the current address!!!\");\r\n        \r\n        //  Check whether the course information exists\r\n        bool isExisted = checkCourseExisted(_courseId); \r\n        require(isExisted == true,\">>>_courseId no existed!!!\");\r\n        \r\n        // checkpro Check whether it is a course of proid\r\n        bool isheldByPro = checkCourseHeldByProBlockAddress(_courseId,_proBlockAddress);\r\n        require(isheldByPro == true,\">>>professor does not own this course!!!\");\r\n        \r\n        // checkstuId Check whether it is the course of stuid\r\n        bool isheldByStu = checkCourseHeldByStuBlockAddress(_courseId,_stuBlockAddress);\r\n        require(isheldByStu == true,\">>>student does not own this course!!!\");\r\n        \r\n        ///\r\n        //  Will list their achievements \r\n        //   Find the course first\r\n        uint indexOfCourseID = getIndexByCourseId(_courseId);\r\n        \r\n        // ,  \r\n        // Find the length of the array of students stored in this course, that is, the number of students taking this course\r\n        uint courseStudentCounts_ = getcourseStudentCounts(_courseId);\r\n            \r\n        uint myCourseGrade;\r\n        //   Find the corresponding student under the corresponding course\r\n        for(uint j=1;j<=courseStudentCounts_;j++){\r\n            if(courseInfs[indexOfCourseID].courseStudents[j].stuBlockAddress==_stuBlockAddress){\r\n                //   get Information matching, get score\r\n                myCourseGrade = courseInfs[indexOfCourseID].courseStudents[j].stuGrade;\r\n                return myCourseGrade;    //  complete\r\n            }\r\n        }\r\n        //  Otherwise, it will fail\r\n        return 0;  //  complete\r\n        \r\n    }\r\n*/\r\n    \r\n\r\n                    \r\n\r\n    \r\n}\r\n\r\n\r\n\r\n\r\n",
  "sourcePath": "D:\\desktop\\truffle_v4.0\\contracts\\Professor.sol",
  "compiler": {
    "name": "solc",
    "version": "0.8.7+commit.e28d00a7.Emscripten.clang"
  },
  "schemaVersion": "3.4.3",
  "updatedAt": "2021-12-03T23:16:38.843Z",
  "networkType": "ethereum",
  "devdoc": {
    "kind": "dev",
    "methods": {},
    "version": 1
  },
  "userdoc": {
    "kind": "user",
    "methods": {},
    "version": 1
  }
}