{
  "contractName": "StructAndModifiers",
  "abi": [
    {
      "inputs": [],
      "stateMutability": "nonpayable",
      "type": "constructor"
    },
    {
      "inputs": [],
      "name": "adminCounts",
      "outputs": [
        {
          "internalType": "uint256",
          "name": "",
          "type": "uint256"
        }
      ],
      "stateMutability": "view",
      "type": "function"
    },
    {
      "inputs": [
        {
          "internalType": "uint256",
          "name": "",
          "type": "uint256"
        }
      ],
      "name": "adminSelfs",
      "outputs": [
        {
          "internalType": "uint256",
          "name": "adminId",
          "type": "uint256"
        },
        {
          "internalType": "string",
          "name": "adminName",
          "type": "string"
        },
        {
          "internalType": "address",
          "name": "adminBlockAddress",
          "type": "address"
        },
        {
          "internalType": "uint256",
          "name": "adminAuthorization",
          "type": "uint256"
        }
      ],
      "stateMutability": "view",
      "type": "function"
    },
    {
      "inputs": [],
      "name": "courseCounts",
      "outputs": [
        {
          "internalType": "uint256",
          "name": "",
          "type": "uint256"
        }
      ],
      "stateMutability": "view",
      "type": "function"
    },
    {
      "inputs": [
        {
          "internalType": "uint256",
          "name": "",
          "type": "uint256"
        }
      ],
      "name": "courseInfs",
      "outputs": [
        {
          "internalType": "uint256",
          "name": "courseId",
          "type": "uint256"
        },
        {
          "internalType": "string",
          "name": "courseName",
          "type": "string"
        },
        {
          "internalType": "address",
          "name": "proBlockAddress",
          "type": "address"
        },
        {
          "internalType": "bool",
          "name": "canApply",
          "type": "bool"
        },
        {
          "internalType": "uint256",
          "name": "courseStudentCounts",
          "type": "uint256"
        }
      ],
      "stateMutability": "view",
      "type": "function"
    },
    {
      "inputs": [],
      "name": "modifiersOwner",
      "outputs": [
        {
          "internalType": "address",
          "name": "",
          "type": "address"
        }
      ],
      "stateMutability": "view",
      "type": "function"
    },
    {
      "inputs": [],
      "name": "professorCounts",
      "outputs": [
        {
          "internalType": "uint256",
          "name": "",
          "type": "uint256"
        }
      ],
      "stateMutability": "view",
      "type": "function"
    },
    {
      "inputs": [
        {
          "internalType": "uint256",
          "name": "",
          "type": "uint256"
        }
      ],
      "name": "professorSelfs",
      "outputs": [
        {
          "internalType": "uint256",
          "name": "proId",
          "type": "uint256"
        },
        {
          "internalType": "string",
          "name": "proName",
          "type": "string"
        },
        {
          "internalType": "address",
          "name": "proBlockAddress",
          "type": "address"
        },
        {
          "internalType": "uint256",
          "name": "proAuthorization",
          "type": "uint256"
        },
        {
          "internalType": "uint256",
          "name": "isTeachingPeopleSum",
          "type": "uint256"
        }
      ],
      "stateMutability": "view",
      "type": "function"
    },
    {
      "inputs": [],
      "name": "studentCounts",
      "outputs": [
        {
          "internalType": "uint256",
          "name": "",
          "type": "uint256"
        }
      ],
      "stateMutability": "view",
      "type": "function"
    },
    {
      "inputs": [
        {
          "internalType": "uint256",
          "name": "",
          "type": "uint256"
        }
      ],
      "name": "studentSelfs",
      "outputs": [
        {
          "internalType": "uint256",
          "name": "stuId",
          "type": "uint256"
        },
        {
          "internalType": "string",
          "name": "stuName",
          "type": "string"
        },
        {
          "internalType": "address",
          "name": "stuBlockAddress",
          "type": "address"
        },
        {
          "internalType": "uint256",
          "name": "stuAuthorization",
          "type": "uint256"
        },
        {
          "internalType": "uint256",
          "name": "isLearningSum",
          "type": "uint256"
        }
      ],
      "stateMutability": "view",
      "type": "function"
    },
    {
      "inputs": [
        {
          "internalType": "address",
          "name": "_address",
          "type": "address"
        }
      ],
      "name": "getIdByAddress",
      "outputs": [
        {
          "internalType": "uint256",
          "name": "",
          "type": "uint256"
        }
      ],
      "stateMutability": "view",
      "type": "function"
    },
    {
      "inputs": [
        {
          "internalType": "uint256",
          "name": "_stuId",
          "type": "uint256"
        }
      ],
      "name": "getStuAddressByStuId",
      "outputs": [
        {
          "internalType": "address",
          "name": "",
          "type": "address"
        }
      ],
      "stateMutability": "view",
      "type": "function"
    },
    {
      "inputs": [
        {
          "internalType": "address",
          "name": "_address",
          "type": "address"
        }
      ],
      "name": "getAuthorizationByAddress",
      "outputs": [
        {
          "internalType": "uint256",
          "name": "",
          "type": "uint256"
        }
      ],
      "stateMutability": "view",
      "type": "function"
    },
    {
      "inputs": [
        {
          "internalType": "address",
          "name": "_adminBlockAddress",
          "type": "address"
        }
      ],
      "name": "getAdminIndexByAddress",
      "outputs": [
        {
          "internalType": "uint256",
          "name": "",
          "type": "uint256"
        }
      ],
      "stateMutability": "view",
      "type": "function"
    },
    {
      "inputs": [
        {
          "internalType": "address",
          "name": "_proBlockAddress",
          "type": "address"
        }
      ],
      "name": "getProfessorIndexByAddress",
      "outputs": [
        {
          "internalType": "uint256",
          "name": "",
          "type": "uint256"
        }
      ],
      "stateMutability": "view",
      "type": "function"
    },
    {
      "inputs": [
        {
          "internalType": "address",
          "name": "_stuBlockAddress",
          "type": "address"
        }
      ],
      "name": "getStudentIndexByAddress",
      "outputs": [
        {
          "internalType": "uint256",
          "name": "",
          "type": "uint256"
        }
      ],
      "stateMutability": "view",
      "type": "function"
    },
    {
      "inputs": [
        {
          "internalType": "address",
          "name": "_stuBlockAddress",
          "type": "address"
        }
      ],
      "name": "getStudentInfByStuAddress",
      "outputs": [
        {
          "internalType": "uint256",
          "name": "",
          "type": "uint256"
        },
        {
          "internalType": "string",
          "name": "",
          "type": "string"
        },
        {
          "internalType": "address",
          "name": "",
          "type": "address"
        },
        {
          "internalType": "uint256",
          "name": "",
          "type": "uint256"
        },
        {
          "internalType": "uint256[]",
          "name": "",
          "type": "uint256[]"
        },
        {
          "internalType": "string[]",
          "name": "",
          "type": "string[]"
        },
        {
          "internalType": "uint256[]",
          "name": "",
          "type": "uint256[]"
        }
      ],
      "stateMutability": "view",
      "type": "function"
    },
    {
      "inputs": [],
      "name": "getAllStudentAddress",
      "outputs": [
        {
          "internalType": "address[]",
          "name": "",
          "type": "address[]"
        }
      ],
      "stateMutability": "view",
      "type": "function"
    },
    {
      "inputs": [
        {
          "internalType": "uint256",
          "name": "_courseId",
          "type": "uint256"
        }
      ],
      "name": "getIndexByCourseId",
      "outputs": [
        {
          "internalType": "uint256",
          "name": "",
          "type": "uint256"
        }
      ],
      "stateMutability": "view",
      "type": "function"
    },
    {
      "inputs": [],
      "name": "getAllCourseId",
      "outputs": [
        {
          "internalType": "uint256[]",
          "name": "",
          "type": "uint256[]"
        }
      ],
      "stateMutability": "view",
      "type": "function"
    },
    {
      "inputs": [
        {
          "internalType": "uint256",
          "name": "_courseid",
          "type": "uint256"
        }
      ],
      "name": "getcourseStudentCounts",
      "outputs": [
        {
          "internalType": "uint256",
          "name": "courseStudentCounts_",
          "type": "uint256"
        }
      ],
      "stateMutability": "view",
      "type": "function"
    },
    {
      "inputs": [
        {
          "internalType": "uint256",
          "name": "_courseid",
          "type": "uint256"
        }
      ],
      "name": "getCourseInfByCourseId",
      "outputs": [
        {
          "internalType": "uint256",
          "name": "",
          "type": "uint256"
        },
        {
          "internalType": "string",
          "name": "",
          "type": "string"
        },
        {
          "internalType": "address",
          "name": "",
          "type": "address"
        },
        {
          "internalType": "uint256",
          "name": "",
          "type": "uint256"
        }
      ],
      "stateMutability": "view",
      "type": "function"
    },
    {
      "inputs": [
        {
          "internalType": "uint256",
          "name": "_courseid",
          "type": "uint256"
        }
      ],
      "name": "getCourseStudentInfByCourseId",
      "outputs": [
        {
          "internalType": "uint256[]",
          "name": "",
          "type": "uint256[]"
        },
        {
          "internalType": "string[]",
          "name": "",
          "type": "string[]"
        },
        {
          "internalType": "address[]",
          "name": "",
          "type": "address[]"
        },
        {
          "internalType": "uint256[]",
          "name": "",
          "type": "uint256[]"
        }
      ],
      "stateMutability": "view",
      "type": "function"
    },
    {
      "inputs": [
        {
          "internalType": "uint256",
          "name": "_courseid",
          "type": "uint256"
        },
        {
          "internalType": "uint256",
          "name": "_getTops",
          "type": "uint256"
        }
      ],
      "name": "getTopStudentsByCourseId",
      "outputs": [
        {
          "internalType": "uint256",
          "name": "",
          "type": "uint256"
        },
        {
          "internalType": "uint256[]",
          "name": "",
          "type": "uint256[]"
        },
        {
          "internalType": "string[]",
          "name": "",
          "type": "string[]"
        },
        {
          "internalType": "address[]",
          "name": "",
          "type": "address[]"
        },
        {
          "internalType": "uint256[]",
          "name": "",
          "type": "uint256[]"
        }
      ],
      "stateMutability": "view",
      "type": "function"
    },
    {
      "inputs": [
        {
          "internalType": "address",
          "name": "_proBlockAddress",
          "type": "address"
        }
      ],
      "name": "getCourseCountsByProAddress",
      "outputs": [
        {
          "internalType": "uint256",
          "name": "",
          "type": "uint256"
        }
      ],
      "stateMutability": "view",
      "type": "function"
    },
    {
      "inputs": [
        {
          "internalType": "address",
          "name": "_proBlockAddress",
          "type": "address"
        }
      ],
      "name": "getCourseIdByProAddress",
      "outputs": [
        {
          "internalType": "uint256[]",
          "name": "",
          "type": "uint256[]"
        }
      ],
      "stateMutability": "view",
      "type": "function"
    },
    {
      "inputs": [
        {
          "internalType": "uint256",
          "name": "_courseid",
          "type": "uint256"
        }
      ],
      "name": "getCourseStudentNameByCourseId",
      "outputs": [
        {
          "internalType": "string[]",
          "name": "",
          "type": "string[]"
        }
      ],
      "stateMutability": "view",
      "type": "function"
    }
  ],
  "bytecode": "0x608060405260006001556000600355600060055560006007553480156200002557600080fd5b50336000806101000a81548173ffffffffffffffffffffffffffffffffffffffff021916908373ffffffffffffffffffffffffffffffffffffffff1602179055506040518060800160405280600181526020016040518060400160405280600481526020017f526f6f7400000000000000000000000000000000000000000000000000000000815250815260200160008054906101000a900473ffffffffffffffffffffffffffffffffffffffff1673ffffffffffffffffffffffffffffffffffffffff1681526020016003815250600260006001815260200190815260200160002060008201518160000155602082015181600101908051906020019062000130929190620001a5565b5060408201518160020160006101000a81548173ffffffffffffffffffffffffffffffffffffffff021916908373ffffffffffffffffffffffffffffffffffffffff16021790555060608201518160030155905050600160008154809291906200019a9062000295565b919050555062000341565b828054620001b3906200025f565b90600052602060002090601f016020900481019282620001d7576000855562000223565b82601f10620001f257805160ff191683800117855562000223565b8280016001018555821562000223579182015b828111156200022257825182559160200191906001019062000205565b5b50905062000232919062000236565b5090565b5b808211156200025157600081600090555060010162000237565b5090565b6000819050919050565b600060028204905060018216806200027857607f821691505b602082108114156200028f576200028e62000312565b5b50919050565b6000620002a28262000255565b91507fffffffffffffffffffffffffffffffffffffffffffffffffffffffffffffffff821415620002d857620002d7620002e3565b5b600182019050919050565b7f4e487b7100000000000000000000000000000000000000000000000000000000600052601160045260246000fd5b7f4e487b7100000000000000000000000000000000000000000000000000000000600052602260045260246000fd5b612d3f80620003516000396000f3fe608060405234801561001057600080fd5b506004361061018d5760003560e01c80636b8a2c4f116100de5780639fde094311610097578063dff3b49711610071578063dff3b49714610589578063f6aa09e4146105b9578063fb3189e8146105d7578063fc0c1f39146105f55761018d565b80639fde09431461050b578063a5cc464d14610529578063ad9e42d9146105595761018d565b80636b8a2c4f1461040b5780637860a0691461043b57806390eab7a21461045957806394e48ece14610489578063982203be146104bd57806398aede55146104ed5761018d565b80632454a9391161014b5780634d64e5ee116101255780634d64e5ee1461033e57806358a42065146103725780635e719a49146103a8578063606870da146103d85761018d565b80632454a939146102ab57806330e94711146102db5780634d4fb0d71461030e5761018d565b80624255a614610192578063043022fa146101c65780630c1596b4146101fa5780630e3bfd6c1461022a57806310d756dd146102485780631643c8db14610278575b600080fd5b6101ac60048036038101906101a79190612471565b610613565b6040516101bd9594939291906129ad565b60405180910390f35b6101e060048036038101906101db9190612471565b6106f1565b6040516101f195949392919061287c565b60405180910390f35b610214600480360381019061020f9190612444565b6107dc565b604051610221919061276f565b60405180910390f35b6102326108c1565b60405161023f91906127f2565b60405180910390f35b610262600480360381019061025d9190612444565b6108c7565b60405161026f91906127f2565b60405180910390f35b610292600480360381019061028d9190612471565b610969565b6040516102a294939291906128d6565b60405180910390f35b6102c560048036038101906102c09190612444565b610a41565b6040516102d291906127f2565b60405180910390f35b6102f560048036038101906102f09190612471565b610ae3565b60405161030594939291906128d6565b60405180910390f35b61032860048036038101906103239190612444565b610c23565b60405161033591906127f2565b60405180910390f35b61035860048036038101906103539190612471565b610c53565b6040516103699594939291906129ad565b60405180910390f35b61038c60048036038101906103879190612444565b610d31565b60405161039f9796959493929190612922565b60405180910390f35b6103c260048036038101906103bd9190612471565b611042565b6040516103cf91906127f2565b60405180910390f35b6103f260048036038101906103ed9190612471565b6110aa565b6040516104029493929190612791565b60405180910390f35b61042560048036038101906104209190612471565b611479565b604051610432919061274d565b60405180910390f35b6104436115ff565b60405161045091906127f2565b60405180910390f35b610473600480360381019061046e9190612444565b611605565b60405161048091906127f2565b60405180910390f35b6104a3600480360381019061049e919061249e565b611817565b6040516104b495949392919061280d565b60405180910390f35b6104d760048036038101906104d29190612471565b611e7f565b6040516104e49190612710565b60405180910390f35b6104f5611f0b565b6040516105029190612710565b60405180910390f35b610513611f2f565b604051610520919061272b565b60405180910390f35b610543600480360381019061053e9190612444565b61203b565b60405161055091906127f2565b60405180910390f35b610573600480360381019061056e9190612471565b6120dd565b60405161058091906127f2565b60405180910390f35b6105a3600480360381019061059e9190612444565b61213e565b6040516105b091906127f2565b60405180910390f35b6105c1612350565b6040516105ce919061276f565b60405180910390f35b6105df61240e565b6040516105ec91906127f2565b60405180910390f35b6105fd612414565b60405161060a91906127f2565b60405180910390f35b600660205280600052604060002060009150905080600001549080600101805461063c90612b8e565b80601f016020809104026020016040519081016040528092919081815260200182805461066890612b8e565b80156106b55780601f1061068a576101008083540402835291602001916106b5565b820191906000526020600020905b81548152906001019060200180831161069857829003601f168201915b5050505050908060020160009054906101000a900473ffffffffffffffffffffffffffffffffffffffff16908060030154908060070154905085565b600860205280600052604060002060009150905080600001549080600101805461071a90612b8e565b80601f016020809104026020016040519081016040528092919081815260200182805461074690612b8e565b80156107935780601f1061076857610100808354040283529160200191610793565b820191906000526020600020905b81548152906001019060200180831161077657829003601f168201915b5050505050908060020160009054906101000a900473ffffffffffffffffffffffffffffffffffffffff16908060020160149054906101000a900460ff16908060030154905085565b606060006107e98361203b565b905060006107f684610c23565b905060008167ffffffffffffffff81111561081457610813612c96565b5b6040519080825280602002602001820160405280156108425781602001602082028036833780820191505090505b50905060005b828110156108b55760046000858152602001908152602001600020600401818154811061087857610877612c67565b5b906000526020600020015482828151811061089657610895612c67565b5b60200260200101818152505080806108ad90612bc0565b915050610848565b50809350505050919050565b60075481565b600080600190505b600154811161095e578273ffffffffffffffffffffffffffffffffffffffff166002600083815260200190815260200160002060020160009054906101000a900473ffffffffffffffffffffffffffffffffffffffff1673ffffffffffffffffffffffffffffffffffffffff16141561094b5780915050610964565b808061095690612bc0565b9150506108cf565b50600090505b919050565b600260205280600052604060002060009150905080600001549080600101805461099290612b8e565b80601f01602080910402602001604051908101604052809291908181526020018280546109be90612b8e565b8015610a0b5780601f106109e057610100808354040283529160200191610a0b565b820191906000526020600020905b8154815290600101906020018083116109ee57829003601f168201915b5050505050908060020160009054906101000a900473ffffffffffffffffffffffffffffffffffffffff16908060030154905084565b600080600190505b6005548111610ad8578273ffffffffffffffffffffffffffffffffffffffff166006600083815260200190815260200160002060020160009054906101000a900473ffffffffffffffffffffffffffffffffffffffff1673ffffffffffffffffffffffffffffffffffffffff161415610ac55780915050610ade565b8080610ad090612bc0565b915050610a49565b50600090505b919050565b600060606000806000610af5866120dd565b90506000600860008381526020019081526020016000206000015490506000600860008481526020019081526020016000206001018054610b3590612b8e565b80601f0160208091040260200160405190810160405280929190818152602001828054610b6190612b8e565b8015610bae5780601f10610b8357610100808354040283529160200191610bae565b820191906000526020600020905b815481529060010190602001808311610b9157829003601f168201915b5050505050905060006008600085815260200190815260200160002060020160009054906101000a900473ffffffffffffffffffffffffffffffffffffffff16905060006008600086815260200190815260200160002060030154905083838383985098509850985050505050509193509193565b600080610c2f8361203b565b90506004600082815260200190815260200160002060040180549050915050919050565b6004602052806000526040600020600091509050806000015490806001018054610c7c90612b8e565b80601f0160208091040260200160405190810160405280929190818152602001828054610ca890612b8e565b8015610cf55780601f10610cca57610100808354040283529160200191610cf5565b820191906000526020600020905b815481529060010190602001808311610cd857829003601f168201915b5050505050908060020160009054906101000a900473ffffffffffffffffffffffffffffffffffffffff16908060030154908060050154905085565b6000606060008060608060606000610d4889610a41565b90506000600660008381526020019081526020016000206000015490506000600660008481526020019081526020016000206001018054610d8890612b8e565b80601f0160208091040260200160405190810160405280929190818152602001828054610db490612b8e565b8015610e015780601f10610dd657610100808354040283529160200191610e01565b820191906000526020600020905b815481529060010190602001808311610de457829003601f168201915b5050505050905060006006600085815260200190815260200160002060020160009054906101000a900473ffffffffffffffffffffffffffffffffffffffff169050600060066000868152602001908152602001600020600301549050600060066000878152602001908152602001600020600401805480602002602001604051908101604052809291908181526020018280548015610ec057602002820191906000526020600020905b815481526020019060010190808311610eac575b50505050509050600060066000888152602001908152602001600020600501805480602002602001604051908101604052809291908181526020016000905b82821015610fab578382906000526020600020018054610f1e90612b8e565b80601f0160208091040260200160405190810160405280929190818152602001828054610f4a90612b8e565b8015610f975780601f10610f6c57610100808354040283529160200191610f97565b820191906000526020600020905b815481529060010190602001808311610f7a57829003601f168201915b505050505081526020019060010190610eff565b50505050905060006006600089815260200190815260200160002060060180548060200260200160405190810160405280929190818152602001828054801561101357602002820191906000526020600020905b815481526020019060010190808311610fff575b50505050509050868686868686869e509e509e509e509e509e509e505050505050505050919395979092949650565b600080600190505b60075481116110a35782600860008381526020019081526020016000206000015414156110905760086000828152602001908152602001600020600301549150506110a5565b808061109b90612bc0565b91505061104a565b505b919050565b60608060608060006110bb866120dd565b905060006008600083815260200190815260200160002060030154905060008167ffffffffffffffff8111156110f4576110f3612c96565b5b6040519080825280602002602001820160405280156111225781602001602082028036833780820191505090505b50905060008267ffffffffffffffff81111561114157611140612c96565b5b60405190808252806020026020018201604052801561116f5781602001602082028036833780820191505090505b50905060008367ffffffffffffffff81111561118e5761118d612c96565b5b6040519080825280602002602001820160405280156111c157816020015b60608152602001906001900390816111ac5790505b50905060008467ffffffffffffffff8111156111e0576111df612c96565b5b60405190808252806020026020018201604052801561120e5781602001602082028036833780820191505090505b5090506000600190505b85811161145f5760086000888152602001908152602001600020600401600082815260200190815260200160002060000160009054906101000a900473ffffffffffffffffffffffffffffffffffffffff16856001836112789190612adf565b8151811061128957611288612c67565b5b602002602001019073ffffffffffffffffffffffffffffffffffffffff16908173ffffffffffffffffffffffffffffffffffffffff168152505060086000888152602001908152602001600020600401600082815260200190815260200160002060010154846001836112fc9190612adf565b8151811061130d5761130c612c67565b5b602002602001018181525050600860008881526020019081526020016000206004016000828152602001908152602001600020600201805461134e90612b8e565b80601f016020809104026020016040519081016040528092919081815260200182805461137a90612b8e565b80156113c75780601f1061139c576101008083540402835291602001916113c7565b820191906000526020600020905b8154815290600101906020018083116113aa57829003601f168201915b5050505050836001836113da9190612adf565b815181106113eb576113ea612c67565b5b6020026020010181905250600860008881526020019081526020016000206004016000828152602001908152602001600020600301548260018361142f9190612adf565b815181106114405761143f612c67565b5b602002602001018181525050808061145790612bc0565b915050611218565b508282858399509950995099505050505050509193509193565b60606000611486836120dd565b905060006008600083815260200190815260200160002060030154905060008167ffffffffffffffff8111156114bf576114be612c96565b5b6040519080825280602002602001820160405280156114f257816020015b60608152602001906001900390816114dd5790505b5090506000600190505b8281116115f357600860008581526020019081526020016000206004016000828152602001908152602001600020600201805461153890612b8e565b80601f016020809104026020016040519081016040528092919081815260200182805461156490612b8e565b80156115b15780601f10611586576101008083540402835291602001916115b1565b820191906000526020600020905b81548152906001019060200180831161159457829003601f168201915b5050505050826001836115c49190612adf565b815181106115d5576115d4612c67565b5b602002602001018190525080806115eb90612bc0565b9150506114fc565b50809350505050919050565b60035481565b600080600190505b60015481116116b2578273ffffffffffffffffffffffffffffffffffffffff166002600083815260200190815260200160002060020160009054906101000a900473ffffffffffffffffffffffffffffffffffffffff1673ffffffffffffffffffffffffffffffffffffffff16141561169f576002600082815260200190815260200160002060030154915050611812565b80806116aa90612bc0565b91505061160d565b506000600190505b600354811161175f578273ffffffffffffffffffffffffffffffffffffffff166004600083815260200190815260200160002060020160009054906101000a900473ffffffffffffffffffffffffffffffffffffffff1673ffffffffffffffffffffffffffffffffffffffff16141561174c576004600082815260200190815260200160002060030154915050611812565b808061175790612bc0565b9150506116ba565b506000600190505b600554811161180c578273ffffffffffffffffffffffffffffffffffffffff166006600083815260200190815260200160002060020160009054906101000a900473ffffffffffffffffffffffffffffffffffffffff1673ffffffffffffffffffffffffffffffffffffffff1614156117f9576006600082815260200190815260200160002060030154915050611812565b808061180490612bc0565b915050611767565b50600090505b919050565b600060608060608060008690506000806118308a6120dd565b905060006008600083815260200190815260200160002060030154905083811015611859578093505b60008167ffffffffffffffff81111561187557611874612c96565b5b6040519080825280602002602001820160405280156118a35781602001602082028036833780820191505090505b5090506000600190505b82811161195f57600060086000868152602001908152602001600020600401600083815260200190815260200160002060030154111561194c5760086000858152602001908152602001600020600401600082815260200190815260200160002060030154826001836119209190612adf565b8151811061193157611930612c67565b5b602002602001018181525050848061194890612bc0565b9550505b808061195790612bc0565b9150506118ad565b508484101561196c578394505b60005b8151811015611a8a576000600190505b8251811015611a7657826001826119969190612adf565b815181106119a7576119a6612c67565b5b60200260200101518382815181106119c2576119c1612c67565b5b60200260200101511115611a63576000836001836119e09190612adf565b815181106119f1576119f0612c67565b5b60200260200101519050838281518110611a0e57611a0d612c67565b5b602002602001015184600184611a249190612adf565b81518110611a3557611a34612c67565b5b60200260200101818152505080848381518110611a5557611a54612c67565b5b602002602001018181525050505b8080611a6e90612bc0565b91505061197f565b508080611a8290612bc0565b91505061196f565b5060008567ffffffffffffffff811115611aa757611aa6612c96565b5b604051908082528060200260200182016040528015611ad55781602001602082028036833780820191505090505b50905060008667ffffffffffffffff811115611af457611af3612c96565b5b604051908082528060200260200182016040528015611b225781602001602082028036833780820191505090505b50905060008767ffffffffffffffff811115611b4157611b40612c96565b5b604051908082528060200260200182016040528015611b7457816020015b6060815260200190600190039081611b5f5790505b50905060008867ffffffffffffffff811115611b9357611b92612c96565b5b604051908082528060200260200182016040528015611bc15781602001602082028036833780820191505090505b5090506000805b8651811015611e5b578a821415611bde57611e5b565b868181518110611bf157611bf0612c67565b5b6020026020010151838281518110611c0c57611c0b612c67565b5b6020026020010181815250506000600190505b888111611e3957600860008b8152602001908152602001600020600401600082815260200190815260200160002060030154848381518110611c6457611c63612c67565b5b60200260200101511415611e2657600860008b8152602001908152602001600020600401600082815260200190815260200160002060010154868381518110611cb057611caf612c67565b5b602002602001018181525050600860008b815260200190815260200160002060040160008281526020019081526020016000206002018054611cf190612b8e565b80601f0160208091040260200160405190810160405280929190818152602001828054611d1d90612b8e565b8015611d6a5780601f10611d3f57610100808354040283529160200191611d6a565b820191906000526020600020905b815481529060010190602001808311611d4d57829003601f168201915b5050505050858381518110611d8257611d81612c67565b5b6020026020010181905250600860008b8152602001908152602001600020600401600082815260200190815260200160002060000160009054906101000a900473ffffffffffffffffffffffffffffffffffffffff16878381518110611deb57611dea612c67565b5b602002602001019073ffffffffffffffffffffffffffffffffffffffff16908173ffffffffffffffffffffffffffffffffffffffff16815250505b8080611e3190612bc0565b915050611c1f565b508180611e4590612bc0565b9250508080611e5390612bc0565b915050611bc8565b5089848487859e509e509e509e509e50505050505050505050509295509295909350565b600080600190505b6005548111611f00578260066000838152602001908152602001600020600001541415611eed576006600082815260200190815260200160002060020160009054906101000a900473ffffffffffffffffffffffffffffffffffffffff16915050611f06565b8080611ef890612bc0565b915050611e87565b50600090505b919050565b60008054906101000a900473ffffffffffffffffffffffffffffffffffffffff1681565b6060600060055467ffffffffffffffff811115611f4f57611f4e612c96565b5b604051908082528060200260200182016040528015611f7d5781602001602082028036833780820191505090505b5090506000600190505b6005548111612033576006600082815260200190815260200160002060020160009054906101000a900473ffffffffffffffffffffffffffffffffffffffff1682600183611fd59190612adf565b81518110611fe657611fe5612c67565b5b602002602001019073ffffffffffffffffffffffffffffffffffffffff16908173ffffffffffffffffffffffffffffffffffffffff1681525050808061202b90612bc0565b915050611f87565b508091505090565b600080600190505b60035481116120d2578273ffffffffffffffffffffffffffffffffffffffff166004600083815260200190815260200160002060020160009054906101000a900473ffffffffffffffffffffffffffffffffffffffff1673ffffffffffffffffffffffffffffffffffffffff1614156120bf57809150506120d8565b80806120ca90612bc0565b915050612043565b50600090505b919050565b600080600090506000600190505b600754811161213257836008600083815260200190815260200160002060000154141561211f578091508192505050612139565b808061212a90612bc0565b9150506120eb565b5060009150505b919050565b600080600190505b60015481116121eb578273ffffffffffffffffffffffffffffffffffffffff166002600083815260200190815260200160002060020160009054906101000a900473ffffffffffffffffffffffffffffffffffffffff1673ffffffffffffffffffffffffffffffffffffffff1614156121d857600260008281526020019081526020016000206000015491505061234b565b80806121e390612bc0565b915050612146565b506000600190505b6003548111612298578273ffffffffffffffffffffffffffffffffffffffff166004600083815260200190815260200160002060020160009054906101000a900473ffffffffffffffffffffffffffffffffffffffff1673ffffffffffffffffffffffffffffffffffffffff16141561228557600460008281526020019081526020016000206000015491505061234b565b808061229090612bc0565b9150506121f3565b506000600190505b6005548111612345578273ffffffffffffffffffffffffffffffffffffffff166006600083815260200190815260200160002060020160009054906101000a900473ffffffffffffffffffffffffffffffffffffffff1673ffffffffffffffffffffffffffffffffffffffff16141561233257600660008281526020019081526020016000206000015491505061234b565b808061233d90612bc0565b9150506122a0565b50600090505b919050565b6060600060075467ffffffffffffffff8111156123705761236f612c96565b5b60405190808252806020026020018201604052801561239e5781602001602082028036833780820191505090505b5090506000600190505b6007548111612406576008600082815260200190815260200160002060000154826001836123d69190612adf565b815181106123e7576123e6612c67565b5b60200260200101818152505080806123fe90612bc0565b9150506123a8565b508091505090565b60055481565b60015481565b60008135905061242981612cdb565b92915050565b60008135905061243e81612cf2565b92915050565b60006020828403121561245a57612459612cc5565b5b60006124688482850161241a565b91505092915050565b60006020828403121561248757612486612cc5565b5b60006124958482850161242f565b91505092915050565b600080604083850312156124b5576124b4612cc5565b5b60006124c38582860161242f565b92505060206124d48582860161242f565b9150509250929050565b60006124ea8383612522565b60208301905092915050565b60006125028383612680565b905092915050565b600061251683836126f2565b60208301905092915050565b61252b81612b13565b82525050565b61253a81612b13565b82525050565b600061254b82612a37565b6125558185612a8a565b935061256083612a07565b8060005b8381101561259157815161257888826124de565b975061258383612a63565b925050600181019050612564565b5085935050505092915050565b60006125a982612a42565b6125b38185612a9b565b9350836020820285016125c585612a17565b8060005b8581101561260157848403895281516125e285826124f6565b94506125ed83612a70565b925060208a019950506001810190506125c9565b50829750879550505050505092915050565b600061261e82612a4d565b6126288185612aac565b935061263383612a27565b8060005b8381101561266457815161264b888261250a565b975061265683612a7d565b925050600181019050612637565b5085935050505092915050565b61267a81612b25565b82525050565b600061268b82612a58565b6126958185612abd565b93506126a5818560208601612b5b565b6126ae81612cca565b840191505092915050565b60006126c482612a58565b6126ce8185612ace565b93506126de818560208601612b5b565b6126e781612cca565b840191505092915050565b6126fb81612b51565b82525050565b61270a81612b51565b82525050565b60006020820190506127256000830184612531565b92915050565b600060208201905081810360008301526127458184612540565b905092915050565b60006020820190508181036000830152612767818461259e565b905092915050565b600060208201905081810360008301526127898184612613565b905092915050565b600060808201905081810360008301526127ab8187612613565b905081810360208301526127bf818661259e565b905081810360408301526127d38185612540565b905081810360608301526127e78184612613565b905095945050505050565b60006020820190506128076000830184612701565b92915050565b600060a0820190506128226000830188612701565b81810360208301526128348187612613565b90508181036040830152612848818661259e565b9050818103606083015261285c8185612540565b905081810360808301526128708184612613565b90509695505050505050565b600060a0820190506128916000830188612701565b81810360208301526128a381876126b9565b90506128b26040830186612531565b6128bf6060830185612671565b6128cc6080830184612701565b9695505050505050565b60006080820190506128eb6000830187612701565b81810360208301526128fd81866126b9565b905061290c6040830185612531565b6129196060830184612701565b95945050505050565b600060e082019050612937600083018a612701565b818103602083015261294981896126b9565b90506129586040830188612531565b6129656060830187612701565b81810360808301526129778186612613565b905081810360a083015261298b818561259e565b905081810360c083015261299f8184612613565b905098975050505050505050565b600060a0820190506129c26000830188612701565b81810360208301526129d481876126b9565b90506129e36040830186612531565b6129f06060830185612701565b6129fd6080830184612701565b9695505050505050565b6000819050602082019050919050565b6000819050602082019050919050565b6000819050602082019050919050565b600081519050919050565b600081519050919050565b600081519050919050565b600081519050919050565b6000602082019050919050565b6000602082019050919050565b6000602082019050919050565b600082825260208201905092915050565b600082825260208201905092915050565b600082825260208201905092915050565b600082825260208201905092915050565b600082825260208201905092915050565b6000612aea82612b51565b9150612af583612b51565b925082821015612b0857612b07612c09565b5b828203905092915050565b6000612b1e82612b31565b9050919050565b60008115159050919050565b600073ffffffffffffffffffffffffffffffffffffffff82169050919050565b6000819050919050565b60005b83811015612b79578082015181840152602081019050612b5e565b83811115612b88576000848401525b50505050565b60006002820490506001821680612ba657607f821691505b60208210811415612bba57612bb9612c38565b5b50919050565b6000612bcb82612b51565b91507fffffffffffffffffffffffffffffffffffffffffffffffffffffffffffffffff821415612bfe57612bfd612c09565b5b600182019050919050565b7f4e487b7100000000000000000000000000000000000000000000000000000000600052601160045260246000fd5b7f4e487b7100000000000000000000000000000000000000000000000000000000600052602260045260246000fd5b7f4e487b7100000000000000000000000000000000000000000000000000000000600052603260045260246000fd5b7f4e487b7100000000000000000000000000000000000000000000000000000000600052604160045260246000fd5b600080fd5b6000601f19601f8301169050919050565b612ce481612b13565b8114612cef57600080fd5b50565b612cfb81612b51565b8114612d0657600080fd5b5056fea26469706673582212207678a4e1687711ad7ab17e8f12322f9bdb732081483de4de4b8653d3b89ad4be64736f6c63430008070033",
  "immutableReferences": {},
  "source": "// SPDX-License-Identifier: MIT\r\npragma solidity >=0.4.22 <0.9.0;\r\n\r\n/*\r\n\r\n1. :  Save the permission structure of the current address\r\n    AdminSelf,  ProfessorSelf,  StudentSelf\r\n\r\n2. : Save course details\r\n    CourseInf,  CourseStudent\r\n\r\n3. modifier function\r\n    onlyAdmin,  onlyProfessor,  checkIsStudent\r\n\r\n\r\n/////////////////////////////////////////////////////////////////////////////////////////////////////////////////\r\n/////////////////////////////////////////////////////////////////////////////////////////////////////////////////\r\n\r\n4.1. setter function\r\n\r\n    setcourseStudentCounts          // course id(,,)\r\n                                    // Set the number of students with the course ID (called once when the student joins the course)\r\n\r\n\r\n/////////////////////////////////////////////////////////////////////////////////////////////////////////////////\r\n/////////////////////////////////////////////////////////////////////////////////////////////////////////////////\r\n\r\n4.2 getter function\r\n\r\n    getMsgSender                    // msg.sender\r\n    \r\n    getMsgSenderAuthorization       // msg.sender\r\n\r\n    ==> getIdByAddress()            // addressid , Find this person's id through address\r\n\r\n    ==> getStuAddressByStuId()            // ID  ,  Find this person's address by ID\r\n\r\n    getAuthorizationByAddress()     // addressauthorization , Find this person's authorization through address\r\n\r\n/////////////////////////////////////////////////////////////////////////////////////////////////////////////////\r\n\r\n// getter about admin\r\n    getAdminCounts()                // \r\n    getAdminIndexByAddress()        //  address adminindex , Find the index in admin by address\r\n\r\n/////////////////////////////////////////////////////////////////////////////////////////////////////////////////\r\n\r\n// getter about professor\r\n    getProfessorCounts()            // \r\n    getProfessorIndexByAddress()    //  address professorindex , Find the index in the professor by address\r\n    getProfessorInfByProAddress()   // proAddresspro\r\n\r\n/////////////////////////////////////////////////////////////////////////////////////////////////////////////////\r\n\r\n// getter about student\r\n    getStudentCounts()              // \r\n    getStudentIndexByAddress()      //  address studentindex  ,Find the index in the student by address\r\n    getStudentNameByAddress()\r\n    getStudentInfByStuAddress()     // stuAddressstu\r\n\r\n/////////////////////////////////////////////////////////////////////////////////////////////////////////////////\r\n\r\n// getter about course\r\n\r\n    // about all course\r\n    getIndexByCourseId              // course id    Get the index of this course by course ID\r\n \r\n    getAllCourseId()                // course id\r\n\r\n    getcourseStudentCounts          // course id  The number of students to get the course ID\r\n\r\n    getCourseCounts()               // courseCounts  Return the current courseCounts value\r\n\r\n    getCourseStudentsByCourseId()   // course id\r\n\r\n    getCourseInfByCourseId()        // course id\r\n\r\n    getTopStudentsByCourseId()      // course idn\r\n\r\n\r\n    // pro\r\n    getCourseCountsByProAddress()   //   Get a few courses taught by a certain teacher\r\n\r\n    getCourseIdByProAddress()       // proAddressid   Get an array of all course IDs opened by a teacher through proAddress\r\n\r\n\r\n    // stu\r\n    getCourseCountsByStuAddress()   // \r\n\r\n    getCourseIdByStuAddress()       // stuAddressid   Get an array of all course IDs opened by a student through stuAddress\r\n\r\n\r\n\r\n/////////////////////////////////////////////////////////////////////////////////////////////////////////////////\r\n/////////////////////////////////////////////////////////////////////////////////////////////////////////////////\r\n\r\n4.3. check function\r\n\r\n    checkIdExisted()                // id         Verify that this ID has been used\r\n\r\n    checkAddressExisted()           // address    Verify that this address has been used\r\n\r\n    ////// check course\r\n\r\n    checkCourseCanApply             // course id \r\n                                    // Check the course ID to see if you can apply for this course\r\n\r\n    checkCourseExisted              // course id \r\n                                    // Check if this course exists by course ID\r\n\r\n    checkCourseHeldByProBlockAddress        // courseId,proBlockAddress \r\n                                            // Check whether the professor owns the course through courseId,proId\r\n\r\n    checkCourseHeldByStuBlockAddress        // courseId,stuBlockAddress \r\n                                            // Through courseId,stuId checks whether the student owns the course\r\n\r\n    \r\n*/\r\n\r\n\r\n\r\ncontract StructAndModifiers{\r\n\r\n    address public modifiersOwner;   // \r\n\r\n    constructor() {\r\n        modifiersOwner = msg.sender;\r\n        adminSelfs[1] = AdminSelf(1,'Root',modifiersOwner,3);\r\n        adminCounts++;\r\n    }\r\n\r\n//// Struct\r\n\r\n    ////////////\r\n    // admin //\r\n    ///////////\r\n    uint public adminCounts = 0; //\r\n    struct AdminSelf{\r\n        uint adminId;               // \r\n        string adminName;           //\r\n        address adminBlockAddress;  // \r\n        uint adminAuthorization;    // = 3\r\n    }\r\n    mapping(uint => AdminSelf)public adminSelfs; //\r\n    \r\n    ///////////////\r\n    // professor //\r\n    ///////////////\r\n    uint public professorCounts = 0; //\r\n    struct ProfessorSelf{\r\n        uint proId;               // \r\n        string proName;           //\r\n        address proBlockAddress;  // \r\n        uint proAuthorization;    // = 2\r\n        uint[] myProCourses;          //    Save the class you created\r\n        // ,    \r\n        // , +1 \r\n        // ,,-1   \r\n        // 0\r\n        // 0\r\n        /* \r\n            Judge whether the teacher is teaching, and the teacher who is teaching cannot be arbitrarily deprived of his authority,\r\n            When the teacher creates a course, when each student applies, + 1\r\n            When the teacher gives the student the score of a course, it indicates the end of a course, then - 1\r\n            When it is 0, it means that no course is taught\r\n            Initial 0\r\n        */\r\n        uint isTeachingPeopleSum;          \r\n    }\r\n    mapping(uint => ProfessorSelf)public professorSelfs; //\r\n    \r\n    /////////////\r\n    // student //\r\n    /////////////\r\n    uint public studentCounts = 0; //\r\n    struct StudentSelf{\r\n        uint stuId;               // \r\n        string stuName;           //\r\n        address stuBlockAddress;  // \r\n        uint stuAuthorization;    // = 1\r\n        uint[] myStuCourses;      //  Save the lesson I'm taking\r\n        string[] myStuCourseNames;\r\n        uint[] myStuCoursesGrades;\r\n        // , \r\n        // +1,, -1\r\n        // 0\r\n        // 0\r\n        /*\r\n            Judge whether students are in class. Students in class cannot be removed at will\r\n            When students join a course, they will + 1. When students get a grade, it means that a course ends, then - 1\r\n            If it is 0, it means that you have not studied a course\r\n            Initial 0\r\n        */\r\n        uint isLearningSum;         \r\n    }\r\n    \r\n    mapping(uint => StudentSelf)public studentSelfs; // \r\n    \r\n    /*\r\n    /////////////\r\n    // course  //\r\n    /////////////\r\n    \r\n    1.                       Record course information\r\n    2. ()    Record score information (only teachers can modify it)\r\n    \r\n    \r\n    */\r\n    \r\n    uint public courseCounts = 0;\r\n        \r\n    //  Course student information\r\n    struct CourseStudent{\r\n        address stuBlockAddress;\r\n        uint stuId;\r\n        string stuName;\r\n        uint stuGrade;\r\n    }\r\n\r\n    // Course information\r\n    struct CourseInf{\r\n        uint courseId;          //\r\n        string courseName;      //\r\n        address proBlockAddress;\r\n        bool canApply;          // , \r\n        uint courseStudentCounts;  // \r\n        mapping (uint => CourseStudent) courseStudents;  // \r\n    }\r\n    \r\n    mapping (uint => CourseInf) public courseInfs;//Course information index\r\n    \r\n    \r\n\r\n//////////////////////////////////////////////////////////////  \r\n//////////////////////////////////////////////////////////////  \r\n/////////////////////////////// modifier function\r\n    \r\n    // onlyAdmin\r\n    modifier onlyAdmin() {\r\n        bool isAdmin = false;\r\n        for (uint256 i = 0; i <= adminCounts; i++) {\r\n            if(msg.sender == adminSelfs[i].adminBlockAddress){                \r\n                isAdmin = true;\r\n            }\r\n        }\r\n        require(isAdmin,\">>>>>>isAdmin = false\");\r\n        _;\r\n    }\r\n\r\n    \r\n    // onlyProfessor\r\n    modifier onlyProfessor() {\r\n        bool isProfessor = false;\r\n        for (uint256 i = 0; i <= professorCounts; i++) {  \r\n            if(msg.sender == professorSelfs[i].proBlockAddress){               \r\n                isProfessor = true;\r\n            }\r\n        }\r\n        require(isProfessor,\"isProfessor = false\");\r\n        _;\r\n    }\r\n/*   \r\n    // \r\n    function checkIsStudent(address _stuBlockAddress) internal view returns(bool){\r\n        for (uint i = 0; i <= studentCounts; i++) {   \r\n            if( _stuBlockAddress == studentSelfs[i].stuBlockAddress){                \r\n                return true;\r\n            }\r\n        }\r\n        return false;\r\n    }\r\n*/    \r\n    \r\n  \r\n//////////////////////////////////////////////////////////////  \r\n//////////////////////////////////////////////////////////////  \r\n///////////////////////////////  4.1. setter function\r\n\r\n\r\n    // course id Number of students setting course ID\r\n    // ,  Call once when students join the course\r\n    function setcourseStudentCounts(uint _courseid) internal {\r\n        for(uint i=1;i<=courseCounts;i++){\r\n            if(courseInfs[i].courseId == _courseid){\r\n                courseInfs[i].courseStudentCounts++; // ,  Call once, add one person\r\n            }\r\n        }\r\n    }\r\n    \r\n\r\n//////////////////////////////////////////////////////////////  \r\n//////////////////////////////////////////////////////////////  \r\n///////////////////////////////  4.2. getter function\r\n\r\n/*\r\n    // msg.sender\r\n    function getMsgSender() public view returns(address){\r\n        return msg.sender;\r\n    }\r\n\r\n    // msg.sender\r\n    function getMsgSenderAuthorization() public view returns(uint){\r\n        for(uint i=1;i<=adminCounts;i++){\r\n            if(adminSelfs[i].adminBlockAddress == msg.sender)\r\n                return adminSelfs[i].adminAuthorization;\r\n        }\r\n        for(uint i=1;i<=professorCounts;i++){\r\n            if(professorSelfs[i].proBlockAddress == msg.sender)\r\n                return professorSelfs[i].proAuthorization;\r\n        }\r\n        for(uint i=1;i<=studentCounts;i++){\r\n            if(studentSelfs[i].stuBlockAddress == msg.sender)\r\n                return studentSelfs[i].stuAuthorization;\r\n        }\r\n        return 0;\r\n    }\r\n*/\r\n\r\n    // addressid , Find this person's id through address\r\n    function getIdByAddress(address _address) public view returns(uint){\r\n        for(uint i=1;i<=adminCounts;i++){\r\n            if(adminSelfs[i].adminBlockAddress == _address)\r\n                return adminSelfs[i].adminId;\r\n        }\r\n        for(uint i=1;i<=professorCounts;i++){\r\n            if(professorSelfs[i].proBlockAddress == _address)\r\n                return professorSelfs[i].proId;\r\n        }\r\n        for(uint i=1;i<=studentCounts;i++){\r\n            if(studentSelfs[i].stuBlockAddress == _address)\r\n                return studentSelfs[i].stuId;\r\n        }\r\n        return 0; //\r\n    }\r\n \r\n    \r\n    // stuID  ,  Find this person's address by ID\r\n    function getStuAddressByStuId(uint _stuId) public view returns(address){\r\n        for(uint i=1;i<=studentCounts;i++){\r\n            if(studentSelfs[i].stuId == _stuId)\r\n                return studentSelfs[i].stuBlockAddress;\r\n        }\r\n        return address(0x0);\r\n        \r\n    }\r\n\r\n\r\n    // addressauthorization , Find this person's authorization through address\r\n    function getAuthorizationByAddress(address _address) public view returns(uint){\r\n        for(uint i=1;i<=adminCounts;i++){\r\n            if(adminSelfs[i].adminBlockAddress == _address)\r\n                return adminSelfs[i].adminAuthorization;\r\n        }\r\n        for(uint i=1;i<=professorCounts;i++){\r\n            if(professorSelfs[i].proBlockAddress == _address)\r\n                return professorSelfs[i].proAuthorization;\r\n        }\r\n        for(uint i=1;i<=studentCounts;i++){\r\n            if(studentSelfs[i].stuBlockAddress == _address)\r\n                return studentSelfs[i].stuAuthorization;\r\n        }\r\n        return 0; //\r\n    }\r\n\r\n/*\r\n    // address idnameauthorizationaddress\r\n    function getPersonInfByAddress(address _address) public view returns(uint,string memory,uint){\r\n        for(uint i=1;i<=adminCounts;i++){\r\n            if(adminSelfs[i].adminBlockAddress == _address)\r\n                return (adminSelfs[i].adminId,adminSelfs[i].adminName,adminSelfs[i].adminAuthorization);\r\n        }\r\n        for(uint i=1;i<=professorCounts;i++){\r\n            if(professorSelfs[i].proBlockAddress == _address)\r\n                return (professorSelfs[i].proId,professorSelfs[i].proName,professorSelfs[i].proAuthorization);\r\n        }\r\n        for(uint i=1;i<=studentCounts;i++){\r\n            if(studentSelfs[i].stuBlockAddress == _address)\r\n                return (studentSelfs[i].stuId,studentSelfs[i].stuName,studentSelfs[i].stuAuthorization);\r\n        }\r\n        return (0,'null',0); //\r\n    }\r\n*/\r\n\r\n/////////////////////////////////////////////////////////////////////////////////////////////////////////////////\r\n\r\n// getter about admin\r\n\r\n\r\n    //  address adminindex , Find the index in admin by ID\r\n    function getAdminIndexByAddress(address _adminBlockAddress) public view returns(uint){\r\n        for(uint i=1;i<=adminCounts;i++){\r\n            if(adminSelfs[i].adminBlockAddress ==_adminBlockAddress) {\r\n                return i;  // \r\n            }    \r\n        }\r\n        return 0; // \r\n    }\r\n    \r\n\r\n/////////////////////////////////////////////////////////////////////////////////////////////////////////////////\r\n\r\n// getter about professor\r\n\r\n\r\n    //  address professorindex , Find the index in the professor by ID\r\n    function getProfessorIndexByAddress(address _proBlockAddress) public view returns(uint){\r\n        for(uint i=1;i<=professorCounts;i++){\r\n            if(professorSelfs[i].proBlockAddress ==_proBlockAddress) {\r\n                return i;  // \r\n            }    \r\n        }\r\n        return 0; // \r\n    }\r\n\r\n/*\r\n    // proAddresspro\r\n    function getProfessorInfByProAddress(address _proBlockAddress) public view returns(uint,string memory,address,uint,uint[] memory ){\r\n        // proIndex\r\n        uint proIndex = getProfessorIndexByAddress(_proBlockAddress);\r\n        //  proId,proName,proBlockAddress,proAuthorization,myProCourses\r\n        uint proId_ = professorSelfs[proIndex].proId;\r\n        string memory proName_ = professorSelfs[proIndex].proName;\r\n        address proBlockAddress_ = professorSelfs[proIndex].proBlockAddress;\r\n        uint proAuthorization_ = professorSelfs[proIndex].proAuthorization;\r\n        uint[] memory myProCourses_ = getCourseIdByProAddress(_proBlockAddress);\r\n        // return\r\n        return (proId_,proName_,proBlockAddress_,proAuthorization_,myProCourses_);\r\n    }\r\n\r\n\r\n    // \r\n    function getAllProfessorAddress() public view returns(address[] memory){\r\n        address[] memory allProfessorAddress_ = new address[](professorCounts);\r\n        for(uint i=1;i<=professorCounts;i++){\r\n            allProfessorAddress_[i-1] = professorSelfs[i].proBlockAddress;\r\n        }\r\n        return allProfessorAddress_;\r\n    }\r\n*/\r\n\r\n/*\r\n    // ID\r\n    function getAllProfessorId() public view returns(uint[] memory){\r\n        uint[] memory allProfessorId_ = new uint[](professorCounts);\r\n        for(uint i=1;i<=professorCounts;i++){\r\n            allProfessorId_[i-1] = professorSelfs[i].proId;\r\n        }\r\n        return allProfessorId_;\r\n    }\r\n*/\r\n/////////////////////////////////////////////////////////////////////////////////////////////////////////////////\r\n\r\n// getter about student\r\n\r\n\r\n    //  address studentindex  ,Find the index in the student by ID\r\n    function getStudentIndexByAddress(address _stuBlockAddress) public view returns(uint){\r\n        for(uint i=1;i<=studentCounts;i++){\r\n            if(studentSelfs[i].stuBlockAddress ==_stuBlockAddress) {\r\n                return i;  // \r\n            }    \r\n        }\r\n        return 0; // \r\n    }\r\n\r\n/*\r\n    //  address\r\n    function getStudentNameByAddress(address _stuBlockAddress) public view returns(string memory){\r\n        uint studentIndex = getStudentIndexByAddress(_stuBlockAddress);\r\n        return studentSelfs[studentIndex].stuName; // \r\n    }\r\n*/\r\n\r\n\r\n    // stuAddressstu\r\n    function getStudentInfByStuAddress(address _stuBlockAddress) public view returns(uint,string memory,address,uint,uint[] memory,string[] memory,uint[] memory ){\r\n        // stuIndex\r\n        uint stuIndex = getStudentIndexByAddress(_stuBlockAddress);\r\n        //  stuId,stuName,stuBlockAddress,stuAuthorization,myStuCourses\r\n        uint stuId_ = studentSelfs[stuIndex].stuId;\r\n        string memory stuName_ = studentSelfs[stuIndex].stuName;\r\n        address stuBlockAddress_ = studentSelfs[stuIndex].stuBlockAddress;\r\n        uint stuAuthorization_ = studentSelfs[stuIndex].stuAuthorization;\r\n\r\n        uint[] memory myStuCourses_ = studentSelfs[stuIndex].myStuCourses;\r\n        //uint[] memory myStuCourses_ = getCourseIdByStuAddress(_stuBlockAddress);\r\n        // \r\n        string[] memory myStuCourseNames_ = studentSelfs[stuIndex].myStuCourseNames;\r\n        uint[] memory myStuCoursesGrades_ = studentSelfs[stuIndex].myStuCoursesGrades;\r\n        // return\r\n        return (stuId_,stuName_,stuBlockAddress_,stuAuthorization_,myStuCourses_,myStuCourseNames_,myStuCoursesGrades_);\r\n    }\r\n\r\n\r\n    // \r\n    function getAllStudentAddress() public view returns(address[] memory){\r\n        address[] memory allStudentAddress_ = new address[](studentCounts);\r\n        for(uint i=1;i<=studentCounts;i++){\r\n            allStudentAddress_[i-1] = studentSelfs[i].stuBlockAddress;\r\n        }\r\n        return allStudentAddress_;\r\n    }\r\n\r\n/*\r\n    // ID\r\n    function getAllStudentId() public view returns(uint[] memory){\r\n        uint[] memory allStudentId_ = new uint[](studentCounts);\r\n        for(uint i=1;i<=studentCounts;i++){\r\n            allStudentId_[i-1] = studentSelfs[i].stuId;\r\n        }\r\n        return allStudentId_;\r\n    }\r\n*/\r\n\r\n /////////////////////////////////////////////////////////////////////////////////////////////////////////////////\r\n\r\n// getter about course\r\n\r\n    // about all course\r\n\r\n    // course id  Get the index of this course through course ID\r\n    function getIndexByCourseId(uint _courseId) public view returns(uint){\r\n        //   Find the course first\r\n        uint indexOfCourseID = 0;\r\n        for(uint i=1;i<=courseCounts;i++){\r\n            if(courseInfs[i].courseId == _courseId){\r\n                indexOfCourseID = i;\r\n                return indexOfCourseID;\r\n            }\r\n        }\r\n        return 0;\r\n    }\r\n\r\n    // course id\r\n    function getAllCourseId() public view returns(uint[] memory){\r\n        uint [] memory allCourseId_ = new uint[](courseCounts);\r\n        for(uint i=1;i<=courseCounts;i++){\r\n            allCourseId_[i-1] = courseInfs[i].courseId;\r\n        }\r\n        return allCourseId_;\r\n    }\r\n\r\n\r\n    // course id  Number of students who get course ID\r\n    function getcourseStudentCounts(uint _courseid) public view returns(uint courseStudentCounts_){\r\n        for(uint i=1;i<=courseCounts;i++){\r\n            if(courseInfs[i].courseId == _courseid){\r\n                return courseInfs[i].courseStudentCounts;\r\n            }\r\n        }\r\n    }\r\n\r\n/*\r\n    // course id\r\n    function getCourseStudentsByCourseId(uint _courseid) public view returns(address[] memory,uint[] memory){\r\n        // \r\n        uint courseIndex = getIndexByCourseId(_courseid);\r\n        // \r\n        uint courseStudentCounts_ = courseInfs[courseIndex].courseStudentCounts;\r\n\r\n        // \r\n        address[] memory stuAddressTemp = new address[](courseStudentCounts_); \r\n        uint[] memory stuGradeTemp = new uint[](courseStudentCounts_); \r\n\r\n        for(uint i=1;i<=courseStudentCounts_;i++){\r\n            stuAddressTemp[i-1] = courseInfs[courseIndex].courseStudents[i].stuBlockAddress;\r\n            stuGradeTemp[i-1] = courseInfs[courseIndex].courseStudents[i].stuGrade;\r\n        }\r\n        return (stuAddressTemp,stuGradeTemp);\r\n    }\r\n*/\r\n\r\n\r\n    // course id\r\n    function getCourseInfByCourseId(uint _courseid) public view returns(uint,string memory,address,uint){\r\n        // \r\n        uint courseIndex = getIndexByCourseId(_courseid);\r\n\r\n        // courseId_, courseName_,proBlockAddress_,courseStudentCounts_\r\n        uint courseId_ = courseInfs[courseIndex].courseId;          \r\n        string memory courseName_ = courseInfs[courseIndex].courseName;      \r\n        address proBlockAddress_ = courseInfs[courseIndex].proBlockAddress;\r\n        uint courseStudentCounts_ = courseInfs[courseIndex].courseStudentCounts;  \r\n\r\n        return (courseId_,courseName_,proBlockAddress_,courseStudentCounts_);\r\n    }\r\n\r\n    // course id\r\n    function getCourseStudentInfByCourseId(uint _courseid) public view returns(uint[] memory,string[] memory,address[] memory,uint[] memory){\r\n        // \r\n        uint courseIndex = getIndexByCourseId(_courseid);\r\n\r\n        // courseId_, courseName_,proBlockAddress_,courseStudentCounts_   \r\n        uint courseStudentCounts_ = courseInfs[courseIndex].courseStudentCounts;  \r\n\r\n        // course id\r\n        // \r\n        address[] memory stuAddressTemp = new address[](courseStudentCounts_); \r\n        uint[] memory stuIdTemp = new uint[](courseStudentCounts_); \r\n        string[] memory stuNameTemp = new string[](courseStudentCounts_); \r\n        uint[] memory stuGradeTemp = new uint[](courseStudentCounts_); \r\n\r\n        for(uint i=1;i<=courseStudentCounts_;i++){\r\n            stuAddressTemp[i-1] = courseInfs[courseIndex].courseStudents[i].stuBlockAddress;\r\n            stuIdTemp[i-1] = courseInfs[courseIndex].courseStudents[i].stuId;\r\n            stuNameTemp[i-1] = courseInfs[courseIndex].courseStudents[i].stuName;\r\n            stuGradeTemp[i-1] = courseInfs[courseIndex].courseStudents[i].stuGrade;\r\n        }\r\n\r\n        return (stuIdTemp,stuNameTemp,stuAddressTemp,stuGradeTemp);\r\n    }\r\n\r\n\r\n    // course idn  ,n,uint\r\n    function getTopStudentsByCourseId(uint _courseid,uint _getTops) public view returns(uint,uint[] memory,string[] memory,address[] memory,uint[] memory){\r\n        \r\n        // \r\n        uint getTops = _getTops;\r\n        // \r\n        uint gotGradeCounts = 0;\r\n        // \r\n        uint courseIndex = getIndexByCourseId(_courseid);\r\n        // courseId_, courseName_,proBlockAddress_,courseStudentCounts_\r\n        uint courseStudentCounts_ = courseInfs[courseIndex].courseStudentCounts;  \r\n        // \r\n        if(courseStudentCounts_ < getTops){\r\n            getTops = courseStudentCounts_;\r\n        }\r\n        \r\n        // \r\n        uint[] memory gradeOfStuGradeSort = new uint[](courseStudentCounts_);\r\n        //  gradeOfStuGradeSort ,\r\n        for(uint i=1;i<=courseStudentCounts_;i++){ // \r\n            if(courseInfs[courseIndex].courseStudents[i].stuGrade > 0){\r\n                gradeOfStuGradeSort[i-1] = courseInfs[courseIndex].courseStudents[i].stuGrade;\r\n                gotGradeCounts++;\r\n            }  \r\n        }\r\n\r\n        // \r\n        if(gotGradeCounts < getTops){\r\n            getTops = gotGradeCounts;\r\n        }\r\n\r\n        //  \r\n        for(uint i=0;i<gradeOfStuGradeSort.length;i++){ //  \r\n            for(uint j=1;j<gradeOfStuGradeSort.length;j++){ // \r\n                if(gradeOfStuGradeSort[j] > gradeOfStuGradeSort[j-1]){\r\n                    // \r\n                    uint temp = gradeOfStuGradeSort[j-1];\r\n                    gradeOfStuGradeSort[j-1] = gradeOfStuGradeSort[j];\r\n                    gradeOfStuGradeSort[j] = temp;\r\n                }\r\n            }\r\n        }\r\n        // course id\r\n        // \r\n        \r\n        address[] memory stuAddressTemp = new address[](getTops);\r\n        uint[] memory stuIdTemp = new uint[](getTops);  \r\n        string[] memory stuNameTemp = new string[](getTops);\r\n        uint[] memory stuGradeTemp = new uint[](getTops); \r\n\r\n        // indexOfStuGradeSort\r\n        //  \r\n        uint flag = 0;\r\n        for(uint i=0;i<gradeOfStuGradeSort.length;i++){ // \r\n            if(flag == getTops){ // \r\n                break;\r\n            }\r\n            // \r\n            stuGradeTemp[i] = gradeOfStuGradeSort[i];\r\n            // \r\n            for(uint j=1;j<=courseStudentCounts_;j++){ //  \r\n                if(stuGradeTemp[i] == courseInfs[courseIndex].courseStudents[j].stuGrade){\r\n                    stuIdTemp[i] = courseInfs[courseIndex].courseStudents[j].stuId;\r\n                    stuNameTemp[i] = courseInfs[courseIndex].courseStudents[j].stuName;\r\n                    stuAddressTemp[i] = courseInfs[courseIndex].courseStudents[j].stuBlockAddress;         \r\n                }\r\n            }\r\n            flag++;\r\n        }\r\n        return (getTops,stuIdTemp,stuNameTemp,stuAddressTemp,stuGradeTemp);\r\n    }\r\n\r\n\r\n\r\n\r\n    \r\n    // pro ///////////////////////////////////\r\n\r\n    // \r\n    function getCourseCountsByProAddress(address _proBlockAddress) public view returns(uint){\r\n        // proIndex\r\n        uint proIndex = getProfessorIndexByAddress(_proBlockAddress);\r\n        return professorSelfs[proIndex].myProCourses.length;\r\n\r\n    }\r\n\r\n    // proAddressid   Get an array of all course IDs opened by a teacher through proAddress\r\n    function getCourseIdByProAddress(address _proBlockAddress) public view returns(uint[] memory){\r\n        // proIndex\r\n        uint proIndex = getProfessorIndexByAddress(_proBlockAddress);\r\n        // \r\n        uint courseLens = getCourseCountsByProAddress(_proBlockAddress);\r\n        // \r\n        uint[] memory myProCoursesTemp = new uint[](courseLens); \r\n\r\n        for(uint i=0;i<courseLens;i++){\r\n            myProCoursesTemp[i] = professorSelfs[proIndex].myProCourses[i];\r\n        }\r\n        return myProCoursesTemp;\r\n    }\r\n\r\n    \r\n    // stu ////////////////////////////////\r\n/*\r\n    // \r\n    function getCourseCountsByStuAddress(address _stuBlockAddress) public view returns(uint){\r\n        // stuIndex\r\n        uint stuIndex = getStudentIndexByAddress(_stuBlockAddress);\r\n        return studentSelfs[stuIndex].myStuCourses.length;\r\n\r\n    }\r\n\r\n    // stuAddressid   Get an array of all course IDs opened by a student through stuAddress\r\n    function getCourseIdByStuAddress(address _stuBlockAddress) public view returns(uint[] memory){\r\n        // stuIndex\r\n        uint stuIndex = getStudentIndexByAddress(_stuBlockAddress);\r\n        // \r\n        uint courseLens = getCourseCountsByStuAddress(_stuBlockAddress);\r\n        // \r\n        uint[] memory myStuCoursesTemp = new uint[](courseLens); \r\n\r\n        for(uint i=0;i<courseLens;i++){\r\n            myStuCoursesTemp[i] = studentSelfs[stuIndex].myStuCourses[i];\r\n        }\r\n        return myStuCoursesTemp;\r\n    }\r\n*/\r\n    \r\n\r\n\r\n//////////////////////////////////////////////////////////////  \r\n//////////////////////////////////////////////////////////////  \r\n///////////////////////////////   4.3. check function\r\n/*\r\n    // id      Verify that this ID has been used\r\n    function checkIdExisted(uint _id) internal view returns(bool){\r\n        for(uint i=1;i<=adminCounts;i++){\r\n            if(adminSelfs[i].adminId == _id)\r\n                return true;\r\n        }\r\n        for(uint i=1;i<=professorCounts;i++){\r\n            if(professorSelfs[i].proId == _id)\r\n                return true;\r\n        }\r\n        for(uint i=1;i<=studentCounts;i++){\r\n            if(studentSelfs[i].stuId == _id)\r\n                return true;\r\n        }\r\n        return false; // \r\n    }\r\n*/    \r\n    \r\n    // address  Verify that this address has been used\r\n    function checkAddressExisted(address _address) internal view returns(bool){\r\n        for(uint i=1;i<=adminCounts;i++){\r\n            if(adminSelfs[i].adminBlockAddress == _address)\r\n                return true;\r\n        }\r\n        for(uint i=1;i<=professorCounts;i++){\r\n            if(professorSelfs[i].proBlockAddress == _address)\r\n                return true;\r\n        }\r\n        for(uint i=1;i<=studentCounts;i++){\r\n            if(studentSelfs[i].stuBlockAddress == _address)\r\n                return true;\r\n        }\r\n        return false; // \r\n    }\r\n\r\n\r\n    ////// check course /////////////////\r\n\r\n    // \r\n    function checkCourseCanApply(uint _courseId) internal view returns(bool){\r\n        //  find this course\r\n        for(uint i=1;i<=courseCounts;i++){\r\n            if(courseInfs[i].courseId == _courseId){\r\n                if(courseInfs[i].canApply == true){\r\n                    return true;\r\n                }\r\n            }\r\n        }\r\n        return false;\r\n    }\r\n\r\n    // course id   Check whether this course exists through course ID\r\n    function checkCourseExisted(uint _courseId) internal view returns(bool){\r\n        //  find this course\r\n        for(uint i=1;i<=courseCounts;i++){\r\n            if(courseInfs[i].courseId == _courseId){\r\n                return true;\r\n            }\r\n        }\r\n        return false;\r\n    }\r\n\r\n/* \r\n    // courseidproBlockAddress\r\n    // Check whether the professor has this course through courseid and proid\r\n    function checkCourseHeldByProBlockAddress(uint _courseId,address _proBlockAddress) internal view returns(bool){\r\n        for(uint i=1;i<=professorCounts;i++){\r\n            //   Find the corresponding Professor first\r\n            if(professorSelfs[i].proBlockAddress == _proBlockAddress){\r\n                // proBlockAddressmyProCoursescourseId\r\n                // Check whether the corresponding courseid exists in the myprocourses array under this proid\r\n                for(uint k=0;k<=professorSelfs[i].myProCourses.length;k++){\r\n                    if(professorSelfs[i].myProCourses[k] == _courseId){\r\n                        return true;\r\n                    }\r\n                }\r\n            }\r\n        }\r\n        return false;\r\n    }\r\n*/    \r\n    \r\n    // courseId,stuId \r\n    // Check whether students have this course through courseid and stuid\r\n    function checkCourseHeldByStuBlockAddress(uint _courseId,address _stuBlockAddress) internal view returns(bool){\r\n        for(uint i=1;i<=studentCounts;i++){\r\n            //   Find the corresponding student first\r\n            if(studentSelfs[i].stuBlockAddress == _stuBlockAddress){\r\n                // stuBlockAddressmyStuCoursescourseId\r\n                // Check whether the corresponding courseid exists in the mystucourses array under this stuid\r\n                for(uint k=0;k<=studentSelfs[i].myStuCourses.length;k++){\r\n                    if(studentSelfs[i].myStuCourses[k] == _courseId){\r\n                        return true;\r\n                    }\r\n                }\r\n            }\r\n        }\r\n        return false;\r\n    }\r\n    \r\n\r\n\r\n\r\n\r\n///////////test\r\n///////////test\r\n///////////test\r\n// test\r\n    // course id\r\n    function getCourseStudentNameByCourseId(uint _courseid) public view returns(string[] memory){\r\n        // \r\n        uint courseIndex = getIndexByCourseId(_courseid);\r\n        // courseId_, courseName_,proBlockAddress_,courseStudentCounts_   \r\n        uint courseStudentCounts_ = courseInfs[courseIndex].courseStudentCounts;  \r\n        // course id\r\n        // \r\n        string[] memory stuNameTemp = new string[](courseStudentCounts_); \r\n        for(uint i=1;i<=courseStudentCounts_;i++){\r\n            stuNameTemp[i-1] = courseInfs[courseIndex].courseStudents[i].stuName;\r\n        }\r\n        return stuNameTemp;\r\n    }\r\n\r\n\r\n\r\n\r\n}\r\n\r\n",
  "sourcePath": "D:\\UNIV\\year 4\\capstone\\scouter2\\contracts\\StructAndModifiers.sol",
  "compiler": {
    "name": "solc",
    "version": "0.8.7+commit.e28d00a7.Emscripten.clang"
  },
  "schemaVersion": "3.4.3",
  "updatedAt": "2021-12-04T11:58:03.977Z",
  "devdoc": {
    "kind": "dev",
    "methods": {},
    "version": 1
  },
  "userdoc": {
    "kind": "user",
    "methods": {},
    "version": 1
  }
}