{
  "contractName": "StructAndModifiers",
  "abi": [
    {
      "inputs": [],
      "stateMutability": "nonpayable",
      "type": "constructor"
    },
    {
      "inputs": [],
      "name": "adminCounts",
      "outputs": [
        {
          "internalType": "uint256",
          "name": "",
          "type": "uint256"
        }
      ],
      "stateMutability": "view",
      "type": "function"
    },
    {
      "inputs": [
        {
          "internalType": "uint256",
          "name": "",
          "type": "uint256"
        }
      ],
      "name": "adminSelfs",
      "outputs": [
        {
          "internalType": "uint256",
          "name": "adminId",
          "type": "uint256"
        },
        {
          "internalType": "string",
          "name": "adminName",
          "type": "string"
        },
        {
          "internalType": "address",
          "name": "adminBlockAddress",
          "type": "address"
        },
        {
          "internalType": "uint256",
          "name": "adminAuthorization",
          "type": "uint256"
        }
      ],
      "stateMutability": "view",
      "type": "function"
    },
    {
      "inputs": [],
      "name": "courseCounts",
      "outputs": [
        {
          "internalType": "uint256",
          "name": "",
          "type": "uint256"
        }
      ],
      "stateMutability": "view",
      "type": "function"
    },
    {
      "inputs": [
        {
          "internalType": "uint256",
          "name": "",
          "type": "uint256"
        }
      ],
      "name": "courseInfs",
      "outputs": [
        {
          "internalType": "uint256",
          "name": "courseId",
          "type": "uint256"
        },
        {
          "internalType": "string",
          "name": "courseName",
          "type": "string"
        },
        {
          "internalType": "address",
          "name": "proBlockAddress",
          "type": "address"
        },
        {
          "internalType": "bool",
          "name": "canApply",
          "type": "bool"
        },
        {
          "internalType": "uint256",
          "name": "courseStudentCounts",
          "type": "uint256"
        }
      ],
      "stateMutability": "view",
      "type": "function"
    },
    {
      "inputs": [],
      "name": "modifiersOwner",
      "outputs": [
        {
          "internalType": "address",
          "name": "",
          "type": "address"
        }
      ],
      "stateMutability": "view",
      "type": "function"
    },
    {
      "inputs": [],
      "name": "professorCounts",
      "outputs": [
        {
          "internalType": "uint256",
          "name": "",
          "type": "uint256"
        }
      ],
      "stateMutability": "view",
      "type": "function"
    },
    {
      "inputs": [
        {
          "internalType": "uint256",
          "name": "",
          "type": "uint256"
        }
      ],
      "name": "professorSelfs",
      "outputs": [
        {
          "internalType": "uint256",
          "name": "proId",
          "type": "uint256"
        },
        {
          "internalType": "string",
          "name": "proName",
          "type": "string"
        },
        {
          "internalType": "address",
          "name": "proBlockAddress",
          "type": "address"
        },
        {
          "internalType": "uint256",
          "name": "proAuthorization",
          "type": "uint256"
        },
        {
          "internalType": "uint256",
          "name": "isTeachingPeopleSum",
          "type": "uint256"
        }
      ],
      "stateMutability": "view",
      "type": "function"
    },
    {
      "inputs": [],
      "name": "studentCounts",
      "outputs": [
        {
          "internalType": "uint256",
          "name": "",
          "type": "uint256"
        }
      ],
      "stateMutability": "view",
      "type": "function"
    },
    {
      "inputs": [
        {
          "internalType": "uint256",
          "name": "",
          "type": "uint256"
        }
      ],
      "name": "studentSelfs",
      "outputs": [
        {
          "internalType": "uint256",
          "name": "stuId",
          "type": "uint256"
        },
        {
          "internalType": "string",
          "name": "stuName",
          "type": "string"
        },
        {
          "internalType": "address",
          "name": "stuBlockAddress",
          "type": "address"
        },
        {
          "internalType": "uint256",
          "name": "stuAuthorization",
          "type": "uint256"
        },
        {
          "internalType": "uint256",
          "name": "isLearningSum",
          "type": "uint256"
        }
      ],
      "stateMutability": "view",
      "type": "function"
    },
    {
      "inputs": [
        {
          "internalType": "address",
          "name": "_address",
          "type": "address"
        }
      ],
      "name": "getIdByAddress",
      "outputs": [
        {
          "internalType": "uint256",
          "name": "",
          "type": "uint256"
        }
      ],
      "stateMutability": "view",
      "type": "function"
    },
    {
      "inputs": [
        {
          "internalType": "uint256",
          "name": "_stuId",
          "type": "uint256"
        }
      ],
      "name": "getStuAddressByStuId",
      "outputs": [
        {
          "internalType": "address",
          "name": "",
          "type": "address"
        }
      ],
      "stateMutability": "view",
      "type": "function"
    },
    {
      "inputs": [
        {
          "internalType": "address",
          "name": "_address",
          "type": "address"
        }
      ],
      "name": "getAuthorizationByAddress",
      "outputs": [
        {
          "internalType": "uint256",
          "name": "",
          "type": "uint256"
        }
      ],
      "stateMutability": "view",
      "type": "function"
    },
    {
      "inputs": [
        {
          "internalType": "address",
          "name": "_adminBlockAddress",
          "type": "address"
        }
      ],
      "name": "getAdminIndexByAddress",
      "outputs": [
        {
          "internalType": "uint256",
          "name": "",
          "type": "uint256"
        }
      ],
      "stateMutability": "view",
      "type": "function"
    },
    {
      "inputs": [
        {
          "internalType": "address",
          "name": "_proBlockAddress",
          "type": "address"
        }
      ],
      "name": "getProfessorIndexByAddress",
      "outputs": [
        {
          "internalType": "uint256",
          "name": "",
          "type": "uint256"
        }
      ],
      "stateMutability": "view",
      "type": "function"
    },
    {
      "inputs": [
        {
          "internalType": "address",
          "name": "_proBlockAddress",
          "type": "address"
        }
      ],
      "name": "getProfessorInfByProAddress",
      "outputs": [
        {
          "internalType": "uint256",
          "name": "",
          "type": "uint256"
        },
        {
          "internalType": "string",
          "name": "",
          "type": "string"
        },
        {
          "internalType": "address",
          "name": "",
          "type": "address"
        },
        {
          "internalType": "uint256",
          "name": "",
          "type": "uint256"
        },
        {
          "internalType": "uint256[]",
          "name": "",
          "type": "uint256[]"
        }
      ],
      "stateMutability": "view",
      "type": "function"
    },
    {
      "inputs": [],
      "name": "getAllProfessorAddress",
      "outputs": [
        {
          "internalType": "address[]",
          "name": "",
          "type": "address[]"
        }
      ],
      "stateMutability": "view",
      "type": "function"
    },
    {
      "inputs": [
        {
          "internalType": "address",
          "name": "_stuBlockAddress",
          "type": "address"
        }
      ],
      "name": "getStudentIndexByAddress",
      "outputs": [
        {
          "internalType": "uint256",
          "name": "",
          "type": "uint256"
        }
      ],
      "stateMutability": "view",
      "type": "function"
    },
    {
      "inputs": [
        {
          "internalType": "address",
          "name": "_stuBlockAddress",
          "type": "address"
        }
      ],
      "name": "getStudentInfByStuAddress",
      "outputs": [
        {
          "internalType": "uint256",
          "name": "",
          "type": "uint256"
        },
        {
          "internalType": "string",
          "name": "",
          "type": "string"
        },
        {
          "internalType": "address",
          "name": "",
          "type": "address"
        },
        {
          "internalType": "uint256",
          "name": "",
          "type": "uint256"
        },
        {
          "internalType": "uint256[]",
          "name": "",
          "type": "uint256[]"
        }
      ],
      "stateMutability": "view",
      "type": "function"
    },
    {
      "inputs": [],
      "name": "getAllStudentAddress",
      "outputs": [
        {
          "internalType": "address[]",
          "name": "",
          "type": "address[]"
        }
      ],
      "stateMutability": "view",
      "type": "function"
    },
    {
      "inputs": [
        {
          "internalType": "uint256",
          "name": "_courseId",
          "type": "uint256"
        }
      ],
      "name": "getIndexByCourseId",
      "outputs": [
        {
          "internalType": "uint256",
          "name": "",
          "type": "uint256"
        }
      ],
      "stateMutability": "view",
      "type": "function"
    },
    {
      "inputs": [],
      "name": "getAllCourseId",
      "outputs": [
        {
          "internalType": "uint256[]",
          "name": "",
          "type": "uint256[]"
        }
      ],
      "stateMutability": "view",
      "type": "function"
    },
    {
      "inputs": [
        {
          "internalType": "uint256",
          "name": "_courseid",
          "type": "uint256"
        }
      ],
      "name": "getcourseStudentCounts",
      "outputs": [
        {
          "internalType": "uint256",
          "name": "courseStudentCounts_",
          "type": "uint256"
        }
      ],
      "stateMutability": "view",
      "type": "function"
    },
    {
      "inputs": [
        {
          "internalType": "uint256",
          "name": "_courseid",
          "type": "uint256"
        }
      ],
      "name": "getCourseInfByCourseId",
      "outputs": [
        {
          "internalType": "uint256",
          "name": "",
          "type": "uint256"
        },
        {
          "internalType": "string",
          "name": "",
          "type": "string"
        },
        {
          "internalType": "address",
          "name": "",
          "type": "address"
        },
        {
          "internalType": "uint256",
          "name": "",
          "type": "uint256"
        }
      ],
      "stateMutability": "view",
      "type": "function"
    },
    {
      "inputs": [
        {
          "internalType": "uint256",
          "name": "_courseid",
          "type": "uint256"
        }
      ],
      "name": "getCourseStudentInfByCourseId",
      "outputs": [
        {
          "internalType": "address[]",
          "name": "",
          "type": "address[]"
        },
        {
          "internalType": "string[]",
          "name": "",
          "type": "string[]"
        },
        {
          "internalType": "uint256[]",
          "name": "",
          "type": "uint256[]"
        }
      ],
      "stateMutability": "view",
      "type": "function"
    },
    {
      "inputs": [
        {
          "internalType": "uint256",
          "name": "_courseid",
          "type": "uint256"
        },
        {
          "internalType": "uint256",
          "name": "_getTops",
          "type": "uint256"
        }
      ],
      "name": "getTopStudentsByCourseId",
      "outputs": [
        {
          "internalType": "uint256",
          "name": "",
          "type": "uint256"
        },
        {
          "internalType": "address[]",
          "name": "",
          "type": "address[]"
        },
        {
          "internalType": "string[]",
          "name": "",
          "type": "string[]"
        },
        {
          "internalType": "uint256[]",
          "name": "",
          "type": "uint256[]"
        }
      ],
      "stateMutability": "view",
      "type": "function"
    },
    {
      "inputs": [
        {
          "internalType": "address",
          "name": "_proBlockAddress",
          "type": "address"
        }
      ],
      "name": "getCourseCountsByProAddress",
      "outputs": [
        {
          "internalType": "uint256",
          "name": "",
          "type": "uint256"
        }
      ],
      "stateMutability": "view",
      "type": "function"
    },
    {
      "inputs": [
        {
          "internalType": "address",
          "name": "_proBlockAddress",
          "type": "address"
        }
      ],
      "name": "getCourseIdByProAddress",
      "outputs": [
        {
          "internalType": "uint256[]",
          "name": "",
          "type": "uint256[]"
        }
      ],
      "stateMutability": "view",
      "type": "function"
    },
    {
      "inputs": [
        {
          "internalType": "address",
          "name": "_stuBlockAddress",
          "type": "address"
        }
      ],
      "name": "getCourseCountsByStuAddress",
      "outputs": [
        {
          "internalType": "uint256",
          "name": "",
          "type": "uint256"
        }
      ],
      "stateMutability": "view",
      "type": "function"
    },
    {
      "inputs": [
        {
          "internalType": "address",
          "name": "_stuBlockAddress",
          "type": "address"
        }
      ],
      "name": "getCourseIdByStuAddress",
      "outputs": [
        {
          "internalType": "uint256[]",
          "name": "",
          "type": "uint256[]"
        }
      ],
      "stateMutability": "view",
      "type": "function"
    },
    {
      "inputs": [
        {
          "internalType": "uint256",
          "name": "_courseid",
          "type": "uint256"
        }
      ],
      "name": "getCourseStudentNameByCourseId",
      "outputs": [
        {
          "internalType": "string[]",
          "name": "",
          "type": "string[]"
        }
      ],
      "stateMutability": "view",
      "type": "function"
    }
  ],
  "bytecode": "0x608060405260006001556000600355600060055560006007553480156200002557600080fd5b50336000806101000a81548173ffffffffffffffffffffffffffffffffffffffff021916908373ffffffffffffffffffffffffffffffffffffffff1602179055506040518060800160405280600181526020016040518060400160405280600481526020017f526f6f7400000000000000000000000000000000000000000000000000000000815250815260200160008054906101000a900473ffffffffffffffffffffffffffffffffffffffff1673ffffffffffffffffffffffffffffffffffffffff1681526020016003815250600260006001815260200190815260200160002060008201518160000155602082015181600101908051906020019062000130929190620001a5565b5060408201518160020160006101000a81548173ffffffffffffffffffffffffffffffffffffffff021916908373ffffffffffffffffffffffffffffffffffffffff16021790555060608201518160030155905050600160008154809291906200019a9062000295565b919050555062000341565b828054620001b3906200025f565b90600052602060002090601f016020900481019282620001d7576000855562000223565b82601f10620001f257805160ff191683800117855562000223565b8280016001018555821562000223579182015b828111156200022257825182559160200191906001019062000205565b5b50905062000232919062000236565b5090565b5b808211156200025157600081600090555060010162000237565b5090565b6000819050919050565b600060028204905060018216806200027857607f821691505b602082108114156200028f576200028e62000312565b5b50919050565b6000620002a28262000255565b91507fffffffffffffffffffffffffffffffffffffffffffffffffffffffffffffffff821415620002d857620002d7620002e3565b5b600182019050919050565b7f4e487b7100000000000000000000000000000000000000000000000000000000600052601160045260246000fd5b7f4e487b7100000000000000000000000000000000000000000000000000000000600052602260045260246000fd5b612e5a80620003516000396000f3fe608060405234801561001057600080fd5b50600436106101d95760003560e01c80636b8a2c4f11610104578063a5cc464d116100a2578063f7d9394d11610071578063f7d9394d1461067f578063fb3189e81461069d578063fb6b990a146106bb578063fc0c1f39146106ef576101d9565b8063a5cc464d146105d1578063ad9e42d914610601578063dff3b49714610631578063f6aa09e414610661576101d9565b806394e48ece116100de57806394e48ece14610532578063982203be1461056557806398aede55146105955780639fde0943146105b3576101d9565b80636b8a2c4f146104b45780637860a069146104e457806390eab7a214610502576101d9565b80632454a9391161017c5780634d64e5ee1161014b5780634d64e5ee146103ea57806358a420651461041e5780635e719a4914610452578063606870da14610482576101d9565b80632454a939146103275780632f02ca0b1461035757806330e94711146103875780634d4fb0d7146103ba576101d9565b80630d69951d116101b85780630d69951d146102765780630e3bfd6c146102a657806310d756dd146102c45780631643c8db146102f4576101d9565b80624255a6146101de578063043022fa146102125780630c1596b414610246575b600080fd5b6101f860048036038101906101f391906125e0565b61070d565b604051610209959493929190612ac8565b60405180910390f35b61022c600480360381019061022791906125e0565b6107eb565b60405161023d9594939291906129c1565b60405180910390f35b610260600480360381019061025b91906125b3565b6108d6565b60405161026d919061292a565b60405180910390f35b610290600480360381019061028b91906125b3565b6109bb565b60405161029d919061292a565b60405180910390f35b6102ae610aa0565b6040516102bb919061294c565b60405180910390f35b6102de60048036038101906102d991906125b3565b610aa6565b6040516102eb919061294c565b60405180910390f35b61030e600480360381019061030991906125e0565b610b48565b60405161031e9493929190612a1b565b60405180910390f35b610341600480360381019061033c91906125b3565b610c20565b60405161034e919061294c565b60405180910390f35b610371600480360381019061036c91906125b3565b610cc2565b60405161037e919061294c565b60405180910390f35b6103a1600480360381019061039c91906125e0565b610cf2565b6040516103b19493929190612a1b565b60405180910390f35b6103d460048036038101906103cf91906125b3565b610e32565b6040516103e1919061294c565b60405180910390f35b61040460048036038101906103ff91906125e0565b610e62565b604051610415959493929190612ac8565b60405180910390f35b610438600480360381019061043391906125b3565b610f40565b604051610449959493929190612a67565b60405180910390f35b61046c600480360381019061046791906125e0565b611095565b604051610479919061294c565b60405180910390f35b61049c600480360381019061049791906125e0565b6110fd565b6040516104ab939291906128bc565b60405180910390f35b6104ce60048036038101906104c991906125e0565b611424565b6040516104db9190612908565b60405180910390f35b6104ec6115aa565b6040516104f9919061294c565b60405180910390f35b61051c600480360381019061051791906125b3565b6115b0565b604051610529919061294c565b60405180910390f35b61054c6004803603810190610547919061260d565b6117c2565b60405161055c9493929190612967565b60405180910390f35b61057f600480360381019061057a91906125e0565b611d8d565b60405161058c919061287f565b60405180910390f35b61059d611e19565b6040516105aa919061287f565b60405180910390f35b6105bb611e3d565b6040516105c8919061289a565b60405180910390f35b6105eb60048036038101906105e691906125b3565b611f49565b6040516105f8919061294c565b60405180910390f35b61061b600480360381019061061691906125e0565b611feb565b604051610628919061294c565b60405180910390f35b61064b600480360381019061064691906125b3565b61204c565b604051610658919061294c565b60405180910390f35b61066961225e565b604051610676919061292a565b60405180910390f35b61068761231c565b604051610694919061289a565b60405180910390f35b6106a5612428565b6040516106b2919061294c565b60405180910390f35b6106d560048036038101906106d091906125b3565b61242e565b6040516106e6959493929190612a67565b60405180910390f35b6106f7612583565b604051610704919061294c565b60405180910390f35b600660205280600052604060002060009150905080600001549080600101805461073690612ca9565b80601f016020809104026020016040519081016040528092919081815260200182805461076290612ca9565b80156107af5780601f10610784576101008083540402835291602001916107af565b820191906000526020600020905b81548152906001019060200180831161079257829003601f168201915b5050505050908060020160009054906101000a900473ffffffffffffffffffffffffffffffffffffffff16908060030154908060050154905085565b600860205280600052604060002060009150905080600001549080600101805461081490612ca9565b80601f016020809104026020016040519081016040528092919081815260200182805461084090612ca9565b801561088d5780601f106108625761010080835404028352916020019161088d565b820191906000526020600020905b81548152906001019060200180831161087057829003601f168201915b5050505050908060020160009054906101000a900473ffffffffffffffffffffffffffffffffffffffff16908060020160149054906101000a900460ff16908060030154905085565b606060006108e383611f49565b905060006108f084610e32565b905060008167ffffffffffffffff81111561090e5761090d612db1565b5b60405190808252806020026020018201604052801561093c5781602001602082028036833780820191505090505b50905060005b828110156109af5760046000858152602001908152602001600020600401818154811061097257610971612d82565b5b90600052602060002001548282815181106109905761098f612d82565b5b60200260200101818152505080806109a790612cdb565b915050610942565b50809350505050919050565b606060006109c883610c20565b905060006109d584610cc2565b905060008167ffffffffffffffff8111156109f3576109f2612db1565b5b604051908082528060200260200182016040528015610a215781602001602082028036833780820191505090505b50905060005b82811015610a9457600660008581526020019081526020016000206004018181548110610a5757610a56612d82565b5b9060005260206000200154828281518110610a7557610a74612d82565b5b6020026020010181815250508080610a8c90612cdb565b915050610a27565b50809350505050919050565b60075481565b600080600190505b6001548111610b3d578273ffffffffffffffffffffffffffffffffffffffff166002600083815260200190815260200160002060020160009054906101000a900473ffffffffffffffffffffffffffffffffffffffff1673ffffffffffffffffffffffffffffffffffffffff161415610b2a5780915050610b43565b8080610b3590612cdb565b915050610aae565b50600090505b919050565b6002602052806000526040600020600091509050806000015490806001018054610b7190612ca9565b80601f0160208091040260200160405190810160405280929190818152602001828054610b9d90612ca9565b8015610bea5780601f10610bbf57610100808354040283529160200191610bea565b820191906000526020600020905b815481529060010190602001808311610bcd57829003601f168201915b5050505050908060020160009054906101000a900473ffffffffffffffffffffffffffffffffffffffff16908060030154905084565b600080600190505b6005548111610cb7578273ffffffffffffffffffffffffffffffffffffffff166006600083815260200190815260200160002060020160009054906101000a900473ffffffffffffffffffffffffffffffffffffffff1673ffffffffffffffffffffffffffffffffffffffff161415610ca45780915050610cbd565b8080610caf90612cdb565b915050610c28565b50600090505b919050565b600080610cce83610c20565b90506006600082815260200190815260200160002060040180549050915050919050565b600060606000806000610d0486611feb565b90506000600860008381526020019081526020016000206000015490506000600860008481526020019081526020016000206001018054610d4490612ca9565b80601f0160208091040260200160405190810160405280929190818152602001828054610d7090612ca9565b8015610dbd5780601f10610d9257610100808354040283529160200191610dbd565b820191906000526020600020905b815481529060010190602001808311610da057829003601f168201915b5050505050905060006008600085815260200190815260200160002060020160009054906101000a900473ffffffffffffffffffffffffffffffffffffffff16905060006008600086815260200190815260200160002060030154905083838383985098509850985050505050509193509193565b600080610e3e83611f49565b90506004600082815260200190815260200160002060040180549050915050919050565b6004602052806000526040600020600091509050806000015490806001018054610e8b90612ca9565b80601f0160208091040260200160405190810160405280929190818152602001828054610eb790612ca9565b8015610f045780601f10610ed957610100808354040283529160200191610f04565b820191906000526020600020905b815481529060010190602001808311610ee757829003601f168201915b5050505050908060020160009054906101000a900473ffffffffffffffffffffffffffffffffffffffff16908060030154908060050154905085565b6000606060008060606000610f5487610c20565b90506000600660008381526020019081526020016000206000015490506000600660008481526020019081526020016000206001018054610f9490612ca9565b80601f0160208091040260200160405190810160405280929190818152602001828054610fc090612ca9565b801561100d5780601f10610fe25761010080835404028352916020019161100d565b820191906000526020600020905b815481529060010190602001808311610ff057829003601f168201915b5050505050905060006006600085815260200190815260200160002060020160009054906101000a900473ffffffffffffffffffffffffffffffffffffffff16905060006006600086815260200190815260200160002060030154905060006110758c6109bb565b905084848484849a509a509a509a509a5050505050505091939590929450565b600080600190505b60075481116110f65782600860008381526020019081526020016000206000015414156110e35760086000828152602001908152602001600020600301549150506110f8565b80806110ee90612cdb565b91505061109d565b505b919050565b6060806060600061110d85611feb565b905060006008600083815260200190815260200160002060030154905060008167ffffffffffffffff81111561114657611145612db1565b5b6040519080825280602002602001820160405280156111745781602001602082028036833780820191505090505b50905060008267ffffffffffffffff81111561119357611192612db1565b5b6040519080825280602002602001820160405280156111c657816020015b60608152602001906001900390816111b15790505b50905060008367ffffffffffffffff8111156111e5576111e4612db1565b5b6040519080825280602002602001820160405280156112135781602001602082028036833780820191505090505b5090506000600190505b84811161140e5760086000878152602001908152602001600020600401600082815260200190815260200160002060000160009054906101000a900473ffffffffffffffffffffffffffffffffffffffff168460018361127d9190612bfa565b8151811061128e5761128d612d82565b5b602002602001019073ffffffffffffffffffffffffffffffffffffffff16908173ffffffffffffffffffffffffffffffffffffffff168152505060086000878152602001908152602001600020600401600082815260200190815260200160002060010180546112fd90612ca9565b80601f016020809104026020016040519081016040528092919081815260200182805461132990612ca9565b80156113765780601f1061134b57610100808354040283529160200191611376565b820191906000526020600020905b81548152906001019060200180831161135957829003601f168201915b5050505050836001836113899190612bfa565b8151811061139a57611399612d82565b5b602002602001018190525060086000878152602001908152602001600020600401600082815260200190815260200160002060020154826001836113de9190612bfa565b815181106113ef576113ee612d82565b5b602002602001018181525050808061140690612cdb565b91505061121d565b5082828297509750975050505050509193909250565b6060600061143183611feb565b905060006008600083815260200190815260200160002060030154905060008167ffffffffffffffff81111561146a57611469612db1565b5b60405190808252806020026020018201604052801561149d57816020015b60608152602001906001900390816114885790505b5090506000600190505b82811161159e5760086000858152602001908152602001600020600401600082815260200190815260200160002060010180546114e390612ca9565b80601f016020809104026020016040519081016040528092919081815260200182805461150f90612ca9565b801561155c5780601f106115315761010080835404028352916020019161155c565b820191906000526020600020905b81548152906001019060200180831161153f57829003601f168201915b50505050508260018361156f9190612bfa565b815181106115805761157f612d82565b5b6020026020010181905250808061159690612cdb565b9150506114a7565b50809350505050919050565b60035481565b600080600190505b600154811161165d578273ffffffffffffffffffffffffffffffffffffffff166002600083815260200190815260200160002060020160009054906101000a900473ffffffffffffffffffffffffffffffffffffffff1673ffffffffffffffffffffffffffffffffffffffff16141561164a5760026000828152602001908152602001600020600301549150506117bd565b808061165590612cdb565b9150506115b8565b506000600190505b600354811161170a578273ffffffffffffffffffffffffffffffffffffffff166004600083815260200190815260200160002060020160009054906101000a900473ffffffffffffffffffffffffffffffffffffffff1673ffffffffffffffffffffffffffffffffffffffff1614156116f75760046000828152602001908152602001600020600301549150506117bd565b808061170290612cdb565b915050611665565b506000600190505b60055481116117b7578273ffffffffffffffffffffffffffffffffffffffff166006600083815260200190815260200160002060020160009054906101000a900473ffffffffffffffffffffffffffffffffffffffff1673ffffffffffffffffffffffffffffffffffffffff1614156117a45760066000828152602001908152602001600020600301549150506117bd565b80806117af90612cdb565b915050611712565b50600090505b919050565b6000606080606060008590506000806117da89611feb565b905060006008600083815260200190815260200160002060030154905083811015611803578093505b60008167ffffffffffffffff81111561181f5761181e612db1565b5b60405190808252806020026020018201604052801561184d5781602001602082028036833780820191505090505b5090506000600190505b8281116119095760006008600086815260200190815260200160002060040160008381526020019081526020016000206002015411156118f65760086000858152602001908152602001600020600401600082815260200190815260200160002060020154826001836118ca9190612bfa565b815181106118db576118da612d82565b5b60200260200101818152505084806118f290612cdb565b9550505b808061190190612cdb565b915050611857565b5084841015611916578394505b60005b8151811015611a34576000600190505b8251811015611a2057826001826119409190612bfa565b8151811061195157611950612d82565b5b602002602001015183828151811061196c5761196b612d82565b5b60200260200101511115611a0d5760008360018361198a9190612bfa565b8151811061199b5761199a612d82565b5b602002602001015190508382815181106119b8576119b7612d82565b5b6020026020010151846001846119ce9190612bfa565b815181106119df576119de612d82565b5b602002602001018181525050808483815181106119ff576119fe612d82565b5b602002602001018181525050505b8080611a1890612cdb565b915050611929565b508080611a2c90612cdb565b915050611919565b5060008567ffffffffffffffff811115611a5157611a50612db1565b5b604051908082528060200260200182016040528015611a7f5781602001602082028036833780820191505090505b50905060008667ffffffffffffffff811115611a9e57611a9d612db1565b5b604051908082528060200260200182016040528015611ad157816020015b6060815260200190600190039081611abc5790505b50905060008767ffffffffffffffff811115611af057611aef612db1565b5b604051908082528060200260200182016040528015611b1e5781602001602082028036833780820191505090505b5090506000805b8551811015611d6e5789821415611b3b57611d6e565b858181518110611b4e57611b4d612d82565b5b6020026020010151838281518110611b6957611b68612d82565b5b6020026020010181815250506000600190505b878111611d4c57600860008a8152602001908152602001600020600401600082815260200190815260200160002060020154848381518110611bc157611bc0612d82565b5b60200260200101511415611d3957600860008a815260200190815260200160002060040160008281526020019081526020016000206001018054611c0490612ca9565b80601f0160208091040260200160405190810160405280929190818152602001828054611c3090612ca9565b8015611c7d5780601f10611c5257610100808354040283529160200191611c7d565b820191906000526020600020905b815481529060010190602001808311611c6057829003601f168201915b5050505050858381518110611c9557611c94612d82565b5b6020026020010181905250600860008a8152602001908152602001600020600401600082815260200190815260200160002060000160009054906101000a900473ffffffffffffffffffffffffffffffffffffffff16868381518110611cfe57611cfd612d82565b5b602002602001019073ffffffffffffffffffffffffffffffffffffffff16908173ffffffffffffffffffffffffffffffffffffffff16815250505b8080611d4490612cdb565b915050611b7c565b508180611d5890612cdb565b9250508080611d6690612cdb565b915050611b25565b50888484849c509c509c509c5050505050505050505092959194509250565b600080600190505b6005548111611e0e578260066000838152602001908152602001600020600001541415611dfb576006600082815260200190815260200160002060020160009054906101000a900473ffffffffffffffffffffffffffffffffffffffff16915050611e14565b8080611e0690612cdb565b915050611d95565b50600090505b919050565b60008054906101000a900473ffffffffffffffffffffffffffffffffffffffff1681565b6060600060055467ffffffffffffffff811115611e5d57611e5c612db1565b5b604051908082528060200260200182016040528015611e8b5781602001602082028036833780820191505090505b5090506000600190505b6005548111611f41576006600082815260200190815260200160002060020160009054906101000a900473ffffffffffffffffffffffffffffffffffffffff1682600183611ee39190612bfa565b81518110611ef457611ef3612d82565b5b602002602001019073ffffffffffffffffffffffffffffffffffffffff16908173ffffffffffffffffffffffffffffffffffffffff16815250508080611f3990612cdb565b915050611e95565b508091505090565b600080600190505b6003548111611fe0578273ffffffffffffffffffffffffffffffffffffffff166004600083815260200190815260200160002060020160009054906101000a900473ffffffffffffffffffffffffffffffffffffffff1673ffffffffffffffffffffffffffffffffffffffff161415611fcd5780915050611fe6565b8080611fd890612cdb565b915050611f51565b50600090505b919050565b600080600090506000600190505b600754811161204057836008600083815260200190815260200160002060000154141561202d578091508192505050612047565b808061203890612cdb565b915050611ff9565b5060009150505b919050565b600080600190505b60015481116120f9578273ffffffffffffffffffffffffffffffffffffffff166002600083815260200190815260200160002060020160009054906101000a900473ffffffffffffffffffffffffffffffffffffffff1673ffffffffffffffffffffffffffffffffffffffff1614156120e6576002600082815260200190815260200160002060000154915050612259565b80806120f190612cdb565b915050612054565b506000600190505b60035481116121a6578273ffffffffffffffffffffffffffffffffffffffff166004600083815260200190815260200160002060020160009054906101000a900473ffffffffffffffffffffffffffffffffffffffff1673ffffffffffffffffffffffffffffffffffffffff161415612193576004600082815260200190815260200160002060000154915050612259565b808061219e90612cdb565b915050612101565b506000600190505b6005548111612253578273ffffffffffffffffffffffffffffffffffffffff166006600083815260200190815260200160002060020160009054906101000a900473ffffffffffffffffffffffffffffffffffffffff1673ffffffffffffffffffffffffffffffffffffffff161415612240576006600082815260200190815260200160002060000154915050612259565b808061224b90612cdb565b9150506121ae565b50600090505b919050565b6060600060075467ffffffffffffffff81111561227e5761227d612db1565b5b6040519080825280602002602001820160405280156122ac5781602001602082028036833780820191505090505b5090506000600190505b6007548111612314576008600082815260200190815260200160002060000154826001836122e49190612bfa565b815181106122f5576122f4612d82565b5b602002602001018181525050808061230c90612cdb565b9150506122b6565b508091505090565b6060600060035467ffffffffffffffff81111561233c5761233b612db1565b5b60405190808252806020026020018201604052801561236a5781602001602082028036833780820191505090505b5090506000600190505b6003548111612420576004600082815260200190815260200160002060020160009054906101000a900473ffffffffffffffffffffffffffffffffffffffff16826001836123c29190612bfa565b815181106123d3576123d2612d82565b5b602002602001019073ffffffffffffffffffffffffffffffffffffffff16908173ffffffffffffffffffffffffffffffffffffffff1681525050808061241890612cdb565b915050612374565b508091505090565b60055481565b600060606000806060600061244287611f49565b9050600060046000838152602001908152602001600020600001549050600060046000848152602001908152602001600020600101805461248290612ca9565b80601f01602080910402602001604051908101604052809291908181526020018280546124ae90612ca9565b80156124fb5780601f106124d0576101008083540402835291602001916124fb565b820191906000526020600020905b8154815290600101906020018083116124de57829003601f168201915b5050505050905060006004600085815260200190815260200160002060020160009054906101000a900473ffffffffffffffffffffffffffffffffffffffff16905060006004600086815260200190815260200160002060030154905060006125638c6108d6565b905084848484849a509a509a509a509a5050505050505091939590929450565b60015481565b60008135905061259881612df6565b92915050565b6000813590506125ad81612e0d565b92915050565b6000602082840312156125c9576125c8612de0565b5b60006125d784828501612589565b91505092915050565b6000602082840312156125f6576125f5612de0565b5b60006126048482850161259e565b91505092915050565b6000806040838503121561262457612623612de0565b5b60006126328582860161259e565b92505060206126438582860161259e565b9150509250929050565b60006126598383612691565b60208301905092915050565b600061267183836127ef565b905092915050565b60006126858383612861565b60208301905092915050565b61269a81612c2e565b82525050565b6126a981612c2e565b82525050565b60006126ba82612b52565b6126c48185612ba5565b93506126cf83612b22565b8060005b838110156127005781516126e7888261264d565b97506126f283612b7e565b9250506001810190506126d3565b5085935050505092915050565b600061271882612b5d565b6127228185612bb6565b93508360208202850161273485612b32565b8060005b8581101561277057848403895281516127518582612665565b945061275c83612b8b565b925060208a01995050600181019050612738565b50829750879550505050505092915050565b600061278d82612b68565b6127978185612bc7565b93506127a283612b42565b8060005b838110156127d35781516127ba8882612679565b97506127c583612b98565b9250506001810190506127a6565b5085935050505092915050565b6127e981612c40565b82525050565b60006127fa82612b73565b6128048185612bd8565b9350612814818560208601612c76565b61281d81612de5565b840191505092915050565b600061283382612b73565b61283d8185612be9565b935061284d818560208601612c76565b61285681612de5565b840191505092915050565b61286a81612c6c565b82525050565b61287981612c6c565b82525050565b600060208201905061289460008301846126a0565b92915050565b600060208201905081810360008301526128b481846126af565b905092915050565b600060608201905081810360008301526128d681866126af565b905081810360208301526128ea818561270d565b905081810360408301526128fe8184612782565b9050949350505050565b60006020820190508181036000830152612922818461270d565b905092915050565b600060208201905081810360008301526129448184612782565b905092915050565b60006020820190506129616000830184612870565b92915050565b600060808201905061297c6000830187612870565b818103602083015261298e81866126af565b905081810360408301526129a2818561270d565b905081810360608301526129b68184612782565b905095945050505050565b600060a0820190506129d66000830188612870565b81810360208301526129e88187612828565b90506129f760408301866126a0565b612a0460608301856127e0565b612a116080830184612870565b9695505050505050565b6000608082019050612a306000830187612870565b8181036020830152612a428186612828565b9050612a5160408301856126a0565b612a5e6060830184612870565b95945050505050565b600060a082019050612a7c6000830188612870565b8181036020830152612a8e8187612828565b9050612a9d60408301866126a0565b612aaa6060830185612870565b8181036080830152612abc8184612782565b90509695505050505050565b600060a082019050612add6000830188612870565b8181036020830152612aef8187612828565b9050612afe60408301866126a0565b612b0b6060830185612870565b612b186080830184612870565b9695505050505050565b6000819050602082019050919050565b6000819050602082019050919050565b6000819050602082019050919050565b600081519050919050565b600081519050919050565b600081519050919050565b600081519050919050565b6000602082019050919050565b6000602082019050919050565b6000602082019050919050565b600082825260208201905092915050565b600082825260208201905092915050565b600082825260208201905092915050565b600082825260208201905092915050565b600082825260208201905092915050565b6000612c0582612c6c565b9150612c1083612c6c565b925082821015612c2357612c22612d24565b5b828203905092915050565b6000612c3982612c4c565b9050919050565b60008115159050919050565b600073ffffffffffffffffffffffffffffffffffffffff82169050919050565b6000819050919050565b60005b83811015612c94578082015181840152602081019050612c79565b83811115612ca3576000848401525b50505050565b60006002820490506001821680612cc157607f821691505b60208210811415612cd557612cd4612d53565b5b50919050565b6000612ce682612c6c565b91507fffffffffffffffffffffffffffffffffffffffffffffffffffffffffffffffff821415612d1957612d18612d24565b5b600182019050919050565b7f4e487b7100000000000000000000000000000000000000000000000000000000600052601160045260246000fd5b7f4e487b7100000000000000000000000000000000000000000000000000000000600052602260045260246000fd5b7f4e487b7100000000000000000000000000000000000000000000000000000000600052603260045260246000fd5b7f4e487b7100000000000000000000000000000000000000000000000000000000600052604160045260246000fd5b600080fd5b6000601f19601f8301169050919050565b612dff81612c2e565b8114612e0a57600080fd5b50565b612e1681612c6c565b8114612e2157600080fd5b5056fea26469706673582212204dbf65d66fde86f47a443c149f220f4b0fb55886042d30029e82832d6b4df60f64736f6c63430008070033",
  "immutableReferences": {},
  "source": "// SPDX-License-Identifier: MIT\r\npragma solidity >=0.4.22 <0.9.0;\r\n\r\n/*\r\n\r\n1. :  Save the permission structure of the current address\r\n    AdminSelf,  ProfessorSelf,  StudentSelf\r\n\r\n2. : Save course details\r\n    CourseInf,  CourseStudent\r\n\r\n3. modifier function\r\n    onlyAdmin,  onlyProfessor,  checkIsStudent\r\n\r\n\r\n/////////////////////////////////////////////////////////////////////////////////////////////////////////////////\r\n/////////////////////////////////////////////////////////////////////////////////////////////////////////////////\r\n\r\n4.1. setter function\r\n\r\n    setcourseStudentCounts          // course id(,,)\r\n                                    // Set the number of students with the course ID (called once when the student joins the course)\r\n\r\n\r\n/////////////////////////////////////////////////////////////////////////////////////////////////////////////////\r\n/////////////////////////////////////////////////////////////////////////////////////////////////////////////////\r\n\r\n4.2 getter function\r\n\r\n    getMsgSender                    // msg.sender\r\n    \r\n    getMsgSenderAuthorization       // msg.sender\r\n\r\n    ==> getIdByAddress()            // addressid , Find this person's id through address\r\n\r\n    ==> getStuAddressByStuId()            // ID  ,  Find this person's address by ID\r\n\r\n    getAuthorizationByAddress()     // addressauthorization , Find this person's authorization through address\r\n\r\n/////////////////////////////////////////////////////////////////////////////////////////////////////////////////\r\n\r\n// getter about admin\r\n    getAdminCounts()                // \r\n    getAdminIndexByAddress()        //  address adminindex , Find the index in admin by address\r\n\r\n/////////////////////////////////////////////////////////////////////////////////////////////////////////////////\r\n\r\n// getter about professor\r\n    getProfessorCounts()            // \r\n    getProfessorIndexByAddress()    //  address professorindex , Find the index in the professor by address\r\n    getProfessorInfByProAddress()   // proAddresspro\r\n\r\n/////////////////////////////////////////////////////////////////////////////////////////////////////////////////\r\n\r\n// getter about student\r\n    getStudentCounts()              // \r\n    getStudentIndexByAddress()      //  address studentindex  ,Find the index in the student by address\r\n    getStudentNameByAddress()\r\n    getStudentInfByStuAddress()     // stuAddressstu\r\n\r\n/////////////////////////////////////////////////////////////////////////////////////////////////////////////////\r\n\r\n// getter about course\r\n\r\n    // about all course\r\n    getIndexByCourseId              // course id    Get the index of this course by course ID\r\n \r\n    getAllCourseId()                // course id\r\n\r\n    getcourseStudentCounts          // course id  The number of students to get the course ID\r\n\r\n    getCourseCounts()               // courseCounts  Return the current courseCounts value\r\n\r\n    getCourseStudentsByCourseId()   // course id\r\n\r\n    getCourseInfByCourseId()        // course id\r\n\r\n    getTopStudentsByCourseId()      // course idn\r\n\r\n\r\n    // pro\r\n    getCourseCountsByProAddress()   //   Get a few courses taught by a certain teacher\r\n\r\n    getCourseIdByProAddress()       // proAddressid   Get an array of all course IDs opened by a teacher through proAddress\r\n\r\n\r\n    // stu\r\n    getCourseCountsByStuAddress()   // \r\n\r\n    getCourseIdByStuAddress()       // stuAddressid   Get an array of all course IDs opened by a student through stuAddress\r\n\r\n\r\n\r\n/////////////////////////////////////////////////////////////////////////////////////////////////////////////////\r\n/////////////////////////////////////////////////////////////////////////////////////////////////////////////////\r\n\r\n4.3. check function\r\n\r\n    checkIdExisted()                // id         Verify that this ID has been used\r\n\r\n    checkAddressExisted()           // address    Verify that this address has been used\r\n\r\n    ////// check course\r\n\r\n    checkCourseCanApply             // course id \r\n                                    // Check the course ID to see if you can apply for this course\r\n\r\n    checkCourseExisted              // course id \r\n                                    // Check if this course exists by course ID\r\n\r\n    checkCourseHeldByProBlockAddress        // courseId,proBlockAddress \r\n                                            // Check whether the professor owns the course through courseId,proId\r\n\r\n    checkCourseHeldByStuBlockAddress        // courseId,stuBlockAddress \r\n                                            // Through courseId,stuId checks whether the student owns the course\r\n\r\n    \r\n*/\r\n\r\n\r\n\r\ncontract StructAndModifiers{\r\n\r\n    address public modifiersOwner;   // \r\n\r\n    constructor() {\r\n        modifiersOwner = msg.sender;\r\n        adminSelfs[1] = AdminSelf(1,'Root',modifiersOwner,3);\r\n        adminCounts++;\r\n    }\r\n\r\n//// Struct\r\n\r\n    ////////////\r\n    // admin //\r\n    ///////////\r\n    uint public adminCounts = 0; //\r\n    struct AdminSelf{\r\n        uint adminId;               // \r\n        string adminName;           //\r\n        address adminBlockAddress;  // \r\n        uint adminAuthorization;    // = 3\r\n    }\r\n    mapping(uint => AdminSelf)public adminSelfs; //\r\n    \r\n    ///////////////\r\n    // professor //\r\n    ///////////////\r\n    uint public professorCounts = 0; //\r\n    struct ProfessorSelf{\r\n        uint proId;               // \r\n        string proName;           //\r\n        address proBlockAddress;  // \r\n        uint proAuthorization;    // = 2\r\n        uint[] myProCourses;          //    Save the class you created\r\n        // ,    \r\n        // , +1 \r\n        // ,,-1   \r\n        // 0\r\n        // 0\r\n        /* \r\n            Judge whether the teacher is teaching, and the teacher who is teaching cannot be arbitrarily deprived of his authority,\r\n            When the teacher creates a course, when each student applies, + 1\r\n            When the teacher gives the student the score of a course, it indicates the end of a course, then - 1\r\n            When it is 0, it means that no course is taught\r\n            Initial 0\r\n        */\r\n        uint isTeachingPeopleSum;          \r\n    }\r\n    mapping(uint => ProfessorSelf)public professorSelfs; //\r\n    \r\n    /////////////\r\n    // student //\r\n    /////////////\r\n    uint public studentCounts = 0; //\r\n    struct StudentSelf{\r\n        uint stuId;               // \r\n        string stuName;           //\r\n        address stuBlockAddress;  // \r\n        uint stuAuthorization;    // = 1\r\n        uint[] myStuCourses;      //  Save the lesson I'm taking\r\n        // , \r\n        // +1,, -1\r\n        // 0\r\n        // 0\r\n        /*\r\n            Judge whether students are in class. Students in class cannot be removed at will\r\n            When students join a course, they will + 1. When students get a grade, it means that a course ends, then - 1\r\n            If it is 0, it means that you have not studied a course\r\n            Initial 0\r\n        */\r\n        uint isLearningSum;         \r\n    }\r\n    \r\n    mapping(uint => StudentSelf)public studentSelfs; // \r\n    \r\n    /*\r\n    /////////////\r\n    // course  //\r\n    /////////////\r\n    \r\n    1.                       Record course information\r\n    2. ()    Record score information (only teachers can modify it)\r\n    \r\n    \r\n    */\r\n    \r\n    uint public courseCounts = 0;\r\n        \r\n    //  Course student information\r\n    struct CourseStudent{\r\n        address stuBlockAddress;\r\n        string stuName;\r\n        uint stuGrade;\r\n    }\r\n\r\n    // Course information\r\n    struct CourseInf{\r\n        uint courseId;          //\r\n        string courseName;      //\r\n        address proBlockAddress;\r\n        bool canApply;          // , \r\n        uint courseStudentCounts;  // \r\n        mapping (uint => CourseStudent) courseStudents;  // \r\n    }\r\n    \r\n    mapping (uint => CourseInf) public courseInfs;//Course information index\r\n    \r\n    \r\n\r\n//////////////////////////////////////////////////////////////  \r\n//////////////////////////////////////////////////////////////  \r\n/////////////////////////////// modifier function\r\n    \r\n    // onlyAdmin\r\n    modifier onlyAdmin() {\r\n        bool isAdmin = false;\r\n        for (uint256 i = 0; i <= adminCounts; i++) {\r\n            if(msg.sender == adminSelfs[i].adminBlockAddress){                \r\n                isAdmin = true;\r\n            }\r\n        }\r\n        require(isAdmin,\">>>>>>isAdmin = false\");\r\n        _;\r\n    }\r\n\r\n    \r\n    // onlyProfessor\r\n    modifier onlyProfessor() {\r\n        bool isProfessor = false;\r\n        for (uint256 i = 0; i <= professorCounts; i++) {  \r\n            if(msg.sender == professorSelfs[i].proBlockAddress){               \r\n                isProfessor = true;\r\n            }\r\n        }\r\n        require(isProfessor,\"isProfessor = false\");\r\n        _;\r\n    }\r\n    \r\n    // \r\n    function checkIsStudent(address _stuBlockAddress) internal view returns(bool){\r\n        for (uint i = 0; i <= studentCounts; i++) {   \r\n            if( _stuBlockAddress == studentSelfs[i].stuBlockAddress){                \r\n                return true;\r\n            }\r\n        }\r\n        return false;\r\n    }\r\n    \r\n    \r\n  \r\n//////////////////////////////////////////////////////////////  \r\n//////////////////////////////////////////////////////////////  \r\n///////////////////////////////  4.1. setter function\r\n\r\n\r\n    // course id Number of students setting course ID\r\n    // ,  Call once when students join the course\r\n    function setcourseStudentCounts(uint _courseid) internal {\r\n        for(uint i=1;i<=courseCounts;i++){\r\n            if(courseInfs[i].courseId == _courseid){\r\n                courseInfs[i].courseStudentCounts++; // ,  Call once, add one person\r\n            }\r\n        }\r\n    }\r\n    \r\n\r\n//////////////////////////////////////////////////////////////  \r\n//////////////////////////////////////////////////////////////  \r\n///////////////////////////////  4.2. getter function\r\n\r\n/*\r\n    // msg.sender\r\n    function getMsgSender() public view returns(address){\r\n        return msg.sender;\r\n    }\r\n\r\n    // msg.sender\r\n    function getMsgSenderAuthorization() public view returns(uint){\r\n        for(uint i=1;i<=adminCounts;i++){\r\n            if(adminSelfs[i].adminBlockAddress == msg.sender)\r\n                return adminSelfs[i].adminAuthorization;\r\n        }\r\n        for(uint i=1;i<=professorCounts;i++){\r\n            if(professorSelfs[i].proBlockAddress == msg.sender)\r\n                return professorSelfs[i].proAuthorization;\r\n        }\r\n        for(uint i=1;i<=studentCounts;i++){\r\n            if(studentSelfs[i].stuBlockAddress == msg.sender)\r\n                return studentSelfs[i].stuAuthorization;\r\n        }\r\n        return 0;\r\n    }\r\n*/\r\n\r\n    // addressid , Find this person's id through address\r\n    function getIdByAddress(address _address) public view returns(uint){\r\n        for(uint i=1;i<=adminCounts;i++){\r\n            if(adminSelfs[i].adminBlockAddress == _address)\r\n                return adminSelfs[i].adminId;\r\n        }\r\n        for(uint i=1;i<=professorCounts;i++){\r\n            if(professorSelfs[i].proBlockAddress == _address)\r\n                return professorSelfs[i].proId;\r\n        }\r\n        for(uint i=1;i<=studentCounts;i++){\r\n            if(studentSelfs[i].stuBlockAddress == _address)\r\n                return studentSelfs[i].stuId;\r\n        }\r\n        return 0; //\r\n    }\r\n \r\n    \r\n    // stuID  ,  Find this person's address by ID\r\n    function getStuAddressByStuId(uint _stuId) public view returns(address){\r\n        for(uint i=1;i<=studentCounts;i++){\r\n            if(studentSelfs[i].stuId == _stuId)\r\n                return studentSelfs[i].stuBlockAddress;\r\n        }\r\n        return address(0x0);\r\n        \r\n    }\r\n\r\n\r\n    // addressauthorization , Find this person's authorization through address\r\n    function getAuthorizationByAddress(address _address) public view returns(uint){\r\n        for(uint i=1;i<=adminCounts;i++){\r\n            if(adminSelfs[i].adminBlockAddress == _address)\r\n                return adminSelfs[i].adminAuthorization;\r\n        }\r\n        for(uint i=1;i<=professorCounts;i++){\r\n            if(professorSelfs[i].proBlockAddress == _address)\r\n                return professorSelfs[i].proAuthorization;\r\n        }\r\n        for(uint i=1;i<=studentCounts;i++){\r\n            if(studentSelfs[i].stuBlockAddress == _address)\r\n                return studentSelfs[i].stuAuthorization;\r\n        }\r\n        return 0; //\r\n    }\r\n\r\n/*\r\n    // address idnameauthorizationaddress\r\n    function getPersonInfByAddress(address _address) public view returns(uint,string memory,uint){\r\n        for(uint i=1;i<=adminCounts;i++){\r\n            if(adminSelfs[i].adminBlockAddress == _address)\r\n                return (adminSelfs[i].adminId,adminSelfs[i].adminName,adminSelfs[i].adminAuthorization);\r\n        }\r\n        for(uint i=1;i<=professorCounts;i++){\r\n            if(professorSelfs[i].proBlockAddress == _address)\r\n                return (professorSelfs[i].proId,professorSelfs[i].proName,professorSelfs[i].proAuthorization);\r\n        }\r\n        for(uint i=1;i<=studentCounts;i++){\r\n            if(studentSelfs[i].stuBlockAddress == _address)\r\n                return (studentSelfs[i].stuId,studentSelfs[i].stuName,studentSelfs[i].stuAuthorization);\r\n        }\r\n        return (0,'null',0); //\r\n    }\r\n*/\r\n\r\n/////////////////////////////////////////////////////////////////////////////////////////////////////////////////\r\n\r\n// getter about admin\r\n\r\n\r\n    //  address adminindex , Find the index in admin by ID\r\n    function getAdminIndexByAddress(address _adminBlockAddress) public view returns(uint){\r\n        for(uint i=1;i<=adminCounts;i++){\r\n            if(adminSelfs[i].adminBlockAddress ==_adminBlockAddress) {\r\n                return i;  // \r\n            }    \r\n        }\r\n        return 0; // \r\n    }\r\n    \r\n\r\n\r\n/////////////////////////////////////////////////////////////////////////////////////////////////////////////////\r\n\r\n// getter about professor\r\n\r\n\r\n    //  address professorindex , Find the index in the professor by ID\r\n    function getProfessorIndexByAddress(address _proBlockAddress) public view returns(uint){\r\n        for(uint i=1;i<=professorCounts;i++){\r\n            if(professorSelfs[i].proBlockAddress ==_proBlockAddress) {\r\n                return i;  // \r\n            }    \r\n        }\r\n        return 0; // \r\n    }\r\n    \r\n    // proAddresspro\r\n    function getProfessorInfByProAddress(address _proBlockAddress) public view returns(uint,string memory,address,uint,uint[] memory ){\r\n        // proIndex\r\n        uint proIndex = getProfessorIndexByAddress(_proBlockAddress);\r\n        //  proId,proName,proBlockAddress,proAuthorization,myProCourses\r\n        uint proId_ = professorSelfs[proIndex].proId;\r\n        string memory proName_ = professorSelfs[proIndex].proName;\r\n        address proBlockAddress_ = professorSelfs[proIndex].proBlockAddress;\r\n        uint proAuthorization_ = professorSelfs[proIndex].proAuthorization;\r\n        uint[] memory myProCourses_ = getCourseIdByProAddress(_proBlockAddress);\r\n        // return\r\n        return (proId_,proName_,proBlockAddress_,proAuthorization_,myProCourses_);\r\n    }\r\n\r\n    // \r\n    function getAllProfessorAddress() public view returns(address[] memory){\r\n        address[] memory allProfessorAddress_ = new address[](professorCounts);\r\n        for(uint i=1;i<=professorCounts;i++){\r\n            allProfessorAddress_[i-1] = professorSelfs[i].proBlockAddress;\r\n        }\r\n        return allProfessorAddress_;\r\n    }\r\n\r\n\r\n/*\r\n    // ID\r\n    function getAllProfessorId() public view returns(uint[] memory){\r\n        uint[] memory allProfessorId_ = new uint[](professorCounts);\r\n        for(uint i=1;i<=professorCounts;i++){\r\n            allProfessorId_[i-1] = professorSelfs[i].proId;\r\n        }\r\n        return allProfessorId_;\r\n    }\r\n*/\r\n/////////////////////////////////////////////////////////////////////////////////////////////////////////////////\r\n\r\n// getter about student\r\n\r\n\r\n    //  address studentindex  ,Find the index in the student by ID\r\n    function getStudentIndexByAddress(address _stuBlockAddress) public view returns(uint){\r\n        for(uint i=1;i<=studentCounts;i++){\r\n            if(studentSelfs[i].stuBlockAddress ==_stuBlockAddress) {\r\n                return i;  // \r\n            }    \r\n        }\r\n        return 0; // \r\n    }\r\n\r\n/*\r\n    //  address\r\n    function getStudentNameByAddress(address _stuBlockAddress) public view returns(string memory){\r\n        uint studentIndex = getStudentIndexByAddress(_stuBlockAddress);\r\n        return studentSelfs[studentIndex].stuName; // \r\n    }\r\n*/\r\n\r\n\r\n    // stuAddressstu\r\n    function getStudentInfByStuAddress(address _stuBlockAddress) public view returns(uint,string memory,address,uint,uint[] memory ){\r\n        // stuIndex\r\n        uint stuIndex = getStudentIndexByAddress(_stuBlockAddress);\r\n        //  stuId,stuName,stuBlockAddress,stuAuthorization,myStuCourses\r\n        uint stuId_ = studentSelfs[stuIndex].stuId;\r\n        string memory stuName_ = studentSelfs[stuIndex].stuName;\r\n        address stuBlockAddress_ = studentSelfs[stuIndex].stuBlockAddress;\r\n        uint stuAuthorization_ = studentSelfs[stuIndex].stuAuthorization;\r\n        uint[] memory myStuCourses_ = getCourseIdByStuAddress(_stuBlockAddress);\r\n        // return\r\n        return (stuId_,stuName_,stuBlockAddress_,stuAuthorization_,myStuCourses_);\r\n    }\r\n\r\n\r\n    // \r\n    function getAllStudentAddress() public view returns(address[] memory){\r\n        address[] memory allStudentAddress_ = new address[](studentCounts);\r\n        for(uint i=1;i<=studentCounts;i++){\r\n            allStudentAddress_[i-1] = studentSelfs[i].stuBlockAddress;\r\n        }\r\n        return allStudentAddress_;\r\n    }\r\n\r\n/*\r\n    // ID\r\n    function getAllStudentId() public view returns(uint[] memory){\r\n        uint[] memory allStudentId_ = new uint[](studentCounts);\r\n        for(uint i=1;i<=studentCounts;i++){\r\n            allStudentId_[i-1] = studentSelfs[i].stuId;\r\n        }\r\n        return allStudentId_;\r\n    }\r\n*/\r\n\r\n /////////////////////////////////////////////////////////////////////////////////////////////////////////////////\r\n\r\n// getter about course\r\n\r\n    // about all course\r\n\r\n    // course id  Get the index of this course through course ID\r\n    function getIndexByCourseId(uint _courseId) public view returns(uint){\r\n        //   Find the course first\r\n        uint indexOfCourseID = 0;\r\n        for(uint i=1;i<=courseCounts;i++){\r\n            if(courseInfs[i].courseId == _courseId){\r\n                indexOfCourseID = i;\r\n                return indexOfCourseID;\r\n            }\r\n        }\r\n        return 0;\r\n    }\r\n\r\n    // course id\r\n    function getAllCourseId() public view returns(uint[] memory){\r\n        uint [] memory allCourseId_ = new uint[](courseCounts);\r\n        for(uint i=1;i<=courseCounts;i++){\r\n            allCourseId_[i-1] = courseInfs[i].courseId;\r\n        }\r\n        return allCourseId_;\r\n    }\r\n\r\n\r\n    // course id  Number of students who get course ID\r\n    function getcourseStudentCounts(uint _courseid) public view returns(uint courseStudentCounts_){\r\n        for(uint i=1;i<=courseCounts;i++){\r\n            if(courseInfs[i].courseId == _courseid){\r\n                return courseInfs[i].courseStudentCounts;\r\n            }\r\n        }\r\n    }\r\n\r\n/*\r\n    // course id\r\n    function getCourseStudentsByCourseId(uint _courseid) public view returns(address[] memory,uint[] memory){\r\n        // \r\n        uint courseIndex = getIndexByCourseId(_courseid);\r\n        // \r\n        uint courseStudentCounts_ = courseInfs[courseIndex].courseStudentCounts;\r\n\r\n        // \r\n        address[] memory stuAddressTemp = new address[](courseStudentCounts_); \r\n        uint[] memory stuGradeTemp = new uint[](courseStudentCounts_); \r\n\r\n        for(uint i=1;i<=courseStudentCounts_;i++){\r\n            stuAddressTemp[i-1] = courseInfs[courseIndex].courseStudents[i].stuBlockAddress;\r\n            stuGradeTemp[i-1] = courseInfs[courseIndex].courseStudents[i].stuGrade;\r\n        }\r\n        return (stuAddressTemp,stuGradeTemp);\r\n    }\r\n*/\r\n\r\n\r\n    // course id\r\n    function getCourseInfByCourseId(uint _courseid) public view returns(uint,string memory,address,uint){\r\n        // \r\n        uint courseIndex = getIndexByCourseId(_courseid);\r\n\r\n        // courseId_, courseName_,proBlockAddress_,courseStudentCounts_\r\n        uint courseId_ = courseInfs[courseIndex].courseId;          \r\n        string memory courseName_ = courseInfs[courseIndex].courseName;      \r\n        address proBlockAddress_ = courseInfs[courseIndex].proBlockAddress;\r\n        uint courseStudentCounts_ = courseInfs[courseIndex].courseStudentCounts;  \r\n\r\n        return (courseId_,courseName_,proBlockAddress_,courseStudentCounts_);\r\n    }\r\n\r\n    // course id\r\n    function getCourseStudentInfByCourseId(uint _courseid) public view returns(address[] memory,string[] memory,uint[] memory){\r\n        // \r\n        uint courseIndex = getIndexByCourseId(_courseid);\r\n\r\n        // courseId_, courseName_,proBlockAddress_,courseStudentCounts_   \r\n        uint courseStudentCounts_ = courseInfs[courseIndex].courseStudentCounts;  \r\n\r\n        // course id\r\n        // \r\n        address[] memory stuAddressTemp = new address[](courseStudentCounts_); \r\n        string[] memory stuNameTemp = new string[](courseStudentCounts_); \r\n        uint[] memory stuGradeTemp = new uint[](courseStudentCounts_); \r\n\r\n        for(uint i=1;i<=courseStudentCounts_;i++){\r\n            stuAddressTemp[i-1] = courseInfs[courseIndex].courseStudents[i].stuBlockAddress;\r\n            stuNameTemp[i-1] = courseInfs[courseIndex].courseStudents[i].stuName;\r\n            stuGradeTemp[i-1] = courseInfs[courseIndex].courseStudents[i].stuGrade;\r\n        }\r\n\r\n        return (stuAddressTemp,stuNameTemp,stuGradeTemp);\r\n    }\r\n\r\n\r\n    // course idn  ,n,uint\r\n    function getTopStudentsByCourseId(uint _courseid,uint _getTops) public view returns(uint,address[] memory,string[] memory,uint[] memory){\r\n        \r\n        // \r\n        uint getTops = _getTops;\r\n        // \r\n        uint gotGradeCounts = 0;\r\n        // \r\n        uint courseIndex = getIndexByCourseId(_courseid);\r\n        // courseId_, courseName_,proBlockAddress_,courseStudentCounts_\r\n        uint courseStudentCounts_ = courseInfs[courseIndex].courseStudentCounts;  \r\n        // \r\n        if(courseStudentCounts_ < getTops){\r\n            getTops = courseStudentCounts_;\r\n        }\r\n        \r\n        // \r\n        uint[] memory gradeOfStuGradeSort = new uint[](courseStudentCounts_);\r\n        //  gradeOfStuGradeSort ,\r\n        for(uint i=1;i<=courseStudentCounts_;i++){ // \r\n            if(courseInfs[courseIndex].courseStudents[i].stuGrade > 0){\r\n                gradeOfStuGradeSort[i-1] = courseInfs[courseIndex].courseStudents[i].stuGrade;\r\n                gotGradeCounts++;\r\n            }  \r\n        }\r\n\r\n        // \r\n        if(gotGradeCounts < getTops){\r\n            getTops = gotGradeCounts;\r\n        }\r\n\r\n        //  \r\n        for(uint i=0;i<gradeOfStuGradeSort.length;i++){ //  \r\n            for(uint j=1;j<gradeOfStuGradeSort.length;j++){ // \r\n                if(gradeOfStuGradeSort[j] > gradeOfStuGradeSort[j-1]){\r\n                    // \r\n                    uint temp = gradeOfStuGradeSort[j-1];\r\n                    gradeOfStuGradeSort[j-1] = gradeOfStuGradeSort[j];\r\n                    gradeOfStuGradeSort[j] = temp;\r\n                }\r\n            }\r\n        }\r\n\r\n        // course id\r\n        // \r\n        \r\n        address[] memory stuAddressTemp = new address[](getTops); \r\n        string[] memory stuNameTemp = new string[](getTops);\r\n        uint[] memory stuGradeTemp = new uint[](getTops); \r\n\r\n\r\n        // indexOfStuGradeSort\r\n        //  \r\n        uint flag = 0;\r\n        for(uint i=0;i<gradeOfStuGradeSort.length;i++){ // \r\n            if(flag == getTops){ // \r\n                break;\r\n            }\r\n            // \r\n            stuGradeTemp[i] = gradeOfStuGradeSort[i];\r\n            // \r\n            for(uint j=1;j<=courseStudentCounts_;j++){ //  \r\n                if(stuGradeTemp[i] == courseInfs[courseIndex].courseStudents[j].stuGrade){\r\n                    stuNameTemp[i] = courseInfs[courseIndex].courseStudents[j].stuName;\r\n                    stuAddressTemp[i] = courseInfs[courseIndex].courseStudents[j].stuBlockAddress;         \r\n                }\r\n            }\r\n            flag++;\r\n        }\r\n        return (getTops,stuAddressTemp,stuNameTemp,stuGradeTemp);\r\n    }\r\n\r\n\r\n\r\n\r\n    \r\n    // pro ///////////////////////////////////\r\n\r\n    // \r\n    function getCourseCountsByProAddress(address _proBlockAddress) public view returns(uint){\r\n        // proIndex\r\n        uint proIndex = getProfessorIndexByAddress(_proBlockAddress);\r\n        return professorSelfs[proIndex].myProCourses.length;\r\n\r\n    }\r\n\r\n    // proAddressid   Get an array of all course IDs opened by a teacher through proAddress\r\n    function getCourseIdByProAddress(address _proBlockAddress) public view returns(uint[] memory){\r\n        // proIndex\r\n        uint proIndex = getProfessorIndexByAddress(_proBlockAddress);\r\n        // \r\n        uint courseLens = getCourseCountsByProAddress(_proBlockAddress);\r\n        // \r\n        uint[] memory myProCoursesTemp = new uint[](courseLens); \r\n\r\n        for(uint i=0;i<courseLens;i++){\r\n            myProCoursesTemp[i] = professorSelfs[proIndex].myProCourses[i];\r\n        }\r\n        return myProCoursesTemp;\r\n    }\r\n\r\n    \r\n    // stu ////////////////////////////////\r\n\r\n    // \r\n    function getCourseCountsByStuAddress(address _stuBlockAddress) public view returns(uint){\r\n        // stuIndex\r\n        uint stuIndex = getStudentIndexByAddress(_stuBlockAddress);\r\n        return studentSelfs[stuIndex].myStuCourses.length;\r\n\r\n    }\r\n\r\n    // stuAddressid   Get an array of all course IDs opened by a student through stuAddress\r\n    function getCourseIdByStuAddress(address _stuBlockAddress) public view returns(uint[] memory){\r\n        // stuIndex\r\n        uint stuIndex = getStudentIndexByAddress(_stuBlockAddress);\r\n        // \r\n        uint courseLens = getCourseCountsByStuAddress(_stuBlockAddress);\r\n        // \r\n        uint[] memory myStuCoursesTemp = new uint[](courseLens); \r\n\r\n        for(uint i=0;i<courseLens;i++){\r\n            myStuCoursesTemp[i] = studentSelfs[stuIndex].myStuCourses[i];\r\n        }\r\n        return myStuCoursesTemp;\r\n    }\r\n\r\n    \r\n\r\n\r\n//////////////////////////////////////////////////////////////  \r\n//////////////////////////////////////////////////////////////  \r\n///////////////////////////////   4.3. check function\r\n\r\n    // id      Verify that this ID has been used\r\n    function checkIdExisted(uint _id) internal view returns(bool){\r\n        for(uint i=1;i<=adminCounts;i++){\r\n            if(adminSelfs[i].adminId == _id)\r\n                return true;\r\n        }\r\n        for(uint i=1;i<=professorCounts;i++){\r\n            if(professorSelfs[i].proId == _id)\r\n                return true;\r\n        }\r\n        for(uint i=1;i<=studentCounts;i++){\r\n            if(studentSelfs[i].stuId == _id)\r\n                return true;\r\n        }\r\n        return false; // \r\n    }\r\n    \r\n    \r\n    // address  Verify that this address has been used\r\n    function checkAddressExisted(address _address) internal view returns(bool){\r\n        for(uint i=1;i<=adminCounts;i++){\r\n            if(adminSelfs[i].adminBlockAddress == _address)\r\n                return true;\r\n        }\r\n        for(uint i=1;i<=professorCounts;i++){\r\n            if(professorSelfs[i].proBlockAddress == _address)\r\n                return true;\r\n        }\r\n        for(uint i=1;i<=studentCounts;i++){\r\n            if(studentSelfs[i].stuBlockAddress == _address)\r\n                return true;\r\n        }\r\n        return false; // \r\n    }\r\n\r\n\r\n    ////// check course /////////////////\r\n\r\n    // \r\n    function checkCourseCanApply(uint _courseId) internal view returns(bool){\r\n        //  find this course\r\n        for(uint i=1;i<=courseCounts;i++){\r\n            if(courseInfs[i].courseId == _courseId){\r\n                if(courseInfs[i].canApply == true){\r\n                    return true;\r\n                }\r\n            }\r\n        }\r\n        return false;\r\n    }\r\n\r\n    // course id   Check whether this course exists through course ID\r\n    function checkCourseExisted(uint _courseId) internal view returns(bool){\r\n        //  find this course\r\n        for(uint i=1;i<=courseCounts;i++){\r\n            if(courseInfs[i].courseId == _courseId){\r\n                return true;\r\n            }\r\n        }\r\n        return false;\r\n    }\r\n    \r\n    // courseidproBlockAddress\r\n    // Check whether the professor has this course through courseid and proid\r\n    function checkCourseHeldByProBlockAddress(uint _courseId,address _proBlockAddress) internal view returns(bool){\r\n        for(uint i=1;i<=professorCounts;i++){\r\n            //   Find the corresponding Professor first\r\n            if(professorSelfs[i].proBlockAddress == _proBlockAddress){\r\n                // proBlockAddressmyProCoursescourseId\r\n                // Check whether the corresponding courseid exists in the myprocourses array under this proid\r\n                for(uint k=0;k<=professorSelfs[i].myProCourses.length;k++){\r\n                    if(professorSelfs[i].myProCourses[k] == _courseId){\r\n                        return true;\r\n                    }\r\n                }\r\n            }\r\n        }\r\n        return false;\r\n    }\r\n    \r\n    \r\n    // courseId,stuId \r\n    // Check whether students have this course through courseid and stuid\r\n    function checkCourseHeldByStuBlockAddress(uint _courseId,address _stuBlockAddress) internal view returns(bool){\r\n        for(uint i=1;i<=studentCounts;i++){\r\n            //   Find the corresponding student first\r\n            if(studentSelfs[i].stuBlockAddress == _stuBlockAddress){\r\n                // stuBlockAddressmyStuCoursescourseId\r\n                // Check whether the corresponding courseid exists in the mystucourses array under this stuid\r\n                for(uint k=0;k<=studentSelfs[i].myStuCourses.length;k++){\r\n                    if(studentSelfs[i].myStuCourses[k] == _courseId){\r\n                        return true;\r\n                    }\r\n                }\r\n            }\r\n        }\r\n        return false;\r\n    }\r\n    \r\n\r\n\r\n\r\n\r\n///////////test\r\n///////////test\r\n///////////test\r\n// test\r\n    // course id\r\n    function getCourseStudentNameByCourseId(uint _courseid) public view returns(string[] memory){\r\n        // \r\n        uint courseIndex = getIndexByCourseId(_courseid);\r\n        // courseId_, courseName_,proBlockAddress_,courseStudentCounts_   \r\n        uint courseStudentCounts_ = courseInfs[courseIndex].courseStudentCounts;  \r\n        // course id\r\n        // \r\n        string[] memory stuNameTemp = new string[](courseStudentCounts_); \r\n        for(uint i=1;i<=courseStudentCounts_;i++){\r\n            stuNameTemp[i-1] = courseInfs[courseIndex].courseStudents[i].stuName;\r\n        }\r\n        return stuNameTemp;\r\n    }\r\n\r\n\r\n\r\n\r\n}\r\n\r\n",
  "sourcePath": "D:\\desktop\\truffle_v4.0\\contracts\\StructAndModifiers.sol",
  "compiler": {
    "name": "solc",
    "version": "0.8.7+commit.e28d00a7.Emscripten.clang"
  },
  "schemaVersion": "3.4.3",
  "updatedAt": "2021-12-03T23:16:30.092Z",
  "devdoc": {
    "kind": "dev",
    "methods": {},
    "version": 1
  },
  "userdoc": {
    "kind": "user",
    "methods": {},
    "version": 1
  }
}