{
  "contractName": "StructAndModifiers",
  "abi": [
    {
      "inputs": [],
      "stateMutability": "nonpayable",
      "type": "constructor"
    },
    {
      "inputs": [],
      "name": "adminCounts",
      "outputs": [
        {
          "internalType": "uint256",
          "name": "",
          "type": "uint256"
        }
      ],
      "stateMutability": "view",
      "type": "function"
    },
    {
      "inputs": [
        {
          "internalType": "uint256",
          "name": "",
          "type": "uint256"
        }
      ],
      "name": "adminSelfs",
      "outputs": [
        {
          "internalType": "uint256",
          "name": "adminId",
          "type": "uint256"
        },
        {
          "internalType": "string",
          "name": "adminName",
          "type": "string"
        },
        {
          "internalType": "address",
          "name": "adminBlockAddress",
          "type": "address"
        },
        {
          "internalType": "uint256",
          "name": "adminAuthorization",
          "type": "uint256"
        }
      ],
      "stateMutability": "view",
      "type": "function"
    },
    {
      "inputs": [],
      "name": "courseCounts",
      "outputs": [
        {
          "internalType": "uint256",
          "name": "",
          "type": "uint256"
        }
      ],
      "stateMutability": "view",
      "type": "function"
    },
    {
      "inputs": [
        {
          "internalType": "uint256",
          "name": "",
          "type": "uint256"
        }
      ],
      "name": "courseInfs",
      "outputs": [
        {
          "internalType": "uint256",
          "name": "courseId",
          "type": "uint256"
        },
        {
          "internalType": "string",
          "name": "courseName",
          "type": "string"
        },
        {
          "internalType": "address",
          "name": "proBlockAddress",
          "type": "address"
        },
        {
          "internalType": "bool",
          "name": "canApply",
          "type": "bool"
        },
        {
          "internalType": "uint256",
          "name": "gotStudentGradeCounts",
          "type": "uint256"
        },
        {
          "internalType": "uint256",
          "name": "courseStudentCounts",
          "type": "uint256"
        }
      ],
      "stateMutability": "view",
      "type": "function"
    },
    {
      "inputs": [],
      "name": "modifiersOwner",
      "outputs": [
        {
          "internalType": "address",
          "name": "",
          "type": "address"
        }
      ],
      "stateMutability": "view",
      "type": "function"
    },
    {
      "inputs": [],
      "name": "professorCounts",
      "outputs": [
        {
          "internalType": "uint256",
          "name": "",
          "type": "uint256"
        }
      ],
      "stateMutability": "view",
      "type": "function"
    },
    {
      "inputs": [
        {
          "internalType": "uint256",
          "name": "",
          "type": "uint256"
        }
      ],
      "name": "professorSelfs",
      "outputs": [
        {
          "internalType": "uint256",
          "name": "proId",
          "type": "uint256"
        },
        {
          "internalType": "string",
          "name": "proName",
          "type": "string"
        },
        {
          "internalType": "address",
          "name": "proBlockAddress",
          "type": "address"
        },
        {
          "internalType": "uint256",
          "name": "proAuthorization",
          "type": "uint256"
        },
        {
          "internalType": "uint256",
          "name": "isTeachingPeopleSum",
          "type": "uint256"
        }
      ],
      "stateMutability": "view",
      "type": "function"
    },
    {
      "inputs": [],
      "name": "studentCounts",
      "outputs": [
        {
          "internalType": "uint256",
          "name": "",
          "type": "uint256"
        }
      ],
      "stateMutability": "view",
      "type": "function"
    },
    {
      "inputs": [
        {
          "internalType": "uint256",
          "name": "",
          "type": "uint256"
        }
      ],
      "name": "studentSelfs",
      "outputs": [
        {
          "internalType": "uint256",
          "name": "stuId",
          "type": "uint256"
        },
        {
          "internalType": "string",
          "name": "stuName",
          "type": "string"
        },
        {
          "internalType": "address",
          "name": "stuBlockAddress",
          "type": "address"
        },
        {
          "internalType": "uint256",
          "name": "stuAuthorization",
          "type": "uint256"
        },
        {
          "internalType": "uint256",
          "name": "isLearningSum",
          "type": "uint256"
        }
      ],
      "stateMutability": "view",
      "type": "function"
    },
    {
      "inputs": [
        {
          "internalType": "address",
          "name": "_address",
          "type": "address"
        }
      ],
      "name": "getIdByAddress",
      "outputs": [
        {
          "internalType": "uint256",
          "name": "",
          "type": "uint256"
        }
      ],
      "stateMutability": "view",
      "type": "function"
    },
    {
      "inputs": [
        {
          "internalType": "uint256",
          "name": "_stuId",
          "type": "uint256"
        }
      ],
      "name": "getStuAddressByStuId",
      "outputs": [
        {
          "internalType": "address",
          "name": "",
          "type": "address"
        }
      ],
      "stateMutability": "view",
      "type": "function"
    },
    {
      "inputs": [
        {
          "internalType": "address",
          "name": "_address",
          "type": "address"
        }
      ],
      "name": "getAuthorizationByAddress",
      "outputs": [
        {
          "internalType": "uint256",
          "name": "",
          "type": "uint256"
        }
      ],
      "stateMutability": "view",
      "type": "function"
    },
    {
      "inputs": [
        {
          "internalType": "address",
          "name": "_adminBlockAddress",
          "type": "address"
        }
      ],
      "name": "getAdminIndexByAddress",
      "outputs": [
        {
          "internalType": "uint256",
          "name": "",
          "type": "uint256"
        }
      ],
      "stateMutability": "view",
      "type": "function"
    },
    {
      "inputs": [
        {
          "internalType": "address",
          "name": "_proBlockAddress",
          "type": "address"
        }
      ],
      "name": "getProfessorIndexByAddress",
      "outputs": [
        {
          "internalType": "uint256",
          "name": "",
          "type": "uint256"
        }
      ],
      "stateMutability": "view",
      "type": "function"
    },
    {
      "inputs": [
        {
          "internalType": "address",
          "name": "_profAddr",
          "type": "address"
        }
      ],
      "name": "getProfessorNameByAddress",
      "outputs": [
        {
          "internalType": "string",
          "name": "",
          "type": "string"
        }
      ],
      "stateMutability": "view",
      "type": "function"
    },
    {
      "inputs": [
        {
          "internalType": "address",
          "name": "_stuBlockAddress",
          "type": "address"
        }
      ],
      "name": "getStudentIndexByAddress",
      "outputs": [
        {
          "internalType": "uint256",
          "name": "",
          "type": "uint256"
        }
      ],
      "stateMutability": "view",
      "type": "function"
    },
    {
      "inputs": [
        {
          "internalType": "uint256",
          "name": "_stuId",
          "type": "uint256"
        }
      ],
      "name": "getStudentNameById",
      "outputs": [
        {
          "internalType": "string",
          "name": "",
          "type": "string"
        }
      ],
      "stateMutability": "view",
      "type": "function"
    },
    {
      "inputs": [
        {
          "internalType": "uint256",
          "name": "_courseId",
          "type": "uint256"
        },
        {
          "internalType": "address",
          "name": "_stuAddress",
          "type": "address"
        }
      ],
      "name": "getStudentGradeByCourseIdAndStuAddr",
      "outputs": [
        {
          "internalType": "uint256",
          "name": "",
          "type": "uint256"
        }
      ],
      "stateMutability": "view",
      "type": "function"
    },
    {
      "inputs": [
        {
          "internalType": "address",
          "name": "_stuBlockAddress",
          "type": "address"
        }
      ],
      "name": "getStudentInfByStuAddress",
      "outputs": [
        {
          "internalType": "uint256",
          "name": "",
          "type": "uint256"
        },
        {
          "internalType": "string",
          "name": "",
          "type": "string"
        },
        {
          "internalType": "address",
          "name": "",
          "type": "address"
        },
        {
          "internalType": "uint256",
          "name": "",
          "type": "uint256"
        },
        {
          "internalType": "uint256[]",
          "name": "",
          "type": "uint256[]"
        },
        {
          "internalType": "uint256[]",
          "name": "",
          "type": "uint256[]"
        }
      ],
      "stateMutability": "view",
      "type": "function"
    },
    {
      "inputs": [],
      "name": "getAllStudentAddress",
      "outputs": [
        {
          "internalType": "address[]",
          "name": "",
          "type": "address[]"
        }
      ],
      "stateMutability": "view",
      "type": "function"
    },
    {
      "inputs": [
        {
          "internalType": "uint256",
          "name": "_courseId",
          "type": "uint256"
        }
      ],
      "name": "getIndexByCourseId",
      "outputs": [
        {
          "internalType": "uint256",
          "name": "",
          "type": "uint256"
        }
      ],
      "stateMutability": "view",
      "type": "function"
    },
    {
      "inputs": [
        {
          "internalType": "uint256",
          "name": "_courseId",
          "type": "uint256"
        }
      ],
      "name": "getCourseNameByCourseId",
      "outputs": [
        {
          "internalType": "string",
          "name": "",
          "type": "string"
        }
      ],
      "stateMutability": "view",
      "type": "function"
    },
    {
      "inputs": [],
      "name": "getAllCourseId",
      "outputs": [
        {
          "internalType": "uint256[]",
          "name": "",
          "type": "uint256[]"
        },
        {
          "internalType": "bool[]",
          "name": "",
          "type": "bool[]"
        }
      ],
      "stateMutability": "view",
      "type": "function"
    },
    {
      "inputs": [
        {
          "internalType": "uint256",
          "name": "_courseid",
          "type": "uint256"
        }
      ],
      "name": "getcourseStudentCounts",
      "outputs": [
        {
          "internalType": "uint256",
          "name": "courseStudentCounts_",
          "type": "uint256"
        }
      ],
      "stateMutability": "view",
      "type": "function"
    },
    {
      "inputs": [
        {
          "internalType": "uint256",
          "name": "_courseid",
          "type": "uint256"
        }
      ],
      "name": "getCourseInfByCourseId",
      "outputs": [
        {
          "internalType": "uint256",
          "name": "",
          "type": "uint256"
        },
        {
          "internalType": "string",
          "name": "",
          "type": "string"
        },
        {
          "internalType": "address",
          "name": "",
          "type": "address"
        },
        {
          "internalType": "uint256",
          "name": "",
          "type": "uint256"
        }
      ],
      "stateMutability": "view",
      "type": "function"
    },
    {
      "inputs": [
        {
          "internalType": "uint256",
          "name": "_courseid",
          "type": "uint256"
        }
      ],
      "name": "getCourseStudentInfByCourseId",
      "outputs": [
        {
          "internalType": "uint256[]",
          "name": "",
          "type": "uint256[]"
        },
        {
          "internalType": "address[]",
          "name": "",
          "type": "address[]"
        },
        {
          "internalType": "uint256[]",
          "name": "",
          "type": "uint256[]"
        }
      ],
      "stateMutability": "view",
      "type": "function"
    },
    {
      "inputs": [
        {
          "internalType": "uint256",
          "name": "_courseid",
          "type": "uint256"
        },
        {
          "internalType": "uint256",
          "name": "_getTops",
          "type": "uint256"
        }
      ],
      "name": "getTopStudentsByCourseId",
      "outputs": [
        {
          "internalType": "uint256",
          "name": "",
          "type": "uint256"
        },
        {
          "internalType": "uint256[]",
          "name": "",
          "type": "uint256[]"
        },
        {
          "internalType": "address[]",
          "name": "",
          "type": "address[]"
        },
        {
          "internalType": "uint256[]",
          "name": "",
          "type": "uint256[]"
        }
      ],
      "stateMutability": "view",
      "type": "function"
    },
    {
      "inputs": [
        {
          "internalType": "address",
          "name": "_proBlockAddress",
          "type": "address"
        }
      ],
      "name": "getCourseIdByProAddress",
      "outputs": [
        {
          "internalType": "uint256[]",
          "name": "",
          "type": "uint256[]"
        },
        {
          "internalType": "bool[]",
          "name": "",
          "type": "bool[]"
        }
      ],
      "stateMutability": "view",
      "type": "function"
    }
  ],
  "bytecode": "0x608060405260006001556000600355600060055560006007553480156200002557600080fd5b50336000806101000a81548173ffffffffffffffffffffffffffffffffffffffff021916908373ffffffffffffffffffffffffffffffffffffffff1602179055506040518060800160405280600181526020016040518060400160405280600481526020017f526f6f7400000000000000000000000000000000000000000000000000000000815250815260200160008054906101000a900473ffffffffffffffffffffffffffffffffffffffff1673ffffffffffffffffffffffffffffffffffffffff1681526020016003815250600260006001815260200190815260200160002060008201518160000155602082015181600101908051906020019062000130929190620001a5565b5060408201518160020160006101000a81548173ffffffffffffffffffffffffffffffffffffffff021916908373ffffffffffffffffffffffffffffffffffffffff16021790555060608201518160030155905050600160008154809291906200019a9062000295565b919050555062000341565b828054620001b3906200025f565b90600052602060002090601f016020900481019282620001d7576000855562000223565b82601f10620001f257805160ff191683800117855562000223565b8280016001018555821562000223579182015b828111156200022257825182559160200191906001019062000205565b5b50905062000232919062000236565b5090565b5b808211156200025157600081600090555060010162000237565b5090565b6000819050919050565b600060028204905060018216806200027857607f821691505b602082108114156200028f576200028e62000312565b5b50919050565b6000620002a28262000255565b91507fffffffffffffffffffffffffffffffffffffffffffffffffffffffffffffffff821415620002d857620002d7620002e3565b5b600182019050919050565b7f4e487b7100000000000000000000000000000000000000000000000000000000600052601160045260246000fd5b7f4e487b7100000000000000000000000000000000000000000000000000000000600052602260045260246000fd5b612f0e80620003516000396000f3fe608060405234801561001057600080fd5b50600436106101c35760003560e01c80637860a069116100f9578063ad9e42d911610097578063dff3b49711610071578063dff3b4971461061e578063f6aa09e41461064e578063fb3189e81461066d578063fc0c1f391461068b576101c3565b8063ad9e42d91461058e578063c5ad81de146105be578063ced3ae61146105ee576101c3565b8063982203be116100d3578063982203be146104f257806398aede55146105225780639fde094314610540578063a5cc464d1461055e576101c3565b80637860a0691461047157806390eab7a21461048f57806394e48ece146104bf576101c3565b80632b81bd8d116101665780634d953abb116101405780634d953abb146103aa57806358a42065146103da5780635e719a491461040f578063606870da1461043f576101c3565b80632b81bd8d1461031357806330e94711146103435780634d64e5ee14610376576101c3565b80630e3bfd6c116101a25780630e3bfd6c1461026257806310d756dd146102805780631643c8db146102b05780632454a939146102e3576101c3565b80624255a6146101c8578063043022fa146101fc5780630c1596b414610231575b600080fd5b6101e260048036038101906101dd919061266a565b6106a9565b6040516101f3959493929190612b8d565b60405180910390f35b6102166004803603810190610211919061266a565b610787565b60405161022896959493929190612a63565b60405180910390f35b61024b6004803603810190610246919061263d565b610878565b604051610259929190612995565b60405180910390f35b61026a610a6b565b60405161027791906129ee565b60405180910390f35b61029a6004803603810190610295919061263d565b610a71565b6040516102a791906129ee565b60405180910390f35b6102ca60048036038101906102c5919061266a565b610b13565b6040516102da9493929190612acb565b60405180910390f35b6102fd60048036038101906102f8919061263d565b610beb565b60405161030a91906129ee565b60405180910390f35b61032d6004803603810190610328919061266a565b610c8d565b60405161033a91906129cc565b60405180910390f35b61035d6004803603810190610358919061266a565b610db6565b60405161036d9493929190612acb565b60405180910390f35b610390600480360381019061038b919061266a565b610ef6565b6040516103a1959493929190612b8d565b60405180910390f35b6103c460048036038101906103bf919061263d565b610fd4565b6040516103d191906129cc565b60405180910390f35b6103f460048036038101906103ef919061263d565b611149565b60405161040696959493929190612b17565b60405180910390f35b6104296004803603810190610424919061266a565b611374565b60405161043691906129ee565b60405180910390f35b6104596004803603810190610454919061266a565b6113dc565b60405161046893929190612949565b60405180910390f35b610479611677565b60405161048691906129ee565b60405180910390f35b6104a960048036038101906104a4919061263d565b61167d565b6040516104b691906129ee565b60405180910390f35b6104d960048036038101906104d491906126d7565b61188f565b6040516104e99493929190612a09565b60405180910390f35b61050c6004803603810190610507919061266a565b611dce565b604051610519919061290c565b60405180910390f35b61052a611e5a565b604051610537919061290c565b60405180910390f35b610548611e7e565b6040516105559190612927565b60405180910390f35b6105786004803603810190610573919061263d565b611f8a565b60405161058591906129ee565b60405180910390f35b6105a860048036038101906105a3919061266a565b61202c565b6040516105b591906129ee565b60405180910390f35b6105d860048036038101906105d3919061266a565b61208d565b6040516105e591906129cc565b60405180910390f35b61060860048036038101906106039190612697565b612143565b60405161061591906129ee565b60405180910390f35b6106386004803603810190610633919061263d565b612247565b60405161064591906129ee565b60405180910390f35b610656612459565b604051610664929190612995565b60405180910390f35b610675612607565b60405161068291906129ee565b60405180910390f35b61069361260d565b6040516106a091906129ee565b60405180910390f35b60066020528060005260406000206000915090508060000154908060010180546106d290612d5d565b80601f01602080910402602001604051908101604052809291908181526020018280546106fe90612d5d565b801561074b5780601f106107205761010080835404028352916020019161074b565b820191906000526020600020905b81548152906001019060200180831161072e57829003601f168201915b5050505050908060020160009054906101000a900473ffffffffffffffffffffffffffffffffffffffff16908060030154908060050154905085565b60086020528060005260406000206000915090508060000154908060010180546107b090612d5d565b80601f01602080910402602001604051908101604052809291908181526020018280546107dc90612d5d565b80156108295780601f106107fe57610100808354040283529160200191610829565b820191906000526020600020905b81548152906001019060200180831161080c57829003601f168201915b5050505050908060020160009054906101000a900473ffffffffffffffffffffffffffffffffffffffff16908060020160149054906101000a900460ff16908060030154908060040154905086565b606080600061088684611f8a565b905060006004600083815260200190815260200160002060040180549050905060008167ffffffffffffffff8111156108c2576108c1612e65565b5b6040519080825280602002602001820160405280156108f05781602001602082028036833780820191505090505b50905060008267ffffffffffffffff81111561090f5761090e612e65565b5b60405190808252806020026020018201604052801561093d5781602001602082028036833780820191505090505b50905060005b83811015610a5b5760046000868152602001908152602001600020600401818154811061097357610972612e36565b5b906000526020600020015483828151811061099157610990612e36565b5b60200260200101818152505060006109c28483815181106109b5576109b4612e36565b5b602002602001015161202c565b905060008383815181106109d9576109d8612e36565b5b602002602001019015159081151581525050600860008281526020019081526020016000206003015460086000838152602001908152602001600020600401541415610a47576001838381518110610a3457610a33612e36565b5b6020026020010190151590811515815250505b508080610a5390612d8f565b915050610943565b5081819550955050505050915091565b60075481565b600080600190505b6001548111610b08578273ffffffffffffffffffffffffffffffffffffffff166002600083815260200190815260200160002060020160009054906101000a900473ffffffffffffffffffffffffffffffffffffffff1673ffffffffffffffffffffffffffffffffffffffff161415610af55780915050610b0e565b8080610b0090612d8f565b915050610a79565b50600090505b919050565b6002602052806000526040600020600091509050806000015490806001018054610b3c90612d5d565b80601f0160208091040260200160405190810160405280929190818152602001828054610b6890612d5d565b8015610bb55780601f10610b8a57610100808354040283529160200191610bb5565b820191906000526020600020905b815481529060010190602001808311610b9857829003601f168201915b5050505050908060020160009054906101000a900473ffffffffffffffffffffffffffffffffffffffff16908060030154905084565b600080600190505b6005548111610c82578273ffffffffffffffffffffffffffffffffffffffff166006600083815260200190815260200160002060020160009054906101000a900473ffffffffffffffffffffffffffffffffffffffff1673ffffffffffffffffffffffffffffffffffffffff161415610c6f5780915050610c88565b8080610c7a90612d8f565b915050610bf3565b50600090505b919050565b60606000600190505b6005548111610d77578260066000838152602001908152602001600020600001541415610d6457600660008281526020019081526020016000206001018054610cde90612d5d565b80601f0160208091040260200160405190810160405280929190818152602001828054610d0a90612d5d565b8015610d575780601f10610d2c57610100808354040283529160200191610d57565b820191906000526020600020905b815481529060010190602001808311610d3a57829003601f168201915b5050505050915050610db1565b8080610d6f90612d8f565b915050610c96565b506040518060400160405280600481526020017f6e756c6c0000000000000000000000000000000000000000000000000000000081525090505b919050565b600060606000806000610dc88661202c565b90506000600860008381526020019081526020016000206000015490506000600860008481526020019081526020016000206001018054610e0890612d5d565b80601f0160208091040260200160405190810160405280929190818152602001828054610e3490612d5d565b8015610e815780601f10610e5657610100808354040283529160200191610e81565b820191906000526020600020905b815481529060010190602001808311610e6457829003601f168201915b5050505050905060006008600085815260200190815260200160002060020160009054906101000a900473ffffffffffffffffffffffffffffffffffffffff16905060006008600086815260200190815260200160002060040154905083838383985098509850985050505050509193509193565b6004602052806000526040600020600091509050806000015490806001018054610f1f90612d5d565b80601f0160208091040260200160405190810160405280929190818152602001828054610f4b90612d5d565b8015610f985780601f10610f6d57610100808354040283529160200191610f98565b820191906000526020600020905b815481529060010190602001808311610f7b57829003601f168201915b5050505050908060020160009054906101000a900473ffffffffffffffffffffffffffffffffffffffff16908060030154908060050154905085565b60606000600190505b600354811161110a578273ffffffffffffffffffffffffffffffffffffffff166004600083815260200190815260200160002060020160009054906101000a900473ffffffffffffffffffffffffffffffffffffffff1673ffffffffffffffffffffffffffffffffffffffff1614156110f75760046000828152602001908152602001600020600101805461107190612d5d565b80601f016020809104026020016040519081016040528092919081815260200182805461109d90612d5d565b80156110ea5780601f106110bf576101008083540402835291602001916110ea565b820191906000526020600020905b8154815290600101906020018083116110cd57829003601f168201915b5050505050915050611144565b808061110290612d8f565b915050610fdd565b506040518060400160405280600481526020017f6e756c6c0000000000000000000000000000000000000000000000000000000081525090505b919050565b60006060600080606080600061115e88610beb565b9050600060066000838152602001908152602001600020600001549050600060066000848152602001908152602001600020600101805461119e90612d5d565b80601f01602080910402602001604051908101604052809291908181526020018280546111ca90612d5d565b80156112175780601f106111ec57610100808354040283529160200191611217565b820191906000526020600020905b8154815290600101906020018083116111fa57829003601f168201915b5050505050905060006006600085815260200190815260200160002060030154905060006006600086815260200190815260200160002060040180548060200260200160405190810160405280929190818152602001828054801561129b57602002820191906000526020600020905b815481526020019060010190808311611287575b505050505090506000815167ffffffffffffffff8111156112bf576112be612e65565b5b6040519080825280602002602001820160405280156112ed5781602001602082028036833780820191505090505b50905060005b82518110156113525761132083828151811061131257611311612e36565b5b60200260200101518f612143565b82828151811061133357611332612e36565b5b602002602001018181525050808061134a90612d8f565b9150506112f3565b5084848e8585859b509b509b509b509b509b5050505050505091939550919395565b600080600190505b60075481116113d55782600860008381526020019081526020016000206000015414156113c25760086000828152602001908152602001600020600401549150506113d7565b80806113cd90612d8f565b91505061137c565b505b919050565b606080606060006113ec8561202c565b905060006008600083815260200190815260200160002060040154905060008167ffffffffffffffff81111561142557611424612e65565b5b6040519080825280602002602001820160405280156114535781602001602082028036833780820191505090505b50905060008267ffffffffffffffff81111561147257611471612e65565b5b6040519080825280602002602001820160405280156114a05781602001602082028036833780820191505090505b50905060008367ffffffffffffffff8111156114bf576114be612e65565b5b6040519080825280602002602001820160405280156114ed5781602001602082028036833780820191505090505b5090506000600190505b8481116116615760086000878152602001908152602001600020600501600082815260200190815260200160002060000160009054906101000a900473ffffffffffffffffffffffffffffffffffffffff16846001836115579190612cae565b8151811061156857611567612e36565b5b602002602001019073ffffffffffffffffffffffffffffffffffffffff16908173ffffffffffffffffffffffffffffffffffffffff168152505060086000878152602001908152602001600020600501600082815260200190815260200160002060010154836001836115db9190612cae565b815181106115ec576115eb612e36565b5b60200260200101818152505060086000878152602001908152602001600020600501600082815260200190815260200160002060020154826001836116319190612cae565b8151811061164257611641612e36565b5b602002602001018181525050808061165990612d8f565b9150506114f7565b5081838297509750975050505050509193909250565b60035481565b600080600190505b600154811161172a578273ffffffffffffffffffffffffffffffffffffffff166002600083815260200190815260200160002060020160009054906101000a900473ffffffffffffffffffffffffffffffffffffffff1673ffffffffffffffffffffffffffffffffffffffff16141561171757600260008281526020019081526020016000206003015491505061188a565b808061172290612d8f565b915050611685565b506000600190505b60035481116117d7578273ffffffffffffffffffffffffffffffffffffffff166004600083815260200190815260200160002060020160009054906101000a900473ffffffffffffffffffffffffffffffffffffffff1673ffffffffffffffffffffffffffffffffffffffff1614156117c457600460008281526020019081526020016000206003015491505061188a565b80806117cf90612d8f565b915050611732565b506000600190505b6005548111611884578273ffffffffffffffffffffffffffffffffffffffff166006600083815260200190815260200160002060020160009054906101000a900473ffffffffffffffffffffffffffffffffffffffff1673ffffffffffffffffffffffffffffffffffffffff16141561187157600660008281526020019081526020016000206003015491505061188a565b808061187c90612d8f565b9150506117df565b50600090505b919050565b6000606080606060008590506000806118a78961202c565b9050600060086000838152602001908152602001600020600401549050838110156118d0578093505b60008167ffffffffffffffff8111156118ec576118eb612e65565b5b60405190808252806020026020018201604052801561191a5781602001602082028036833780820191505090505b5090506000600190505b8281116119d65760006008600086815260200190815260200160002060050160008381526020019081526020016000206002015411156119c35760086000858152602001908152602001600020600501600082815260200190815260200160002060020154826001836119979190612cae565b815181106119a8576119a7612e36565b5b60200260200101818152505084806119bf90612d8f565b9550505b80806119ce90612d8f565b915050611924565b50848410156119e3578394505b60005b8151811015611b01576000600190505b8251811015611aed5782600182611a0d9190612cae565b81518110611a1e57611a1d612e36565b5b6020026020010151838281518110611a3957611a38612e36565b5b60200260200101511115611ada57600083600183611a579190612cae565b81518110611a6857611a67612e36565b5b60200260200101519050838281518110611a8557611a84612e36565b5b602002602001015184600184611a9b9190612cae565b81518110611aac57611aab612e36565b5b60200260200101818152505080848381518110611acc57611acb612e36565b5b602002602001018181525050505b8080611ae590612d8f565b9150506119f6565b508080611af990612d8f565b9150506119e6565b5060008567ffffffffffffffff811115611b1e57611b1d612e65565b5b604051908082528060200260200182016040528015611b4c5781602001602082028036833780820191505090505b50905060008667ffffffffffffffff811115611b6b57611b6a612e65565b5b604051908082528060200260200182016040528015611b995781602001602082028036833780820191505090505b50905060008767ffffffffffffffff811115611bb857611bb7612e65565b5b604051908082528060200260200182016040528015611be65781602001602082028036833780820191505090505b5090506000805b8551811015611daf5789821415611c0357611daf565b858181518110611c1657611c15612e36565b5b6020026020010151838281518110611c3157611c30612e36565b5b6020026020010181815250506000600190505b878111611d8d57600860008a8152602001908152602001600020600501600082815260200190815260200160002060020154848381518110611c8957611c88612e36565b5b60200260200101511415611d7a57600860008a8152602001908152602001600020600501600082815260200190815260200160002060010154858381518110611cd557611cd4612e36565b5b602002602001018181525050600860008a8152602001908152602001600020600501600082815260200190815260200160002060000160009054906101000a900473ffffffffffffffffffffffffffffffffffffffff16868381518110611d3f57611d3e612e36565b5b602002602001019073ffffffffffffffffffffffffffffffffffffffff16908173ffffffffffffffffffffffffffffffffffffffff16815250505b8080611d8590612d8f565b915050611c44565b508180611d9990612d8f565b9250508080611da790612d8f565b915050611bed565b50888385849c509c509c509c5050505050505050505092959194509250565b600080600190505b6005548111611e4f578260066000838152602001908152602001600020600001541415611e3c576006600082815260200190815260200160002060020160009054906101000a900473ffffffffffffffffffffffffffffffffffffffff16915050611e55565b8080611e4790612d8f565b915050611dd6565b50600090505b919050565b60008054906101000a900473ffffffffffffffffffffffffffffffffffffffff1681565b6060600060055467ffffffffffffffff811115611e9e57611e9d612e65565b5b604051908082528060200260200182016040528015611ecc5781602001602082028036833780820191505090505b5090506000600190505b6005548111611f82576006600082815260200190815260200160002060020160009054906101000a900473ffffffffffffffffffffffffffffffffffffffff1682600183611f249190612cae565b81518110611f3557611f34612e36565b5b602002602001019073ffffffffffffffffffffffffffffffffffffffff16908173ffffffffffffffffffffffffffffffffffffffff16815250508080611f7a90612d8f565b915050611ed6565b508091505090565b600080600190505b6003548111612021578273ffffffffffffffffffffffffffffffffffffffff166004600083815260200190815260200160002060020160009054906101000a900473ffffffffffffffffffffffffffffffffffffffff1673ffffffffffffffffffffffffffffffffffffffff16141561200e5780915050612027565b808061201990612d8f565b915050611f92565b50600090505b919050565b600080600090506000600190505b600754811161208157836008600083815260200190815260200160002060000154141561206e578091508192505050612088565b808061207990612d8f565b91505061203a565b5060009150505b919050565b6060600061209a8361202c565b90506008600082815260200190815260200160002060010180546120bd90612d5d565b80601f01602080910402602001604051908101604052809291908181526020018280546120e990612d5d565b80156121365780601f1061210b57610100808354040283529160200191612136565b820191906000526020600020905b81548152906001019060200180831161211957829003601f168201915b5050505050915050919050565b60008061214f8461202c565b90506000600190505b6008600083815260200190815260200160002060040154811161223a578373ffffffffffffffffffffffffffffffffffffffff1660086000848152602001908152602001600020600501600083815260200190815260200160002060000160009054906101000a900473ffffffffffffffffffffffffffffffffffffffff1673ffffffffffffffffffffffffffffffffffffffff161415612227576008600083815260200190815260200160002060050160008281526020019081526020016000206002015492505050612241565b808061223290612d8f565b915050612158565b5060009150505b92915050565b600080600190505b60015481116122f4578273ffffffffffffffffffffffffffffffffffffffff166002600083815260200190815260200160002060020160009054906101000a900473ffffffffffffffffffffffffffffffffffffffff1673ffffffffffffffffffffffffffffffffffffffff1614156122e1576002600082815260200190815260200160002060000154915050612454565b80806122ec90612d8f565b91505061224f565b506000600190505b60035481116123a1578273ffffffffffffffffffffffffffffffffffffffff166004600083815260200190815260200160002060020160009054906101000a900473ffffffffffffffffffffffffffffffffffffffff1673ffffffffffffffffffffffffffffffffffffffff16141561238e576004600082815260200190815260200160002060000154915050612454565b808061239990612d8f565b9150506122fc565b506000600190505b600554811161244e578273ffffffffffffffffffffffffffffffffffffffff166006600083815260200190815260200160002060020160009054906101000a900473ffffffffffffffffffffffffffffffffffffffff1673ffffffffffffffffffffffffffffffffffffffff16141561243b576006600082815260200190815260200160002060000154915050612454565b808061244690612d8f565b9150506123a9565b50600090505b919050565b606080600060075467ffffffffffffffff81111561247a57612479612e65565b5b6040519080825280602002602001820160405280156124a85781602001602082028036833780820191505090505b509050600060075467ffffffffffffffff8111156124c9576124c8612e65565b5b6040519080825280602002602001820160405280156124f75781602001602082028036833780820191505090505b5090506000600190505b60075481116125fa5760086000828152602001908152602001600020600001548360018361252f9190612cae565b815181106125405761253f612e36565b5b60200260200101818152505060008260018361255c9190612cae565b8151811061256d5761256c612e36565b5b6020026020010190151590811515815250506008600082815260200190815260200160002060030154600860008381526020019081526020016000206004015414156125e7576001826001836125c39190612cae565b815181106125d4576125d3612e36565b5b6020026020010190151590811515815250505b80806125f290612d8f565b915050612501565b5081819350935050509091565b60055481565b60015481565b60008135905061262281612eaa565b92915050565b60008135905061263781612ec1565b92915050565b60006020828403121561265357612652612e94565b5b600061266184828501612613565b91505092915050565b6000602082840312156126805761267f612e94565b5b600061268e84828501612628565b91505092915050565b600080604083850312156126ae576126ad612e94565b5b60006126bc85828601612628565b92505060206126cd85828601612613565b9150509250929050565b600080604083850312156126ee576126ed612e94565b5b60006126fc85828601612628565b925050602061270d85828601612628565b9150509250929050565b6000612723838361275f565b60208301905092915050565b600061273b8383612897565b60208301905092915050565b600061275383836128ee565b60208301905092915050565b61276881612ce2565b82525050565b61277781612ce2565b82525050565b600061278882612c17565b6127928185612c6a565b935061279d83612be7565b8060005b838110156127ce5781516127b58882612717565b97506127c083612c43565b9250506001810190506127a1565b5085935050505092915050565b60006127e682612c22565b6127f08185612c7b565b93506127fb83612bf7565b8060005b8381101561282c578151612813888261272f565b975061281e83612c50565b9250506001810190506127ff565b5085935050505092915050565b600061284482612c2d565b61284e8185612c8c565b935061285983612c07565b8060005b8381101561288a5781516128718882612747565b975061287c83612c5d565b92505060018101905061285d565b5085935050505092915050565b6128a081612cf4565b82525050565b6128af81612cf4565b82525050565b60006128c082612c38565b6128ca8185612c9d565b93506128da818560208601612d2a565b6128e381612e99565b840191505092915050565b6128f781612d20565b82525050565b61290681612d20565b82525050565b6000602082019050612921600083018461276e565b92915050565b60006020820190508181036000830152612941818461277d565b905092915050565b600060608201905081810360008301526129638186612839565b90508181036020830152612977818561277d565b9050818103604083015261298b8184612839565b9050949350505050565b600060408201905081810360008301526129af8185612839565b905081810360208301526129c381846127db565b90509392505050565b600060208201905081810360008301526129e681846128b5565b905092915050565b6000602082019050612a0360008301846128fd565b92915050565b6000608082019050612a1e60008301876128fd565b8181036020830152612a308186612839565b90508181036040830152612a44818561277d565b90508181036060830152612a588184612839565b905095945050505050565b600060c082019050612a7860008301896128fd565b8181036020830152612a8a81886128b5565b9050612a99604083018761276e565b612aa660608301866128a6565b612ab360808301856128fd565b612ac060a08301846128fd565b979650505050505050565b6000608082019050612ae060008301876128fd565b8181036020830152612af281866128b5565b9050612b01604083018561276e565b612b0e60608301846128fd565b95945050505050565b600060c082019050612b2c60008301896128fd565b8181036020830152612b3e81886128b5565b9050612b4d604083018761276e565b612b5a60608301866128fd565b8181036080830152612b6c8185612839565b905081810360a0830152612b808184612839565b9050979650505050505050565b600060a082019050612ba260008301886128fd565b8181036020830152612bb481876128b5565b9050612bc3604083018661276e565b612bd060608301856128fd565b612bdd60808301846128fd565b9695505050505050565b6000819050602082019050919050565b6000819050602082019050919050565b6000819050602082019050919050565b600081519050919050565b600081519050919050565b600081519050919050565b600081519050919050565b6000602082019050919050565b6000602082019050919050565b6000602082019050919050565b600082825260208201905092915050565b600082825260208201905092915050565b600082825260208201905092915050565b600082825260208201905092915050565b6000612cb982612d20565b9150612cc483612d20565b925082821015612cd757612cd6612dd8565b5b828203905092915050565b6000612ced82612d00565b9050919050565b60008115159050919050565b600073ffffffffffffffffffffffffffffffffffffffff82169050919050565b6000819050919050565b60005b83811015612d48578082015181840152602081019050612d2d565b83811115612d57576000848401525b50505050565b60006002820490506001821680612d7557607f821691505b60208210811415612d8957612d88612e07565b5b50919050565b6000612d9a82612d20565b91507fffffffffffffffffffffffffffffffffffffffffffffffffffffffffffffffff821415612dcd57612dcc612dd8565b5b600182019050919050565b7f4e487b7100000000000000000000000000000000000000000000000000000000600052601160045260246000fd5b7f4e487b7100000000000000000000000000000000000000000000000000000000600052602260045260246000fd5b7f4e487b7100000000000000000000000000000000000000000000000000000000600052603260045260246000fd5b7f4e487b7100000000000000000000000000000000000000000000000000000000600052604160045260246000fd5b600080fd5b6000601f19601f8301169050919050565b612eb381612ce2565b8114612ebe57600080fd5b50565b612eca81612d20565b8114612ed557600080fd5b5056fea2646970667358221220367e70c5e028837ce080629f09f10ce85d0f59eaeb8d09e79b750d386553d79d64736f6c63430008070033",
  "immutableReferences": {},
  "source": "// SPDX-License-Identifier: MIT\npragma solidity >=0.4.22 <0.9.0;\n\n/*\n\n1. :  Save the permission structure of the current address\n    AdminSelf,  ProfessorSelf,  StudentSelf\n\n2. : Save course details\n    CourseInf,  CourseStudent\n\n3. modifier function\n    onlyAdmin,  onlyProfessor,  checkIsStudent\n\n\n/////////////////////////////////////////////////////////////////////////////////////////////////////////////////\n/////////////////////////////////////////////////////////////////////////////////////////////////////////////////\n\n4.1. setter function\n\n    setcourseStudentCounts          // course id(,,)\n                                    // Set the number of students with the course ID (called once when the student joins the course)\n\n\n/////////////////////////////////////////////////////////////////////////////////////////////////////////////////\n/////////////////////////////////////////////////////////////////////////////////////////////////////////////////\n\n4.2 getter function\n\n    getMsgSender                    // msg.sender\n    \n    getMsgSenderAuthorization       // msg.sender\n\n    ==> getIdByAddress()            // addressid , Find this person's id through address\n\n    ==> getStuAddressByStuId()            // ID  ,  Find this person's address by ID\n\n    getAuthorizationByAddress()     // addressauthorization , Find this person's authorization through address\n\n/////////////////////////////////////////////////////////////////////////////////////////////////////////////////\n\n// getter about admin\n    getAdminCounts()                // \n    getAdminIndexByAddress()        //  address adminindex , Find the index in admin by address\n\n/////////////////////////////////////////////////////////////////////////////////////////////////////////////////\n\n// getter about professor\n    getProfessorCounts()            // \n    getProfessorIndexByAddress()    //  address professorindex , Find the index in the professor by address\n    getProfessorInfByProAddress()   // proAddresspro\n\n/////////////////////////////////////////////////////////////////////////////////////////////////////////////////\n\n// getter about student\n    getStudentCounts()              // \n    getStudentIndexByAddress()      //  address studentindex  ,Find the index in the student by address\n    getStudentNameByAddress()\n    getStudentNameById()\n    getStudentInfByStuAddress()     // stuAddressstu\n\n/////////////////////////////////////////////////////////////////////////////////////////////////////////////////\n\n// getter about course\n\n    // about all course\n    getIndexByCourseId              // course id    Get the index of this course by course ID\n \n    getAllCourseId()                // course id\n\n    getcourseStudentCounts          // course id  The number of students to get the course ID\n\n    getCourseCounts()               // courseCounts  Return the current courseCounts value\n\n    getCourseStudentsByCourseId()   // course id\n\n    getCourseInfByCourseId()        // course id\n\n    getTopStudentsByCourseId()      // course idn\n\n\n    // pro\n    getCourseCountsByProAddress()   //   Get a few courses taught by a certain teacher\n\n    getCourseIdByProAddress()       // proAddressid   Get an array of all course IDs opened by a teacher through proAddress\n\n\n    // stu\n    getCourseCountsByStuAddress()   // \n\n    getCourseIdByStuAddress()       // stuAddressid   Get an array of all course IDs opened by a student through stuAddress\n\n\n\n/////////////////////////////////////////////////////////////////////////////////////////////////////////////////\n/////////////////////////////////////////////////////////////////////////////////////////////////////////////////\n\n4.3. check function\n\n    checkIdExisted()                // id         Verify that this ID has been used\n\n    checkAddressExisted()           // address    Verify that this address has been used\n\n    ////// check course\n\n    checkCourseCanApply             // course id \n                                    // Check the course ID to see if you can apply for this course\n\n    checkCourseExisted              // course id \n                                    // Check if this course exists by course ID\n\n    checkCourseHeldByProBlockAddress        // courseId,proBlockAddress \n                                            // Check whether the professor owns the course through courseId,proId\n\n    checkCourseHeldByStuBlockAddress        // courseId,stuBlockAddress \n                                            // Through courseId,stuId checks whether the student owns the course\n\n    \n*/\n\n\n\ncontract StructAndModifiers{\n\n    address public modifiersOwner;   // \n\n    constructor() {\n        modifiersOwner = msg.sender;\n        adminSelfs[1] = AdminSelf(1,'Root',modifiersOwner,3);\n        adminCounts++;\n    }\n\n//// Struct\n\n    ////////////\n    // admin //\n    ///////////\n    uint public adminCounts = 0; //\n    struct AdminSelf{\n        uint adminId;               // \n        string adminName;           //\n        address adminBlockAddress;  // \n        uint adminAuthorization;    // = 3\n    }\n    mapping(uint => AdminSelf)public adminSelfs; //\n    \n    ///////////////\n    // professor //\n    ///////////////\n    uint public professorCounts = 0; //\n    struct ProfessorSelf{\n        uint proId;               // \n        string proName;           //\n        address proBlockAddress;  // \n        uint proAuthorization;    // = 2\n        uint[] myProCourses;          //    Save the class you created\n        // ,    \n        // , +1 \n        // ,,-1   \n        // 0\n        // 0\n        /* \n            Judge whether the teacher is teaching, and the teacher who is teaching cannot be arbitrarily deprived of his authority,\n            When the teacher creates a course, when each student applies, + 1\n            When the teacher gives the student the score of a course, it indicates the end of a course, then - 1\n            When it is 0, it means that no course is taught\n            Initial 0\n        */\n        uint isTeachingPeopleSum;          \n    }\n    mapping(uint => ProfessorSelf)public professorSelfs; //\n    \n    /////////////\n    // student //\n    /////////////\n    uint public studentCounts = 0; //\n    struct StudentSelf{\n        uint stuId;               // \n        string stuName;           //\n        address stuBlockAddress;  // \n        uint stuAuthorization;    // = 1\n        uint[] myStuCourses;      //  Save the lesson I'm taking\n        //string[] myStuCourseNames;\n        //uint[] myStuCoursesGrades;\n        // , \n        // +1,, -1\n        // 0\n        // 0\n        /*\n            Judge whether students are in class. Students in class cannot be removed at will\n            When students join a course, they will + 1. When students get a grade, it means that a course ends, then - 1\n            If it is 0, it means that you have not studied a course\n            Initial 0\n        */\n        uint isLearningSum;         \n    }\n    \n    mapping(uint => StudentSelf)public studentSelfs; // \n    \n    /*\n    /////////////\n    // course  //\n    /////////////\n    \n    1.                       Record course information\n    2. ()    Record score information (only teachers can modify it)\n    \n    \n    */\n    \n    uint public courseCounts = 0;\n        \n    //  Course student information\n    struct CourseStudent{\n        address stuBlockAddress;\n        uint stuId;\n        //string stuName;\n        uint stuGrade;\n    }\n\n    // Course information\n    struct CourseInf{\n        uint courseId;          //\n        string courseName;      //\n        address proBlockAddress;\n        bool canApply;          // , \n        uint gotStudentGradeCounts;\n        uint courseStudentCounts;  // \n        mapping (uint => CourseStudent) courseStudents;  // \n    }\n    \n    mapping (uint => CourseInf) public courseInfs;//Course information index\n    \n    \n\n//////////////////////////////////////////////////////////////  \n//////////////////////////////////////////////////////////////  \n/////////////////////////////// modifier function\n    \n    // onlyAdmin\n    modifier onlyAdmin() {\n        bool isAdmin = false;\n        for (uint256 i = 0; i <= adminCounts; i++) {\n            if(msg.sender == adminSelfs[i].adminBlockAddress){                \n                isAdmin = true;\n            }\n        }\n        require(isAdmin,\">>>>>>isAdmin = false\");\n        _;\n    }\n\n    \n    // onlyProfessor\n    modifier onlyProfessor() {\n        bool isProfessor = false;\n        for (uint256 i = 0; i <= professorCounts; i++) {  \n            if(msg.sender == professorSelfs[i].proBlockAddress){               \n                isProfessor = true;\n            }\n        }\n        require(isProfessor,\"isProfessor = false\");\n        _;\n    }\n/*   \n    // \n    function checkIsStudent(address _stuBlockAddress) internal view returns(bool){\n        for (uint i = 0; i <= studentCounts; i++) {   \n            if( _stuBlockAddress == studentSelfs[i].stuBlockAddress){                \n                return true;\n            }\n        }\n        return false;\n    }\n*/    \n    \n  \n//////////////////////////////////////////////////////////////  \n//////////////////////////////////////////////////////////////  \n///////////////////////////////  4.1. setter function\n\n\n    // course id Number of students setting course ID\n    // ,  Call once when students join the course\n    function setcourseStudentCounts(uint _courseid) internal {\n        for(uint i=1;i<=courseCounts;i++){\n            if(courseInfs[i].courseId == _courseid){\n                courseInfs[i].courseStudentCounts++; // ,  Call once, add one person\n            }\n        }\n    }\n    \n\n//////////////////////////////////////////////////////////////  \n//////////////////////////////////////////////////////////////  \n///////////////////////////////  4.2. getter function\n\n/*\n    // msg.sender\n    function getMsgSender() public view returns(address){\n        return msg.sender;\n    }\n\n    // msg.sender\n    function getMsgSenderAuthorization() public view returns(uint){\n        for(uint i=1;i<=adminCounts;i++){\n            if(adminSelfs[i].adminBlockAddress == msg.sender)\n                return adminSelfs[i].adminAuthorization;\n        }\n        for(uint i=1;i<=professorCounts;i++){\n            if(professorSelfs[i].proBlockAddress == msg.sender)\n                return professorSelfs[i].proAuthorization;\n        }\n        for(uint i=1;i<=studentCounts;i++){\n            if(studentSelfs[i].stuBlockAddress == msg.sender)\n                return studentSelfs[i].stuAuthorization;\n        }\n        return 0;\n    }\n*/\n\n    // addressid , Find this person's id through address\n    function getIdByAddress(address _address) public view returns(uint){\n        for(uint i=1;i<=adminCounts;i++){\n            if(adminSelfs[i].adminBlockAddress == _address)\n                return adminSelfs[i].adminId;\n        }\n        for(uint i=1;i<=professorCounts;i++){\n            if(professorSelfs[i].proBlockAddress == _address)\n                return professorSelfs[i].proId;\n        }\n        for(uint i=1;i<=studentCounts;i++){\n            if(studentSelfs[i].stuBlockAddress == _address)\n                return studentSelfs[i].stuId;\n        }\n        return 0; //\n    }\n \n    \n    // stuID  ,  Find this person's address by ID\n    function getStuAddressByStuId(uint _stuId) public view returns(address){\n        for(uint i=1;i<=studentCounts;i++){\n            if(studentSelfs[i].stuId == _stuId)\n                return studentSelfs[i].stuBlockAddress;\n        }\n        return address(0x0);\n        \n    }\n\n\n    // addressauthorization , Find this person's authorization through address\n    function getAuthorizationByAddress(address _address) public view returns(uint){\n        for(uint i=1;i<=adminCounts;i++){\n            if(adminSelfs[i].adminBlockAddress == _address)\n                return adminSelfs[i].adminAuthorization;\n        }\n        for(uint i=1;i<=professorCounts;i++){\n            if(professorSelfs[i].proBlockAddress == _address)\n                return professorSelfs[i].proAuthorization;\n        }\n        for(uint i=1;i<=studentCounts;i++){\n            if(studentSelfs[i].stuBlockAddress == _address)\n                return studentSelfs[i].stuAuthorization;\n        }\n        return 0; //\n    }\n\n/*\n    // address idnameauthorizationaddress\n    function getPersonInfByAddress(address _address) public view returns(uint,string memory,uint){\n        for(uint i=1;i<=adminCounts;i++){\n            if(adminSelfs[i].adminBlockAddress == _address)\n                return (adminSelfs[i].adminId,adminSelfs[i].adminName,adminSelfs[i].adminAuthorization);\n        }\n        for(uint i=1;i<=professorCounts;i++){\n            if(professorSelfs[i].proBlockAddress == _address)\n                return (professorSelfs[i].proId,professorSelfs[i].proName,professorSelfs[i].proAuthorization);\n        }\n        for(uint i=1;i<=studentCounts;i++){\n            if(studentSelfs[i].stuBlockAddress == _address)\n                return (studentSelfs[i].stuId,studentSelfs[i].stuName,studentSelfs[i].stuAuthorization);\n        }\n        return (0,'null',0); //\n    }\n*/\n\n/////////////////////////////////////////////////////////////////////////////////////////////////////////////////\n\n// getter about admin\n\n\n    //  address adminindex , Find the index in admin by ID\n    function getAdminIndexByAddress(address _adminBlockAddress) public view returns(uint){\n        for(uint i=1;i<=adminCounts;i++){\n            if(adminSelfs[i].adminBlockAddress ==_adminBlockAddress) {\n                return i;  // \n            }    \n        }\n        return 0; // \n    }\n    \n\n/////////////////////////////////////////////////////////////////////////////////////////////////////////////////\n\n// getter about professor\n\n    //  address professorindex , Find the index in the professor by ID\n    function getProfessorIndexByAddress(address _proBlockAddress) public view returns(uint){\n        for(uint i=1;i<=professorCounts;i++){\n            if(professorSelfs[i].proBlockAddress ==_proBlockAddress) {\n                return i;  // \n            }    \n        }\n        return 0; // \n    }\n\n    function getProfessorNameByAddress(address _profAddr) public view returns(string memory){\n        for(uint i=1; i<=professorCounts; i++){\n            if(professorSelfs[i].proBlockAddress == _profAddr) {\n                return professorSelfs[i].proName; \n            }    \n        }\n        return 'null';      \n    }\n\n/*\n    // proAddresspro\n    function getProfessorInfByProAddress(address _proBlockAddress) public view returns(uint,string memory,address,uint,uint[] memory ){\n        // proIndex\n        uint proIndex = getProfessorIndexByAddress(_proBlockAddress);\n        //  proId,proName,proBlockAddress,proAuthorization,myProCourses\n        uint proId_ = professorSelfs[proIndex].proId;\n        string memory proName_ = professorSelfs[proIndex].proName;\n        address proBlockAddress_ = professorSelfs[proIndex].proBlockAddress;\n        uint proAuthorization_ = professorSelfs[proIndex].proAuthorization;\n        uint[] memory myProCourses_ = getCourseIdByProAddress(_proBlockAddress);\n        // return\n        return (proId_,proName_,proBlockAddress_,proAuthorization_,myProCourses_);\n    }\n\n\n    // \n    function getAllProfessorAddress() public view returns(address[] memory){\n        address[] memory allProfessorAddress_ = new address[](professorCounts);\n        for(uint i=1;i<=professorCounts;i++){\n            allProfessorAddress_[i-1] = professorSelfs[i].proBlockAddress;\n        }\n        return allProfessorAddress_;\n    }\n*/\n\n/*\n    // ID\n    function getAllProfessorId() public view returns(uint[] memory){\n        uint[] memory allProfessorId_ = new uint[](professorCounts);\n        for(uint i=1;i<=professorCounts;i++){\n            allProfessorId_[i-1] = professorSelfs[i].proId;\n        }\n        return allProfessorId_;\n    }\n*/\n/////////////////////////////////////////////////////////////////////////////////////////////////////////////////\n\n// getter about student\n\n    //  address studentindex  ,Find the index in the student by ID\n    function getStudentIndexByAddress(address _stuBlockAddress) public view returns(uint){\n        for(uint i=1;i<=studentCounts;i++){\n            if(studentSelfs[i].stuBlockAddress ==_stuBlockAddress) {\n                return i;  // \n            }    \n        }\n        return 0; // \n    }\n\n/*\n    //  address\n    function getStudentNameByAddress(address _stuBlockAddress) public view returns(string memory){\n        for(uint i=1;i<=studentCounts;i++){\n            if(studentSelfs[i].stuBlockAddress ==_stuBlockAddress) {\n                return studentSelfs[i].stuName; // \n            }    \n        }\n        return 'null';      \n    }\n*/\n\n    //  id\n    function getStudentNameById(uint _stuId) public view returns(string memory){\n        for(uint i=1;i<=studentCounts;i++){\n            if(studentSelfs[i].stuId == _stuId) {\n                return studentSelfs[i].stuName; // \n            }    \n        }\n        return 'null';      \n    }\n\n\n    // course id\n    function getStudentGradeByCourseIdAndStuAddr(uint _courseId,address _stuAddress) public view returns(uint){\n        // \n        uint courseIdx = getIndexByCourseId(_courseId);\n        // \n        for(uint i = 1; i <= courseInfs[courseIdx].courseStudentCounts; i++){\n            if( courseInfs[courseIdx].courseStudents[i].stuBlockAddress == _stuAddress){\n                return courseInfs[courseIdx].courseStudents[i].stuGrade;\n            }\n        }\n        return 0;\n    }\n\n    // stuAddressstu\n    function getStudentInfByStuAddress(address _stuBlockAddress) public view returns(uint,string memory,address,uint,uint[] memory,uint[] memory ){\n        // stuIndex\n        uint stuIndex = getStudentIndexByAddress(_stuBlockAddress);\n        //  stuId,stuName,stuBlockAddress,stuAuthorization,myStuCourses\n        uint stuId_ = studentSelfs[stuIndex].stuId;\n        string memory stuName_ = studentSelfs[stuIndex].stuName;\n        //address stuBlockAddress_ = studentSelfs[stuIndex].stuBlockAddress;\n        uint stuAuthorization_ = studentSelfs[stuIndex].stuAuthorization;\n\n        uint[] memory myStuCourses_ = studentSelfs[stuIndex].myStuCourses;\n        //uint[] memory myStuCourses_ = getCourseIdByStuAddress(_stuBlockAddress);\n        \n        \n        // \n        //phot\n        uint[] memory myStuCoursesGrades_ = new uint[](myStuCourses_.length);\n        for(uint i = 0; i < myStuCourses_.length; i++){\n            myStuCoursesGrades_[i] = getStudentGradeByCourseIdAndStuAddr(myStuCourses_[i], _stuBlockAddress);\n        }\n        \n        // courseName, ,\n        // myStuCourses_ getCourseNameByCourseId()courseName\n\n        // return\n        return (stuId_,stuName_,_stuBlockAddress,stuAuthorization_,myStuCourses_,myStuCoursesGrades_);\n    }\n\n    \n\n\n\n\n    // \n    function getAllStudentAddress() public view returns(address[] memory){\n        address[] memory allStudentAddress_ = new address[](studentCounts);\n        for(uint i=1;i<=studentCounts;i++){\n            allStudentAddress_[i-1] = studentSelfs[i].stuBlockAddress;\n        }\n        return allStudentAddress_;\n    }\n\n/*\n    // ID\n    function getAllStudentId() public view returns(uint[] memory){\n        uint[] memory allStudentId_ = new uint[](studentCounts);\n        for(uint i=1;i<=studentCounts;i++){\n            allStudentId_[i-1] = studentSelfs[i].stuId;\n        }\n        return allStudentId_;\n    }\n*/\n\n /////////////////////////////////////////////////////////////////////////////////////////////////////////////////\n\n// getter about course\n\n    // about all course\n\n    // course id  Get the index of this course through course ID\n    function getIndexByCourseId(uint _courseId) public view returns(uint){\n        //   Find the course first\n        uint indexOfCourseID = 0;\n        for(uint i=1;i<=courseCounts;i++){\n            if(courseInfs[i].courseId == _courseId){\n                indexOfCourseID = i;\n                return indexOfCourseID;\n            }\n        }\n        return 0;\n    }\n\n    // course id course name\n    function getCourseNameByCourseId(uint _courseId) public view returns(string memory){\n        //   Find the course first\n        uint indexOfCourseID = getIndexByCourseId(_courseId);\n        return courseInfs[indexOfCourseID].courseName;\n    }\n\n\n    // course id\n    function getAllCourseId() public view returns(uint[] memory, bool[] memory){\n        uint [] memory allCourseId_ = new uint[](courseCounts);\n        bool [] memory isCourseEnded = new bool[](courseCounts);\n\n        for(uint i=1; i<=courseCounts; i++){\n            allCourseId_[i-1] = courseInfs[i].courseId;\n            isCourseEnded[i-1] = false;\n\n            if(courseInfs[i].courseStudentCounts == courseInfs[i].gotStudentGradeCounts){\n                isCourseEnded[i-1] = true;\n            }\n        }\n\n        return (allCourseId_, isCourseEnded);\n    }\n\n\n    // course id  Number of students who get course ID\n    function getcourseStudentCounts(uint _courseid) public view returns(uint courseStudentCounts_){\n        for(uint i=1;i<=courseCounts;i++){\n            if(courseInfs[i].courseId == _courseid){\n                return courseInfs[i].courseStudentCounts;\n            }\n        }\n    }\n\n/*\n    // course id\n    function getCourseStudentsByCourseId(uint _courseid) public view returns(address[] memory,uint[] memory){\n        // \n        uint courseIndex = getIndexByCourseId(_courseid);\n        // \n        uint courseStudentCounts_ = courseInfs[courseIndex].courseStudentCounts;\n\n        // \n        address[] memory stuAddressTemp = new address[](courseStudentCounts_); \n        uint[] memory stuGradeTemp = new uint[](courseStudentCounts_); \n\n        for(uint i=1;i<=courseStudentCounts_;i++){\n            stuAddressTemp[i-1] = courseInfs[courseIndex].courseStudents[i].stuBlockAddress;\n            stuGradeTemp[i-1] = courseInfs[courseIndex].courseStudents[i].stuGrade;\n        }\n        return (stuAddressTemp,stuGradeTemp);\n    }\n*/\n\n\n    // course id\n    function getCourseInfByCourseId(uint _courseid) public view returns(uint,string memory,address,uint){\n        // \n        uint courseIndex = getIndexByCourseId(_courseid);\n\n        // courseId_, courseName_,proBlockAddress_,courseStudentCounts_\n        uint courseId_ = courseInfs[courseIndex].courseId;          \n        string memory courseName_ = courseInfs[courseIndex].courseName;      \n        address proBlockAddress_ = courseInfs[courseIndex].proBlockAddress;\n        uint courseStudentCounts_ = courseInfs[courseIndex].courseStudentCounts;  \n\n        return (courseId_,courseName_,proBlockAddress_, courseStudentCounts_);\n    }\n\n    // course id\n    function getCourseStudentInfByCourseId(uint _courseid) public view returns(uint[] memory,address[] memory,uint[] memory){\n        // \n        uint courseIndex = getIndexByCourseId(_courseid);\n\n        // courseId_, courseName_,proBlockAddress_,courseStudentCounts_   \n        uint courseStudentCounts_ = courseInfs[courseIndex].courseStudentCounts;  \n\n        // course id\n        // \n        address[] memory stuAddressTemp = new address[](courseStudentCounts_); \n        uint[] memory stuIdTemp = new uint[](courseStudentCounts_); \n        //string[] memory stuNameTemp = new string[](courseStudentCounts_); \n        uint[] memory stuGradeTemp = new uint[](courseStudentCounts_); \n\n        for(uint i=1;i<=courseStudentCounts_;i++){\n            stuAddressTemp[i-1] = courseInfs[courseIndex].courseStudents[i].stuBlockAddress;\n            stuIdTemp[i-1] = courseInfs[courseIndex].courseStudents[i].stuId;\n            //stuNameTemp[i-1] = courseInfs[courseIndex].courseStudents[i].stuName;\n            stuGradeTemp[i-1] = courseInfs[courseIndex].courseStudents[i].stuGrade;\n        }\n\n        // ,stuId  getStudentNameById \n        return (stuIdTemp,stuAddressTemp,stuGradeTemp);\n    }\n\n\n    // course idn  ,n,uint\n    function getTopStudentsByCourseId(uint _courseid,uint _getTops) public view returns(uint,uint[] memory,address[] memory,uint[] memory){\n        \n        // \n        uint getTops = _getTops;\n        // \n        uint gotGradeCounts = 0;\n        // \n        uint courseIndex = getIndexByCourseId(_courseid);\n        // courseId_, courseName_,proBlockAddress_,courseStudentCounts_\n        uint courseStudentCounts_ = courseInfs[courseIndex].courseStudentCounts;  \n        // \n        if(courseStudentCounts_ < getTops){\n            getTops = courseStudentCounts_;\n        }\n        \n        // \n        uint[] memory gradeOfStuGradeSort = new uint[](courseStudentCounts_);\n        //  gradeOfStuGradeSort ,\n        for(uint i=1;i<=courseStudentCounts_;i++){ // \n            if(courseInfs[courseIndex].courseStudents[i].stuGrade > 0){\n                gradeOfStuGradeSort[i-1] = courseInfs[courseIndex].courseStudents[i].stuGrade;\n                gotGradeCounts++;\n            }  \n        }\n\n        // \n        if(gotGradeCounts < getTops){\n            getTops = gotGradeCounts;\n        }\n\n        //  \n        for(uint i=0;i<gradeOfStuGradeSort.length;i++){ //  \n            for(uint j=1;j<gradeOfStuGradeSort.length;j++){ // \n                if(gradeOfStuGradeSort[j] > gradeOfStuGradeSort[j-1]){\n                    // \n                    uint temp = gradeOfStuGradeSort[j-1];\n                    gradeOfStuGradeSort[j-1] = gradeOfStuGradeSort[j];\n                    gradeOfStuGradeSort[j] = temp;\n                }\n            }\n        }\n        // course id\n        // \n        \n        address[] memory stuAddressTemp = new address[](getTops);\n        uint[] memory stuIdTemp = new uint[](getTops);  \n        //string[] memory stuNameTemp = new string[](getTops);\n        uint[] memory stuGradeTemp = new uint[](getTops); \n\n        // indexOfStuGradeSort\n        //  \n        uint flag = 0;\n        for(uint i=0;i<gradeOfStuGradeSort.length;i++){ // \n            if(flag == getTops){ // \n                break;\n            }\n            // \n            stuGradeTemp[i] = gradeOfStuGradeSort[i];\n            // \n            for(uint j=1;j<=courseStudentCounts_;j++){ //  \n                if(stuGradeTemp[i] == courseInfs[courseIndex].courseStudents[j].stuGrade){\n                    stuIdTemp[i] = courseInfs[courseIndex].courseStudents[j].stuId;\n                    //stuNameTemp[i] = courseInfs[courseIndex].courseStudents[j].stuName;\n                    stuAddressTemp[i] = courseInfs[courseIndex].courseStudents[j].stuBlockAddress;         \n                }\n            }\n            flag++;\n        }\n        // stuNameTemp, stuIdTemp[] + getStudentNameById()\n        return (getTops,stuIdTemp,stuAddressTemp,stuGradeTemp);\n    }\n\n\n    // proAddressid   Get an array of all course IDs opened by a teacher through proAddress\n    function getCourseIdByProAddress(address _proBlockAddress) public view returns(uint[] memory, bool[] memory){\n        // proIndex\n        uint proIndex = getProfessorIndexByAddress(_proBlockAddress);\n        // \n        uint courseLens = professorSelfs[proIndex].myProCourses.length;\n        // \n        uint[] memory myProCoursesTemp = new uint[](courseLens); \n        bool[] memory isCourseEnded = new bool[](courseLens);\n\n        for(uint i=0;i<courseLens;i++){\n            myProCoursesTemp[i] = professorSelfs[proIndex].myProCourses[i];\n            uint courseIdx = getIndexByCourseId(myProCoursesTemp[i]);\n\n            isCourseEnded[i] = false;\n            if(courseInfs[courseIdx].courseStudentCounts == courseInfs[courseIdx].gotStudentGradeCounts){\n                isCourseEnded[i] = true;\n            }\n        }\n        return (myProCoursesTemp, isCourseEnded);\n    }\n\n    \n    // stu ////////////////////////////////\n/*\n    // \n    function getCourseCountsByStuAddress(address _stuBlockAddress) public view returns(uint){\n        // stuIndex\n        uint stuIndex = getStudentIndexByAddress(_stuBlockAddress);\n        return studentSelfs[stuIndex].myStuCourses.length;\n\n    }\n\n    // stuAddressid   Get an array of all course IDs opened by a student through stuAddress\n    function getCourseIdByStuAddress(address _stuBlockAddress) public view returns(uint[] memory){\n        // stuIndex\n        uint stuIndex = getStudentIndexByAddress(_stuBlockAddress);\n        // \n        uint courseLens = getCourseCountsByStuAddress(_stuBlockAddress);\n        // \n        uint[] memory myStuCoursesTemp = new uint[](courseLens); \n\n        for(uint i=0;i<courseLens;i++){\n            myStuCoursesTemp[i] = studentSelfs[stuIndex].myStuCourses[i];\n        }\n        return myStuCoursesTemp;\n    }\n*/\n    \n\n\n//////////////////////////////////////////////////////////////  \n//////////////////////////////////////////////////////////////  \n///////////////////////////////   4.3. check function\n/*\n    // id      Verify that this ID has been used\n    function checkIdExisted(uint _id) internal view returns(bool){\n        for(uint i=1;i<=adminCounts;i++){\n            if(adminSelfs[i].adminId == _id)\n                return true;\n        }\n        for(uint i=1;i<=professorCounts;i++){\n            if(professorSelfs[i].proId == _id)\n                return true;\n        }\n        for(uint i=1;i<=studentCounts;i++){\n            if(studentSelfs[i].stuId == _id)\n                return true;\n        }\n        return false; // \n    }\n*/    \n    \n    // address  Verify that this address has been used\n    function checkAddressExisted(address _address) internal view returns(bool){\n        for(uint i=1;i<=adminCounts;i++){\n            if(adminSelfs[i].adminBlockAddress == _address)\n                return true;\n        }\n        for(uint i=1;i<=professorCounts;i++){\n            if(professorSelfs[i].proBlockAddress == _address)\n                return true;\n        }\n        for(uint i=1;i<=studentCounts;i++){\n            if(studentSelfs[i].stuBlockAddress == _address)\n                return true;\n        }\n        return false; // \n    }\n\n\n    ////// check course /////////////////\n\n    // \n    function checkCourseCanApply(uint _courseId) internal view returns(bool){\n        //  find this course\n        for(uint i=1;i<=courseCounts;i++){\n            if(courseInfs[i].courseId == _courseId){\n                if(courseInfs[i].canApply == true){\n                    return true;\n                }\n            }\n        }\n        return false;\n    }\n\n    // course id   Check whether this course exists through course ID\n    function checkCourseExisted(uint _courseId) internal view returns(bool){\n        //  find this course\n        for(uint i=1;i<=courseCounts;i++){\n            if(courseInfs[i].courseId == _courseId){\n                return true;\n            }\n        }\n        return false;\n    }\n\n/* \n    // courseidproBlockAddress\n    // Check whether the professor has this course through courseid and proid\n    function checkCourseHeldByProBlockAddress(uint _courseId,address _proBlockAddress) internal view returns(bool){\n        for(uint i=1;i<=professorCounts;i++){\n            //   Find the corresponding Professor first\n            if(professorSelfs[i].proBlockAddress == _proBlockAddress){\n                // proBlockAddressmyProCoursescourseId\n                // Check whether the corresponding courseid exists in the myprocourses array under this proid\n                for(uint k=0;k<=professorSelfs[i].myProCourses.length;k++){\n                    if(professorSelfs[i].myProCourses[k] == _courseId){\n                        return true;\n                    }\n                }\n            }\n        }\n        return false;\n    }\n*/    \n    \n    // courseId,stuId \n    // Check whether students have this course through courseid and stuid\n    function checkCourseHeldByStuBlockAddress(uint _courseId,address _stuBlockAddress) internal view returns(bool){\n        for(uint i=1;i<=studentCounts;i++){\n            //   Find the corresponding student first\n            if(studentSelfs[i].stuBlockAddress == _stuBlockAddress){\n                // stuBlockAddressmyStuCoursescourseId\n                // Check whether the corresponding courseid exists in the mystucourses array under this stuid\n                for(uint k=0;k<=studentSelfs[i].myStuCourses.length;k++){\n                    if(studentSelfs[i].myStuCourses[k] == _courseId){\n                        return true;\n                    }\n                }\n            }\n        }\n        return false;\n    }\n    \n\n\n\n\n}\n\n",
  "sourcePath": "/Users/sophotky/Computer-Science/blockchain/capstone/scouter2/contracts/StructAndModifiers.sol",
  "compiler": {
    "name": "solc",
    "version": "0.8.7+commit.e28d00a7.Emscripten.clang"
  },
  "schemaVersion": "3.4.3",
  "updatedAt": "2021-12-05T07:58:40.313Z",
  "devdoc": {
    "kind": "dev",
    "methods": {},
    "version": 1
  },
  "userdoc": {
    "kind": "user",
    "methods": {},
    "version": 1
  }
}