{
  "contractName": "StructAndModifiers",
  "abi": [
    {
      "inputs": [],
      "stateMutability": "nonpayable",
      "type": "constructor"
    },
    {
      "inputs": [],
      "name": "adminCounts",
      "outputs": [
        {
          "internalType": "uint256",
          "name": "",
          "type": "uint256"
        }
      ],
      "stateMutability": "view",
      "type": "function"
    },
    {
      "inputs": [
        {
          "internalType": "uint256",
          "name": "",
          "type": "uint256"
        }
      ],
      "name": "adminSelfs",
      "outputs": [
        {
          "internalType": "uint256",
          "name": "adminId",
          "type": "uint256"
        },
        {
          "internalType": "string",
          "name": "adminName",
          "type": "string"
        },
        {
          "internalType": "address",
          "name": "adminBlockAddress",
          "type": "address"
        },
        {
          "internalType": "uint256",
          "name": "adminAuthorization",
          "type": "uint256"
        }
      ],
      "stateMutability": "view",
      "type": "function"
    },
    {
      "inputs": [],
      "name": "courseCounts",
      "outputs": [
        {
          "internalType": "uint256",
          "name": "",
          "type": "uint256"
        }
      ],
      "stateMutability": "view",
      "type": "function"
    },
    {
      "inputs": [
        {
          "internalType": "uint256",
          "name": "",
          "type": "uint256"
        }
      ],
      "name": "courseInfs",
      "outputs": [
        {
          "internalType": "uint256",
          "name": "courseId",
          "type": "uint256"
        },
        {
          "internalType": "string",
          "name": "courseName",
          "type": "string"
        },
        {
          "internalType": "address",
          "name": "proBlockAddress",
          "type": "address"
        },
        {
          "internalType": "bool",
          "name": "canApply",
          "type": "bool"
        },
        {
          "internalType": "uint256",
          "name": "courseStudentCounts",
          "type": "uint256"
        }
      ],
      "stateMutability": "view",
      "type": "function"
    },
    {
      "inputs": [],
      "name": "modifiersOwner",
      "outputs": [
        {
          "internalType": "address",
          "name": "",
          "type": "address"
        }
      ],
      "stateMutability": "view",
      "type": "function"
    },
    {
      "inputs": [],
      "name": "professorCounts",
      "outputs": [
        {
          "internalType": "uint256",
          "name": "",
          "type": "uint256"
        }
      ],
      "stateMutability": "view",
      "type": "function"
    },
    {
      "inputs": [
        {
          "internalType": "uint256",
          "name": "",
          "type": "uint256"
        }
      ],
      "name": "professorSelfs",
      "outputs": [
        {
          "internalType": "uint256",
          "name": "proId",
          "type": "uint256"
        },
        {
          "internalType": "string",
          "name": "proName",
          "type": "string"
        },
        {
          "internalType": "address",
          "name": "proBlockAddress",
          "type": "address"
        },
        {
          "internalType": "uint256",
          "name": "proAuthorization",
          "type": "uint256"
        },
        {
          "internalType": "uint256",
          "name": "isTeachingPeopleSum",
          "type": "uint256"
        }
      ],
      "stateMutability": "view",
      "type": "function"
    },
    {
      "inputs": [],
      "name": "studentCounts",
      "outputs": [
        {
          "internalType": "uint256",
          "name": "",
          "type": "uint256"
        }
      ],
      "stateMutability": "view",
      "type": "function"
    },
    {
      "inputs": [
        {
          "internalType": "uint256",
          "name": "",
          "type": "uint256"
        }
      ],
      "name": "studentSelfs",
      "outputs": [
        {
          "internalType": "uint256",
          "name": "stuId",
          "type": "uint256"
        },
        {
          "internalType": "string",
          "name": "stuName",
          "type": "string"
        },
        {
          "internalType": "address",
          "name": "stuBlockAddress",
          "type": "address"
        },
        {
          "internalType": "uint256",
          "name": "stuAuthorization",
          "type": "uint256"
        },
        {
          "internalType": "uint256",
          "name": "isLearningSum",
          "type": "uint256"
        }
      ],
      "stateMutability": "view",
      "type": "function"
    },
    {
      "inputs": [
        {
          "internalType": "address",
          "name": "_address",
          "type": "address"
        }
      ],
      "name": "getIdByAddress",
      "outputs": [
        {
          "internalType": "uint256",
          "name": "",
          "type": "uint256"
        }
      ],
      "stateMutability": "view",
      "type": "function"
    },
    {
      "inputs": [
        {
          "internalType": "uint256",
          "name": "_stuId",
          "type": "uint256"
        }
      ],
      "name": "getStuAddressByStuId",
      "outputs": [
        {
          "internalType": "address",
          "name": "",
          "type": "address"
        }
      ],
      "stateMutability": "view",
      "type": "function"
    },
    {
      "inputs": [
        {
          "internalType": "address",
          "name": "_address",
          "type": "address"
        }
      ],
      "name": "getAuthorizationByAddress",
      "outputs": [
        {
          "internalType": "uint256",
          "name": "",
          "type": "uint256"
        }
      ],
      "stateMutability": "view",
      "type": "function"
    },
    {
      "inputs": [
        {
          "internalType": "address",
          "name": "_adminBlockAddress",
          "type": "address"
        }
      ],
      "name": "getAdminIndexByAddress",
      "outputs": [
        {
          "internalType": "uint256",
          "name": "",
          "type": "uint256"
        }
      ],
      "stateMutability": "view",
      "type": "function"
    },
    {
      "inputs": [
        {
          "internalType": "address",
          "name": "_proBlockAddress",
          "type": "address"
        }
      ],
      "name": "getProfessorIndexByAddress",
      "outputs": [
        {
          "internalType": "uint256",
          "name": "",
          "type": "uint256"
        }
      ],
      "stateMutability": "view",
      "type": "function"
    },
    {
      "inputs": [
        {
          "internalType": "address",
          "name": "_stuBlockAddress",
          "type": "address"
        }
      ],
      "name": "getStudentIndexByAddress",
      "outputs": [
        {
          "internalType": "uint256",
          "name": "",
          "type": "uint256"
        }
      ],
      "stateMutability": "view",
      "type": "function"
    },
    {
      "inputs": [
        {
          "internalType": "uint256",
          "name": "_stuId",
          "type": "uint256"
        }
      ],
      "name": "getStudentNameById",
      "outputs": [
        {
          "internalType": "string",
          "name": "",
          "type": "string"
        }
      ],
      "stateMutability": "view",
      "type": "function"
    },
    {
      "inputs": [
        {
          "internalType": "uint256",
          "name": "_courseId",
          "type": "uint256"
        },
        {
          "internalType": "address",
          "name": "_stuAddress",
          "type": "address"
        }
      ],
      "name": "getStudentGradeByCourseIdAndStuAddr",
      "outputs": [
        {
          "internalType": "uint256",
          "name": "",
          "type": "uint256"
        }
      ],
      "stateMutability": "view",
      "type": "function"
    },
    {
      "inputs": [
        {
          "internalType": "address",
          "name": "_stuBlockAddress",
          "type": "address"
        }
      ],
      "name": "getStudentInfByStuAddress",
      "outputs": [
        {
          "internalType": "uint256",
          "name": "",
          "type": "uint256"
        },
        {
          "internalType": "string",
          "name": "",
          "type": "string"
        },
        {
          "internalType": "address",
          "name": "",
          "type": "address"
        },
        {
          "internalType": "uint256",
          "name": "",
          "type": "uint256"
        },
        {
          "internalType": "uint256[]",
          "name": "",
          "type": "uint256[]"
        },
        {
          "internalType": "uint256[]",
          "name": "",
          "type": "uint256[]"
        }
      ],
      "stateMutability": "view",
      "type": "function"
    },
    {
      "inputs": [],
      "name": "getAllStudentAddress",
      "outputs": [
        {
          "internalType": "address[]",
          "name": "",
          "type": "address[]"
        }
      ],
      "stateMutability": "view",
      "type": "function"
    },
    {
      "inputs": [
        {
          "internalType": "uint256",
          "name": "_courseId",
          "type": "uint256"
        }
      ],
      "name": "getIndexByCourseId",
      "outputs": [
        {
          "internalType": "uint256",
          "name": "",
          "type": "uint256"
        }
      ],
      "stateMutability": "view",
      "type": "function"
    },
    {
      "inputs": [
        {
          "internalType": "uint256",
          "name": "_courseId",
          "type": "uint256"
        }
      ],
      "name": "getCourseNameByCourseId",
      "outputs": [
        {
          "internalType": "string",
          "name": "",
          "type": "string"
        }
      ],
      "stateMutability": "view",
      "type": "function"
    },
    {
      "inputs": [],
      "name": "getAllCourseId",
      "outputs": [
        {
          "internalType": "uint256[]",
          "name": "",
          "type": "uint256[]"
        }
      ],
      "stateMutability": "view",
      "type": "function"
    },
    {
      "inputs": [
        {
          "internalType": "uint256",
          "name": "_courseid",
          "type": "uint256"
        }
      ],
      "name": "getcourseStudentCounts",
      "outputs": [
        {
          "internalType": "uint256",
          "name": "courseStudentCounts_",
          "type": "uint256"
        }
      ],
      "stateMutability": "view",
      "type": "function"
    },
    {
      "inputs": [
        {
          "internalType": "uint256",
          "name": "_courseid",
          "type": "uint256"
        }
      ],
      "name": "getCourseInfByCourseId",
      "outputs": [
        {
          "internalType": "uint256",
          "name": "",
          "type": "uint256"
        },
        {
          "internalType": "string",
          "name": "",
          "type": "string"
        },
        {
          "internalType": "address",
          "name": "",
          "type": "address"
        },
        {
          "internalType": "uint256",
          "name": "",
          "type": "uint256"
        }
      ],
      "stateMutability": "view",
      "type": "function"
    },
    {
      "inputs": [
        {
          "internalType": "uint256",
          "name": "_courseid",
          "type": "uint256"
        }
      ],
      "name": "getCourseStudentInfByCourseId",
      "outputs": [
        {
          "internalType": "uint256[]",
          "name": "",
          "type": "uint256[]"
        },
        {
          "internalType": "address[]",
          "name": "",
          "type": "address[]"
        },
        {
          "internalType": "uint256[]",
          "name": "",
          "type": "uint256[]"
        }
      ],
      "stateMutability": "view",
      "type": "function"
    },
    {
      "inputs": [
        {
          "internalType": "uint256",
          "name": "_courseid",
          "type": "uint256"
        },
        {
          "internalType": "uint256",
          "name": "_getTops",
          "type": "uint256"
        }
      ],
      "name": "getTopStudentsByCourseId",
      "outputs": [
        {
          "internalType": "uint256",
          "name": "",
          "type": "uint256"
        },
        {
          "internalType": "uint256[]",
          "name": "",
          "type": "uint256[]"
        },
        {
          "internalType": "address[]",
          "name": "",
          "type": "address[]"
        },
        {
          "internalType": "uint256[]",
          "name": "",
          "type": "uint256[]"
        }
      ],
      "stateMutability": "view",
      "type": "function"
    },
    {
      "inputs": [
        {
          "internalType": "address",
          "name": "_proBlockAddress",
          "type": "address"
        }
      ],
      "name": "getCourseCountsByProAddress",
      "outputs": [
        {
          "internalType": "uint256",
          "name": "",
          "type": "uint256"
        }
      ],
      "stateMutability": "view",
      "type": "function"
    },
    {
      "inputs": [
        {
          "internalType": "address",
          "name": "_proBlockAddress",
          "type": "address"
        }
      ],
      "name": "getCourseIdByProAddress",
      "outputs": [
        {
          "internalType": "uint256[]",
          "name": "",
          "type": "uint256[]"
        }
      ],
      "stateMutability": "view",
      "type": "function"
    }
  ],
  "bytecode": "0x608060405260006001556000600355600060055560006007553480156200002557600080fd5b50336000806101000a81548173ffffffffffffffffffffffffffffffffffffffff021916908373ffffffffffffffffffffffffffffffffffffffff1602179055506040518060800160405280600181526020016040518060400160405280600481526020017f526f6f7400000000000000000000000000000000000000000000000000000000815250815260200160008054906101000a900473ffffffffffffffffffffffffffffffffffffffff1673ffffffffffffffffffffffffffffffffffffffff1681526020016003815250600260006001815260200190815260200160002060008201518160000155602082015181600101908051906020019062000130929190620001a5565b5060408201518160020160006101000a81548173ffffffffffffffffffffffffffffffffffffffff021916908373ffffffffffffffffffffffffffffffffffffffff16021790555060608201518160030155905050600160008154809291906200019a9062000295565b919050555062000341565b828054620001b3906200025f565b90600052602060002090601f016020900481019282620001d7576000855562000223565b82601f10620001f257805160ff191683800117855562000223565b8280016001018555821562000223579182015b828111156200022257825182559160200191906001019062000205565b5b50905062000232919062000236565b5090565b5b808211156200025157600081600090555060010162000237565b5090565b6000819050919050565b600060028204905060018216806200027857607f821691505b602082108114156200028f576200028e62000312565b5b50919050565b6000620002a28262000255565b91507fffffffffffffffffffffffffffffffffffffffffffffffffffffffffffffffff821415620002d857620002d7620002e3565b5b600182019050919050565b7f4e487b7100000000000000000000000000000000000000000000000000000000600052601160045260246000fd5b7f4e487b7100000000000000000000000000000000000000000000000000000000600052602260045260246000fd5b612ae180620003516000396000f3fe608060405234801561001057600080fd5b50600436106101c35760003560e01c80637860a069116100f9578063ad9e42d911610097578063dff3b49711610071578063dff3b4971461061c578063f6aa09e41461064c578063fb3189e81461066a578063fc0c1f3914610688576101c3565b8063ad9e42d91461058c578063c5ad81de146105bc578063ced3ae61146105ec576101c3565b8063982203be116100d3578063982203be146104f057806398aede55146105205780639fde09431461053e578063a5cc464d1461055c576101c3565b80637860a0691461046f57806390eab7a21461048d57806394e48ece146104bd576101c3565b80632b81bd8d116101665780634d64e5ee116101405780634d64e5ee146103a457806358a42065146103d85780635e719a491461040d578063606870da1461043d576101c3565b80632b81bd8d1461031157806330e94711146103415780634d4fb0d714610374576101c3565b80630e3bfd6c116101a25780630e3bfd6c1461026057806310d756dd1461027e5780631643c8db146102ae5780632454a939146102e1576101c3565b80624255a6146101c8578063043022fa146101fc5780630c1596b414610230575b600080fd5b6101e260048036038101906101dd919061231e565b6106a6565b6040516101f3959493929190612799565b60405180910390f35b6102166004803603810190610211919061231e565b610784565b60405161022795949392919061267d565b60405180910390f35b61024a600480360381019061024591906122f1565b61086f565b6040516102579190612578565b60405180910390f35b610268610954565b6040516102759190612608565b60405180910390f35b610298600480360381019061029391906122f1565b61095a565b6040516102a59190612608565b60405180910390f35b6102c860048036038101906102c3919061231e565b6109fc565b6040516102d894939291906126d7565b60405180910390f35b6102fb60048036038101906102f691906122f1565b610ad4565b6040516103089190612608565b60405180910390f35b61032b6004803603810190610326919061231e565b610b76565b60405161033891906125e6565b60405180910390f35b61035b6004803603810190610356919061231e565b610c9f565b60405161036b94939291906126d7565b60405180910390f35b61038e600480360381019061038991906122f1565b610ddf565b60405161039b9190612608565b60405180910390f35b6103be60048036038101906103b9919061231e565b610e0f565b6040516103cf959493929190612799565b60405180910390f35b6103f260048036038101906103ed91906122f1565b610eed565b60405161040496959493929190612723565b60405180910390f35b6104276004803603810190610422919061231e565b611118565b6040516104349190612608565b60405180910390f35b6104576004803603810190610452919061231e565b611180565b6040516104669392919061259a565b60405180910390f35b61047761141b565b6040516104849190612608565b60405180910390f35b6104a760048036038101906104a291906122f1565b611421565b6040516104b49190612608565b60405180910390f35b6104d760048036038101906104d2919061238b565b611633565b6040516104e79493929190612623565b60405180910390f35b61050a6004803603810190610505919061231e565b611b72565b604051610517919061253b565b60405180910390f35b610528611bfe565b604051610535919061253b565b60405180910390f35b610546611c22565b6040516105539190612556565b60405180910390f35b610576600480360381019061057191906122f1565b611d2e565b6040516105839190612608565b60405180910390f35b6105a660048036038101906105a1919061231e565b611dd0565b6040516105b39190612608565b60405180910390f35b6105d660048036038101906105d1919061231e565b611e31565b6040516105e391906125e6565b60405180910390f35b6106066004803603810190610601919061234b565b611ee7565b6040516106139190612608565b60405180910390f35b610636600480360381019061063191906122f1565b611feb565b6040516106439190612608565b60405180910390f35b6106546121fd565b6040516106619190612578565b60405180910390f35b6106726122bb565b60405161067f9190612608565b60405180910390f35b6106906122c1565b60405161069d9190612608565b60405180910390f35b60066020528060005260406000206000915090508060000154908060010180546106cf90612930565b80601f01602080910402602001604051908101604052809291908181526020018280546106fb90612930565b80156107485780601f1061071d57610100808354040283529160200191610748565b820191906000526020600020905b81548152906001019060200180831161072b57829003601f168201915b5050505050908060020160009054906101000a900473ffffffffffffffffffffffffffffffffffffffff16908060030154908060050154905085565b60086020528060005260406000206000915090508060000154908060010180546107ad90612930565b80601f01602080910402602001604051908101604052809291908181526020018280546107d990612930565b80156108265780601f106107fb57610100808354040283529160200191610826565b820191906000526020600020905b81548152906001019060200180831161080957829003601f168201915b5050505050908060020160009054906101000a900473ffffffffffffffffffffffffffffffffffffffff16908060020160149054906101000a900460ff16908060030154905085565b6060600061087c83611d2e565b9050600061088984610ddf565b905060008167ffffffffffffffff8111156108a7576108a6612a38565b5b6040519080825280602002602001820160405280156108d55781602001602082028036833780820191505090505b50905060005b828110156109485760046000858152602001908152602001600020600401818154811061090b5761090a612a09565b5b906000526020600020015482828151811061092957610928612a09565b5b602002602001018181525050808061094090612962565b9150506108db565b50809350505050919050565b60075481565b600080600190505b60015481116109f1578273ffffffffffffffffffffffffffffffffffffffff166002600083815260200190815260200160002060020160009054906101000a900473ffffffffffffffffffffffffffffffffffffffff1673ffffffffffffffffffffffffffffffffffffffff1614156109de57809150506109f7565b80806109e990612962565b915050610962565b50600090505b919050565b6002602052806000526040600020600091509050806000015490806001018054610a2590612930565b80601f0160208091040260200160405190810160405280929190818152602001828054610a5190612930565b8015610a9e5780601f10610a7357610100808354040283529160200191610a9e565b820191906000526020600020905b815481529060010190602001808311610a8157829003601f168201915b5050505050908060020160009054906101000a900473ffffffffffffffffffffffffffffffffffffffff16908060030154905084565b600080600190505b6005548111610b6b578273ffffffffffffffffffffffffffffffffffffffff166006600083815260200190815260200160002060020160009054906101000a900473ffffffffffffffffffffffffffffffffffffffff1673ffffffffffffffffffffffffffffffffffffffff161415610b585780915050610b71565b8080610b6390612962565b915050610adc565b50600090505b919050565b60606000600190505b6005548111610c60578260066000838152602001908152602001600020600001541415610c4d57600660008281526020019081526020016000206001018054610bc790612930565b80601f0160208091040260200160405190810160405280929190818152602001828054610bf390612930565b8015610c405780601f10610c1557610100808354040283529160200191610c40565b820191906000526020600020905b815481529060010190602001808311610c2357829003601f168201915b5050505050915050610c9a565b8080610c5890612962565b915050610b7f565b506040518060400160405280600481526020017f6e756c6c0000000000000000000000000000000000000000000000000000000081525090505b919050565b600060606000806000610cb186611dd0565b90506000600860008381526020019081526020016000206000015490506000600860008481526020019081526020016000206001018054610cf190612930565b80601f0160208091040260200160405190810160405280929190818152602001828054610d1d90612930565b8015610d6a5780601f10610d3f57610100808354040283529160200191610d6a565b820191906000526020600020905b815481529060010190602001808311610d4d57829003601f168201915b5050505050905060006008600085815260200190815260200160002060020160009054906101000a900473ffffffffffffffffffffffffffffffffffffffff16905060006008600086815260200190815260200160002060030154905083838383985098509850985050505050509193509193565b600080610deb83611d2e565b90506004600082815260200190815260200160002060040180549050915050919050565b6004602052806000526040600020600091509050806000015490806001018054610e3890612930565b80601f0160208091040260200160405190810160405280929190818152602001828054610e6490612930565b8015610eb15780601f10610e8657610100808354040283529160200191610eb1565b820191906000526020600020905b815481529060010190602001808311610e9457829003601f168201915b5050505050908060020160009054906101000a900473ffffffffffffffffffffffffffffffffffffffff16908060030154908060050154905085565b600060606000806060806000610f0288610ad4565b90506000600660008381526020019081526020016000206000015490506000600660008481526020019081526020016000206001018054610f4290612930565b80601f0160208091040260200160405190810160405280929190818152602001828054610f6e90612930565b8015610fbb5780601f10610f9057610100808354040283529160200191610fbb565b820191906000526020600020905b815481529060010190602001808311610f9e57829003601f168201915b5050505050905060006006600085815260200190815260200160002060030154905060006006600086815260200190815260200160002060040180548060200260200160405190810160405280929190818152602001828054801561103f57602002820191906000526020600020905b81548152602001906001019080831161102b575b505050505090506000815167ffffffffffffffff81111561106357611062612a38565b5b6040519080825280602002602001820160405280156110915781602001602082028036833780820191505090505b50905060005b82518110156110f6576110c48382815181106110b6576110b5612a09565b5b60200260200101518f611ee7565b8282815181106110d7576110d6612a09565b5b60200260200101818152505080806110ee90612962565b915050611097565b5084848e8585859b509b509b509b509b509b5050505050505091939550919395565b600080600190505b600754811161117957826008600083815260200190815260200160002060000154141561116657600860008281526020019081526020016000206003015491505061117b565b808061117190612962565b915050611120565b505b919050565b6060806060600061119085611dd0565b905060006008600083815260200190815260200160002060030154905060008167ffffffffffffffff8111156111c9576111c8612a38565b5b6040519080825280602002602001820160405280156111f75781602001602082028036833780820191505090505b50905060008267ffffffffffffffff81111561121657611215612a38565b5b6040519080825280602002602001820160405280156112445781602001602082028036833780820191505090505b50905060008367ffffffffffffffff81111561126357611262612a38565b5b6040519080825280602002602001820160405280156112915781602001602082028036833780820191505090505b5090506000600190505b8481116114055760086000878152602001908152602001600020600401600082815260200190815260200160002060000160009054906101000a900473ffffffffffffffffffffffffffffffffffffffff16846001836112fb9190612881565b8151811061130c5761130b612a09565b5b602002602001019073ffffffffffffffffffffffffffffffffffffffff16908173ffffffffffffffffffffffffffffffffffffffff1681525050600860008781526020019081526020016000206004016000828152602001908152602001600020600101548360018361137f9190612881565b815181106113905761138f612a09565b5b60200260200101818152505060086000878152602001908152602001600020600401600082815260200190815260200160002060020154826001836113d59190612881565b815181106113e6576113e5612a09565b5b60200260200101818152505080806113fd90612962565b91505061129b565b5081838297509750975050505050509193909250565b60035481565b600080600190505b60015481116114ce578273ffffffffffffffffffffffffffffffffffffffff166002600083815260200190815260200160002060020160009054906101000a900473ffffffffffffffffffffffffffffffffffffffff1673ffffffffffffffffffffffffffffffffffffffff1614156114bb57600260008281526020019081526020016000206003015491505061162e565b80806114c690612962565b915050611429565b506000600190505b600354811161157b578273ffffffffffffffffffffffffffffffffffffffff166004600083815260200190815260200160002060020160009054906101000a900473ffffffffffffffffffffffffffffffffffffffff1673ffffffffffffffffffffffffffffffffffffffff16141561156857600460008281526020019081526020016000206003015491505061162e565b808061157390612962565b9150506114d6565b506000600190505b6005548111611628578273ffffffffffffffffffffffffffffffffffffffff166006600083815260200190815260200160002060020160009054906101000a900473ffffffffffffffffffffffffffffffffffffffff1673ffffffffffffffffffffffffffffffffffffffff16141561161557600660008281526020019081526020016000206003015491505061162e565b808061162090612962565b915050611583565b50600090505b919050565b60006060806060600085905060008061164b89611dd0565b905060006008600083815260200190815260200160002060030154905083811015611674578093505b60008167ffffffffffffffff8111156116905761168f612a38565b5b6040519080825280602002602001820160405280156116be5781602001602082028036833780820191505090505b5090506000600190505b82811161177a57600060086000868152602001908152602001600020600401600083815260200190815260200160002060020154111561176757600860008581526020019081526020016000206004016000828152602001908152602001600020600201548260018361173b9190612881565b8151811061174c5761174b612a09565b5b602002602001018181525050848061176390612962565b9550505b808061177290612962565b9150506116c8565b5084841015611787578394505b60005b81518110156118a5576000600190505b825181101561189157826001826117b19190612881565b815181106117c2576117c1612a09565b5b60200260200101518382815181106117dd576117dc612a09565b5b6020026020010151111561187e576000836001836117fb9190612881565b8151811061180c5761180b612a09565b5b6020026020010151905083828151811061182957611828612a09565b5b60200260200101518460018461183f9190612881565b815181106118505761184f612a09565b5b602002602001018181525050808483815181106118705761186f612a09565b5b602002602001018181525050505b808061188990612962565b91505061179a565b50808061189d90612962565b91505061178a565b5060008567ffffffffffffffff8111156118c2576118c1612a38565b5b6040519080825280602002602001820160405280156118f05781602001602082028036833780820191505090505b50905060008667ffffffffffffffff81111561190f5761190e612a38565b5b60405190808252806020026020018201604052801561193d5781602001602082028036833780820191505090505b50905060008767ffffffffffffffff81111561195c5761195b612a38565b5b60405190808252806020026020018201604052801561198a5781602001602082028036833780820191505090505b5090506000805b8551811015611b5357898214156119a757611b53565b8581815181106119ba576119b9612a09565b5b60200260200101518382815181106119d5576119d4612a09565b5b6020026020010181815250506000600190505b878111611b3157600860008a8152602001908152602001600020600401600082815260200190815260200160002060020154848381518110611a2d57611a2c612a09565b5b60200260200101511415611b1e57600860008a8152602001908152602001600020600401600082815260200190815260200160002060010154858381518110611a7957611a78612a09565b5b602002602001018181525050600860008a8152602001908152602001600020600401600082815260200190815260200160002060000160009054906101000a900473ffffffffffffffffffffffffffffffffffffffff16868381518110611ae357611ae2612a09565b5b602002602001019073ffffffffffffffffffffffffffffffffffffffff16908173ffffffffffffffffffffffffffffffffffffffff16815250505b8080611b2990612962565b9150506119e8565b508180611b3d90612962565b9250508080611b4b90612962565b915050611991565b50888385849c509c509c509c5050505050505050505092959194509250565b600080600190505b6005548111611bf3578260066000838152602001908152602001600020600001541415611be0576006600082815260200190815260200160002060020160009054906101000a900473ffffffffffffffffffffffffffffffffffffffff16915050611bf9565b8080611beb90612962565b915050611b7a565b50600090505b919050565b60008054906101000a900473ffffffffffffffffffffffffffffffffffffffff1681565b6060600060055467ffffffffffffffff811115611c4257611c41612a38565b5b604051908082528060200260200182016040528015611c705781602001602082028036833780820191505090505b5090506000600190505b6005548111611d26576006600082815260200190815260200160002060020160009054906101000a900473ffffffffffffffffffffffffffffffffffffffff1682600183611cc89190612881565b81518110611cd957611cd8612a09565b5b602002602001019073ffffffffffffffffffffffffffffffffffffffff16908173ffffffffffffffffffffffffffffffffffffffff16815250508080611d1e90612962565b915050611c7a565b508091505090565b600080600190505b6003548111611dc5578273ffffffffffffffffffffffffffffffffffffffff166004600083815260200190815260200160002060020160009054906101000a900473ffffffffffffffffffffffffffffffffffffffff1673ffffffffffffffffffffffffffffffffffffffff161415611db25780915050611dcb565b8080611dbd90612962565b915050611d36565b50600090505b919050565b600080600090506000600190505b6007548111611e25578360086000838152602001908152602001600020600001541415611e12578091508192505050611e2c565b8080611e1d90612962565b915050611dde565b5060009150505b919050565b60606000611e3e83611dd0565b9050600860008281526020019081526020016000206001018054611e6190612930565b80601f0160208091040260200160405190810160405280929190818152602001828054611e8d90612930565b8015611eda5780601f10611eaf57610100808354040283529160200191611eda565b820191906000526020600020905b815481529060010190602001808311611ebd57829003601f168201915b5050505050915050919050565b600080611ef384611dd0565b90506000600190505b60086000838152602001908152602001600020600301548111611fde578373ffffffffffffffffffffffffffffffffffffffff1660086000848152602001908152602001600020600401600083815260200190815260200160002060000160009054906101000a900473ffffffffffffffffffffffffffffffffffffffff1673ffffffffffffffffffffffffffffffffffffffff161415611fcb576008600083815260200190815260200160002060040160008281526020019081526020016000206002015492505050611fe5565b8080611fd690612962565b915050611efc565b5060009150505b92915050565b600080600190505b6001548111612098578273ffffffffffffffffffffffffffffffffffffffff166002600083815260200190815260200160002060020160009054906101000a900473ffffffffffffffffffffffffffffffffffffffff1673ffffffffffffffffffffffffffffffffffffffff1614156120855760026000828152602001908152602001600020600001549150506121f8565b808061209090612962565b915050611ff3565b506000600190505b6003548111612145578273ffffffffffffffffffffffffffffffffffffffff166004600083815260200190815260200160002060020160009054906101000a900473ffffffffffffffffffffffffffffffffffffffff1673ffffffffffffffffffffffffffffffffffffffff1614156121325760046000828152602001908152602001600020600001549150506121f8565b808061213d90612962565b9150506120a0565b506000600190505b60055481116121f2578273ffffffffffffffffffffffffffffffffffffffff166006600083815260200190815260200160002060020160009054906101000a900473ffffffffffffffffffffffffffffffffffffffff1673ffffffffffffffffffffffffffffffffffffffff1614156121df5760066000828152602001908152602001600020600001549150506121f8565b80806121ea90612962565b91505061214d565b50600090505b919050565b6060600060075467ffffffffffffffff81111561221d5761221c612a38565b5b60405190808252806020026020018201604052801561224b5781602001602082028036833780820191505090505b5090506000600190505b60075481116122b3576008600082815260200190815260200160002060000154826001836122839190612881565b8151811061229457612293612a09565b5b60200260200101818152505080806122ab90612962565b915050612255565b508091505090565b60055481565b60015481565b6000813590506122d681612a7d565b92915050565b6000813590506122eb81612a94565b92915050565b60006020828403121561230757612306612a67565b5b6000612315848285016122c7565b91505092915050565b60006020828403121561233457612333612a67565b5b6000612342848285016122dc565b91505092915050565b6000806040838503121561236257612361612a67565b5b6000612370858286016122dc565b9250506020612381858286016122c7565b9150509250929050565b600080604083850312156123a2576123a1612a67565b5b60006123b0858286016122dc565b92505060206123c1858286016122dc565b9150509250929050565b60006123d783836123fb565b60208301905092915050565b60006123ef838361251d565b60208301905092915050565b612404816128b5565b82525050565b612413816128b5565b82525050565b600061242482612813565b61242e818561284e565b9350612439836127f3565b8060005b8381101561246a57815161245188826123cb565b975061245c83612834565b92505060018101905061243d565b5085935050505092915050565b60006124828261281e565b61248c818561285f565b935061249783612803565b8060005b838110156124c85781516124af88826123e3565b97506124ba83612841565b92505060018101905061249b565b5085935050505092915050565b6124de816128c7565b82525050565b60006124ef82612829565b6124f98185612870565b93506125098185602086016128fd565b61251281612a6c565b840191505092915050565b612526816128f3565b82525050565b612535816128f3565b82525050565b6000602082019050612550600083018461240a565b92915050565b600060208201905081810360008301526125708184612419565b905092915050565b600060208201905081810360008301526125928184612477565b905092915050565b600060608201905081810360008301526125b48186612477565b905081810360208301526125c88185612419565b905081810360408301526125dc8184612477565b9050949350505050565b6000602082019050818103600083015261260081846124e4565b905092915050565b600060208201905061261d600083018461252c565b92915050565b6000608082019050612638600083018761252c565b818103602083015261264a8186612477565b9050818103604083015261265e8185612419565b905081810360608301526126728184612477565b905095945050505050565b600060a082019050612692600083018861252c565b81810360208301526126a481876124e4565b90506126b3604083018661240a565b6126c060608301856124d5565b6126cd608083018461252c565b9695505050505050565b60006080820190506126ec600083018761252c565b81810360208301526126fe81866124e4565b905061270d604083018561240a565b61271a606083018461252c565b95945050505050565b600060c082019050612738600083018961252c565b818103602083015261274a81886124e4565b9050612759604083018761240a565b612766606083018661252c565b81810360808301526127788185612477565b905081810360a083015261278c8184612477565b9050979650505050505050565b600060a0820190506127ae600083018861252c565b81810360208301526127c081876124e4565b90506127cf604083018661240a565b6127dc606083018561252c565b6127e9608083018461252c565b9695505050505050565b6000819050602082019050919050565b6000819050602082019050919050565b600081519050919050565b600081519050919050565b600081519050919050565b6000602082019050919050565b6000602082019050919050565b600082825260208201905092915050565b600082825260208201905092915050565b600082825260208201905092915050565b600061288c826128f3565b9150612897836128f3565b9250828210156128aa576128a96129ab565b5b828203905092915050565b60006128c0826128d3565b9050919050565b60008115159050919050565b600073ffffffffffffffffffffffffffffffffffffffff82169050919050565b6000819050919050565b60005b8381101561291b578082015181840152602081019050612900565b8381111561292a576000848401525b50505050565b6000600282049050600182168061294857607f821691505b6020821081141561295c5761295b6129da565b5b50919050565b600061296d826128f3565b91507fffffffffffffffffffffffffffffffffffffffffffffffffffffffffffffffff8214156129a05761299f6129ab565b5b600182019050919050565b7f4e487b7100000000000000000000000000000000000000000000000000000000600052601160045260246000fd5b7f4e487b7100000000000000000000000000000000000000000000000000000000600052602260045260246000fd5b7f4e487b7100000000000000000000000000000000000000000000000000000000600052603260045260246000fd5b7f4e487b7100000000000000000000000000000000000000000000000000000000600052604160045260246000fd5b600080fd5b6000601f19601f8301169050919050565b612a86816128b5565b8114612a9157600080fd5b50565b612a9d816128f3565b8114612aa857600080fd5b5056fea26469706673582212209f5bc089189ea523267542daf3a81888f577cb72d7df562d46c7860a9771aa1d64736f6c63430008070033",
  "immutableReferences": {},
  "source": "// SPDX-License-Identifier: MIT\r\npragma solidity >=0.4.22 <0.9.0;\r\n\r\n/*\r\n\r\n1. :  Save the permission structure of the current address\r\n    AdminSelf,  ProfessorSelf,  StudentSelf\r\n\r\n2. : Save course details\r\n    CourseInf,  CourseStudent\r\n\r\n3. modifier function\r\n    onlyAdmin,  onlyProfessor,  checkIsStudent\r\n\r\n\r\n/////////////////////////////////////////////////////////////////////////////////////////////////////////////////\r\n/////////////////////////////////////////////////////////////////////////////////////////////////////////////////\r\n\r\n4.1. setter function\r\n\r\n    setcourseStudentCounts          // course id(,,)\r\n                                    // Set the number of students with the course ID (called once when the student joins the course)\r\n\r\n\r\n/////////////////////////////////////////////////////////////////////////////////////////////////////////////////\r\n/////////////////////////////////////////////////////////////////////////////////////////////////////////////////\r\n\r\n4.2 getter function\r\n\r\n    getMsgSender                    // msg.sender\r\n    \r\n    getMsgSenderAuthorization       // msg.sender\r\n\r\n    ==> getIdByAddress()            // addressid , Find this person's id through address\r\n\r\n    ==> getStuAddressByStuId()            // ID  ,  Find this person's address by ID\r\n\r\n    getAuthorizationByAddress()     // addressauthorization , Find this person's authorization through address\r\n\r\n/////////////////////////////////////////////////////////////////////////////////////////////////////////////////\r\n\r\n// getter about admin\r\n    getAdminCounts()                // \r\n    getAdminIndexByAddress()        //  address adminindex , Find the index in admin by address\r\n\r\n/////////////////////////////////////////////////////////////////////////////////////////////////////////////////\r\n\r\n// getter about professor\r\n    getProfessorCounts()            // \r\n    getProfessorIndexByAddress()    //  address professorindex , Find the index in the professor by address\r\n    getProfessorInfByProAddress()   // proAddresspro\r\n\r\n/////////////////////////////////////////////////////////////////////////////////////////////////////////////////\r\n\r\n// getter about student\r\n    getStudentCounts()              // \r\n    getStudentIndexByAddress()      //  address studentindex  ,Find the index in the student by address\r\n    getStudentNameByAddress()\r\n    getStudentNameById()\r\n    getStudentInfByStuAddress()     // stuAddressstu\r\n\r\n/////////////////////////////////////////////////////////////////////////////////////////////////////////////////\r\n\r\n// getter about course\r\n\r\n    // about all course\r\n    getIndexByCourseId              // course id    Get the index of this course by course ID\r\n \r\n    getAllCourseId()                // course id\r\n\r\n    getcourseStudentCounts          // course id  The number of students to get the course ID\r\n\r\n    getCourseCounts()               // courseCounts  Return the current courseCounts value\r\n\r\n    getCourseStudentsByCourseId()   // course id\r\n\r\n    getCourseInfByCourseId()        // course id\r\n\r\n    getTopStudentsByCourseId()      // course idn\r\n\r\n\r\n    // pro\r\n    getCourseCountsByProAddress()   //   Get a few courses taught by a certain teacher\r\n\r\n    getCourseIdByProAddress()       // proAddressid   Get an array of all course IDs opened by a teacher through proAddress\r\n\r\n\r\n    // stu\r\n    getCourseCountsByStuAddress()   // \r\n\r\n    getCourseIdByStuAddress()       // stuAddressid   Get an array of all course IDs opened by a student through stuAddress\r\n\r\n\r\n\r\n/////////////////////////////////////////////////////////////////////////////////////////////////////////////////\r\n/////////////////////////////////////////////////////////////////////////////////////////////////////////////////\r\n\r\n4.3. check function\r\n\r\n    checkIdExisted()                // id         Verify that this ID has been used\r\n\r\n    checkAddressExisted()           // address    Verify that this address has been used\r\n\r\n    ////// check course\r\n\r\n    checkCourseCanApply             // course id \r\n                                    // Check the course ID to see if you can apply for this course\r\n\r\n    checkCourseExisted              // course id \r\n                                    // Check if this course exists by course ID\r\n\r\n    checkCourseHeldByProBlockAddress        // courseId,proBlockAddress \r\n                                            // Check whether the professor owns the course through courseId,proId\r\n\r\n    checkCourseHeldByStuBlockAddress        // courseId,stuBlockAddress \r\n                                            // Through courseId,stuId checks whether the student owns the course\r\n\r\n    \r\n*/\r\n\r\n\r\n\r\ncontract StructAndModifiers{\r\n\r\n    address public modifiersOwner;   // \r\n\r\n    constructor() {\r\n        modifiersOwner = msg.sender;\r\n        adminSelfs[1] = AdminSelf(1,'Root',modifiersOwner,3);\r\n        adminCounts++;\r\n    }\r\n\r\n//// Struct\r\n\r\n    ////////////\r\n    // admin //\r\n    ///////////\r\n    uint public adminCounts = 0; //\r\n    struct AdminSelf{\r\n        uint adminId;               // \r\n        string adminName;           //\r\n        address adminBlockAddress;  // \r\n        uint adminAuthorization;    // = 3\r\n    }\r\n    mapping(uint => AdminSelf)public adminSelfs; //\r\n    \r\n    ///////////////\r\n    // professor //\r\n    ///////////////\r\n    uint public professorCounts = 0; //\r\n    struct ProfessorSelf{\r\n        uint proId;               // \r\n        string proName;           //\r\n        address proBlockAddress;  // \r\n        uint proAuthorization;    // = 2\r\n        uint[] myProCourses;          //    Save the class you created\r\n        // ,    \r\n        // , +1 \r\n        // ,,-1   \r\n        // 0\r\n        // 0\r\n        /* \r\n            Judge whether the teacher is teaching, and the teacher who is teaching cannot be arbitrarily deprived of his authority,\r\n            When the teacher creates a course, when each student applies, + 1\r\n            When the teacher gives the student the score of a course, it indicates the end of a course, then - 1\r\n            When it is 0, it means that no course is taught\r\n            Initial 0\r\n        */\r\n        uint isTeachingPeopleSum;          \r\n    }\r\n    mapping(uint => ProfessorSelf)public professorSelfs; //\r\n    \r\n    /////////////\r\n    // student //\r\n    /////////////\r\n    uint public studentCounts = 0; //\r\n    struct StudentSelf{\r\n        uint stuId;               // \r\n        string stuName;           //\r\n        address stuBlockAddress;  // \r\n        uint stuAuthorization;    // = 1\r\n        uint[] myStuCourses;      //  Save the lesson I'm taking\r\n        //string[] myStuCourseNames;\r\n        //uint[] myStuCoursesGrades;\r\n        // , \r\n        // +1,, -1\r\n        // 0\r\n        // 0\r\n        /*\r\n            Judge whether students are in class. Students in class cannot be removed at will\r\n            When students join a course, they will + 1. When students get a grade, it means that a course ends, then - 1\r\n            If it is 0, it means that you have not studied a course\r\n            Initial 0\r\n        */\r\n        uint isLearningSum;         \r\n    }\r\n    \r\n    mapping(uint => StudentSelf)public studentSelfs; // \r\n    \r\n    /*\r\n    /////////////\r\n    // course  //\r\n    /////////////\r\n    \r\n    1.                       Record course information\r\n    2. ()    Record score information (only teachers can modify it)\r\n    \r\n    \r\n    */\r\n    \r\n    uint public courseCounts = 0;\r\n        \r\n    //  Course student information\r\n    struct CourseStudent{\r\n        address stuBlockAddress;\r\n        uint stuId;\r\n        //string stuName;\r\n        uint stuGrade;\r\n    }\r\n\r\n    // Course information\r\n    struct CourseInf{\r\n        uint courseId;          //\r\n        string courseName;      //\r\n        address proBlockAddress;\r\n        bool canApply;          // , \r\n        uint courseStudentCounts;  // \r\n        mapping (uint => CourseStudent) courseStudents;  // \r\n    }\r\n    \r\n    mapping (uint => CourseInf) public courseInfs;//Course information index\r\n    \r\n    \r\n\r\n//////////////////////////////////////////////////////////////  \r\n//////////////////////////////////////////////////////////////  \r\n/////////////////////////////// modifier function\r\n    \r\n    // onlyAdmin\r\n    modifier onlyAdmin() {\r\n        bool isAdmin = false;\r\n        for (uint256 i = 0; i <= adminCounts; i++) {\r\n            if(msg.sender == adminSelfs[i].adminBlockAddress){                \r\n                isAdmin = true;\r\n            }\r\n        }\r\n        require(isAdmin,\">>>>>>isAdmin = false\");\r\n        _;\r\n    }\r\n\r\n    \r\n    // onlyProfessor\r\n    modifier onlyProfessor() {\r\n        bool isProfessor = false;\r\n        for (uint256 i = 0; i <= professorCounts; i++) {  \r\n            if(msg.sender == professorSelfs[i].proBlockAddress){               \r\n                isProfessor = true;\r\n            }\r\n        }\r\n        require(isProfessor,\"isProfessor = false\");\r\n        _;\r\n    }\r\n/*   \r\n    // \r\n    function checkIsStudent(address _stuBlockAddress) internal view returns(bool){\r\n        for (uint i = 0; i <= studentCounts; i++) {   \r\n            if( _stuBlockAddress == studentSelfs[i].stuBlockAddress){                \r\n                return true;\r\n            }\r\n        }\r\n        return false;\r\n    }\r\n*/    \r\n    \r\n  \r\n//////////////////////////////////////////////////////////////  \r\n//////////////////////////////////////////////////////////////  \r\n///////////////////////////////  4.1. setter function\r\n\r\n\r\n    // course id Number of students setting course ID\r\n    // ,  Call once when students join the course\r\n    function setcourseStudentCounts(uint _courseid) internal {\r\n        for(uint i=1;i<=courseCounts;i++){\r\n            if(courseInfs[i].courseId == _courseid){\r\n                courseInfs[i].courseStudentCounts++; // ,  Call once, add one person\r\n            }\r\n        }\r\n    }\r\n    \r\n\r\n//////////////////////////////////////////////////////////////  \r\n//////////////////////////////////////////////////////////////  \r\n///////////////////////////////  4.2. getter function\r\n\r\n/*\r\n    // msg.sender\r\n    function getMsgSender() public view returns(address){\r\n        return msg.sender;\r\n    }\r\n\r\n    // msg.sender\r\n    function getMsgSenderAuthorization() public view returns(uint){\r\n        for(uint i=1;i<=adminCounts;i++){\r\n            if(adminSelfs[i].adminBlockAddress == msg.sender)\r\n                return adminSelfs[i].adminAuthorization;\r\n        }\r\n        for(uint i=1;i<=professorCounts;i++){\r\n            if(professorSelfs[i].proBlockAddress == msg.sender)\r\n                return professorSelfs[i].proAuthorization;\r\n        }\r\n        for(uint i=1;i<=studentCounts;i++){\r\n            if(studentSelfs[i].stuBlockAddress == msg.sender)\r\n                return studentSelfs[i].stuAuthorization;\r\n        }\r\n        return 0;\r\n    }\r\n*/\r\n\r\n    // addressid , Find this person's id through address\r\n    function getIdByAddress(address _address) public view returns(uint){\r\n        for(uint i=1;i<=adminCounts;i++){\r\n            if(adminSelfs[i].adminBlockAddress == _address)\r\n                return adminSelfs[i].adminId;\r\n        }\r\n        for(uint i=1;i<=professorCounts;i++){\r\n            if(professorSelfs[i].proBlockAddress == _address)\r\n                return professorSelfs[i].proId;\r\n        }\r\n        for(uint i=1;i<=studentCounts;i++){\r\n            if(studentSelfs[i].stuBlockAddress == _address)\r\n                return studentSelfs[i].stuId;\r\n        }\r\n        return 0; //\r\n    }\r\n \r\n    \r\n    // stuID  ,  Find this person's address by ID\r\n    function getStuAddressByStuId(uint _stuId) public view returns(address){\r\n        for(uint i=1;i<=studentCounts;i++){\r\n            if(studentSelfs[i].stuId == _stuId)\r\n                return studentSelfs[i].stuBlockAddress;\r\n        }\r\n        return address(0x0);\r\n        \r\n    }\r\n\r\n\r\n    // addressauthorization , Find this person's authorization through address\r\n    function getAuthorizationByAddress(address _address) public view returns(uint){\r\n        for(uint i=1;i<=adminCounts;i++){\r\n            if(adminSelfs[i].adminBlockAddress == _address)\r\n                return adminSelfs[i].adminAuthorization;\r\n        }\r\n        for(uint i=1;i<=professorCounts;i++){\r\n            if(professorSelfs[i].proBlockAddress == _address)\r\n                return professorSelfs[i].proAuthorization;\r\n        }\r\n        for(uint i=1;i<=studentCounts;i++){\r\n            if(studentSelfs[i].stuBlockAddress == _address)\r\n                return studentSelfs[i].stuAuthorization;\r\n        }\r\n        return 0; //\r\n    }\r\n\r\n/*\r\n    // address idnameauthorizationaddress\r\n    function getPersonInfByAddress(address _address) public view returns(uint,string memory,uint){\r\n        for(uint i=1;i<=adminCounts;i++){\r\n            if(adminSelfs[i].adminBlockAddress == _address)\r\n                return (adminSelfs[i].adminId,adminSelfs[i].adminName,adminSelfs[i].adminAuthorization);\r\n        }\r\n        for(uint i=1;i<=professorCounts;i++){\r\n            if(professorSelfs[i].proBlockAddress == _address)\r\n                return (professorSelfs[i].proId,professorSelfs[i].proName,professorSelfs[i].proAuthorization);\r\n        }\r\n        for(uint i=1;i<=studentCounts;i++){\r\n            if(studentSelfs[i].stuBlockAddress == _address)\r\n                return (studentSelfs[i].stuId,studentSelfs[i].stuName,studentSelfs[i].stuAuthorization);\r\n        }\r\n        return (0,'null',0); //\r\n    }\r\n*/\r\n\r\n/////////////////////////////////////////////////////////////////////////////////////////////////////////////////\r\n\r\n// getter about admin\r\n\r\n\r\n    //  address adminindex , Find the index in admin by ID\r\n    function getAdminIndexByAddress(address _adminBlockAddress) public view returns(uint){\r\n        for(uint i=1;i<=adminCounts;i++){\r\n            if(adminSelfs[i].adminBlockAddress ==_adminBlockAddress) {\r\n                return i;  // \r\n            }    \r\n        }\r\n        return 0; // \r\n    }\r\n    \r\n\r\n/////////////////////////////////////////////////////////////////////////////////////////////////////////////////\r\n\r\n// getter about professor\r\n\r\n\r\n    //  address professorindex , Find the index in the professor by ID\r\n    function getProfessorIndexByAddress(address _proBlockAddress) public view returns(uint){\r\n        for(uint i=1;i<=professorCounts;i++){\r\n            if(professorSelfs[i].proBlockAddress ==_proBlockAddress) {\r\n                return i;  // \r\n            }    \r\n        }\r\n        return 0; // \r\n    }\r\n\r\n/*\r\n    // proAddresspro\r\n    function getProfessorInfByProAddress(address _proBlockAddress) public view returns(uint,string memory,address,uint,uint[] memory ){\r\n        // proIndex\r\n        uint proIndex = getProfessorIndexByAddress(_proBlockAddress);\r\n        //  proId,proName,proBlockAddress,proAuthorization,myProCourses\r\n        uint proId_ = professorSelfs[proIndex].proId;\r\n        string memory proName_ = professorSelfs[proIndex].proName;\r\n        address proBlockAddress_ = professorSelfs[proIndex].proBlockAddress;\r\n        uint proAuthorization_ = professorSelfs[proIndex].proAuthorization;\r\n        uint[] memory myProCourses_ = getCourseIdByProAddress(_proBlockAddress);\r\n        // return\r\n        return (proId_,proName_,proBlockAddress_,proAuthorization_,myProCourses_);\r\n    }\r\n\r\n\r\n    // \r\n    function getAllProfessorAddress() public view returns(address[] memory){\r\n        address[] memory allProfessorAddress_ = new address[](professorCounts);\r\n        for(uint i=1;i<=professorCounts;i++){\r\n            allProfessorAddress_[i-1] = professorSelfs[i].proBlockAddress;\r\n        }\r\n        return allProfessorAddress_;\r\n    }\r\n*/\r\n\r\n/*\r\n    // ID\r\n    function getAllProfessorId() public view returns(uint[] memory){\r\n        uint[] memory allProfessorId_ = new uint[](professorCounts);\r\n        for(uint i=1;i<=professorCounts;i++){\r\n            allProfessorId_[i-1] = professorSelfs[i].proId;\r\n        }\r\n        return allProfessorId_;\r\n    }\r\n*/\r\n/////////////////////////////////////////////////////////////////////////////////////////////////////////////////\r\n\r\n// getter about student\r\n\r\n\r\n    //  address studentindex  ,Find the index in the student by ID\r\n    function getStudentIndexByAddress(address _stuBlockAddress) public view returns(uint){\r\n        for(uint i=1;i<=studentCounts;i++){\r\n            if(studentSelfs[i].stuBlockAddress ==_stuBlockAddress) {\r\n                return i;  // \r\n            }    \r\n        }\r\n        return 0; // \r\n    }\r\n\r\n/*\r\n    //  address\r\n    function getStudentNameByAddress(address _stuBlockAddress) public view returns(string memory){\r\n        for(uint i=1;i<=studentCounts;i++){\r\n            if(studentSelfs[i].stuBlockAddress ==_stuBlockAddress) {\r\n                return studentSelfs[i].stuName; // \r\n            }    \r\n        }\r\n        return 'null';      \r\n    }\r\n*/\r\n\r\n    //  id\r\n    function getStudentNameById(uint _stuId) public view returns(string memory){\r\n        for(uint i=1;i<=studentCounts;i++){\r\n            if(studentSelfs[i].stuId == _stuId) {\r\n                return studentSelfs[i].stuName; // \r\n            }    \r\n        }\r\n        return 'null';      \r\n    }\r\n\r\n\r\n    // course id\r\n    function getStudentGradeByCourseIdAndStuAddr(uint _courseId,address _stuAddress) public view returns(uint){\r\n        // \r\n        uint courseIdx = getIndexByCourseId(_courseId);\r\n        // \r\n        for(uint i = 1; i <= courseInfs[courseIdx].courseStudentCounts; i++){\r\n            if( courseInfs[courseIdx].courseStudents[i].stuBlockAddress == _stuAddress){\r\n                return courseInfs[courseIdx].courseStudents[i].stuGrade;\r\n            }\r\n        }\r\n        return 0;\r\n    }\r\n\r\n    // stuAddressstu\r\n    function getStudentInfByStuAddress(address _stuBlockAddress) public view returns(uint,string memory,address,uint,uint[] memory,uint[] memory ){\r\n        // stuIndex\r\n        uint stuIndex = getStudentIndexByAddress(_stuBlockAddress);\r\n        //  stuId,stuName,stuBlockAddress,stuAuthorization,myStuCourses\r\n        uint stuId_ = studentSelfs[stuIndex].stuId;\r\n        string memory stuName_ = studentSelfs[stuIndex].stuName;\r\n        //address stuBlockAddress_ = studentSelfs[stuIndex].stuBlockAddress;\r\n        uint stuAuthorization_ = studentSelfs[stuIndex].stuAuthorization;\r\n\r\n        uint[] memory myStuCourses_ = studentSelfs[stuIndex].myStuCourses;\r\n        //uint[] memory myStuCourses_ = getCourseIdByStuAddress(_stuBlockAddress);\r\n        \r\n        \r\n        // \r\n        //phot\r\n        uint[] memory myStuCoursesGrades_ = new uint[](myStuCourses_.length);\r\n        for(uint i = 0; i < myStuCourses_.length; i++){\r\n            myStuCoursesGrades_[i] = getStudentGradeByCourseIdAndStuAddr(myStuCourses_[i], _stuBlockAddress);\r\n        }\r\n        \r\n        // courseName, ,\r\n        // myStuCourses_ getCourseNameByCourseId()courseName\r\n\r\n        // return\r\n        return (stuId_,stuName_,_stuBlockAddress,stuAuthorization_,myStuCourses_,myStuCoursesGrades_);\r\n    }\r\n\r\n    \r\n\r\n\r\n\r\n\r\n    // \r\n    function getAllStudentAddress() public view returns(address[] memory){\r\n        address[] memory allStudentAddress_ = new address[](studentCounts);\r\n        for(uint i=1;i<=studentCounts;i++){\r\n            allStudentAddress_[i-1] = studentSelfs[i].stuBlockAddress;\r\n        }\r\n        return allStudentAddress_;\r\n    }\r\n\r\n/*\r\n    // ID\r\n    function getAllStudentId() public view returns(uint[] memory){\r\n        uint[] memory allStudentId_ = new uint[](studentCounts);\r\n        for(uint i=1;i<=studentCounts;i++){\r\n            allStudentId_[i-1] = studentSelfs[i].stuId;\r\n        }\r\n        return allStudentId_;\r\n    }\r\n*/\r\n\r\n /////////////////////////////////////////////////////////////////////////////////////////////////////////////////\r\n\r\n// getter about course\r\n\r\n    // about all course\r\n\r\n    // course id  Get the index of this course through course ID\r\n    function getIndexByCourseId(uint _courseId) public view returns(uint){\r\n        //   Find the course first\r\n        uint indexOfCourseID = 0;\r\n        for(uint i=1;i<=courseCounts;i++){\r\n            if(courseInfs[i].courseId == _courseId){\r\n                indexOfCourseID = i;\r\n                return indexOfCourseID;\r\n            }\r\n        }\r\n        return 0;\r\n    }\r\n\r\n    // course id course name\r\n    function getCourseNameByCourseId(uint _courseId) public view returns(string memory){\r\n        //   Find the course first\r\n        uint indexOfCourseID = getIndexByCourseId(_courseId);\r\n        return courseInfs[indexOfCourseID].courseName;\r\n    }\r\n\r\n\r\n    // course id\r\n    function getAllCourseId() public view returns(uint[] memory){\r\n        uint [] memory allCourseId_ = new uint[](courseCounts);\r\n        for(uint i=1;i<=courseCounts;i++){\r\n            allCourseId_[i-1] = courseInfs[i].courseId;\r\n        }\r\n        return allCourseId_;\r\n    }\r\n\r\n\r\n    // course id  Number of students who get course ID\r\n    function getcourseStudentCounts(uint _courseid) public view returns(uint courseStudentCounts_){\r\n        for(uint i=1;i<=courseCounts;i++){\r\n            if(courseInfs[i].courseId == _courseid){\r\n                return courseInfs[i].courseStudentCounts;\r\n            }\r\n        }\r\n    }\r\n\r\n/*\r\n    // course id\r\n    function getCourseStudentsByCourseId(uint _courseid) public view returns(address[] memory,uint[] memory){\r\n        // \r\n        uint courseIndex = getIndexByCourseId(_courseid);\r\n        // \r\n        uint courseStudentCounts_ = courseInfs[courseIndex].courseStudentCounts;\r\n\r\n        // \r\n        address[] memory stuAddressTemp = new address[](courseStudentCounts_); \r\n        uint[] memory stuGradeTemp = new uint[](courseStudentCounts_); \r\n\r\n        for(uint i=1;i<=courseStudentCounts_;i++){\r\n            stuAddressTemp[i-1] = courseInfs[courseIndex].courseStudents[i].stuBlockAddress;\r\n            stuGradeTemp[i-1] = courseInfs[courseIndex].courseStudents[i].stuGrade;\r\n        }\r\n        return (stuAddressTemp,stuGradeTemp);\r\n    }\r\n*/\r\n\r\n\r\n    // course id\r\n    function getCourseInfByCourseId(uint _courseid) public view returns(uint,string memory,address,uint){\r\n        // \r\n        uint courseIndex = getIndexByCourseId(_courseid);\r\n\r\n        // courseId_, courseName_,proBlockAddress_,courseStudentCounts_\r\n        uint courseId_ = courseInfs[courseIndex].courseId;          \r\n        string memory courseName_ = courseInfs[courseIndex].courseName;      \r\n        address proBlockAddress_ = courseInfs[courseIndex].proBlockAddress;\r\n        uint courseStudentCounts_ = courseInfs[courseIndex].courseStudentCounts;  \r\n\r\n        return (courseId_,courseName_,proBlockAddress_,courseStudentCounts_);\r\n    }\r\n\r\n    // course id\r\n    function getCourseStudentInfByCourseId(uint _courseid) public view returns(uint[] memory,address[] memory,uint[] memory){\r\n        // \r\n        uint courseIndex = getIndexByCourseId(_courseid);\r\n\r\n        // courseId_, courseName_,proBlockAddress_,courseStudentCounts_   \r\n        uint courseStudentCounts_ = courseInfs[courseIndex].courseStudentCounts;  \r\n\r\n        // course id\r\n        // \r\n        address[] memory stuAddressTemp = new address[](courseStudentCounts_); \r\n        uint[] memory stuIdTemp = new uint[](courseStudentCounts_); \r\n        //string[] memory stuNameTemp = new string[](courseStudentCounts_); \r\n        uint[] memory stuGradeTemp = new uint[](courseStudentCounts_); \r\n\r\n        for(uint i=1;i<=courseStudentCounts_;i++){\r\n            stuAddressTemp[i-1] = courseInfs[courseIndex].courseStudents[i].stuBlockAddress;\r\n            stuIdTemp[i-1] = courseInfs[courseIndex].courseStudents[i].stuId;\r\n            //stuNameTemp[i-1] = courseInfs[courseIndex].courseStudents[i].stuName;\r\n            stuGradeTemp[i-1] = courseInfs[courseIndex].courseStudents[i].stuGrade;\r\n        }\r\n\r\n        // ,stuId  getStudentNameById \r\n        return (stuIdTemp,stuAddressTemp,stuGradeTemp);\r\n    }\r\n\r\n\r\n    // course idn  ,n,uint\r\n    function getTopStudentsByCourseId(uint _courseid,uint _getTops) public view returns(uint,uint[] memory,address[] memory,uint[] memory){\r\n        \r\n        // \r\n        uint getTops = _getTops;\r\n        // \r\n        uint gotGradeCounts = 0;\r\n        // \r\n        uint courseIndex = getIndexByCourseId(_courseid);\r\n        // courseId_, courseName_,proBlockAddress_,courseStudentCounts_\r\n        uint courseStudentCounts_ = courseInfs[courseIndex].courseStudentCounts;  \r\n        // \r\n        if(courseStudentCounts_ < getTops){\r\n            getTops = courseStudentCounts_;\r\n        }\r\n        \r\n        // \r\n        uint[] memory gradeOfStuGradeSort = new uint[](courseStudentCounts_);\r\n        //  gradeOfStuGradeSort ,\r\n        for(uint i=1;i<=courseStudentCounts_;i++){ // \r\n            if(courseInfs[courseIndex].courseStudents[i].stuGrade > 0){\r\n                gradeOfStuGradeSort[i-1] = courseInfs[courseIndex].courseStudents[i].stuGrade;\r\n                gotGradeCounts++;\r\n            }  \r\n        }\r\n\r\n        // \r\n        if(gotGradeCounts < getTops){\r\n            getTops = gotGradeCounts;\r\n        }\r\n\r\n        //  \r\n        for(uint i=0;i<gradeOfStuGradeSort.length;i++){ //  \r\n            for(uint j=1;j<gradeOfStuGradeSort.length;j++){ // \r\n                if(gradeOfStuGradeSort[j] > gradeOfStuGradeSort[j-1]){\r\n                    // \r\n                    uint temp = gradeOfStuGradeSort[j-1];\r\n                    gradeOfStuGradeSort[j-1] = gradeOfStuGradeSort[j];\r\n                    gradeOfStuGradeSort[j] = temp;\r\n                }\r\n            }\r\n        }\r\n        // course id\r\n        // \r\n        \r\n        address[] memory stuAddressTemp = new address[](getTops);\r\n        uint[] memory stuIdTemp = new uint[](getTops);  \r\n        //string[] memory stuNameTemp = new string[](getTops);\r\n        uint[] memory stuGradeTemp = new uint[](getTops); \r\n\r\n        // indexOfStuGradeSort\r\n        //  \r\n        uint flag = 0;\r\n        for(uint i=0;i<gradeOfStuGradeSort.length;i++){ // \r\n            if(flag == getTops){ // \r\n                break;\r\n            }\r\n            // \r\n            stuGradeTemp[i] = gradeOfStuGradeSort[i];\r\n            // \r\n            for(uint j=1;j<=courseStudentCounts_;j++){ //  \r\n                if(stuGradeTemp[i] == courseInfs[courseIndex].courseStudents[j].stuGrade){\r\n                    stuIdTemp[i] = courseInfs[courseIndex].courseStudents[j].stuId;\r\n                    //stuNameTemp[i] = courseInfs[courseIndex].courseStudents[j].stuName;\r\n                    stuAddressTemp[i] = courseInfs[courseIndex].courseStudents[j].stuBlockAddress;         \r\n                }\r\n            }\r\n            flag++;\r\n        }\r\n        // stuNameTemp, stuIdTemp[] + getStudentNameById()\r\n        return (getTops,stuIdTemp,stuAddressTemp,stuGradeTemp);\r\n    }\r\n\r\n\r\n\r\n\r\n    \r\n    // pro ///////////////////////////////////\r\n\r\n    // \r\n    function getCourseCountsByProAddress(address _proBlockAddress) public view returns(uint){\r\n        // proIndex\r\n        uint proIndex = getProfessorIndexByAddress(_proBlockAddress);\r\n        return professorSelfs[proIndex].myProCourses.length;\r\n\r\n    }\r\n\r\n    // proAddressid   Get an array of all course IDs opened by a teacher through proAddress\r\n    function getCourseIdByProAddress(address _proBlockAddress) public view returns(uint[] memory){\r\n        // proIndex\r\n        uint proIndex = getProfessorIndexByAddress(_proBlockAddress);\r\n        // \r\n        uint courseLens = getCourseCountsByProAddress(_proBlockAddress);\r\n        // \r\n        uint[] memory myProCoursesTemp = new uint[](courseLens); \r\n\r\n        for(uint i=0;i<courseLens;i++){\r\n            myProCoursesTemp[i] = professorSelfs[proIndex].myProCourses[i];\r\n        }\r\n        return myProCoursesTemp;\r\n    }\r\n\r\n    \r\n    // stu ////////////////////////////////\r\n/*\r\n    // \r\n    function getCourseCountsByStuAddress(address _stuBlockAddress) public view returns(uint){\r\n        // stuIndex\r\n        uint stuIndex = getStudentIndexByAddress(_stuBlockAddress);\r\n        return studentSelfs[stuIndex].myStuCourses.length;\r\n\r\n    }\r\n\r\n    // stuAddressid   Get an array of all course IDs opened by a student through stuAddress\r\n    function getCourseIdByStuAddress(address _stuBlockAddress) public view returns(uint[] memory){\r\n        // stuIndex\r\n        uint stuIndex = getStudentIndexByAddress(_stuBlockAddress);\r\n        // \r\n        uint courseLens = getCourseCountsByStuAddress(_stuBlockAddress);\r\n        // \r\n        uint[] memory myStuCoursesTemp = new uint[](courseLens); \r\n\r\n        for(uint i=0;i<courseLens;i++){\r\n            myStuCoursesTemp[i] = studentSelfs[stuIndex].myStuCourses[i];\r\n        }\r\n        return myStuCoursesTemp;\r\n    }\r\n*/\r\n    \r\n\r\n\r\n//////////////////////////////////////////////////////////////  \r\n//////////////////////////////////////////////////////////////  \r\n///////////////////////////////   4.3. check function\r\n/*\r\n    // id      Verify that this ID has been used\r\n    function checkIdExisted(uint _id) internal view returns(bool){\r\n        for(uint i=1;i<=adminCounts;i++){\r\n            if(adminSelfs[i].adminId == _id)\r\n                return true;\r\n        }\r\n        for(uint i=1;i<=professorCounts;i++){\r\n            if(professorSelfs[i].proId == _id)\r\n                return true;\r\n        }\r\n        for(uint i=1;i<=studentCounts;i++){\r\n            if(studentSelfs[i].stuId == _id)\r\n                return true;\r\n        }\r\n        return false; // \r\n    }\r\n*/    \r\n    \r\n    // address  Verify that this address has been used\r\n    function checkAddressExisted(address _address) internal view returns(bool){\r\n        for(uint i=1;i<=adminCounts;i++){\r\n            if(adminSelfs[i].adminBlockAddress == _address)\r\n                return true;\r\n        }\r\n        for(uint i=1;i<=professorCounts;i++){\r\n            if(professorSelfs[i].proBlockAddress == _address)\r\n                return true;\r\n        }\r\n        for(uint i=1;i<=studentCounts;i++){\r\n            if(studentSelfs[i].stuBlockAddress == _address)\r\n                return true;\r\n        }\r\n        return false; // \r\n    }\r\n\r\n\r\n    ////// check course /////////////////\r\n\r\n    // \r\n    function checkCourseCanApply(uint _courseId) internal view returns(bool){\r\n        //  find this course\r\n        for(uint i=1;i<=courseCounts;i++){\r\n            if(courseInfs[i].courseId == _courseId){\r\n                if(courseInfs[i].canApply == true){\r\n                    return true;\r\n                }\r\n            }\r\n        }\r\n        return false;\r\n    }\r\n\r\n    // course id   Check whether this course exists through course ID\r\n    function checkCourseExisted(uint _courseId) internal view returns(bool){\r\n        //  find this course\r\n        for(uint i=1;i<=courseCounts;i++){\r\n            if(courseInfs[i].courseId == _courseId){\r\n                return true;\r\n            }\r\n        }\r\n        return false;\r\n    }\r\n\r\n/* \r\n    // courseidproBlockAddress\r\n    // Check whether the professor has this course through courseid and proid\r\n    function checkCourseHeldByProBlockAddress(uint _courseId,address _proBlockAddress) internal view returns(bool){\r\n        for(uint i=1;i<=professorCounts;i++){\r\n            //   Find the corresponding Professor first\r\n            if(professorSelfs[i].proBlockAddress == _proBlockAddress){\r\n                // proBlockAddressmyProCoursescourseId\r\n                // Check whether the corresponding courseid exists in the myprocourses array under this proid\r\n                for(uint k=0;k<=professorSelfs[i].myProCourses.length;k++){\r\n                    if(professorSelfs[i].myProCourses[k] == _courseId){\r\n                        return true;\r\n                    }\r\n                }\r\n            }\r\n        }\r\n        return false;\r\n    }\r\n*/    \r\n    \r\n    // courseId,stuId \r\n    // Check whether students have this course through courseid and stuid\r\n    function checkCourseHeldByStuBlockAddress(uint _courseId,address _stuBlockAddress) internal view returns(bool){\r\n        for(uint i=1;i<=studentCounts;i++){\r\n            //   Find the corresponding student first\r\n            if(studentSelfs[i].stuBlockAddress == _stuBlockAddress){\r\n                // stuBlockAddressmyStuCoursescourseId\r\n                // Check whether the corresponding courseid exists in the mystucourses array under this stuid\r\n                for(uint k=0;k<=studentSelfs[i].myStuCourses.length;k++){\r\n                    if(studentSelfs[i].myStuCourses[k] == _courseId){\r\n                        return true;\r\n                    }\r\n                }\r\n            }\r\n        }\r\n        return false;\r\n    }\r\n    \r\n\r\n\r\n\r\n\r\n}\r\n\r\n",
  "sourcePath": "D:\\desktop\\truffle_v4.4\\contracts\\StructAndModifiers.sol",
  "compiler": {
    "name": "solc",
    "version": "0.8.7+commit.e28d00a7.Emscripten.clang"
  },
  "schemaVersion": "3.4.3",
  "updatedAt": "2021-12-05T11:42:03.277Z",
  "devdoc": {
    "kind": "dev",
    "methods": {},
    "version": 1
  },
  "userdoc": {
    "kind": "user",
    "methods": {},
    "version": 1
  }
}