{
  "contractName": "StructAndModifiers",
  "abi": [
    {
      "inputs": [],
      "stateMutability": "nonpayable",
      "type": "constructor"
    },
    {
      "inputs": [],
      "name": "adminCounts",
      "outputs": [
        {
          "internalType": "uint256",
          "name": "",
          "type": "uint256"
        }
      ],
      "stateMutability": "view",
      "type": "function"
    },
    {
      "inputs": [
        {
          "internalType": "uint256",
          "name": "",
          "type": "uint256"
        }
      ],
      "name": "adminSelfs",
      "outputs": [
        {
          "internalType": "uint256",
          "name": "adminId",
          "type": "uint256"
        },
        {
          "internalType": "string",
          "name": "adminName",
          "type": "string"
        },
        {
          "internalType": "address",
          "name": "adminBlockAddress",
          "type": "address"
        },
        {
          "internalType": "uint256",
          "name": "adminAuthorization",
          "type": "uint256"
        }
      ],
      "stateMutability": "view",
      "type": "function"
    },
    {
      "inputs": [],
      "name": "courseCounts",
      "outputs": [
        {
          "internalType": "uint256",
          "name": "",
          "type": "uint256"
        }
      ],
      "stateMutability": "view",
      "type": "function"
    },
    {
      "inputs": [
        {
          "internalType": "uint256",
          "name": "",
          "type": "uint256"
        }
      ],
      "name": "courseInfs",
      "outputs": [
        {
          "internalType": "uint256",
          "name": "courseId",
          "type": "uint256"
        },
        {
          "internalType": "string",
          "name": "courseName",
          "type": "string"
        },
        {
          "internalType": "address",
          "name": "proBlockAddress",
          "type": "address"
        },
        {
          "internalType": "bool",
          "name": "canApply",
          "type": "bool"
        },
        {
          "internalType": "uint256",
          "name": "courseStudentCounts",
          "type": "uint256"
        }
      ],
      "stateMutability": "view",
      "type": "function"
    },
    {
      "inputs": [],
      "name": "modifiersOwner",
      "outputs": [
        {
          "internalType": "address",
          "name": "",
          "type": "address"
        }
      ],
      "stateMutability": "view",
      "type": "function"
    },
    {
      "inputs": [],
      "name": "professorCounts",
      "outputs": [
        {
          "internalType": "uint256",
          "name": "",
          "type": "uint256"
        }
      ],
      "stateMutability": "view",
      "type": "function"
    },
    {
      "inputs": [
        {
          "internalType": "uint256",
          "name": "",
          "type": "uint256"
        }
      ],
      "name": "professorSelfs",
      "outputs": [
        {
          "internalType": "uint256",
          "name": "proId",
          "type": "uint256"
        },
        {
          "internalType": "string",
          "name": "proName",
          "type": "string"
        },
        {
          "internalType": "address",
          "name": "proBlockAddress",
          "type": "address"
        },
        {
          "internalType": "uint256",
          "name": "proAuthorization",
          "type": "uint256"
        },
        {
          "internalType": "uint256",
          "name": "isTeachingPeopleSum",
          "type": "uint256"
        }
      ],
      "stateMutability": "view",
      "type": "function"
    },
    {
      "inputs": [],
      "name": "studentCounts",
      "outputs": [
        {
          "internalType": "uint256",
          "name": "",
          "type": "uint256"
        }
      ],
      "stateMutability": "view",
      "type": "function"
    },
    {
      "inputs": [
        {
          "internalType": "uint256",
          "name": "",
          "type": "uint256"
        }
      ],
      "name": "studentSelfs",
      "outputs": [
        {
          "internalType": "uint256",
          "name": "stuId",
          "type": "uint256"
        },
        {
          "internalType": "string",
          "name": "stuName",
          "type": "string"
        },
        {
          "internalType": "address",
          "name": "stuBlockAddress",
          "type": "address"
        },
        {
          "internalType": "uint256",
          "name": "stuAuthorization",
          "type": "uint256"
        },
        {
          "internalType": "uint256",
          "name": "isLearningSum",
          "type": "uint256"
        }
      ],
      "stateMutability": "view",
      "type": "function"
    },
    {
      "inputs": [
        {
          "internalType": "address",
          "name": "_address",
          "type": "address"
        }
      ],
      "name": "getIdByAddress",
      "outputs": [
        {
          "internalType": "uint256",
          "name": "",
          "type": "uint256"
        }
      ],
      "stateMutability": "view",
      "type": "function"
    },
    {
      "inputs": [
        {
          "internalType": "uint256",
          "name": "_stuId",
          "type": "uint256"
        }
      ],
      "name": "getStuAddressByStuId",
      "outputs": [
        {
          "internalType": "address",
          "name": "",
          "type": "address"
        }
      ],
      "stateMutability": "view",
      "type": "function"
    },
    {
      "inputs": [
        {
          "internalType": "address",
          "name": "_address",
          "type": "address"
        }
      ],
      "name": "getAuthorizationByAddress",
      "outputs": [
        {
          "internalType": "uint256",
          "name": "",
          "type": "uint256"
        }
      ],
      "stateMutability": "view",
      "type": "function"
    },
    {
      "inputs": [
        {
          "internalType": "address",
          "name": "_adminBlockAddress",
          "type": "address"
        }
      ],
      "name": "getAdminIndexByAddress",
      "outputs": [
        {
          "internalType": "uint256",
          "name": "",
          "type": "uint256"
        }
      ],
      "stateMutability": "view",
      "type": "function"
    },
    {
      "inputs": [
        {
          "internalType": "address",
          "name": "_proBlockAddress",
          "type": "address"
        }
      ],
      "name": "getProfessorIndexByAddress",
      "outputs": [
        {
          "internalType": "uint256",
          "name": "",
          "type": "uint256"
        }
      ],
      "stateMutability": "view",
      "type": "function"
    },
    {
      "inputs": [
        {
          "internalType": "address",
          "name": "_profAddr",
          "type": "address"
        }
      ],
      "name": "getProfessorNameByAddress",
      "outputs": [
        {
          "internalType": "string",
          "name": "",
          "type": "string"
        }
      ],
      "stateMutability": "view",
      "type": "function"
    },
    {
      "inputs": [
        {
          "internalType": "address",
          "name": "_stuBlockAddress",
          "type": "address"
        }
      ],
      "name": "getStudentIndexByAddress",
      "outputs": [
        {
          "internalType": "uint256",
          "name": "",
          "type": "uint256"
        }
      ],
      "stateMutability": "view",
      "type": "function"
    },
    {
      "inputs": [
        {
          "internalType": "uint256",
          "name": "_stuId",
          "type": "uint256"
        }
      ],
      "name": "getStudentNameById",
      "outputs": [
        {
          "internalType": "string",
          "name": "",
          "type": "string"
        }
      ],
      "stateMutability": "view",
      "type": "function"
    },
    {
      "inputs": [
        {
          "internalType": "uint256",
          "name": "_courseId",
          "type": "uint256"
        },
        {
          "internalType": "address",
          "name": "_stuAddress",
          "type": "address"
        }
      ],
      "name": "getStudentGradeByCourseIdAndStuAddr",
      "outputs": [
        {
          "internalType": "uint256",
          "name": "",
          "type": "uint256"
        }
      ],
      "stateMutability": "view",
      "type": "function"
    },
    {
      "inputs": [
        {
          "internalType": "address",
          "name": "_stuBlockAddress",
          "type": "address"
        }
      ],
      "name": "getStudentInfByStuAddress",
      "outputs": [
        {
          "internalType": "uint256",
          "name": "",
          "type": "uint256"
        },
        {
          "internalType": "string",
          "name": "",
          "type": "string"
        },
        {
          "internalType": "address",
          "name": "",
          "type": "address"
        },
        {
          "internalType": "uint256",
          "name": "",
          "type": "uint256"
        },
        {
          "internalType": "uint256[]",
          "name": "",
          "type": "uint256[]"
        },
        {
          "internalType": "uint256[]",
          "name": "",
          "type": "uint256[]"
        }
      ],
      "stateMutability": "view",
      "type": "function"
    },
    {
      "inputs": [],
      "name": "getAllStudentAddress",
      "outputs": [
        {
          "internalType": "address[]",
          "name": "",
          "type": "address[]"
        }
      ],
      "stateMutability": "view",
      "type": "function"
    },
    {
      "inputs": [
        {
          "internalType": "uint256",
          "name": "_courseId",
          "type": "uint256"
        }
      ],
      "name": "getIndexByCourseId",
      "outputs": [
        {
          "internalType": "uint256",
          "name": "",
          "type": "uint256"
        }
      ],
      "stateMutability": "view",
      "type": "function"
    },
    {
      "inputs": [
        {
          "internalType": "uint256",
          "name": "_courseId",
          "type": "uint256"
        }
      ],
      "name": "getCourseNameByCourseId",
      "outputs": [
        {
          "internalType": "string",
          "name": "",
          "type": "string"
        }
      ],
      "stateMutability": "view",
      "type": "function"
    },
    {
      "inputs": [],
      "name": "getAllCourseId",
      "outputs": [
        {
          "internalType": "uint256[]",
          "name": "",
          "type": "uint256[]"
        }
      ],
      "stateMutability": "view",
      "type": "function"
    },
    {
      "inputs": [
        {
          "internalType": "uint256",
          "name": "_courseid",
          "type": "uint256"
        }
      ],
      "name": "getcourseStudentCounts",
      "outputs": [
        {
          "internalType": "uint256",
          "name": "courseStudentCounts_",
          "type": "uint256"
        }
      ],
      "stateMutability": "view",
      "type": "function"
    },
    {
      "inputs": [
        {
          "internalType": "uint256",
          "name": "_courseid",
          "type": "uint256"
        }
      ],
      "name": "getCourseInfByCourseId",
      "outputs": [
        {
          "internalType": "uint256",
          "name": "",
          "type": "uint256"
        },
        {
          "internalType": "string",
          "name": "",
          "type": "string"
        },
        {
          "internalType": "address",
          "name": "",
          "type": "address"
        },
        {
          "internalType": "uint256",
          "name": "",
          "type": "uint256"
        }
      ],
      "stateMutability": "view",
      "type": "function"
    },
    {
      "inputs": [
        {
          "internalType": "uint256",
          "name": "_courseid",
          "type": "uint256"
        }
      ],
      "name": "getCourseStudentInfByCourseId",
      "outputs": [
        {
          "internalType": "uint256[]",
          "name": "",
          "type": "uint256[]"
        },
        {
          "internalType": "address[]",
          "name": "",
          "type": "address[]"
        },
        {
          "internalType": "uint256[]",
          "name": "",
          "type": "uint256[]"
        }
      ],
      "stateMutability": "view",
      "type": "function"
    },
    {
      "inputs": [
        {
          "internalType": "uint256",
          "name": "_courseid",
          "type": "uint256"
        },
        {
          "internalType": "uint256",
          "name": "_getTops",
          "type": "uint256"
        }
      ],
      "name": "getTopStudentsByCourseId",
      "outputs": [
        {
          "internalType": "uint256",
          "name": "",
          "type": "uint256"
        },
        {
          "internalType": "uint256[]",
          "name": "",
          "type": "uint256[]"
        },
        {
          "internalType": "address[]",
          "name": "",
          "type": "address[]"
        },
        {
          "internalType": "uint256[]",
          "name": "",
          "type": "uint256[]"
        }
      ],
      "stateMutability": "view",
      "type": "function"
    },
    {
      "inputs": [
        {
          "internalType": "address",
          "name": "_proBlockAddress",
          "type": "address"
        }
      ],
      "name": "getCourseCountsByProAddress",
      "outputs": [
        {
          "internalType": "uint256",
          "name": "",
          "type": "uint256"
        }
      ],
      "stateMutability": "view",
      "type": "function"
    },
    {
      "inputs": [
        {
          "internalType": "address",
          "name": "_proBlockAddress",
          "type": "address"
        }
      ],
      "name": "getCourseIdByProAddress",
      "outputs": [
        {
          "internalType": "uint256[]",
          "name": "",
          "type": "uint256[]"
        }
      ],
      "stateMutability": "view",
      "type": "function"
    }
  ],
  "bytecode": "0x608060405260006001556000600355600060055560006007553480156200002557600080fd5b50336000806101000a81548173ffffffffffffffffffffffffffffffffffffffff021916908373ffffffffffffffffffffffffffffffffffffffff1602179055506040518060800160405280600181526020016040518060400160405280600481526020017f526f6f7400000000000000000000000000000000000000000000000000000000815250815260200160008054906101000a900473ffffffffffffffffffffffffffffffffffffffff1673ffffffffffffffffffffffffffffffffffffffff1681526020016003815250600260006001815260200190815260200160002060008201518160000155602082015181600101908051906020019062000130929190620001a5565b5060408201518160020160006101000a81548173ffffffffffffffffffffffffffffffffffffffff021916908373ffffffffffffffffffffffffffffffffffffffff16021790555060608201518160030155905050600160008154809291906200019a9062000295565b919050555062000341565b828054620001b3906200025f565b90600052602060002090601f016020900481019282620001d7576000855562000223565b82601f10620001f257805160ff191683800117855562000223565b8280016001018555821562000223579182015b828111156200022257825182559160200191906001019062000205565b5b50905062000232919062000236565b5090565b5b808211156200025157600081600090555060010162000237565b5090565b6000819050919050565b600060028204905060018216806200027857607f821691505b602082108114156200028f576200028e62000312565b5b50919050565b6000620002a28262000255565b91507fffffffffffffffffffffffffffffffffffffffffffffffffffffffffffffffff821415620002d857620002d7620002e3565b5b600182019050919050565b7f4e487b7100000000000000000000000000000000000000000000000000000000600052601160045260246000fd5b7f4e487b7100000000000000000000000000000000000000000000000000000000600052602260045260246000fd5b612c9180620003516000396000f3fe608060405234801561001057600080fd5b50600436106101ce5760003560e01c8063606870da11610104578063a5cc464d116100a2578063dff3b49711610071578063dff3b49714610657578063f6aa09e414610687578063fb3189e8146106a5578063fc0c1f39146106c3576101ce565b8063a5cc464d14610597578063ad9e42d9146105c7578063c5ad81de146105f7578063ced3ae6114610627576101ce565b806394e48ece116100de57806394e48ece146104f8578063982203be1461052b57806398aede551461055b5780639fde094314610579576101ce565b8063606870da146104785780637860a069146104aa57806390eab7a2146104c8576101ce565b80632b81bd8d116101715780634d64e5ee1161014b5780634d64e5ee146103af5780634d953abb146103e357806358a42065146104135780635e719a4914610448576101ce565b80632b81bd8d1461031c57806330e947111461034c5780634d4fb0d71461037f576101ce565b80630e3bfd6c116101ad5780630e3bfd6c1461026b57806310d756dd146102895780631643c8db146102b95780632454a939146102ec576101ce565b80624255a6146101d3578063043022fa146102075780630c1596b41461023b575b600080fd5b6101ed60048036038101906101e891906124ce565b6106e1565b6040516101fe959493929190612949565b60405180910390f35b610221600480360381019061021c91906124ce565b6107bf565b60405161023295949392919061282d565b60405180910390f35b610255600480360381019061025091906124a1565b6108aa565b6040516102629190612728565b60405180910390f35b61027361098f565b60405161028091906127b8565b60405180910390f35b6102a3600480360381019061029e91906124a1565b610995565b6040516102b091906127b8565b60405180910390f35b6102d360048036038101906102ce91906124ce565b610a37565b6040516102e39493929190612887565b60405180910390f35b610306600480360381019061030191906124a1565b610b0f565b60405161031391906127b8565b60405180910390f35b610336600480360381019061033191906124ce565b610bb1565b6040516103439190612796565b60405180910390f35b610366600480360381019061036191906124ce565b610cda565b6040516103769493929190612887565b60405180910390f35b610399600480360381019061039491906124a1565b610e1a565b6040516103a691906127b8565b60405180910390f35b6103c960048036038101906103c491906124ce565b610e4a565b6040516103da959493929190612949565b60405180910390f35b6103fd60048036038101906103f891906124a1565b610f28565b60405161040a9190612796565b60405180910390f35b61042d600480360381019061042891906124a1565b61109d565b60405161043f969594939291906128d3565b60405180910390f35b610462600480360381019061045d91906124ce565b6112c8565b60405161046f91906127b8565b60405180910390f35b610492600480360381019061048d91906124ce565b611330565b6040516104a19392919061274a565b60405180910390f35b6104b26115cb565b6040516104bf91906127b8565b60405180910390f35b6104e260048036038101906104dd91906124a1565b6115d1565b6040516104ef91906127b8565b60405180910390f35b610512600480360381019061050d919061253b565b6117e3565b60405161052294939291906127d3565b60405180910390f35b610545600480360381019061054091906124ce565b611d22565b60405161055291906126eb565b60405180910390f35b610563611dae565b60405161057091906126eb565b60405180910390f35b610581611dd2565b60405161058e9190612706565b60405180910390f35b6105b160048036038101906105ac91906124a1565b611ede565b6040516105be91906127b8565b60405180910390f35b6105e160048036038101906105dc91906124ce565b611f80565b6040516105ee91906127b8565b60405180910390f35b610611600480360381019061060c91906124ce565b611fe1565b60405161061e9190612796565b60405180910390f35b610641600480360381019061063c91906124fb565b612097565b60405161064e91906127b8565b60405180910390f35b610671600480360381019061066c91906124a1565b61219b565b60405161067e91906127b8565b60405180910390f35b61068f6123ad565b60405161069c9190612728565b60405180910390f35b6106ad61246b565b6040516106ba91906127b8565b60405180910390f35b6106cb612471565b6040516106d891906127b8565b60405180910390f35b600660205280600052604060002060009150905080600001549080600101805461070a90612ae0565b80601f016020809104026020016040519081016040528092919081815260200182805461073690612ae0565b80156107835780601f1061075857610100808354040283529160200191610783565b820191906000526020600020905b81548152906001019060200180831161076657829003601f168201915b5050505050908060020160009054906101000a900473ffffffffffffffffffffffffffffffffffffffff16908060030154908060050154905085565b60086020528060005260406000206000915090508060000154908060010180546107e890612ae0565b80601f016020809104026020016040519081016040528092919081815260200182805461081490612ae0565b80156108615780601f1061083657610100808354040283529160200191610861565b820191906000526020600020905b81548152906001019060200180831161084457829003601f168201915b5050505050908060020160009054906101000a900473ffffffffffffffffffffffffffffffffffffffff16908060020160149054906101000a900460ff16908060030154905085565b606060006108b783611ede565b905060006108c484610e1a565b905060008167ffffffffffffffff8111156108e2576108e1612be8565b5b6040519080825280602002602001820160405280156109105781602001602082028036833780820191505090505b50905060005b828110156109835760046000858152602001908152602001600020600401818154811061094657610945612bb9565b5b906000526020600020015482828151811061096457610963612bb9565b5b602002602001018181525050808061097b90612b12565b915050610916565b50809350505050919050565b60075481565b600080600190505b6001548111610a2c578273ffffffffffffffffffffffffffffffffffffffff166002600083815260200190815260200160002060020160009054906101000a900473ffffffffffffffffffffffffffffffffffffffff1673ffffffffffffffffffffffffffffffffffffffff161415610a195780915050610a32565b8080610a2490612b12565b91505061099d565b50600090505b919050565b6002602052806000526040600020600091509050806000015490806001018054610a6090612ae0565b80601f0160208091040260200160405190810160405280929190818152602001828054610a8c90612ae0565b8015610ad95780601f10610aae57610100808354040283529160200191610ad9565b820191906000526020600020905b815481529060010190602001808311610abc57829003601f168201915b5050505050908060020160009054906101000a900473ffffffffffffffffffffffffffffffffffffffff16908060030154905084565b600080600190505b6005548111610ba6578273ffffffffffffffffffffffffffffffffffffffff166006600083815260200190815260200160002060020160009054906101000a900473ffffffffffffffffffffffffffffffffffffffff1673ffffffffffffffffffffffffffffffffffffffff161415610b935780915050610bac565b8080610b9e90612b12565b915050610b17565b50600090505b919050565b60606000600190505b6005548111610c9b578260066000838152602001908152602001600020600001541415610c8857600660008281526020019081526020016000206001018054610c0290612ae0565b80601f0160208091040260200160405190810160405280929190818152602001828054610c2e90612ae0565b8015610c7b5780601f10610c5057610100808354040283529160200191610c7b565b820191906000526020600020905b815481529060010190602001808311610c5e57829003601f168201915b5050505050915050610cd5565b8080610c9390612b12565b915050610bba565b506040518060400160405280600481526020017f6e756c6c0000000000000000000000000000000000000000000000000000000081525090505b919050565b600060606000806000610cec86611f80565b90506000600860008381526020019081526020016000206000015490506000600860008481526020019081526020016000206001018054610d2c90612ae0565b80601f0160208091040260200160405190810160405280929190818152602001828054610d5890612ae0565b8015610da55780601f10610d7a57610100808354040283529160200191610da5565b820191906000526020600020905b815481529060010190602001808311610d8857829003601f168201915b5050505050905060006008600085815260200190815260200160002060020160009054906101000a900473ffffffffffffffffffffffffffffffffffffffff16905060006008600086815260200190815260200160002060030154905083838383985098509850985050505050509193509193565b600080610e2683611ede565b90506004600082815260200190815260200160002060040180549050915050919050565b6004602052806000526040600020600091509050806000015490806001018054610e7390612ae0565b80601f0160208091040260200160405190810160405280929190818152602001828054610e9f90612ae0565b8015610eec5780601f10610ec157610100808354040283529160200191610eec565b820191906000526020600020905b815481529060010190602001808311610ecf57829003601f168201915b5050505050908060020160009054906101000a900473ffffffffffffffffffffffffffffffffffffffff16908060030154908060050154905085565b60606000600190505b600354811161105e578273ffffffffffffffffffffffffffffffffffffffff166004600083815260200190815260200160002060020160009054906101000a900473ffffffffffffffffffffffffffffffffffffffff1673ffffffffffffffffffffffffffffffffffffffff16141561104b57600460008281526020019081526020016000206001018054610fc590612ae0565b80601f0160208091040260200160405190810160405280929190818152602001828054610ff190612ae0565b801561103e5780601f106110135761010080835404028352916020019161103e565b820191906000526020600020905b81548152906001019060200180831161102157829003601f168201915b5050505050915050611098565b808061105690612b12565b915050610f31565b506040518060400160405280600481526020017f6e756c6c0000000000000000000000000000000000000000000000000000000081525090505b919050565b6000606060008060608060006110b288610b0f565b905060006006600083815260200190815260200160002060000154905060006006600084815260200190815260200160002060010180546110f290612ae0565b80601f016020809104026020016040519081016040528092919081815260200182805461111e90612ae0565b801561116b5780601f106111405761010080835404028352916020019161116b565b820191906000526020600020905b81548152906001019060200180831161114e57829003601f168201915b505050505090506000600660008581526020019081526020016000206003015490506000600660008681526020019081526020016000206004018054806020026020016040519081016040528092919081815260200182805480156111ef57602002820191906000526020600020905b8154815260200190600101908083116111db575b505050505090506000815167ffffffffffffffff81111561121357611212612be8565b5b6040519080825280602002602001820160405280156112415781602001602082028036833780820191505090505b50905060005b82518110156112a65761127483828151811061126657611265612bb9565b5b60200260200101518f612097565b82828151811061128757611286612bb9565b5b602002602001018181525050808061129e90612b12565b915050611247565b5084848e8585859b509b509b509b509b509b5050505050505091939550919395565b600080600190505b600754811161132957826008600083815260200190815260200160002060000154141561131657600860008281526020019081526020016000206003015491505061132b565b808061132190612b12565b9150506112d0565b505b919050565b6060806060600061134085611f80565b905060006008600083815260200190815260200160002060030154905060008167ffffffffffffffff81111561137957611378612be8565b5b6040519080825280602002602001820160405280156113a75781602001602082028036833780820191505090505b50905060008267ffffffffffffffff8111156113c6576113c5612be8565b5b6040519080825280602002602001820160405280156113f45781602001602082028036833780820191505090505b50905060008367ffffffffffffffff81111561141357611412612be8565b5b6040519080825280602002602001820160405280156114415781602001602082028036833780820191505090505b5090506000600190505b8481116115b55760086000878152602001908152602001600020600401600082815260200190815260200160002060000160009054906101000a900473ffffffffffffffffffffffffffffffffffffffff16846001836114ab9190612a31565b815181106114bc576114bb612bb9565b5b602002602001019073ffffffffffffffffffffffffffffffffffffffff16908173ffffffffffffffffffffffffffffffffffffffff1681525050600860008781526020019081526020016000206004016000828152602001908152602001600020600101548360018361152f9190612a31565b815181106115405761153f612bb9565b5b60200260200101818152505060086000878152602001908152602001600020600401600082815260200190815260200160002060020154826001836115859190612a31565b8151811061159657611595612bb9565b5b60200260200101818152505080806115ad90612b12565b91505061144b565b5081838297509750975050505050509193909250565b60035481565b600080600190505b600154811161167e578273ffffffffffffffffffffffffffffffffffffffff166002600083815260200190815260200160002060020160009054906101000a900473ffffffffffffffffffffffffffffffffffffffff1673ffffffffffffffffffffffffffffffffffffffff16141561166b5760026000828152602001908152602001600020600301549150506117de565b808061167690612b12565b9150506115d9565b506000600190505b600354811161172b578273ffffffffffffffffffffffffffffffffffffffff166004600083815260200190815260200160002060020160009054906101000a900473ffffffffffffffffffffffffffffffffffffffff1673ffffffffffffffffffffffffffffffffffffffff1614156117185760046000828152602001908152602001600020600301549150506117de565b808061172390612b12565b915050611686565b506000600190505b60055481116117d8578273ffffffffffffffffffffffffffffffffffffffff166006600083815260200190815260200160002060020160009054906101000a900473ffffffffffffffffffffffffffffffffffffffff1673ffffffffffffffffffffffffffffffffffffffff1614156117c55760066000828152602001908152602001600020600301549150506117de565b80806117d090612b12565b915050611733565b50600090505b919050565b6000606080606060008590506000806117fb89611f80565b905060006008600083815260200190815260200160002060030154905083811015611824578093505b60008167ffffffffffffffff8111156118405761183f612be8565b5b60405190808252806020026020018201604052801561186e5781602001602082028036833780820191505090505b5090506000600190505b82811161192a5760006008600086815260200190815260200160002060040160008381526020019081526020016000206002015411156119175760086000858152602001908152602001600020600401600082815260200190815260200160002060020154826001836118eb9190612a31565b815181106118fc576118fb612bb9565b5b602002602001018181525050848061191390612b12565b9550505b808061192290612b12565b915050611878565b5084841015611937578394505b60005b8151811015611a55576000600190505b8251811015611a4157826001826119619190612a31565b8151811061197257611971612bb9565b5b602002602001015183828151811061198d5761198c612bb9565b5b60200260200101511115611a2e576000836001836119ab9190612a31565b815181106119bc576119bb612bb9565b5b602002602001015190508382815181106119d9576119d8612bb9565b5b6020026020010151846001846119ef9190612a31565b81518110611a00576119ff612bb9565b5b60200260200101818152505080848381518110611a2057611a1f612bb9565b5b602002602001018181525050505b8080611a3990612b12565b91505061194a565b508080611a4d90612b12565b91505061193a565b5060008567ffffffffffffffff811115611a7257611a71612be8565b5b604051908082528060200260200182016040528015611aa05781602001602082028036833780820191505090505b50905060008667ffffffffffffffff811115611abf57611abe612be8565b5b604051908082528060200260200182016040528015611aed5781602001602082028036833780820191505090505b50905060008767ffffffffffffffff811115611b0c57611b0b612be8565b5b604051908082528060200260200182016040528015611b3a5781602001602082028036833780820191505090505b5090506000805b8551811015611d035789821415611b5757611d03565b858181518110611b6a57611b69612bb9565b5b6020026020010151838281518110611b8557611b84612bb9565b5b6020026020010181815250506000600190505b878111611ce157600860008a8152602001908152602001600020600401600082815260200190815260200160002060020154848381518110611bdd57611bdc612bb9565b5b60200260200101511415611cce57600860008a8152602001908152602001600020600401600082815260200190815260200160002060010154858381518110611c2957611c28612bb9565b5b602002602001018181525050600860008a8152602001908152602001600020600401600082815260200190815260200160002060000160009054906101000a900473ffffffffffffffffffffffffffffffffffffffff16868381518110611c9357611c92612bb9565b5b602002602001019073ffffffffffffffffffffffffffffffffffffffff16908173ffffffffffffffffffffffffffffffffffffffff16815250505b8080611cd990612b12565b915050611b98565b508180611ced90612b12565b9250508080611cfb90612b12565b915050611b41565b50888385849c509c509c509c5050505050505050505092959194509250565b600080600190505b6005548111611da3578260066000838152602001908152602001600020600001541415611d90576006600082815260200190815260200160002060020160009054906101000a900473ffffffffffffffffffffffffffffffffffffffff16915050611da9565b8080611d9b90612b12565b915050611d2a565b50600090505b919050565b60008054906101000a900473ffffffffffffffffffffffffffffffffffffffff1681565b6060600060055467ffffffffffffffff811115611df257611df1612be8565b5b604051908082528060200260200182016040528015611e205781602001602082028036833780820191505090505b5090506000600190505b6005548111611ed6576006600082815260200190815260200160002060020160009054906101000a900473ffffffffffffffffffffffffffffffffffffffff1682600183611e789190612a31565b81518110611e8957611e88612bb9565b5b602002602001019073ffffffffffffffffffffffffffffffffffffffff16908173ffffffffffffffffffffffffffffffffffffffff16815250508080611ece90612b12565b915050611e2a565b508091505090565b600080600190505b6003548111611f75578273ffffffffffffffffffffffffffffffffffffffff166004600083815260200190815260200160002060020160009054906101000a900473ffffffffffffffffffffffffffffffffffffffff1673ffffffffffffffffffffffffffffffffffffffff161415611f625780915050611f7b565b8080611f6d90612b12565b915050611ee6565b50600090505b919050565b600080600090506000600190505b6007548111611fd5578360086000838152602001908152602001600020600001541415611fc2578091508192505050611fdc565b8080611fcd90612b12565b915050611f8e565b5060009150505b919050565b60606000611fee83611f80565b905060086000828152602001908152602001600020600101805461201190612ae0565b80601f016020809104026020016040519081016040528092919081815260200182805461203d90612ae0565b801561208a5780601f1061205f5761010080835404028352916020019161208a565b820191906000526020600020905b81548152906001019060200180831161206d57829003601f168201915b5050505050915050919050565b6000806120a384611f80565b90506000600190505b6008600083815260200190815260200160002060030154811161218e578373ffffffffffffffffffffffffffffffffffffffff1660086000848152602001908152602001600020600401600083815260200190815260200160002060000160009054906101000a900473ffffffffffffffffffffffffffffffffffffffff1673ffffffffffffffffffffffffffffffffffffffff16141561217b576008600083815260200190815260200160002060040160008281526020019081526020016000206002015492505050612195565b808061218690612b12565b9150506120ac565b5060009150505b92915050565b600080600190505b6001548111612248578273ffffffffffffffffffffffffffffffffffffffff166002600083815260200190815260200160002060020160009054906101000a900473ffffffffffffffffffffffffffffffffffffffff1673ffffffffffffffffffffffffffffffffffffffff1614156122355760026000828152602001908152602001600020600001549150506123a8565b808061224090612b12565b9150506121a3565b506000600190505b60035481116122f5578273ffffffffffffffffffffffffffffffffffffffff166004600083815260200190815260200160002060020160009054906101000a900473ffffffffffffffffffffffffffffffffffffffff1673ffffffffffffffffffffffffffffffffffffffff1614156122e25760046000828152602001908152602001600020600001549150506123a8565b80806122ed90612b12565b915050612250565b506000600190505b60055481116123a2578273ffffffffffffffffffffffffffffffffffffffff166006600083815260200190815260200160002060020160009054906101000a900473ffffffffffffffffffffffffffffffffffffffff1673ffffffffffffffffffffffffffffffffffffffff16141561238f5760066000828152602001908152602001600020600001549150506123a8565b808061239a90612b12565b9150506122fd565b50600090505b919050565b6060600060075467ffffffffffffffff8111156123cd576123cc612be8565b5b6040519080825280602002602001820160405280156123fb5781602001602082028036833780820191505090505b5090506000600190505b6007548111612463576008600082815260200190815260200160002060000154826001836124339190612a31565b8151811061244457612443612bb9565b5b602002602001018181525050808061245b90612b12565b915050612405565b508091505090565b60055481565b60015481565b60008135905061248681612c2d565b92915050565b60008135905061249b81612c44565b92915050565b6000602082840312156124b7576124b6612c17565b5b60006124c584828501612477565b91505092915050565b6000602082840312156124e4576124e3612c17565b5b60006124f28482850161248c565b91505092915050565b6000806040838503121561251257612511612c17565b5b60006125208582860161248c565b925050602061253185828601612477565b9150509250929050565b6000806040838503121561255257612551612c17565b5b60006125608582860161248c565b92505060206125718582860161248c565b9150509250929050565b600061258783836125ab565b60208301905092915050565b600061259f83836126cd565b60208301905092915050565b6125b481612a65565b82525050565b6125c381612a65565b82525050565b60006125d4826129c3565b6125de81856129fe565b93506125e9836129a3565b8060005b8381101561261a578151612601888261257b565b975061260c836129e4565b9250506001810190506125ed565b5085935050505092915050565b6000612632826129ce565b61263c8185612a0f565b9350612647836129b3565b8060005b8381101561267857815161265f8882612593565b975061266a836129f1565b92505060018101905061264b565b5085935050505092915050565b61268e81612a77565b82525050565b600061269f826129d9565b6126a98185612a20565b93506126b9818560208601612aad565b6126c281612c1c565b840191505092915050565b6126d681612aa3565b82525050565b6126e581612aa3565b82525050565b600060208201905061270060008301846125ba565b92915050565b6000602082019050818103600083015261272081846125c9565b905092915050565b600060208201905081810360008301526127428184612627565b905092915050565b600060608201905081810360008301526127648186612627565b9050818103602083015261277881856125c9565b9050818103604083015261278c8184612627565b9050949350505050565b600060208201905081810360008301526127b08184612694565b905092915050565b60006020820190506127cd60008301846126dc565b92915050565b60006080820190506127e860008301876126dc565b81810360208301526127fa8186612627565b9050818103604083015261280e81856125c9565b905081810360608301526128228184612627565b905095945050505050565b600060a08201905061284260008301886126dc565b81810360208301526128548187612694565b905061286360408301866125ba565b6128706060830185612685565b61287d60808301846126dc565b9695505050505050565b600060808201905061289c60008301876126dc565b81810360208301526128ae8186612694565b90506128bd60408301856125ba565b6128ca60608301846126dc565b95945050505050565b600060c0820190506128e860008301896126dc565b81810360208301526128fa8188612694565b905061290960408301876125ba565b61291660608301866126dc565b81810360808301526129288185612627565b905081810360a083015261293c8184612627565b9050979650505050505050565b600060a08201905061295e60008301886126dc565b81810360208301526129708187612694565b905061297f60408301866125ba565b61298c60608301856126dc565b61299960808301846126dc565b9695505050505050565b6000819050602082019050919050565b6000819050602082019050919050565b600081519050919050565b600081519050919050565b600081519050919050565b6000602082019050919050565b6000602082019050919050565b600082825260208201905092915050565b600082825260208201905092915050565b600082825260208201905092915050565b6000612a3c82612aa3565b9150612a4783612aa3565b925082821015612a5a57612a59612b5b565b5b828203905092915050565b6000612a7082612a83565b9050919050565b60008115159050919050565b600073ffffffffffffffffffffffffffffffffffffffff82169050919050565b6000819050919050565b60005b83811015612acb578082015181840152602081019050612ab0565b83811115612ada576000848401525b50505050565b60006002820490506001821680612af857607f821691505b60208210811415612b0c57612b0b612b8a565b5b50919050565b6000612b1d82612aa3565b91507fffffffffffffffffffffffffffffffffffffffffffffffffffffffffffffffff821415612b5057612b4f612b5b565b5b600182019050919050565b7f4e487b7100000000000000000000000000000000000000000000000000000000600052601160045260246000fd5b7f4e487b7100000000000000000000000000000000000000000000000000000000600052602260045260246000fd5b7f4e487b7100000000000000000000000000000000000000000000000000000000600052603260045260246000fd5b7f4e487b7100000000000000000000000000000000000000000000000000000000600052604160045260246000fd5b600080fd5b6000601f19601f8301169050919050565b612c3681612a65565b8114612c4157600080fd5b50565b612c4d81612aa3565b8114612c5857600080fd5b5056fea264697066735822122011eda529eab4bd91c760b4a1bf94663ec25033ac89f838295f19b8e7309c4dce64736f6c63430008070033",
  "immutableReferences": {},
  "source": "// SPDX-License-Identifier: MIT\npragma solidity >=0.4.22 <0.9.0;\n\n/*\n\n1. :  Save the permission structure of the current address\n    AdminSelf,  ProfessorSelf,  StudentSelf\n\n2. : Save course details\n    CourseInf,  CourseStudent\n\n3. modifier function\n    onlyAdmin,  onlyProfessor,  checkIsStudent\n\n\n/////////////////////////////////////////////////////////////////////////////////////////////////////////////////\n/////////////////////////////////////////////////////////////////////////////////////////////////////////////////\n\n4.1. setter function\n\n    setcourseStudentCounts          // course id(,,)\n                                    // Set the number of students with the course ID (called once when the student joins the course)\n\n\n/////////////////////////////////////////////////////////////////////////////////////////////////////////////////\n/////////////////////////////////////////////////////////////////////////////////////////////////////////////////\n\n4.2 getter function\n\n    getMsgSender                    // msg.sender\n    \n    getMsgSenderAuthorization       // msg.sender\n\n    ==> getIdByAddress()            // addressid , Find this person's id through address\n\n    ==> getStuAddressByStuId()            // ID  ,  Find this person's address by ID\n\n    getAuthorizationByAddress()     // addressauthorization , Find this person's authorization through address\n\n/////////////////////////////////////////////////////////////////////////////////////////////////////////////////\n\n// getter about admin\n    getAdminCounts()                // \n    getAdminIndexByAddress()        //  address adminindex , Find the index in admin by address\n\n/////////////////////////////////////////////////////////////////////////////////////////////////////////////////\n\n// getter about professor\n    getProfessorCounts()            // \n    getProfessorIndexByAddress()    //  address professorindex , Find the index in the professor by address\n    getProfessorInfByProAddress()   // proAddresspro\n\n/////////////////////////////////////////////////////////////////////////////////////////////////////////////////\n\n// getter about student\n    getStudentCounts()              // \n    getStudentIndexByAddress()      //  address studentindex  ,Find the index in the student by address\n    getStudentNameByAddress()\n    getStudentNameById()\n    getStudentInfByStuAddress()     // stuAddressstu\n\n/////////////////////////////////////////////////////////////////////////////////////////////////////////////////\n\n// getter about course\n\n    // about all course\n    getIndexByCourseId              // course id    Get the index of this course by course ID\n \n    getAllCourseId()                // course id\n\n    getcourseStudentCounts          // course id  The number of students to get the course ID\n\n    getCourseCounts()               // courseCounts  Return the current courseCounts value\n\n    getCourseStudentsByCourseId()   // course id\n\n    getCourseInfByCourseId()        // course id\n\n    getTopStudentsByCourseId()      // course idn\n\n\n    // pro\n    getCourseCountsByProAddress()   //   Get a few courses taught by a certain teacher\n\n    getCourseIdByProAddress()       // proAddressid   Get an array of all course IDs opened by a teacher through proAddress\n\n\n    // stu\n    getCourseCountsByStuAddress()   // \n\n    getCourseIdByStuAddress()       // stuAddressid   Get an array of all course IDs opened by a student through stuAddress\n\n\n\n/////////////////////////////////////////////////////////////////////////////////////////////////////////////////\n/////////////////////////////////////////////////////////////////////////////////////////////////////////////////\n\n4.3. check function\n\n    checkIdExisted()                // id         Verify that this ID has been used\n\n    checkAddressExisted()           // address    Verify that this address has been used\n\n    ////// check course\n\n    checkCourseCanApply             // course id \n                                    // Check the course ID to see if you can apply for this course\n\n    checkCourseExisted              // course id \n                                    // Check if this course exists by course ID\n\n    checkCourseHeldByProBlockAddress        // courseId,proBlockAddress \n                                            // Check whether the professor owns the course through courseId,proId\n\n    checkCourseHeldByStuBlockAddress        // courseId,stuBlockAddress \n                                            // Through courseId,stuId checks whether the student owns the course\n\n    \n*/\n\n\n\ncontract StructAndModifiers{\n\n    address public modifiersOwner;   // \n\n    constructor() {\n        modifiersOwner = msg.sender;\n        adminSelfs[1] = AdminSelf(1,'Root',modifiersOwner,3);\n        adminCounts++;\n    }\n\n//// Struct\n\n    ////////////\n    // admin //\n    ///////////\n    uint public adminCounts = 0; //\n    struct AdminSelf{\n        uint adminId;               // \n        string adminName;           //\n        address adminBlockAddress;  // \n        uint adminAuthorization;    // = 3\n    }\n    mapping(uint => AdminSelf)public adminSelfs; //\n    \n    ///////////////\n    // professor //\n    ///////////////\n    uint public professorCounts = 0; //\n    struct ProfessorSelf{\n        uint proId;               // \n        string proName;           //\n        address proBlockAddress;  // \n        uint proAuthorization;    // = 2\n        uint[] myProCourses;          //    Save the class you created\n        // ,    \n        // , +1 \n        // ,,-1   \n        // 0\n        // 0\n        /* \n            Judge whether the teacher is teaching, and the teacher who is teaching cannot be arbitrarily deprived of his authority,\n            When the teacher creates a course, when each student applies, + 1\n            When the teacher gives the student the score of a course, it indicates the end of a course, then - 1\n            When it is 0, it means that no course is taught\n            Initial 0\n        */\n        uint isTeachingPeopleSum;          \n    }\n    mapping(uint => ProfessorSelf)public professorSelfs; //\n    \n    /////////////\n    // student //\n    /////////////\n    uint public studentCounts = 0; //\n    struct StudentSelf{\n        uint stuId;               // \n        string stuName;           //\n        address stuBlockAddress;  // \n        uint stuAuthorization;    // = 1\n        uint[] myStuCourses;      //  Save the lesson I'm taking\n        //string[] myStuCourseNames;\n        //uint[] myStuCoursesGrades;\n        // , \n        // +1,, -1\n        // 0\n        // 0\n        /*\n            Judge whether students are in class. Students in class cannot be removed at will\n            When students join a course, they will + 1. When students get a grade, it means that a course ends, then - 1\n            If it is 0, it means that you have not studied a course\n            Initial 0\n        */\n        uint isLearningSum;         \n    }\n    \n    mapping(uint => StudentSelf)public studentSelfs; // \n    \n    /*\n    /////////////\n    // course  //\n    /////////////\n    \n    1.                       Record course information\n    2. ()    Record score information (only teachers can modify it)\n    \n    \n    */\n    \n    uint public courseCounts = 0;\n        \n    //  Course student information\n    struct CourseStudent{\n        address stuBlockAddress;\n        uint stuId;\n        //string stuName;\n        uint stuGrade;\n    }\n\n    // Course information\n    struct CourseInf{\n        uint courseId;          //\n        string courseName;      //\n        address proBlockAddress;\n        bool canApply;          // , \n        uint courseStudentCounts;  // \n        mapping (uint => CourseStudent) courseStudents;  // \n    }\n    \n    mapping (uint => CourseInf) public courseInfs;//Course information index\n    \n    \n\n//////////////////////////////////////////////////////////////  \n//////////////////////////////////////////////////////////////  \n/////////////////////////////// modifier function\n    \n    // onlyAdmin\n    modifier onlyAdmin() {\n        bool isAdmin = false;\n        for (uint256 i = 0; i <= adminCounts; i++) {\n            if(msg.sender == adminSelfs[i].adminBlockAddress){                \n                isAdmin = true;\n            }\n        }\n        require(isAdmin,\">>>>>>isAdmin = false\");\n        _;\n    }\n\n    \n    // onlyProfessor\n    modifier onlyProfessor() {\n        bool isProfessor = false;\n        for (uint256 i = 0; i <= professorCounts; i++) {  \n            if(msg.sender == professorSelfs[i].proBlockAddress){               \n                isProfessor = true;\n            }\n        }\n        require(isProfessor,\"isProfessor = false\");\n        _;\n    }\n/*   \n    // \n    function checkIsStudent(address _stuBlockAddress) internal view returns(bool){\n        for (uint i = 0; i <= studentCounts; i++) {   \n            if( _stuBlockAddress == studentSelfs[i].stuBlockAddress){                \n                return true;\n            }\n        }\n        return false;\n    }\n*/    \n    \n  \n//////////////////////////////////////////////////////////////  \n//////////////////////////////////////////////////////////////  \n///////////////////////////////  4.1. setter function\n\n\n    // course id Number of students setting course ID\n    // ,  Call once when students join the course\n    function setcourseStudentCounts(uint _courseid) internal {\n        for(uint i=1;i<=courseCounts;i++){\n            if(courseInfs[i].courseId == _courseid){\n                courseInfs[i].courseStudentCounts++; // ,  Call once, add one person\n            }\n        }\n    }\n    \n\n//////////////////////////////////////////////////////////////  \n//////////////////////////////////////////////////////////////  \n///////////////////////////////  4.2. getter function\n\n/*\n    // msg.sender\n    function getMsgSender() public view returns(address){\n        return msg.sender;\n    }\n\n    // msg.sender\n    function getMsgSenderAuthorization() public view returns(uint){\n        for(uint i=1;i<=adminCounts;i++){\n            if(adminSelfs[i].adminBlockAddress == msg.sender)\n                return adminSelfs[i].adminAuthorization;\n        }\n        for(uint i=1;i<=professorCounts;i++){\n            if(professorSelfs[i].proBlockAddress == msg.sender)\n                return professorSelfs[i].proAuthorization;\n        }\n        for(uint i=1;i<=studentCounts;i++){\n            if(studentSelfs[i].stuBlockAddress == msg.sender)\n                return studentSelfs[i].stuAuthorization;\n        }\n        return 0;\n    }\n*/\n\n    // addressid , Find this person's id through address\n    function getIdByAddress(address _address) public view returns(uint){\n        for(uint i=1;i<=adminCounts;i++){\n            if(adminSelfs[i].adminBlockAddress == _address)\n                return adminSelfs[i].adminId;\n        }\n        for(uint i=1;i<=professorCounts;i++){\n            if(professorSelfs[i].proBlockAddress == _address)\n                return professorSelfs[i].proId;\n        }\n        for(uint i=1;i<=studentCounts;i++){\n            if(studentSelfs[i].stuBlockAddress == _address)\n                return studentSelfs[i].stuId;\n        }\n        return 0; //\n    }\n \n    \n    // stuID  ,  Find this person's address by ID\n    function getStuAddressByStuId(uint _stuId) public view returns(address){\n        for(uint i=1;i<=studentCounts;i++){\n            if(studentSelfs[i].stuId == _stuId)\n                return studentSelfs[i].stuBlockAddress;\n        }\n        return address(0x0);\n        \n    }\n\n\n    // addressauthorization , Find this person's authorization through address\n    function getAuthorizationByAddress(address _address) public view returns(uint){\n        for(uint i=1;i<=adminCounts;i++){\n            if(adminSelfs[i].adminBlockAddress == _address)\n                return adminSelfs[i].adminAuthorization;\n        }\n        for(uint i=1;i<=professorCounts;i++){\n            if(professorSelfs[i].proBlockAddress == _address)\n                return professorSelfs[i].proAuthorization;\n        }\n        for(uint i=1;i<=studentCounts;i++){\n            if(studentSelfs[i].stuBlockAddress == _address)\n                return studentSelfs[i].stuAuthorization;\n        }\n        return 0; //\n    }\n\n/*\n    // address idnameauthorizationaddress\n    function getPersonInfByAddress(address _address) public view returns(uint,string memory,uint){\n        for(uint i=1;i<=adminCounts;i++){\n            if(adminSelfs[i].adminBlockAddress == _address)\n                return (adminSelfs[i].adminId,adminSelfs[i].adminName,adminSelfs[i].adminAuthorization);\n        }\n        for(uint i=1;i<=professorCounts;i++){\n            if(professorSelfs[i].proBlockAddress == _address)\n                return (professorSelfs[i].proId,professorSelfs[i].proName,professorSelfs[i].proAuthorization);\n        }\n        for(uint i=1;i<=studentCounts;i++){\n            if(studentSelfs[i].stuBlockAddress == _address)\n                return (studentSelfs[i].stuId,studentSelfs[i].stuName,studentSelfs[i].stuAuthorization);\n        }\n        return (0,'null',0); //\n    }\n*/\n\n/////////////////////////////////////////////////////////////////////////////////////////////////////////////////\n\n// getter about admin\n\n\n    //  address adminindex , Find the index in admin by ID\n    function getAdminIndexByAddress(address _adminBlockAddress) public view returns(uint){\n        for(uint i=1;i<=adminCounts;i++){\n            if(adminSelfs[i].adminBlockAddress ==_adminBlockAddress) {\n                return i;  // \n            }    \n        }\n        return 0; // \n    }\n    \n\n/////////////////////////////////////////////////////////////////////////////////////////////////////////////////\n\n// getter about professor\n\n    //  address professorindex , Find the index in the professor by ID\n    function getProfessorIndexByAddress(address _proBlockAddress) public view returns(uint){\n        for(uint i=1;i<=professorCounts;i++){\n            if(professorSelfs[i].proBlockAddress ==_proBlockAddress) {\n                return i;  // \n            }    \n        }\n        return 0; // \n    }\n\n    function getProfessorNameByAddress(address _profAddr) public view returns(string memory){\n        for(uint i=1; i<=professorCounts; i++){\n            if(professorSelfs[i].proBlockAddress == _profAddr) {\n                return professorSelfs[i].proName; // \n            }    \n        }\n        return 'null';      \n    }\n\n/*\n    // proAddresspro\n    function getProfessorInfByProAddress(address _proBlockAddress) public view returns(uint,string memory,address,uint,uint[] memory ){\n        // proIndex\n        uint proIndex = getProfessorIndexByAddress(_proBlockAddress);\n        //  proId,proName,proBlockAddress,proAuthorization,myProCourses\n        uint proId_ = professorSelfs[proIndex].proId;\n        string memory proName_ = professorSelfs[proIndex].proName;\n        address proBlockAddress_ = professorSelfs[proIndex].proBlockAddress;\n        uint proAuthorization_ = professorSelfs[proIndex].proAuthorization;\n        uint[] memory myProCourses_ = getCourseIdByProAddress(_proBlockAddress);\n        // return\n        return (proId_,proName_,proBlockAddress_,proAuthorization_,myProCourses_);\n    }\n\n\n    // \n    function getAllProfessorAddress() public view returns(address[] memory){\n        address[] memory allProfessorAddress_ = new address[](professorCounts);\n        for(uint i=1;i<=professorCounts;i++){\n            allProfessorAddress_[i-1] = professorSelfs[i].proBlockAddress;\n        }\n        return allProfessorAddress_;\n    }\n*/\n\n/*\n    // ID\n    function getAllProfessorId() public view returns(uint[] memory){\n        uint[] memory allProfessorId_ = new uint[](professorCounts);\n        for(uint i=1;i<=professorCounts;i++){\n            allProfessorId_[i-1] = professorSelfs[i].proId;\n        }\n        return allProfessorId_;\n    }\n*/\n/////////////////////////////////////////////////////////////////////////////////////////////////////////////////\n\n// getter about student\n\n    //  address studentindex  ,Find the index in the student by ID\n    function getStudentIndexByAddress(address _stuBlockAddress) public view returns(uint){\n        for(uint i=1;i<=studentCounts;i++){\n            if(studentSelfs[i].stuBlockAddress ==_stuBlockAddress) {\n                return i;  // \n            }    \n        }\n        return 0; // \n    }\n\n/*\n    //  address\n    function getStudentNameByAddress(address _stuBlockAddress) public view returns(string memory){\n        for(uint i=1;i<=studentCounts;i++){\n            if(studentSelfs[i].stuBlockAddress ==_stuBlockAddress) {\n                return studentSelfs[i].stuName; // \n            }    \n        }\n        return 'null';      \n    }\n*/\n\n    //  id\n    function getStudentNameById(uint _stuId) public view returns(string memory){\n        for(uint i=1;i<=studentCounts;i++){\n            if(studentSelfs[i].stuId == _stuId) {\n                return studentSelfs[i].stuName; // \n            }    \n        }\n        return 'null';      \n    }\n\n\n    // course id\n    function getStudentGradeByCourseIdAndStuAddr(uint _courseId,address _stuAddress) public view returns(uint){\n        // \n        uint courseIdx = getIndexByCourseId(_courseId);\n        // \n        for(uint i = 1; i <= courseInfs[courseIdx].courseStudentCounts; i++){\n            if( courseInfs[courseIdx].courseStudents[i].stuBlockAddress == _stuAddress){\n                return courseInfs[courseIdx].courseStudents[i].stuGrade;\n            }\n        }\n        return 0;\n    }\n\n    // stuAddressstu\n    function getStudentInfByStuAddress(address _stuBlockAddress) public view returns(uint,string memory,address,uint,uint[] memory,uint[] memory ){\n        // stuIndex\n        uint stuIndex = getStudentIndexByAddress(_stuBlockAddress);\n        //  stuId,stuName,stuBlockAddress,stuAuthorization,myStuCourses\n        uint stuId_ = studentSelfs[stuIndex].stuId;\n        string memory stuName_ = studentSelfs[stuIndex].stuName;\n        //address stuBlockAddress_ = studentSelfs[stuIndex].stuBlockAddress;\n        uint stuAuthorization_ = studentSelfs[stuIndex].stuAuthorization;\n\n        uint[] memory myStuCourses_ = studentSelfs[stuIndex].myStuCourses;\n        //uint[] memory myStuCourses_ = getCourseIdByStuAddress(_stuBlockAddress);\n        \n        \n        // \n        //phot\n        uint[] memory myStuCoursesGrades_ = new uint[](myStuCourses_.length);\n        for(uint i = 0; i < myStuCourses_.length; i++){\n            myStuCoursesGrades_[i] = getStudentGradeByCourseIdAndStuAddr(myStuCourses_[i], _stuBlockAddress);\n        }\n        \n        // courseName, ,\n        // myStuCourses_ getCourseNameByCourseId()courseName\n\n        // return\n        return (stuId_,stuName_,_stuBlockAddress,stuAuthorization_,myStuCourses_,myStuCoursesGrades_);\n    }\n\n    \n\n\n\n\n    // \n    function getAllStudentAddress() public view returns(address[] memory){\n        address[] memory allStudentAddress_ = new address[](studentCounts);\n        for(uint i=1;i<=studentCounts;i++){\n            allStudentAddress_[i-1] = studentSelfs[i].stuBlockAddress;\n        }\n        return allStudentAddress_;\n    }\n\n/*\n    // ID\n    function getAllStudentId() public view returns(uint[] memory){\n        uint[] memory allStudentId_ = new uint[](studentCounts);\n        for(uint i=1;i<=studentCounts;i++){\n            allStudentId_[i-1] = studentSelfs[i].stuId;\n        }\n        return allStudentId_;\n    }\n*/\n\n /////////////////////////////////////////////////////////////////////////////////////////////////////////////////\n\n// getter about course\n\n    // about all course\n\n    // course id  Get the index of this course through course ID\n    function getIndexByCourseId(uint _courseId) public view returns(uint){\n        //   Find the course first\n        uint indexOfCourseID = 0;\n        for(uint i=1;i<=courseCounts;i++){\n            if(courseInfs[i].courseId == _courseId){\n                indexOfCourseID = i;\n                return indexOfCourseID;\n            }\n        }\n        return 0;\n    }\n\n    // course id course name\n    function getCourseNameByCourseId(uint _courseId) public view returns(string memory){\n        //   Find the course first\n        uint indexOfCourseID = getIndexByCourseId(_courseId);\n        return courseInfs[indexOfCourseID].courseName;\n    }\n\n\n    // course id\n    function getAllCourseId() public view returns(uint[] memory){\n        uint [] memory allCourseId_ = new uint[](courseCounts);\n        for(uint i=1;i<=courseCounts;i++){\n            allCourseId_[i-1] = courseInfs[i].courseId;\n        }\n        return allCourseId_;\n    }\n\n\n    // course id  Number of students who get course ID\n    function getcourseStudentCounts(uint _courseid) public view returns(uint courseStudentCounts_){\n        for(uint i=1;i<=courseCounts;i++){\n            if(courseInfs[i].courseId == _courseid){\n                return courseInfs[i].courseStudentCounts;\n            }\n        }\n    }\n\n/*\n    // course id\n    function getCourseStudentsByCourseId(uint _courseid) public view returns(address[] memory,uint[] memory){\n        // \n        uint courseIndex = getIndexByCourseId(_courseid);\n        // \n        uint courseStudentCounts_ = courseInfs[courseIndex].courseStudentCounts;\n\n        // \n        address[] memory stuAddressTemp = new address[](courseStudentCounts_); \n        uint[] memory stuGradeTemp = new uint[](courseStudentCounts_); \n\n        for(uint i=1;i<=courseStudentCounts_;i++){\n            stuAddressTemp[i-1] = courseInfs[courseIndex].courseStudents[i].stuBlockAddress;\n            stuGradeTemp[i-1] = courseInfs[courseIndex].courseStudents[i].stuGrade;\n        }\n        return (stuAddressTemp,stuGradeTemp);\n    }\n*/\n\n\n    // course id\n    function getCourseInfByCourseId(uint _courseid) public view returns(uint,string memory,address,uint){\n        // \n        uint courseIndex = getIndexByCourseId(_courseid);\n\n        // courseId_, courseName_,proBlockAddress_,courseStudentCounts_\n        uint courseId_ = courseInfs[courseIndex].courseId;          \n        string memory courseName_ = courseInfs[courseIndex].courseName;      \n        address proBlockAddress_ = courseInfs[courseIndex].proBlockAddress;\n        uint courseStudentCounts_ = courseInfs[courseIndex].courseStudentCounts;  \n\n        return (courseId_,courseName_,proBlockAddress_,courseStudentCounts_);\n    }\n\n    // course id\n    function getCourseStudentInfByCourseId(uint _courseid) public view returns(uint[] memory,address[] memory,uint[] memory){\n        // \n        uint courseIndex = getIndexByCourseId(_courseid);\n\n        // courseId_, courseName_,proBlockAddress_,courseStudentCounts_   \n        uint courseStudentCounts_ = courseInfs[courseIndex].courseStudentCounts;  \n\n        // course id\n        // \n        address[] memory stuAddressTemp = new address[](courseStudentCounts_); \n        uint[] memory stuIdTemp = new uint[](courseStudentCounts_); \n        //string[] memory stuNameTemp = new string[](courseStudentCounts_); \n        uint[] memory stuGradeTemp = new uint[](courseStudentCounts_); \n\n        for(uint i=1;i<=courseStudentCounts_;i++){\n            stuAddressTemp[i-1] = courseInfs[courseIndex].courseStudents[i].stuBlockAddress;\n            stuIdTemp[i-1] = courseInfs[courseIndex].courseStudents[i].stuId;\n            //stuNameTemp[i-1] = courseInfs[courseIndex].courseStudents[i].stuName;\n            stuGradeTemp[i-1] = courseInfs[courseIndex].courseStudents[i].stuGrade;\n        }\n\n        // ,stuId  getStudentNameById \n        return (stuIdTemp,stuAddressTemp,stuGradeTemp);\n    }\n\n\n    // course idn  ,n,uint\n    function getTopStudentsByCourseId(uint _courseid,uint _getTops) public view returns(uint,uint[] memory,address[] memory,uint[] memory){\n        \n        // \n        uint getTops = _getTops;\n        // \n        uint gotGradeCounts = 0;\n        // \n        uint courseIndex = getIndexByCourseId(_courseid);\n        // courseId_, courseName_,proBlockAddress_,courseStudentCounts_\n        uint courseStudentCounts_ = courseInfs[courseIndex].courseStudentCounts;  \n        // \n        if(courseStudentCounts_ < getTops){\n            getTops = courseStudentCounts_;\n        }\n        \n        // \n        uint[] memory gradeOfStuGradeSort = new uint[](courseStudentCounts_);\n        //  gradeOfStuGradeSort ,\n        for(uint i=1;i<=courseStudentCounts_;i++){ // \n            if(courseInfs[courseIndex].courseStudents[i].stuGrade > 0){\n                gradeOfStuGradeSort[i-1] = courseInfs[courseIndex].courseStudents[i].stuGrade;\n                gotGradeCounts++;\n            }  \n        }\n\n        // \n        if(gotGradeCounts < getTops){\n            getTops = gotGradeCounts;\n        }\n\n        //  \n        for(uint i=0;i<gradeOfStuGradeSort.length;i++){ //  \n            for(uint j=1;j<gradeOfStuGradeSort.length;j++){ // \n                if(gradeOfStuGradeSort[j] > gradeOfStuGradeSort[j-1]){\n                    // \n                    uint temp = gradeOfStuGradeSort[j-1];\n                    gradeOfStuGradeSort[j-1] = gradeOfStuGradeSort[j];\n                    gradeOfStuGradeSort[j] = temp;\n                }\n            }\n        }\n        // course id\n        // \n        \n        address[] memory stuAddressTemp = new address[](getTops);\n        uint[] memory stuIdTemp = new uint[](getTops);  \n        //string[] memory stuNameTemp = new string[](getTops);\n        uint[] memory stuGradeTemp = new uint[](getTops); \n\n        // indexOfStuGradeSort\n        //  \n        uint flag = 0;\n        for(uint i=0;i<gradeOfStuGradeSort.length;i++){ // \n            if(flag == getTops){ // \n                break;\n            }\n            // \n            stuGradeTemp[i] = gradeOfStuGradeSort[i];\n            // \n            for(uint j=1;j<=courseStudentCounts_;j++){ //  \n                if(stuGradeTemp[i] == courseInfs[courseIndex].courseStudents[j].stuGrade){\n                    stuIdTemp[i] = courseInfs[courseIndex].courseStudents[j].stuId;\n                    //stuNameTemp[i] = courseInfs[courseIndex].courseStudents[j].stuName;\n                    stuAddressTemp[i] = courseInfs[courseIndex].courseStudents[j].stuBlockAddress;         \n                }\n            }\n            flag++;\n        }\n        // stuNameTemp, stuIdTemp[] + getStudentNameById()\n        return (getTops,stuIdTemp,stuAddressTemp,stuGradeTemp);\n    }\n\n\n\n\n    \n    // pro ///////////////////////////////////\n\n    // \n    function getCourseCountsByProAddress(address _proBlockAddress) public view returns(uint){\n        // proIndex\n        uint proIndex = getProfessorIndexByAddress(_proBlockAddress);\n        return professorSelfs[proIndex].myProCourses.length;\n\n    }\n\n    // proAddressid   Get an array of all course IDs opened by a teacher through proAddress\n    function getCourseIdByProAddress(address _proBlockAddress) public view returns(uint[] memory){\n        // proIndex\n        uint proIndex = getProfessorIndexByAddress(_proBlockAddress);\n        // \n        uint courseLens = getCourseCountsByProAddress(_proBlockAddress);\n        // \n        uint[] memory myProCoursesTemp = new uint[](courseLens); \n\n        for(uint i=0;i<courseLens;i++){\n            myProCoursesTemp[i] = professorSelfs[proIndex].myProCourses[i];\n        }\n        return myProCoursesTemp;\n    }\n\n    \n    // stu ////////////////////////////////\n/*\n    // \n    function getCourseCountsByStuAddress(address _stuBlockAddress) public view returns(uint){\n        // stuIndex\n        uint stuIndex = getStudentIndexByAddress(_stuBlockAddress);\n        return studentSelfs[stuIndex].myStuCourses.length;\n\n    }\n\n    // stuAddressid   Get an array of all course IDs opened by a student through stuAddress\n    function getCourseIdByStuAddress(address _stuBlockAddress) public view returns(uint[] memory){\n        // stuIndex\n        uint stuIndex = getStudentIndexByAddress(_stuBlockAddress);\n        // \n        uint courseLens = getCourseCountsByStuAddress(_stuBlockAddress);\n        // \n        uint[] memory myStuCoursesTemp = new uint[](courseLens); \n\n        for(uint i=0;i<courseLens;i++){\n            myStuCoursesTemp[i] = studentSelfs[stuIndex].myStuCourses[i];\n        }\n        return myStuCoursesTemp;\n    }\n*/\n    \n\n\n//////////////////////////////////////////////////////////////  \n//////////////////////////////////////////////////////////////  \n///////////////////////////////   4.3. check function\n/*\n    // id      Verify that this ID has been used\n    function checkIdExisted(uint _id) internal view returns(bool){\n        for(uint i=1;i<=adminCounts;i++){\n            if(adminSelfs[i].adminId == _id)\n                return true;\n        }\n        for(uint i=1;i<=professorCounts;i++){\n            if(professorSelfs[i].proId == _id)\n                return true;\n        }\n        for(uint i=1;i<=studentCounts;i++){\n            if(studentSelfs[i].stuId == _id)\n                return true;\n        }\n        return false; // \n    }\n*/    \n    \n    // address  Verify that this address has been used\n    function checkAddressExisted(address _address) internal view returns(bool){\n        for(uint i=1;i<=adminCounts;i++){\n            if(adminSelfs[i].adminBlockAddress == _address)\n                return true;\n        }\n        for(uint i=1;i<=professorCounts;i++){\n            if(professorSelfs[i].proBlockAddress == _address)\n                return true;\n        }\n        for(uint i=1;i<=studentCounts;i++){\n            if(studentSelfs[i].stuBlockAddress == _address)\n                return true;\n        }\n        return false; // \n    }\n\n\n    ////// check course /////////////////\n\n    // \n    function checkCourseCanApply(uint _courseId) internal view returns(bool){\n        //  find this course\n        for(uint i=1;i<=courseCounts;i++){\n            if(courseInfs[i].courseId == _courseId){\n                if(courseInfs[i].canApply == true){\n                    return true;\n                }\n            }\n        }\n        return false;\n    }\n\n    // course id   Check whether this course exists through course ID\n    function checkCourseExisted(uint _courseId) internal view returns(bool){\n        //  find this course\n        for(uint i=1;i<=courseCounts;i++){\n            if(courseInfs[i].courseId == _courseId){\n                return true;\n            }\n        }\n        return false;\n    }\n\n/* \n    // courseidproBlockAddress\n    // Check whether the professor has this course through courseid and proid\n    function checkCourseHeldByProBlockAddress(uint _courseId,address _proBlockAddress) internal view returns(bool){\n        for(uint i=1;i<=professorCounts;i++){\n            //   Find the corresponding Professor first\n            if(professorSelfs[i].proBlockAddress == _proBlockAddress){\n                // proBlockAddressmyProCoursescourseId\n                // Check whether the corresponding courseid exists in the myprocourses array under this proid\n                for(uint k=0;k<=professorSelfs[i].myProCourses.length;k++){\n                    if(professorSelfs[i].myProCourses[k] == _courseId){\n                        return true;\n                    }\n                }\n            }\n        }\n        return false;\n    }\n*/    \n    \n    // courseId,stuId \n    // Check whether students have this course through courseid and stuid\n    function checkCourseHeldByStuBlockAddress(uint _courseId,address _stuBlockAddress) internal view returns(bool){\n        for(uint i=1;i<=studentCounts;i++){\n            //   Find the corresponding student first\n            if(studentSelfs[i].stuBlockAddress == _stuBlockAddress){\n                // stuBlockAddressmyStuCoursescourseId\n                // Check whether the corresponding courseid exists in the mystucourses array under this stuid\n                for(uint k=0;k<=studentSelfs[i].myStuCourses.length;k++){\n                    if(studentSelfs[i].myStuCourses[k] == _courseId){\n                        return true;\n                    }\n                }\n            }\n        }\n        return false;\n    }\n    \n\n\n\n\n}\n\n",
  "sourcePath": "/Users/sophotky/Computer-Science/blockchain/capstone/scouter2/contracts/StructAndModifiers.sol",
  "compiler": {
    "name": "solc",
    "version": "0.8.7+commit.e28d00a7.Emscripten.clang"
  },
  "schemaVersion": "3.4.3",
  "updatedAt": "2021-12-05T05:13:15.682Z",
  "devdoc": {
    "kind": "dev",
    "methods": {},
    "version": 1
  },
  "userdoc": {
    "kind": "user",
    "methods": {},
    "version": 1
  }
}