{
  "contractName": "StructAndModifiers",
  "abi": [
    {
      "inputs": [],
      "stateMutability": "nonpayable",
      "type": "constructor"
    },
    {
      "inputs": [],
      "name": "adminCounts",
      "outputs": [
        {
          "internalType": "uint256",
          "name": "",
          "type": "uint256"
        }
      ],
      "stateMutability": "view",
      "type": "function"
    },
    {
      "inputs": [
        {
          "internalType": "uint256",
          "name": "",
          "type": "uint256"
        }
      ],
      "name": "adminSelfs",
      "outputs": [
        {
          "internalType": "uint256",
          "name": "adminId",
          "type": "uint256"
        },
        {
          "internalType": "string",
          "name": "adminName",
          "type": "string"
        },
        {
          "internalType": "address",
          "name": "adminBlockAddress",
          "type": "address"
        },
        {
          "internalType": "uint256",
          "name": "adminAuthorization",
          "type": "uint256"
        }
      ],
      "stateMutability": "view",
      "type": "function"
    },
    {
      "inputs": [],
      "name": "courseCounts",
      "outputs": [
        {
          "internalType": "uint256",
          "name": "",
          "type": "uint256"
        }
      ],
      "stateMutability": "view",
      "type": "function"
    },
    {
      "inputs": [
        {
          "internalType": "uint256",
          "name": "",
          "type": "uint256"
        }
      ],
      "name": "courseInfs",
      "outputs": [
        {
          "internalType": "uint256",
          "name": "courseId",
          "type": "uint256"
        },
        {
          "internalType": "string",
          "name": "courseName",
          "type": "string"
        },
        {
          "internalType": "string",
          "name": "profName",
          "type": "string"
        },
        {
          "internalType": "address",
          "name": "proBlockAddress",
          "type": "address"
        },
        {
          "internalType": "bool",
          "name": "canApply",
          "type": "bool"
        },
        {
          "internalType": "uint256",
          "name": "gotStudentGradeCounts",
          "type": "uint256"
        },
        {
          "internalType": "uint256",
          "name": "courseStudentCounts",
          "type": "uint256"
        }
      ],
      "stateMutability": "view",
      "type": "function"
    },
    {
      "inputs": [],
      "name": "modifiersOwner",
      "outputs": [
        {
          "internalType": "address",
          "name": "",
          "type": "address"
        }
      ],
      "stateMutability": "view",
      "type": "function"
    },
    {
      "inputs": [],
      "name": "professorCounts",
      "outputs": [
        {
          "internalType": "uint256",
          "name": "",
          "type": "uint256"
        }
      ],
      "stateMutability": "view",
      "type": "function"
    },
    {
      "inputs": [
        {
          "internalType": "uint256",
          "name": "",
          "type": "uint256"
        }
      ],
      "name": "professorSelfs",
      "outputs": [
        {
          "internalType": "uint256",
          "name": "proId",
          "type": "uint256"
        },
        {
          "internalType": "string",
          "name": "proName",
          "type": "string"
        },
        {
          "internalType": "address",
          "name": "proBlockAddress",
          "type": "address"
        },
        {
          "internalType": "uint256",
          "name": "proAuthorization",
          "type": "uint256"
        },
        {
          "internalType": "uint256",
          "name": "isTeachingPeopleSum",
          "type": "uint256"
        }
      ],
      "stateMutability": "view",
      "type": "function"
    },
    {
      "inputs": [],
      "name": "studentCounts",
      "outputs": [
        {
          "internalType": "uint256",
          "name": "",
          "type": "uint256"
        }
      ],
      "stateMutability": "view",
      "type": "function"
    },
    {
      "inputs": [
        {
          "internalType": "uint256",
          "name": "",
          "type": "uint256"
        }
      ],
      "name": "studentSelfs",
      "outputs": [
        {
          "internalType": "uint256",
          "name": "stuId",
          "type": "uint256"
        },
        {
          "internalType": "string",
          "name": "stuName",
          "type": "string"
        },
        {
          "internalType": "address",
          "name": "stuBlockAddress",
          "type": "address"
        },
        {
          "internalType": "uint256",
          "name": "stuAuthorization",
          "type": "uint256"
        },
        {
          "internalType": "uint256",
          "name": "isLearningSum",
          "type": "uint256"
        }
      ],
      "stateMutability": "view",
      "type": "function"
    },
    {
      "inputs": [
        {
          "internalType": "address",
          "name": "_address",
          "type": "address"
        }
      ],
      "name": "getIdByAddress",
      "outputs": [
        {
          "internalType": "uint256",
          "name": "",
          "type": "uint256"
        }
      ],
      "stateMutability": "view",
      "type": "function"
    },
    {
      "inputs": [
        {
          "internalType": "uint256",
          "name": "_stuId",
          "type": "uint256"
        }
      ],
      "name": "getStuAddressByStuId",
      "outputs": [
        {
          "internalType": "address",
          "name": "",
          "type": "address"
        }
      ],
      "stateMutability": "view",
      "type": "function"
    },
    {
      "inputs": [
        {
          "internalType": "address",
          "name": "_address",
          "type": "address"
        }
      ],
      "name": "getAuthorizationByAddress",
      "outputs": [
        {
          "internalType": "uint256",
          "name": "",
          "type": "uint256"
        }
      ],
      "stateMutability": "view",
      "type": "function"
    },
    {
      "inputs": [
        {
          "internalType": "address",
          "name": "_adminBlockAddress",
          "type": "address"
        }
      ],
      "name": "getAdminIndexByAddress",
      "outputs": [
        {
          "internalType": "uint256",
          "name": "",
          "type": "uint256"
        }
      ],
      "stateMutability": "view",
      "type": "function"
    },
    {
      "inputs": [
        {
          "internalType": "uint256",
          "name": "_stuId",
          "type": "uint256"
        }
      ],
      "name": "getStudentNameById",
      "outputs": [
        {
          "internalType": "string",
          "name": "",
          "type": "string"
        }
      ],
      "stateMutability": "view",
      "type": "function"
    },
    {
      "inputs": [
        {
          "internalType": "uint256",
          "name": "_courseId",
          "type": "uint256"
        },
        {
          "internalType": "address",
          "name": "_stuAddress",
          "type": "address"
        }
      ],
      "name": "getStudentGradeByCourseIdAndStuAddr",
      "outputs": [
        {
          "internalType": "uint256",
          "name": "",
          "type": "uint256"
        }
      ],
      "stateMutability": "view",
      "type": "function"
    },
    {
      "inputs": [
        {
          "internalType": "address",
          "name": "_stuBlockAddress",
          "type": "address"
        }
      ],
      "name": "getStudentInfByStuAddress",
      "outputs": [
        {
          "internalType": "uint256",
          "name": "",
          "type": "uint256"
        },
        {
          "internalType": "string",
          "name": "",
          "type": "string"
        },
        {
          "internalType": "address",
          "name": "",
          "type": "address"
        },
        {
          "internalType": "uint256",
          "name": "",
          "type": "uint256"
        },
        {
          "internalType": "uint256[]",
          "name": "",
          "type": "uint256[]"
        },
        {
          "internalType": "uint256[]",
          "name": "",
          "type": "uint256[]"
        }
      ],
      "stateMutability": "view",
      "type": "function"
    },
    {
      "inputs": [],
      "name": "getAllStudentAddress",
      "outputs": [
        {
          "internalType": "address[]",
          "name": "",
          "type": "address[]"
        }
      ],
      "stateMutability": "view",
      "type": "function"
    },
    {
      "inputs": [
        {
          "internalType": "uint256",
          "name": "_courseId",
          "type": "uint256"
        }
      ],
      "name": "getIndexByCourseId",
      "outputs": [
        {
          "internalType": "uint256",
          "name": "",
          "type": "uint256"
        }
      ],
      "stateMutability": "view",
      "type": "function"
    },
    {
      "inputs": [
        {
          "internalType": "uint256",
          "name": "_courseId",
          "type": "uint256"
        }
      ],
      "name": "getCourseNameStatusById",
      "outputs": [
        {
          "internalType": "string",
          "name": "",
          "type": "string"
        },
        {
          "internalType": "bool",
          "name": "",
          "type": "bool"
        }
      ],
      "stateMutability": "view",
      "type": "function"
    },
    {
      "inputs": [],
      "name": "getAllCourseId",
      "outputs": [
        {
          "internalType": "uint256[]",
          "name": "",
          "type": "uint256[]"
        }
      ],
      "stateMutability": "view",
      "type": "function"
    },
    {
      "inputs": [
        {
          "internalType": "uint256",
          "name": "_courseid",
          "type": "uint256"
        }
      ],
      "name": "getcourseStudentCounts",
      "outputs": [
        {
          "internalType": "uint256",
          "name": "courseStudentCounts_",
          "type": "uint256"
        }
      ],
      "stateMutability": "view",
      "type": "function"
    },
    {
      "inputs": [
        {
          "internalType": "uint256",
          "name": "_courseid",
          "type": "uint256"
        }
      ],
      "name": "getCourseInfByCourseId",
      "outputs": [
        {
          "internalType": "uint256",
          "name": "",
          "type": "uint256"
        },
        {
          "internalType": "string",
          "name": "",
          "type": "string"
        },
        {
          "internalType": "string",
          "name": "",
          "type": "string"
        },
        {
          "internalType": "address",
          "name": "",
          "type": "address"
        },
        {
          "internalType": "uint256",
          "name": "",
          "type": "uint256"
        }
      ],
      "stateMutability": "view",
      "type": "function"
    },
    {
      "inputs": [
        {
          "internalType": "uint256",
          "name": "_courseid",
          "type": "uint256"
        }
      ],
      "name": "getCourseStudentInfByCourseId",
      "outputs": [
        {
          "internalType": "uint256[]",
          "name": "",
          "type": "uint256[]"
        },
        {
          "internalType": "address[]",
          "name": "",
          "type": "address[]"
        },
        {
          "internalType": "uint256[]",
          "name": "",
          "type": "uint256[]"
        }
      ],
      "stateMutability": "view",
      "type": "function"
    },
    {
      "inputs": [
        {
          "internalType": "uint256",
          "name": "_courseid",
          "type": "uint256"
        },
        {
          "internalType": "uint256",
          "name": "_getTops",
          "type": "uint256"
        }
      ],
      "name": "getTopStudentsByCourseId",
      "outputs": [
        {
          "internalType": "uint256",
          "name": "",
          "type": "uint256"
        },
        {
          "internalType": "uint256[]",
          "name": "",
          "type": "uint256[]"
        },
        {
          "internalType": "address[]",
          "name": "",
          "type": "address[]"
        },
        {
          "internalType": "uint256[]",
          "name": "",
          "type": "uint256[]"
        }
      ],
      "stateMutability": "view",
      "type": "function"
    },
    {
      "inputs": [
        {
          "internalType": "address",
          "name": "_proBlockAddress",
          "type": "address"
        }
      ],
      "name": "getCourseIdByProAddress",
      "outputs": [
        {
          "internalType": "uint256[]",
          "name": "",
          "type": "uint256[]"
        }
      ],
      "stateMutability": "view",
      "type": "function"
    }
  ],
  "bytecode": "0x608060405260006001556000600355600060055560006007553480156200002557600080fd5b50336000806101000a81548173ffffffffffffffffffffffffffffffffffffffff021916908373ffffffffffffffffffffffffffffffffffffffff1602179055506040518060800160405280600181526020016040518060400160405280600481526020017f526f6f7400000000000000000000000000000000000000000000000000000000815250815260200160008054906101000a900473ffffffffffffffffffffffffffffffffffffffff1673ffffffffffffffffffffffffffffffffffffffff1681526020016003815250600260006001815260200190815260200160002060008201518160000155602082015181600101908051906020019062000130929190620001a5565b5060408201518160020160006101000a81548173ffffffffffffffffffffffffffffffffffffffff021916908373ffffffffffffffffffffffffffffffffffffffff16021790555060608201518160030155905050600160008154809291906200019a9062000295565b919050555062000341565b828054620001b3906200025f565b90600052602060002090601f016020900481019282620001d7576000855562000223565b82601f10620001f257805160ff191683800117855562000223565b8280016001018555821562000223579182015b828111156200022257825182559160200191906001019062000205565b5b50905062000232919062000236565b5090565b5b808211156200025157600081600090555060010162000237565b5090565b6000819050919050565b600060028204905060018216806200027857607f821691505b602082108114156200028f576200028e62000312565b5b50919050565b6000620002a28262000255565b91507fffffffffffffffffffffffffffffffffffffffffffffffffffffffffffffffff821415620002d857620002d7620002e3565b5b600182019050919050565b7f4e487b7100000000000000000000000000000000000000000000000000000000600052601160045260246000fd5b7f4e487b7100000000000000000000000000000000000000000000000000000000600052602260045260246000fd5b612c3c80620003516000396000f3fe608060405234801561001057600080fd5b50600436106101725760003560e01c8063606870da116100de5780639fde094311610097578063dff3b49711610071578063dff3b4971461053f578063f6aa09e41461056f578063fb3189e81461058d578063fc0c1f39146105ab57610172565b80639fde0943146104c1578063ad9e42d9146104df578063ced3ae611461050f57610172565b8063606870da146103c05780637860a069146103f257806390eab7a21461041057806394e48ece14610440578063982203be1461047357806398aede55146104a357610172565b80632b81bd8d116101305780632b81bd8d1461029257806330e66b43146102c257806330e94711146102f35780634d64e5ee1461032757806358a420651461035b5780635e719a491461039057610172565b80624255a614610177578063043022fa146101ab5780630c1596b4146101e15780630e3bfd6c1461021157806310d756dd1461022f5780631643c8db1461025f575b600080fd5b610191600480360381019061018c91906123c5565b6105c9565b6040516101a2959493929190612816565b60405180910390f35b6101c560048036038101906101c091906123c5565b6106a7565b6040516101d89796959493929190612870565b60405180910390f35b6101fb60048036038101906101f69190612398565b610826565b604051610208919061261f565b60405180910390f35b61021961091c565b60405161022691906126df565b60405180910390f35b61024960048036038101906102449190612398565b610922565b60405161025691906126df565b60405180910390f35b610279600480360381019061027491906123c5565b6109c4565b6040516102899493929190612754565b60405180910390f35b6102ac60048036038101906102a791906123c5565b610a9c565b6040516102b9919061268d565b60405180910390f35b6102dc60048036038101906102d791906123c5565b610bc5565b6040516102ea9291906126af565b60405180910390f35b61030d600480360381019061030891906123c5565b610ce0565b60405161031e9594939291906128ed565b60405180910390f35b610341600480360381019061033c91906123c5565b610eca565b604051610352959493929190612816565b60405180910390f35b61037560048036038101906103709190612398565b610fa8565b604051610387969594939291906127a0565b60405180910390f35b6103aa60048036038101906103a591906123c5565b6111d3565b6040516103b791906126df565b60405180910390f35b6103da60048036038101906103d591906123c5565b61123b565b6040516103e993929190612641565b60405180910390f35b6103fa6114d6565b60405161040791906126df565b60405180910390f35b61042a60048036038101906104259190612398565b6114dc565b60405161043791906126df565b60405180910390f35b61045a60048036038101906104559190612432565b6116ee565b60405161046a94939291906126fa565b60405180910390f35b61048d600480360381019061048891906123c5565b611c2d565b60405161049a91906125e2565b60405180910390f35b6104ab611cb9565b6040516104b891906125e2565b60405180910390f35b6104c9611cdd565b6040516104d691906125fd565b60405180910390f35b6104f960048036038101906104f491906123c5565b611de9565b60405161050691906126df565b60405180910390f35b610529600480360381019061052491906123f2565b611e4a565b60405161053691906126df565b60405180910390f35b61055960048036038101906105549190612398565b611f4e565b60405161056691906126df565b60405180910390f35b610577612160565b604051610584919061261f565b60405180910390f35b61059561221e565b6040516105a291906126df565b60405180910390f35b6105b3612224565b6040516105c091906126df565b60405180910390f35b60066020528060005260406000206000915090508060000154908060010180546105f290612a8b565b80601f016020809104026020016040519081016040528092919081815260200182805461061e90612a8b565b801561066b5780601f106106405761010080835404028352916020019161066b565b820191906000526020600020905b81548152906001019060200180831161064e57829003601f168201915b5050505050908060020160009054906101000a900473ffffffffffffffffffffffffffffffffffffffff16908060030154908060050154905085565b60086020528060005260406000206000915090508060000154908060010180546106d090612a8b565b80601f01602080910402602001604051908101604052809291908181526020018280546106fc90612a8b565b80156107495780601f1061071e57610100808354040283529160200191610749565b820191906000526020600020905b81548152906001019060200180831161072c57829003601f168201915b50505050509080600201805461075e90612a8b565b80601f016020809104026020016040519081016040528092919081815260200182805461078a90612a8b565b80156107d75780601f106107ac576101008083540402835291602001916107d7565b820191906000526020600020905b8154815290600101906020018083116107ba57829003601f168201915b5050505050908060030160009054906101000a900473ffffffffffffffffffffffffffffffffffffffff16908060030160149054906101000a900460ff16908060040154908060050154905087565b606060006108338361222a565b905060006004600083815260200190815260200160002060040180549050905060008167ffffffffffffffff81111561086f5761086e612b93565b5b60405190808252806020026020018201604052801561089d5781602001602082028036833780820191505090505b50905060005b82811015610910576004600085815260200190815260200160002060040181815481106108d3576108d2612b64565b5b90600052602060002001548282815181106108f1576108f0612b64565b5b602002602001018181525050808061090890612abd565b9150506108a3565b50809350505050919050565b60075481565b600080600190505b60015481116109b9578273ffffffffffffffffffffffffffffffffffffffff166002600083815260200190815260200160002060020160009054906101000a900473ffffffffffffffffffffffffffffffffffffffff1673ffffffffffffffffffffffffffffffffffffffff1614156109a657809150506109bf565b80806109b190612abd565b91505061092a565b50600090505b919050565b60026020528060005260406000206000915090508060000154908060010180546109ed90612a8b565b80601f0160208091040260200160405190810160405280929190818152602001828054610a1990612a8b565b8015610a665780601f10610a3b57610100808354040283529160200191610a66565b820191906000526020600020905b815481529060010190602001808311610a4957829003601f168201915b5050505050908060020160009054906101000a900473ffffffffffffffffffffffffffffffffffffffff16908060030154905084565b60606000600190505b6005548111610b86578260066000838152602001908152602001600020600001541415610b7357600660008281526020019081526020016000206001018054610aed90612a8b565b80601f0160208091040260200160405190810160405280929190818152602001828054610b1990612a8b565b8015610b665780601f10610b3b57610100808354040283529160200191610b66565b820191906000526020600020905b815481529060010190602001808311610b4957829003601f168201915b5050505050915050610bc0565b8080610b7e90612abd565b915050610aa5565b506040518060400160405280600481526020017f6e756c6c0000000000000000000000000000000000000000000000000000000081525090505b919050565b6060600080610bd384611de9565b9050600080600860008481526020019081526020016000206005015414158015610c28575060086000838152602001908152602001600020600401546008600084815260200190815260200160002060050154145b15610c3257600190505b6008600083815260200190815260200160002060010181818054610c5590612a8b565b80601f0160208091040260200160405190810160405280929190818152602001828054610c8190612a8b565b8015610cce5780601f10610ca357610100808354040283529160200191610cce565b820191906000526020600020905b815481529060010190602001808311610cb157829003601f168201915b50505050509150935093505050915091565b60006060806000806000610cf387611de9565b90506000600860008381526020019081526020016000206000015490506000600860008481526020019081526020016000206001018054610d3390612a8b565b80601f0160208091040260200160405190810160405280929190818152602001828054610d5f90612a8b565b8015610dac5780601f10610d8157610100808354040283529160200191610dac565b820191906000526020600020905b815481529060010190602001808311610d8f57829003601f168201915b505050505090506000600860008581526020019081526020016000206002018054610dd690612a8b565b80601f0160208091040260200160405190810160405280929190818152602001828054610e0290612a8b565b8015610e4f5780601f10610e2457610100808354040283529160200191610e4f565b820191906000526020600020905b815481529060010190602001808311610e3257829003601f168201915b5050505050905060006008600086815260200190815260200160002060030160009054906101000a900473ffffffffffffffffffffffffffffffffffffffff16905060006008600087815260200190815260200160002060050154905084848484849a509a509a509a509a5050505050505091939590929450565b6004602052806000526040600020600091509050806000015490806001018054610ef390612a8b565b80601f0160208091040260200160405190810160405280929190818152602001828054610f1f90612a8b565b8015610f6c5780601f10610f4157610100808354040283529160200191610f6c565b820191906000526020600020905b815481529060010190602001808311610f4f57829003601f168201915b5050505050908060020160009054906101000a900473ffffffffffffffffffffffffffffffffffffffff16908060030154908060050154905085565b600060606000806060806000610fbd886122cc565b90506000600660008381526020019081526020016000206000015490506000600660008481526020019081526020016000206001018054610ffd90612a8b565b80601f016020809104026020016040519081016040528092919081815260200182805461102990612a8b565b80156110765780601f1061104b57610100808354040283529160200191611076565b820191906000526020600020905b81548152906001019060200180831161105957829003601f168201915b505050505090506000600660008581526020019081526020016000206003015490506000600660008681526020019081526020016000206004018054806020026020016040519081016040528092919081815260200182805480156110fa57602002820191906000526020600020905b8154815260200190600101908083116110e6575b505050505090506000815167ffffffffffffffff81111561111e5761111d612b93565b5b60405190808252806020026020018201604052801561114c5781602001602082028036833780820191505090505b50905060005b82518110156111b15761117f83828151811061117157611170612b64565b5b60200260200101518f611e4a565b82828151811061119257611191612b64565b5b60200260200101818152505080806111a990612abd565b915050611152565b5084848e8585859b509b509b509b509b509b5050505050505091939550919395565b600080600190505b6007548111611234578260086000838152602001908152602001600020600001541415611221576008600082815260200190815260200160002060050154915050611236565b808061122c90612abd565b9150506111db565b505b919050565b6060806060600061124b85611de9565b905060006008600083815260200190815260200160002060050154905060008167ffffffffffffffff81111561128457611283612b93565b5b6040519080825280602002602001820160405280156112b25781602001602082028036833780820191505090505b50905060008267ffffffffffffffff8111156112d1576112d0612b93565b5b6040519080825280602002602001820160405280156112ff5781602001602082028036833780820191505090505b50905060008367ffffffffffffffff81111561131e5761131d612b93565b5b60405190808252806020026020018201604052801561134c5781602001602082028036833780820191505090505b5090506000600190505b8481116114c05760086000878152602001908152602001600020600601600082815260200190815260200160002060000160009054906101000a900473ffffffffffffffffffffffffffffffffffffffff16846001836113b691906129dc565b815181106113c7576113c6612b64565b5b602002602001019073ffffffffffffffffffffffffffffffffffffffff16908173ffffffffffffffffffffffffffffffffffffffff1681525050600860008781526020019081526020016000206006016000828152602001908152602001600020600101548360018361143a91906129dc565b8151811061144b5761144a612b64565b5b602002602001018181525050600860008781526020019081526020016000206006016000828152602001908152602001600020600201548260018361149091906129dc565b815181106114a1576114a0612b64565b5b60200260200101818152505080806114b890612abd565b915050611356565b5081838297509750975050505050509193909250565b60035481565b600080600190505b6001548111611589578273ffffffffffffffffffffffffffffffffffffffff166002600083815260200190815260200160002060020160009054906101000a900473ffffffffffffffffffffffffffffffffffffffff1673ffffffffffffffffffffffffffffffffffffffff1614156115765760026000828152602001908152602001600020600301549150506116e9565b808061158190612abd565b9150506114e4565b506000600190505b6003548111611636578273ffffffffffffffffffffffffffffffffffffffff166004600083815260200190815260200160002060020160009054906101000a900473ffffffffffffffffffffffffffffffffffffffff1673ffffffffffffffffffffffffffffffffffffffff1614156116235760046000828152602001908152602001600020600301549150506116e9565b808061162e90612abd565b915050611591565b506000600190505b60055481116116e3578273ffffffffffffffffffffffffffffffffffffffff166006600083815260200190815260200160002060020160009054906101000a900473ffffffffffffffffffffffffffffffffffffffff1673ffffffffffffffffffffffffffffffffffffffff1614156116d05760066000828152602001908152602001600020600301549150506116e9565b80806116db90612abd565b91505061163e565b50600090505b919050565b60006060806060600085905060008061170689611de9565b90506000600860008381526020019081526020016000206005015490508381101561172f578093505b60008167ffffffffffffffff81111561174b5761174a612b93565b5b6040519080825280602002602001820160405280156117795781602001602082028036833780820191505090505b5090506000600190505b8281116118355760006008600086815260200190815260200160002060060160008381526020019081526020016000206002015411156118225760086000858152602001908152602001600020600601600082815260200190815260200160002060020154826001836117f691906129dc565b8151811061180757611806612b64565b5b602002602001018181525050848061181e90612abd565b9550505b808061182d90612abd565b915050611783565b5084841015611842578394505b60005b8151811015611960576000600190505b825181101561194c578260018261186c91906129dc565b8151811061187d5761187c612b64565b5b602002602001015183828151811061189857611897612b64565b5b60200260200101511115611939576000836001836118b691906129dc565b815181106118c7576118c6612b64565b5b602002602001015190508382815181106118e4576118e3612b64565b5b6020026020010151846001846118fa91906129dc565b8151811061190b5761190a612b64565b5b6020026020010181815250508084838151811061192b5761192a612b64565b5b602002602001018181525050505b808061194490612abd565b915050611855565b50808061195890612abd565b915050611845565b5060008567ffffffffffffffff81111561197d5761197c612b93565b5b6040519080825280602002602001820160405280156119ab5781602001602082028036833780820191505090505b50905060008667ffffffffffffffff8111156119ca576119c9612b93565b5b6040519080825280602002602001820160405280156119f85781602001602082028036833780820191505090505b50905060008767ffffffffffffffff811115611a1757611a16612b93565b5b604051908082528060200260200182016040528015611a455781602001602082028036833780820191505090505b5090506000805b8551811015611c0e5789821415611a6257611c0e565b858181518110611a7557611a74612b64565b5b6020026020010151838281518110611a9057611a8f612b64565b5b6020026020010181815250506000600190505b878111611bec57600860008a8152602001908152602001600020600601600082815260200190815260200160002060020154848381518110611ae857611ae7612b64565b5b60200260200101511415611bd957600860008a8152602001908152602001600020600601600082815260200190815260200160002060010154858381518110611b3457611b33612b64565b5b602002602001018181525050600860008a8152602001908152602001600020600601600082815260200190815260200160002060000160009054906101000a900473ffffffffffffffffffffffffffffffffffffffff16868381518110611b9e57611b9d612b64565b5b602002602001019073ffffffffffffffffffffffffffffffffffffffff16908173ffffffffffffffffffffffffffffffffffffffff16815250505b8080611be490612abd565b915050611aa3565b508180611bf890612abd565b9250508080611c0690612abd565b915050611a4c565b50888385849c509c509c509c5050505050505050505092959194509250565b600080600190505b6005548111611cae578260066000838152602001908152602001600020600001541415611c9b576006600082815260200190815260200160002060020160009054906101000a900473ffffffffffffffffffffffffffffffffffffffff16915050611cb4565b8080611ca690612abd565b915050611c35565b50600090505b919050565b60008054906101000a900473ffffffffffffffffffffffffffffffffffffffff1681565b6060600060055467ffffffffffffffff811115611cfd57611cfc612b93565b5b604051908082528060200260200182016040528015611d2b5781602001602082028036833780820191505090505b5090506000600190505b6005548111611de1576006600082815260200190815260200160002060020160009054906101000a900473ffffffffffffffffffffffffffffffffffffffff1682600183611d8391906129dc565b81518110611d9457611d93612b64565b5b602002602001019073ffffffffffffffffffffffffffffffffffffffff16908173ffffffffffffffffffffffffffffffffffffffff16815250508080611dd990612abd565b915050611d35565b508091505090565b600080600090506000600190505b6007548111611e3e578360086000838152602001908152602001600020600001541415611e2b578091508192505050611e45565b8080611e3690612abd565b915050611df7565b5060009150505b919050565b600080611e5684611de9565b90506000600190505b60086000838152602001908152602001600020600501548111611f41578373ffffffffffffffffffffffffffffffffffffffff1660086000848152602001908152602001600020600601600083815260200190815260200160002060000160009054906101000a900473ffffffffffffffffffffffffffffffffffffffff1673ffffffffffffffffffffffffffffffffffffffff161415611f2e576008600083815260200190815260200160002060060160008281526020019081526020016000206002015492505050611f48565b8080611f3990612abd565b915050611e5f565b5060009150505b92915050565b600080600190505b6001548111611ffb578273ffffffffffffffffffffffffffffffffffffffff166002600083815260200190815260200160002060020160009054906101000a900473ffffffffffffffffffffffffffffffffffffffff1673ffffffffffffffffffffffffffffffffffffffff161415611fe857600260008281526020019081526020016000206000015491505061215b565b8080611ff390612abd565b915050611f56565b506000600190505b60035481116120a8578273ffffffffffffffffffffffffffffffffffffffff166004600083815260200190815260200160002060020160009054906101000a900473ffffffffffffffffffffffffffffffffffffffff1673ffffffffffffffffffffffffffffffffffffffff16141561209557600460008281526020019081526020016000206000015491505061215b565b80806120a090612abd565b915050612003565b506000600190505b6005548111612155578273ffffffffffffffffffffffffffffffffffffffff166006600083815260200190815260200160002060020160009054906101000a900473ffffffffffffffffffffffffffffffffffffffff1673ffffffffffffffffffffffffffffffffffffffff16141561214257600660008281526020019081526020016000206000015491505061215b565b808061214d90612abd565b9150506120b0565b50600090505b919050565b6060600060075467ffffffffffffffff8111156121805761217f612b93565b5b6040519080825280602002602001820160405280156121ae5781602001602082028036833780820191505090505b5090506000600190505b6007548111612216576008600082815260200190815260200160002060000154826001836121e691906129dc565b815181106121f7576121f6612b64565b5b602002602001018181525050808061220e90612abd565b9150506121b8565b508091505090565b60055481565b60015481565b600080600190505b60035481116122c1578273ffffffffffffffffffffffffffffffffffffffff166004600083815260200190815260200160002060020160009054906101000a900473ffffffffffffffffffffffffffffffffffffffff1673ffffffffffffffffffffffffffffffffffffffff1614156122ae57809150506122c7565b80806122b990612abd565b915050612232565b50600090505b919050565b600080600190505b6005548111612363578273ffffffffffffffffffffffffffffffffffffffff166006600083815260200190815260200160002060020160009054906101000a900473ffffffffffffffffffffffffffffffffffffffff1673ffffffffffffffffffffffffffffffffffffffff1614156123505780915050612369565b808061235b90612abd565b9150506122d4565b50600090505b919050565b60008135905061237d81612bd8565b92915050565b60008135905061239281612bef565b92915050565b6000602082840312156123ae576123ad612bc2565b5b60006123bc8482850161236e565b91505092915050565b6000602082840312156123db576123da612bc2565b5b60006123e984828501612383565b91505092915050565b6000806040838503121561240957612408612bc2565b5b600061241785828601612383565b92505060206124288582860161236e565b9150509250929050565b6000806040838503121561244957612448612bc2565b5b600061245785828601612383565b925050602061246885828601612383565b9150509250929050565b600061247e83836124a2565b60208301905092915050565b600061249683836125c4565b60208301905092915050565b6124ab81612a10565b82525050565b6124ba81612a10565b82525050565b60006124cb8261296e565b6124d581856129a9565b93506124e08361294e565b8060005b838110156125115781516124f88882612472565b97506125038361298f565b9250506001810190506124e4565b5085935050505092915050565b600061252982612979565b61253381856129ba565b935061253e8361295e565b8060005b8381101561256f578151612556888261248a565b97506125618361299c565b925050600181019050612542565b5085935050505092915050565b61258581612a22565b82525050565b600061259682612984565b6125a081856129cb565b93506125b0818560208601612a58565b6125b981612bc7565b840191505092915050565b6125cd81612a4e565b82525050565b6125dc81612a4e565b82525050565b60006020820190506125f760008301846124b1565b92915050565b6000602082019050818103600083015261261781846124c0565b905092915050565b60006020820190508181036000830152612639818461251e565b905092915050565b6000606082019050818103600083015261265b818661251e565b9050818103602083015261266f81856124c0565b90508181036040830152612683818461251e565b9050949350505050565b600060208201905081810360008301526126a7818461258b565b905092915050565b600060408201905081810360008301526126c9818561258b565b90506126d8602083018461257c565b9392505050565b60006020820190506126f460008301846125d3565b92915050565b600060808201905061270f60008301876125d3565b8181036020830152612721818661251e565b9050818103604083015261273581856124c0565b90508181036060830152612749818461251e565b905095945050505050565b600060808201905061276960008301876125d3565b818103602083015261277b818661258b565b905061278a60408301856124b1565b61279760608301846125d3565b95945050505050565b600060c0820190506127b560008301896125d3565b81810360208301526127c7818861258b565b90506127d660408301876124b1565b6127e360608301866125d3565b81810360808301526127f5818561251e565b905081810360a0830152612809818461251e565b9050979650505050505050565b600060a08201905061282b60008301886125d3565b818103602083015261283d818761258b565b905061284c60408301866124b1565b61285960608301856125d3565b61286660808301846125d3565b9695505050505050565b600060e082019050612885600083018a6125d3565b8181036020830152612897818961258b565b905081810360408301526128ab818861258b565b90506128ba60608301876124b1565b6128c7608083018661257c565b6128d460a08301856125d3565b6128e160c08301846125d3565b98975050505050505050565b600060a08201905061290260008301886125d3565b8181036020830152612914818761258b565b90508181036040830152612928818661258b565b905061293760608301856124b1565b61294460808301846125d3565b9695505050505050565b6000819050602082019050919050565b6000819050602082019050919050565b600081519050919050565b600081519050919050565b600081519050919050565b6000602082019050919050565b6000602082019050919050565b600082825260208201905092915050565b600082825260208201905092915050565b600082825260208201905092915050565b60006129e782612a4e565b91506129f283612a4e565b925082821015612a0557612a04612b06565b5b828203905092915050565b6000612a1b82612a2e565b9050919050565b60008115159050919050565b600073ffffffffffffffffffffffffffffffffffffffff82169050919050565b6000819050919050565b60005b83811015612a76578082015181840152602081019050612a5b565b83811115612a85576000848401525b50505050565b60006002820490506001821680612aa357607f821691505b60208210811415612ab757612ab6612b35565b5b50919050565b6000612ac882612a4e565b91507fffffffffffffffffffffffffffffffffffffffffffffffffffffffffffffffff821415612afb57612afa612b06565b5b600182019050919050565b7f4e487b7100000000000000000000000000000000000000000000000000000000600052601160045260246000fd5b7f4e487b7100000000000000000000000000000000000000000000000000000000600052602260045260246000fd5b7f4e487b7100000000000000000000000000000000000000000000000000000000600052603260045260246000fd5b7f4e487b7100000000000000000000000000000000000000000000000000000000600052604160045260246000fd5b600080fd5b6000601f19601f8301169050919050565b612be181612a10565b8114612bec57600080fd5b50565b612bf881612a4e565b8114612c0357600080fd5b5056fea26469706673582212205a8b39b02c992b68e7dfbcdf6ee008f69f4e1e07f692e771a2521cd42d4f7ef364736f6c63430008070033",
  "immutableReferences": {},
  "source": "// SPDX-License-Identifier: MIT\npragma solidity >=0.4.22 <0.9.0;\n\n/*\n\n1. :  Save the permission structure of the current address\n    AdminSelf,  ProfessorSelf,  StudentSelf\n\n2. : Save course details\n    CourseInf,  CourseStudent\n\n3. modifier function\n    onlyAdmin,  onlyProfessor,  checkIsStudent\n\n\n/////////////////////////////////////////////////////////////////////////////////////////////////////////////////\n/////////////////////////////////////////////////////////////////////////////////////////////////////////////////\n\n4.1. setter function\n\n    setcourseStudentCounts          // course id(,,)\n                                    // Set the number of students with the course ID (called once when the student joins the course)\n\n\n/////////////////////////////////////////////////////////////////////////////////////////////////////////////////\n/////////////////////////////////////////////////////////////////////////////////////////////////////////////////\n\n4.2 getter function\n\n    getMsgSender                    // msg.sender\n    \n    getMsgSenderAuthorization       // msg.sender\n\n    ==> getIdByAddress()            // addressid , Find this person's id through address\n\n    ==> getStuAddressByStuId()            // ID  ,  Find this person's address by ID\n\n    getAuthorizationByAddress()     // addressauthorization , Find this person's authorization through address\n\n/////////////////////////////////////////////////////////////////////////////////////////////////////////////////\n\n// getter about admin\n    getAdminCounts()                // \n    getAdminIndexByAddress()        //  address adminindex , Find the index in admin by address\n\n/////////////////////////////////////////////////////////////////////////////////////////////////////////////////\n\n// getter about professor\n    getProfessorCounts()            // \n    getProfessorIndexByAddress()    //  address professorindex , Find the index in the professor by address\n    getProfessorInfByProAddress()   // proAddresspro\n\n/////////////////////////////////////////////////////////////////////////////////////////////////////////////////\n\n// getter about student\n    getStudentCounts()              // \n    getStudentIndexByAddress()      //  address studentindex  ,Find the index in the student by address\n    getStudentNameByAddress()\n    getStudentNameById()\n    getStudentInfByStuAddress()     // stuAddressstu\n\n/////////////////////////////////////////////////////////////////////////////////////////////////////////////////\n\n// getter about course\n\n    // about all course\n    getIndexByCourseId              // course id    Get the index of this course by course ID\n \n    getAllCourseId()                // course id\n\n    getcourseStudentCounts          // course id  The number of students to get the course ID\n\n    getCourseCounts()               // courseCounts  Return the current courseCounts value\n\n    getCourseStudentsByCourseId()   // course id\n\n    getCourseInfByCourseId()        // course id\n\n    getTopStudentsByCourseId()      // course idn\n\n\n    // pro\n    getCourseCountsByProAddress()   //   Get a few courses taught by a certain teacher\n\n    getCourseIdByProAddress()       // proAddressid   Get an array of all course IDs opened by a teacher through proAddress\n\n\n    // stu\n    getCourseCountsByStuAddress()   // \n\n    getCourseIdByStuAddress()       // stuAddressid   Get an array of all course IDs opened by a student through stuAddress\n\n\n\n/////////////////////////////////////////////////////////////////////////////////////////////////////////////////\n/////////////////////////////////////////////////////////////////////////////////////////////////////////////////\n\n4.3. check function\n\n    checkIdExisted()                // id         Verify that this ID has been used\n\n    checkAddressExisted()           // address    Verify that this address has been used\n\n    ////// check course\n\n    checkCourseCanApply             // course id \n                                    // Check the course ID to see if you can apply for this course\n\n    checkCourseExisted              // course id \n                                    // Check if this course exists by course ID\n\n    checkCourseHeldByProBlockAddress        // courseId,proBlockAddress \n                                            // Check whether the professor owns the course through courseId,proId\n\n    checkCourseHeldByStuBlockAddress        // courseId,stuBlockAddress \n                                            // Through courseId,stuId checks whether the student owns the course\n\n    \n*/\n\n\n\ncontract StructAndModifiers{\n\n    address public modifiersOwner;   // \n\n    constructor() {\n        modifiersOwner = msg.sender;\n        adminSelfs[1] = AdminSelf(1,'Root',modifiersOwner,3);\n        adminCounts++;\n    }\n\n//// Struct\n\n    ////////////\n    // admin //\n    ///////////\n    uint public adminCounts = 0; //\n    struct AdminSelf{\n        uint adminId;               // \n        string adminName;           //\n        address adminBlockAddress;  // \n        uint adminAuthorization;    // = 3\n    }\n    mapping(uint => AdminSelf)public adminSelfs; //\n    \n    ///////////////\n    // professor //\n    ///////////////\n    uint public professorCounts = 0; //\n    struct ProfessorSelf{\n        uint proId;               // \n        string proName;           //\n        address proBlockAddress;  // \n        uint proAuthorization;    // = 2\n        uint[] myProCourses;          //    Save the class you created\n        // ,    \n        // , +1 \n        // ,,-1   \n        // 0\n        // 0\n        /* \n            Judge whether the teacher is teaching, and the teacher who is teaching cannot be arbitrarily deprived of his authority,\n            When the teacher creates a course, when each student applies, + 1\n            When the teacher gives the student the score of a course, it indicates the end of a course, then - 1\n            When it is 0, it means that no course is taught\n            Initial 0\n        */\n        uint isTeachingPeopleSum;          \n    }\n    mapping(uint => ProfessorSelf)public professorSelfs; //\n    \n    /////////////\n    // student //\n    /////////////\n    uint public studentCounts = 0; //\n    struct StudentSelf{\n        uint stuId;               // \n        string stuName;           //\n        address stuBlockAddress;  // \n        uint stuAuthorization;    // = 1\n        uint[] myStuCourses;      //  Save the lesson I'm taking\n        //string[] myStuCourseNames;\n        //uint[] myStuCoursesGrades;\n        // , \n        // +1,, -1\n        // 0\n        // 0\n        /*\n            Judge whether students are in class. Students in class cannot be removed at will\n            When students join a course, they will + 1. When students get a grade, it means that a course ends, then - 1\n            If it is 0, it means that you have not studied a course\n            Initial 0\n        */\n        uint isLearningSum;         \n    }\n    \n    mapping(uint => StudentSelf)public studentSelfs; // \n    \n    /*\n    /////////////\n    // course  //\n    /////////////\n    \n    1.                       Record course information\n    2. ()    Record score information (only teachers can modify it)\n    \n    \n    */\n    \n    uint public courseCounts = 0;\n        \n    //  Course student information\n    struct CourseStudent{\n        address stuBlockAddress;\n        uint stuId;\n        //string stuName;\n        uint stuGrade;\n    }\n\n    // Course information\n    struct CourseInf{\n        uint courseId;          //\n        string courseName;      //\n        string profName;\n        address proBlockAddress;\n        bool canApply;          // , \n        uint gotStudentGradeCounts;\n        uint courseStudentCounts;  // \n        mapping (uint => CourseStudent) courseStudents;  // \n    }\n    \n    mapping (uint => CourseInf) public courseInfs;//Course information index\n    \n    \n\n//////////////////////////////////////////////////////////////  \n//////////////////////////////////////////////////////////////  \n/////////////////////////////// modifier function\n    \n    // onlyAdmin\n    modifier onlyAdmin() {\n        bool isAdmin = false;\n        for (uint256 i = 0; i <= adminCounts; i++) {\n            if(msg.sender == adminSelfs[i].adminBlockAddress){                \n                isAdmin = true;\n            }\n        }\n        require(isAdmin,\">>>>>>isAdmin = false\");\n        _;\n    }\n\n    \n    // onlyProfessor\n    modifier onlyProfessor() {\n        bool isProfessor = false;\n        for (uint256 i = 0; i <= professorCounts; i++) {  \n            if(msg.sender == professorSelfs[i].proBlockAddress){               \n                isProfessor = true;\n            }\n        }\n        require(isProfessor,\"isProfessor = false\");\n        _;\n    }\n/*   \n    // \n    function checkIsStudent(address _stuBlockAddress) internal view returns(bool){\n        for (uint i = 0; i <= studentCounts; i++) {   \n            if( _stuBlockAddress == studentSelfs[i].stuBlockAddress){                \n                return true;\n            }\n        }\n        return false;\n    }\n*/    \n    \n  \n//////////////////////////////////////////////////////////////  \n//////////////////////////////////////////////////////////////  \n///////////////////////////////  4.1. setter function\n\n\n    // course id Number of students setting course ID\n    // ,  Call once when students join the course\n    function setcourseStudentCounts(uint _courseid) internal {\n        for(uint i=1;i<=courseCounts;i++){\n            if(courseInfs[i].courseId == _courseid){\n                courseInfs[i].courseStudentCounts++; // ,  Call once, add one person\n            }\n        }\n    }\n    \n\n//////////////////////////////////////////////////////////////  \n//////////////////////////////////////////////////////////////  \n///////////////////////////////  4.2. getter function\n\n/*\n    // msg.sender\n    function getMsgSender() public view returns(address){\n        return msg.sender;\n    }\n\n    // msg.sender\n    function getMsgSenderAuthorization() public view returns(uint){\n        for(uint i=1;i<=adminCounts;i++){\n            if(adminSelfs[i].adminBlockAddress == msg.sender)\n                return adminSelfs[i].adminAuthorization;\n        }\n        for(uint i=1;i<=professorCounts;i++){\n            if(professorSelfs[i].proBlockAddress == msg.sender)\n                return professorSelfs[i].proAuthorization;\n        }\n        for(uint i=1;i<=studentCounts;i++){\n            if(studentSelfs[i].stuBlockAddress == msg.sender)\n                return studentSelfs[i].stuAuthorization;\n        }\n        return 0;\n    }\n*/\n\n    // addressid , Find this person's id through address\n    function getIdByAddress(address _address) public view returns(uint){\n        for(uint i=1;i<=adminCounts;i++){\n            if(adminSelfs[i].adminBlockAddress == _address)\n                return adminSelfs[i].adminId;\n        }\n        for(uint i=1;i<=professorCounts;i++){\n            if(professorSelfs[i].proBlockAddress == _address)\n                return professorSelfs[i].proId;\n        }\n        for(uint i=1;i<=studentCounts;i++){\n            if(studentSelfs[i].stuBlockAddress == _address)\n                return studentSelfs[i].stuId;\n        }\n        return 0; //\n    }\n \n    \n    // stuID  ,  Find this person's address by ID\n    function getStuAddressByStuId(uint _stuId) public view returns(address){\n        for(uint i=1;i<=studentCounts;i++){\n            if(studentSelfs[i].stuId == _stuId)\n                return studentSelfs[i].stuBlockAddress;\n        }\n        return address(0x0);\n        \n    }\n\n\n    // addressauthorization , Find this person's authorization through address\n    function getAuthorizationByAddress(address _address) public view returns(uint){\n        for(uint i=1;i<=adminCounts;i++){\n            if(adminSelfs[i].adminBlockAddress == _address)\n                return adminSelfs[i].adminAuthorization;\n        }\n        for(uint i=1;i<=professorCounts;i++){\n            if(professorSelfs[i].proBlockAddress == _address)\n                return professorSelfs[i].proAuthorization;\n        }\n        for(uint i=1;i<=studentCounts;i++){\n            if(studentSelfs[i].stuBlockAddress == _address)\n                return studentSelfs[i].stuAuthorization;\n        }\n        return 0; //\n    }\n\n/*\n    // address idnameauthorizationaddress\n    function getPersonInfByAddress(address _address) public view returns(uint,string memory,uint){\n        for(uint i=1;i<=adminCounts;i++){\n            if(adminSelfs[i].adminBlockAddress == _address)\n                return (adminSelfs[i].adminId,adminSelfs[i].adminName,adminSelfs[i].adminAuthorization);\n        }\n        for(uint i=1;i<=professorCounts;i++){\n            if(professorSelfs[i].proBlockAddress == _address)\n                return (professorSelfs[i].proId,professorSelfs[i].proName,professorSelfs[i].proAuthorization);\n        }\n        for(uint i=1;i<=studentCounts;i++){\n            if(studentSelfs[i].stuBlockAddress == _address)\n                return (studentSelfs[i].stuId,studentSelfs[i].stuName,studentSelfs[i].stuAuthorization);\n        }\n        return (0,'null',0); //\n    }\n*/\n\n/////////////////////////////////////////////////////////////////////////////////////////////////////////////////\n\n// getter about admin\n\n\n    //  address adminindex , Find the index in admin by ID\n    function getAdminIndexByAddress(address _adminBlockAddress) public view returns(uint){\n        for(uint i=1;i<=adminCounts;i++){\n            if(adminSelfs[i].adminBlockAddress ==_adminBlockAddress) {\n                return i;  // \n            }    \n        }\n        return 0; // \n    }\n    \n\n/////////////////////////////////////////////////////////////////////////////////////////////////////////////////\n\n// getter about professor\n\n    //  address professorindex , Find the index in the professor by ID\n    function getProfessorIndexByAddress(address _proBlockAddress) internal view returns(uint){\n        for(uint i=1;i<=professorCounts;i++){\n            if(professorSelfs[i].proBlockAddress ==_proBlockAddress) {\n                return i;  // \n            }    \n        }\n        return 0; // \n    }\n\n    function getProfessorNameByAddress(address _profAddr) internal view returns(string memory){\n        for(uint i=1; i<=professorCounts; i++){\n            if(professorSelfs[i].proBlockAddress == _profAddr) {\n                return professorSelfs[i].proName; \n            }    \n        }\n        return 'null';      \n    }\n\n/*\n    // proAddresspro\n    function getProfessorInfByProAddress(address _proBlockAddress) public view returns(uint,string memory,address,uint,uint[] memory ){\n        // proIndex\n        uint proIndex = getProfessorIndexByAddress(_proBlockAddress);\n        //  proId,proName,proBlockAddress,proAuthorization,myProCourses\n        uint proId_ = professorSelfs[proIndex].proId;\n        string memory proName_ = professorSelfs[proIndex].proName;\n        address proBlockAddress_ = professorSelfs[proIndex].proBlockAddress;\n        uint proAuthorization_ = professorSelfs[proIndex].proAuthorization;\n        uint[] memory myProCourses_ = getCourseIdByProAddress(_proBlockAddress);\n        // return\n        return (proId_,proName_,proBlockAddress_,proAuthorization_,myProCourses_);\n    }\n\n\n    // \n    function getAllProfessorAddress() public view returns(address[] memory){\n        address[] memory allProfessorAddress_ = new address[](professorCounts);\n        for(uint i=1;i<=professorCounts;i++){\n            allProfessorAddress_[i-1] = professorSelfs[i].proBlockAddress;\n        }\n        return allProfessorAddress_;\n    }\n*/\n\n/*\n    // ID\n    function getAllProfessorId() public view returns(uint[] memory){\n        uint[] memory allProfessorId_ = new uint[](professorCounts);\n        for(uint i=1;i<=professorCounts;i++){\n            allProfessorId_[i-1] = professorSelfs[i].proId;\n        }\n        return allProfessorId_;\n    }\n*/\n/////////////////////////////////////////////////////////////////////////////////////////////////////////////////\n\n// getter about student\n\n    //  address studentindex  ,Find the index in the student by ID\n    function getStudentIndexByAddress(address _stuBlockAddress) internal view returns(uint){\n        for(uint i=1;i<=studentCounts;i++){\n            if(studentSelfs[i].stuBlockAddress ==_stuBlockAddress) {\n                return i;  // \n            }    \n        }\n        return 0; // \n    }\n\n/*\n    //  address\n    function getStudentNameByAddress(address _stuBlockAddress) public view returns(string memory){\n        for(uint i=1;i<=studentCounts;i++){\n            if(studentSelfs[i].stuBlockAddress ==_stuBlockAddress) {\n                return studentSelfs[i].stuName; // \n            }    \n        }\n        return 'null';      \n    }\n*/\n\n    //  id\n    function getStudentNameById(uint _stuId) public view returns(string memory){\n        for(uint i=1;i<=studentCounts;i++){\n            if(studentSelfs[i].stuId == _stuId) {\n                return studentSelfs[i].stuName; // \n            }    \n        }\n        return 'null';      \n    }\n\n\n    // course id\n    function getStudentGradeByCourseIdAndStuAddr(uint _courseId,address _stuAddress) public view returns(uint){\n        // \n        uint courseIdx = getIndexByCourseId(_courseId);\n        // \n        for(uint i = 1; i <= courseInfs[courseIdx].courseStudentCounts; i++){\n            if( courseInfs[courseIdx].courseStudents[i].stuBlockAddress == _stuAddress){\n                return courseInfs[courseIdx].courseStudents[i].stuGrade;\n            }\n        }\n        return 0;\n    }\n\n    // stuAddressstu\n    function getStudentInfByStuAddress(address _stuBlockAddress) public view returns(uint,string memory,address,uint,uint[] memory,uint[] memory ){\n        // stuIndex\n        uint stuIndex = getStudentIndexByAddress(_stuBlockAddress);\n        //  stuId,stuName,stuBlockAddress,stuAuthorization,myStuCourses\n        uint stuId_ = studentSelfs[stuIndex].stuId;\n        string memory stuName_ = studentSelfs[stuIndex].stuName;\n        //address stuBlockAddress_ = studentSelfs[stuIndex].stuBlockAddress;\n        uint stuAuthorization_ = studentSelfs[stuIndex].stuAuthorization;\n\n        uint[] memory myStuCourses_ = studentSelfs[stuIndex].myStuCourses;\n        //uint[] memory myStuCourses_ = getCourseIdByStuAddress(_stuBlockAddress);\n        \n        \n        // \n        //phot\n        uint[] memory myStuCoursesGrades_ = new uint[](myStuCourses_.length);\n        for(uint i = 0; i < myStuCourses_.length; i++){\n            myStuCoursesGrades_[i] = getStudentGradeByCourseIdAndStuAddr(myStuCourses_[i], _stuBlockAddress);\n        }\n        \n        // courseName, ,\n        // myStuCourses_ getCourseNameByCourseId()courseName\n\n        // return\n        return (stuId_,stuName_,_stuBlockAddress,stuAuthorization_,myStuCourses_,myStuCoursesGrades_);\n    }\n\n    \n\n\n\n\n    // \n    function getAllStudentAddress() public view returns(address[] memory){\n        address[] memory allStudentAddress_ = new address[](studentCounts);\n        for(uint i=1;i<=studentCounts;i++){\n            allStudentAddress_[i-1] = studentSelfs[i].stuBlockAddress;\n        }\n        return allStudentAddress_;\n    }\n\n/*\n    // ID\n    function getAllStudentId() public view returns(uint[] memory){\n        uint[] memory allStudentId_ = new uint[](studentCounts);\n        for(uint i=1;i<=studentCounts;i++){\n            allStudentId_[i-1] = studentSelfs[i].stuId;\n        }\n        return allStudentId_;\n    }\n*/\n\n /////////////////////////////////////////////////////////////////////////////////////////////////////////////////\n\n// getter about course\n\n    // about all course\n\n    // course id  Get the index of this course through course ID\n    function getIndexByCourseId(uint _courseId) public view returns(uint){\n        //   Find the course first\n        uint indexOfCourseID = 0;\n        for(uint i=1;i<=courseCounts;i++){\n            if(courseInfs[i].courseId == _courseId){\n                indexOfCourseID = i;\n                return indexOfCourseID;\n            }\n        }\n        return 0;\n    }\n\n    // course id course name\n    function getCourseNameStatusById(uint _courseId) public view returns(string memory, bool){\n        //   Find the course first\n        uint indexOfCourseID = getIndexByCourseId(_courseId);\n        bool isCourseEnded= false;\n\n        if(courseInfs[indexOfCourseID].courseStudentCounts != 0 && (courseInfs[indexOfCourseID].courseStudentCounts == courseInfs[indexOfCourseID].gotStudentGradeCounts)){\n                isCourseEnded = true;\n        }\n\n        return (courseInfs[indexOfCourseID].courseName, isCourseEnded);\n    }\n\n\n    // function getAllCourseId() public view returns(uint[] memory, bool[] memory){\n    //     uint [] memory allCourseId_ = new uint[](courseCounts);\n    //     bool [] memory isCourseEnded = new bool[](courseCounts);\n\n    //     for(uint i=1; i<=courseCounts; i++){\n    //         allCourseId_[i-1] = courseInfs[i].courseId;\n    //         isCourseEnded[i-1] = false;\n\n    //         if(courseInfs[i].courseStudentCounts != 0 && (courseInfs[i].courseStudentCounts == courseInfs[i].gotStudentGradeCounts)){\n    //             isCourseEnded[i-1] = true;\n    //         }\n    //     }\n\n    //     return (allCourseId_, isCourseEnded);\n    // }\n\n    function getAllCourseId() public view returns(uint[] memory){\n        uint [] memory allCourseId_ = new uint[](courseCounts);\n\n        for(uint i=1; i<=courseCounts; i++){\n            allCourseId_[i-1] = courseInfs[i].courseId;\n        }\n\n        return allCourseId_;\n    }\n\n\n\n    // course id  Number of students who get course ID\n    function getcourseStudentCounts(uint _courseid) public view returns(uint courseStudentCounts_){\n        for(uint i=1;i<=courseCounts;i++){\n            if(courseInfs[i].courseId == _courseid){\n                return courseInfs[i].courseStudentCounts;\n            }\n        }\n    }\n\n/*\n    // course id\n    function getCourseStudentsByCourseId(uint _courseid) public view returns(address[] memory,uint[] memory){\n        // \n        uint courseIndex = getIndexByCourseId(_courseid);\n        // \n        uint courseStudentCounts_ = courseInfs[courseIndex].courseStudentCounts;\n\n        // \n        address[] memory stuAddressTemp = new address[](courseStudentCounts_); \n        uint[] memory stuGradeTemp = new uint[](courseStudentCounts_); \n\n        for(uint i=1;i<=courseStudentCounts_;i++){\n            stuAddressTemp[i-1] = courseInfs[courseIndex].courseStudents[i].stuBlockAddress;\n            stuGradeTemp[i-1] = courseInfs[courseIndex].courseStudents[i].stuGrade;\n        }\n        return (stuAddressTemp,stuGradeTemp);\n    }\n*/\n\n\n    // course id\n    function getCourseInfByCourseId(uint _courseid) public view returns(uint,string memory, string memory, address,uint){\n        // \n        uint courseIndex = getIndexByCourseId(_courseid);\n\n        // courseId_, courseName_,proBlockAddress_,courseStudentCounts_\n        uint courseId_ = courseInfs[courseIndex].courseId;          \n        string memory courseName_ = courseInfs[courseIndex].courseName;      \n        string memory profName = courseInfs[courseIndex].profName;      \n        address proBlockAddress_ = courseInfs[courseIndex].proBlockAddress;\n        uint courseStudentCounts_ = courseInfs[courseIndex].courseStudentCounts;  \n\n        return (courseId_,courseName_, profName, proBlockAddress_, courseStudentCounts_);\n    }\n\n    // course id\n    function getCourseStudentInfByCourseId(uint _courseid) public view returns(uint[] memory,address[] memory,uint[] memory){\n        // \n        uint courseIndex = getIndexByCourseId(_courseid);\n\n        // courseId_, courseName_,proBlockAddress_,courseStudentCounts_   \n        uint courseStudentCounts_ = courseInfs[courseIndex].courseStudentCounts;  \n\n        // course id\n        // \n        address[] memory stuAddressTemp = new address[](courseStudentCounts_); \n        uint[] memory stuIdTemp = new uint[](courseStudentCounts_); \n        //string[] memory stuNameTemp = new string[](courseStudentCounts_); \n        uint[] memory stuGradeTemp = new uint[](courseStudentCounts_); \n\n        for(uint i=1;i<=courseStudentCounts_;i++){\n            stuAddressTemp[i-1] = courseInfs[courseIndex].courseStudents[i].stuBlockAddress;\n            stuIdTemp[i-1] = courseInfs[courseIndex].courseStudents[i].stuId;\n            //stuNameTemp[i-1] = courseInfs[courseIndex].courseStudents[i].stuName;\n            stuGradeTemp[i-1] = courseInfs[courseIndex].courseStudents[i].stuGrade;\n        }\n\n        // ,stuId  getStudentNameById \n        return (stuIdTemp,stuAddressTemp,stuGradeTemp);\n    }\n\n\n    // course idn  ,n,uint\n    function getTopStudentsByCourseId(uint _courseid,uint _getTops) public view returns(uint,uint[] memory,address[] memory,uint[] memory){\n        \n        // \n        uint getTops = _getTops;\n        // \n        uint gotGradeCounts = 0;\n        // \n        uint courseIndex = getIndexByCourseId(_courseid);\n        // courseId_, courseName_,proBlockAddress_,courseStudentCounts_\n        uint courseStudentCounts_ = courseInfs[courseIndex].courseStudentCounts;  \n        // \n        if(courseStudentCounts_ < getTops){\n            getTops = courseStudentCounts_;\n        }\n        \n        // \n        uint[] memory gradeOfStuGradeSort = new uint[](courseStudentCounts_);\n        //  gradeOfStuGradeSort ,\n        for(uint i=1;i<=courseStudentCounts_;i++){ // \n            if(courseInfs[courseIndex].courseStudents[i].stuGrade > 0){\n                gradeOfStuGradeSort[i-1] = courseInfs[courseIndex].courseStudents[i].stuGrade;\n                gotGradeCounts++;\n            }  \n        }\n\n        // \n        if(gotGradeCounts < getTops){\n            getTops = gotGradeCounts;\n        }\n\n        //  \n        for(uint i=0;i<gradeOfStuGradeSort.length;i++){ //  \n            for(uint j=1;j<gradeOfStuGradeSort.length;j++){ // \n                if(gradeOfStuGradeSort[j] > gradeOfStuGradeSort[j-1]){\n                    // \n                    uint temp = gradeOfStuGradeSort[j-1];\n                    gradeOfStuGradeSort[j-1] = gradeOfStuGradeSort[j];\n                    gradeOfStuGradeSort[j] = temp;\n                }\n            }\n        }\n        // course id\n        // \n        \n        address[] memory stuAddressTemp = new address[](getTops);\n        uint[] memory stuIdTemp = new uint[](getTops);  \n        //string[] memory stuNameTemp = new string[](getTops);\n        uint[] memory stuGradeTemp = new uint[](getTops); \n\n        // indexOfStuGradeSort\n        //  \n        uint flag = 0;\n        for(uint i=0;i<gradeOfStuGradeSort.length;i++){ // \n            if(flag == getTops){ // \n                break;\n            }\n            // \n            stuGradeTemp[i] = gradeOfStuGradeSort[i];\n            // \n            for(uint j=1;j<=courseStudentCounts_;j++){ //  \n                if(stuGradeTemp[i] == courseInfs[courseIndex].courseStudents[j].stuGrade){\n                    stuIdTemp[i] = courseInfs[courseIndex].courseStudents[j].stuId;\n                    //stuNameTemp[i] = courseInfs[courseIndex].courseStudents[j].stuName;\n                    stuAddressTemp[i] = courseInfs[courseIndex].courseStudents[j].stuBlockAddress;         \n                }\n            }\n            flag++;\n        }\n        // stuNameTemp, stuIdTemp[] + getStudentNameById()\n        return (getTops,stuIdTemp,stuAddressTemp,stuGradeTemp);\n    }\n\n\n    // proAddressid   Get an array of all course IDs opened by a teacher through proAddress\n    function getCourseIdByProAddress(address _proBlockAddress) public view returns(uint[] memory){\n        // proIndex\n        uint proIndex = getProfessorIndexByAddress(_proBlockAddress);\n        // \n        uint courseLens = professorSelfs[proIndex].myProCourses.length;\n        // \n        uint[] memory myProCoursesTemp = new uint[](courseLens); \n\n        for(uint i=0;i<courseLens;i++){\n            myProCoursesTemp[i] = professorSelfs[proIndex].myProCourses[i];\n        }\n        return myProCoursesTemp;\n    }\n\n    \n    // stu ////////////////////////////////\n/*\n    // \n    function getCourseCountsByStuAddress(address _stuBlockAddress) public view returns(uint){\n        // stuIndex\n        uint stuIndex = getStudentIndexByAddress(_stuBlockAddress);\n        return studentSelfs[stuIndex].myStuCourses.length;\n\n    }\n\n    // stuAddressid   Get an array of all course IDs opened by a student through stuAddress\n    function getCourseIdByStuAddress(address _stuBlockAddress) public view returns(uint[] memory){\n        // stuIndex\n        uint stuIndex = getStudentIndexByAddress(_stuBlockAddress);\n        // \n        uint courseLens = getCourseCountsByStuAddress(_stuBlockAddress);\n        // \n        uint[] memory myStuCoursesTemp = new uint[](courseLens); \n\n        for(uint i=0;i<courseLens;i++){\n            myStuCoursesTemp[i] = studentSelfs[stuIndex].myStuCourses[i];\n        }\n        return myStuCoursesTemp;\n    }\n*/\n    \n\n\n//////////////////////////////////////////////////////////////  \n//////////////////////////////////////////////////////////////  \n///////////////////////////////   4.3. check function\n/*\n    // id      Verify that this ID has been used\n    function checkIdExisted(uint _id) internal view returns(bool){\n        for(uint i=1;i<=adminCounts;i++){\n            if(adminSelfs[i].adminId == _id)\n                return true;\n        }\n        for(uint i=1;i<=professorCounts;i++){\n            if(professorSelfs[i].proId == _id)\n                return true;\n        }\n        for(uint i=1;i<=studentCounts;i++){\n            if(studentSelfs[i].stuId == _id)\n                return true;\n        }\n        return false; // \n    }\n*/    \n    \n    // address  Verify that this address has been used\n    function checkAddressExisted(address _address) internal view returns(bool){\n        for(uint i=1;i<=adminCounts;i++){\n            if(adminSelfs[i].adminBlockAddress == _address)\n                return true;\n        }\n        for(uint i=1;i<=professorCounts;i++){\n            if(professorSelfs[i].proBlockAddress == _address)\n                return true;\n        }\n        for(uint i=1;i<=studentCounts;i++){\n            if(studentSelfs[i].stuBlockAddress == _address)\n                return true;\n        }\n        return false; // \n    }\n\n\n    ////// check course /////////////////\n\n    // \n    function checkCourseCanApply(uint _courseId) internal view returns(bool){\n        //  find this course\n        for(uint i=1;i<=courseCounts;i++){\n            if(courseInfs[i].courseId == _courseId){\n                if(courseInfs[i].canApply == true){\n                    return true;\n                }\n            }\n        }\n        return false;\n    }\n\n    // course id   Check whether this course exists through course ID\n    function checkCourseExisted(uint _courseId) internal view returns(bool){\n        //  find this course\n        for(uint i=1;i<=courseCounts;i++){\n            if(courseInfs[i].courseId == _courseId){\n                return true;\n            }\n        }\n        return false;\n    }\n\n/* \n    // courseidproBlockAddress\n    // Check whether the professor has this course through courseid and proid\n    function checkCourseHeldByProBlockAddress(uint _courseId,address _proBlockAddress) internal view returns(bool){\n        for(uint i=1;i<=professorCounts;i++){\n            //   Find the corresponding Professor first\n            if(professorSelfs[i].proBlockAddress == _proBlockAddress){\n                // proBlockAddressmyProCoursescourseId\n                // Check whether the corresponding courseid exists in the myprocourses array under this proid\n                for(uint k=0;k<=professorSelfs[i].myProCourses.length;k++){\n                    if(professorSelfs[i].myProCourses[k] == _courseId){\n                        return true;\n                    }\n                }\n            }\n        }\n        return false;\n    }\n*/    \n    \n    // courseId,stuId \n    // Check whether students have this course through courseid and stuid\n    function checkCourseHeldByStuBlockAddress(uint _courseId,address _stuBlockAddress) internal view returns(bool){\n        for(uint i=1;i<=studentCounts;i++){\n            //   Find the corresponding student first\n            if(studentSelfs[i].stuBlockAddress == _stuBlockAddress){\n                // stuBlockAddressmyStuCoursescourseId\n                // Check whether the corresponding courseid exists in the mystucourses array under this stuid\n                for(uint k=0;k<=studentSelfs[i].myStuCourses.length;k++){\n                    if(studentSelfs[i].myStuCourses[k] == _courseId){\n                        return true;\n                    }\n                }\n            }\n        }\n        return false;\n    }\n    \n\n\n\n\n}\n\n",
  "sourcePath": "/Users/sophotky/Computer-Science/blockchain/capstone/scouter2/contracts/StructAndModifiers.sol",
  "compiler": {
    "name": "solc",
    "version": "0.8.7+commit.e28d00a7.Emscripten.clang"
  },
  "schemaVersion": "3.4.3",
  "updatedAt": "2021-12-06T11:05:42.466Z",
  "devdoc": {
    "kind": "dev",
    "methods": {},
    "version": 1
  },
  "userdoc": {
    "kind": "user",
    "methods": {},
    "version": 1
  }
}