{
  "contractName": "StructAndModifiers",
  "abi": [
    {
      "inputs": [],
      "payable": false,
      "stateMutability": "nonpayable",
      "type": "constructor"
    },
    {
      "constant": true,
      "inputs": [],
      "name": "adminCounts",
      "outputs": [
        {
          "internalType": "uint256",
          "name": "",
          "type": "uint256"
        }
      ],
      "payable": false,
      "stateMutability": "view",
      "type": "function"
    },
    {
      "constant": true,
      "inputs": [
        {
          "internalType": "uint256",
          "name": "",
          "type": "uint256"
        }
      ],
      "name": "adminSelfs",
      "outputs": [
        {
          "internalType": "uint256",
          "name": "adminId",
          "type": "uint256"
        },
        {
          "internalType": "string",
          "name": "adminName",
          "type": "string"
        },
        {
          "internalType": "address",
          "name": "adminBlockAddress",
          "type": "address"
        },
        {
          "internalType": "uint256",
          "name": "adminAuthorization",
          "type": "uint256"
        }
      ],
      "payable": false,
      "stateMutability": "view",
      "type": "function"
    },
    {
      "constant": true,
      "inputs": [],
      "name": "courseCounts",
      "outputs": [
        {
          "internalType": "uint256",
          "name": "",
          "type": "uint256"
        }
      ],
      "payable": false,
      "stateMutability": "view",
      "type": "function"
    },
    {
      "constant": true,
      "inputs": [
        {
          "internalType": "uint256",
          "name": "",
          "type": "uint256"
        }
      ],
      "name": "courseInfs",
      "outputs": [
        {
          "internalType": "uint256",
          "name": "courseId",
          "type": "uint256"
        },
        {
          "internalType": "string",
          "name": "courseName",
          "type": "string"
        },
        {
          "internalType": "address",
          "name": "proBlockAddress",
          "type": "address"
        },
        {
          "internalType": "bool",
          "name": "canApply",
          "type": "bool"
        },
        {
          "internalType": "uint256",
          "name": "courseStudentCounts",
          "type": "uint256"
        }
      ],
      "payable": false,
      "stateMutability": "view",
      "type": "function"
    },
    {
      "constant": true,
      "inputs": [],
      "name": "modifiersOwner",
      "outputs": [
        {
          "internalType": "address",
          "name": "",
          "type": "address"
        }
      ],
      "payable": false,
      "stateMutability": "view",
      "type": "function"
    },
    {
      "constant": true,
      "inputs": [],
      "name": "professorCounts",
      "outputs": [
        {
          "internalType": "uint256",
          "name": "",
          "type": "uint256"
        }
      ],
      "payable": false,
      "stateMutability": "view",
      "type": "function"
    },
    {
      "constant": true,
      "inputs": [
        {
          "internalType": "uint256",
          "name": "",
          "type": "uint256"
        }
      ],
      "name": "professorSelfs",
      "outputs": [
        {
          "internalType": "uint256",
          "name": "proId",
          "type": "uint256"
        },
        {
          "internalType": "string",
          "name": "proName",
          "type": "string"
        },
        {
          "internalType": "address",
          "name": "proBlockAddress",
          "type": "address"
        },
        {
          "internalType": "uint256",
          "name": "proAuthorization",
          "type": "uint256"
        },
        {
          "internalType": "uint256",
          "name": "isTeachingPeopleSum",
          "type": "uint256"
        }
      ],
      "payable": false,
      "stateMutability": "view",
      "type": "function"
    },
    {
      "constant": true,
      "inputs": [],
      "name": "studentCounts",
      "outputs": [
        {
          "internalType": "uint256",
          "name": "",
          "type": "uint256"
        }
      ],
      "payable": false,
      "stateMutability": "view",
      "type": "function"
    },
    {
      "constant": true,
      "inputs": [
        {
          "internalType": "uint256",
          "name": "",
          "type": "uint256"
        }
      ],
      "name": "studentSelfs",
      "outputs": [
        {
          "internalType": "uint256",
          "name": "stuId",
          "type": "uint256"
        },
        {
          "internalType": "string",
          "name": "stuName",
          "type": "string"
        },
        {
          "internalType": "address",
          "name": "stuBlockAddress",
          "type": "address"
        },
        {
          "internalType": "uint256",
          "name": "stuAuthorization",
          "type": "uint256"
        },
        {
          "internalType": "uint256",
          "name": "isLearningSum",
          "type": "uint256"
        }
      ],
      "payable": false,
      "stateMutability": "view",
      "type": "function"
    },
    {
      "constant": false,
      "inputs": [
        {
          "internalType": "address",
          "name": "_address",
          "type": "address"
        },
        {
          "internalType": "string",
          "name": "_name",
          "type": "string"
        }
      ],
      "name": "setNameByAddress",
      "outputs": [
        {
          "internalType": "bool",
          "name": "",
          "type": "bool"
        }
      ],
      "payable": false,
      "stateMutability": "nonpayable",
      "type": "function"
    },
    {
      "constant": true,
      "inputs": [],
      "name": "getMsgSender",
      "outputs": [
        {
          "internalType": "address",
          "name": "",
          "type": "address"
        }
      ],
      "payable": false,
      "stateMutability": "view",
      "type": "function"
    },
    {
      "constant": true,
      "inputs": [],
      "name": "getMsgSenderAuthorization",
      "outputs": [
        {
          "internalType": "uint256",
          "name": "",
          "type": "uint256"
        }
      ],
      "payable": false,
      "stateMutability": "view",
      "type": "function"
    },
    {
      "constant": true,
      "inputs": [
        {
          "internalType": "address",
          "name": "_address",
          "type": "address"
        }
      ],
      "name": "getIdByAddress",
      "outputs": [
        {
          "internalType": "uint256",
          "name": "",
          "type": "uint256"
        }
      ],
      "payable": false,
      "stateMutability": "view",
      "type": "function"
    },
    {
      "constant": true,
      "inputs": [
        {
          "internalType": "uint256",
          "name": "_id",
          "type": "uint256"
        }
      ],
      "name": "getAddressById",
      "outputs": [
        {
          "internalType": "address",
          "name": "",
          "type": "address"
        }
      ],
      "payable": false,
      "stateMutability": "view",
      "type": "function"
    },
    {
      "constant": true,
      "inputs": [
        {
          "internalType": "address",
          "name": "_address",
          "type": "address"
        }
      ],
      "name": "getAuthorizationByAddress",
      "outputs": [
        {
          "internalType": "uint256",
          "name": "",
          "type": "uint256"
        }
      ],
      "payable": false,
      "stateMutability": "view",
      "type": "function"
    },
    {
      "constant": true,
      "inputs": [],
      "name": "getAdminCounts",
      "outputs": [
        {
          "internalType": "uint256",
          "name": "",
          "type": "uint256"
        }
      ],
      "payable": false,
      "stateMutability": "view",
      "type": "function"
    },
    {
      "constant": true,
      "inputs": [
        {
          "internalType": "address",
          "name": "_adminBlockAddress",
          "type": "address"
        }
      ],
      "name": "getAdminIndexByAddress",
      "outputs": [
        {
          "internalType": "uint256",
          "name": "",
          "type": "uint256"
        }
      ],
      "payable": false,
      "stateMutability": "view",
      "type": "function"
    },
    {
      "constant": true,
      "inputs": [],
      "name": "getProfessorCounts",
      "outputs": [
        {
          "internalType": "uint256",
          "name": "",
          "type": "uint256"
        }
      ],
      "payable": false,
      "stateMutability": "view",
      "type": "function"
    },
    {
      "constant": true,
      "inputs": [
        {
          "internalType": "address",
          "name": "_proBlockAddress",
          "type": "address"
        }
      ],
      "name": "getProfessorIndexByAddress",
      "outputs": [
        {
          "internalType": "uint256",
          "name": "",
          "type": "uint256"
        }
      ],
      "payable": false,
      "stateMutability": "view",
      "type": "function"
    },
    {
      "constant": true,
      "inputs": [
        {
          "internalType": "address",
          "name": "_proBlockAddress",
          "type": "address"
        }
      ],
      "name": "getProfessorInfByProAddress",
      "outputs": [
        {
          "internalType": "uint256",
          "name": "",
          "type": "uint256"
        },
        {
          "internalType": "string",
          "name": "",
          "type": "string"
        },
        {
          "internalType": "address",
          "name": "",
          "type": "address"
        },
        {
          "internalType": "uint256",
          "name": "",
          "type": "uint256"
        },
        {
          "internalType": "uint256[]",
          "name": "",
          "type": "uint256[]"
        }
      ],
      "payable": false,
      "stateMutability": "view",
      "type": "function"
    },
    {
      "constant": true,
      "inputs": [],
      "name": "getAllProfessorAddress",
      "outputs": [
        {
          "internalType": "address[]",
          "name": "",
          "type": "address[]"
        }
      ],
      "payable": false,
      "stateMutability": "view",
      "type": "function"
    },
    {
      "constant": true,
      "inputs": [],
      "name": "getAllProfessorId",
      "outputs": [
        {
          "internalType": "uint256[]",
          "name": "",
          "type": "uint256[]"
        }
      ],
      "payable": false,
      "stateMutability": "view",
      "type": "function"
    },
    {
      "constant": true,
      "inputs": [],
      "name": "getStudentCounts",
      "outputs": [
        {
          "internalType": "uint256",
          "name": "",
          "type": "uint256"
        }
      ],
      "payable": false,
      "stateMutability": "view",
      "type": "function"
    },
    {
      "constant": true,
      "inputs": [
        {
          "internalType": "address",
          "name": "_stuBlockAddress",
          "type": "address"
        }
      ],
      "name": "getStudentIndexByAddress",
      "outputs": [
        {
          "internalType": "uint256",
          "name": "",
          "type": "uint256"
        }
      ],
      "payable": false,
      "stateMutability": "view",
      "type": "function"
    },
    {
      "constant": true,
      "inputs": [
        {
          "internalType": "address",
          "name": "_stuBlockAddress",
          "type": "address"
        }
      ],
      "name": "getStudentInfByStuAddress",
      "outputs": [
        {
          "internalType": "uint256",
          "name": "",
          "type": "uint256"
        },
        {
          "internalType": "string",
          "name": "",
          "type": "string"
        },
        {
          "internalType": "address",
          "name": "",
          "type": "address"
        },
        {
          "internalType": "uint256",
          "name": "",
          "type": "uint256"
        },
        {
          "internalType": "uint256[]",
          "name": "",
          "type": "uint256[]"
        }
      ],
      "payable": false,
      "stateMutability": "view",
      "type": "function"
    },
    {
      "constant": true,
      "inputs": [],
      "name": "getAllStudentAddress",
      "outputs": [
        {
          "internalType": "address[]",
          "name": "",
          "type": "address[]"
        }
      ],
      "payable": false,
      "stateMutability": "view",
      "type": "function"
    },
    {
      "constant": true,
      "inputs": [],
      "name": "getAllStudentId",
      "outputs": [
        {
          "internalType": "uint256[]",
          "name": "",
          "type": "uint256[]"
        }
      ],
      "payable": false,
      "stateMutability": "view",
      "type": "function"
    },
    {
      "constant": true,
      "inputs": [
        {
          "internalType": "uint256",
          "name": "_courseId",
          "type": "uint256"
        }
      ],
      "name": "getIndexByCourseId",
      "outputs": [
        {
          "internalType": "uint256",
          "name": "",
          "type": "uint256"
        }
      ],
      "payable": false,
      "stateMutability": "view",
      "type": "function"
    },
    {
      "constant": true,
      "inputs": [],
      "name": "getAllCourseId",
      "outputs": [
        {
          "internalType": "uint256[]",
          "name": "",
          "type": "uint256[]"
        }
      ],
      "payable": false,
      "stateMutability": "view",
      "type": "function"
    },
    {
      "constant": true,
      "inputs": [
        {
          "internalType": "uint256",
          "name": "_courseid",
          "type": "uint256"
        }
      ],
      "name": "getcourseStudentCounts",
      "outputs": [
        {
          "internalType": "uint256",
          "name": "courseStudentCounts_",
          "type": "uint256"
        }
      ],
      "payable": false,
      "stateMutability": "view",
      "type": "function"
    },
    {
      "constant": true,
      "inputs": [],
      "name": "getCourseCounts",
      "outputs": [
        {
          "internalType": "uint256",
          "name": "",
          "type": "uint256"
        }
      ],
      "payable": false,
      "stateMutability": "view",
      "type": "function"
    },
    {
      "constant": true,
      "inputs": [
        {
          "internalType": "uint256",
          "name": "_courseid",
          "type": "uint256"
        }
      ],
      "name": "getCourseStudentsByCourseId",
      "outputs": [
        {
          "internalType": "address[]",
          "name": "",
          "type": "address[]"
        },
        {
          "internalType": "uint256[]",
          "name": "",
          "type": "uint256[]"
        }
      ],
      "payable": false,
      "stateMutability": "view",
      "type": "function"
    },
    {
      "constant": true,
      "inputs": [
        {
          "internalType": "uint256",
          "name": "_courseid",
          "type": "uint256"
        }
      ],
      "name": "getCourseInfByCourseId",
      "outputs": [
        {
          "internalType": "uint256",
          "name": "",
          "type": "uint256"
        },
        {
          "internalType": "string",
          "name": "",
          "type": "string"
        },
        {
          "internalType": "address",
          "name": "",
          "type": "address"
        },
        {
          "internalType": "uint256",
          "name": "",
          "type": "uint256"
        },
        {
          "internalType": "address[]",
          "name": "",
          "type": "address[]"
        },
        {
          "internalType": "uint256[]",
          "name": "",
          "type": "uint256[]"
        }
      ],
      "payable": false,
      "stateMutability": "view",
      "type": "function"
    },
    {
      "constant": true,
      "inputs": [
        {
          "internalType": "uint256",
          "name": "_courseid",
          "type": "uint256"
        },
        {
          "internalType": "uint256",
          "name": "_getTops",
          "type": "uint256"
        }
      ],
      "name": "getTopStudentsByCourseId",
      "outputs": [
        {
          "internalType": "uint256",
          "name": "",
          "type": "uint256"
        },
        {
          "internalType": "string",
          "name": "",
          "type": "string"
        },
        {
          "internalType": "address",
          "name": "",
          "type": "address"
        },
        {
          "internalType": "uint256",
          "name": "",
          "type": "uint256"
        },
        {
          "internalType": "address[]",
          "name": "",
          "type": "address[]"
        },
        {
          "internalType": "uint256[]",
          "name": "",
          "type": "uint256[]"
        }
      ],
      "payable": false,
      "stateMutability": "view",
      "type": "function"
    },
    {
      "constant": true,
      "inputs": [
        {
          "internalType": "address",
          "name": "_proBlockAddress",
          "type": "address"
        }
      ],
      "name": "getCourseCountsByProAddress",
      "outputs": [
        {
          "internalType": "uint256",
          "name": "",
          "type": "uint256"
        }
      ],
      "payable": false,
      "stateMutability": "view",
      "type": "function"
    },
    {
      "constant": true,
      "inputs": [
        {
          "internalType": "address",
          "name": "_proBlockAddress",
          "type": "address"
        }
      ],
      "name": "getCourseIdByProAddress",
      "outputs": [
        {
          "internalType": "uint256[]",
          "name": "",
          "type": "uint256[]"
        }
      ],
      "payable": false,
      "stateMutability": "view",
      "type": "function"
    },
    {
      "constant": true,
      "inputs": [
        {
          "internalType": "address",
          "name": "_stuBlockAddress",
          "type": "address"
        }
      ],
      "name": "getCourseCountsByStuAddress",
      "outputs": [
        {
          "internalType": "uint256",
          "name": "",
          "type": "uint256"
        }
      ],
      "payable": false,
      "stateMutability": "view",
      "type": "function"
    },
    {
      "constant": true,
      "inputs": [
        {
          "internalType": "address",
          "name": "_stuBlockAddress",
          "type": "address"
        }
      ],
      "name": "getCourseIdByStuAddress",
      "outputs": [
        {
          "internalType": "uint256[]",
          "name": "",
          "type": "uint256[]"
        }
      ],
      "payable": false,
      "stateMutability": "view",
      "type": "function"
    }
  ],
  "bytecode": "0x608060405260006001556000600355600060055560006007553480156200002557600080fd5b50336000806101000a81548173ffffffffffffffffffffffffffffffffffffffff021916908373ffffffffffffffffffffffffffffffffffffffff1602179055506040518060800160405280600181526020016040518060400160405280600481526020017f526f6f740000000000000000000000000000000000000000000000000000000081525081526020016000809054906101000a900473ffffffffffffffffffffffffffffffffffffffff1673ffffffffffffffffffffffffffffffffffffffff16815260200160038152506002600060018152602001908152602001600020600082015181600001556020820151816001019080519060200190620001319291906200019e565b5060408201518160020160006101000a81548173ffffffffffffffffffffffffffffffffffffffff021916908373ffffffffffffffffffffffffffffffffffffffff160217905550606082015181600301559050506001600081548092919060010191905055506200024d565b828054600181600116156101000203166002900490600052602060002090601f016020900481019282601f10620001e157805160ff191683800117855562000212565b8280016001018555821562000212579182015b8281111562000211578251825591602001919060010190620001f4565b5b50905062000221919062000225565b5090565b6200024a91905b80821115620002465760008160009055506001016200022c565b5090565b90565b613621806200025d6000396000f3fe608060405234801561001057600080fd5b50600436106102315760003560e01c80638d80c92211610130578063ad9e42d9116100b8578063f6aa09e41161007c578063f6aa09e4146112fc578063f7d9394d1461135b578063fb3189e8146113ba578063fb6b990a146113d8578063fc0c1f391461151e57610231565b8063ad9e42d9146111c7578063bf01b07514611209578063c3caf9db14611227578063db7e803e14611245578063dff3b497146112a457610231565b806396621ec8116100ff57806396621ec814610fdd57806398aede5514610ffb5780639fde094314611045578063a5cc464d146110a4578063ac030336146110fc57610231565b80638d80c92214610d7757806390eab7a214610de5578063948e32b614610e3d57806394e48ece14610e5b57610231565b80632f02ca0b116101be57806358a420651161018257806358a4206514610b285780635e719a4914610c6e5780637860a06914610cb0578063792109be14610cce5780637a6ce2e114610d2d57610231565b80632f02ca0b1461071e57806330e947111461077657806340484638146108ee5780634d4fb0d7146109e15780634d64e5ee14610a3957610231565b80630d69951d116102055780630d69951d146104cf5780630e3bfd6c1461056857806310d756dd146105865780631643c8db146105de5780632454a939146106c657610231565b80624255a614610236578063043022fa146103255780630560c2e7146104185780630c1596b414610436575b600080fd5b6102626004803603602081101561024c57600080fd5b810190808035906020019092919050505061153c565b60405180868152602001806020018573ffffffffffffffffffffffffffffffffffffffff1673ffffffffffffffffffffffffffffffffffffffff168152602001848152602001838152602001828103825286818151815260200191508051906020019080838360005b838110156102e65780820151818401526020810190506102cb565b50505050905090810190601f1680156103135780820380516001836020036101000a031916815260200191505b50965050505050505060405180910390f35b6103516004803603602081101561033b57600080fd5b810190808035906020019092919050505061162a565b60405180868152602001806020018573ffffffffffffffffffffffffffffffffffffffff1673ffffffffffffffffffffffffffffffffffffffff16815260200184151515158152602001838152602001828103825286818151815260200191508051906020019080838360005b838110156103d95780820151818401526020810190506103be565b50505050905090810190601f1680156104065780820380516001836020036101000a031916815260200191505b50965050505050505060405180910390f35b610420611725565b6040518082815260200191505060405180910390f35b6104786004803603602081101561044c57600080fd5b81019080803573ffffffffffffffffffffffffffffffffffffffff169060200190929190505050611923565b6040518080602001828103825283818151815260200191508051906020019060200280838360005b838110156104bb5780820151818401526020810190506104a0565b505050509050019250505060405180910390f35b610511600480360360208110156104e557600080fd5b81019080803573ffffffffffffffffffffffffffffffffffffffff1690602001909291905050506119de565b6040518080602001828103825283818151815260200191508051906020019060200280838360005b83811015610554578082015181840152602081019050610539565b505050509050019250505060405180910390f35b610570611a99565b6040518082815260200191505060405180910390f35b6105c86004803603602081101561059c57600080fd5b81019080803573ffffffffffffffffffffffffffffffffffffffff169060200190929190505050611a9f565b6040518082815260200191505060405180910390f35b61060a600480360360208110156105f457600080fd5b8101908080359060200190929190505050611b3b565b60405180858152602001806020018473ffffffffffffffffffffffffffffffffffffffff1673ffffffffffffffffffffffffffffffffffffffff168152602001838152602001828103825285818151815260200191508051906020019080838360005b8381101561068857808201518184015260208101905061066d565b50505050905090810190601f1680156106b55780820380516001836020036101000a031916815260200191505b509550505050505060405180910390f35b610708600480360360208110156106dc57600080fd5b81019080803573ffffffffffffffffffffffffffffffffffffffff169060200190929190505050611c23565b6040518082815260200191505060405180910390f35b6107606004803603602081101561073457600080fd5b81019080803573ffffffffffffffffffffffffffffffffffffffff169060200190929190505050611cbf565b6040518082815260200191505060405180910390f35b6107a26004803603602081101561078c57600080fd5b8101908080359060200190929190505050611cef565b60405180878152602001806020018673ffffffffffffffffffffffffffffffffffffffff1673ffffffffffffffffffffffffffffffffffffffff1681526020018581526020018060200180602001848103845289818151815260200191508051906020019080838360005b8381101561082857808201518184015260208101905061080d565b50505050905090810190601f1680156108555780820380516001836020036101000a031916815260200191505b50848103835286818151815260200191508051906020019060200280838360005b83811015610891578082015181840152602081019050610876565b50505050905001848103825285818151815260200191508051906020019060200280838360005b838110156108d35780820151818401526020810190506108b8565b50505050905001995050505050505050505060405180910390f35b6109c76004803603604081101561090457600080fd5b81019080803573ffffffffffffffffffffffffffffffffffffffff1690602001909291908035906020019064010000000081111561094157600080fd5b82018360208201111561095357600080fd5b8035906020019184600183028401116401000000008311171561097557600080fd5b91908080601f016020809104026020016040519081016040528093929190818152602001838380828437600081840152601f19601f820116905080830192505050505050509192919290505050611faa565b604051808215151515815260200191505060405180910390f35b610a23600480360360208110156109f757600080fd5b81019080803573ffffffffffffffffffffffffffffffffffffffff169060200190929190505050612095565b6040518082815260200191505060405180910390f35b610a6560048036036020811015610a4f57600080fd5b81019080803590602001909291905050506120c5565b60405180868152602001806020018573ffffffffffffffffffffffffffffffffffffffff1673ffffffffffffffffffffffffffffffffffffffff168152602001848152602001838152602001828103825286818151815260200191508051906020019080838360005b83811015610ae9578082015181840152602081019050610ace565b50505050905090810190601f168015610b165780820380516001836020036101000a031916815260200191505b50965050505050505060405180910390f35b610b6a60048036036020811015610b3e57600080fd5b81019080803573ffffffffffffffffffffffffffffffffffffffff1690602001909291905050506121b3565b60405180868152602001806020018573ffffffffffffffffffffffffffffffffffffffff1673ffffffffffffffffffffffffffffffffffffffff16815260200184815260200180602001838103835287818151815260200191508051906020019080838360005b83811015610bec578082015181840152602081019050610bd1565b50505050905090810190601f168015610c195780820380516001836020036101000a031916815260200191505b50838103825284818151815260200191508051906020019060200280838360005b83811015610c55578082015181840152602081019050610c3a565b5050505090500197505050505050505060405180910390f35b610c9a60048036036020811015610c8457600080fd5b8101908080359060200190929190505050612318565b6040518082815260200191505060405180910390f35b610cb861237a565b6040518082815260200191505060405180910390f35b610cd6612380565b6040518080602001828103825283818151815260200191508051906020019060200280838360005b83811015610d19578082015181840152602081019050610cfe565b505050509050019250505060405180910390f35b610d3561240e565b604051808273ffffffffffffffffffffffffffffffffffffffff1673ffffffffffffffffffffffffffffffffffffffff16815260200191505060405180910390f35b610da360048036036020811015610d8d57600080fd5b8101908080359060200190929190505050612416565b604051808273ffffffffffffffffffffffffffffffffffffffff1673ffffffffffffffffffffffffffffffffffffffff16815260200191505060405180910390f35b610e2760048036036020811015610dfb57600080fd5b81019080803573ffffffffffffffffffffffffffffffffffffffff169060200190929190505050612592565b6040518082815260200191505060405180910390f35b610e45612792565b6040518082815260200191505060405180910390f35b610e9160048036036040811015610e7157600080fd5b81019080803590602001909291908035906020019092919050505061279c565b60405180878152602001806020018673ffffffffffffffffffffffffffffffffffffffff1673ffffffffffffffffffffffffffffffffffffffff1681526020018581526020018060200180602001848103845289818151815260200191508051906020019080838360005b83811015610f17578082015181840152602081019050610efc565b50505050905090810190601f168015610f445780820380516001836020036101000a031916815260200191505b50848103835286818151815260200191508051906020019060200280838360005b83811015610f80578082015181840152602081019050610f65565b50505050905001848103825285818151815260200191508051906020019060200280838360005b83811015610fc2578082015181840152602081019050610fa7565b50505050905001995050505050505050505060405180910390f35b610fe5612c30565b6040518082815260200191505060405180910390f35b611003612c3a565b604051808273ffffffffffffffffffffffffffffffffffffffff1673ffffffffffffffffffffffffffffffffffffffff16815260200191505060405180910390f35b61104d612c5f565b6040518080602001828103825283818151815260200191508051906020019060200280838360005b83811015611090578082015181840152602081019050611075565b505050509050019250505060405180910390f35b6110e6600480360360208110156110ba57600080fd5b81019080803573ffffffffffffffffffffffffffffffffffffffff169060200190929190505050612d3b565b6040518082815260200191505060405180910390f35b6111286004803603602081101561111257600080fd5b8101908080359060200190929190505050612dd7565b604051808060200180602001838103835285818151815260200191508051906020019060200280838360005b8381101561116f578082015181840152602081019050611154565b50505050905001838103825284818151815260200191508051906020019060200280838360005b838110156111b1578082015181840152602081019050611196565b5050505090500194505050505060405180910390f35b6111f3600480360360208110156111dd57600080fd5b8101908080359060200190929190505050612f6f565b6040518082815260200191505060405180910390f35b611211612fca565b6040518082815260200191505060405180910390f35b61122f612fd4565b6040518082815260200191505060405180910390f35b61124d612fde565b6040518080602001828103825283818151815260200191508051906020019060200280838360005b83811015611290578082015181840152602081019050611275565b505050509050019250505060405180910390f35b6112e6600480360360208110156112ba57600080fd5b81019080803573ffffffffffffffffffffffffffffffffffffffff16906020019092919050505061306c565b6040518082815260200191505060405180910390f35b61130461326c565b6040518080602001828103825283818151815260200191508051906020019060200280838360005b8381101561134757808201518184015260208101905061132c565b505050509050019250505060405180910390f35b6113636132fa565b6040518080602001828103825283818151815260200191508051906020019060200280838360005b838110156113a657808201518184015260208101905061138b565b505050509050019250505060405180910390f35b6113c26133d6565b6040518082815260200191505060405180910390f35b61141a600480360360208110156113ee57600080fd5b81019080803573ffffffffffffffffffffffffffffffffffffffff1690602001909291905050506133dc565b60405180868152602001806020018573ffffffffffffffffffffffffffffffffffffffff1673ffffffffffffffffffffffffffffffffffffffff16815260200184815260200180602001838103835287818151815260200191508051906020019080838360005b8381101561149c578082015181840152602081019050611481565b50505050905090810190601f1680156114c95780820380516001836020036101000a031916815260200191505b50838103825284818151815260200191508051906020019060200280838360005b838110156115055780820151818401526020810190506114ea565b5050505090500197505050505050505060405180910390f35b611526613541565b6040518082815260200191505060405180910390f35b6006602052806000526040600020600091509050806000015490806001018054600181600116156101000203166002900480601f0160208091040260200160405190810160405280929190818152602001828054600181600116156101000203166002900480156115ee5780601f106115c3576101008083540402835291602001916115ee565b820191906000526020600020905b8154815290600101906020018083116115d157829003601f168201915b5050505050908060020160009054906101000a900473ffffffffffffffffffffffffffffffffffffffff16908060030154908060050154905085565b6008602052806000526040600020600091509050806000015490806001018054600181600116156101000203166002900480601f0160208091040260200160405190810160405280929190818152602001828054600181600116156101000203166002900480156116dc5780601f106116b1576101008083540402835291602001916116dc565b820191906000526020600020905b8154815290600101906020018083116116bf57829003601f168201915b5050505050908060020160009054906101000a900473ffffffffffffffffffffffffffffffffffffffff16908060020160149054906101000a900460ff16908060030154905085565b600080600190505b60015481116117cc573373ffffffffffffffffffffffffffffffffffffffff166002600083815260200190815260200160002060020160009054906101000a900473ffffffffffffffffffffffffffffffffffffffff1673ffffffffffffffffffffffffffffffffffffffff1614156117bf576002600082815260200190815260200160002060030154915050611920565b808060010191505061172d565b506000600190505b6003548111611873573373ffffffffffffffffffffffffffffffffffffffff166004600083815260200190815260200160002060020160009054906101000a900473ffffffffffffffffffffffffffffffffffffffff1673ffffffffffffffffffffffffffffffffffffffff161415611866576004600082815260200190815260200160002060030154915050611920565b80806001019150506117d4565b506000600190505b600554811161191a573373ffffffffffffffffffffffffffffffffffffffff166006600083815260200190815260200160002060020160009054906101000a900473ffffffffffffffffffffffffffffffffffffffff1673ffffffffffffffffffffffffffffffffffffffff16141561190d576006600082815260200190815260200160002060030154915050611920565b808060010191505061187b565b50600090505b90565b6060600061193083612d3b565b9050600061193d84612095565b90506060816040519080825280602002602001820160405280156119705781602001602082028038833980820191505090505b50905060008090505b828110156119d2576004600085815260200190815260200160002060040181815481106119a257fe5b90600052602060002001548282815181106119b957fe5b6020026020010181815250508080600101915050611979565b50809350505050919050565b606060006119eb83611c23565b905060006119f884611cbf565b9050606081604051908082528060200260200182016040528015611a2b5781602001602082028038833980820191505090505b50905060008090505b82811015611a8d57600660008581526020019081526020016000206004018181548110611a5d57fe5b9060005260206000200154828281518110611a7457fe5b6020026020010181815250508080600101915050611a34565b50809350505050919050565b60075481565b600080600190505b6001548111611b30578273ffffffffffffffffffffffffffffffffffffffff166002600083815260200190815260200160002060020160009054906101000a900473ffffffffffffffffffffffffffffffffffffffff1673ffffffffffffffffffffffffffffffffffffffff161415611b235780915050611b36565b8080600101915050611aa7565b50600090505b919050565b6002602052806000526040600020600091509050806000015490806001018054600181600116156101000203166002900480601f016020809104026020016040519081016040528092919081815260200182805460018160011615610100020316600290048015611bed5780601f10611bc257610100808354040283529160200191611bed565b820191906000526020600020905b815481529060010190602001808311611bd057829003601f168201915b5050505050908060020160009054906101000a900473ffffffffffffffffffffffffffffffffffffffff16908060030154905084565b600080600190505b6005548111611cb4578273ffffffffffffffffffffffffffffffffffffffff166006600083815260200190815260200160002060020160009054906101000a900473ffffffffffffffffffffffffffffffffffffffff1673ffffffffffffffffffffffffffffffffffffffff161415611ca75780915050611cba565b8080600101915050611c2b565b50600090505b919050565b600080611ccb83611c23565b90506006600082815260200190815260200160002060040180549050915050919050565b600060606000806060806000611d0488612f6f565b90506000600860008381526020019081526020016000206000015490506060600860008481526020019081526020016000206001018054600181600116156101000203166002900480601f016020809104026020016040519081016040528092919081815260200182805460018160011615610100020316600290048015611dcd5780601f10611da257610100808354040283529160200191611dcd565b820191906000526020600020905b815481529060010190602001808311611db057829003601f168201915b5050505050905060006008600085815260200190815260200160002060020160009054906101000a900473ffffffffffffffffffffffffffffffffffffffff169050600060086000868152602001908152602001600020600301549050606081604051908082528060200260200182016040528015611e5b5781602001602082028038833980820191505090505b509050606082604051908082528060200260200182016040528015611e8f5781602001602082028038833980820191505090505b5090506000600190505b838111611f875760086000898152602001908152602001600020600401600082815260200190815260200160002060000160009054906101000a900473ffffffffffffffffffffffffffffffffffffffff16836001830381518110611efa57fe5b602002602001019073ffffffffffffffffffffffffffffffffffffffff16908173ffffffffffffffffffffffffffffffffffffffff168152505060086000898152602001908152602001600020600401600082815260200190815260200160002060010154826001830381518110611f6e57fe5b6020026020010181815250508080600101915050611e99565b508585858585859c509c509c509c509c509c505050505050505091939550919395565b60008060009050611fba84611a9f565b905060008114611ff95782600260008381526020019081526020016000206001019080519060200190611fee929190613547565b50600191505061208f565b61200284612d3b565b9050600081146120415782600460008381526020019081526020016000206001019080519060200190612036929190613547565b50600191505061208f565b61204a84611c23565b905060008114612089578260066000838152602001908152602001600020600101908051906020019061207e929190613547565b50600191505061208f565b60009150505b92915050565b6000806120a183612d3b565b90506004600082815260200190815260200160002060040180549050915050919050565b6004602052806000526040600020600091509050806000015490806001018054600181600116156101000203166002900480601f0160208091040260200160405190810160405280929190818152602001828054600181600116156101000203166002900480156121775780601f1061214c57610100808354040283529160200191612177565b820191906000526020600020905b81548152906001019060200180831161215a57829003601f168201915b5050505050908060020160009054906101000a900473ffffffffffffffffffffffffffffffffffffffff16908060030154908060050154905085565b60006060600080606060006121c787611c23565b90506000600660008381526020019081526020016000206000015490506060600660008481526020019081526020016000206001018054600181600116156101000203166002900480601f0160208091040260200160405190810160405280929190818152602001828054600181600116156101000203166002900480156122905780601f1061226557610100808354040283529160200191612290565b820191906000526020600020905b81548152906001019060200180831161227357829003601f168201915b5050505050905060006006600085815260200190815260200160002060020160009054906101000a900473ffffffffffffffffffffffffffffffffffffffff16905060006006600086815260200190815260200160002060030154905060606122f88c6119de565b905084848484849a509a509a509a509a5050505050505091939590929450565b600080600190505b6007548111612373578260086000838152602001908152602001600020600001541415612366576008600082815260200190815260200160002060030154915050612375565b8080600101915050612320565b505b919050565b60035481565b6060806005546040519080825280602002602001820160405280156123b45781602001602082028038833980820191505090505b5090506000600190505b60055481116124065760066000828152602001908152602001600020600001548260018303815181106123ed57fe5b60200260200101818152505080806001019150506123be565b508091505090565b600033905090565b600080600190505b6001548111612491578260026000838152602001908152602001600020600001541415612484576002600082815260200190815260200160002060020160009054906101000a900473ffffffffffffffffffffffffffffffffffffffff1691505061258d565b808060010191505061241e565b506000600190505b600354811161250c5782600460008381526020019081526020016000206000015414156124ff576004600082815260200190815260200160002060020160009054906101000a900473ffffffffffffffffffffffffffffffffffffffff1691505061258d565b8080600101915050612499565b506000600190505b600554811161258757826006600083815260200190815260200160002060000154141561257a576006600082815260200190815260200160002060020160009054906101000a900473ffffffffffffffffffffffffffffffffffffffff1691505061258d565b8080600101915050612514565b50600090505b919050565b600080600190505b6001548111612639578273ffffffffffffffffffffffffffffffffffffffff166002600083815260200190815260200160002060020160009054906101000a900473ffffffffffffffffffffffffffffffffffffffff1673ffffffffffffffffffffffffffffffffffffffff16141561262c57600260008281526020019081526020016000206003015491505061278d565b808060010191505061259a565b506000600190505b60035481116126e0578273ffffffffffffffffffffffffffffffffffffffff166004600083815260200190815260200160002060020160009054906101000a900473ffffffffffffffffffffffffffffffffffffffff1673ffffffffffffffffffffffffffffffffffffffff1614156126d357600460008281526020019081526020016000206003015491505061278d565b8080600101915050612641565b506000600190505b6005548111612787578273ffffffffffffffffffffffffffffffffffffffff166006600083815260200190815260200160002060020160009054906101000a900473ffffffffffffffffffffffffffffffffffffffff1673ffffffffffffffffffffffffffffffffffffffff16141561277a57600660008281526020019081526020016000206003015491505061278d565b80806001019150506126e8565b50600090505b919050565b6000600554905090565b60006060600080606080600087905060006127b68a612f6f565b90506000600860008381526020019081526020016000206000015490506060600860008481526020019081526020016000206001018054600181600116156101000203166002900480601f01602080910402602001604051908101604052809291908181526020018280546001816001161561010002031660029004801561287f5780601f106128545761010080835404028352916020019161287f565b820191906000526020600020905b81548152906001019060200180831161286257829003601f168201915b5050505050905060006008600085815260200190815260200160002060020160009054906101000a900473ffffffffffffffffffffffffffffffffffffffff169050600060086000868152602001908152602001600020600301549050858110156128e8578095505b6060866040519080825280602002602001820160405280156129195781602001602082028038833980820191505090505b50905060608760405190808252806020026020018201604052801561294d5781602001602082028038833980820191505090505b5090506060836040519080825280602002602001820160405280156129815781602001602082028038833980820191505090505b5090506000600190505b8481116129e557600860008a81526020019081526020016000206004016000828152602001908152602001600020600101548260018303815181106129cc57fe5b602002602001018181525050808060010191505061298b565b5060008090505b84811015612ab4576000600190505b85811015612aa657826001820381518110612a1257fe5b6020026020010151838281518110612a2657fe5b60200260200101511115612a99576000836001830381518110612a4557fe5b60200260200101519050838281518110612a5b57fe5b6020026020010151846001840381518110612a7257fe5b60200260200101818152505080848381518110612a8b57fe5b602002602001018181525050505b80806001019150506129fb565b5080806001019150506129ec565b50600080905060008090505b85811015612c09578a821415612ad557612c09565b828181518110612ae157fe5b6020026020010151848281518110612af557fe5b6020026020010181815250506000600190505b868111612bf357600860008c8152602001908152602001600020600401600082815260200190815260200160002060010154858381518110612b4657fe5b60200260200101511415612be657600860008c8152602001908152602001600020600401600082815260200190815260200160002060000160009054906101000a900473ffffffffffffffffffffffffffffffffffffffff16868381518110612bab57fe5b602002602001019073ffffffffffffffffffffffffffffffffffffffff16908173ffffffffffffffffffffffffffffffffffffffff16815250505b8080600101915050612b08565b5081806001019250508080600101915050612ac0565b508787878787879f509f509f509f509f509f50505050505050505050509295509295509295565b6000600154905090565b6000809054906101000a900473ffffffffffffffffffffffffffffffffffffffff1681565b606080600554604051908082528060200260200182016040528015612c935781602001602082028038833980820191505090505b5090506000600190505b6005548111612d33576006600082815260200190815260200160002060020160009054906101000a900473ffffffffffffffffffffffffffffffffffffffff16826001830381518110612cec57fe5b602002602001019073ffffffffffffffffffffffffffffffffffffffff16908173ffffffffffffffffffffffffffffffffffffffff16815250508080600101915050612c9d565b508091505090565b600080600190505b6003548111612dcc578273ffffffffffffffffffffffffffffffffffffffff166004600083815260200190815260200160002060020160009054906101000a900473ffffffffffffffffffffffffffffffffffffffff1673ffffffffffffffffffffffffffffffffffffffff161415612dbf5780915050612dd2565b8080600101915050612d43565b50600090505b919050565b6060806000612de584612f6f565b9050600060086000838152602001908152602001600020600301549050606081604051908082528060200260200182016040528015612e335781602001602082028038833980820191505090505b509050606082604051908082528060200260200182016040528015612e675781602001602082028038833980820191505090505b5090506000600190505b838111612f5f5760086000868152602001908152602001600020600401600082815260200190815260200160002060000160009054906101000a900473ffffffffffffffffffffffffffffffffffffffff16836001830381518110612ed257fe5b602002602001019073ffffffffffffffffffffffffffffffffffffffff16908173ffffffffffffffffffffffffffffffffffffffff168152505060086000868152602001908152602001600020600401600082815260200190815260200160002060010154826001830381518110612f4657fe5b6020026020010181815250508080600101915050612e71565b5081819550955050505050915091565b600080600090506000600190505b6007548111612fbe578360086000838152602001908152602001600020600001541415612fb1578091508192505050612fc5565b8080600101915050612f7d565b5060009150505b919050565b6000600754905090565b6000600354905090565b6060806003546040519080825280602002602001820160405280156130125781602001602082028038833980820191505090505b5090506000600190505b600354811161306457600460008281526020019081526020016000206000015482600183038151811061304b57fe5b602002602001018181525050808060010191505061301c565b508091505090565b600080600190505b6001548111613113578273ffffffffffffffffffffffffffffffffffffffff166002600083815260200190815260200160002060020160009054906101000a900473ffffffffffffffffffffffffffffffffffffffff1673ffffffffffffffffffffffffffffffffffffffff161415613106576002600082815260200190815260200160002060000154915050613267565b8080600101915050613074565b506000600190505b60035481116131ba578273ffffffffffffffffffffffffffffffffffffffff166004600083815260200190815260200160002060020160009054906101000a900473ffffffffffffffffffffffffffffffffffffffff1673ffffffffffffffffffffffffffffffffffffffff1614156131ad576004600082815260200190815260200160002060000154915050613267565b808060010191505061311b565b506000600190505b6005548111613261578273ffffffffffffffffffffffffffffffffffffffff166006600083815260200190815260200160002060020160009054906101000a900473ffffffffffffffffffffffffffffffffffffffff1673ffffffffffffffffffffffffffffffffffffffff161415613254576006600082815260200190815260200160002060000154915050613267565b80806001019150506131c2565b50600090505b919050565b6060806007546040519080825280602002602001820160405280156132a05781602001602082028038833980820191505090505b5090506000600190505b60075481116132f25760086000828152602001908152602001600020600001548260018303815181106132d957fe5b60200260200101818152505080806001019150506132aa565b508091505090565b60608060035460405190808252806020026020018201604052801561332e5781602001602082028038833980820191505090505b5090506000600190505b60035481116133ce576004600082815260200190815260200160002060020160009054906101000a900473ffffffffffffffffffffffffffffffffffffffff1682600183038151811061338757fe5b602002602001019073ffffffffffffffffffffffffffffffffffffffff16908173ffffffffffffffffffffffffffffffffffffffff16815250508080600101915050613338565b508091505090565b60055481565b60006060600080606060006133f087612d3b565b90506000600460008381526020019081526020016000206000015490506060600460008481526020019081526020016000206001018054600181600116156101000203166002900480601f0160208091040260200160405190810160405280929190818152602001828054600181600116156101000203166002900480156134b95780601f1061348e576101008083540402835291602001916134b9565b820191906000526020600020905b81548152906001019060200180831161349c57829003601f168201915b5050505050905060006004600085815260200190815260200160002060020160009054906101000a900473ffffffffffffffffffffffffffffffffffffffff16905060006004600086815260200190815260200160002060030154905060606135218c611923565b905084848484849a509a509a509a509a5050505050505091939590929450565b60015481565b828054600181600116156101000203166002900490600052602060002090601f016020900481019282601f1061358857805160ff19168380011785556135b6565b828001600101855582156135b6579182015b828111156135b557825182559160200191906001019061359a565b5b5090506135c391906135c7565b5090565b6135e991905b808211156135e55760008160009055506001016135cd565b5090565b9056fea265627a7a723158200d677287f31431b4d2d24c4b69f0192ea8c74442ad4e0ea9bfdd20d761ee3f7764736f6c63430005100032",
  "source": "// SPDX-License-Identifier: MIT\r\npragma solidity >=0.4.22 <0.9.0;\r\n\r\n/*\r\n\r\n1. :  Save the permission structure of the current address\r\n    AdminSelf,  ProfessorSelf,  StudentSelf\r\n\r\n2. : Save course details\r\n    CourseInf,  CourseStudent\r\n\r\n3. modifier function\r\n    onlyAdmin,  onlyProfessor,  checkIsStudent\r\n\r\n\r\n/////////////////////////////////////////////////////////////////////////////////////////////////////////////////\r\n/////////////////////////////////////////////////////////////////////////////////////////////////////////////////\r\n\r\n4.1. setter function\r\n\r\n    setcourseStudentCounts          // course id(,,)\r\n                                    // Set the number of students with the course ID (called once when the student joins the course)\r\n\r\n    setNameByAddress()              // addressname,  Change this person's name through address\r\n\r\n\r\n/////////////////////////////////////////////////////////////////////////////////////////////////////////////////\r\n/////////////////////////////////////////////////////////////////////////////////////////////////////////////////\r\n\r\n4.2 getter function\r\n\r\n    getMsgSender                    // msg.sender\r\n    \r\n    getMsgSenderAuthorization       // msg.sender\r\n\r\n    ==> getIdByAddress()            // addressid , Find this person's id through address\r\n\r\n    ==> getAddressById()            // ID  ,  Find this person's address by ID\r\n\r\n    getAuthorizationByAddress()     // addressauthorization , Find this person's authorization through address\r\n\r\n/////////////////////////////////////////////////////////////////////////////////////////////////////////////////\r\n\r\n// getter about admin\r\n    getAdminCounts()                // \r\n    getAdminIndexByAddress()        //  address adminindex , Find the index in admin by address\r\n\r\n/////////////////////////////////////////////////////////////////////////////////////////////////////////////////\r\n\r\n// getter about professor\r\n    getProfessorCounts()            // \r\n    getProfessorIndexByAddress()    //  address professorindex , Find the index in the professor by address\r\n    getProfessorInfByProAddress()   // proAddresspro\r\n\r\n/////////////////////////////////////////////////////////////////////////////////////////////////////////////////\r\n\r\n// getter about student\r\n    getStudentCounts()              // \r\n    getStudentIndexByAddress()      //  address studentindex  ,Find the index in the student by address\r\n    getStudentInfByStuAddress()     // stuAddressstu\r\n\r\n/////////////////////////////////////////////////////////////////////////////////////////////////////////////////\r\n\r\n// getter about course\r\n\r\n    // about all course\r\n    getIndexByCourseId              // course id    Get the index of this course by course ID\r\n \r\n    getAllCourseId()                // course id\r\n\r\n    getcourseStudentCounts          // course id  The number of students to get the course ID\r\n\r\n    getCourseCounts()               // courseCounts  Return the current courseCounts value\r\n\r\n    getCourseStudentsByCourseId()   // course id\r\n\r\n    getCourseInfByCourseId()        // course id\r\n\r\n    getTopStudentsByCourseId()      // course idn\r\n\r\n\r\n    // pro\r\n    getCourseCountsByProAddress()   //   Get a few courses taught by a certain teacher\r\n\r\n    getCourseIdByProAddress()       // proAddressid   Get an array of all course IDs opened by a teacher through proAddress\r\n\r\n\r\n    // stu\r\n    getCourseCountsByStuAddress()   // \r\n\r\n    getCourseIdByStuAddress()       // stuAddressid   Get an array of all course IDs opened by a student through stuAddress\r\n\r\n\r\n\r\n/////////////////////////////////////////////////////////////////////////////////////////////////////////////////\r\n/////////////////////////////////////////////////////////////////////////////////////////////////////////////////\r\n\r\n4.3. check function\r\n\r\n    checkIdExisted()                // id         Verify that this ID has been used\r\n\r\n    checkAddressExisted()           // address    Verify that this address has been used\r\n\r\n    ////// check course\r\n\r\n    checkCourseCanApply             // course id \r\n                                    // Check the course ID to see if you can apply for this course\r\n\r\n    checkCourseExisted              // course id \r\n                                    // Check if this course exists by course ID\r\n\r\n    checkCourseHeldByProBlockAddress        // courseId,proBlockAddress \r\n                                            // Check whether the professor owns the course through courseId,proId\r\n\r\n    checkCourseHeldByStuBlockAddress        // courseId,stuBlockAddress \r\n                                            // Through courseId,stuId checks whether the student owns the course\r\n\r\n    \r\n*/\r\n\r\ncontract StructAndModifiers{\r\n\r\n    address public modifiersOwner;   // \r\n\r\n    constructor() public {\r\n        modifiersOwner = msg.sender;\r\n        adminSelfs[1] = AdminSelf(1,'Root',modifiersOwner,3);\r\n        adminCounts++;\r\n    }\r\n\r\n//// Struct\r\n\r\n    ////////////\r\n    // admin //\r\n    ///////////\r\n    uint public adminCounts = 0; //\r\n    struct AdminSelf{\r\n        uint adminId;               // \r\n        string adminName;           //\r\n        address adminBlockAddress;  // \r\n        uint adminAuthorization;    // = 3\r\n    }\r\n    mapping(uint => AdminSelf)public adminSelfs; //\r\n    \r\n    ///////////////\r\n    // professor //\r\n    ///////////////\r\n    uint public professorCounts = 0; //\r\n    struct ProfessorSelf{\r\n        uint proId;               // \r\n        string proName;           //\r\n        address proBlockAddress;  // \r\n        uint proAuthorization;    // = 2\r\n        uint[] myProCourses;          //    Save the class you created\r\n        // ,    \r\n        // , +1 \r\n        // ,,-1   \r\n        // 0\r\n        // 0\r\n        /* \r\n            Judge whether the teacher is teaching, and the teacher who is teaching cannot be arbitrarily deprived of his authority,\r\n            When the teacher creates a course, when each student applies, + 1\r\n            When the teacher gives the student the score of a course, it indicates the end of a course, then - 1\r\n            When it is 0, it means that no course is taught\r\n            Initial 0\r\n        */\r\n        uint isTeachingPeopleSum;          \r\n    }\r\n    mapping(uint => ProfessorSelf)public professorSelfs; //\r\n    \r\n    /////////////\r\n    // student //\r\n    /////////////\r\n    uint public studentCounts = 0; //\r\n    struct StudentSelf{\r\n        uint stuId;               // \r\n        string stuName;           //\r\n        address stuBlockAddress;  // \r\n        uint stuAuthorization;    // = 1\r\n        uint[] myStuCourses;      //  Save the lesson I'm taking\r\n        // , \r\n        // +1,, -1\r\n        // 0\r\n        // 0\r\n        /*\r\n            Judge whether students are in class. Students in class cannot be removed at will\r\n            When students join a course, they will + 1. When students get a grade, it means that a course ends, then - 1\r\n            If it is 0, it means that you have not studied a course\r\n            Initial 0\r\n        */\r\n        uint isLearningSum;         \r\n    }\r\n    \r\n    mapping(uint => StudentSelf)public studentSelfs; // \r\n    \r\n    /*\r\n    /////////////\r\n    // course  //\r\n    /////////////\r\n    \r\n    1.                       Record course information\r\n    2. ()    Record score information (only teachers can modify it)\r\n    \r\n    \r\n    */\r\n    \r\n    uint public courseCounts = 0;\r\n        \r\n    //  Course student information\r\n    struct CourseStudent{\r\n        address stuBlockAddress;\r\n        uint stuGrade;\r\n    }\r\n\r\n    // Course information\r\n    struct CourseInf{\r\n        uint courseId;          //\r\n        string courseName;      //\r\n        address proBlockAddress;\r\n        bool canApply;          // , \r\n        uint courseStudentCounts;  // \r\n        mapping (uint => CourseStudent) courseStudents;  // \r\n    }\r\n    \r\n    mapping (uint => CourseInf) public courseInfs;//Course information index\r\n    \r\n    \r\n\r\n//////////////////////////////////////////////////////////////  \r\n//////////////////////////////////////////////////////////////  \r\n/////////////////////////////// modifier function\r\n    \r\n    // onlyAdmin\r\n    modifier onlyAdmin() {\r\n        bool isAdmin = false;\r\n        for (uint256 i = 0; i <= adminCounts; i++) {\r\n            if(msg.sender == adminSelfs[i].adminBlockAddress){                \r\n                isAdmin = true;\r\n            }\r\n        }\r\n        require(isAdmin,\">>>>>>isAdmin = false\");\r\n        _;\r\n    }\r\n\r\n    \r\n    // onlyProfessor\r\n    modifier onlyProfessor() {\r\n        bool isProfessor = false;\r\n        for (uint256 i = 0; i <= professorCounts; i++) {  \r\n            if(msg.sender == professorSelfs[i].proBlockAddress){               \r\n                isProfessor = true;\r\n            }\r\n        }\r\n        require(isProfessor,\"isProfessor = false\");\r\n        _;\r\n    }\r\n    \r\n    // \r\n    function checkIsStudent(address _stuBlockAddress) internal view returns(bool){\r\n        for (uint i = 0; i <= studentCounts; i++) {   \r\n            if( _stuBlockAddress == studentSelfs[i].stuBlockAddress){                \r\n                return true;\r\n            }\r\n        }\r\n        return false;\r\n    }\r\n    \r\n    \r\n  \r\n//////////////////////////////////////////////////////////////  \r\n//////////////////////////////////////////////////////////////  \r\n///////////////////////////////  4.1. setter function\r\n\r\n\r\n    // course id Number of students setting course ID\r\n    // ,  Call once when students join the course\r\n    function setcourseStudentCounts(uint _courseid) internal {\r\n        for(uint i=1;i<=courseCounts;i++){\r\n            if(courseInfs[i].courseId == _courseid){\r\n                courseInfs[i].courseStudentCounts++; // ,  Call once, add one person\r\n            }\r\n        }\r\n    }\r\n    \r\n\r\n    // addressname , Find this person's id through address\r\n    function setNameByAddress(address _address,string memory _name) public returns(bool){\r\n        uint index = 0;\r\n        index = getAdminIndexByAddress(_address);\r\n        if(index!=0){\r\n            adminSelfs[index].adminName = _name;\r\n            return true;\r\n        }\r\n        index = getProfessorIndexByAddress(_address);\r\n        if(index!=0){\r\n            professorSelfs[index].proName = _name;\r\n            return true;\r\n        }\r\n        index = getStudentIndexByAddress(_address);\r\n        if(index!=0){\r\n            studentSelfs[index].stuName = _name;\r\n            return true;\r\n        }\r\n        return false; //\r\n    }\r\n\r\n\r\n\r\n//////////////////////////////////////////////////////////////  \r\n//////////////////////////////////////////////////////////////  \r\n///////////////////////////////  4.2. getter function\r\n\r\n\r\n    // msg.sender\r\n    function getMsgSender() public view returns(address){\r\n        return msg.sender;\r\n    }\r\n\r\n    // msg.sender\r\n    function getMsgSenderAuthorization() public view returns(uint){\r\n        for(uint i=1;i<=adminCounts;i++){\r\n            if(adminSelfs[i].adminBlockAddress == msg.sender)\r\n                return adminSelfs[i].adminAuthorization;\r\n        }\r\n        for(uint i=1;i<=professorCounts;i++){\r\n            if(professorSelfs[i].proBlockAddress == msg.sender)\r\n                return professorSelfs[i].proAuthorization;\r\n        }\r\n        for(uint i=1;i<=studentCounts;i++){\r\n            if(studentSelfs[i].stuBlockAddress == msg.sender)\r\n                return studentSelfs[i].stuAuthorization;\r\n        }\r\n        return 0;\r\n    }\r\n\r\n    // addressid , Find this person's id through address\r\n    function getIdByAddress(address _address) public view returns(uint){\r\n        for(uint i=1;i<=adminCounts;i++){\r\n            if(adminSelfs[i].adminBlockAddress == _address)\r\n                return adminSelfs[i].adminId;\r\n        }\r\n        for(uint i=1;i<=professorCounts;i++){\r\n            if(professorSelfs[i].proBlockAddress == _address)\r\n                return professorSelfs[i].proId;\r\n        }\r\n        for(uint i=1;i<=studentCounts;i++){\r\n            if(studentSelfs[i].stuBlockAddress == _address)\r\n                return studentSelfs[i].stuId;\r\n        }\r\n        return 0; //\r\n    }\r\n  \r\n    \r\n    // ID  ,  Find this person's address by ID\r\n    function getAddressById(uint _id) public view returns(address){\r\n\r\n        for(uint i=1;i<=adminCounts;i++){\r\n            if(adminSelfs[i].adminId == _id)\r\n                return adminSelfs[i].adminBlockAddress;\r\n        }\r\n        for(uint i=1;i<=professorCounts;i++){\r\n            if(professorSelfs[i].proId == _id)\r\n                return professorSelfs[i].proBlockAddress;\r\n        }\r\n        for(uint i=1;i<=studentCounts;i++){\r\n            if(studentSelfs[i].stuId == _id)\r\n                return studentSelfs[i].stuBlockAddress;\r\n        }\r\n        return address(0x0);\r\n        \r\n    }\r\n\r\n\r\n    // addressauthorization , Find this person's authorization through address\r\n    function getAuthorizationByAddress(address _address) public view returns(uint){\r\n        for(uint i=1;i<=adminCounts;i++){\r\n            if(adminSelfs[i].adminBlockAddress == _address)\r\n                return adminSelfs[i].adminAuthorization;\r\n        }\r\n        for(uint i=1;i<=professorCounts;i++){\r\n            if(professorSelfs[i].proBlockAddress == _address)\r\n                return professorSelfs[i].proAuthorization;\r\n        }\r\n        for(uint i=1;i<=studentCounts;i++){\r\n            if(studentSelfs[i].stuBlockAddress == _address)\r\n                return studentSelfs[i].stuAuthorization;\r\n        }\r\n        return 0; //\r\n    }\r\n\r\n\r\n/////////////////////////////////////////////////////////////////////////////////////////////////////////////////\r\n\r\n// getter about admin\r\n\r\n    // \r\n    function getAdminCounts() public view returns(uint){\r\n        return adminCounts;\r\n    }\r\n\r\n\r\n    //  address adminindex , Find the index in admin by ID\r\n    function getAdminIndexByAddress(address _adminBlockAddress) public view returns(uint){\r\n        for(uint i=1;i<=adminCounts;i++){\r\n            if(adminSelfs[i].adminBlockAddress ==_adminBlockAddress) {\r\n                return i;  // \r\n            }    \r\n        }\r\n        return 0; // \r\n    }\r\n    \r\n\r\n\r\n/////////////////////////////////////////////////////////////////////////////////////////////////////////////////\r\n\r\n// getter about professor\r\n\r\n    // \r\n    function getProfessorCounts() public view returns(uint){\r\n        return professorCounts;\r\n    }\r\n\r\n    //  address professorindex , Find the index in the professor by ID\r\n    function getProfessorIndexByAddress(address _proBlockAddress) public view returns(uint){\r\n        for(uint i=1;i<=professorCounts;i++){\r\n            if(professorSelfs[i].proBlockAddress ==_proBlockAddress) {\r\n                return i;  // \r\n            }    \r\n        }\r\n        return 0; // \r\n    }\r\n    \r\n    // proAddresspro\r\n    function getProfessorInfByProAddress(address _proBlockAddress) public view returns(uint,string memory,address,uint,uint[] memory ){\r\n        // proIndex\r\n        uint proIndex = getProfessorIndexByAddress(_proBlockAddress);\r\n        //  proId,proName,proBlockAddress,proAuthorization,myProCourses\r\n        uint proId_ = professorSelfs[proIndex].proId;\r\n        string memory proName_ = professorSelfs[proIndex].proName;\r\n        address proBlockAddress_ = professorSelfs[proIndex].proBlockAddress;\r\n        uint proAuthorization_ = professorSelfs[proIndex].proAuthorization;\r\n        uint[] memory myProCourses_ = getCourseIdByProAddress(_proBlockAddress);\r\n        // return\r\n        return (proId_,proName_,proBlockAddress_,proAuthorization_,myProCourses_);\r\n    }\r\n\r\n    // \r\n    function getAllProfessorAddress() public view returns(address[] memory){\r\n        address[] memory allProfessorAddress_ = new address[](professorCounts);\r\n        for(uint i=1;i<=professorCounts;i++){\r\n            allProfessorAddress_[i-1] = professorSelfs[i].proBlockAddress;\r\n        }\r\n        return allProfessorAddress_;\r\n    }\r\n\r\n    // ID\r\n    function getAllProfessorId() public view returns(uint[] memory){\r\n        uint[] memory allProfessorId_ = new uint[](professorCounts);\r\n        for(uint i=1;i<=professorCounts;i++){\r\n            allProfessorId_[i-1] = professorSelfs[i].proId;\r\n        }\r\n        return allProfessorId_;\r\n    }\r\n\r\n/////////////////////////////////////////////////////////////////////////////////////////////////////////////////\r\n\r\n// getter about student\r\n\r\n    // \r\n    function getStudentCounts() public view returns(uint){\r\n        return studentCounts;\r\n    }\r\n\r\n    //  address studentindex  ,Find the index in the student by ID\r\n    function getStudentIndexByAddress(address _stuBlockAddress) public view returns(uint){\r\n        for(uint i=1;i<=studentCounts;i++){\r\n            if(studentSelfs[i].stuBlockAddress ==_stuBlockAddress) {\r\n                return i;  // \r\n            }    \r\n        }\r\n        return 0; // \r\n    }\r\n\r\n    // stuAddressstu\r\n    function getStudentInfByStuAddress(address _stuBlockAddress) public view returns(uint,string memory,address,uint,uint[] memory ){\r\n        // stuIndex\r\n        uint stuIndex = getStudentIndexByAddress(_stuBlockAddress);\r\n        //  stuId,stuName,stuBlockAddress,stuAuthorization,myStuCourses\r\n        uint stuId_ = studentSelfs[stuIndex].stuId;\r\n        string memory stuName_ = studentSelfs[stuIndex].stuName;\r\n        address stuBlockAddress_ = studentSelfs[stuIndex].stuBlockAddress;\r\n        uint stuAuthorization_ = studentSelfs[stuIndex].stuAuthorization;\r\n        uint[] memory myStuCourses_ = getCourseIdByStuAddress(_stuBlockAddress);\r\n        // return\r\n        return (stuId_,stuName_,stuBlockAddress_,stuAuthorization_,myStuCourses_);\r\n    }\r\n\r\n\r\n    // \r\n    function getAllStudentAddress() public view returns(address[] memory){\r\n        address[] memory allStudentAddress_ = new address[](studentCounts);\r\n        for(uint i=1;i<=studentCounts;i++){\r\n            allStudentAddress_[i-1] = studentSelfs[i].stuBlockAddress;\r\n        }\r\n        return allStudentAddress_;\r\n    }\r\n\r\n    // ID\r\n    function getAllStudentId() public view returns(uint[] memory){\r\n        uint[] memory allStudentId_ = new uint[](studentCounts);\r\n        for(uint i=1;i<=studentCounts;i++){\r\n            allStudentId_[i-1] = studentSelfs[i].stuId;\r\n        }\r\n        return allStudentId_;\r\n    }\r\n\r\n\r\n /////////////////////////////////////////////////////////////////////////////////////////////////////////////////\r\n\r\n// getter about course\r\n\r\n    // about all course\r\n\r\n    // course id  Get the index of this course through course ID\r\n    function getIndexByCourseId(uint _courseId) public view returns(uint){\r\n        //   Find the course first\r\n        uint indexOfCourseID = 0;\r\n        for(uint i=1;i<=courseCounts;i++){\r\n            if(courseInfs[i].courseId == _courseId){\r\n                indexOfCourseID = i;\r\n                return indexOfCourseID;\r\n            }\r\n        }\r\n        return 0;\r\n    }\r\n\r\n    // course id\r\n    function getAllCourseId() public view returns(uint[] memory){\r\n        uint [] memory allCourseId_ = new uint[](courseCounts);\r\n        for(uint i=1;i<=courseCounts;i++){\r\n            allCourseId_[i-1] = courseInfs[i].courseId;\r\n        }\r\n        return allCourseId_;\r\n    }\r\n\r\n\r\n\r\n    // course id  Number of students who get course ID\r\n    function getcourseStudentCounts(uint _courseid) public view returns(uint courseStudentCounts_){\r\n        for(uint i=1;i<=courseCounts;i++){\r\n            if(courseInfs[i].courseId == _courseid){\r\n                return courseInfs[i].courseStudentCounts;\r\n            }\r\n        }\r\n    }\r\n\r\n    // courseCounts\r\n    function getCourseCounts() public view returns(uint){\r\n        return courseCounts;    \r\n    }\r\n\r\n\r\n    // course id\r\n    function getCourseStudentsByCourseId(uint _courseid) public view returns(address[] memory,uint[] memory){\r\n        // \r\n        uint courseIndex = getIndexByCourseId(_courseid);\r\n        // \r\n        uint courseStudentCounts_ = courseInfs[courseIndex].courseStudentCounts;\r\n\r\n        // \r\n        address[] memory stuAddressTemp = new address[](courseStudentCounts_); \r\n        uint[] memory stuGradeTemp = new uint[](courseStudentCounts_); \r\n\r\n        for(uint i=1;i<=courseStudentCounts_;i++){\r\n            stuAddressTemp[i-1] = courseInfs[courseIndex].courseStudents[i].stuBlockAddress;\r\n            stuGradeTemp[i-1] = courseInfs[courseIndex].courseStudents[i].stuGrade;\r\n        }\r\n        return (stuAddressTemp,stuGradeTemp);\r\n    }\r\n\r\n    // course id\r\n    function getCourseInfByCourseId(uint _courseid) public view returns(uint,string memory,address,uint,address[] memory,uint[] memory){\r\n        // \r\n        uint courseIndex = getIndexByCourseId(_courseid);\r\n\r\n        // courseId_, courseName_,proBlockAddress_,courseStudentCounts_\r\n        uint courseId_ = courseInfs[courseIndex].courseId;          \r\n        string memory courseName_ = courseInfs[courseIndex].courseName;      \r\n        address proBlockAddress_ = courseInfs[courseIndex].proBlockAddress;\r\n        uint courseStudentCounts_ = courseInfs[courseIndex].courseStudentCounts;  \r\n\r\n        // course id\r\n        // \r\n        address[] memory stuAddressTemp = new address[](courseStudentCounts_); \r\n        uint[] memory stuGradeTemp = new uint[](courseStudentCounts_); \r\n\r\n        for(uint i=1;i<=courseStudentCounts_;i++){\r\n            stuAddressTemp[i-1] = courseInfs[courseIndex].courseStudents[i].stuBlockAddress;\r\n            stuGradeTemp[i-1] = courseInfs[courseIndex].courseStudents[i].stuGrade;\r\n        }\r\n\r\n\r\n        return (courseId_,courseName_,proBlockAddress_,courseStudentCounts_,stuAddressTemp,stuGradeTemp);\r\n    }\r\n\r\n\r\n    // course idn\r\n    function getTopStudentsByCourseId(uint _courseid,uint _getTops) public view returns(uint,string memory,address,uint,address[] memory,uint[] memory){\r\n        // \r\n        uint getTops = _getTops;\r\n        \r\n        // \r\n        uint courseIndex = getIndexByCourseId(_courseid);\r\n\r\n        // courseId_, courseName_,proBlockAddress_,courseStudentCounts_\r\n        uint courseId_ = courseInfs[courseIndex].courseId;          \r\n        string memory courseName_ = courseInfs[courseIndex].courseName;      \r\n        address proBlockAddress_ = courseInfs[courseIndex].proBlockAddress;\r\n        uint courseStudentCounts_ = courseInfs[courseIndex].courseStudentCounts;  \r\n\r\n        // \r\n        if(courseStudentCounts_ < getTops){\r\n            getTops = courseStudentCounts_;\r\n        }\r\n        // course id\r\n        // \r\n        \r\n        address[] memory stuAddressTemp = new address[](getTops); \r\n        uint[] memory stuGradeTemp = new uint[](getTops); \r\n\r\n\r\n        // \r\n        uint[] memory gradeOfStuGradeSort = new uint[](courseStudentCounts_);\r\n        //  1 -- courseStudentCounts_\r\n        for(uint i=1;i<=courseStudentCounts_;i++){ //  \r\n            gradeOfStuGradeSort[i-1] = courseInfs[courseIndex].courseStudents[i].stuGrade;\r\n        }\r\n\r\n        //  \r\n        for(uint i=0;i<courseStudentCounts_;i++){ //  \r\n            for(uint j=1;j<courseStudentCounts_;j++){ // \r\n                if(gradeOfStuGradeSort[j] > gradeOfStuGradeSort[j-1]){\r\n                    // \r\n                    uint temp = gradeOfStuGradeSort[j-1];\r\n                    gradeOfStuGradeSort[j-1] = gradeOfStuGradeSort[j];\r\n                    gradeOfStuGradeSort[j] = temp;\r\n                }\r\n            }\r\n        }\r\n        // indexOfStuGradeSort\r\n        //  \r\n        uint flag = 0;\r\n        for(uint i=0;i<courseStudentCounts_;i++){ //  \r\n            if(flag == getTops){\r\n                break;\r\n            }\r\n            // \r\n            stuGradeTemp[i] = gradeOfStuGradeSort[i];\r\n            // \r\n            for(uint j=1;j<=courseStudentCounts_;j++){ //  \r\n                if(stuGradeTemp[i] == courseInfs[courseIndex].courseStudents[j].stuGrade){\r\n                    stuAddressTemp[i] = courseInfs[courseIndex].courseStudents[j].stuBlockAddress;\r\n                }\r\n            }\r\n            flag++;\r\n        }\r\n  \r\n        return (courseId_,courseName_,proBlockAddress_,courseStudentCounts_,stuAddressTemp,stuGradeTemp);\r\n    }\r\n\r\n\r\n\r\n\r\n    \r\n    // pro ///////////////////////////////////\r\n\r\n    // \r\n    function getCourseCountsByProAddress(address _proBlockAddress) public view returns(uint){\r\n        // proIndex\r\n        uint proIndex = getProfessorIndexByAddress(_proBlockAddress);\r\n        return professorSelfs[proIndex].myProCourses.length;\r\n\r\n    }\r\n\r\n    // proAddressid   Get an array of all course IDs opened by a teacher through proAddress\r\n    function getCourseIdByProAddress(address _proBlockAddress) public view returns(uint[] memory){\r\n        // proIndex\r\n        uint proIndex = getProfessorIndexByAddress(_proBlockAddress);\r\n        // \r\n        uint courseLens = getCourseCountsByProAddress(_proBlockAddress);\r\n        // \r\n        uint[] memory myProCoursesTemp = new uint[](courseLens); \r\n\r\n        for(uint i=0;i<courseLens;i++){\r\n            myProCoursesTemp[i] = professorSelfs[proIndex].myProCourses[i];\r\n        }\r\n        return myProCoursesTemp;\r\n    }\r\n\r\n    \r\n    // stu ////////////////////////////////\r\n\r\n    // \r\n    function getCourseCountsByStuAddress(address _stuBlockAddress) public view returns(uint){\r\n        // stuIndex\r\n        uint stuIndex = getStudentIndexByAddress(_stuBlockAddress);\r\n        return studentSelfs[stuIndex].myStuCourses.length;\r\n\r\n    }\r\n\r\n    // stuAddressid   Get an array of all course IDs opened by a student through stuAddress\r\n    function getCourseIdByStuAddress(address _stuBlockAddress) public view returns(uint[] memory){\r\n        // stuIndex\r\n        uint stuIndex = getStudentIndexByAddress(_stuBlockAddress);\r\n        // \r\n        uint courseLens = getCourseCountsByStuAddress(_stuBlockAddress);\r\n        // \r\n        uint[] memory myStuCoursesTemp = new uint[](courseLens); \r\n\r\n        for(uint i=0;i<courseLens;i++){\r\n            myStuCoursesTemp[i] = studentSelfs[stuIndex].myStuCourses[i];\r\n        }\r\n        return myStuCoursesTemp;\r\n    }\r\n\r\n    \r\n\r\n\r\n//////////////////////////////////////////////////////////////  \r\n//////////////////////////////////////////////////////////////  \r\n///////////////////////////////   4.3. check function\r\n\r\n    // id      Verify that this ID has been used\r\n    function checkIdExisted(uint _id) internal view returns(bool){\r\n        for(uint i=1;i<=adminCounts;i++){\r\n            if(adminSelfs[i].adminId == _id)\r\n                return true;\r\n        }\r\n        for(uint i=1;i<=professorCounts;i++){\r\n            if(professorSelfs[i].proId == _id)\r\n                return true;\r\n        }\r\n        for(uint i=1;i<=studentCounts;i++){\r\n            if(studentSelfs[i].stuId == _id)\r\n                return true;\r\n        }\r\n        return false; // \r\n    }\r\n    \r\n    \r\n    // address  Verify that this address has been used\r\n    function checkAddressExisted(address _address) internal view returns(bool){\r\n        for(uint i=1;i<=adminCounts;i++){\r\n            if(adminSelfs[i].adminBlockAddress == _address)\r\n                return true;\r\n        }\r\n        for(uint i=1;i<=professorCounts;i++){\r\n            if(professorSelfs[i].proBlockAddress == _address)\r\n                return true;\r\n        }\r\n        for(uint i=1;i<=studentCounts;i++){\r\n            if(studentSelfs[i].stuBlockAddress == _address)\r\n                return true;\r\n        }\r\n        return false; // \r\n    }\r\n\r\n\r\n    ////// check course /////////////////\r\n\r\n    // \r\n    function checkCourseCanApply(uint _courseId) internal view returns(bool){\r\n        //  find this course\r\n        for(uint i=1;i<=courseCounts;i++){\r\n            if(courseInfs[i].courseId == _courseId){\r\n                if(courseInfs[i].canApply == true){\r\n                    return true;\r\n                }\r\n            }\r\n        }\r\n        return false;\r\n    }\r\n\r\n    // course id   Check whether this course exists through course ID\r\n    function checkCourseExisted(uint _courseId) internal view returns(bool){\r\n        //  find this course\r\n        for(uint i=1;i<=courseCounts;i++){\r\n            if(courseInfs[i].courseId == _courseId){\r\n                return true;\r\n            }\r\n        }\r\n        return false;\r\n    }\r\n    \r\n    // courseidproBlockAddress\r\n    // Check whether the professor has this course through courseid and proid\r\n    function checkCourseHeldByProBlockAddress(uint _courseId,address _proBlockAddress) internal view returns(bool){\r\n        for(uint i=1;i<=professorCounts;i++){\r\n            //   Find the corresponding Professor first\r\n            if(professorSelfs[i].proBlockAddress == _proBlockAddress){\r\n                // proBlockAddressmyProCoursescourseId\r\n                // Check whether the corresponding courseid exists in the myprocourses array under this proid\r\n                for(uint k=0;k<=professorSelfs[i].myProCourses.length;k++){\r\n                    if(professorSelfs[i].myProCourses[k] == _courseId){\r\n                        return true;\r\n                    }\r\n                }\r\n            }\r\n        }\r\n        return false;\r\n    }\r\n    \r\n    \r\n    // courseId,stuId \r\n    // Check whether students have this course through courseid and stuid\r\n    function checkCourseHeldByStuBlockAddress(uint _courseId,address _stuBlockAddress) internal view returns(bool){\r\n        for(uint i=1;i<=studentCounts;i++){\r\n            //   Find the corresponding student first\r\n            if(studentSelfs[i].stuBlockAddress == _stuBlockAddress){\r\n                // stuBlockAddressmyStuCoursescourseId\r\n                // Check whether the corresponding courseid exists in the mystucourses array under this stuid\r\n                for(uint k=0;k<=studentSelfs[i].myStuCourses.length;k++){\r\n                    if(studentSelfs[i].myStuCourses[k] == _courseId){\r\n                        return true;\r\n                    }\r\n                }\r\n            }\r\n        }\r\n        return false;\r\n    }\r\n    \r\n    \r\n    \r\n\r\n\r\n}\r\n\r\n",
  "sourcePath": "D:\\desktop\\truffle_v3.9.2\\contracts\\StructAndModifiers.sol",
  "compiler": {
    "name": "solc",
    "version": "0.5.16+commit.9c3226ce.Emscripten.clang"
  },
  "schemaVersion": "3.4.3",
  "updatedAt": "2021-12-02T22:08:08.986Z",
  "devdoc": {
    "methods": {}
  },
  "userdoc": {
    "methods": {
      "getAdminCounts()": {
        "notice": "//////////////////////////////////////////////////////////////////////////////////////////////////////////////"
      },
      "getIndexByCourseId(uint256)": {
        "notice": "//////////////////////////////////////////////////////////////////////////////////////////////////////////////"
      },
      "getMsgSender()": {
        "notice": "///////////////////////////////////////////////////////////   ///////////////////////////////////////////////////////////   ////////////////////////////  4.2. getter function"
      },
      "getProfessorCounts()": {
        "notice": "//////////////////////////////////////////////////////////////////////////////////////////////////////////////"
      },
      "getStudentCounts()": {
        "notice": "//////////////////////////////////////////////////////////////////////////////////////////////////////////////"
      }
    }
  }
}