{
  "contractName": "StructAndModifiers",
  "abi": [
    {
      "inputs": [],
      "payable": false,
      "stateMutability": "nonpayable",
      "type": "constructor"
    },
    {
      "constant": true,
      "inputs": [],
      "name": "adminCounts",
      "outputs": [
        {
          "internalType": "uint256",
          "name": "",
          "type": "uint256"
        }
      ],
      "payable": false,
      "stateMutability": "view",
      "type": "function"
    },
    {
      "constant": true,
      "inputs": [
        {
          "internalType": "uint256",
          "name": "",
          "type": "uint256"
        }
      ],
      "name": "adminSelfs",
      "outputs": [
        {
          "internalType": "uint256",
          "name": "adminId",
          "type": "uint256"
        },
        {
          "internalType": "string",
          "name": "adminName",
          "type": "string"
        },
        {
          "internalType": "address",
          "name": "adminBlockAddress",
          "type": "address"
        },
        {
          "internalType": "uint256",
          "name": "adminAuthorization",
          "type": "uint256"
        }
      ],
      "payable": false,
      "stateMutability": "view",
      "type": "function"
    },
    {
      "constant": true,
      "inputs": [],
      "name": "courseCounts",
      "outputs": [
        {
          "internalType": "uint256",
          "name": "",
          "type": "uint256"
        }
      ],
      "payable": false,
      "stateMutability": "view",
      "type": "function"
    },
    {
      "constant": true,
      "inputs": [
        {
          "internalType": "uint256",
          "name": "",
          "type": "uint256"
        }
      ],
      "name": "courseInfs",
      "outputs": [
        {
          "internalType": "uint256",
          "name": "courseId",
          "type": "uint256"
        },
        {
          "internalType": "string",
          "name": "courseName",
          "type": "string"
        },
        {
          "internalType": "address",
          "name": "proBlockAddress",
          "type": "address"
        },
        {
          "internalType": "bool",
          "name": "canApply",
          "type": "bool"
        },
        {
          "internalType": "uint256",
          "name": "courseStudentCounts",
          "type": "uint256"
        }
      ],
      "payable": false,
      "stateMutability": "view",
      "type": "function"
    },
    {
      "constant": true,
      "inputs": [],
      "name": "modifiersOwner",
      "outputs": [
        {
          "internalType": "address",
          "name": "",
          "type": "address"
        }
      ],
      "payable": false,
      "stateMutability": "view",
      "type": "function"
    },
    {
      "constant": true,
      "inputs": [],
      "name": "professorCounts",
      "outputs": [
        {
          "internalType": "uint256",
          "name": "",
          "type": "uint256"
        }
      ],
      "payable": false,
      "stateMutability": "view",
      "type": "function"
    },
    {
      "constant": true,
      "inputs": [
        {
          "internalType": "uint256",
          "name": "",
          "type": "uint256"
        }
      ],
      "name": "professorSelfs",
      "outputs": [
        {
          "internalType": "uint256",
          "name": "proId",
          "type": "uint256"
        },
        {
          "internalType": "string",
          "name": "proName",
          "type": "string"
        },
        {
          "internalType": "address",
          "name": "proBlockAddress",
          "type": "address"
        },
        {
          "internalType": "uint256",
          "name": "proAuthorization",
          "type": "uint256"
        },
        {
          "internalType": "uint256",
          "name": "isTeachingPeopleSum",
          "type": "uint256"
        }
      ],
      "payable": false,
      "stateMutability": "view",
      "type": "function"
    },
    {
      "constant": true,
      "inputs": [],
      "name": "studentCounts",
      "outputs": [
        {
          "internalType": "uint256",
          "name": "",
          "type": "uint256"
        }
      ],
      "payable": false,
      "stateMutability": "view",
      "type": "function"
    },
    {
      "constant": true,
      "inputs": [
        {
          "internalType": "uint256",
          "name": "",
          "type": "uint256"
        }
      ],
      "name": "studentSelfs",
      "outputs": [
        {
          "internalType": "uint256",
          "name": "stuId",
          "type": "uint256"
        },
        {
          "internalType": "string",
          "name": "stuName",
          "type": "string"
        },
        {
          "internalType": "address",
          "name": "stuBlockAddress",
          "type": "address"
        },
        {
          "internalType": "uint256",
          "name": "stuAuthorization",
          "type": "uint256"
        },
        {
          "internalType": "uint256",
          "name": "isLearningSum",
          "type": "uint256"
        }
      ],
      "payable": false,
      "stateMutability": "view",
      "type": "function"
    },
    {
      "constant": true,
      "inputs": [],
      "name": "getMsgSender",
      "outputs": [
        {
          "internalType": "address",
          "name": "",
          "type": "address"
        }
      ],
      "payable": false,
      "stateMutability": "view",
      "type": "function"
    },
    {
      "constant": true,
      "inputs": [
        {
          "internalType": "address",
          "name": "_address",
          "type": "address"
        }
      ],
      "name": "getIdByAddress",
      "outputs": [
        {
          "internalType": "uint256",
          "name": "",
          "type": "uint256"
        }
      ],
      "payable": false,
      "stateMutability": "view",
      "type": "function"
    },
    {
      "constant": true,
      "inputs": [
        {
          "internalType": "address",
          "name": "_address",
          "type": "address"
        }
      ],
      "name": "getAuthorizationByAddress",
      "outputs": [
        {
          "internalType": "uint256",
          "name": "",
          "type": "uint256"
        }
      ],
      "payable": false,
      "stateMutability": "view",
      "type": "function"
    },
    {
      "constant": true,
      "inputs": [
        {
          "internalType": "address",
          "name": "_adminBlockAddress",
          "type": "address"
        }
      ],
      "name": "getAdminIndexByAddress",
      "outputs": [
        {
          "internalType": "uint256",
          "name": "",
          "type": "uint256"
        }
      ],
      "payable": false,
      "stateMutability": "view",
      "type": "function"
    },
    {
      "constant": true,
      "inputs": [
        {
          "internalType": "address",
          "name": "_proBlockAddress",
          "type": "address"
        }
      ],
      "name": "getProfessorIndexByAddress",
      "outputs": [
        {
          "internalType": "uint256",
          "name": "",
          "type": "uint256"
        }
      ],
      "payable": false,
      "stateMutability": "view",
      "type": "function"
    },
    {
      "constant": true,
      "inputs": [
        {
          "internalType": "address",
          "name": "_stuBlockAddress",
          "type": "address"
        }
      ],
      "name": "getStudentIndexByAddress",
      "outputs": [
        {
          "internalType": "uint256",
          "name": "",
          "type": "uint256"
        }
      ],
      "payable": false,
      "stateMutability": "view",
      "type": "function"
    },
    {
      "constant": true,
      "inputs": [
        {
          "internalType": "address",
          "name": "_stuBlockAddress",
          "type": "address"
        }
      ],
      "name": "getStudentInfByStuAddress",
      "outputs": [
        {
          "internalType": "uint256",
          "name": "",
          "type": "uint256"
        },
        {
          "internalType": "string",
          "name": "",
          "type": "string"
        },
        {
          "internalType": "address",
          "name": "",
          "type": "address"
        },
        {
          "internalType": "uint256",
          "name": "",
          "type": "uint256"
        },
        {
          "internalType": "uint256[]",
          "name": "",
          "type": "uint256[]"
        },
        {
          "internalType": "uint256[]",
          "name": "",
          "type": "uint256[]"
        }
      ],
      "payable": false,
      "stateMutability": "view",
      "type": "function"
    },
    {
      "constant": true,
      "inputs": [],
      "name": "getAllStudentAddress",
      "outputs": [
        {
          "internalType": "address[]",
          "name": "",
          "type": "address[]"
        }
      ],
      "payable": false,
      "stateMutability": "view",
      "type": "function"
    },
    {
      "constant": true,
      "inputs": [
        {
          "internalType": "uint256",
          "name": "_courseId",
          "type": "uint256"
        }
      ],
      "name": "getIndexByCourseId",
      "outputs": [
        {
          "internalType": "uint256",
          "name": "",
          "type": "uint256"
        }
      ],
      "payable": false,
      "stateMutability": "view",
      "type": "function"
    },
    {
      "constant": true,
      "inputs": [],
      "name": "getAllCourseId",
      "outputs": [
        {
          "internalType": "uint256[]",
          "name": "",
          "type": "uint256[]"
        }
      ],
      "payable": false,
      "stateMutability": "view",
      "type": "function"
    },
    {
      "constant": true,
      "inputs": [
        {
          "internalType": "uint256",
          "name": "_courseid",
          "type": "uint256"
        }
      ],
      "name": "getcourseStudentCounts",
      "outputs": [
        {
          "internalType": "uint256",
          "name": "courseStudentCounts_",
          "type": "uint256"
        }
      ],
      "payable": false,
      "stateMutability": "view",
      "type": "function"
    },
    {
      "constant": true,
      "inputs": [],
      "name": "getCourseCounts",
      "outputs": [
        {
          "internalType": "uint256",
          "name": "",
          "type": "uint256"
        }
      ],
      "payable": false,
      "stateMutability": "view",
      "type": "function"
    },
    {
      "constant": true,
      "inputs": [
        {
          "internalType": "uint256",
          "name": "_courseid",
          "type": "uint256"
        }
      ],
      "name": "getCourseInfByCourseId",
      "outputs": [
        {
          "internalType": "uint256",
          "name": "",
          "type": "uint256"
        },
        {
          "internalType": "string",
          "name": "",
          "type": "string"
        },
        {
          "internalType": "address",
          "name": "",
          "type": "address"
        },
        {
          "internalType": "uint256",
          "name": "",
          "type": "uint256"
        },
        {
          "internalType": "address[]",
          "name": "",
          "type": "address[]"
        },
        {
          "internalType": "uint256[]",
          "name": "",
          "type": "uint256[]"
        }
      ],
      "payable": false,
      "stateMutability": "view",
      "type": "function"
    },
    {
      "constant": true,
      "inputs": [
        {
          "internalType": "uint256",
          "name": "_courseid",
          "type": "uint256"
        },
        {
          "internalType": "uint256",
          "name": "_getTops",
          "type": "uint256"
        }
      ],
      "name": "getTopStudentsByCourseId",
      "outputs": [
        {
          "internalType": "uint256",
          "name": "",
          "type": "uint256"
        },
        {
          "internalType": "string",
          "name": "",
          "type": "string"
        },
        {
          "internalType": "address",
          "name": "",
          "type": "address"
        },
        {
          "internalType": "uint256",
          "name": "",
          "type": "uint256"
        },
        {
          "internalType": "address[]",
          "name": "",
          "type": "address[]"
        },
        {
          "internalType": "uint256[]",
          "name": "",
          "type": "uint256[]"
        }
      ],
      "payable": false,
      "stateMutability": "view",
      "type": "function"
    },
    {
      "constant": true,
      "inputs": [
        {
          "internalType": "address",
          "name": "_proBlockAddress",
          "type": "address"
        }
      ],
      "name": "getCourseCountsByProAddress",
      "outputs": [
        {
          "internalType": "uint256",
          "name": "",
          "type": "uint256"
        }
      ],
      "payable": false,
      "stateMutability": "view",
      "type": "function"
    },
    {
      "constant": true,
      "inputs": [
        {
          "internalType": "address",
          "name": "_proBlockAddress",
          "type": "address"
        }
      ],
      "name": "getCourseIdByProAddress",
      "outputs": [
        {
          "internalType": "uint256[]",
          "name": "",
          "type": "uint256[]"
        }
      ],
      "payable": false,
      "stateMutability": "view",
      "type": "function"
    }
  ],
  "bytecode": "0x608060405260006001556000600355600060055560006007553480156200002557600080fd5b50336000806101000a81548173ffffffffffffffffffffffffffffffffffffffff021916908373ffffffffffffffffffffffffffffffffffffffff1602179055506040518060800160405280600181526020016040518060400160405280600481526020017f526f6f740000000000000000000000000000000000000000000000000000000081525081526020016000809054906101000a900473ffffffffffffffffffffffffffffffffffffffff1673ffffffffffffffffffffffffffffffffffffffff16815260200160038152506002600060018152602001908152602001600020600082015181600001556020820151816001019080519060200190620001319291906200019e565b5060408201518160020160006101000a81548173ffffffffffffffffffffffffffffffffffffffff021916908373ffffffffffffffffffffffffffffffffffffffff160217905550606082015181600301559050506001600081548092919060010191905055506200024d565b828054600181600116156101000203166002900490600052602060002090601f016020900481019282601f10620001e157805160ff191683800117855562000212565b8280016001018555821562000212579182015b8281111562000211578251825591602001919060010190620001f4565b5b50905062000221919062000225565b5090565b6200024a91905b80821115620002465760008160009055506001016200022c565b5090565b90565b612697806200025d6000396000f3fe608060405234801561001057600080fd5b50600436106101725760003560e01c80637860a069116100de578063a5cc464d11610097578063dff3b49711610071578063dff3b49714610dda578063f6aa09e414610e32578063fb3189e814610e91578063fc0c1f3914610eaf57610172565b8063a5cc464d14610d22578063ad9e42d914610d7a578063bf01b07514610dbc57610172565b80637860a06914610a375780637a6ce2e114610a5557806390eab7a214610a9f57806394e48ece14610af757806398aede5514610c795780639fde094314610cc357610172565b80632454a939116101305780632454a9391461055057806330e94711146105a85780634d4fb0d7146107205780634d64e5ee1461077857806358a42065146108675780635e719a49146109f557610172565b80624255a614610177578063043022fa146102665780630c1596b4146103595780630e3bfd6c146103f257806310d756dd146104105780631643c8db14610468575b600080fd5b6101a36004803603602081101561018d57600080fd5b8101908080359060200190929190505050610ecd565b60405180868152602001806020018573ffffffffffffffffffffffffffffffffffffffff1673ffffffffffffffffffffffffffffffffffffffff168152602001848152602001838152602001828103825286818151815260200191508051906020019080838360005b8381101561022757808201518184015260208101905061020c565b50505050905090810190601f1680156102545780820380516001836020036101000a031916815260200191505b50965050505050505060405180910390f35b6102926004803603602081101561027c57600080fd5b8101908080359060200190929190505050610fbb565b60405180868152602001806020018573ffffffffffffffffffffffffffffffffffffffff1673ffffffffffffffffffffffffffffffffffffffff16815260200184151515158152602001838152602001828103825286818151815260200191508051906020019080838360005b8381101561031a5780820151818401526020810190506102ff565b50505050905090810190601f1680156103475780820380516001836020036101000a031916815260200191505b50965050505050505060405180910390f35b61039b6004803603602081101561036f57600080fd5b81019080803573ffffffffffffffffffffffffffffffffffffffff1690602001909291905050506110b6565b6040518080602001828103825283818151815260200191508051906020019060200280838360005b838110156103de5780820151818401526020810190506103c3565b505050509050019250505060405180910390f35b6103fa611171565b6040518082815260200191505060405180910390f35b6104526004803603602081101561042657600080fd5b81019080803573ffffffffffffffffffffffffffffffffffffffff169060200190929190505050611177565b6040518082815260200191505060405180910390f35b6104946004803603602081101561047e57600080fd5b8101908080359060200190929190505050611213565b60405180858152602001806020018473ffffffffffffffffffffffffffffffffffffffff1673ffffffffffffffffffffffffffffffffffffffff168152602001838152602001828103825285818151815260200191508051906020019080838360005b838110156105125780820151818401526020810190506104f7565b50505050905090810190601f16801561053f5780820380516001836020036101000a031916815260200191505b509550505050505060405180910390f35b6105926004803603602081101561056657600080fd5b81019080803573ffffffffffffffffffffffffffffffffffffffff1690602001909291905050506112fb565b6040518082815260200191505060405180910390f35b6105d4600480360360208110156105be57600080fd5b8101908080359060200190929190505050611397565b60405180878152602001806020018673ffffffffffffffffffffffffffffffffffffffff1673ffffffffffffffffffffffffffffffffffffffff1681526020018581526020018060200180602001848103845289818151815260200191508051906020019080838360005b8381101561065a57808201518184015260208101905061063f565b50505050905090810190601f1680156106875780820380516001836020036101000a031916815260200191505b50848103835286818151815260200191508051906020019060200280838360005b838110156106c35780820151818401526020810190506106a8565b50505050905001848103825285818151815260200191508051906020019060200280838360005b838110156107055780820151818401526020810190506106ea565b50505050905001995050505050505050505060405180910390f35b6107626004803603602081101561073657600080fd5b81019080803573ffffffffffffffffffffffffffffffffffffffff169060200190929190505050611652565b6040518082815260200191505060405180910390f35b6107a46004803603602081101561078e57600080fd5b8101908080359060200190929190505050611682565b60405180868152602001806020018573ffffffffffffffffffffffffffffffffffffffff1673ffffffffffffffffffffffffffffffffffffffff168152602001848152602001838152602001828103825286818151815260200191508051906020019080838360005b8381101561082857808201518184015260208101905061080d565b50505050905090810190601f1680156108555780820380516001836020036101000a031916815260200191505b50965050505050505060405180910390f35b6108a96004803603602081101561087d57600080fd5b81019080803573ffffffffffffffffffffffffffffffffffffffff169060200190929190505050611770565b60405180878152602001806020018673ffffffffffffffffffffffffffffffffffffffff1673ffffffffffffffffffffffffffffffffffffffff1681526020018581526020018060200180602001848103845289818151815260200191508051906020019080838360005b8381101561092f578082015181840152602081019050610914565b50505050905090810190601f16801561095c5780820380516001836020036101000a031916815260200191505b50848103835286818151815260200191508051906020019060200280838360005b8381101561099857808201518184015260208101905061097d565b50505050905001848103825285818151815260200191508051906020019060200280838360005b838110156109da5780820151818401526020810190506109bf565b50505050905001995050505050505050505060405180910390f35b610a2160048036036020811015610a0b57600080fd5b81019080803590602001909291905050506119bd565b6040518082815260200191505060405180910390f35b610a3f611a1f565b6040518082815260200191505060405180910390f35b610a5d611a25565b604051808273ffffffffffffffffffffffffffffffffffffffff1673ffffffffffffffffffffffffffffffffffffffff16815260200191505060405180910390f35b610ae160048036036020811015610ab557600080fd5b81019080803573ffffffffffffffffffffffffffffffffffffffff169060200190929190505050611a2d565b6040518082815260200191505060405180910390f35b610b2d60048036036040811015610b0d57600080fd5b810190808035906020019092919080359060200190929190505050611c2d565b60405180878152602001806020018673ffffffffffffffffffffffffffffffffffffffff1673ffffffffffffffffffffffffffffffffffffffff1681526020018581526020018060200180602001848103845289818151815260200191508051906020019080838360005b83811015610bb3578082015181840152602081019050610b98565b50505050905090810190601f168015610be05780820380516001836020036101000a031916815260200191505b50848103835286818151815260200191508051906020019060200280838360005b83811015610c1c578082015181840152602081019050610c01565b50505050905001848103825285818151815260200191508051906020019060200280838360005b83811015610c5e578082015181840152602081019050610c43565b50505050905001995050505050505050505060405180910390f35b610c816120c1565b604051808273ffffffffffffffffffffffffffffffffffffffff1673ffffffffffffffffffffffffffffffffffffffff16815260200191505060405180910390f35b610ccb6120e6565b6040518080602001828103825283818151815260200191508051906020019060200280838360005b83811015610d0e578082015181840152602081019050610cf3565b505050509050019250505060405180910390f35b610d6460048036036020811015610d3857600080fd5b81019080803573ffffffffffffffffffffffffffffffffffffffff1690602001909291905050506121c2565b6040518082815260200191505060405180910390f35b610da660048036036020811015610d9057600080fd5b810190808035906020019092919050505061225e565b6040518082815260200191505060405180910390f35b610dc46122b9565b6040518082815260200191505060405180910390f35b610e1c60048036036020811015610df057600080fd5b81019080803573ffffffffffffffffffffffffffffffffffffffff1690602001909291905050506122c3565b6040518082815260200191505060405180910390f35b610e3a6124c3565b6040518080602001828103825283818151815260200191508051906020019060200280838360005b83811015610e7d578082015181840152602081019050610e62565b505050509050019250505060405180910390f35b610e99612551565b6040518082815260200191505060405180910390f35b610eb7612557565b6040518082815260200191505060405180910390f35b6006602052806000526040600020600091509050806000015490806001018054600181600116156101000203166002900480601f016020809104026020016040519081016040528092919081815260200182805460018160011615610100020316600290048015610f7f5780601f10610f5457610100808354040283529160200191610f7f565b820191906000526020600020905b815481529060010190602001808311610f6257829003601f168201915b5050505050908060020160009054906101000a900473ffffffffffffffffffffffffffffffffffffffff16908060030154908060050154905085565b6008602052806000526040600020600091509050806000015490806001018054600181600116156101000203166002900480601f01602080910402602001604051908101604052809291908181526020018280546001816001161561010002031660029004801561106d5780601f106110425761010080835404028352916020019161106d565b820191906000526020600020905b81548152906001019060200180831161105057829003601f168201915b5050505050908060020160009054906101000a900473ffffffffffffffffffffffffffffffffffffffff16908060020160149054906101000a900460ff16908060030154905085565b606060006110c3836121c2565b905060006110d084611652565b90506060816040519080825280602002602001820160405280156111035781602001602082028038833980820191505090505b50905060008090505b828110156111655760046000858152602001908152602001600020600401818154811061113557fe5b906000526020600020015482828151811061114c57fe5b602002602001018181525050808060010191505061110c565b50809350505050919050565b60075481565b600080600190505b6001548111611208578273ffffffffffffffffffffffffffffffffffffffff166002600083815260200190815260200160002060020160009054906101000a900473ffffffffffffffffffffffffffffffffffffffff1673ffffffffffffffffffffffffffffffffffffffff1614156111fb578091505061120e565b808060010191505061117f565b50600090505b919050565b6002602052806000526040600020600091509050806000015490806001018054600181600116156101000203166002900480601f0160208091040260200160405190810160405280929190818152602001828054600181600116156101000203166002900480156112c55780601f1061129a576101008083540402835291602001916112c5565b820191906000526020600020905b8154815290600101906020018083116112a857829003601f168201915b5050505050908060020160009054906101000a900473ffffffffffffffffffffffffffffffffffffffff16908060030154905084565b600080600190505b600554811161138c578273ffffffffffffffffffffffffffffffffffffffff166006600083815260200190815260200160002060020160009054906101000a900473ffffffffffffffffffffffffffffffffffffffff1673ffffffffffffffffffffffffffffffffffffffff16141561137f5780915050611392565b8080600101915050611303565b50600090505b919050565b6000606060008060608060006113ac8861225e565b90506000600860008381526020019081526020016000206000015490506060600860008481526020019081526020016000206001018054600181600116156101000203166002900480601f0160208091040260200160405190810160405280929190818152602001828054600181600116156101000203166002900480156114755780601f1061144a57610100808354040283529160200191611475565b820191906000526020600020905b81548152906001019060200180831161145857829003601f168201915b5050505050905060006008600085815260200190815260200160002060020160009054906101000a900473ffffffffffffffffffffffffffffffffffffffff1690506000600860008681526020019081526020016000206003015490506060816040519080825280602002602001820160405280156115035781602001602082028038833980820191505090505b5090506060826040519080825280602002602001820160405280156115375781602001602082028038833980820191505090505b5090506000600190505b83811161162f5760086000898152602001908152602001600020600401600082815260200190815260200160002060000160009054906101000a900473ffffffffffffffffffffffffffffffffffffffff168360018303815181106115a257fe5b602002602001019073ffffffffffffffffffffffffffffffffffffffff16908173ffffffffffffffffffffffffffffffffffffffff16815250506008600089815260200190815260200160002060040160008281526020019081526020016000206001015482600183038151811061161657fe5b6020026020010181815250508080600101915050611541565b508585858585859c509c509c509c509c509c505050505050505091939550919395565b60008061165e836121c2565b90506004600082815260200190815260200160002060040180549050915050919050565b6004602052806000526040600020600091509050806000015490806001018054600181600116156101000203166002900480601f0160208091040260200160405190810160405280929190818152602001828054600181600116156101000203166002900480156117345780601f1061170957610100808354040283529160200191611734565b820191906000526020600020905b81548152906001019060200180831161171757829003601f168201915b5050505050908060020160009054906101000a900473ffffffffffffffffffffffffffffffffffffffff16908060030154908060050154905085565b600060606000806060806000611785886112fb565b90506000600660008381526020019081526020016000206000015490506060600660008481526020019081526020016000206001018054600181600116156101000203166002900480601f01602080910402602001604051908101604052809291908181526020018280546001816001161561010002031660029004801561184e5780601f106118235761010080835404028352916020019161184e565b820191906000526020600020905b81548152906001019060200180831161183157829003601f168201915b5050505050905060006006600085815260200190815260200160002060020160009054906101000a900473ffffffffffffffffffffffffffffffffffffffff16905060006006600086815260200190815260200160002060030154905060606006600087815260200190815260200160002060040180548060200260200160405190810160405280929190818152602001828054801561190d57602002820191906000526020600020905b8154815260200190600101908083116118f9575b50505050509050606081516040519080825280602002602001820160405280156119465781602001602082028038833980820191505090505b50905060008090505b825181101561199a576119758f84838151811061196857fe5b602002602001015161255d565b82828151811061198157fe5b602002602001018181525050808060010191505061194f565b508585858585859c509c509c509c509c509c505050505050505091939550919395565b600080600190505b6007548111611a18578260086000838152602001908152602001600020600001541415611a0b576008600082815260200190815260200160002060030154915050611a1a565b80806001019150506119c5565b505b919050565b60035481565b600033905090565b600080600190505b6001548111611ad4578273ffffffffffffffffffffffffffffffffffffffff166002600083815260200190815260200160002060020160009054906101000a900473ffffffffffffffffffffffffffffffffffffffff1673ffffffffffffffffffffffffffffffffffffffff161415611ac7576002600082815260200190815260200160002060030154915050611c28565b8080600101915050611a35565b506000600190505b6003548111611b7b578273ffffffffffffffffffffffffffffffffffffffff166004600083815260200190815260200160002060020160009054906101000a900473ffffffffffffffffffffffffffffffffffffffff1673ffffffffffffffffffffffffffffffffffffffff161415611b6e576004600082815260200190815260200160002060030154915050611c28565b8080600101915050611adc565b506000600190505b6005548111611c22578273ffffffffffffffffffffffffffffffffffffffff166006600083815260200190815260200160002060020160009054906101000a900473ffffffffffffffffffffffffffffffffffffffff1673ffffffffffffffffffffffffffffffffffffffff161415611c15576006600082815260200190815260200160002060030154915050611c28565b8080600101915050611b83565b50600090505b919050565b6000606060008060608060008790506000611c478a61225e565b90506000600860008381526020019081526020016000206000015490506060600860008481526020019081526020016000206001018054600181600116156101000203166002900480601f016020809104026020016040519081016040528092919081815260200182805460018160011615610100020316600290048015611d105780601f10611ce557610100808354040283529160200191611d10565b820191906000526020600020905b815481529060010190602001808311611cf357829003601f168201915b5050505050905060006008600085815260200190815260200160002060020160009054906101000a900473ffffffffffffffffffffffffffffffffffffffff16905060006008600086815260200190815260200160002060030154905085811015611d79578095505b606086604051908082528060200260200182016040528015611daa5781602001602082028038833980820191505090505b509050606087604051908082528060200260200182016040528015611dde5781602001602082028038833980820191505090505b509050606083604051908082528060200260200182016040528015611e125781602001602082028038833980820191505090505b5090506000600190505b848111611e7657600860008a8152602001908152602001600020600401600082815260200190815260200160002060010154826001830381518110611e5d57fe5b6020026020010181815250508080600101915050611e1c565b5060008090505b84811015611f45576000600190505b85811015611f3757826001820381518110611ea357fe5b6020026020010151838281518110611eb757fe5b60200260200101511115611f2a576000836001830381518110611ed657fe5b60200260200101519050838281518110611eec57fe5b6020026020010151846001840381518110611f0357fe5b60200260200101818152505080848381518110611f1c57fe5b602002602001018181525050505b8080600101915050611e8c565b508080600101915050611e7d565b50600080905060008090505b8581101561209a578a821415611f665761209a565b828181518110611f7257fe5b6020026020010151848281518110611f8657fe5b6020026020010181815250506000600190505b86811161208457600860008c8152602001908152602001600020600401600082815260200190815260200160002060010154858381518110611fd757fe5b6020026020010151141561207757600860008c8152602001908152602001600020600401600082815260200190815260200160002060000160009054906101000a900473ffffffffffffffffffffffffffffffffffffffff1686838151811061203c57fe5b602002602001019073ffffffffffffffffffffffffffffffffffffffff16908173ffffffffffffffffffffffffffffffffffffffff16815250505b8080600101915050611f99565b5081806001019250508080600101915050611f51565b508787878787879f509f509f509f509f509f50505050505050505050509295509295509295565b6000809054906101000a900473ffffffffffffffffffffffffffffffffffffffff1681565b60608060055460405190808252806020026020018201604052801561211a5781602001602082028038833980820191505090505b5090506000600190505b60055481116121ba576006600082815260200190815260200160002060020160009054906101000a900473ffffffffffffffffffffffffffffffffffffffff1682600183038151811061217357fe5b602002602001019073ffffffffffffffffffffffffffffffffffffffff16908173ffffffffffffffffffffffffffffffffffffffff16815250508080600101915050612124565b508091505090565b600080600190505b6003548111612253578273ffffffffffffffffffffffffffffffffffffffff166004600083815260200190815260200160002060020160009054906101000a900473ffffffffffffffffffffffffffffffffffffffff1673ffffffffffffffffffffffffffffffffffffffff1614156122465780915050612259565b80806001019150506121ca565b50600090505b919050565b600080600090506000600190505b60075481116122ad5783600860008381526020019081526020016000206000015414156122a05780915081925050506122b4565b808060010191505061226c565b5060009150505b919050565b6000600754905090565b600080600190505b600154811161236a578273ffffffffffffffffffffffffffffffffffffffff166002600083815260200190815260200160002060020160009054906101000a900473ffffffffffffffffffffffffffffffffffffffff1673ffffffffffffffffffffffffffffffffffffffff16141561235d5760026000828152602001908152602001600020600001549150506124be565b80806001019150506122cb565b506000600190505b6003548111612411578273ffffffffffffffffffffffffffffffffffffffff166004600083815260200190815260200160002060020160009054906101000a900473ffffffffffffffffffffffffffffffffffffffff1673ffffffffffffffffffffffffffffffffffffffff1614156124045760046000828152602001908152602001600020600001549150506124be565b8080600101915050612372565b506000600190505b60055481116124b8578273ffffffffffffffffffffffffffffffffffffffff166006600083815260200190815260200160002060020160009054906101000a900473ffffffffffffffffffffffffffffffffffffffff1673ffffffffffffffffffffffffffffffffffffffff1614156124ab5760066000828152602001908152602001600020600001549150506124be565b8080600101915050612419565b50600090505b919050565b6060806007546040519080825280602002602001820160405280156124f75781602001602082028038833980820191505090505b5090506000600190505b600754811161254957600860008281526020019081526020016000206000015482600183038151811061253057fe5b6020026020010181815250508080600101915050612501565b508091505090565b60055481565b60015481565b6000806125698361225e565b90506000600190505b6008600083815260200190815260200160002060030154811161265557600060086000848152602001908152602001600020600401600083815260200190815260200160002060000160009054906101000a900473ffffffffffffffffffffffffffffffffffffffff1690508573ffffffffffffffffffffffffffffffffffffffff168173ffffffffffffffffffffffffffffffffffffffff1614156126475760086000848152602001908152602001600020600401600083815260200190815260200160002060010154935050505061265c565b508080600101915050612572565b5060009150505b9291505056fea265627a7a72315820563f3575e726c48e6ce293f915429f131667c719fed4613b7ed021e5f94a9bfe64736f6c63430005100032",
  "source": "// SPDX-License-Identifier: MIT\r\npragma solidity >=0.4.22 <0.9.0;\r\n\r\n/*\r\n\r\n1. :  Save the permission structure of the current address\r\n    AdminSelf,  ProfessorSelf,  StudentSelf\r\n\r\n2. : Save course details\r\n    CourseInf,  CourseStudent\r\n\r\n3. modifier function\r\n    onlyAdmin,  onlyProfessor,  checkIsStudent\r\n\r\n\r\n/////////////////////////////////////////////////////////////////////////////////////////////////////////////////\r\n/////////////////////////////////////////////////////////////////////////////////////////////////////////////////\r\n\r\n4.1. setter function\r\n\r\n    setcourseStudentCounts          // course id(,,)\r\n                                    // Set the number of students with the course ID (called once when the student joins the course)\r\n\r\n    setNameByAddress()              // addressname,  Change this person's name through address\r\n\r\n\r\n/////////////////////////////////////////////////////////////////////////////////////////////////////////////////\r\n/////////////////////////////////////////////////////////////////////////////////////////////////////////////////\r\n\r\n4.2 getter function\r\n\r\n    getMsgSender                    // msg.sender\r\n    \r\n    getMsgSenderAuthorization       // msg.sender\r\n\r\n    ==> getIdByAddress()            // addressid , Find this person's id through address\r\n\r\n    ==> getAddressById()            // ID  ,  Find this person's address by ID\r\n\r\n    getAuthorizationByAddress()     // addressauthorization , Find this person's authorization through address\r\n\r\n/////////////////////////////////////////////////////////////////////////////////////////////////////////////////\r\n\r\n// getter about admin\r\n    getAdminCounts()                // \r\n    getAdminIndexByAddress()        //  address adminindex , Find the index in admin by address\r\n\r\n/////////////////////////////////////////////////////////////////////////////////////////////////////////////////\r\n\r\n// getter about professor\r\n    getProfessorCounts()            // \r\n    getProfessorIndexByAddress()    //  address professorindex , Find the index in the professor by address\r\n    getProfessorInfByProAddress()   // proAddresspro\r\n\r\n/////////////////////////////////////////////////////////////////////////////////////////////////////////////////\r\n\r\n// getter about student\r\n    getStudentCounts()              // \r\n    getStudentIndexByAddress()      //  address studentindex  ,Find the index in the student by address\r\n    getStudentInfByStuAddress()     // stuAddressstu\r\n\r\n/////////////////////////////////////////////////////////////////////////////////////////////////////////////////\r\n\r\n// getter about course\r\n\r\n    // about all course\r\n    getIndexByCourseId              // course id    Get the index of this course by course ID\r\n \r\n    getAllCourseId()                // course id\r\n\r\n    getcourseStudentCounts          // course id  The number of students to get the course ID\r\n\r\n    getCourseCounts()               // courseCounts  Return the current courseCounts value\r\n\r\n    getCourseStudentsByCourseId()   // course id\r\n\r\n    getCourseInfByCourseId()        // course id\r\n\r\n    getTopStudentsByCourseId()      // course idn\r\n\r\n\r\n    // pro\r\n    getCourseCountsByProAddress()   //   Get a few courses taught by a certain teacher\r\n\r\n    getCourseIdByProAddress()       // proAddressid   Get an array of all course IDs opened by a teacher through proAddress\r\n\r\n\r\n    // stu\r\n    getCourseCountsByStuAddress()   // \r\n\r\n    getCourseIdByStuAddress()       // stuAddressid   Get an array of all course IDs opened by a student through stuAddress\r\n\r\n\r\n\r\n/////////////////////////////////////////////////////////////////////////////////////////////////////////////////\r\n/////////////////////////////////////////////////////////////////////////////////////////////////////////////////\r\n\r\n4.3. check function\r\n\r\n    checkIdExisted()                // id         Verify that this ID has been used\r\n\r\n    checkAddressExisted()           // address    Verify that this address has been used\r\n\r\n    ////// check course\r\n\r\n    checkCourseCanApply             // course id \r\n                                    // Check the course ID to see if you can apply for this course\r\n\r\n    checkCourseExisted              // course id \r\n                                    // Check if this course exists by course ID\r\n\r\n    checkCourseHeldByProBlockAddress        // courseId,proBlockAddress \r\n                                            // Check whether the professor owns the course through courseId,proId\r\n\r\n    checkCourseHeldByStuBlockAddress        // courseId,stuBlockAddress \r\n                                            // Through courseId,stuId checks whether the student owns the course\r\n\r\n    \r\n*/\r\n\r\ncontract StructAndModifiers{\r\n\r\n    address public modifiersOwner;   // \r\n\r\n    constructor() public {\r\n        modifiersOwner = msg.sender;\r\n        adminSelfs[1] = AdminSelf(1,'Root',modifiersOwner,3);\r\n        adminCounts++;\r\n    }\r\n\r\n//// Struct\r\n\r\n    ////////////\r\n    // admin //\r\n    ///////////\r\n    uint public adminCounts = 0; //\r\n    struct AdminSelf{\r\n        uint adminId;               // \r\n        string adminName;           //\r\n        address adminBlockAddress;  // \r\n        uint adminAuthorization;    // = 3\r\n    }\r\n    mapping(uint => AdminSelf)public adminSelfs; //\r\n    \r\n    ///////////////\r\n    // professor //\r\n    ///////////////\r\n    uint public professorCounts = 0; //\r\n    struct ProfessorSelf{\r\n        uint proId;               // \r\n        string proName;           //\r\n        address proBlockAddress;  // \r\n        uint proAuthorization;    // = 2\r\n        uint[] myProCourses;          //    Save the class you created\r\n        // ,    \r\n        // , +1 \r\n        // ,,-1   \r\n        // 0\r\n        // 0\r\n        /* \r\n            Judge whether the teacher is teaching, and the teacher who is teaching cannot be arbitrarily deprived of his authority,\r\n            When the teacher creates a course, when each student applies, + 1\r\n            When the teacher gives the student the score of a course, it indicates the end of a course, then - 1\r\n            When it is 0, it means that no course is taught\r\n            Initial 0\r\n        */\r\n        uint isTeachingPeopleSum;          \r\n    }\r\n    mapping(uint => ProfessorSelf)public professorSelfs; //\r\n    \r\n    /////////////\r\n    // student //\r\n    /////////////\r\n    uint public studentCounts = 0; //\r\n    struct StudentSelf{\r\n        uint stuId;               // \r\n        string stuName;           //\r\n        address stuBlockAddress;  // \r\n        uint stuAuthorization;    // = 1\r\n        uint[] myStuCourses;      //  Save the lesson I'm taking\r\n        // , \r\n        // +1,, -1\r\n        // 0\r\n        // 0\r\n        /*\r\n            Judge whether students are in class. Students in class cannot be removed at will\r\n            When students join a course, they will + 1. When students get a grade, it means that a course ends, then - 1\r\n            If it is 0, it means that you have not studied a course\r\n            Initial 0\r\n        */\r\n        uint isLearningSum;         \r\n    }\r\n    \r\n    mapping(uint => StudentSelf)public studentSelfs; // \r\n    \r\n    /*\r\n    /////////////\r\n    // course  //\r\n    /////////////\r\n    \r\n    1.                       Record course information\r\n    2. ()    Record score information (only teachers can modify it)\r\n    \r\n    \r\n    */\r\n    \r\n    uint public courseCounts = 0;\r\n        \r\n    //  Course student information\r\n    struct CourseStudent{\r\n        address stuBlockAddress;\r\n        uint stuGrade;\r\n    }\r\n\r\n    // Course information\r\n    struct CourseInf{\r\n        uint courseId;          //\r\n        string courseName;      //\r\n        address proBlockAddress;\r\n        bool canApply;          // , \r\n        uint courseStudentCounts;  // \r\n        mapping (uint => CourseStudent) courseStudents;  // \r\n    }\r\n    \r\n    mapping (uint => CourseInf) public courseInfs;//Course information index\r\n    \r\n    \r\n\r\n//////////////////////////////////////////////////////////////  \r\n//////////////////////////////////////////////////////////////  \r\n/////////////////////////////// modifier function\r\n    \r\n    // onlyAdmin\r\n    modifier onlyAdmin() {\r\n        bool isAdmin = false;\r\n        for (uint256 i = 0; i <= adminCounts; i++) {\r\n            if(msg.sender == adminSelfs[i].adminBlockAddress){                \r\n                isAdmin = true;\r\n            }\r\n        }\r\n        require(isAdmin,\">>>>>>isAdmin = false\");\r\n        _;\r\n    }\r\n\r\n    \r\n    // onlyProfessor\r\n    modifier onlyProfessor() {\r\n        bool isProfessor = false;\r\n        for (uint256 i = 0; i <= professorCounts; i++) {  \r\n            if(msg.sender == professorSelfs[i].proBlockAddress){               \r\n                isProfessor = true;\r\n            }\r\n        }\r\n        require(isProfessor,\"isProfessor = false\");\r\n        _;\r\n    }\r\n    \r\n    // \r\n    function checkIsStudent(address _stuBlockAddress) internal view returns(bool){\r\n        for (uint i = 0; i <= studentCounts; i++) {   \r\n            if( _stuBlockAddress == studentSelfs[i].stuBlockAddress){                \r\n                return true;\r\n            }\r\n        }\r\n        return false;\r\n    }\r\n    \r\n    \r\n  \r\n//////////////////////////////////////////////////////////////  \r\n//////////////////////////////////////////////////////////////  \r\n///////////////////////////////  4.1. setter function\r\n\r\n\r\n    // course id Number of students setting course ID\r\n    // ,  Call once when students join the course\r\n    function setcourseStudentCounts(uint _courseid) internal {\r\n        for(uint i=1;i<=courseCounts;i++){\r\n            if(courseInfs[i].courseId == _courseid){\r\n                courseInfs[i].courseStudentCounts++; // ,  Call once, add one person\r\n            }\r\n        }\r\n    }\r\n\r\n\r\n//////////////////////////////////////////////////////////////  \r\n//////////////////////////////////////////////////////////////  \r\n///////////////////////////////  4.2. getter function\r\n\r\n\r\n    // msg.sender\r\n    function getMsgSender() public view returns(address){\r\n        return msg.sender;\r\n    }\r\n\r\n    // addressid , Find this person's id through address\r\n    function getIdByAddress(address _address) public view returns(uint){\r\n        for(uint i=1;i<=adminCounts;i++){\r\n            if(adminSelfs[i].adminBlockAddress == _address)\r\n                return adminSelfs[i].adminId;\r\n        }\r\n        for(uint i=1;i<=professorCounts;i++){\r\n            if(professorSelfs[i].proBlockAddress == _address)\r\n                return professorSelfs[i].proId;\r\n        }\r\n        for(uint i=1;i<=studentCounts;i++){\r\n            if(studentSelfs[i].stuBlockAddress == _address)\r\n                return studentSelfs[i].stuId;\r\n        }\r\n        return 0; //\r\n    }\r\n\r\n\r\n    // addressauthorization , Find this person's authorization through address\r\n    function getAuthorizationByAddress(address _address) public view returns(uint){\r\n        for(uint i=1;i<=adminCounts;i++){\r\n            if(adminSelfs[i].adminBlockAddress == _address)\r\n                return adminSelfs[i].adminAuthorization;\r\n        }\r\n        for(uint i=1;i<=professorCounts;i++){\r\n            if(professorSelfs[i].proBlockAddress == _address)\r\n                return professorSelfs[i].proAuthorization;\r\n        }\r\n        for(uint i=1;i<=studentCounts;i++){\r\n            if(studentSelfs[i].stuBlockAddress == _address)\r\n                return studentSelfs[i].stuAuthorization;\r\n        }\r\n        return 0; //\r\n    }\r\n\r\n\r\n/////////////////////////////////////////////////////////////////////////////////////////////////////////////////\r\n\r\n// getter about admin\r\n\r\n\r\n    //  address adminindex , Find the index in admin by ID\r\n    function getAdminIndexByAddress(address _adminBlockAddress) public view returns(uint){\r\n        for(uint i=1;i<=adminCounts;i++){\r\n            if(adminSelfs[i].adminBlockAddress ==_adminBlockAddress) {\r\n                return i;  // \r\n            }    \r\n        }\r\n        return 0; // \r\n    }\r\n    \r\n\r\n\r\n/////////////////////////////////////////////////////////////////////////////////////////////////////////////////\r\n\r\n// getter about professor\r\n\r\n    //  address professorindex , Find the index in the professor by ID\r\n    function getProfessorIndexByAddress(address _proBlockAddress) public view returns(uint){\r\n        for(uint i=1;i<=professorCounts;i++){\r\n            if(professorSelfs[i].proBlockAddress ==_proBlockAddress) {\r\n                return i;  // \r\n            }    \r\n        }\r\n        return 0; // \r\n    }\r\n\r\n/////////////////////////////////////////////////////////////////////////////////////////////////////////////////\r\n\r\n// getter about student\r\n\r\n    //  address studentindex  ,Find the index in the student by ID\r\n    function getStudentIndexByAddress(address _stuBlockAddress) public view returns(uint){\r\n        for(uint i=1;i<=studentCounts;i++){\r\n            if(studentSelfs[i].stuBlockAddress ==_stuBlockAddress) {\r\n                return i;  // \r\n            }    \r\n        }\r\n        return 0; // \r\n    }\r\n\r\n    // stuAddressstu\r\n    function getStudentInfByStuAddress(address _stuBlockAddress) public view returns(uint,string memory,address,uint,uint[] memory, uint[] memory){\r\n        // stuIndex\r\n        uint stuIndex = getStudentIndexByAddress(_stuBlockAddress);\r\n        //  stuId,stuName,stuBlockAddress,stuAuthorization,myStuCourses\r\n        uint stuId_ = studentSelfs[stuIndex].stuId;\r\n        string memory stuName_ = studentSelfs[stuIndex].stuName;\r\n        address stuBlockAddress_ = studentSelfs[stuIndex].stuBlockAddress;\r\n        uint stuAuthorization_ = studentSelfs[stuIndex].stuAuthorization;\r\n        uint[] memory myStuCourses_ = studentSelfs[stuIndex].myStuCourses;\r\n\r\n        //phot\r\n        uint[] memory stuGrades = new uint[](myStuCourses_.length);\r\n        for(uint i = 0; i < myStuCourses_.length; i++){\r\n            stuGrades[i] = getStudentGrade(_stuBlockAddress, myStuCourses_[i]);\r\n        }\r\n        //\r\n\r\n        // return\r\n        return (stuId_,stuName_,stuBlockAddress_,stuAuthorization_,myStuCourses_, stuGrades);\r\n    }\r\n\r\n    function getStudentGrade(address _stuAddress, uint _courseId) internal view returns(uint){\r\n        uint courseIdx = getIndexByCourseId(_courseId);\r\n        for(uint i = 1; i <= courseInfs[courseIdx].courseStudentCounts; i++){\r\n            address currentAddr = courseInfs[courseIdx].courseStudents[i].stuBlockAddress;\r\n            if(currentAddr == _stuAddress){\r\n                return courseInfs[courseIdx].courseStudents[i].stuGrade;\r\n            }\r\n        }\r\n        return 0;\r\n    }\r\n\r\n\r\n    // \r\n    function getAllStudentAddress() public view returns(address[] memory){\r\n        address[] memory allStudentAddress_ = new address[](studentCounts);\r\n        for(uint i=1;i<=studentCounts;i++){\r\n            allStudentAddress_[i-1] = studentSelfs[i].stuBlockAddress;\r\n        }\r\n        return allStudentAddress_;\r\n    }\r\n\r\n\r\n /////////////////////////////////////////////////////////////////////////////////////////////////////////////////\r\n\r\n// getter about course\r\n\r\n    // about all course\r\n\r\n    // course id  Get the index of this course through course ID\r\n    function getIndexByCourseId(uint _courseId) public view returns(uint){\r\n        //   Find the course first\r\n        uint indexOfCourseID = 0;\r\n        for(uint i=1;i<=courseCounts;i++){\r\n            if(courseInfs[i].courseId == _courseId){\r\n                indexOfCourseID = i;\r\n                return indexOfCourseID;\r\n            }\r\n        }\r\n        return 0;\r\n    }\r\n\r\n    // course id\r\n    function getAllCourseId() public view returns(uint[] memory){\r\n        uint [] memory allCourseId_ = new uint[](courseCounts);\r\n        for(uint i=1;i<=courseCounts;i++){\r\n            allCourseId_[i-1] = courseInfs[i].courseId;\r\n        }\r\n        return allCourseId_;\r\n    }\r\n\r\n\r\n\r\n    // course id  Number of students who get course ID\r\n    function getcourseStudentCounts(uint _courseid) public view returns(uint courseStudentCounts_){\r\n        for(uint i=1;i<=courseCounts;i++){\r\n            if(courseInfs[i].courseId == _courseid){\r\n                return courseInfs[i].courseStudentCounts;\r\n            }\r\n        }\r\n    }\r\n\r\n    // courseCounts\r\n    function getCourseCounts() public view returns(uint){\r\n        return courseCounts;    \r\n    }\r\n\r\n\r\n    // course id\r\n    function getCourseInfByCourseId(uint _courseid) public view returns(uint,string memory,address,uint,address[] memory,uint[] memory){\r\n        // \r\n        uint courseIndex = getIndexByCourseId(_courseid);\r\n\r\n        // courseId_, courseName_,proBlockAddress_,courseStudentCounts_\r\n        uint courseId_ = courseInfs[courseIndex].courseId;          \r\n        string memory courseName_ = courseInfs[courseIndex].courseName;      \r\n        address proBlockAddress_ = courseInfs[courseIndex].proBlockAddress;\r\n        uint courseStudentCounts_ = courseInfs[courseIndex].courseStudentCounts;  \r\n\r\n        // course id\r\n        // \r\n        address[] memory stuAddressTemp = new address[](courseStudentCounts_); \r\n        uint[] memory stuGradeTemp = new uint[](courseStudentCounts_); \r\n\r\n        for(uint i=1;i<=courseStudentCounts_;i++){\r\n            stuAddressTemp[i-1] = courseInfs[courseIndex].courseStudents[i].stuBlockAddress;\r\n            stuGradeTemp[i-1] = courseInfs[courseIndex].courseStudents[i].stuGrade;\r\n        }\r\n\r\n\r\n        return (courseId_,courseName_,proBlockAddress_,courseStudentCounts_,stuAddressTemp,stuGradeTemp);\r\n    }\r\n\r\n\r\n    // course idn\r\n    function getTopStudentsByCourseId(uint _courseid,uint _getTops) public view returns(uint,string memory,address,uint,address[] memory,uint[] memory){\r\n        // \r\n        uint getTops = _getTops;\r\n        \r\n        // \r\n        uint courseIndex = getIndexByCourseId(_courseid);\r\n\r\n        // courseId_, courseName_,proBlockAddress_,courseStudentCounts_\r\n        uint courseId_ = courseInfs[courseIndex].courseId;          \r\n        string memory courseName_ = courseInfs[courseIndex].courseName;      \r\n        address proBlockAddress_ = courseInfs[courseIndex].proBlockAddress;\r\n        uint courseStudentCounts_ = courseInfs[courseIndex].courseStudentCounts;  \r\n\r\n        // \r\n        if(courseStudentCounts_ < getTops){\r\n            getTops = courseStudentCounts_;\r\n        }\r\n        // course id\r\n        // \r\n        \r\n        address[] memory stuAddressTemp = new address[](getTops); \r\n        uint[] memory stuGradeTemp = new uint[](getTops); \r\n\r\n\r\n        // \r\n        uint[] memory gradeOfStuGradeSort = new uint[](courseStudentCounts_);\r\n        //  1 -- courseStudentCounts_\r\n        for(uint i=1;i<=courseStudentCounts_;i++){ //  \r\n            gradeOfStuGradeSort[i-1] = courseInfs[courseIndex].courseStudents[i].stuGrade;\r\n        }\r\n\r\n        //  \r\n        for(uint i=0;i<courseStudentCounts_;i++){ //  \r\n            for(uint j=1;j<courseStudentCounts_;j++){ // \r\n                if(gradeOfStuGradeSort[j] > gradeOfStuGradeSort[j-1]){\r\n                    // \r\n                    uint temp = gradeOfStuGradeSort[j-1];\r\n                    gradeOfStuGradeSort[j-1] = gradeOfStuGradeSort[j];\r\n                    gradeOfStuGradeSort[j] = temp;\r\n                }\r\n            }\r\n        }\r\n        // indexOfStuGradeSort\r\n        //  \r\n        uint flag = 0;\r\n        for(uint i=0;i<courseStudentCounts_;i++){ //  \r\n            if(flag == getTops){\r\n                break;\r\n            }\r\n            // \r\n            stuGradeTemp[i] = gradeOfStuGradeSort[i];\r\n            // \r\n            for(uint j=1;j<=courseStudentCounts_;j++){ //  \r\n                if(stuGradeTemp[i] == courseInfs[courseIndex].courseStudents[j].stuGrade){\r\n                    stuAddressTemp[i] = courseInfs[courseIndex].courseStudents[j].stuBlockAddress;\r\n                }\r\n            }\r\n            flag++;\r\n        }\r\n  \r\n        return (courseId_,courseName_,proBlockAddress_,courseStudentCounts_,stuAddressTemp,stuGradeTemp);\r\n    }\r\n\r\n\r\n\r\n\r\n    \r\n    // pro ///////////////////////////////////\r\n\r\n    // \r\n    function getCourseCountsByProAddress(address _proBlockAddress) public view returns(uint){\r\n        // proIndex\r\n        uint proIndex = getProfessorIndexByAddress(_proBlockAddress);\r\n        return professorSelfs[proIndex].myProCourses.length;\r\n\r\n    }\r\n\r\n    // proAddressid   Get an array of all course IDs opened by a teacher through proAddress\r\n    function getCourseIdByProAddress(address _proBlockAddress) public view returns(uint[] memory){\r\n        // proIndex\r\n        uint proIndex = getProfessorIndexByAddress(_proBlockAddress);\r\n        // \r\n        uint courseLens = getCourseCountsByProAddress(_proBlockAddress);\r\n        // \r\n        uint[] memory myProCoursesTemp = new uint[](courseLens); \r\n\r\n        for(uint i=0;i<courseLens;i++){\r\n            myProCoursesTemp[i] = professorSelfs[proIndex].myProCourses[i];\r\n        }\r\n        return myProCoursesTemp;\r\n    }\r\n\r\n//////////////////////////////////////////////////////////////  \r\n//////////////////////////////////////////////////////////////  \r\n///////////////////////////////   4.3. check function\r\n    \r\n    \r\n    // address  Verify that this address has been used\r\n    function checkAddressExisted(address _address) internal view returns(bool){\r\n        for(uint i=1;i<=adminCounts;i++){\r\n            if(adminSelfs[i].adminBlockAddress == _address)\r\n                return true;\r\n        }\r\n        for(uint i=1;i<=professorCounts;i++){\r\n            if(professorSelfs[i].proBlockAddress == _address)\r\n                return true;\r\n        }\r\n        for(uint i=1;i<=studentCounts;i++){\r\n            if(studentSelfs[i].stuBlockAddress == _address)\r\n                return true;\r\n        }\r\n        return false; // \r\n    }\r\n\r\n\r\n    ////// check course /////////////////\r\n\r\n    // \r\n    function checkCourseCanApply(uint _courseId) internal view returns(bool){\r\n        //  find this course\r\n        for(uint i=1;i<=courseCounts;i++){\r\n            if(courseInfs[i].courseId == _courseId){\r\n                if(courseInfs[i].canApply == true){\r\n                    return true;\r\n                }\r\n            }\r\n        }\r\n        return false;\r\n    }\r\n\r\n    // course id   Check whether this course exists through course ID\r\n    function checkCourseExisted(uint _courseId) internal view returns(bool){\r\n        //  find this course\r\n        for(uint i=1;i<=courseCounts;i++){\r\n            if(courseInfs[i].courseId == _courseId){\r\n                return true;\r\n            }\r\n        }\r\n        return false;\r\n    }\r\n    \r\n    // courseidproBlockAddress\r\n    // Check whether the professor has this course through courseid and proid\r\n    function checkCourseHeldByProBlockAddress(uint _courseId,address _proBlockAddress) internal view returns(bool){\r\n        for(uint i=1;i<=professorCounts;i++){\r\n            //   Find the corresponding Professor first\r\n            if(professorSelfs[i].proBlockAddress == _proBlockAddress){\r\n                // proBlockAddressmyProCoursescourseId\r\n                // Check whether the corresponding courseid exists in the myprocourses array under this proid\r\n                for(uint k=0;k<=professorSelfs[i].myProCourses.length;k++){\r\n                    if(professorSelfs[i].myProCourses[k] == _courseId){\r\n                        return true;\r\n                    }\r\n                }\r\n            }\r\n        }\r\n        return false;\r\n    }\r\n    \r\n    \r\n    // courseId,stuId \r\n    // Check whether students have this course through courseid and stuid\r\n    function checkCourseHeldByStuBlockAddress(uint _courseId,address _stuBlockAddress) internal view returns(bool){\r\n        for(uint i=1;i<=studentCounts;i++){\r\n            //   Find the corresponding student first\r\n            if(studentSelfs[i].stuBlockAddress == _stuBlockAddress){\r\n                // stuBlockAddressmyStuCoursescourseId\r\n                // Check whether the corresponding courseid exists in the mystucourses array under this stuid\r\n                for(uint k=0;k<=studentSelfs[i].myStuCourses.length;k++){\r\n                    if(studentSelfs[i].myStuCourses[k] == _courseId){\r\n                        return true;\r\n                    }\r\n                }\r\n            }\r\n        }\r\n        return false;\r\n    }\r\n    \r\n}\r\n\r\n",
  "sourcePath": "D:\\UNIV\\year 4\\capstone\\scouter2\\contracts\\StructAndModifiers.sol",
  "compiler": {
    "name": "solc",
    "version": "0.5.16+commit.9c3226ce.Emscripten.clang"
  },
  "schemaVersion": "3.4.3",
  "updatedAt": "2021-12-03T17:13:40.209Z",
  "devdoc": {
    "methods": {}
  },
  "userdoc": {
    "methods": {
      "getAdminIndexByAddress(address)": {
        "notice": "//////////////////////////////////////////////////////////////////////////////////////////////////////////////"
      },
      "getIndexByCourseId(uint256)": {
        "notice": "//////////////////////////////////////////////////////////////////////////////////////////////////////////////"
      },
      "getMsgSender()": {
        "notice": "///////////////////////////////////////////////////////////   ///////////////////////////////////////////////////////////   ////////////////////////////  4.2. getter function"
      },
      "getProfessorIndexByAddress(address)": {
        "notice": "//////////////////////////////////////////////////////////////////////////////////////////////////////////////"
      },
      "getStudentIndexByAddress(address)": {
        "notice": "//////////////////////////////////////////////////////////////////////////////////////////////////////////////"
      }
    }
  }
}